Archive member included to satisfy reference by file (symbol)

/usr/lib/gcc/arm-none-eabi/9.2.1/../../../arm-none-eabi/lib/thumb/v7e-m/nofp/libc_nano.a(lib_a-errno.o)
                              /home/ch/RIOT/tests/leds/bin/lora-e5-dev/newlib_syscalls_default/syscalls.o (__errno)
/usr/lib/gcc/arm-none-eabi/9.2.1/../../../arm-none-eabi/lib/thumb/v7e-m/nofp/libc_nano.a(lib_a-impure.o)
                              /usr/lib/gcc/arm-none-eabi/9.2.1/../../../arm-none-eabi/lib/thumb/v7e-m/nofp/libc_nano.a(lib_a-errno.o) (_impure_ptr)
/usr/lib/gcc/arm-none-eabi/9.2.1/../../../arm-none-eabi/lib/thumb/v7e-m/nofp/libc_nano.a(lib_a-init.o)
                              /home/ch/RIOT/tests/leds/bin/lora-e5-dev/cortexm_common/vectors_cortexm.o (__libc_init_array)
/usr/lib/gcc/arm-none-eabi/9.2.1/../../../arm-none-eabi/lib/thumb/v7e-m/nofp/libc_nano.a(lib_a-malloc.o)
                              /home/ch/RIOT/tests/leds/bin/lora-e5-dev/malloc_thread_safe/malloc_wrappers.o (malloc)
/usr/lib/gcc/arm-none-eabi/9.2.1/../../../arm-none-eabi/lib/thumb/v7e-m/nofp/libc_nano.a(lib_a-memcmp.o)
                              /home/ch/RIOT/tests/leds/bin/lora-e5-dev/core/atomic_c11.o (memcmp)
/usr/lib/gcc/arm-none-eabi/9.2.1/../../../arm-none-eabi/lib/thumb/v7e-m/nofp/libc_nano.a(lib_a-memcpy.o)
                              /home/ch/RIOT/tests/leds/bin/lora-e5-dev/core/atomic_c11.o (memcpy)
/usr/lib/gcc/arm-none-eabi/9.2.1/../../../arm-none-eabi/lib/thumb/v7e-m/nofp/libc_nano.a(lib_a-memset.o)
                              /home/ch/RIOT/tests/leds/bin/lora-e5-dev/malloc_thread_safe/malloc_wrappers.o (memset)
/usr/lib/gcc/arm-none-eabi/9.2.1/../../../arm-none-eabi/lib/thumb/v7e-m/nofp/libc_nano.a(lib_a-mstats.o)
                              /home/ch/RIOT/tests/leds/bin/lora-e5-dev/newlib_syscalls_default/syscalls.o (mallinfo)
/usr/lib/gcc/arm-none-eabi/9.2.1/../../../arm-none-eabi/lib/thumb/v7e-m/nofp/libc_nano.a(lib_a-nano-freer.o)
                              /usr/lib/gcc/arm-none-eabi/9.2.1/../../../arm-none-eabi/lib/thumb/v7e-m/nofp/libc_nano.a(lib_a-malloc.o) (_free_r)
/usr/lib/gcc/arm-none-eabi/9.2.1/../../../arm-none-eabi/lib/thumb/v7e-m/nofp/libc_nano.a(lib_a-nano-mallinfor.o)
                              /usr/lib/gcc/arm-none-eabi/9.2.1/../../../arm-none-eabi/lib/thumb/v7e-m/nofp/libc_nano.a(lib_a-mstats.o) (_mallinfo_r)
/usr/lib/gcc/arm-none-eabi/9.2.1/../../../arm-none-eabi/lib/thumb/v7e-m/nofp/libc_nano.a(lib_a-nano-mallocr.o)
                              /usr/lib/gcc/arm-none-eabi/9.2.1/../../../arm-none-eabi/lib/thumb/v7e-m/nofp/libc_nano.a(lib_a-malloc.o) (_malloc_r)
/usr/lib/gcc/arm-none-eabi/9.2.1/../../../arm-none-eabi/lib/thumb/v7e-m/nofp/libc_nano.a(lib_a-nano-malloptr.o)
                              /usr/lib/gcc/arm-none-eabi/9.2.1/../../../arm-none-eabi/lib/thumb/v7e-m/nofp/libc_nano.a(lib_a-mstats.o) (_mallopt_r)
/usr/lib/gcc/arm-none-eabi/9.2.1/../../../arm-none-eabi/lib/thumb/v7e-m/nofp/libc_nano.a(lib_a-nano-mallstatsr.o)
                              /usr/lib/gcc/arm-none-eabi/9.2.1/../../../arm-none-eabi/lib/thumb/v7e-m/nofp/libc_nano.a(lib_a-mstats.o) (_malloc_stats_r)
/usr/lib/gcc/arm-none-eabi/9.2.1/../../../arm-none-eabi/lib/thumb/v7e-m/nofp/libc_nano.a(lib_a-printf.o)
                              /home/ch/RIOT/tests/leds/bin/lora-e5-dev/application_tests_leds/main.o (printf)
/usr/lib/gcc/arm-none-eabi/9.2.1/../../../arm-none-eabi/lib/thumb/v7e-m/nofp/libc_nano.a(lib_a-puts.o)
                              /home/ch/RIOT/tests/leds/bin/lora-e5-dev/application_tests_leds/main.o (puts)
/usr/lib/gcc/arm-none-eabi/9.2.1/../../../arm-none-eabi/lib/thumb/v7e-m/nofp/libc_nano.a(lib_a-realloc.o)
                              /home/ch/RIOT/tests/leds/bin/lora-e5-dev/malloc_thread_safe/malloc_wrappers.o (realloc)
/usr/lib/gcc/arm-none-eabi/9.2.1/../../../arm-none-eabi/lib/thumb/v7e-m/nofp/libc_nano.a(lib_a-wbuf.o)
                              /usr/lib/gcc/arm-none-eabi/9.2.1/../../../arm-none-eabi/lib/thumb/v7e-m/nofp/libc_nano.a(lib_a-puts.o) (__swbuf_r)
/usr/lib/gcc/arm-none-eabi/9.2.1/../../../arm-none-eabi/lib/thumb/v7e-m/nofp/libc_nano.a(lib_a-wsetup.o)
                              /usr/lib/gcc/arm-none-eabi/9.2.1/../../../arm-none-eabi/lib/thumb/v7e-m/nofp/libc_nano.a(lib_a-puts.o) (__swsetup_r)
/usr/lib/gcc/arm-none-eabi/9.2.1/../../../arm-none-eabi/lib/thumb/v7e-m/nofp/libc_nano.a(lib_a-fflush.o)
                              /usr/lib/gcc/arm-none-eabi/9.2.1/../../../arm-none-eabi/lib/thumb/v7e-m/nofp/libc_nano.a(lib_a-wbuf.o) (_fflush_r)
/usr/lib/gcc/arm-none-eabi/9.2.1/../../../arm-none-eabi/lib/thumb/v7e-m/nofp/libc_nano.a(lib_a-findfp.o)
                              /usr/lib/gcc/arm-none-eabi/9.2.1/../../../arm-none-eabi/lib/thumb/v7e-m/nofp/libc_nano.a(lib_a-mstats.o) (__sinit)
/usr/lib/gcc/arm-none-eabi/9.2.1/../../../arm-none-eabi/lib/thumb/v7e-m/nofp/libc_nano.a(lib_a-fprintf.o)
                              /usr/lib/gcc/arm-none-eabi/9.2.1/../../../arm-none-eabi/lib/thumb/v7e-m/nofp/libc_nano.a(lib_a-mstats.o) (fiprintf)
/usr/lib/gcc/arm-none-eabi/9.2.1/../../../arm-none-eabi/lib/thumb/v7e-m/nofp/libc_nano.a(lib_a-fwalk.o)
                              /usr/lib/gcc/arm-none-eabi/9.2.1/../../../arm-none-eabi/lib/thumb/v7e-m/nofp/libc_nano.a(lib_a-findfp.o) (_fwalk)
/usr/lib/gcc/arm-none-eabi/9.2.1/../../../arm-none-eabi/lib/thumb/v7e-m/nofp/libc_nano.a(lib_a-makebuf.o)
                              /usr/lib/gcc/arm-none-eabi/9.2.1/../../../arm-none-eabi/lib/thumb/v7e-m/nofp/libc_nano.a(lib_a-wsetup.o) (__smakebuf_r)
/usr/lib/gcc/arm-none-eabi/9.2.1/../../../arm-none-eabi/lib/thumb/v7e-m/nofp/libc_nano.a(lib_a-mlock.o)
                              /usr/lib/gcc/arm-none-eabi/9.2.1/../../../arm-none-eabi/lib/thumb/v7e-m/nofp/libc_nano.a(lib_a-nano-freer.o) (__malloc_lock)
/usr/lib/gcc/arm-none-eabi/9.2.1/../../../arm-none-eabi/lib/thumb/v7e-m/nofp/libc_nano.a(lib_a-nano-reallocr.o)
                              /usr/lib/gcc/arm-none-eabi/9.2.1/../../../arm-none-eabi/lib/thumb/v7e-m/nofp/libc_nano.a(lib_a-realloc.o) (_realloc_r)
/usr/lib/gcc/arm-none-eabi/9.2.1/../../../arm-none-eabi/lib/thumb/v7e-m/nofp/libc_nano.a(lib_a-nano-vfprintf.o)
                              /usr/lib/gcc/arm-none-eabi/9.2.1/../../../arm-none-eabi/lib/thumb/v7e-m/nofp/libc_nano.a(lib_a-printf.o) (_vfprintf_r)
/usr/lib/gcc/arm-none-eabi/9.2.1/../../../arm-none-eabi/lib/thumb/v7e-m/nofp/libc_nano.a(lib_a-nano-vfprintf_i.o)
                              /usr/lib/gcc/arm-none-eabi/9.2.1/../../../arm-none-eabi/lib/thumb/v7e-m/nofp/libc_nano.a(lib_a-nano-vfprintf.o) (_printf_i)
/usr/lib/gcc/arm-none-eabi/9.2.1/../../../arm-none-eabi/lib/thumb/v7e-m/nofp/libc_nano.a(lib_a-stdio.o)
                              /usr/lib/gcc/arm-none-eabi/9.2.1/../../../arm-none-eabi/lib/thumb/v7e-m/nofp/libc_nano.a(lib_a-findfp.o) (__sread)
/usr/lib/gcc/arm-none-eabi/9.2.1/../../../arm-none-eabi/lib/thumb/v7e-m/nofp/libc_nano.a(lib_a-fvwrite.o)
                              /usr/lib/gcc/arm-none-eabi/9.2.1/../../../arm-none-eabi/lib/thumb/v7e-m/nofp/libc_nano.a(lib_a-nano-vfprintf.o) (__sfvwrite_r)
/usr/lib/gcc/arm-none-eabi/9.2.1/../../../arm-none-eabi/lib/thumb/v7e-m/nofp/libc_nano.a(lib_a-memchr.o)
                              /usr/lib/gcc/arm-none-eabi/9.2.1/../../../arm-none-eabi/lib/thumb/v7e-m/nofp/libc_nano.a(lib_a-nano-vfprintf.o) (memchr)
/usr/lib/gcc/arm-none-eabi/9.2.1/../../../arm-none-eabi/lib/thumb/v7e-m/nofp/libc_nano.a(lib_a-memmove.o)
                              /usr/lib/gcc/arm-none-eabi/9.2.1/../../../arm-none-eabi/lib/thumb/v7e-m/nofp/libc_nano.a(lib_a-fvwrite.o) (memmove)
/usr/lib/gcc/arm-none-eabi/9.2.1/../../../arm-none-eabi/lib/thumb/v7e-m/nofp/libc_nano.a(lib_a-nano-msizer.o)
                              /usr/lib/gcc/arm-none-eabi/9.2.1/../../../arm-none-eabi/lib/thumb/v7e-m/nofp/libc_nano.a(lib_a-nano-reallocr.o) (_malloc_usable_size_r)

Discarded input sections

 .group         0x0000000000000000        0xc /home/ch/RIOT/tests/leds/bin/lora-e5-dev/application_tests_leds/main.o
 .group         0x0000000000000000        0xc /home/ch/RIOT/tests/leds/bin/lora-e5-dev/application_tests_leds/main.o
 .group         0x0000000000000000        0xc /home/ch/RIOT/tests/leds/bin/lora-e5-dev/application_tests_leds/main.o
 .group         0x0000000000000000        0xc /home/ch/RIOT/tests/leds/bin/lora-e5-dev/application_tests_leds/main.o
 .group         0x0000000000000000        0xc /home/ch/RIOT/tests/leds/bin/lora-e5-dev/application_tests_leds/main.o
 .group         0x0000000000000000        0xc /home/ch/RIOT/tests/leds/bin/lora-e5-dev/application_tests_leds/main.o
 .group         0x0000000000000000        0xc /home/ch/RIOT/tests/leds/bin/lora-e5-dev/application_tests_leds/main.o
 .group         0x0000000000000000        0xc /home/ch/RIOT/tests/leds/bin/lora-e5-dev/application_tests_leds/main.o
 .group         0x0000000000000000        0xc /home/ch/RIOT/tests/leds/bin/lora-e5-dev/application_tests_leds/main.o
 .group         0x0000000000000000        0xc /home/ch/RIOT/tests/leds/bin/lora-e5-dev/application_tests_leds/main.o
 .group         0x0000000000000000        0xc /home/ch/RIOT/tests/leds/bin/lora-e5-dev/application_tests_leds/main.o
 .group         0x0000000000000000        0xc /home/ch/RIOT/tests/leds/bin/lora-e5-dev/application_tests_leds/main.o
 .group         0x0000000000000000        0xc /home/ch/RIOT/tests/leds/bin/lora-e5-dev/application_tests_leds/main.o
 .group         0x0000000000000000        0xc /home/ch/RIOT/tests/leds/bin/lora-e5-dev/application_tests_leds/main.o
 .group         0x0000000000000000        0xc /home/ch/RIOT/tests/leds/bin/lora-e5-dev/application_tests_leds/main.o
 .group         0x0000000000000000        0xc /home/ch/RIOT/tests/leds/bin/lora-e5-dev/application_tests_leds/main.o
 .group         0x0000000000000000        0xc /home/ch/RIOT/tests/leds/bin/lora-e5-dev/application_tests_leds/main.o
 .group         0x0000000000000000        0xc /home/ch/RIOT/tests/leds/bin/lora-e5-dev/application_tests_leds/main.o
Memory Configuration

Name             Origin             Length             Attributes
ccmram           0x0000000010000000 0x0000000000000000
sram4            0x0000000028000000 0x0000000000000000
rom              0x0000000008000000 0x0000000000040000 xr
ram              0x0000000020000000 0x0000000000010000 w !xr
bkup_ram         0x0000000000000000 0x0000000000000000 w !xr
*default*        0x0000000000000000 0xffffffffffffffff

Linker script and memory map

LOAD /home/ch/RIOT/tests/leds/bin/lora-e5-dev/application_tests_leds/main.o
LOAD /home/ch/RIOT/tests/leds/bin/lora-e5-dev/auto_init/auto_init.o
LOAD /home/ch/RIOT/tests/leds/bin/lora-e5-dev/board/board.o
LOAD /home/ch/RIOT/tests/leds/bin/lora-e5-dev/core/assert.o
LOAD /home/ch/RIOT/tests/leds/bin/lora-e5-dev/core/atomic_c11.o
LOAD /home/ch/RIOT/tests/leds/bin/lora-e5-dev/core/atomic_sync.o
LOAD /home/ch/RIOT/tests/leds/bin/lora-e5-dev/core/bitarithm.o
LOAD /home/ch/RIOT/tests/leds/bin/lora-e5-dev/core/clist.o
LOAD /home/ch/RIOT/tests/leds/bin/lora-e5-dev/core/cond.o
LOAD /home/ch/RIOT/tests/leds/bin/lora-e5-dev/core/init.o
LOAD /home/ch/RIOT/tests/leds/bin/lora-e5-dev/core/msg.o
LOAD /home/ch/RIOT/tests/leds/bin/lora-e5-dev/core/mutex.o
LOAD /home/ch/RIOT/tests/leds/bin/lora-e5-dev/core/panic.o
LOAD /home/ch/RIOT/tests/leds/bin/lora-e5-dev/core/priority_queue.o
LOAD /home/ch/RIOT/tests/leds/bin/lora-e5-dev/core/ringbuffer.o
LOAD /home/ch/RIOT/tests/leds/bin/lora-e5-dev/core/rmutex.o
LOAD /home/ch/RIOT/tests/leds/bin/lora-e5-dev/core/sched.o
LOAD /home/ch/RIOT/tests/leds/bin/lora-e5-dev/core/thread.o
LOAD /home/ch/RIOT/tests/leds/bin/lora-e5-dev/cortexm_common/cortexm_init.o
LOAD /home/ch/RIOT/tests/leds/bin/lora-e5-dev/cortexm_common/mpu.o
LOAD /home/ch/RIOT/tests/leds/bin/lora-e5-dev/cortexm_common/panic.o
LOAD /home/ch/RIOT/tests/leds/bin/lora-e5-dev/cortexm_common_periph/pm.o
LOAD /home/ch/RIOT/tests/leds/bin/lora-e5-dev/cortexm_common/thread_arch.o
LOAD /home/ch/RIOT/tests/leds/bin/lora-e5-dev/cortexm_common/vectors_cortexm.o
LOAD /home/ch/RIOT/tests/leds/bin/lora-e5-dev/cpu/cpu_common.o
LOAD /home/ch/RIOT/tests/leds/bin/lora-e5-dev/cpu/cpu_init.o
LOAD /home/ch/RIOT/tests/leds/bin/lora-e5-dev/malloc_thread_safe/malloc_wrappers.o
LOAD /home/ch/RIOT/tests/leds/bin/lora-e5-dev/newlib_syscalls_default/syscalls.o
LOAD /home/ch/RIOT/tests/leds/bin/lora-e5-dev/periph_common/gpio.o
LOAD /home/ch/RIOT/tests/leds/bin/lora-e5-dev/periph_common/init.o
LOAD /home/ch/RIOT/tests/leds/bin/lora-e5-dev/periph_common/pm.o
LOAD /home/ch/RIOT/tests/leds/bin/lora-e5-dev/periph/gpio_all.o
LOAD /home/ch/RIOT/tests/leds/bin/lora-e5-dev/periph/pm.o
LOAD /home/ch/RIOT/tests/leds/bin/lora-e5-dev/periph/uart.o
LOAD /home/ch/RIOT/tests/leds/bin/lora-e5-dev/pm_layered/pm.o
LOAD /home/ch/RIOT/tests/leds/bin/lora-e5-dev/stdio_uart/stdio_uart.o
LOAD /home/ch/RIOT/tests/leds/bin/lora-e5-dev/stm32_clk/stmclk_common.o
LOAD /home/ch/RIOT/tests/leds/bin/lora-e5-dev/stm32_clk/stmclk_l4wx.o
LOAD /home/ch/RIOT/tests/leds/bin/lora-e5-dev/stm32_vectors/STM32WLE5xx.o
LOAD /usr/lib/gcc/arm-none-eabi/9.2.1/../../../arm-none-eabi/lib/thumb/v7e-m/nofp/libm.a
LOAD /usr/lib/gcc/arm-none-eabi/9.2.1/thumb/v7e-m/nofp/libgcc.a
                0x0000000008000000                _rom_start_addr = 0x8000000
                0x0000000020000000                _ram_start_addr = 0x20000000
                0x0000000000040000                _rom_length = 0x40000
                0x0000000000010000                _ram_length = 0x10000
LOAD /usr/lib/gcc/arm-none-eabi/9.2.1/../../../arm-none-eabi/lib/thumb/v7e-m/nofp/libc_nano.a
START GROUP
LOAD /usr/lib/gcc/arm-none-eabi/9.2.1/thumb/v7e-m/nofp/libgcc.a
LOAD /usr/lib/gcc/arm-none-eabi/9.2.1/../../../arm-none-eabi/lib/thumb/v7e-m/nofp/libg_nano.a
LOAD /usr/lib/gcc/arm-none-eabi/9.2.1/../../../arm-none-eabi/lib/thumb/v7e-m/nofp/libc_nano.a
END GROUP
START GROUP
LOAD /usr/lib/gcc/arm-none-eabi/9.2.1/thumb/v7e-m/nofp/libgcc.a
LOAD /usr/lib/gcc/arm-none-eabi/9.2.1/../../../arm-none-eabi/lib/thumb/v7e-m/nofp/libc_nano.a
END GROUP
                0x0000000000000000                ccmram_length = DEFINED (ccmram_len)?ccmram_len:0x0
                0x0000000000000000                sram4_length = DEFINED (sram4_length)?sram4_length:0x0

.heap2          0x0000000000000000        0x0
                0x0000000000000000                _sheap2 = .
                0x0000000028000000                _eheap2 = (ORIGIN (sram4) + LENGTH (sram4))
                0x0000000000000000                _rom_offset = DEFINED (_rom_offset)?_rom_offset:0x0
                0x0000000000040000                _fw_rom_length = DEFINED (_fw_rom_length)?_fw_rom_length:(_rom_length - _rom_offset)
                0x0000000000000001                ASSERT ((_fw_rom_length <= (_rom_length - _rom_offset)), Specified firmware size does not fit in ROM)
                0x0000000000000000                _backup_ram_start_addr = DEFINED (_backup_ram_start_addr)?_backup_ram_start_addr:0x0
                0x0000000000000000                _backup_ram_len = DEFINED (_backup_ram_len)?_backup_ram_len:0x0

.text           0x0000000008000000     0x2bc4
                0x0000000008000000                . = ALIGN (0x4)
                0x0000000008000000                _sfixed = .
                0x0000000008000000                _isr_vectors = DEFINED (_isr_vectors)?_isr_vectors:.
 *(SORT_BY_NAME(.vectors*))
 .vectors.0     0x0000000008000000       0x40 /home/ch/RIOT/tests/leds/bin/lora-e5-dev/cortexm_common/vectors_cortexm.o
                0x0000000008000000                cortex_vector_base
 .vectors.1     0x0000000008000040       0xf8 /home/ch/RIOT/tests/leds/bin/lora-e5-dev/stm32_vectors/STM32WLE5xx.o
                0x0000000008000040                vector_cpu
 *(.text .text.* .gnu.linkonce.t.*)
 .text.dumb_delay
                0x0000000008000138        0xe /home/ch/RIOT/tests/leds/bin/lora-e5-dev/application_tests_leds/main.o
                0x0000000008000138                dumb_delay
 *fill*         0x0000000008000146        0x2 
 .text.startup.main
                0x0000000008000148       0x84 /home/ch/RIOT/tests/leds/bin/lora-e5-dev/application_tests_leds/main.o
                0x0000000008000148                main
 .text.auto_init
                0x00000000080001cc        0x2 /home/ch/RIOT/tests/leds/bin/lora-e5-dev/auto_init/auto_init.o
                0x00000000080001cc                auto_init
 *fill*         0x00000000080001ce        0x2 
 .text.board_init
                0x00000000080001d0       0x44 /home/ch/RIOT/tests/leds/bin/lora-e5-dev/board/board.o
                0x00000000080001d0                board_init
 .text.main_trampoline
                0x0000000008000214       0x18 /home/ch/RIOT/tests/leds/bin/lora-e5-dev/core/init.o
 .text.kernel_init
                0x000000000800022c       0x34 /home/ch/RIOT/tests/leds/bin/lora-e5-dev/core/init.o
                0x000000000800022c                kernel_init
 .text.panic_app
                0x0000000008000260        0x2 /home/ch/RIOT/tests/leds/bin/lora-e5-dev/core/panic.o
                0x0000000008000260                panic_app
 *fill*         0x0000000008000262        0x2 
 .text.core_panic
                0x0000000008000264       0x50 /home/ch/RIOT/tests/leds/bin/lora-e5-dev/core/panic.o
                0x0000000008000264                core_panic
 .text._unschedule
                0x00000000080002b4       0x24 /home/ch/RIOT/tests/leds/bin/lora-e5-dev/core/sched.o
 .text.sched_run
                0x00000000080002d8       0x6c /home/ch/RIOT/tests/leds/bin/lora-e5-dev/core/sched.o
                0x00000000080002d8                sched_run
 .text.sched_set_status
                0x0000000008000344       0x84 /home/ch/RIOT/tests/leds/bin/lora-e5-dev/core/sched.o
                0x0000000008000344                sched_set_status
 .text.sched_switch
                0x00000000080003c8       0x3c /home/ch/RIOT/tests/leds/bin/lora-e5-dev/core/sched.o
                0x00000000080003c8                sched_switch
 .text.sched_task_exit
                0x0000000008000404       0x3c /home/ch/RIOT/tests/leds/bin/lora-e5-dev/core/sched.o
                0x0000000008000404                sched_task_exit
 .text.thread_getname
                0x0000000008000440       0x1c /home/ch/RIOT/tests/leds/bin/lora-e5-dev/core/thread.o
                0x0000000008000440                thread_getname
 .text.thread_create
                0x000000000800045c       0xe8 /home/ch/RIOT/tests/leds/bin/lora-e5-dev/core/thread.o
                0x000000000800045c                thread_create
 .text.cortexm_init
                0x0000000008000544       0x40 /home/ch/RIOT/tests/leds/bin/lora-e5-dev/cortexm_common/cortexm_init.o
                0x0000000008000544                cortexm_init
 .text.panic_arch
                0x0000000008000584       0x1c /home/ch/RIOT/tests/leds/bin/lora-e5-dev/cortexm_common/panic.o
                0x0000000008000584                panic_arch
 .text.thread_stack_init
                0x00000000080005a0       0x68 /home/ch/RIOT/tests/leds/bin/lora-e5-dev/cortexm_common/thread_arch.o
                0x00000000080005a0                thread_stack_init
 .text.cpu_switch_context_exit
                0x0000000008000608       0x18 /home/ch/RIOT/tests/leds/bin/lora-e5-dev/cortexm_common/thread_arch.o
                0x0000000008000608                cpu_switch_context_exit
 .text.isr_pendsv
                0x0000000008000620       0x38 /home/ch/RIOT/tests/leds/bin/lora-e5-dev/cortexm_common/thread_arch.o
                0x0000000008000620                isr_pendsv
 .text.isr_svc  0x0000000008000658       0x10 /home/ch/RIOT/tests/leds/bin/lora-e5-dev/cortexm_common/thread_arch.o
                0x0000000008000658                isr_svc
 .text.sched_arch_idle
                0x0000000008000668       0x10 /home/ch/RIOT/tests/leds/bin/lora-e5-dev/cortexm_common/thread_arch.o
                0x0000000008000668                sched_arch_idle
 .text.hard_fault_default
                0x0000000008000678       0x44 /home/ch/RIOT/tests/leds/bin/lora-e5-dev/cortexm_common/vectors_cortexm.o
                0x0000000008000678                hard_fault_default
 .text.nmi_default
                0x00000000080006bc       0x10 /home/ch/RIOT/tests/leds/bin/lora-e5-dev/cortexm_common/vectors_cortexm.o
                0x00000000080006bc                nmi_default
 .text.mem_manage_default
                0x00000000080006cc       0x10 /home/ch/RIOT/tests/leds/bin/lora-e5-dev/cortexm_common/vectors_cortexm.o
                0x00000000080006cc                mem_manage_default
 .text.bus_fault_default
                0x00000000080006dc       0x10 /home/ch/RIOT/tests/leds/bin/lora-e5-dev/cortexm_common/vectors_cortexm.o
                0x00000000080006dc                bus_fault_default
 .text.usage_fault_default
                0x00000000080006ec       0x10 /home/ch/RIOT/tests/leds/bin/lora-e5-dev/cortexm_common/vectors_cortexm.o
                0x00000000080006ec                usage_fault_default
 .text.debug_mon_default
                0x00000000080006fc       0x10 /home/ch/RIOT/tests/leds/bin/lora-e5-dev/cortexm_common/vectors_cortexm.o
                0x00000000080006fc                debug_mon_default
 .text.dummy_handler_default
                0x000000000800070c       0x10 /home/ch/RIOT/tests/leds/bin/lora-e5-dev/cortexm_common/vectors_cortexm.o
                0x000000000800070c                dummy_handler_default
                0x000000000800070c                isr_systick
 .text.pre_startup
                0x000000000800071c        0x2 /home/ch/RIOT/tests/leds/bin/lora-e5-dev/cortexm_common/vectors_cortexm.o
                0x000000000800071c                pre_startup
 .text.post_startup
                0x000000000800071e        0x2 /home/ch/RIOT/tests/leds/bin/lora-e5-dev/cortexm_common/vectors_cortexm.o
                0x000000000800071e                post_startup
 .text.reset_handler_default
                0x0000000008000720       0x70 /home/ch/RIOT/tests/leds/bin/lora-e5-dev/cortexm_common/vectors_cortexm.o
                0x0000000008000720                reset_handler_default
 .text.hard_fault_handler
                0x0000000008000790      0x1bc /home/ch/RIOT/tests/leds/bin/lora-e5-dev/cortexm_common/vectors_cortexm.o
                0x0000000008000790                hard_fault_handler
 .text.periph_apb_clk
                0x000000000800094c       0x18 /home/ch/RIOT/tests/leds/bin/lora-e5-dev/cpu/cpu_common.o
                0x000000000800094c                periph_apb_clk
 .text.periph_clk_en
                0x0000000008000964       0x68 /home/ch/RIOT/tests/leds/bin/lora-e5-dev/cpu/cpu_common.o
                0x0000000008000964                periph_clk_en
 .text.cpu_init
                0x00000000080009cc       0x16 /home/ch/RIOT/tests/leds/bin/lora-e5-dev/cpu/cpu_init.o
                0x00000000080009cc                cpu_init
 .text._init    0x00000000080009e2        0x2 /home/ch/RIOT/tests/leds/bin/lora-e5-dev/newlib_syscalls_default/syscalls.o
                0x00000000080009e2                _init
 .text._fini    0x00000000080009e4        0x2 /home/ch/RIOT/tests/leds/bin/lora-e5-dev/newlib_syscalls_default/syscalls.o
                0x00000000080009e4                _fini
 *fill*         0x00000000080009e6        0x2 
 .text._sbrk_r  0x00000000080009e8       0x40 /home/ch/RIOT/tests/leds/bin/lora-e5-dev/newlib_syscalls_default/syscalls.o
                0x00000000080009e8                _sbrk_r
 .text._read_r  0x0000000008000a28        0x8 /home/ch/RIOT/tests/leds/bin/lora-e5-dev/newlib_syscalls_default/syscalls.o
                0x0000000008000a28                _read_r
 .text._write_r
                0x0000000008000a30        0x8 /home/ch/RIOT/tests/leds/bin/lora-e5-dev/newlib_syscalls_default/syscalls.o
                0x0000000008000a30                _write_r
 .text._close_r
                0x0000000008000a38        0xa /home/ch/RIOT/tests/leds/bin/lora-e5-dev/newlib_syscalls_default/syscalls.o
                0x0000000008000a38                _close_r
 .text._lseek_r
                0x0000000008000a42        0xa /home/ch/RIOT/tests/leds/bin/lora-e5-dev/newlib_syscalls_default/syscalls.o
                0x0000000008000a42                _lseek_r
 .text._fstat_r
                0x0000000008000a4c        0xa /home/ch/RIOT/tests/leds/bin/lora-e5-dev/newlib_syscalls_default/syscalls.o
                0x0000000008000a4c                _fstat_r
 .text._isatty_r
                0x0000000008000a56       0x10 /home/ch/RIOT/tests/leds/bin/lora-e5-dev/newlib_syscalls_default/syscalls.o
                0x0000000008000a56                _isatty_r
 .text.periph_init
                0x0000000008000a66        0x2 /home/ch/RIOT/tests/leds/bin/lora-e5-dev/periph_common/init.o
                0x0000000008000a66                periph_init
 .text.gpio_init
                0x0000000008000a68       0x68 /home/ch/RIOT/tests/leds/bin/lora-e5-dev/periph/gpio_all.o
                0x0000000008000a68                gpio_init
 .text.gpio_init_af
                0x0000000008000ad0       0x58 /home/ch/RIOT/tests/leds/bin/lora-e5-dev/periph/gpio_all.o
                0x0000000008000ad0                gpio_init_af
 .text.gpio_set
                0x0000000008000b28       0x12 /home/ch/RIOT/tests/leds/bin/lora-e5-dev/periph/gpio_all.o
                0x0000000008000b28                gpio_set
 *fill*         0x0000000008000b3a        0x2 
 .text.pm_set   0x0000000008000b3c       0x74 /home/ch/RIOT/tests/leds/bin/lora-e5-dev/periph/pm.o
                0x0000000008000b3c                pm_set
 .text.irq_handler
                0x0000000008000bb0       0x54 /home/ch/RIOT/tests/leds/bin/lora-e5-dev/periph/uart.o
 .text.uart_enable_clock
                0x0000000008000c04       0x30 /home/ch/RIOT/tests/leds/bin/lora-e5-dev/periph/uart.o
 .text.uart_init
                0x0000000008000c34       0xa8 /home/ch/RIOT/tests/leds/bin/lora-e5-dev/periph/uart.o
                0x0000000008000c34                uart_init
 .text.uart_write
                0x0000000008000cdc       0x40 /home/ch/RIOT/tests/leds/bin/lora-e5-dev/periph/uart.o
                0x0000000008000cdc                uart_write
 .text.isr_usart1
                0x0000000008000d1c        0x6 /home/ch/RIOT/tests/leds/bin/lora-e5-dev/periph/uart.o
                0x0000000008000d1c                isr_usart1
 .text.isr_usart2
                0x0000000008000d22        0x6 /home/ch/RIOT/tests/leds/bin/lora-e5-dev/periph/uart.o
                0x0000000008000d22                isr_usart2
 .text.isr_lpuart1
                0x0000000008000d28        0x6 /home/ch/RIOT/tests/leds/bin/lora-e5-dev/periph/uart.o
                0x0000000008000d28                isr_lpuart1
 *fill*         0x0000000008000d2e        0x2 
 .text.pm_set_lowest
                0x0000000008000d30       0x3c /home/ch/RIOT/tests/leds/bin/lora-e5-dev/pm_layered/pm.o
                0x0000000008000d30                pm_set_lowest
 .text.pm_block
                0x0000000008000d6c       0x2c /home/ch/RIOT/tests/leds/bin/lora-e5-dev/pm_layered/pm.o
                0x0000000008000d6c                pm_block
 .text.pm_off   0x0000000008000d98       0x10 /home/ch/RIOT/tests/leds/bin/lora-e5-dev/pm_layered/pm.o
                0x0000000008000d98                pm_off
 .text.stdio_init
                0x0000000008000da8        0xe /home/ch/RIOT/tests/leds/bin/lora-e5-dev/stdio_uart/stdio_uart.o
                0x0000000008000da8                stdio_init
 .text.stdio_read
                0x0000000008000db6        0x6 /home/ch/RIOT/tests/leds/bin/lora-e5-dev/stdio_uart/stdio_uart.o
                0x0000000008000db6                stdio_read
 .text.stdio_write
                0x0000000008000dbc       0x12 /home/ch/RIOT/tests/leds/bin/lora-e5-dev/stdio_uart/stdio_uart.o
                0x0000000008000dbc                stdio_write
 .text.stmclk_enable_hsi
                0x0000000008000dce       0x14 /home/ch/RIOT/tests/leds/bin/lora-e5-dev/stm32_clk/stmclk_common.o
                0x0000000008000dce                stmclk_enable_hsi
 .text.stmclk_disable_hsi
                0x0000000008000de2        0xe /home/ch/RIOT/tests/leds/bin/lora-e5-dev/stm32_clk/stmclk_common.o
                0x0000000008000de2                stmclk_disable_hsi
 .text.stmclk_init_sysclk
                0x0000000008000df0       0x9c /home/ch/RIOT/tests/leds/bin/lora-e5-dev/stm32_clk/stmclk_l4wx.o
                0x0000000008000df0                stmclk_init_sysclk
 .text.dummy_handler
                0x0000000008000e8c        0x4 /home/ch/RIOT/tests/leds/bin/lora-e5-dev/stm32_vectors/STM32WLE5xx.o
                0x0000000008000e8c                isr_lptim2
                0x0000000008000e8c                isr_rtc_wkup
                0x0000000008000e8c                isr_hsem
                0x0000000008000e8c                isr_dac
                0x0000000008000e8c                isr_tim16
                0x0000000008000e8c                isr_exti
                0x0000000008000e8c                isr_dma1_channel4
                0x0000000008000e8c                isr_dma2_channel7
                0x0000000008000e8c                isr_i2c1_ev
                0x0000000008000e8c                isr_subghz_radio
                0x0000000008000e8c                isr_tim1_brk
                0x0000000008000e8c                isr_dma1_channel5
                0x0000000008000e8c                isr_dma1_channel2
                0x0000000008000e8c                isr_pka
                0x0000000008000e8c                isr_dma2_channel6
                0x0000000008000e8c                isr_dma1_channel7
                0x0000000008000e8c                isr_i2c3_ev
                0x0000000008000e8c                isr_tim1_up
                0x0000000008000e8c                isr_tim2
                0x0000000008000e8c                isr_dma2_channel4
                0x0000000008000e8c                isr_spi2
                0x0000000008000e8c                isr_tim1_trg_com
                0x0000000008000e8c                isr_dma1_channel1
                0x0000000008000e8c                dummy_handler
                0x0000000008000e8c                isr_adc
                0x0000000008000e8c                isr_aes
                0x0000000008000e8c                isr_comp
                0x0000000008000e8c                isr_spi1
                0x0000000008000e8c                isr_lptim1
                0x0000000008000e8c                isr_rcc
                0x0000000008000e8c                isr_tamp_stamp_lsecss_ssru
                0x0000000008000e8c                isr_flash
                0x0000000008000e8c                isr_dma2_channel5
                0x0000000008000e8c                isr_i2c3_er
                0x0000000008000e8c                isr_tim1_cc
                0x0000000008000e8c                isr_lptim3
                0x0000000008000e8c                isr_subghzspi
                0x0000000008000e8c                isr_dma2_channel1
                0x0000000008000e8c                isr_tim17
                0x0000000008000e8c                isr_i2c2_er
                0x0000000008000e8c                isr_dma1_channel6
                0x0000000008000e8c                isr_pvd_pvm
                0x0000000008000e8c                isr_rng
                0x0000000008000e8c                isr_dmamux1_ovr
                0x0000000008000e8c                isr_i2c2_ev
                0x0000000008000e8c                isr_dma2_channel2
                0x0000000008000e8c                isr_dma2_channel3
                0x0000000008000e8c                isr_rtc_alarm
                0x0000000008000e8c                isr_dma1_channel3
                0x0000000008000e8c                isr_i2c1_er
                0x0000000008000e8c                isr_wwdg
 .text          0x0000000008000e90       0x48 /usr/lib/gcc/arm-none-eabi/9.2.1/../../../arm-none-eabi/lib/thumb/v7e-m/nofp/libc_nano.a(lib_a-init.o)
                0x0000000008000e90                __libc_init_array
 .text          0x0000000008000ed8      0x134 /usr/lib/gcc/arm-none-eabi/9.2.1/../../../arm-none-eabi/lib/thumb/v7e-m/nofp/libc_nano.a(lib_a-memcpy.o)
                0x0000000008000ed8                memcpy
 .text          0x000000000800100c       0xa0 /usr/lib/gcc/arm-none-eabi/9.2.1/../../../arm-none-eabi/lib/thumb/v7e-m/nofp/libc_nano.a(lib_a-memset.o)
                0x000000000800100c                memset
 .text          0x00000000080010ac       0xac /usr/lib/gcc/arm-none-eabi/9.2.1/../../../arm-none-eabi/lib/thumb/v7e-m/nofp/libc_nano.a(lib_a-nano-freer.o)
                0x00000000080010ac                _free_r
 .text          0x0000000008001158       0xc8 /usr/lib/gcc/arm-none-eabi/9.2.1/../../../arm-none-eabi/lib/thumb/v7e-m/nofp/libc_nano.a(lib_a-nano-mallocr.o)
                0x0000000008001158                _malloc_r
 .text          0x0000000008001220       0x68 /usr/lib/gcc/arm-none-eabi/9.2.1/../../../arm-none-eabi/lib/thumb/v7e-m/nofp/libc_nano.a(lib_a-printf.o)
                0x0000000008001220                _printf_r
                0x0000000008001220                _iprintf_r
                0x0000000008001250                printf
                0x0000000008001250                iprintf
 .text          0x0000000008001288       0xe8 /usr/lib/gcc/arm-none-eabi/9.2.1/../../../arm-none-eabi/lib/thumb/v7e-m/nofp/libc_nano.a(lib_a-puts.o)
                0x0000000008001288                _puts_r
                0x0000000008001360                puts
 .text          0x0000000008001370       0xc0 /usr/lib/gcc/arm-none-eabi/9.2.1/../../../arm-none-eabi/lib/thumb/v7e-m/nofp/libc_nano.a(lib_a-wbuf.o)
                0x0000000008001370                __swbuf_r
                0x0000000008001420                __swbuf
 .text          0x0000000008001430      0x100 /usr/lib/gcc/arm-none-eabi/9.2.1/../../../arm-none-eabi/lib/thumb/v7e-m/nofp/libc_nano.a(lib_a-wsetup.o)
                0x0000000008001430                __swsetup_r
 .text          0x0000000008001530      0x1b0 /usr/lib/gcc/arm-none-eabi/9.2.1/../../../arm-none-eabi/lib/thumb/v7e-m/nofp/libc_nano.a(lib_a-fflush.o)
                0x0000000008001530                __sflush_r
                0x000000000800165c                _fflush_r
                0x00000000080016bc                fflush
 .text          0x00000000080016e0      0x210 /usr/lib/gcc/arm-none-eabi/9.2.1/../../../arm-none-eabi/lib/thumb/v7e-m/nofp/libc_nano.a(lib_a-findfp.o)
                0x00000000080016e4                _cleanup_r
                0x00000000080016f4                __sfmoreglue
                0x0000000008001724                __sfp
                0x000000000800189c                _cleanup
                0x00000000080018b0                __sinit
                0x00000000080018b8                __sfp_lock_acquire
                0x00000000080018bc                __sfp_lock_release
                0x00000000080018c0                __sinit_lock_acquire
                0x00000000080018c4                __sinit_lock_release
                0x00000000080018c8                __fp_lock_all
                0x00000000080018dc                __fp_unlock_all
 .text          0x00000000080018f0       0xa0 /usr/lib/gcc/arm-none-eabi/9.2.1/../../../arm-none-eabi/lib/thumb/v7e-m/nofp/libc_nano.a(lib_a-fwalk.o)
                0x00000000080018f0                _fwalk
                0x000000000800193c                _fwalk_reent
 .text          0x0000000008001990       0xf0 /usr/lib/gcc/arm-none-eabi/9.2.1/../../../arm-none-eabi/lib/thumb/v7e-m/nofp/libc_nano.a(lib_a-makebuf.o)
                0x0000000008001990                __swhatbuf_r
                0x00000000080019ec                __smakebuf_r
 .text          0x0000000008001a80        0x8 /usr/lib/gcc/arm-none-eabi/9.2.1/../../../arm-none-eabi/lib/thumb/v7e-m/nofp/libc_nano.a(lib_a-mlock.o)
                0x0000000008001a80                __malloc_lock
                0x0000000008001a84                __malloc_unlock
 .text          0x0000000008001a88       0x4c /usr/lib/gcc/arm-none-eabi/9.2.1/../../../arm-none-eabi/lib/thumb/v7e-m/nofp/libc_nano.a(lib_a-nano-reallocr.o)
                0x0000000008001a88                _realloc_r
 .text          0x0000000008001ad4      0x360 /usr/lib/gcc/arm-none-eabi/9.2.1/../../../arm-none-eabi/lib/thumb/v7e-m/nofp/libc_nano.a(lib_a-nano-vfprintf.o)
                0x0000000008001b0c                __sfputs_r
                0x0000000008001b3c                __sprint_r
                0x0000000008001b58                _vfiprintf_r
                0x0000000008001b58                _vfprintf_r
                0x0000000008001e1c                vfiprintf
                0x0000000008001e1c                vfprintf
 .text          0x0000000008001e34      0x3c4 /usr/lib/gcc/arm-none-eabi/9.2.1/../../../arm-none-eabi/lib/thumb/v7e-m/nofp/libc_nano.a(lib_a-nano-vfprintf_i.o)
                0x0000000008001e34                _printf_common
                0x0000000008001f60                _printf_i
 .text          0x00000000080021f8       0x90 /usr/lib/gcc/arm-none-eabi/9.2.1/../../../arm-none-eabi/lib/thumb/v7e-m/nofp/libc_nano.a(lib_a-stdio.o)
                0x00000000080021f8                __sread
                0x000000000800221c                __seofread
                0x0000000008002220                __swrite
                0x0000000008002260                __sseek
                0x0000000008002280                __sclose
 .text          0x0000000008002288      0x308 /usr/lib/gcc/arm-none-eabi/9.2.1/../../../arm-none-eabi/lib/thumb/v7e-m/nofp/libc_nano.a(lib_a-fvwrite.o)
                0x0000000008002288                __sfvwrite_r
 .text          0x0000000008002590       0xa0 /usr/lib/gcc/arm-none-eabi/9.2.1/../../../arm-none-eabi/lib/thumb/v7e-m/nofp/libc_nano.a(lib_a-memchr.o)
                0x0000000008002590                memchr
 .text          0x0000000008002630       0xd0 /usr/lib/gcc/arm-none-eabi/9.2.1/../../../arm-none-eabi/lib/thumb/v7e-m/nofp/libc_nano.a(lib_a-memmove.o)
                0x0000000008002630                memmove
 .text          0x0000000008002700       0x10 /usr/lib/gcc/arm-none-eabi/9.2.1/../../../arm-none-eabi/lib/thumb/v7e-m/nofp/libc_nano.a(lib_a-nano-msizer.o)
                0x0000000008002700                _malloc_usable_size_r
 *(.glue_7t)
 .glue_7t       0x0000000008002710        0x0 linker stubs
 *(.glue_7)
 .glue_7        0x0000000008002710        0x0 linker stubs
 *(.rodata .rodata* .gnu.linkonce.r.*)
 .rodata.main.str1.1
                0x0000000008002710       0x67 /home/ch/RIOT/tests/leds/bin/lora-e5-dev/application_tests_leds/main.o
 .rodata.main_trampoline.str1.1
                0x0000000008002777       0x3b /home/ch/RIOT/tests/leds/bin/lora-e5-dev/core/init.o
 .rodata.kernel_init.str1.1
                0x00000000080027b2        0x5 /home/ch/RIOT/tests/leds/bin/lora-e5-dev/core/init.o
 .rodata.core_panic.str1.1
                0x00000000080027b7       0x2e /home/ch/RIOT/tests/leds/bin/lora-e5-dev/core/panic.o
 .rodata.assert_crash_message
                0x00000000080027e5       0x12 /home/ch/RIOT/tests/leds/bin/lora-e5-dev/core/panic.o
                0x00000000080027e5                assert_crash_message
 .rodata._unschedule.str1.1
                0x00000000080027f7       0x2f /home/ch/RIOT/tests/leds/bin/lora-e5-dev/core/sched.o
 .rodata.panic_arch.str1.1
                0x0000000008002826        0xf /home/ch/RIOT/tests/leds/bin/lora-e5-dev/cortexm_common/panic.o
 .rodata.nmi_default.str1.1
                0x0000000008002835        0xc /home/ch/RIOT/tests/leds/bin/lora-e5-dev/cortexm_common/vectors_cortexm.o
 .rodata.mem_manage_default.str1.1
                0x0000000008002841       0x13 /home/ch/RIOT/tests/leds/bin/lora-e5-dev/cortexm_common/vectors_cortexm.o
 .rodata.bus_fault_default.str1.1
                0x0000000008002854       0x12 /home/ch/RIOT/tests/leds/bin/lora-e5-dev/cortexm_common/vectors_cortexm.o
 .rodata.usage_fault_default.str1.1
                0x0000000008002866       0x14 /home/ch/RIOT/tests/leds/bin/lora-e5-dev/cortexm_common/vectors_cortexm.o
 .rodata.debug_mon_default.str1.1
                0x000000000800287a       0x12 /home/ch/RIOT/tests/leds/bin/lora-e5-dev/cortexm_common/vectors_cortexm.o
 .rodata.dummy_handler_default.str1.1
                0x000000000800288c        0xe /home/ch/RIOT/tests/leds/bin/lora-e5-dev/cortexm_common/vectors_cortexm.o
 .rodata.hard_fault_handler.str1.1
                0x000000000800289a      0x233 /home/ch/RIOT/tests/leds/bin/lora-e5-dev/cortexm_common/vectors_cortexm.o
 *fill*         0x0000000008002acd        0x3 
 .rodata.uart_config
                0x0000000008002ad0       0x54 /home/ch/RIOT/tests/leds/bin/lora-e5-dev/periph/uart.o
 .rodata        0x0000000008002b24        0x4 /usr/lib/gcc/arm-none-eabi/9.2.1/../../../arm-none-eabi/lib/thumb/v7e-m/nofp/libc_nano.a(lib_a-impure.o)
                0x0000000008002b24                _global_impure_ptr
 .rodata        0x0000000008002b28       0x60 /usr/lib/gcc/arm-none-eabi/9.2.1/../../../arm-none-eabi/lib/thumb/v7e-m/nofp/libc_nano.a(lib_a-findfp.o)
                0x0000000008002b28                __sf_fake_stderr
                0x0000000008002b48                __sf_fake_stdout
                0x0000000008002b68                __sf_fake_stdin
 .rodata.str1.4
                0x0000000008002b88       0x13 /usr/lib/gcc/arm-none-eabi/9.2.1/../../../arm-none-eabi/lib/thumb/v7e-m/nofp/libc_nano.a(lib_a-nano-vfprintf.o)
 *fill*         0x0000000008002b9b        0x1 
 .rodata.str1.4
                0x0000000008002b9c       0x25 /usr/lib/gcc/arm-none-eabi/9.2.1/../../../arm-none-eabi/lib/thumb/v7e-m/nofp/libc_nano.a(lib_a-nano-vfprintf_i.o)
 *(SORT_BY_NAME(.roxfa.*))
 *(.ARM.extab* .gnu.linkonce.armextab.*)
                0x0000000008002bc4                . = ALIGN (0x4)
 *fill*         0x0000000008002bc1        0x3 
 *(.init)
                0x0000000008002bc4                . = ALIGN (0x4)
                0x0000000008002bc4                __preinit_array_start = .
 *(.preinit_array)
                0x0000000008002bc4                __preinit_array_end = .
                0x0000000008002bc4                . = ALIGN (0x4)
                0x0000000008002bc4                __init_array_start = .
 *(SORT_BY_NAME(.init_array.*))
 *(.init_array)
                0x0000000008002bc4                __init_array_end = .
                0x0000000008002bc4                . = ALIGN (0x4)
 *crtbegin.o(.ctors)
 *(EXCLUDE_FILE(*crtend.o) .ctors)
 *(SORT_BY_NAME(.ctors.*))
 *crtend.o(.ctors)
                0x0000000008002bc4                . = ALIGN (0x4)
 *(.fini)
                0x0000000008002bc4                . = ALIGN (0x4)
                0x0000000008002bc4                __fini_array_start = .
 *(.fini_array)
 *(SORT_BY_NAME(.fini_array.*))
                0x0000000008002bc4                __fini_array_end = .
 *crtbegin.o(.dtors)
 *(EXCLUDE_FILE(*crtend.o) .dtors)
 *(SORT_BY_NAME(.dtors.*))
 *crtend.o(.dtors)
                0x0000000008002bc4                . = ALIGN (0x4)
                0x0000000008002bc4                _efixed = .

.vfp11_veneer   0x0000000008002bc4        0x0
 .vfp11_veneer  0x0000000008002bc4        0x0 linker stubs

.v4_bx          0x0000000008002bc4        0x0
 .v4_bx         0x0000000008002bc4        0x0 linker stubs

.iplt           0x0000000008002bc4        0x0
 .iplt          0x0000000008002bc4        0x0 /home/ch/RIOT/tests/leds/bin/lora-e5-dev/application_tests_leds/main.o

.igot.plt       0x0000000008002bc4        0x0
 .igot.plt      0x0000000008002bc4        0x0 /home/ch/RIOT/tests/leds/bin/lora-e5-dev/application_tests_leds/main.o

.rel.dyn        0x0000000008002bc4        0x0
 .rel.iplt      0x0000000008002bc4        0x0 /home/ch/RIOT/tests/leds/bin/lora-e5-dev/application_tests_leds/main.o

.tdata          0x0000000008002bc4        0x0
                0x0000000008002bc4                __tdata_start = .
 *(.tdata .tdata.* .gnu.linkonce.td.*)
                0x0000000008002bc4                __tdata_end = .
                0x0000000008002bc4                __tdata_source = LOADADDR (.tdata)
                0x0000000000000000                __tdata_size = SIZEOF (.tdata)

.tbss           0x0000000008002bc4        0x0
 *(.tbss .tbss.* .gnu.linkonce.tb.*)
 *(.tcommon)
                0x0000000008002bc4                __tbss_end = .
                0x0000000000000000                __tls_size = (__tbss_end - __tdata_start)
                0x0000000000000000                __tbss_size = (__tls_size - __tdata_size)
                [!provide]                        PROVIDE (__exidx_start = .)

.ARM.exidx
 *(.ARM.exidx* .gnu.linkonce.armexidx.*)
                [!provide]                        PROVIDE (__exidx_end = .)
                0x0000000008002bc4                . = ALIGN (0x4)

.eh_frame
 *(.eh_frame)
                0x0000000008002bc4                . = ALIGN (0x4)
                0x0000000008002bc4                _etext = .

.stack          0x0000000020000000      0x200
 *(.puf)
                0x0000000020000000                . = ALIGN (0x8)
                0x0000000020000000                _sstack = .
 *(.isr_stack)
 .isr_stack     0x0000000020000000      0x200 /home/ch/RIOT/tests/leds/bin/lora-e5-dev/cortexm_common/vectors_cortexm.o
                0x0000000020000000                isr_stack
                0x0000000020000200                . = ALIGN (0x8)
                0x0000000020000200                _estack = .

.relocate       0x0000000020000200       0x70 load address 0x0000000008002bc4
                0x0000000020000200                . = ALIGN (0x4)
                0x0000000020000200                _srelocate = .
 *(.ramfunc .ramfunc.*)
 *(.data .data.*)
 .data.heap_top
                0x0000000020000200        0x4 /home/ch/RIOT/tests/leds/bin/lora-e5-dev/newlib_syscalls_default/syscalls.o
 .data.pm_blocker
                0x0000000020000204        0x4 /home/ch/RIOT/tests/leds/bin/lora-e5-dev/pm_layered/pm.o
 .data          0x0000000020000208       0x64 /usr/lib/gcc/arm-none-eabi/9.2.1/../../../arm-none-eabi/lib/thumb/v7e-m/nofp/libc_nano.a(lib_a-impure.o)
                0x0000000020000208                _impure_ptr
 *(SORT_BY_NAME(.xfa.*))
 *(.openocd .openocd.*)
 .openocd       0x000000002000026c        0x2 /home/ch/RIOT/tests/leds/bin/lora-e5-dev/core/sched.o
                0x000000002000026c                _tcb_name_offset
                0x000000002000026d                max_threads
                0x0000000020000270                . = ALIGN (0x4)
 *fill*         0x000000002000026e        0x2 
                0x0000000020000270                _erelocate = .

.bss            0x0000000020000270      0x708 load address 0x0000000008002c34
                0x0000000020000270                . = ALIGN (0x4)
                0x0000000020000270                _sbss = .
                0x0000000020000270                _szero = .
 *(.bss .bss.*)
 .bss.main_stack
                0x0000000020000270      0x600 /home/ch/RIOT/tests/leds/bin/lora-e5-dev/core/init.o
 .bss.crashed   0x0000000020000870        0x4 /home/ch/RIOT/tests/leds/bin/lora-e5-dev/core/panic.o
 .bss.runqueue_bitcache
                0x0000000020000874        0x4 /home/ch/RIOT/tests/leds/bin/lora-e5-dev/core/sched.o
 .bss.sched_active_pid
                0x0000000020000878        0x2 /home/ch/RIOT/tests/leds/bin/lora-e5-dev/core/sched.o
                0x0000000020000878                sched_active_pid
 *fill*         0x000000002000087a        0x2 
 .bss.sched_active_thread
                0x000000002000087c        0x4 /home/ch/RIOT/tests/leds/bin/lora-e5-dev/core/sched.o
                0x000000002000087c                sched_active_thread
 .bss.sched_context_switch_request
                0x0000000020000880        0x4 /home/ch/RIOT/tests/leds/bin/lora-e5-dev/core/sched.o
                0x0000000020000880                sched_context_switch_request
 .bss.sched_num_threads
                0x0000000020000884        0x4 /home/ch/RIOT/tests/leds/bin/lora-e5-dev/core/sched.o
                0x0000000020000884                sched_num_threads
 .bss.sched_runqueues
                0x0000000020000888       0x40 /home/ch/RIOT/tests/leds/bin/lora-e5-dev/core/sched.o
                0x0000000020000888                sched_runqueues
 .bss.sched_threads
                0x00000000200008c8       0x84 /home/ch/RIOT/tests/leds/bin/lora-e5-dev/core/sched.o
                0x00000000200008c8                sched_threads
 .bss.isr_ctx   0x000000002000094c       0x24 /home/ch/RIOT/tests/leds/bin/lora-e5-dev/periph/uart.o
 .bss           0x0000000020000970        0x8 /usr/lib/gcc/arm-none-eabi/9.2.1/../../../arm-none-eabi/lib/thumb/v7e-m/nofp/libc_nano.a(lib_a-nano-mallocr.o)
                0x0000000020000970                __malloc_free_list
                0x0000000020000974                __malloc_sbrk_start
 *(COMMON)
                0x0000000020000978                . = ALIGN (0x4)
                0x0000000020000978                _ebss = .
                0x0000000020000978                _ezero = .

.noinit         0x0000000020000978        0x0 load address 0x0000000008002c34
                0x0000000020000978                __noinit_start = .
 *(.noinit)
                0x0000000020000978                . = ALIGN (0x4)
                0x0000000020000978                __noinit_end = .
                0x0000000020000978                . = ALIGN (0x4)
                0x0000000020000978                _sheap = .
                0x0000000020010000                _eheap = (ORIGIN (ram) + LENGTH (ram))
                0x0000000020000000                _sram = ORIGIN (ram)
                0x0000000020010000                _eram = (ORIGIN (ram) + LENGTH (ram))
                0x0000000008000000                _srom = ORIGIN (rom)
                0x0000000008040000                _erom = (ORIGIN (rom) + LENGTH (rom))
                0x0000000008002c34                _sbackup_data_load = LOADADDR (.backup.data)

.backup.data    0x0000000000000000        0x0 load address 0x0000000008002c34
                0x0000000000000000                _sbackup_data = .
 *(.backup.data)
                0x0000000000000000                _ebackup_data = .
                0x0000000000000000                . = ALIGN (0x4)

.backup.bss     0x0000000000000000        0x0 load address 0x0000000008002c34
                0x0000000000000000                _sbackup_bss = .
 *(.backup.bss)
                0x0000000000000000                _ebackup_bss = .
                0x0000000000000000                . = ALIGN (0x4)

.heap3          0x0000000000000000        0x0 load address 0x0000000008002c34
                0x0000000000000000                _sheap1 = .
                0x0000000000000000                _eheap1 = (ORIGIN (bkup_ram) + LENGTH (bkup_ram))

.end_fw         0x0000000008002c34        0x0
                0x0000000008002c34                _end_fw = .
OUTPUT(/home/ch/RIOT/tests/leds/bin/lora-e5-dev/tests_leds.elf elf32-littlearm)
LOAD linker stubs

.debug_info     0x0000000000000000    0x2f336
 .debug_info    0x0000000000000000     0x16d8 /home/ch/RIOT/tests/leds/bin/lora-e5-dev/application_tests_leds/main.o
 .debug_info    0x00000000000016d8      0xd1e /home/ch/RIOT/tests/leds/bin/lora-e5-dev/auto_init/auto_init.o
 .debug_info    0x00000000000023f6     0x16ab /home/ch/RIOT/tests/leds/bin/lora-e5-dev/board/board.o
 .debug_info    0x0000000000003aa1      0xe90 /home/ch/RIOT/tests/leds/bin/lora-e5-dev/core/init.o
 .debug_info    0x0000000000004931      0xf0b /home/ch/RIOT/tests/leds/bin/lora-e5-dev/core/panic.o
 .debug_info    0x000000000000583c     0x14b1 /home/ch/RIOT/tests/leds/bin/lora-e5-dev/core/sched.o
 .debug_info    0x0000000000006ced     0x1e7a /home/ch/RIOT/tests/leds/bin/lora-e5-dev/core/thread.o
 .debug_info    0x0000000000008b67     0x1386 /home/ch/RIOT/tests/leds/bin/lora-e5-dev/cortexm_common/cortexm_init.o
 .debug_info    0x0000000000009eed      0xd6b /home/ch/RIOT/tests/leds/bin/lora-e5-dev/cortexm_common/panic.o
 .debug_info    0x000000000000ac58     0x12a1 /home/ch/RIOT/tests/leds/bin/lora-e5-dev/cortexm_common/thread_arch.o
 .debug_info    0x000000000000bef9     0x172a /home/ch/RIOT/tests/leds/bin/lora-e5-dev/cortexm_common/vectors_cortexm.o
 .debug_info    0x000000000000d623     0x18d9 /home/ch/RIOT/tests/leds/bin/lora-e5-dev/cpu/cpu_common.o
 .debug_info    0x000000000000eefc     0x1609 /home/ch/RIOT/tests/leds/bin/lora-e5-dev/cpu/cpu_init.o
 .debug_info    0x0000000000010505     0x1964 /home/ch/RIOT/tests/leds/bin/lora-e5-dev/newlib_syscalls_default/syscalls.o
 .debug_info    0x0000000000011e69      0xc8e /home/ch/RIOT/tests/leds/bin/lora-e5-dev/periph_common/init.o
 .debug_info    0x0000000000012af7     0x1e4a /home/ch/RIOT/tests/leds/bin/lora-e5-dev/periph/gpio_all.o
 .debug_info    0x0000000000014941     0x11a8 /home/ch/RIOT/tests/leds/bin/lora-e5-dev/periph/pm.o
 .debug_info    0x0000000000015ae9     0x2236 /home/ch/RIOT/tests/leds/bin/lora-e5-dev/periph/uart.o
 .debug_info    0x0000000000017d1f     0x11b7 /home/ch/RIOT/tests/leds/bin/lora-e5-dev/pm_layered/pm.o
 .debug_info    0x0000000000018ed6     0x16bf /home/ch/RIOT/tests/leds/bin/lora-e5-dev/stdio_uart/stdio_uart.o
 .debug_info    0x000000000001a595     0x195f /home/ch/RIOT/tests/leds/bin/lora-e5-dev/stm32_clk/stmclk_common.o
 .debug_info    0x000000000001bef4     0x19ee /home/ch/RIOT/tests/leds/bin/lora-e5-dev/stm32_clk/stmclk_l4wx.o
 .debug_info    0x000000000001d8e2      0x2a0 /home/ch/RIOT/tests/leds/bin/lora-e5-dev/stm32_vectors/STM32WLE5xx.o
 .debug_info    0x000000000001db82      0x92a /usr/lib/gcc/arm-none-eabi/9.2.1/../../../arm-none-eabi/lib/thumb/v7e-m/nofp/libc_nano.a(lib_a-impure.o)
 .debug_info    0x000000000001e4ac      0x11a /usr/lib/gcc/arm-none-eabi/9.2.1/../../../arm-none-eabi/lib/thumb/v7e-m/nofp/libc_nano.a(lib_a-init.o)
 .debug_info    0x000000000001e5c6       0x26 /usr/lib/gcc/arm-none-eabi/9.2.1/../../../arm-none-eabi/lib/thumb/v7e-m/nofp/libc_nano.a(lib_a-memcpy.o)
 .debug_info    0x000000000001e5ec      0xf21 /usr/lib/gcc/arm-none-eabi/9.2.1/../../../arm-none-eabi/lib/thumb/v7e-m/nofp/libc_nano.a(lib_a-memset.o)
 .debug_info    0x000000000001f50d      0xb85 /usr/lib/gcc/arm-none-eabi/9.2.1/../../../arm-none-eabi/lib/thumb/v7e-m/nofp/libc_nano.a(lib_a-nano-freer.o)
 .debug_info    0x0000000000020092      0xc5a /usr/lib/gcc/arm-none-eabi/9.2.1/../../../arm-none-eabi/lib/thumb/v7e-m/nofp/libc_nano.a(lib_a-nano-mallocr.o)
 .debug_info    0x0000000000020cec      0xc67 /usr/lib/gcc/arm-none-eabi/9.2.1/../../../arm-none-eabi/lib/thumb/v7e-m/nofp/libc_nano.a(lib_a-printf.o)
 .debug_info    0x0000000000021953      0xd13 /usr/lib/gcc/arm-none-eabi/9.2.1/../../../arm-none-eabi/lib/thumb/v7e-m/nofp/libc_nano.a(lib_a-puts.o)
 .debug_info    0x0000000000022666      0xc90 /usr/lib/gcc/arm-none-eabi/9.2.1/../../../arm-none-eabi/lib/thumb/v7e-m/nofp/libc_nano.a(lib_a-wbuf.o)
 .debug_info    0x00000000000232f6      0xbfa /usr/lib/gcc/arm-none-eabi/9.2.1/../../../arm-none-eabi/lib/thumb/v7e-m/nofp/libc_nano.a(lib_a-wsetup.o)
 .debug_info    0x0000000000023ef0      0xd73 /usr/lib/gcc/arm-none-eabi/9.2.1/../../../arm-none-eabi/lib/thumb/v7e-m/nofp/libc_nano.a(lib_a-fflush.o)
 .debug_info    0x0000000000024c63     0x11a8 /usr/lib/gcc/arm-none-eabi/9.2.1/../../../arm-none-eabi/lib/thumb/v7e-m/nofp/libc_nano.a(lib_a-findfp.o)
 .debug_info    0x0000000000025e0b      0xca4 /usr/lib/gcc/arm-none-eabi/9.2.1/../../../arm-none-eabi/lib/thumb/v7e-m/nofp/libc_nano.a(lib_a-fwalk.o)
 .debug_info    0x0000000000026aaf      0xf68 /usr/lib/gcc/arm-none-eabi/9.2.1/../../../arm-none-eabi/lib/thumb/v7e-m/nofp/libc_nano.a(lib_a-makebuf.o)
 .debug_info    0x0000000000027a17      0x961 /usr/lib/gcc/arm-none-eabi/9.2.1/../../../arm-none-eabi/lib/thumb/v7e-m/nofp/libc_nano.a(lib_a-mlock.o)
 .debug_info    0x0000000000028378      0xb77 /usr/lib/gcc/arm-none-eabi/9.2.1/../../../arm-none-eabi/lib/thumb/v7e-m/nofp/libc_nano.a(lib_a-nano-reallocr.o)
 .debug_info    0x0000000000028eef     0x176a /usr/lib/gcc/arm-none-eabi/9.2.1/../../../arm-none-eabi/lib/thumb/v7e-m/nofp/libc_nano.a(lib_a-nano-vfprintf.o)
 .debug_info    0x000000000002a659     0x1592 /usr/lib/gcc/arm-none-eabi/9.2.1/../../../arm-none-eabi/lib/thumb/v7e-m/nofp/libc_nano.a(lib_a-nano-vfprintf_i.o)
 .debug_info    0x000000000002bbeb      0xe67 /usr/lib/gcc/arm-none-eabi/9.2.1/../../../arm-none-eabi/lib/thumb/v7e-m/nofp/libc_nano.a(lib_a-stdio.o)
 .debug_info    0x000000000002ca52      0xeed /usr/lib/gcc/arm-none-eabi/9.2.1/../../../arm-none-eabi/lib/thumb/v7e-m/nofp/libc_nano.a(lib_a-fvwrite.o)
 .debug_info    0x000000000002d93f       0x26 /usr/lib/gcc/arm-none-eabi/9.2.1/../../../arm-none-eabi/lib/thumb/v7e-m/nofp/libc_nano.a(lib_a-memchr.o)
 .debug_info    0x000000000002d965      0xf2b /usr/lib/gcc/arm-none-eabi/9.2.1/../../../arm-none-eabi/lib/thumb/v7e-m/nofp/libc_nano.a(lib_a-memmove.o)
 .debug_info    0x000000000002e890      0xaa6 /usr/lib/gcc/arm-none-eabi/9.2.1/../../../arm-none-eabi/lib/thumb/v7e-m/nofp/libc_nano.a(lib_a-nano-msizer.o)

.debug_abbrev   0x0000000000000000     0x83e3
 .debug_abbrev  0x0000000000000000      0x32b /home/ch/RIOT/tests/leds/bin/lora-e5-dev/application_tests_leds/main.o
 .debug_abbrev  0x000000000000032b      0x203 /home/ch/RIOT/tests/leds/bin/lora-e5-dev/auto_init/auto_init.o
 .debug_abbrev  0x000000000000052e      0x2c6 /home/ch/RIOT/tests/leds/bin/lora-e5-dev/board/board.o
 .debug_abbrev  0x00000000000007f4      0x32c /home/ch/RIOT/tests/leds/bin/lora-e5-dev/core/init.o
 .debug_abbrev  0x0000000000000b20      0x364 /home/ch/RIOT/tests/leds/bin/lora-e5-dev/core/panic.o
 .debug_abbrev  0x0000000000000e84      0x4d7 /home/ch/RIOT/tests/leds/bin/lora-e5-dev/core/sched.o
 .debug_abbrev  0x000000000000135b      0x532 /home/ch/RIOT/tests/leds/bin/lora-e5-dev/core/thread.o
 .debug_abbrev  0x000000000000188d      0x3b5 /home/ch/RIOT/tests/leds/bin/lora-e5-dev/cortexm_common/cortexm_init.o
 .debug_abbrev  0x0000000000001c42      0x2fe /home/ch/RIOT/tests/leds/bin/lora-e5-dev/cortexm_common/panic.o
 .debug_abbrev  0x0000000000001f40      0x48e /home/ch/RIOT/tests/leds/bin/lora-e5-dev/cortexm_common/thread_arch.o
 .debug_abbrev  0x00000000000023ce      0x495 /home/ch/RIOT/tests/leds/bin/lora-e5-dev/cortexm_common/vectors_cortexm.o
 .debug_abbrev  0x0000000000002863      0x37d /home/ch/RIOT/tests/leds/bin/lora-e5-dev/cpu/cpu_common.o
 .debug_abbrev  0x0000000000002be0      0x2ee /home/ch/RIOT/tests/leds/bin/lora-e5-dev/cpu/cpu_init.o
 .debug_abbrev  0x0000000000002ece      0x513 /home/ch/RIOT/tests/leds/bin/lora-e5-dev/newlib_syscalls_default/syscalls.o
 .debug_abbrev  0x00000000000033e1      0x26a /home/ch/RIOT/tests/leds/bin/lora-e5-dev/periph_common/init.o
 .debug_abbrev  0x000000000000364b      0x3ee /home/ch/RIOT/tests/leds/bin/lora-e5-dev/periph/gpio_all.o
 .debug_abbrev  0x0000000000003a39      0x3cc /home/ch/RIOT/tests/leds/bin/lora-e5-dev/periph/pm.o
 .debug_abbrev  0x0000000000003e05      0x52b /home/ch/RIOT/tests/leds/bin/lora-e5-dev/periph/uart.o
 .debug_abbrev  0x0000000000004330      0x3a1 /home/ch/RIOT/tests/leds/bin/lora-e5-dev/pm_layered/pm.o
 .debug_abbrev  0x00000000000046d1      0x344 /home/ch/RIOT/tests/leds/bin/lora-e5-dev/stdio_uart/stdio_uart.o
 .debug_abbrev  0x0000000000004a15      0x2fb /home/ch/RIOT/tests/leds/bin/lora-e5-dev/stm32_clk/stmclk_common.o
 .debug_abbrev  0x0000000000004d10      0x39b /home/ch/RIOT/tests/leds/bin/lora-e5-dev/stm32_clk/stmclk_l4wx.o
 .debug_abbrev  0x00000000000050ab       0xf4 /home/ch/RIOT/tests/leds/bin/lora-e5-dev/stm32_vectors/STM32WLE5xx.o
 .debug_abbrev  0x000000000000519f      0x17a /usr/lib/gcc/arm-none-eabi/9.2.1/../../../arm-none-eabi/lib/thumb/v7e-m/nofp/libc_nano.a(lib_a-impure.o)
 .debug_abbrev  0x0000000000005319       0xcc /usr/lib/gcc/arm-none-eabi/9.2.1/../../../arm-none-eabi/lib/thumb/v7e-m/nofp/libc_nano.a(lib_a-init.o)
 .debug_abbrev  0x00000000000053e5       0x14 /usr/lib/gcc/arm-none-eabi/9.2.1/../../../arm-none-eabi/lib/thumb/v7e-m/nofp/libc_nano.a(lib_a-memcpy.o)
 .debug_abbrev  0x00000000000053f9      0x1d9 /usr/lib/gcc/arm-none-eabi/9.2.1/../../../arm-none-eabi/lib/thumb/v7e-m/nofp/libc_nano.a(lib_a-memset.o)
 .debug_abbrev  0x00000000000055d2      0x286 /usr/lib/gcc/arm-none-eabi/9.2.1/../../../arm-none-eabi/lib/thumb/v7e-m/nofp/libc_nano.a(lib_a-nano-freer.o)
 .debug_abbrev  0x0000000000005858      0x2d1 /usr/lib/gcc/arm-none-eabi/9.2.1/../../../arm-none-eabi/lib/thumb/v7e-m/nofp/libc_nano.a(lib_a-nano-mallocr.o)
 .debug_abbrev  0x0000000000005b29      0x29f /usr/lib/gcc/arm-none-eabi/9.2.1/../../../arm-none-eabi/lib/thumb/v7e-m/nofp/libc_nano.a(lib_a-printf.o)
 .debug_abbrev  0x0000000000005dc8      0x2de /usr/lib/gcc/arm-none-eabi/9.2.1/../../../arm-none-eabi/lib/thumb/v7e-m/nofp/libc_nano.a(lib_a-puts.o)
 .debug_abbrev  0x00000000000060a6      0x285 /usr/lib/gcc/arm-none-eabi/9.2.1/../../../arm-none-eabi/lib/thumb/v7e-m/nofp/libc_nano.a(lib_a-wbuf.o)
 .debug_abbrev  0x000000000000632b      0x23a /usr/lib/gcc/arm-none-eabi/9.2.1/../../../arm-none-eabi/lib/thumb/v7e-m/nofp/libc_nano.a(lib_a-wsetup.o)
 .debug_abbrev  0x0000000000006565      0x2e4 /usr/lib/gcc/arm-none-eabi/9.2.1/../../../arm-none-eabi/lib/thumb/v7e-m/nofp/libc_nano.a(lib_a-fflush.o)
 .debug_abbrev  0x0000000000006849      0x3dc /usr/lib/gcc/arm-none-eabi/9.2.1/../../../arm-none-eabi/lib/thumb/v7e-m/nofp/libc_nano.a(lib_a-findfp.o)
 .debug_abbrev  0x0000000000006c25      0x210 /usr/lib/gcc/arm-none-eabi/9.2.1/../../../arm-none-eabi/lib/thumb/v7e-m/nofp/libc_nano.a(lib_a-fwalk.o)
 .debug_abbrev  0x0000000000006e35      0x2f6 /usr/lib/gcc/arm-none-eabi/9.2.1/../../../arm-none-eabi/lib/thumb/v7e-m/nofp/libc_nano.a(lib_a-makebuf.o)
 .debug_abbrev  0x000000000000712b      0x1c5 /usr/lib/gcc/arm-none-eabi/9.2.1/../../../arm-none-eabi/lib/thumb/v7e-m/nofp/libc_nano.a(lib_a-mlock.o)
 .debug_abbrev  0x00000000000072f0      0x22a /usr/lib/gcc/arm-none-eabi/9.2.1/../../../arm-none-eabi/lib/thumb/v7e-m/nofp/libc_nano.a(lib_a-nano-reallocr.o)
 .debug_abbrev  0x000000000000751a      0x337 /usr/lib/gcc/arm-none-eabi/9.2.1/../../../arm-none-eabi/lib/thumb/v7e-m/nofp/libc_nano.a(lib_a-nano-vfprintf.o)
 .debug_abbrev  0x0000000000007851      0x2dc /usr/lib/gcc/arm-none-eabi/9.2.1/../../../arm-none-eabi/lib/thumb/v7e-m/nofp/libc_nano.a(lib_a-nano-vfprintf_i.o)
 .debug_abbrev  0x0000000000007b2d      0x26f /usr/lib/gcc/arm-none-eabi/9.2.1/../../../arm-none-eabi/lib/thumb/v7e-m/nofp/libc_nano.a(lib_a-stdio.o)
 .debug_abbrev  0x0000000000007d9c      0x270 /usr/lib/gcc/arm-none-eabi/9.2.1/../../../arm-none-eabi/lib/thumb/v7e-m/nofp/libc_nano.a(lib_a-fvwrite.o)
 .debug_abbrev  0x000000000000800c       0x14 /usr/lib/gcc/arm-none-eabi/9.2.1/../../../arm-none-eabi/lib/thumb/v7e-m/nofp/libc_nano.a(lib_a-memchr.o)
 .debug_abbrev  0x0000000000008020      0x1de /usr/lib/gcc/arm-none-eabi/9.2.1/../../../arm-none-eabi/lib/thumb/v7e-m/nofp/libc_nano.a(lib_a-memmove.o)
 .debug_abbrev  0x00000000000081fe      0x1e5 /usr/lib/gcc/arm-none-eabi/9.2.1/../../../arm-none-eabi/lib/thumb/v7e-m/nofp/libc_nano.a(lib_a-nano-msizer.o)

.debug_loc      0x0000000000000000     0x6719
 .debug_loc     0x0000000000000000       0x71 /home/ch/RIOT/tests/leds/bin/lora-e5-dev/application_tests_leds/main.o
 .debug_loc     0x0000000000000071       0x2a /home/ch/RIOT/tests/leds/bin/lora-e5-dev/board/board.o
 .debug_loc     0x000000000000009b       0x4f /home/ch/RIOT/tests/leds/bin/lora-e5-dev/core/init.o
 .debug_loc     0x00000000000000ea       0x86 /home/ch/RIOT/tests/leds/bin/lora-e5-dev/core/panic.o
 .debug_loc     0x0000000000000170      0x2ca /home/ch/RIOT/tests/leds/bin/lora-e5-dev/core/sched.o
 .debug_loc     0x000000000000043a      0xb20 /home/ch/RIOT/tests/leds/bin/lora-e5-dev/core/thread.o
 .debug_loc     0x0000000000000f5a      0x194 /home/ch/RIOT/tests/leds/bin/lora-e5-dev/cortexm_common/cortexm_init.o
 .debug_loc     0x00000000000010ee       0x63 /home/ch/RIOT/tests/leds/bin/lora-e5-dev/cortexm_common/panic.o
 .debug_loc     0x0000000000001151      0x243 /home/ch/RIOT/tests/leds/bin/lora-e5-dev/cortexm_common/thread_arch.o
 .debug_loc     0x0000000000001394      0x443 /home/ch/RIOT/tests/leds/bin/lora-e5-dev/cortexm_common/vectors_cortexm.o
 .debug_loc     0x00000000000017d7      0x22f /home/ch/RIOT/tests/leds/bin/lora-e5-dev/cpu/cpu_common.o
 .debug_loc     0x0000000000001a06       0x2a /home/ch/RIOT/tests/leds/bin/lora-e5-dev/cpu/cpu_init.o
 .debug_loc     0x0000000000001a30      0x52c /home/ch/RIOT/tests/leds/bin/lora-e5-dev/newlib_syscalls_default/syscalls.o
 .debug_loc     0x0000000000001f5c       0x2a /home/ch/RIOT/tests/leds/bin/lora-e5-dev/periph_common/init.o
 .debug_loc     0x0000000000001f86      0x504 /home/ch/RIOT/tests/leds/bin/lora-e5-dev/periph/gpio_all.o
 .debug_loc     0x000000000000248a      0x143 /home/ch/RIOT/tests/leds/bin/lora-e5-dev/periph/pm.o
 .debug_loc     0x00000000000025cd      0x52e /home/ch/RIOT/tests/leds/bin/lora-e5-dev/periph/uart.o
 .debug_loc     0x0000000000002afb      0x26c /home/ch/RIOT/tests/leds/bin/lora-e5-dev/pm_layered/pm.o
 .debug_loc     0x0000000000002d67       0xb0 /home/ch/RIOT/tests/leds/bin/lora-e5-dev/stdio_uart/stdio_uart.o
 .debug_loc     0x0000000000002e17       0x2a /home/ch/RIOT/tests/leds/bin/lora-e5-dev/stm32_clk/stmclk_common.o
 .debug_loc     0x0000000000002e41       0x93 /home/ch/RIOT/tests/leds/bin/lora-e5-dev/stm32_clk/stmclk_l4wx.o
 .debug_loc     0x0000000000002ed4       0xba /usr/lib/gcc/arm-none-eabi/9.2.1/../../../arm-none-eabi/lib/thumb/v7e-m/nofp/libc_nano.a(lib_a-init.o)
 .debug_loc     0x0000000000002f8e      0x231 /usr/lib/gcc/arm-none-eabi/9.2.1/../../../arm-none-eabi/lib/thumb/v7e-m/nofp/libc_nano.a(lib_a-memset.o)
 .debug_loc     0x00000000000031bf      0x211 /usr/lib/gcc/arm-none-eabi/9.2.1/../../../arm-none-eabi/lib/thumb/v7e-m/nofp/libc_nano.a(lib_a-nano-freer.o)
 .debug_loc     0x00000000000033d0      0x437 /usr/lib/gcc/arm-none-eabi/9.2.1/../../../arm-none-eabi/lib/thumb/v7e-m/nofp/libc_nano.a(lib_a-nano-mallocr.o)
 .debug_loc     0x0000000000003807       0x98 /usr/lib/gcc/arm-none-eabi/9.2.1/../../../arm-none-eabi/lib/thumb/v7e-m/nofp/libc_nano.a(lib_a-printf.o)
 .debug_loc     0x000000000000389f      0x32d /usr/lib/gcc/arm-none-eabi/9.2.1/../../../arm-none-eabi/lib/thumb/v7e-m/nofp/libc_nano.a(lib_a-puts.o)
 .debug_loc     0x0000000000003bcc      0x193 /usr/lib/gcc/arm-none-eabi/9.2.1/../../../arm-none-eabi/lib/thumb/v7e-m/nofp/libc_nano.a(lib_a-wbuf.o)
 .debug_loc     0x0000000000003d5f       0xb7 /usr/lib/gcc/arm-none-eabi/9.2.1/../../../arm-none-eabi/lib/thumb/v7e-m/nofp/libc_nano.a(lib_a-wsetup.o)
 .debug_loc     0x0000000000003e16      0x3f5 /usr/lib/gcc/arm-none-eabi/9.2.1/../../../arm-none-eabi/lib/thumb/v7e-m/nofp/libc_nano.a(lib_a-fflush.o)
 .debug_loc     0x000000000000420b      0x339 /usr/lib/gcc/arm-none-eabi/9.2.1/../../../arm-none-eabi/lib/thumb/v7e-m/nofp/libc_nano.a(lib_a-findfp.o)
 .debug_loc     0x0000000000004544      0x24f /usr/lib/gcc/arm-none-eabi/9.2.1/../../../arm-none-eabi/lib/thumb/v7e-m/nofp/libc_nano.a(lib_a-fwalk.o)
 .debug_loc     0x0000000000004793      0x192 /usr/lib/gcc/arm-none-eabi/9.2.1/../../../arm-none-eabi/lib/thumb/v7e-m/nofp/libc_nano.a(lib_a-makebuf.o)
 .debug_loc     0x0000000000004925      0x133 /usr/lib/gcc/arm-none-eabi/9.2.1/../../../arm-none-eabi/lib/thumb/v7e-m/nofp/libc_nano.a(lib_a-nano-reallocr.o)
 .debug_loc     0x0000000000004a58      0x7a3 /usr/lib/gcc/arm-none-eabi/9.2.1/../../../arm-none-eabi/lib/thumb/v7e-m/nofp/libc_nano.a(lib_a-nano-vfprintf.o)
 .debug_loc     0x00000000000051fb      0x7ab /usr/lib/gcc/arm-none-eabi/9.2.1/../../../arm-none-eabi/lib/thumb/v7e-m/nofp/libc_nano.a(lib_a-nano-vfprintf_i.o)
 .debug_loc     0x00000000000059a6      0x393 /usr/lib/gcc/arm-none-eabi/9.2.1/../../../arm-none-eabi/lib/thumb/v7e-m/nofp/libc_nano.a(lib_a-stdio.o)
 .debug_loc     0x0000000000005d39      0x669 /usr/lib/gcc/arm-none-eabi/9.2.1/../../../arm-none-eabi/lib/thumb/v7e-m/nofp/libc_nano.a(lib_a-fvwrite.o)
 .debug_loc     0x00000000000063a2      0x2f1 /usr/lib/gcc/arm-none-eabi/9.2.1/../../../arm-none-eabi/lib/thumb/v7e-m/nofp/libc_nano.a(lib_a-memmove.o)
 .debug_loc     0x0000000000006693       0x86 /usr/lib/gcc/arm-none-eabi/9.2.1/../../../arm-none-eabi/lib/thumb/v7e-m/nofp/libc_nano.a(lib_a-nano-msizer.o)

.debug_aranges  0x0000000000000000      0x940
 .debug_aranges
                0x0000000000000000       0x30 /home/ch/RIOT/tests/leds/bin/lora-e5-dev/application_tests_leds/main.o
 .debug_aranges
                0x0000000000000030       0x20 /home/ch/RIOT/tests/leds/bin/lora-e5-dev/auto_init/auto_init.o
 .debug_aranges
                0x0000000000000050       0x28 /home/ch/RIOT/tests/leds/bin/lora-e5-dev/board/board.o
 .debug_aranges
                0x0000000000000078       0x30 /home/ch/RIOT/tests/leds/bin/lora-e5-dev/core/init.o
 .debug_aranges
                0x00000000000000a8       0x38 /home/ch/RIOT/tests/leds/bin/lora-e5-dev/core/panic.o
 .debug_aranges
                0x00000000000000e0       0x48 /home/ch/RIOT/tests/leds/bin/lora-e5-dev/core/sched.o
 .debug_aranges
                0x0000000000000128       0x78 /home/ch/RIOT/tests/leds/bin/lora-e5-dev/core/thread.o
 .debug_aranges
                0x00000000000001a0       0x30 /home/ch/RIOT/tests/leds/bin/lora-e5-dev/cortexm_common/cortexm_init.o
 .debug_aranges
                0x00000000000001d0       0x28 /home/ch/RIOT/tests/leds/bin/lora-e5-dev/cortexm_common/panic.o
 .debug_aranges
                0x00000000000001f8       0x68 /home/ch/RIOT/tests/leds/bin/lora-e5-dev/cortexm_common/thread_arch.o
 .debug_aranges
                0x0000000000000260       0x70 /home/ch/RIOT/tests/leds/bin/lora-e5-dev/cortexm_common/vectors_cortexm.o
 .debug_aranges
                0x00000000000002d0       0x40 /home/ch/RIOT/tests/leds/bin/lora-e5-dev/cpu/cpu_common.o
 .debug_aranges
                0x0000000000000310       0x40 /home/ch/RIOT/tests/leds/bin/lora-e5-dev/cpu/cpu_init.o
 .debug_aranges
                0x0000000000000350       0xc0 /home/ch/RIOT/tests/leds/bin/lora-e5-dev/newlib_syscalls_default/syscalls.o
 .debug_aranges
                0x0000000000000410       0x28 /home/ch/RIOT/tests/leds/bin/lora-e5-dev/periph_common/init.o
 .debug_aranges
                0x0000000000000438       0x70 /home/ch/RIOT/tests/leds/bin/lora-e5-dev/periph/gpio_all.o
 .debug_aranges
                0x00000000000004a8       0x38 /home/ch/RIOT/tests/leds/bin/lora-e5-dev/periph/pm.o
 .debug_aranges
                0x00000000000004e0       0x68 /home/ch/RIOT/tests/leds/bin/lora-e5-dev/periph/uart.o
 .debug_aranges
                0x0000000000000548       0x48 /home/ch/RIOT/tests/leds/bin/lora-e5-dev/pm_layered/pm.o
 .debug_aranges
                0x0000000000000590       0x38 /home/ch/RIOT/tests/leds/bin/lora-e5-dev/stdio_uart/stdio_uart.o
 .debug_aranges
                0x00000000000005c8       0x58 /home/ch/RIOT/tests/leds/bin/lora-e5-dev/stm32_clk/stmclk_common.o
 .debug_aranges
                0x0000000000000620       0x28 /home/ch/RIOT/tests/leds/bin/lora-e5-dev/stm32_clk/stmclk_l4wx.o
 .debug_aranges
                0x0000000000000648       0x20 /home/ch/RIOT/tests/leds/bin/lora-e5-dev/stm32_vectors/STM32WLE5xx.o
 .debug_aranges
                0x0000000000000668       0x18 /usr/lib/gcc/arm-none-eabi/9.2.1/../../../arm-none-eabi/lib/thumb/v7e-m/nofp/libc_nano.a(lib_a-impure.o)
 .debug_aranges
                0x0000000000000680       0x20 /usr/lib/gcc/arm-none-eabi/9.2.1/../../../arm-none-eabi/lib/thumb/v7e-m/nofp/libc_nano.a(lib_a-init.o)
 .debug_aranges
                0x00000000000006a0       0x20 /usr/lib/gcc/arm-none-eabi/9.2.1/../../../arm-none-eabi/lib/thumb/v7e-m/nofp/libc_nano.a(lib_a-memcpy.o)
 .debug_aranges
                0x00000000000006c0       0x20 /usr/lib/gcc/arm-none-eabi/9.2.1/../../../arm-none-eabi/lib/thumb/v7e-m/nofp/libc_nano.a(lib_a-memset.o)
 .debug_aranges
                0x00000000000006e0       0x20 /usr/lib/gcc/arm-none-eabi/9.2.1/../../../arm-none-eabi/lib/thumb/v7e-m/nofp/libc_nano.a(lib_a-nano-freer.o)
 .debug_aranges
                0x0000000000000700       0x20 /usr/lib/gcc/arm-none-eabi/9.2.1/../../../arm-none-eabi/lib/thumb/v7e-m/nofp/libc_nano.a(lib_a-nano-mallocr.o)
 .debug_aranges
                0x0000000000000720       0x20 /usr/lib/gcc/arm-none-eabi/9.2.1/../../../arm-none-eabi/lib/thumb/v7e-m/nofp/libc_nano.a(lib_a-printf.o)
 .debug_aranges
                0x0000000000000740       0x20 /usr/lib/gcc/arm-none-eabi/9.2.1/../../../arm-none-eabi/lib/thumb/v7e-m/nofp/libc_nano.a(lib_a-puts.o)
 .debug_aranges
                0x0000000000000760       0x20 /usr/lib/gcc/arm-none-eabi/9.2.1/../../../arm-none-eabi/lib/thumb/v7e-m/nofp/libc_nano.a(lib_a-wbuf.o)
 .debug_aranges
                0x0000000000000780       0x20 /usr/lib/gcc/arm-none-eabi/9.2.1/../../../arm-none-eabi/lib/thumb/v7e-m/nofp/libc_nano.a(lib_a-wsetup.o)
 .debug_aranges
                0x00000000000007a0       0x20 /usr/lib/gcc/arm-none-eabi/9.2.1/../../../arm-none-eabi/lib/thumb/v7e-m/nofp/libc_nano.a(lib_a-fflush.o)
 .debug_aranges
                0x00000000000007c0       0x20 /usr/lib/gcc/arm-none-eabi/9.2.1/../../../arm-none-eabi/lib/thumb/v7e-m/nofp/libc_nano.a(lib_a-findfp.o)
 .debug_aranges
                0x00000000000007e0       0x20 /usr/lib/gcc/arm-none-eabi/9.2.1/../../../arm-none-eabi/lib/thumb/v7e-m/nofp/libc_nano.a(lib_a-fwalk.o)
 .debug_aranges
                0x0000000000000800       0x20 /usr/lib/gcc/arm-none-eabi/9.2.1/../../../arm-none-eabi/lib/thumb/v7e-m/nofp/libc_nano.a(lib_a-makebuf.o)
 .debug_aranges
                0x0000000000000820       0x20 /usr/lib/gcc/arm-none-eabi/9.2.1/../../../arm-none-eabi/lib/thumb/v7e-m/nofp/libc_nano.a(lib_a-mlock.o)
 .debug_aranges
                0x0000000000000840       0x20 /usr/lib/gcc/arm-none-eabi/9.2.1/../../../arm-none-eabi/lib/thumb/v7e-m/nofp/libc_nano.a(lib_a-nano-reallocr.o)
 .debug_aranges
                0x0000000000000860       0x20 /usr/lib/gcc/arm-none-eabi/9.2.1/../../../arm-none-eabi/lib/thumb/v7e-m/nofp/libc_nano.a(lib_a-nano-vfprintf.o)
 .debug_aranges
                0x0000000000000880       0x20 /usr/lib/gcc/arm-none-eabi/9.2.1/../../../arm-none-eabi/lib/thumb/v7e-m/nofp/libc_nano.a(lib_a-nano-vfprintf_i.o)
 .debug_aranges
                0x00000000000008a0       0x20 /usr/lib/gcc/arm-none-eabi/9.2.1/../../../arm-none-eabi/lib/thumb/v7e-m/nofp/libc_nano.a(lib_a-stdio.o)
 .debug_aranges
                0x00000000000008c0       0x20 /usr/lib/gcc/arm-none-eabi/9.2.1/../../../arm-none-eabi/lib/thumb/v7e-m/nofp/libc_nano.a(lib_a-fvwrite.o)
 .debug_aranges
                0x00000000000008e0       0x20 /usr/lib/gcc/arm-none-eabi/9.2.1/../../../arm-none-eabi/lib/thumb/v7e-m/nofp/libc_nano.a(lib_a-memchr.o)
 .debug_aranges
                0x0000000000000900       0x20 /usr/lib/gcc/arm-none-eabi/9.2.1/../../../arm-none-eabi/lib/thumb/v7e-m/nofp/libc_nano.a(lib_a-memmove.o)
 .debug_aranges
                0x0000000000000920       0x20 /usr/lib/gcc/arm-none-eabi/9.2.1/../../../arm-none-eabi/lib/thumb/v7e-m/nofp/libc_nano.a(lib_a-nano-msizer.o)

.debug_ranges   0x0000000000000000     0x1050
 .debug_ranges  0x0000000000000000       0x38 /home/ch/RIOT/tests/leds/bin/lora-e5-dev/application_tests_leds/main.o
 .debug_ranges  0x0000000000000038       0x10 /home/ch/RIOT/tests/leds/bin/lora-e5-dev/auto_init/auto_init.o
 .debug_ranges  0x0000000000000048       0x18 /home/ch/RIOT/tests/leds/bin/lora-e5-dev/board/board.o
 .debug_ranges  0x0000000000000060       0x50 /home/ch/RIOT/tests/leds/bin/lora-e5-dev/core/init.o
 .debug_ranges  0x00000000000000b0       0x28 /home/ch/RIOT/tests/leds/bin/lora-e5-dev/core/panic.o
 .debug_ranges  0x00000000000000d8      0x118 /home/ch/RIOT/tests/leds/bin/lora-e5-dev/core/sched.o
 .debug_ranges  0x00000000000001f0      0x298 /home/ch/RIOT/tests/leds/bin/lora-e5-dev/core/thread.o
 .debug_ranges  0x0000000000000488       0xb8 /home/ch/RIOT/tests/leds/bin/lora-e5-dev/cortexm_common/cortexm_init.o
 .debug_ranges  0x0000000000000540       0x48 /home/ch/RIOT/tests/leds/bin/lora-e5-dev/cortexm_common/panic.o
 .debug_ranges  0x0000000000000588       0x88 /home/ch/RIOT/tests/leds/bin/lora-e5-dev/cortexm_common/thread_arch.o
 .debug_ranges  0x0000000000000610       0x78 /home/ch/RIOT/tests/leds/bin/lora-e5-dev/cortexm_common/vectors_cortexm.o
 .debug_ranges  0x0000000000000688       0x30 /home/ch/RIOT/tests/leds/bin/lora-e5-dev/cpu/cpu_common.o
 .debug_ranges  0x00000000000006b8       0x30 /home/ch/RIOT/tests/leds/bin/lora-e5-dev/cpu/cpu_init.o
 .debug_ranges  0x00000000000006e8      0x130 /home/ch/RIOT/tests/leds/bin/lora-e5-dev/newlib_syscalls_default/syscalls.o
 .debug_ranges  0x0000000000000818       0x18 /home/ch/RIOT/tests/leds/bin/lora-e5-dev/periph_common/init.o
 .debug_ranges  0x0000000000000830      0x190 /home/ch/RIOT/tests/leds/bin/lora-e5-dev/periph/gpio_all.o
 .debug_ranges  0x00000000000009c0       0x70 /home/ch/RIOT/tests/leds/bin/lora-e5-dev/periph/pm.o
 .debug_ranges  0x0000000000000a30      0x120 /home/ch/RIOT/tests/leds/bin/lora-e5-dev/periph/uart.o
 .debug_ranges  0x0000000000000b50       0xc8 /home/ch/RIOT/tests/leds/bin/lora-e5-dev/pm_layered/pm.o
 .debug_ranges  0x0000000000000c18       0x28 /home/ch/RIOT/tests/leds/bin/lora-e5-dev/stdio_uart/stdio_uart.o
 .debug_ranges  0x0000000000000c40       0x48 /home/ch/RIOT/tests/leds/bin/lora-e5-dev/stm32_clk/stmclk_common.o
 .debug_ranges  0x0000000000000c88       0x60 /home/ch/RIOT/tests/leds/bin/lora-e5-dev/stm32_clk/stmclk_l4wx.o
 .debug_ranges  0x0000000000000ce8       0x10 /home/ch/RIOT/tests/leds/bin/lora-e5-dev/stm32_vectors/STM32WLE5xx.o
 .debug_ranges  0x0000000000000cf8       0x18 /usr/lib/gcc/arm-none-eabi/9.2.1/../../../arm-none-eabi/lib/thumb/v7e-m/nofp/libc_nano.a(lib_a-nano-freer.o)
 .debug_ranges  0x0000000000000d10       0x38 /usr/lib/gcc/arm-none-eabi/9.2.1/../../../arm-none-eabi/lib/thumb/v7e-m/nofp/libc_nano.a(lib_a-nano-mallocr.o)
 .debug_ranges  0x0000000000000d48       0x68 /usr/lib/gcc/arm-none-eabi/9.2.1/../../../arm-none-eabi/lib/thumb/v7e-m/nofp/libc_nano.a(lib_a-puts.o)
 .debug_ranges  0x0000000000000db0       0x20 /usr/lib/gcc/arm-none-eabi/9.2.1/../../../arm-none-eabi/lib/thumb/v7e-m/nofp/libc_nano.a(lib_a-wbuf.o)
 .debug_ranges  0x0000000000000dd0       0x30 /usr/lib/gcc/arm-none-eabi/9.2.1/../../../arm-none-eabi/lib/thumb/v7e-m/nofp/libc_nano.a(lib_a-wsetup.o)
 .debug_ranges  0x0000000000000e00       0x68 /usr/lib/gcc/arm-none-eabi/9.2.1/../../../arm-none-eabi/lib/thumb/v7e-m/nofp/libc_nano.a(lib_a-fflush.o)
 .debug_ranges  0x0000000000000e68       0xe8 /usr/lib/gcc/arm-none-eabi/9.2.1/../../../arm-none-eabi/lib/thumb/v7e-m/nofp/libc_nano.a(lib_a-findfp.o)
 .debug_ranges  0x0000000000000f50       0x28 /usr/lib/gcc/arm-none-eabi/9.2.1/../../../arm-none-eabi/lib/thumb/v7e-m/nofp/libc_nano.a(lib_a-makebuf.o)
 .debug_ranges  0x0000000000000f78       0x28 /usr/lib/gcc/arm-none-eabi/9.2.1/../../../arm-none-eabi/lib/thumb/v7e-m/nofp/libc_nano.a(lib_a-nano-vfprintf.o)
 .debug_ranges  0x0000000000000fa0       0x98 /usr/lib/gcc/arm-none-eabi/9.2.1/../../../arm-none-eabi/lib/thumb/v7e-m/nofp/libc_nano.a(lib_a-nano-vfprintf_i.o)
 .debug_ranges  0x0000000000001038       0x18 /usr/lib/gcc/arm-none-eabi/9.2.1/../../../arm-none-eabi/lib/thumb/v7e-m/nofp/libc_nano.a(lib_a-fvwrite.o)

.debug_macro    0x0000000000000000    0x261d8
 .debug_macro   0x0000000000000000      0x41a /home/ch/RIOT/tests/leds/bin/lora-e5-dev/application_tests_leds/main.o
 .debug_macro   0x000000000000041a      0xafc /home/ch/RIOT/tests/leds/bin/lora-e5-dev/application_tests_leds/main.o
 .debug_macro   0x0000000000000f16      0x112 /home/ch/RIOT/tests/leds/bin/lora-e5-dev/application_tests_leds/main.o
 .debug_macro   0x0000000000001028       0x22 /home/ch/RIOT/tests/leds/bin/lora-e5-dev/application_tests_leds/main.o
 .debug_macro   0x000000000000104a       0x46 /home/ch/RIOT/tests/leds/bin/lora-e5-dev/application_tests_leds/main.o
 .debug_macro   0x0000000000001090       0x18 /home/ch/RIOT/tests/leds/bin/lora-e5-dev/application_tests_leds/main.o
 .debug_macro   0x00000000000010a8       0x5c /home/ch/RIOT/tests/leds/bin/lora-e5-dev/application_tests_leds/main.o
 .debug_macro   0x0000000000001104       0x3c /home/ch/RIOT/tests/leds/bin/lora-e5-dev/application_tests_leds/main.o
 .debug_macro   0x0000000000001140       0x34 /home/ch/RIOT/tests/leds/bin/lora-e5-dev/application_tests_leds/main.o
 .debug_macro   0x0000000000001174       0x16 /home/ch/RIOT/tests/leds/bin/lora-e5-dev/application_tests_leds/main.o
 .debug_macro   0x000000000000118a       0x57 /home/ch/RIOT/tests/leds/bin/lora-e5-dev/application_tests_leds/main.o
 .debug_macro   0x00000000000011e1       0x97 /home/ch/RIOT/tests/leds/bin/lora-e5-dev/application_tests_leds/main.o
 .debug_macro   0x0000000000001278      0x339 /home/ch/RIOT/tests/leds/bin/lora-e5-dev/application_tests_leds/main.o
 .debug_macro   0x00000000000015b1       0xfd /home/ch/RIOT/tests/leds/bin/lora-e5-dev/application_tests_leds/main.o
 .debug_macro   0x00000000000016ae       0x10 /home/ch/RIOT/tests/leds/bin/lora-e5-dev/application_tests_leds/main.o
 .debug_macro   0x00000000000016be       0x16 /home/ch/RIOT/tests/leds/bin/lora-e5-dev/application_tests_leds/main.o
 .debug_macro   0x00000000000016d4       0x43 /home/ch/RIOT/tests/leds/bin/lora-e5-dev/application_tests_leds/main.o
 .debug_macro   0x0000000000001717       0x34 /home/ch/RIOT/tests/leds/bin/lora-e5-dev/application_tests_leds/main.o
 .debug_macro   0x000000000000174b       0x10 /home/ch/RIOT/tests/leds/bin/lora-e5-dev/application_tests_leds/main.o
 .debug_macro   0x000000000000175b       0x52 /home/ch/RIOT/tests/leds/bin/lora-e5-dev/application_tests_leds/main.o
 .debug_macro   0x00000000000017ad       0x71 /home/ch/RIOT/tests/leds/bin/lora-e5-dev/application_tests_leds/main.o
 .debug_macro   0x000000000000181e      0x34e /home/ch/RIOT/tests/leds/bin/lora-e5-dev/application_tests_leds/main.o
 .debug_macro   0x0000000000001b6c       0x75 /home/ch/RIOT/tests/leds/bin/lora-e5-dev/application_tests_leds/main.o
 .debug_macro   0x0000000000001be1       0x10 /home/ch/RIOT/tests/leds/bin/lora-e5-dev/application_tests_leds/main.o
 .debug_macro   0x0000000000001bf1      0x12a /home/ch/RIOT/tests/leds/bin/lora-e5-dev/application_tests_leds/main.o
 .debug_macro   0x0000000000001d1b       0x10 /home/ch/RIOT/tests/leds/bin/lora-e5-dev/application_tests_leds/main.o
 .debug_macro   0x0000000000001d2b       0x6a /home/ch/RIOT/tests/leds/bin/lora-e5-dev/application_tests_leds/main.o
 .debug_macro   0x0000000000001d95       0xb2 /home/ch/RIOT/tests/leds/bin/lora-e5-dev/application_tests_leds/main.o
 .debug_macro   0x0000000000001e47       0x16 /home/ch/RIOT/tests/leds/bin/lora-e5-dev/application_tests_leds/main.o
 .debug_macro   0x0000000000001e5d      0x114 /home/ch/RIOT/tests/leds/bin/lora-e5-dev/application_tests_leds/main.o
 .debug_macro   0x0000000000001f71       0x1c /home/ch/RIOT/tests/leds/bin/lora-e5-dev/application_tests_leds/main.o
 .debug_macro   0x0000000000001f8d       0xe8 /home/ch/RIOT/tests/leds/bin/lora-e5-dev/application_tests_leds/main.o
 .debug_macro   0x0000000000002075       0x22 /home/ch/RIOT/tests/leds/bin/lora-e5-dev/application_tests_leds/main.o
 .debug_macro   0x0000000000002097       0x49 /home/ch/RIOT/tests/leds/bin/lora-e5-dev/application_tests_leds/main.o
 .debug_macro   0x00000000000020e0       0x2e /home/ch/RIOT/tests/leds/bin/lora-e5-dev/application_tests_leds/main.o
 .debug_macro   0x000000000000210e       0x34 /home/ch/RIOT/tests/leds/bin/lora-e5-dev/application_tests_leds/main.o
 .debug_macro   0x0000000000002142       0x1c /home/ch/RIOT/tests/leds/bin/lora-e5-dev/application_tests_leds/main.o
 .debug_macro   0x000000000000215e       0x22 /home/ch/RIOT/tests/leds/bin/lora-e5-dev/application_tests_leds/main.o
 .debug_macro   0x0000000000002180       0xd9 /home/ch/RIOT/tests/leds/bin/lora-e5-dev/application_tests_leds/main.o
 .debug_macro   0x0000000000002259     0x102d /home/ch/RIOT/tests/leds/bin/lora-e5-dev/application_tests_leds/main.o
 .debug_macro   0x0000000000003286      0x11f /home/ch/RIOT/tests/leds/bin/lora-e5-dev/application_tests_leds/main.o
 .debug_macro   0x00000000000033a5     0xcc1c /home/ch/RIOT/tests/leds/bin/lora-e5-dev/application_tests_leds/main.o
 .debug_macro   0x000000000000ffc1       0x6d /home/ch/RIOT/tests/leds/bin/lora-e5-dev/application_tests_leds/main.o
 .debug_macro   0x000000000001002e       0x10 /home/ch/RIOT/tests/leds/bin/lora-e5-dev/application_tests_leds/main.o
 .debug_macro   0x000000000001003e       0x2b /home/ch/RIOT/tests/leds/bin/lora-e5-dev/application_tests_leds/main.o
 .debug_macro   0x0000000000010069      0x103 /home/ch/RIOT/tests/leds/bin/lora-e5-dev/application_tests_leds/main.o
 .debug_macro   0x000000000001016c       0x35 /home/ch/RIOT/tests/leds/bin/lora-e5-dev/application_tests_leds/main.o
 .debug_macro   0x00000000000101a1      0x3c6 /home/ch/RIOT/tests/leds/bin/lora-e5-dev/application_tests_leds/main.o
 .debug_macro   0x0000000000010567       0x3d /home/ch/RIOT/tests/leds/bin/lora-e5-dev/application_tests_leds/main.o
 .debug_macro   0x00000000000105a4       0x42 /home/ch/RIOT/tests/leds/bin/lora-e5-dev/application_tests_leds/main.o
 .debug_macro   0x00000000000105e6       0x10 /home/ch/RIOT/tests/leds/bin/lora-e5-dev/application_tests_leds/main.o
 .debug_macro   0x00000000000105f6       0x2e /home/ch/RIOT/tests/leds/bin/lora-e5-dev/application_tests_leds/main.o
 .debug_macro   0x0000000000010624       0x16 /home/ch/RIOT/tests/leds/bin/lora-e5-dev/application_tests_leds/main.o
 .debug_macro   0x000000000001063a       0x2e /home/ch/RIOT/tests/leds/bin/lora-e5-dev/application_tests_leds/main.o
 .debug_macro   0x0000000000010668       0x90 /home/ch/RIOT/tests/leds/bin/lora-e5-dev/application_tests_leds/main.o
 .debug_macro   0x00000000000106f8       0x10 /home/ch/RIOT/tests/leds/bin/lora-e5-dev/application_tests_leds/main.o
 .debug_macro   0x0000000000010708       0x1c /home/ch/RIOT/tests/leds/bin/lora-e5-dev/application_tests_leds/main.o
 .debug_macro   0x0000000000010724       0x40 /home/ch/RIOT/tests/leds/bin/lora-e5-dev/application_tests_leds/main.o
 .debug_macro   0x0000000000010764       0x31 /home/ch/RIOT/tests/leds/bin/lora-e5-dev/application_tests_leds/main.o
 .debug_macro   0x0000000000010795       0x84 /home/ch/RIOT/tests/leds/bin/lora-e5-dev/application_tests_leds/main.o
 .debug_macro   0x0000000000010819       0x22 /home/ch/RIOT/tests/leds/bin/lora-e5-dev/application_tests_leds/main.o
 .debug_macro   0x000000000001083b       0x22 /home/ch/RIOT/tests/leds/bin/lora-e5-dev/application_tests_leds/main.o
 .debug_macro   0x000000000001085d       0x16 /home/ch/RIOT/tests/leds/bin/lora-e5-dev/application_tests_leds/main.o
 .debug_macro   0x0000000000010873       0x10 /home/ch/RIOT/tests/leds/bin/lora-e5-dev/application_tests_leds/main.o
 .debug_macro   0x0000000000010883       0x34 /home/ch/RIOT/tests/leds/bin/lora-e5-dev/application_tests_leds/main.o
 .debug_macro   0x00000000000108b7       0x28 /home/ch/RIOT/tests/leds/bin/lora-e5-dev/application_tests_leds/main.o
 .debug_macro   0x00000000000108df       0x16 /home/ch/RIOT/tests/leds/bin/lora-e5-dev/application_tests_leds/main.o
 .debug_macro   0x00000000000108f5       0x40 /home/ch/RIOT/tests/leds/bin/lora-e5-dev/application_tests_leds/main.o
 .debug_macro   0x0000000000010935       0x1c /home/ch/RIOT/tests/leds/bin/lora-e5-dev/application_tests_leds/main.o
 .debug_macro   0x0000000000010951       0x16 /home/ch/RIOT/tests/leds/bin/lora-e5-dev/application_tests_leds/main.o
 .debug_macro   0x0000000000010967       0x1c /home/ch/RIOT/tests/leds/bin/lora-e5-dev/application_tests_leds/main.o
 .debug_macro   0x0000000000010983       0x6b /home/ch/RIOT/tests/leds/bin/lora-e5-dev/application_tests_leds/main.o
 .debug_macro   0x00000000000109ee       0x28 /home/ch/RIOT/tests/leds/bin/lora-e5-dev/application_tests_leds/main.o
 .debug_macro   0x0000000000010a16       0x16 /home/ch/RIOT/tests/leds/bin/lora-e5-dev/application_tests_leds/main.o
 .debug_macro   0x0000000000010a2c       0x38 /home/ch/RIOT/tests/leds/bin/lora-e5-dev/application_tests_leds/main.o
 .debug_macro   0x0000000000010a64       0x76 /home/ch/RIOT/tests/leds/bin/lora-e5-dev/application_tests_leds/main.o
 .debug_macro   0x0000000000010ada      0x1e9 /home/ch/RIOT/tests/leds/bin/lora-e5-dev/auto_init/auto_init.o
 .debug_macro   0x0000000000010cc3      0xafc /home/ch/RIOT/tests/leds/bin/lora-e5-dev/auto_init/auto_init.o
 .debug_macro   0x00000000000117bf       0x34 /home/ch/RIOT/tests/leds/bin/lora-e5-dev/auto_init/auto_init.o
 .debug_macro   0x00000000000117f3      0x408 /home/ch/RIOT/tests/leds/bin/lora-e5-dev/board/board.o
 .debug_macro   0x0000000000011bfb      0xafc /home/ch/RIOT/tests/leds/bin/lora-e5-dev/board/board.o
 .debug_macro   0x00000000000126f7      0x174 /home/ch/RIOT/tests/leds/bin/lora-e5-dev/board/board.o
 .debug_macro   0x000000000001286b      0x197 /home/ch/RIOT/tests/leds/bin/lora-e5-dev/board/board.o
 .debug_macro   0x0000000000012a02      0x428 /home/ch/RIOT/tests/leds/bin/lora-e5-dev/core/init.o
 .debug_macro   0x0000000000012e2a      0xafc /home/ch/RIOT/tests/leds/bin/lora-e5-dev/core/init.o
 .debug_macro   0x0000000000013926       0x10 /home/ch/RIOT/tests/leds/bin/lora-e5-dev/core/init.o
 .debug_macro   0x0000000000013936      0x23b /home/ch/RIOT/tests/leds/bin/lora-e5-dev/core/init.o
 .debug_macro   0x0000000000013b71       0x2e /home/ch/RIOT/tests/leds/bin/lora-e5-dev/core/init.o
 .debug_macro   0x0000000000013b9f       0x10 /home/ch/RIOT/tests/leds/bin/lora-e5-dev/core/init.o
 .debug_macro   0x0000000000013baf      0x3f6 /home/ch/RIOT/tests/leds/bin/lora-e5-dev/core/panic.o
 .debug_macro   0x0000000000013fa5      0xafc /home/ch/RIOT/tests/leds/bin/lora-e5-dev/core/panic.o
 .debug_macro   0x0000000000014aa1       0x10 /home/ch/RIOT/tests/leds/bin/lora-e5-dev/core/panic.o
 .debug_macro   0x0000000000014ab1      0x2ec /home/ch/RIOT/tests/leds/bin/lora-e5-dev/core/sched.o
 .debug_macro   0x0000000000014d9d      0xafc /home/ch/RIOT/tests/leds/bin/lora-e5-dev/core/sched.o
 .debug_macro   0x0000000000015899      0x301 /home/ch/RIOT/tests/leds/bin/lora-e5-dev/core/thread.o
 .debug_macro   0x0000000000015b9a      0xafc /home/ch/RIOT/tests/leds/bin/lora-e5-dev/core/thread.o
 .debug_macro   0x0000000000016696       0x22 /home/ch/RIOT/tests/leds/bin/lora-e5-dev/core/thread.o
 .debug_macro   0x00000000000166b8       0xdc /home/ch/RIOT/tests/leds/bin/lora-e5-dev/core/thread.o
 .debug_macro   0x0000000000016794      0x2d3 /home/ch/RIOT/tests/leds/bin/lora-e5-dev/cortexm_common/cortexm_init.o
 .debug_macro   0x0000000000016a67      0xafc /home/ch/RIOT/tests/leds/bin/lora-e5-dev/cortexm_common/cortexm_init.o
 .debug_macro   0x0000000000017563      0x2d6 /home/ch/RIOT/tests/leds/bin/lora-e5-dev/cortexm_common/panic.o
 .debug_macro   0x0000000000017839      0xafc /home/ch/RIOT/tests/leds/bin/lora-e5-dev/cortexm_common/panic.o
 .debug_macro   0x0000000000018335      0x2f3 /home/ch/RIOT/tests/leds/bin/lora-e5-dev/cortexm_common/thread_arch.o
 .debug_macro   0x0000000000018628      0xafc /home/ch/RIOT/tests/leds/bin/lora-e5-dev/cortexm_common/thread_arch.o
 .debug_macro   0x0000000000019124       0x1c /home/ch/RIOT/tests/leds/bin/lora-e5-dev/cortexm_common/thread_arch.o
 .debug_macro   0x0000000000019140      0x408 /home/ch/RIOT/tests/leds/bin/lora-e5-dev/cortexm_common/vectors_cortexm.o
 .debug_macro   0x0000000000019548      0xafc /home/ch/RIOT/tests/leds/bin/lora-e5-dev/cortexm_common/vectors_cortexm.o
 .debug_macro   0x000000000001a044       0x70 /home/ch/RIOT/tests/leds/bin/lora-e5-dev/cortexm_common/vectors_cortexm.o
 .debug_macro   0x000000000001a0b4       0x1c /home/ch/RIOT/tests/leds/bin/lora-e5-dev/cortexm_common/vectors_cortexm.o
 .debug_macro   0x000000000001a0d0      0x414 /home/ch/RIOT/tests/leds/bin/lora-e5-dev/cpu/cpu_common.o
 .debug_macro   0x000000000001a4e4      0xafc /home/ch/RIOT/tests/leds/bin/lora-e5-dev/cpu/cpu_common.o
 .debug_macro   0x000000000001afe0      0x463 /home/ch/RIOT/tests/leds/bin/lora-e5-dev/cpu/cpu_init.o
 .debug_macro   0x000000000001b443      0xafc /home/ch/RIOT/tests/leds/bin/lora-e5-dev/cpu/cpu_init.o
 .debug_macro   0x000000000001bf3f       0x16 /home/ch/RIOT/tests/leds/bin/lora-e5-dev/cpu/cpu_init.o
 .debug_macro   0x000000000001bf55      0x4fe /home/ch/RIOT/tests/leds/bin/lora-e5-dev/cpu/cpu_init.o
 .debug_macro   0x000000000001c453      0x506 /home/ch/RIOT/tests/leds/bin/lora-e5-dev/newlib_syscalls_default/syscalls.o
 .debug_macro   0x000000000001c959      0xafc /home/ch/RIOT/tests/leds/bin/lora-e5-dev/newlib_syscalls_default/syscalls.o
 .debug_macro   0x000000000001d455       0x10 /home/ch/RIOT/tests/leds/bin/lora-e5-dev/newlib_syscalls_default/syscalls.o
 .debug_macro   0x000000000001d465       0xcf /home/ch/RIOT/tests/leds/bin/lora-e5-dev/newlib_syscalls_default/syscalls.o
 .debug_macro   0x000000000001d534       0x20 /home/ch/RIOT/tests/leds/bin/lora-e5-dev/newlib_syscalls_default/syscalls.o
 .debug_macro   0x000000000001d554       0xbe /home/ch/RIOT/tests/leds/bin/lora-e5-dev/newlib_syscalls_default/syscalls.o
 .debug_macro   0x000000000001d612       0x10 /home/ch/RIOT/tests/leds/bin/lora-e5-dev/newlib_syscalls_default/syscalls.o
 .debug_macro   0x000000000001d622      0x241 /home/ch/RIOT/tests/leds/bin/lora-e5-dev/newlib_syscalls_default/syscalls.o
 .debug_macro   0x000000000001d863       0x10 /home/ch/RIOT/tests/leds/bin/lora-e5-dev/newlib_syscalls_default/syscalls.o
 .debug_macro   0x000000000001d873       0x3c /home/ch/RIOT/tests/leds/bin/lora-e5-dev/newlib_syscalls_default/syscalls.o
 .debug_macro   0x000000000001d8af       0xff /home/ch/RIOT/tests/leds/bin/lora-e5-dev/newlib_syscalls_default/syscalls.o
 .debug_macro   0x000000000001d9ae       0x16 /home/ch/RIOT/tests/leds/bin/lora-e5-dev/newlib_syscalls_default/syscalls.o
 .debug_macro   0x000000000001d9c4       0x10 /home/ch/RIOT/tests/leds/bin/lora-e5-dev/newlib_syscalls_default/syscalls.o
 .debug_macro   0x000000000001d9d4       0x10 /home/ch/RIOT/tests/leds/bin/lora-e5-dev/newlib_syscalls_default/syscalls.o
 .debug_macro   0x000000000001d9e4       0x2e /home/ch/RIOT/tests/leds/bin/lora-e5-dev/newlib_syscalls_default/syscalls.o
 .debug_macro   0x000000000001da12      0x102 /home/ch/RIOT/tests/leds/bin/lora-e5-dev/newlib_syscalls_default/syscalls.o
 .debug_macro   0x000000000001db14      0x3c1 /home/ch/RIOT/tests/leds/bin/lora-e5-dev/periph_common/init.o
 .debug_macro   0x000000000001ded5      0xafc /home/ch/RIOT/tests/leds/bin/lora-e5-dev/periph_common/init.o
 .debug_macro   0x000000000001e9d1      0x426 /home/ch/RIOT/tests/leds/bin/lora-e5-dev/periph/gpio_all.o
 .debug_macro   0x000000000001edf7      0xafc /home/ch/RIOT/tests/leds/bin/lora-e5-dev/periph/gpio_all.o
 .debug_macro   0x000000000001f8f3      0x413 /home/ch/RIOT/tests/leds/bin/lora-e5-dev/periph/pm.o
 .debug_macro   0x000000000001fd06      0xafc /home/ch/RIOT/tests/leds/bin/lora-e5-dev/periph/pm.o
 .debug_macro   0x0000000000020802      0x45d /home/ch/RIOT/tests/leds/bin/lora-e5-dev/periph/uart.o
 .debug_macro   0x0000000000020c5f      0xafc /home/ch/RIOT/tests/leds/bin/lora-e5-dev/periph/uart.o
 .debug_macro   0x000000000002175b       0x10 /home/ch/RIOT/tests/leds/bin/lora-e5-dev/periph/uart.o
 .debug_macro   0x000000000002176b      0x412 /home/ch/RIOT/tests/leds/bin/lora-e5-dev/pm_layered/pm.o
 .debug_macro   0x0000000000021b7d      0xafc /home/ch/RIOT/tests/leds/bin/lora-e5-dev/pm_layered/pm.o
 .debug_macro   0x0000000000022679       0x28 /home/ch/RIOT/tests/leds/bin/lora-e5-dev/pm_layered/pm.o
 .debug_macro   0x00000000000226a1       0x27 /home/ch/RIOT/tests/leds/bin/lora-e5-dev/pm_layered/pm.o
 .debug_macro   0x00000000000226c8      0x4bd /home/ch/RIOT/tests/leds/bin/lora-e5-dev/stdio_uart/stdio_uart.o
 .debug_macro   0x0000000000022b85      0xafc /home/ch/RIOT/tests/leds/bin/lora-e5-dev/stdio_uart/stdio_uart.o
 .debug_macro   0x0000000000023681       0x16 /home/ch/RIOT/tests/leds/bin/lora-e5-dev/stdio_uart/stdio_uart.o
 .debug_macro   0x0000000000023697      0x423 /home/ch/RIOT/tests/leds/bin/lora-e5-dev/stm32_clk/stmclk_common.o
 .debug_macro   0x0000000000023aba      0xafc /home/ch/RIOT/tests/leds/bin/lora-e5-dev/stm32_clk/stmclk_common.o
 .debug_macro   0x00000000000245b6      0x55d /home/ch/RIOT/tests/leds/bin/lora-e5-dev/stm32_clk/stmclk_l4wx.o
 .debug_macro   0x0000000000024b13      0xafc /home/ch/RIOT/tests/leds/bin/lora-e5-dev/stm32_clk/stmclk_l4wx.o
 .debug_macro   0x000000000002560f       0xb7 /home/ch/RIOT/tests/leds/bin/lora-e5-dev/stm32_vectors/STM32WLE5xx.o
 .debug_macro   0x00000000000256c6      0xafc /home/ch/RIOT/tests/leds/bin/lora-e5-dev/stm32_vectors/STM32WLE5xx.o
 .debug_macro   0x00000000000261c2       0x16 /home/ch/RIOT/tests/leds/bin/lora-e5-dev/stm32_vectors/STM32WLE5xx.o

.debug_line     0x0000000000000000    0x10c8d
 .debug_line    0x0000000000000000      0x95a /home/ch/RIOT/tests/leds/bin/lora-e5-dev/application_tests_leds/main.o
 .debug_line    0x000000000000095a      0x341 /home/ch/RIOT/tests/leds/bin/lora-e5-dev/auto_init/auto_init.o
 .debug_line    0x0000000000000c9b      0x865 /home/ch/RIOT/tests/leds/bin/lora-e5-dev/board/board.o
 .debug_line    0x0000000000001500      0x7db /home/ch/RIOT/tests/leds/bin/lora-e5-dev/core/init.o
 .debug_line    0x0000000000001cdb      0x832 /home/ch/RIOT/tests/leds/bin/lora-e5-dev/core/panic.o
 .debug_line    0x000000000000250d      0x939 /home/ch/RIOT/tests/leds/bin/lora-e5-dev/core/sched.o
 .debug_line    0x0000000000002e46      0xe6e /home/ch/RIOT/tests/leds/bin/lora-e5-dev/core/thread.o
 .debug_line    0x0000000000003cb4      0x64f /home/ch/RIOT/tests/leds/bin/lora-e5-dev/cortexm_common/cortexm_init.o
 .debug_line    0x0000000000004303      0x558 /home/ch/RIOT/tests/leds/bin/lora-e5-dev/cortexm_common/panic.o
 .debug_line    0x000000000000485b      0x837 /home/ch/RIOT/tests/leds/bin/lora-e5-dev/cortexm_common/thread_arch.o
 .debug_line    0x0000000000005092      0xa16 /home/ch/RIOT/tests/leds/bin/lora-e5-dev/cortexm_common/vectors_cortexm.o
 .debug_line    0x0000000000005aa8      0x925 /home/ch/RIOT/tests/leds/bin/lora-e5-dev/cpu/cpu_common.o
 .debug_line    0x00000000000063cd      0x8e7 /home/ch/RIOT/tests/leds/bin/lora-e5-dev/cpu/cpu_init.o
 .debug_line    0x0000000000006cb4      0xbf4 /home/ch/RIOT/tests/leds/bin/lora-e5-dev/newlib_syscalls_default/syscalls.o
 .debug_line    0x00000000000078a8      0x6e5 /home/ch/RIOT/tests/leds/bin/lora-e5-dev/periph_common/init.o
 .debug_line    0x0000000000007f8d      0xc02 /home/ch/RIOT/tests/leds/bin/lora-e5-dev/periph/gpio_all.o
 .debug_line    0x0000000000008b8f      0x86f /home/ch/RIOT/tests/leds/bin/lora-e5-dev/periph/pm.o
 .debug_line    0x00000000000093fe      0xc4a /home/ch/RIOT/tests/leds/bin/lora-e5-dev/periph/uart.o
 .debug_line    0x000000000000a048      0x9f7 /home/ch/RIOT/tests/leds/bin/lora-e5-dev/pm_layered/pm.o
 .debug_line    0x000000000000aa3f      0x906 /home/ch/RIOT/tests/leds/bin/lora-e5-dev/stdio_uart/stdio_uart.o
 .debug_line    0x000000000000b345      0x992 /home/ch/RIOT/tests/leds/bin/lora-e5-dev/stm32_clk/stmclk_common.o
 .debug_line    0x000000000000bcd7      0x9ec /home/ch/RIOT/tests/leds/bin/lora-e5-dev/stm32_clk/stmclk_l4wx.o
 .debug_line    0x000000000000c6c3      0x270 /home/ch/RIOT/tests/leds/bin/lora-e5-dev/stm32_vectors/STM32WLE5xx.o
 .debug_line    0x000000000000c933       0xe3 /usr/lib/gcc/arm-none-eabi/9.2.1/../../../arm-none-eabi/lib/thumb/v7e-m/nofp/libc_nano.a(lib_a-impure.o)
 .debug_line    0x000000000000ca16      0x10d /usr/lib/gcc/arm-none-eabi/9.2.1/../../../arm-none-eabi/lib/thumb/v7e-m/nofp/libc_nano.a(lib_a-init.o)
 .debug_line    0x000000000000cb23       0xbe /usr/lib/gcc/arm-none-eabi/9.2.1/../../../arm-none-eabi/lib/thumb/v7e-m/nofp/libc_nano.a(lib_a-memcpy.o)
 .debug_line    0x000000000000cbe1      0x26b /usr/lib/gcc/arm-none-eabi/9.2.1/../../../arm-none-eabi/lib/thumb/v7e-m/nofp/libc_nano.a(lib_a-memset.o)
 .debug_line    0x000000000000ce4c      0x2af /usr/lib/gcc/arm-none-eabi/9.2.1/../../../arm-none-eabi/lib/thumb/v7e-m/nofp/libc_nano.a(lib_a-nano-freer.o)
 .debug_line    0x000000000000d0fb      0x2f2 /usr/lib/gcc/arm-none-eabi/9.2.1/../../../arm-none-eabi/lib/thumb/v7e-m/nofp/libc_nano.a(lib_a-nano-mallocr.o)
 .debug_line    0x000000000000d3ed      0x1fc /usr/lib/gcc/arm-none-eabi/9.2.1/../../../arm-none-eabi/lib/thumb/v7e-m/nofp/libc_nano.a(lib_a-printf.o)
 .debug_line    0x000000000000d5e9      0x316 /usr/lib/gcc/arm-none-eabi/9.2.1/../../../arm-none-eabi/lib/thumb/v7e-m/nofp/libc_nano.a(lib_a-puts.o)
 .debug_line    0x000000000000d8ff      0x27c /usr/lib/gcc/arm-none-eabi/9.2.1/../../../arm-none-eabi/lib/thumb/v7e-m/nofp/libc_nano.a(lib_a-wbuf.o)
 .debug_line    0x000000000000db7b      0x311 /usr/lib/gcc/arm-none-eabi/9.2.1/../../../arm-none-eabi/lib/thumb/v7e-m/nofp/libc_nano.a(lib_a-wsetup.o)
 .debug_line    0x000000000000de8c      0x418 /usr/lib/gcc/arm-none-eabi/9.2.1/../../../arm-none-eabi/lib/thumb/v7e-m/nofp/libc_nano.a(lib_a-fflush.o)
 .debug_line    0x000000000000e2a4      0x561 /usr/lib/gcc/arm-none-eabi/9.2.1/../../../arm-none-eabi/lib/thumb/v7e-m/nofp/libc_nano.a(lib_a-findfp.o)
 .debug_line    0x000000000000e805      0x289 /usr/lib/gcc/arm-none-eabi/9.2.1/../../../arm-none-eabi/lib/thumb/v7e-m/nofp/libc_nano.a(lib_a-fwalk.o)
 .debug_line    0x000000000000ea8e      0x36f /usr/lib/gcc/arm-none-eabi/9.2.1/../../../arm-none-eabi/lib/thumb/v7e-m/nofp/libc_nano.a(lib_a-makebuf.o)
 .debug_line    0x000000000000edfd      0x13d /usr/lib/gcc/arm-none-eabi/9.2.1/../../../arm-none-eabi/lib/thumb/v7e-m/nofp/libc_nano.a(lib_a-mlock.o)
 .debug_line    0x000000000000ef3a      0x1c5 /usr/lib/gcc/arm-none-eabi/9.2.1/../../../arm-none-eabi/lib/thumb/v7e-m/nofp/libc_nano.a(lib_a-nano-reallocr.o)
 .debug_line    0x000000000000f0ff      0x726 /usr/lib/gcc/arm-none-eabi/9.2.1/../../../arm-none-eabi/lib/thumb/v7e-m/nofp/libc_nano.a(lib_a-nano-vfprintf.o)
 .debug_line    0x000000000000f825      0x790 /usr/lib/gcc/arm-none-eabi/9.2.1/../../../arm-none-eabi/lib/thumb/v7e-m/nofp/libc_nano.a(lib_a-nano-vfprintf_i.o)
 .debug_line    0x000000000000ffb5      0x25f /usr/lib/gcc/arm-none-eabi/9.2.1/../../../arm-none-eabi/lib/thumb/v7e-m/nofp/libc_nano.a(lib_a-stdio.o)
 .debug_line    0x0000000000010214      0x5e8 /usr/lib/gcc/arm-none-eabi/9.2.1/../../../arm-none-eabi/lib/thumb/v7e-m/nofp/libc_nano.a(lib_a-fvwrite.o)
 .debug_line    0x00000000000107fc       0xa4 /usr/lib/gcc/arm-none-eabi/9.2.1/../../../arm-none-eabi/lib/thumb/v7e-m/nofp/libc_nano.a(lib_a-memchr.o)
 .debug_line    0x00000000000108a0      0x287 /usr/lib/gcc/arm-none-eabi/9.2.1/../../../arm-none-eabi/lib/thumb/v7e-m/nofp/libc_nano.a(lib_a-memmove.o)
 .debug_line    0x0000000000010b27      0x166 /usr/lib/gcc/arm-none-eabi/9.2.1/../../../arm-none-eabi/lib/thumb/v7e-m/nofp/libc_nano.a(lib_a-nano-msizer.o)

.debug_str      0x0000000000000000    0x61f36
 .debug_str     0x0000000000000000    0x5b789 /home/ch/RIOT/tests/leds/bin/lora-e5-dev/application_tests_leds/main.o
                                      0x5bc5a (size before relaxing)
 .debug_str     0x000000000005b789      0x5c2 /home/ch/RIOT/tests/leds/bin/lora-e5-dev/auto_init/auto_init.o
                                       0x9693 (size before relaxing)
 .debug_str     0x000000000005bd4b      0x10d /home/ch/RIOT/tests/leds/bin/lora-e5-dev/board/board.o
                                      0x5bc87 (size before relaxing)
 .debug_str     0x000000000005be58      0x79f /home/ch/RIOT/tests/leds/bin/lora-e5-dev/core/init.o
                                      0x5ba65 (size before relaxing)
 .debug_str     0x000000000005c5f7      0x1bd /home/ch/RIOT/tests/leds/bin/lora-e5-dev/core/panic.o
                                      0x5b4c1 (size before relaxing)
 .debug_str     0x000000000005c7b4      0x58b /home/ch/RIOT/tests/leds/bin/lora-e5-dev/core/sched.o
                                      0x5a7e5 (size before relaxing)
 .debug_str     0x000000000005cd3f      0x284 /home/ch/RIOT/tests/leds/bin/lora-e5-dev/core/thread.o
                                      0x5ad57 (size before relaxing)
 .debug_str     0x000000000005cfc3      0x595 /home/ch/RIOT/tests/leds/bin/lora-e5-dev/cortexm_common/cortexm_init.o
                                      0x5a646 (size before relaxing)
 .debug_str     0x000000000005d558       0x64 /home/ch/RIOT/tests/leds/bin/lora-e5-dev/cortexm_common/panic.o
                                      0x5a263 (size before relaxing)
 .debug_str     0x000000000005d5bc      0x1a8 /home/ch/RIOT/tests/leds/bin/lora-e5-dev/cortexm_common/thread_arch.o
                                      0x5a4e2 (size before relaxing)
 .debug_str     0x000000000005d764      0x428 /home/ch/RIOT/tests/leds/bin/lora-e5-dev/cortexm_common/vectors_cortexm.o
                                      0x5b9a4 (size before relaxing)
 .debug_str     0x000000000005db8c      0x215 /home/ch/RIOT/tests/leds/bin/lora-e5-dev/cpu/cpu_common.o
                                      0x5bd03 (size before relaxing)
 .debug_str     0x000000000005dda1     0x10fd /home/ch/RIOT/tests/leds/bin/lora-e5-dev/cpu/cpu_init.o
                                      0x5cca3 (size before relaxing)
 .debug_str     0x000000000005ee9e      0x952 /home/ch/RIOT/tests/leds/bin/lora-e5-dev/newlib_syscalls_default/syscalls.o
                                      0x5d3eb (size before relaxing)
 .debug_str     0x000000000005f7f0       0x9e /home/ch/RIOT/tests/leds/bin/lora-e5-dev/periph_common/init.o
                                      0x5b1d9 (size before relaxing)
 .debug_str     0x000000000005f88e      0x1f2 /home/ch/RIOT/tests/leds/bin/lora-e5-dev/periph/gpio_all.o
                                      0x5be6a (size before relaxing)
 .debug_str     0x000000000005fa80      0x1b2 /home/ch/RIOT/tests/leds/bin/lora-e5-dev/periph/pm.o
                                      0x5b5bc (size before relaxing)
 .debug_str     0x000000000005fc32      0x29b /home/ch/RIOT/tests/leds/bin/lora-e5-dev/periph/uart.o
                                      0x5c6fa (size before relaxing)
 .debug_str     0x000000000005fecd      0x41a /home/ch/RIOT/tests/leds/bin/lora-e5-dev/pm_layered/pm.o
                                      0x5b8b5 (size before relaxing)
 .debug_str     0x00000000000602e7      0x1ee /home/ch/RIOT/tests/leds/bin/lora-e5-dev/stdio_uart/stdio_uart.o
                                      0x5d3cd (size before relaxing)
 .debug_str     0x00000000000604d5      0x181 /home/ch/RIOT/tests/leds/bin/lora-e5-dev/stm32_clk/stmclk_common.o
                                      0x5bc32 (size before relaxing)
 .debug_str     0x0000000000060656      0x7c8 /home/ch/RIOT/tests/leds/bin/lora-e5-dev/stm32_clk/stmclk_l4wx.o
                                      0x5c315 (size before relaxing)
 .debug_str     0x0000000000060e1e       0xbd /home/ch/RIOT/tests/leds/bin/lora-e5-dev/stm32_vectors/STM32WLE5xx.o
                                      0x54b0a (size before relaxing)
 .debug_str     0x0000000000060edb      0x12b /usr/lib/gcc/arm-none-eabi/9.2.1/../../../arm-none-eabi/lib/thumb/v7e-m/nofp/libc_nano.a(lib_a-impure.o)
                                        0x5dc (size before relaxing)
 .debug_str     0x0000000000061006       0xdb /usr/lib/gcc/arm-none-eabi/9.2.1/../../../arm-none-eabi/lib/thumb/v7e-m/nofp/libc_nano.a(lib_a-init.o)
                                        0x223 (size before relaxing)
 .debug_str     0x00000000000610e1       0xb3 /usr/lib/gcc/arm-none-eabi/9.2.1/../../../arm-none-eabi/lib/thumb/v7e-m/nofp/libc_nano.a(lib_a-memcpy.o)
 .debug_str     0x0000000000061194      0x314 /usr/lib/gcc/arm-none-eabi/9.2.1/../../../arm-none-eabi/lib/thumb/v7e-m/nofp/libc_nano.a(lib_a-memset.o)
                                        0x909 (size before relaxing)
 .debug_str     0x00000000000614a8      0x149 /usr/lib/gcc/arm-none-eabi/9.2.1/../../../arm-none-eabi/lib/thumb/v7e-m/nofp/libc_nano.a(lib_a-nano-freer.o)
                                        0x70c (size before relaxing)
 .debug_str     0x00000000000615f1       0x34 /usr/lib/gcc/arm-none-eabi/9.2.1/../../../arm-none-eabi/lib/thumb/v7e-m/nofp/libc_nano.a(lib_a-nano-mallocr.o)
                                        0x723 (size before relaxing)
 .debug_str     0x0000000000061625      0x1ae /usr/lib/gcc/arm-none-eabi/9.2.1/../../../arm-none-eabi/lib/thumb/v7e-m/nofp/libc_nano.a(lib_a-printf.o)
                                        0x756 (size before relaxing)
 .debug_str     0x00000000000617d3       0x69 /usr/lib/gcc/arm-none-eabi/9.2.1/../../../arm-none-eabi/lib/thumb/v7e-m/nofp/libc_nano.a(lib_a-puts.o)
                                        0x75f (size before relaxing)
 .debug_str     0x000000000006183c       0x43 /usr/lib/gcc/arm-none-eabi/9.2.1/../../../arm-none-eabi/lib/thumb/v7e-m/nofp/libc_nano.a(lib_a-wbuf.o)
                                        0x765 (size before relaxing)
 .debug_str     0x000000000006187f       0x40 /usr/lib/gcc/arm-none-eabi/9.2.1/../../../arm-none-eabi/lib/thumb/v7e-m/nofp/libc_nano.a(lib_a-wsetup.o)
                                        0x760 (size before relaxing)
 .debug_str     0x00000000000618bf       0x63 /usr/lib/gcc/arm-none-eabi/9.2.1/../../../arm-none-eabi/lib/thumb/v7e-m/nofp/libc_nano.a(lib_a-fflush.o)
                                        0x78e (size before relaxing)
 .debug_str     0x0000000000061922      0x16b /usr/lib/gcc/arm-none-eabi/9.2.1/../../../arm-none-eabi/lib/thumb/v7e-m/nofp/libc_nano.a(lib_a-findfp.o)
                                        0x89e (size before relaxing)
 .debug_str     0x0000000000061a8d       0x41 /usr/lib/gcc/arm-none-eabi/9.2.1/../../../arm-none-eabi/lib/thumb/v7e-m/nofp/libc_nano.a(lib_a-fwalk.o)
                                        0x752 (size before relaxing)
 .debug_str     0x0000000000061ace       0x59 /usr/lib/gcc/arm-none-eabi/9.2.1/../../../arm-none-eabi/lib/thumb/v7e-m/nofp/libc_nano.a(lib_a-makebuf.o)
                                        0x8d3 (size before relaxing)
 .debug_str     0x0000000000061b27       0x4c /usr/lib/gcc/arm-none-eabi/9.2.1/../../../arm-none-eabi/lib/thumb/v7e-m/nofp/libc_nano.a(lib_a-mlock.o)
                                        0x608 (size before relaxing)
 .debug_str     0x0000000000061b73       0x35 /usr/lib/gcc/arm-none-eabi/9.2.1/../../../arm-none-eabi/lib/thumb/v7e-m/nofp/libc_nano.a(lib_a-nano-reallocr.o)
                                        0x709 (size before relaxing)
 .debug_str     0x0000000000061ba8      0x189 /usr/lib/gcc/arm-none-eabi/9.2.1/../../../arm-none-eabi/lib/thumb/v7e-m/nofp/libc_nano.a(lib_a-nano-vfprintf.o)
                                        0xc28 (size before relaxing)
 .debug_str     0x0000000000061d31       0x94 /usr/lib/gcc/arm-none-eabi/9.2.1/../../../arm-none-eabi/lib/thumb/v7e-m/nofp/libc_nano.a(lib_a-nano-vfprintf_i.o)
                                        0xba6 (size before relaxing)
 .debug_str     0x0000000000061dc5       0x66 /usr/lib/gcc/arm-none-eabi/9.2.1/../../../arm-none-eabi/lib/thumb/v7e-m/nofp/libc_nano.a(lib_a-stdio.o)
                                        0x7a6 (size before relaxing)
 .debug_str     0x0000000000061e2b       0x5a /usr/lib/gcc/arm-none-eabi/9.2.1/../../../arm-none-eabi/lib/thumb/v7e-m/nofp/libc_nano.a(lib_a-fvwrite.o)
                                        0x7df (size before relaxing)
 .debug_str     0x0000000000061e85       0x3c /usr/lib/gcc/arm-none-eabi/9.2.1/../../../arm-none-eabi/lib/thumb/v7e-m/nofp/libc_nano.a(lib_a-memchr.o)
                                         0xac (size before relaxing)
 .debug_str     0x0000000000061ec1       0x66 /usr/lib/gcc/arm-none-eabi/9.2.1/../../../arm-none-eabi/lib/thumb/v7e-m/nofp/libc_nano.a(lib_a-memmove.o)
                                        0x928 (size before relaxing)
 .debug_str     0x0000000000061f27        0xf /usr/lib/gcc/arm-none-eabi/9.2.1/../../../arm-none-eabi/lib/thumb/v7e-m/nofp/libc_nano.a(lib_a-nano-msizer.o)
                                        0x6e7 (size before relaxing)

.comment        0x0000000000000000       0xa7
 .comment       0x0000000000000000       0x59 /home/ch/RIOT/tests/leds/bin/lora-e5-dev/application_tests_leds/main.o
                                         0x5a (size before relaxing)
 .comment       0x0000000000000059       0x5a /home/ch/RIOT/tests/leds/bin/lora-e5-dev/auto_init/auto_init.o
 .comment       0x0000000000000059       0x5a /home/ch/RIOT/tests/leds/bin/lora-e5-dev/board/board.o
 .comment       0x0000000000000059       0x5a /home/ch/RIOT/tests/leds/bin/lora-e5-dev/core/init.o
 .comment       0x0000000000000059       0x5a /home/ch/RIOT/tests/leds/bin/lora-e5-dev/core/panic.o
 .comment       0x0000000000000059       0x5a /home/ch/RIOT/tests/leds/bin/lora-e5-dev/core/sched.o
 .comment       0x0000000000000059       0x5a /home/ch/RIOT/tests/leds/bin/lora-e5-dev/core/thread.o
 .comment       0x0000000000000059       0x5a /home/ch/RIOT/tests/leds/bin/lora-e5-dev/cortexm_common/cortexm_init.o
 .comment       0x0000000000000059       0x5a /home/ch/RIOT/tests/leds/bin/lora-e5-dev/cortexm_common/panic.o
 .comment       0x0000000000000059       0x5a /home/ch/RIOT/tests/leds/bin/lora-e5-dev/cortexm_common/thread_arch.o
 .comment       0x0000000000000059       0x5a /home/ch/RIOT/tests/leds/bin/lora-e5-dev/cortexm_common/vectors_cortexm.o
 .comment       0x0000000000000059       0x5a /home/ch/RIOT/tests/leds/bin/lora-e5-dev/cpu/cpu_common.o
 .comment       0x0000000000000059       0x5a /home/ch/RIOT/tests/leds/bin/lora-e5-dev/cpu/cpu_init.o
 .comment       0x0000000000000059       0x5a /home/ch/RIOT/tests/leds/bin/lora-e5-dev/newlib_syscalls_default/syscalls.o
 .comment       0x0000000000000059       0x5a /home/ch/RIOT/tests/leds/bin/lora-e5-dev/periph_common/init.o
 .comment       0x0000000000000059       0x5a /home/ch/RIOT/tests/leds/bin/lora-e5-dev/periph/gpio_all.o
 .comment       0x0000000000000059       0x5a /home/ch/RIOT/tests/leds/bin/lora-e5-dev/periph/pm.o
 .comment       0x0000000000000059       0x5a /home/ch/RIOT/tests/leds/bin/lora-e5-dev/periph/uart.o
 .comment       0x0000000000000059       0x5a /home/ch/RIOT/tests/leds/bin/lora-e5-dev/pm_layered/pm.o
 .comment       0x0000000000000059       0x5a /home/ch/RIOT/tests/leds/bin/lora-e5-dev/stdio_uart/stdio_uart.o
 .comment       0x0000000000000059       0x5a /home/ch/RIOT/tests/leds/bin/lora-e5-dev/stm32_clk/stmclk_common.o
 .comment       0x0000000000000059       0x5a /home/ch/RIOT/tests/leds/bin/lora-e5-dev/stm32_clk/stmclk_l4wx.o
 .comment       0x0000000000000059       0x5a /home/ch/RIOT/tests/leds/bin/lora-e5-dev/stm32_vectors/STM32WLE5xx.o
 .comment       0x0000000000000059       0x4e /usr/lib/gcc/arm-none-eabi/9.2.1/../../../arm-none-eabi/lib/thumb/v7e-m/nofp/libc_nano.a(lib_a-impure.o)
                                         0x4f (size before relaxing)
 .comment       0x00000000000000a7       0x4f /usr/lib/gcc/arm-none-eabi/9.2.1/../../../arm-none-eabi/lib/thumb/v7e-m/nofp/libc_nano.a(lib_a-init.o)
 .comment       0x00000000000000a7       0x4f /usr/lib/gcc/arm-none-eabi/9.2.1/../../../arm-none-eabi/lib/thumb/v7e-m/nofp/libc_nano.a(lib_a-memset.o)
 .comment       0x00000000000000a7       0x4f /usr/lib/gcc/arm-none-eabi/9.2.1/../../../arm-none-eabi/lib/thumb/v7e-m/nofp/libc_nano.a(lib_a-nano-freer.o)
 .comment       0x00000000000000a7       0x4f /usr/lib/gcc/arm-none-eabi/9.2.1/../../../arm-none-eabi/lib/thumb/v7e-m/nofp/libc_nano.a(lib_a-nano-mallocr.o)
 .comment       0x00000000000000a7       0x4f /usr/lib/gcc/arm-none-eabi/9.2.1/../../../arm-none-eabi/lib/thumb/v7e-m/nofp/libc_nano.a(lib_a-printf.o)
 .comment       0x00000000000000a7       0x4f /usr/lib/gcc/arm-none-eabi/9.2.1/../../../arm-none-eabi/lib/thumb/v7e-m/nofp/libc_nano.a(lib_a-puts.o)
 .comment       0x00000000000000a7       0x4f /usr/lib/gcc/arm-none-eabi/9.2.1/../../../arm-none-eabi/lib/thumb/v7e-m/nofp/libc_nano.a(lib_a-wbuf.o)
 .comment       0x00000000000000a7       0x4f /usr/lib/gcc/arm-none-eabi/9.2.1/../../../arm-none-eabi/lib/thumb/v7e-m/nofp/libc_nano.a(lib_a-wsetup.o)
 .comment       0x00000000000000a7       0x4f /usr/lib/gcc/arm-none-eabi/9.2.1/../../../arm-none-eabi/lib/thumb/v7e-m/nofp/libc_nano.a(lib_a-fflush.o)
 .comment       0x00000000000000a7       0x4f /usr/lib/gcc/arm-none-eabi/9.2.1/../../../arm-none-eabi/lib/thumb/v7e-m/nofp/libc_nano.a(lib_a-findfp.o)
 .comment       0x00000000000000a7       0x4f /usr/lib/gcc/arm-none-eabi/9.2.1/../../../arm-none-eabi/lib/thumb/v7e-m/nofp/libc_nano.a(lib_a-fwalk.o)
 .comment       0x00000000000000a7       0x4f /usr/lib/gcc/arm-none-eabi/9.2.1/../../../arm-none-eabi/lib/thumb/v7e-m/nofp/libc_nano.a(lib_a-makebuf.o)
 .comment       0x00000000000000a7       0x4f /usr/lib/gcc/arm-none-eabi/9.2.1/../../../arm-none-eabi/lib/thumb/v7e-m/nofp/libc_nano.a(lib_a-mlock.o)
 .comment       0x00000000000000a7       0x4f /usr/lib/gcc/arm-none-eabi/9.2.1/../../../arm-none-eabi/lib/thumb/v7e-m/nofp/libc_nano.a(lib_a-nano-reallocr.o)
 .comment       0x00000000000000a7       0x4f /usr/lib/gcc/arm-none-eabi/9.2.1/../../../arm-none-eabi/lib/thumb/v7e-m/nofp/libc_nano.a(lib_a-nano-vfprintf.o)
 .comment       0x00000000000000a7       0x4f /usr/lib/gcc/arm-none-eabi/9.2.1/../../../arm-none-eabi/lib/thumb/v7e-m/nofp/libc_nano.a(lib_a-nano-vfprintf_i.o)
 .comment       0x00000000000000a7       0x4f /usr/lib/gcc/arm-none-eabi/9.2.1/../../../arm-none-eabi/lib/thumb/v7e-m/nofp/libc_nano.a(lib_a-stdio.o)
 .comment       0x00000000000000a7       0x4f /usr/lib/gcc/arm-none-eabi/9.2.1/../../../arm-none-eabi/lib/thumb/v7e-m/nofp/libc_nano.a(lib_a-fvwrite.o)
 .comment       0x00000000000000a7       0x4f /usr/lib/gcc/arm-none-eabi/9.2.1/../../../arm-none-eabi/lib/thumb/v7e-m/nofp/libc_nano.a(lib_a-memmove.o)
 .comment       0x00000000000000a7       0x4f /usr/lib/gcc/arm-none-eabi/9.2.1/../../../arm-none-eabi/lib/thumb/v7e-m/nofp/libc_nano.a(lib_a-nano-msizer.o)

.ARM.attributes
                0x0000000000000000       0x2c
 .ARM.attributes
                0x0000000000000000       0x2e /home/ch/RIOT/tests/leds/bin/lora-e5-dev/application_tests_leds/main.o
 .ARM.attributes
                0x000000000000002e       0x2e /home/ch/RIOT/tests/leds/bin/lora-e5-dev/auto_init/auto_init.o
 .ARM.attributes
                0x000000000000005c       0x2e /home/ch/RIOT/tests/leds/bin/lora-e5-dev/board/board.o
 .ARM.attributes
                0x000000000000008a       0x2e /home/ch/RIOT/tests/leds/bin/lora-e5-dev/core/init.o
 .ARM.attributes
                0x00000000000000b8       0x2e /home/ch/RIOT/tests/leds/bin/lora-e5-dev/core/panic.o
 .ARM.attributes
                0x00000000000000e6       0x2e /home/ch/RIOT/tests/leds/bin/lora-e5-dev/core/sched.o
 .ARM.attributes
                0x0000000000000114       0x2e /home/ch/RIOT/tests/leds/bin/lora-e5-dev/core/thread.o
 .ARM.attributes
                0x0000000000000142       0x2e /home/ch/RIOT/tests/leds/bin/lora-e5-dev/cortexm_common/cortexm_init.o
 .ARM.attributes
                0x0000000000000170       0x2e /home/ch/RIOT/tests/leds/bin/lora-e5-dev/cortexm_common/panic.o
 .ARM.attributes
                0x000000000000019e       0x2e /home/ch/RIOT/tests/leds/bin/lora-e5-dev/cortexm_common/thread_arch.o
 .ARM.attributes
                0x00000000000001cc       0x2e /home/ch/RIOT/tests/leds/bin/lora-e5-dev/cortexm_common/vectors_cortexm.o
 .ARM.attributes
                0x00000000000001fa       0x2e /home/ch/RIOT/tests/leds/bin/lora-e5-dev/cpu/cpu_common.o
 .ARM.attributes
                0x0000000000000228       0x2e /home/ch/RIOT/tests/leds/bin/lora-e5-dev/cpu/cpu_init.o
 .ARM.attributes
                0x0000000000000256       0x2e /home/ch/RIOT/tests/leds/bin/lora-e5-dev/newlib_syscalls_default/syscalls.o
 .ARM.attributes
                0x0000000000000284       0x2e /home/ch/RIOT/tests/leds/bin/lora-e5-dev/periph_common/init.o
 .ARM.attributes
                0x00000000000002b2       0x2e /home/ch/RIOT/tests/leds/bin/lora-e5-dev/periph/gpio_all.o
 .ARM.attributes
                0x00000000000002e0       0x2e /home/ch/RIOT/tests/leds/bin/lora-e5-dev/periph/pm.o
 .ARM.attributes
                0x000000000000030e       0x2e /home/ch/RIOT/tests/leds/bin/lora-e5-dev/periph/uart.o
 .ARM.attributes
                0x000000000000033c       0x2e /home/ch/RIOT/tests/leds/bin/lora-e5-dev/pm_layered/pm.o
 .ARM.attributes
                0x000000000000036a       0x2e /home/ch/RIOT/tests/leds/bin/lora-e5-dev/stdio_uart/stdio_uart.o
 .ARM.attributes
                0x0000000000000398       0x2e /home/ch/RIOT/tests/leds/bin/lora-e5-dev/stm32_clk/stmclk_common.o
 .ARM.attributes
                0x00000000000003c6       0x2e /home/ch/RIOT/tests/leds/bin/lora-e5-dev/stm32_clk/stmclk_l4wx.o
 .ARM.attributes
                0x00000000000003f4       0x2e /home/ch/RIOT/tests/leds/bin/lora-e5-dev/stm32_vectors/STM32WLE5xx.o
 .ARM.attributes
                0x0000000000000422       0x2e /usr/lib/gcc/arm-none-eabi/9.2.1/../../../arm-none-eabi/lib/thumb/v7e-m/nofp/libc_nano.a(lib_a-impure.o)
 .ARM.attributes
                0x0000000000000450       0x2e /usr/lib/gcc/arm-none-eabi/9.2.1/../../../arm-none-eabi/lib/thumb/v7e-m/nofp/libc_nano.a(lib_a-init.o)
 .ARM.attributes
                0x000000000000047e       0x1c /usr/lib/gcc/arm-none-eabi/9.2.1/../../../arm-none-eabi/lib/thumb/v7e-m/nofp/libc_nano.a(lib_a-memcpy.o)
 .ARM.attributes
                0x000000000000049a       0x2e /usr/lib/gcc/arm-none-eabi/9.2.1/../../../arm-none-eabi/lib/thumb/v7e-m/nofp/libc_nano.a(lib_a-memset.o)
 .ARM.attributes
                0x00000000000004c8       0x2e /usr/lib/gcc/arm-none-eabi/9.2.1/../../../arm-none-eabi/lib/thumb/v7e-m/nofp/libc_nano.a(lib_a-nano-freer.o)
 .ARM.attributes
                0x00000000000004f6       0x2e /usr/lib/gcc/arm-none-eabi/9.2.1/../../../arm-none-eabi/lib/thumb/v7e-m/nofp/libc_nano.a(lib_a-nano-mallocr.o)
 .ARM.attributes
                0x0000000000000524       0x2e /usr/lib/gcc/arm-none-eabi/9.2.1/../../../arm-none-eabi/lib/thumb/v7e-m/nofp/libc_nano.a(lib_a-printf.o)
 .ARM.attributes
                0x0000000000000552       0x2e /usr/lib/gcc/arm-none-eabi/9.2.1/../../../arm-none-eabi/lib/thumb/v7e-m/nofp/libc_nano.a(lib_a-puts.o)
 .ARM.attributes
                0x0000000000000580       0x2e /usr/lib/gcc/arm-none-eabi/9.2.1/../../../arm-none-eabi/lib/thumb/v7e-m/nofp/libc_nano.a(lib_a-wbuf.o)
 .ARM.attributes
                0x00000000000005ae       0x2e /usr/lib/gcc/arm-none-eabi/9.2.1/../../../arm-none-eabi/lib/thumb/v7e-m/nofp/libc_nano.a(lib_a-wsetup.o)
 .ARM.attributes
                0x00000000000005dc       0x2e /usr/lib/gcc/arm-none-eabi/9.2.1/../../../arm-none-eabi/lib/thumb/v7e-m/nofp/libc_nano.a(lib_a-fflush.o)
 .ARM.attributes
                0x000000000000060a       0x2e /usr/lib/gcc/arm-none-eabi/9.2.1/../../../arm-none-eabi/lib/thumb/v7e-m/nofp/libc_nano.a(lib_a-findfp.o)
 .ARM.attributes
                0x0000000000000638       0x2e /usr/lib/gcc/arm-none-eabi/9.2.1/../../../arm-none-eabi/lib/thumb/v7e-m/nofp/libc_nano.a(lib_a-fwalk.o)
 .ARM.attributes
                0x0000000000000666       0x2e /usr/lib/gcc/arm-none-eabi/9.2.1/../../../arm-none-eabi/lib/thumb/v7e-m/nofp/libc_nano.a(lib_a-makebuf.o)
 .ARM.attributes
                0x0000000000000694       0x2e /usr/lib/gcc/arm-none-eabi/9.2.1/../../../arm-none-eabi/lib/thumb/v7e-m/nofp/libc_nano.a(lib_a-mlock.o)
 .ARM.attributes
                0x00000000000006c2       0x2e /usr/lib/gcc/arm-none-eabi/9.2.1/../../../arm-none-eabi/lib/thumb/v7e-m/nofp/libc_nano.a(lib_a-nano-reallocr.o)
 .ARM.attributes
                0x00000000000006f0       0x2e /usr/lib/gcc/arm-none-eabi/9.2.1/../../../arm-none-eabi/lib/thumb/v7e-m/nofp/libc_nano.a(lib_a-nano-vfprintf.o)
 .ARM.attributes
                0x000000000000071e       0x2e /usr/lib/gcc/arm-none-eabi/9.2.1/../../../arm-none-eabi/lib/thumb/v7e-m/nofp/libc_nano.a(lib_a-nano-vfprintf_i.o)
 .ARM.attributes
                0x000000000000074c       0x2e /usr/lib/gcc/arm-none-eabi/9.2.1/../../../arm-none-eabi/lib/thumb/v7e-m/nofp/libc_nano.a(lib_a-stdio.o)
 .ARM.attributes
                0x000000000000077a       0x2e /usr/lib/gcc/arm-none-eabi/9.2.1/../../../arm-none-eabi/lib/thumb/v7e-m/nofp/libc_nano.a(lib_a-fvwrite.o)
 .ARM.attributes
                0x00000000000007a8       0x1c /usr/lib/gcc/arm-none-eabi/9.2.1/../../../arm-none-eabi/lib/thumb/v7e-m/nofp/libc_nano.a(lib_a-memchr.o)
 .ARM.attributes
                0x00000000000007c4       0x2e /usr/lib/gcc/arm-none-eabi/9.2.1/../../../arm-none-eabi/lib/thumb/v7e-m/nofp/libc_nano.a(lib_a-memmove.o)
 .ARM.attributes
                0x00000000000007f2       0x2e /usr/lib/gcc/arm-none-eabi/9.2.1/../../../arm-none-eabi/lib/thumb/v7e-m/nofp/libc_nano.a(lib_a-nano-msizer.o)

.debug_frame    0x0000000000000000     0x138c
 .debug_frame   0x0000000000000000       0x48 /home/ch/RIOT/tests/leds/bin/lora-e5-dev/application_tests_leds/main.o
 .debug_frame   0x0000000000000048       0x20 /home/ch/RIOT/tests/leds/bin/lora-e5-dev/auto_init/auto_init.o
 .debug_frame   0x0000000000000068       0x3c /home/ch/RIOT/tests/leds/bin/lora-e5-dev/board/board.o
 .debug_frame   0x00000000000000a4       0x50 /home/ch/RIOT/tests/leds/bin/lora-e5-dev/core/init.o
 .debug_frame   0x00000000000000f4       0x58 /home/ch/RIOT/tests/leds/bin/lora-e5-dev/core/panic.o
 .debug_frame   0x000000000000014c       0x90 /home/ch/RIOT/tests/leds/bin/lora-e5-dev/core/sched.o
 .debug_frame   0x00000000000001dc      0x124 /home/ch/RIOT/tests/leds/bin/lora-e5-dev/core/thread.o
 .debug_frame   0x0000000000000300       0x48 /home/ch/RIOT/tests/leds/bin/lora-e5-dev/cortexm_common/cortexm_init.o
 .debug_frame   0x0000000000000348       0x38 /home/ch/RIOT/tests/leds/bin/lora-e5-dev/cortexm_common/panic.o
 .debug_frame   0x0000000000000380       0xd4 /home/ch/RIOT/tests/leds/bin/lora-e5-dev/cortexm_common/thread_arch.o
 .debug_frame   0x0000000000000454      0x128 /home/ch/RIOT/tests/leds/bin/lora-e5-dev/cortexm_common/vectors_cortexm.o
 .debug_frame   0x000000000000057c       0x60 /home/ch/RIOT/tests/leds/bin/lora-e5-dev/cpu/cpu_common.o
 .debug_frame   0x00000000000005dc       0x6c /home/ch/RIOT/tests/leds/bin/lora-e5-dev/cpu/cpu_init.o
 .debug_frame   0x0000000000000648      0x19c /home/ch/RIOT/tests/leds/bin/lora-e5-dev/newlib_syscalls_default/syscalls.o
 .debug_frame   0x00000000000007e4       0x30 /home/ch/RIOT/tests/leds/bin/lora-e5-dev/periph_common/init.o
 .debug_frame   0x0000000000000814       0xfc /home/ch/RIOT/tests/leds/bin/lora-e5-dev/periph/gpio_all.o
 .debug_frame   0x0000000000000910       0x60 /home/ch/RIOT/tests/leds/bin/lora-e5-dev/periph/pm.o
 .debug_frame   0x0000000000000970       0xf8 /home/ch/RIOT/tests/leds/bin/lora-e5-dev/periph/uart.o
 .debug_frame   0x0000000000000a68       0x90 /home/ch/RIOT/tests/leds/bin/lora-e5-dev/pm_layered/pm.o
 .debug_frame   0x0000000000000af8       0x58 /home/ch/RIOT/tests/leds/bin/lora-e5-dev/stdio_uart/stdio_uart.o
 .debug_frame   0x0000000000000b50       0xa8 /home/ch/RIOT/tests/leds/bin/lora-e5-dev/stm32_clk/stmclk_common.o
 .debug_frame   0x0000000000000bf8       0x3c /home/ch/RIOT/tests/leds/bin/lora-e5-dev/stm32_clk/stmclk_l4wx.o
 .debug_frame   0x0000000000000c34       0x20 /home/ch/RIOT/tests/leds/bin/lora-e5-dev/stm32_vectors/STM32WLE5xx.o
 .debug_frame   0x0000000000000c54       0x2c /usr/lib/gcc/arm-none-eabi/9.2.1/../../../arm-none-eabi/lib/thumb/v7e-m/nofp/libc_nano.a(lib_a-init.o)
 .debug_frame   0x0000000000000c80       0x38 /usr/lib/gcc/arm-none-eabi/9.2.1/../../../arm-none-eabi/lib/thumb/v7e-m/nofp/libc_nano.a(lib_a-memset.o)
 .debug_frame   0x0000000000000cb8       0x58 /usr/lib/gcc/arm-none-eabi/9.2.1/../../../arm-none-eabi/lib/thumb/v7e-m/nofp/libc_nano.a(lib_a-nano-freer.o)
 .debug_frame   0x0000000000000d10       0x30 /usr/lib/gcc/arm-none-eabi/9.2.1/../../../arm-none-eabi/lib/thumb/v7e-m/nofp/libc_nano.a(lib_a-nano-mallocr.o)
 .debug_frame   0x0000000000000d40       0x7c /usr/lib/gcc/arm-none-eabi/9.2.1/../../../arm-none-eabi/lib/thumb/v7e-m/nofp/libc_nano.a(lib_a-printf.o)
 .debug_frame   0x0000000000000dbc       0x40 /usr/lib/gcc/arm-none-eabi/9.2.1/../../../arm-none-eabi/lib/thumb/v7e-m/nofp/libc_nano.a(lib_a-puts.o)
 .debug_frame   0x0000000000000dfc       0x40 /usr/lib/gcc/arm-none-eabi/9.2.1/../../../arm-none-eabi/lib/thumb/v7e-m/nofp/libc_nano.a(lib_a-wbuf.o)
 .debug_frame   0x0000000000000e3c       0x2c /usr/lib/gcc/arm-none-eabi/9.2.1/../../../arm-none-eabi/lib/thumb/v7e-m/nofp/libc_nano.a(lib_a-wsetup.o)
 .debug_frame   0x0000000000000e68       0x70 /usr/lib/gcc/arm-none-eabi/9.2.1/../../../arm-none-eabi/lib/thumb/v7e-m/nofp/libc_nano.a(lib_a-fflush.o)
 .debug_frame   0x0000000000000ed8      0x120 /usr/lib/gcc/arm-none-eabi/9.2.1/../../../arm-none-eabi/lib/thumb/v7e-m/nofp/libc_nano.a(lib_a-findfp.o)
 .debug_frame   0x0000000000000ff8       0x54 /usr/lib/gcc/arm-none-eabi/9.2.1/../../../arm-none-eabi/lib/thumb/v7e-m/nofp/libc_nano.a(lib_a-fwalk.o)
 .debug_frame   0x000000000000104c       0x64 /usr/lib/gcc/arm-none-eabi/9.2.1/../../../arm-none-eabi/lib/thumb/v7e-m/nofp/libc_nano.a(lib_a-makebuf.o)
 .debug_frame   0x00000000000010b0       0x30 /usr/lib/gcc/arm-none-eabi/9.2.1/../../../arm-none-eabi/lib/thumb/v7e-m/nofp/libc_nano.a(lib_a-mlock.o)
 .debug_frame   0x00000000000010e0       0x38 /usr/lib/gcc/arm-none-eabi/9.2.1/../../../arm-none-eabi/lib/thumb/v7e-m/nofp/libc_nano.a(lib_a-nano-reallocr.o)
 .debug_frame   0x0000000000001118       0xbc /usr/lib/gcc/arm-none-eabi/9.2.1/../../../arm-none-eabi/lib/thumb/v7e-m/nofp/libc_nano.a(lib_a-nano-vfprintf.o)
 .debug_frame   0x00000000000011d4       0x68 /usr/lib/gcc/arm-none-eabi/9.2.1/../../../arm-none-eabi/lib/thumb/v7e-m/nofp/libc_nano.a(lib_a-nano-vfprintf_i.o)
 .debug_frame   0x000000000000123c       0x8c /usr/lib/gcc/arm-none-eabi/9.2.1/../../../arm-none-eabi/lib/thumb/v7e-m/nofp/libc_nano.a(lib_a-stdio.o)
 .debug_frame   0x00000000000012c8       0x64 /usr/lib/gcc/arm-none-eabi/9.2.1/../../../arm-none-eabi/lib/thumb/v7e-m/nofp/libc_nano.a(lib_a-fvwrite.o)
 .debug_frame   0x000000000000132c       0x40 /usr/lib/gcc/arm-none-eabi/9.2.1/../../../arm-none-eabi/lib/thumb/v7e-m/nofp/libc_nano.a(lib_a-memmove.o)
 .debug_frame   0x000000000000136c       0x20 /usr/lib/gcc/arm-none-eabi/9.2.1/../../../arm-none-eabi/lib/thumb/v7e-m/nofp/libc_nano.a(lib_a-nano-msizer.o)
