Archive member included to satisfy reference by file (symbol)

/usr/lib/gcc/arm-none-eabi/9.2.1/thumb/v7e-m/nofp/libgcc.a(_arm_muldf3.o)
                              /home/ch/RIOT/tests/capteur/bin/lora-e5-dev/application_tests_capteur/main.o (__aeabi_dmul)
/usr/lib/gcc/arm-none-eabi/9.2.1/thumb/v7e-m/nofp/libgcc.a(_arm_mulsf3.o)
                              /home/ch/RIOT/tests/capteur/bin/lora-e5-dev/application_tests_capteur/main.o (__aeabi_fmul)
/usr/lib/gcc/arm-none-eabi/9.2.1/thumb/v7e-m/nofp/libgcc.a(_arm_addsubdf3.o)
                              /home/ch/RIOT/tests/capteur/bin/lora-e5-dev/application_tests_capteur/main.o (__aeabi_dsub)
/usr/lib/gcc/arm-none-eabi/9.2.1/thumb/v7e-m/nofp/libgcc.a(_arm_muldivdf3.o)
                              /home/ch/RIOT/tests/capteur/bin/lora-e5-dev/application_tests_capteur/main.o (__aeabi_ddiv)
/usr/lib/gcc/arm-none-eabi/9.2.1/thumb/v7e-m/nofp/libgcc.a(_arm_truncdfsf2.o)
                              /home/ch/RIOT/tests/capteur/bin/lora-e5-dev/application_tests_capteur/main.o (__aeabi_d2f)
/usr/lib/gcc/arm-none-eabi/9.2.1/thumb/v7e-m/nofp/libgcc.a(_arm_fixsfsi.o)
                              /home/ch/RIOT/tests/capteur/bin/lora-e5-dev/application_tests_capteur/main.o (__aeabi_f2iz)
/usr/lib/gcc/arm-none-eabi/9.2.1/../../../arm-none-eabi/lib/thumb/v7e-m/nofp/libc_nano.a(lib_a-errno.o)
                              /home/ch/RIOT/tests/capteur/bin/lora-e5-dev/newlib_syscalls_default/syscalls.o (__errno)
/usr/lib/gcc/arm-none-eabi/9.2.1/../../../arm-none-eabi/lib/thumb/v7e-m/nofp/libc_nano.a(lib_a-impure.o)
                              /usr/lib/gcc/arm-none-eabi/9.2.1/../../../arm-none-eabi/lib/thumb/v7e-m/nofp/libc_nano.a(lib_a-errno.o) (_impure_ptr)
/usr/lib/gcc/arm-none-eabi/9.2.1/../../../arm-none-eabi/lib/thumb/v7e-m/nofp/libc_nano.a(lib_a-init.o)
                              /home/ch/RIOT/tests/capteur/bin/lora-e5-dev/cortexm_common/vectors_cortexm.o (__libc_init_array)
/usr/lib/gcc/arm-none-eabi/9.2.1/../../../arm-none-eabi/lib/thumb/v7e-m/nofp/libc_nano.a(lib_a-malloc.o)
                              /home/ch/RIOT/tests/capteur/bin/lora-e5-dev/malloc_thread_safe/malloc_wrappers.o (malloc)
/usr/lib/gcc/arm-none-eabi/9.2.1/../../../arm-none-eabi/lib/thumb/v7e-m/nofp/libc_nano.a(lib_a-memcmp.o)
                              /home/ch/RIOT/tests/capteur/bin/lora-e5-dev/core/atomic_c11.o (memcmp)
/usr/lib/gcc/arm-none-eabi/9.2.1/../../../arm-none-eabi/lib/thumb/v7e-m/nofp/libc_nano.a(lib_a-memcpy.o)
                              /home/ch/RIOT/tests/capteur/bin/lora-e5-dev/core/atomic_c11.o (memcpy)
/usr/lib/gcc/arm-none-eabi/9.2.1/../../../arm-none-eabi/lib/thumb/v7e-m/nofp/libc_nano.a(lib_a-memset.o)
                              /home/ch/RIOT/tests/capteur/bin/lora-e5-dev/malloc_thread_safe/malloc_wrappers.o (memset)
/usr/lib/gcc/arm-none-eabi/9.2.1/../../../arm-none-eabi/lib/thumb/v7e-m/nofp/libc_nano.a(lib_a-mstats.o)
                              /home/ch/RIOT/tests/capteur/bin/lora-e5-dev/newlib_syscalls_default/syscalls.o (mallinfo)
/usr/lib/gcc/arm-none-eabi/9.2.1/../../../arm-none-eabi/lib/thumb/v7e-m/nofp/libc_nano.a(lib_a-nano-freer.o)
                              /usr/lib/gcc/arm-none-eabi/9.2.1/../../../arm-none-eabi/lib/thumb/v7e-m/nofp/libc_nano.a(lib_a-malloc.o) (_free_r)
/usr/lib/gcc/arm-none-eabi/9.2.1/../../../arm-none-eabi/lib/thumb/v7e-m/nofp/libc_nano.a(lib_a-nano-mallinfor.o)
                              /usr/lib/gcc/arm-none-eabi/9.2.1/../../../arm-none-eabi/lib/thumb/v7e-m/nofp/libc_nano.a(lib_a-mstats.o) (_mallinfo_r)
/usr/lib/gcc/arm-none-eabi/9.2.1/../../../arm-none-eabi/lib/thumb/v7e-m/nofp/libc_nano.a(lib_a-nano-mallocr.o)
                              /usr/lib/gcc/arm-none-eabi/9.2.1/../../../arm-none-eabi/lib/thumb/v7e-m/nofp/libc_nano.a(lib_a-malloc.o) (_malloc_r)
/usr/lib/gcc/arm-none-eabi/9.2.1/../../../arm-none-eabi/lib/thumb/v7e-m/nofp/libc_nano.a(lib_a-nano-malloptr.o)
                              /usr/lib/gcc/arm-none-eabi/9.2.1/../../../arm-none-eabi/lib/thumb/v7e-m/nofp/libc_nano.a(lib_a-mstats.o) (_mallopt_r)
/usr/lib/gcc/arm-none-eabi/9.2.1/../../../arm-none-eabi/lib/thumb/v7e-m/nofp/libc_nano.a(lib_a-nano-mallstatsr.o)
                              /usr/lib/gcc/arm-none-eabi/9.2.1/../../../arm-none-eabi/lib/thumb/v7e-m/nofp/libc_nano.a(lib_a-mstats.o) (_malloc_stats_r)
/usr/lib/gcc/arm-none-eabi/9.2.1/../../../arm-none-eabi/lib/thumb/v7e-m/nofp/libc_nano.a(lib_a-nano-vfprintf_float.o)
                              (_printf_float)
/usr/lib/gcc/arm-none-eabi/9.2.1/../../../arm-none-eabi/lib/thumb/v7e-m/nofp/libc_nano.a(lib_a-nano-vfprintf_i.o)
                              /usr/lib/gcc/arm-none-eabi/9.2.1/../../../arm-none-eabi/lib/thumb/v7e-m/nofp/libc_nano.a(lib_a-nano-vfprintf_float.o) (_printf_common)
/usr/lib/gcc/arm-none-eabi/9.2.1/../../../arm-none-eabi/lib/thumb/v7e-m/nofp/libc_nano.a(lib_a-printf.o)
                              /home/ch/RIOT/tests/capteur/bin/lora-e5-dev/application_tests_capteur/main.o (printf)
/usr/lib/gcc/arm-none-eabi/9.2.1/../../../arm-none-eabi/lib/thumb/v7e-m/nofp/libc_nano.a(lib_a-puts.o)
                              /home/ch/RIOT/tests/capteur/bin/lora-e5-dev/cortexm_common/vectors_cortexm.o (puts)
/usr/lib/gcc/arm-none-eabi/9.2.1/../../../arm-none-eabi/lib/thumb/v7e-m/nofp/libc_nano.a(lib_a-realloc.o)
                              /home/ch/RIOT/tests/capteur/bin/lora-e5-dev/malloc_thread_safe/malloc_wrappers.o (realloc)
/usr/lib/gcc/arm-none-eabi/9.2.1/../../../arm-none-eabi/lib/thumb/v7e-m/nofp/libc_nano.a(lib_a-strlen.o)
                              /usr/lib/gcc/arm-none-eabi/9.2.1/../../../arm-none-eabi/lib/thumb/v7e-m/nofp/libc_nano.a(lib_a-nano-vfprintf_float.o) (strlen)
/usr/lib/gcc/arm-none-eabi/9.2.1/../../../arm-none-eabi/lib/thumb/v7e-m/nofp/libc_nano.a(lib_a-time.o)
                              /home/ch/RIOT/tests/capteur/bin/lora-e5-dev/application_tests_capteur/main.o (time)
/usr/lib/gcc/arm-none-eabi/9.2.1/../../../arm-none-eabi/lib/thumb/v7e-m/nofp/libc_nano.a(lib_a-wbuf.o)
                              /usr/lib/gcc/arm-none-eabi/9.2.1/../../../arm-none-eabi/lib/thumb/v7e-m/nofp/libc_nano.a(lib_a-puts.o) (__swbuf_r)
/usr/lib/gcc/arm-none-eabi/9.2.1/../../../arm-none-eabi/lib/thumb/v7e-m/nofp/libc_nano.a(lib_a-wsetup.o)
                              /usr/lib/gcc/arm-none-eabi/9.2.1/../../../arm-none-eabi/lib/thumb/v7e-m/nofp/libc_nano.a(lib_a-puts.o) (__swsetup_r)
/usr/lib/gcc/arm-none-eabi/9.2.1/../../../arm-none-eabi/lib/thumb/v7e-m/nofp/libc_nano.a(lib_a-dtoa.o)
                              /usr/lib/gcc/arm-none-eabi/9.2.1/../../../arm-none-eabi/lib/thumb/v7e-m/nofp/libc_nano.a(lib_a-nano-vfprintf_float.o) (_dtoa_r)
/usr/lib/gcc/arm-none-eabi/9.2.1/../../../arm-none-eabi/lib/thumb/v7e-m/nofp/libc_nano.a(lib_a-fflush.o)
                              /usr/lib/gcc/arm-none-eabi/9.2.1/../../../arm-none-eabi/lib/thumb/v7e-m/nofp/libc_nano.a(lib_a-wbuf.o) (_fflush_r)
/usr/lib/gcc/arm-none-eabi/9.2.1/../../../arm-none-eabi/lib/thumb/v7e-m/nofp/libc_nano.a(lib_a-findfp.o)
                              /usr/lib/gcc/arm-none-eabi/9.2.1/../../../arm-none-eabi/lib/thumb/v7e-m/nofp/libc_nano.a(lib_a-mstats.o) (__sinit)
/usr/lib/gcc/arm-none-eabi/9.2.1/../../../arm-none-eabi/lib/thumb/v7e-m/nofp/libc_nano.a(lib_a-fprintf.o)
                              /usr/lib/gcc/arm-none-eabi/9.2.1/../../../arm-none-eabi/lib/thumb/v7e-m/nofp/libc_nano.a(lib_a-mstats.o) (fiprintf)
/usr/lib/gcc/arm-none-eabi/9.2.1/../../../arm-none-eabi/lib/thumb/v7e-m/nofp/libc_nano.a(lib_a-fwalk.o)
                              /usr/lib/gcc/arm-none-eabi/9.2.1/../../../arm-none-eabi/lib/thumb/v7e-m/nofp/libc_nano.a(lib_a-findfp.o) (_fwalk)
/usr/lib/gcc/arm-none-eabi/9.2.1/../../../arm-none-eabi/lib/thumb/v7e-m/nofp/libc_nano.a(lib_a-localeconv.o)
                              /usr/lib/gcc/arm-none-eabi/9.2.1/../../../arm-none-eabi/lib/thumb/v7e-m/nofp/libc_nano.a(lib_a-nano-vfprintf_float.o) (_localeconv_r)
/usr/lib/gcc/arm-none-eabi/9.2.1/../../../arm-none-eabi/lib/thumb/v7e-m/nofp/libc_nano.a(lib_a-makebuf.o)
                              /usr/lib/gcc/arm-none-eabi/9.2.1/../../../arm-none-eabi/lib/thumb/v7e-m/nofp/libc_nano.a(lib_a-wsetup.o) (__smakebuf_r)
/usr/lib/gcc/arm-none-eabi/9.2.1/../../../arm-none-eabi/lib/thumb/v7e-m/nofp/libc_nano.a(lib_a-memchr.o)
                              /usr/lib/gcc/arm-none-eabi/9.2.1/../../../arm-none-eabi/lib/thumb/v7e-m/nofp/libc_nano.a(lib_a-nano-vfprintf_i.o) (memchr)
/usr/lib/gcc/arm-none-eabi/9.2.1/../../../arm-none-eabi/lib/thumb/v7e-m/nofp/libc_nano.a(lib_a-mlock.o)
                              /usr/lib/gcc/arm-none-eabi/9.2.1/../../../arm-none-eabi/lib/thumb/v7e-m/nofp/libc_nano.a(lib_a-nano-freer.o) (__malloc_lock)
/usr/lib/gcc/arm-none-eabi/9.2.1/../../../arm-none-eabi/lib/thumb/v7e-m/nofp/libc_nano.a(lib_a-mprec.o)
                              /usr/lib/gcc/arm-none-eabi/9.2.1/../../../arm-none-eabi/lib/thumb/v7e-m/nofp/libc_nano.a(lib_a-dtoa.o) (_Balloc)
/usr/lib/gcc/arm-none-eabi/9.2.1/../../../arm-none-eabi/lib/thumb/v7e-m/nofp/libc_nano.a(lib_a-nano-callocr.o)
                              /usr/lib/gcc/arm-none-eabi/9.2.1/../../../arm-none-eabi/lib/thumb/v7e-m/nofp/libc_nano.a(lib_a-mprec.o) (_calloc_r)
/usr/lib/gcc/arm-none-eabi/9.2.1/../../../arm-none-eabi/lib/thumb/v7e-m/nofp/libc_nano.a(lib_a-nano-reallocr.o)
                              /usr/lib/gcc/arm-none-eabi/9.2.1/../../../arm-none-eabi/lib/thumb/v7e-m/nofp/libc_nano.a(lib_a-realloc.o) (_realloc_r)
/usr/lib/gcc/arm-none-eabi/9.2.1/../../../arm-none-eabi/lib/thumb/v7e-m/nofp/libc_nano.a(lib_a-nano-vfprintf.o)
                              /usr/lib/gcc/arm-none-eabi/9.2.1/../../../arm-none-eabi/lib/thumb/v7e-m/nofp/libc_nano.a(lib_a-printf.o) (_vfprintf_r)
/usr/lib/gcc/arm-none-eabi/9.2.1/../../../arm-none-eabi/lib/thumb/v7e-m/nofp/libc_nano.a(lib_a-stdio.o)
                              /usr/lib/gcc/arm-none-eabi/9.2.1/../../../arm-none-eabi/lib/thumb/v7e-m/nofp/libc_nano.a(lib_a-findfp.o) (__sread)
/usr/lib/gcc/arm-none-eabi/9.2.1/../../../arm-none-eabi/lib/thumb/v7e-m/nofp/libc_nano.a(lib_a-assert.o)
                              /usr/lib/gcc/arm-none-eabi/9.2.1/../../../arm-none-eabi/lib/thumb/v7e-m/nofp/libc_nano.a(lib_a-dtoa.o) (__assert_func)
/usr/lib/gcc/arm-none-eabi/9.2.1/../../../arm-none-eabi/lib/thumb/v7e-m/nofp/libc_nano.a(lib_a-fvwrite.o)
                              /usr/lib/gcc/arm-none-eabi/9.2.1/../../../arm-none-eabi/lib/thumb/v7e-m/nofp/libc_nano.a(lib_a-nano-vfprintf.o) (__sfvwrite_r)
/usr/lib/gcc/arm-none-eabi/9.2.1/../../../arm-none-eabi/lib/thumb/v7e-m/nofp/libc_nano.a(lib_a-locale.o)
                              /usr/lib/gcc/arm-none-eabi/9.2.1/../../../arm-none-eabi/lib/thumb/v7e-m/nofp/libc_nano.a(lib_a-localeconv.o) (__global_locale)
/usr/lib/gcc/arm-none-eabi/9.2.1/../../../arm-none-eabi/lib/thumb/v7e-m/nofp/libc_nano.a(lib_a-mbtowc_r.o)
                              /usr/lib/gcc/arm-none-eabi/9.2.1/../../../arm-none-eabi/lib/thumb/v7e-m/nofp/libc_nano.a(lib_a-locale.o) (__ascii_mbtowc)
/usr/lib/gcc/arm-none-eabi/9.2.1/../../../arm-none-eabi/lib/thumb/v7e-m/nofp/libc_nano.a(lib_a-memmove.o)
                              /usr/lib/gcc/arm-none-eabi/9.2.1/../../../arm-none-eabi/lib/thumb/v7e-m/nofp/libc_nano.a(lib_a-fvwrite.o) (memmove)
/usr/lib/gcc/arm-none-eabi/9.2.1/../../../arm-none-eabi/lib/thumb/v7e-m/nofp/libc_nano.a(lib_a-nano-msizer.o)
                              /usr/lib/gcc/arm-none-eabi/9.2.1/../../../arm-none-eabi/lib/thumb/v7e-m/nofp/libc_nano.a(lib_a-nano-reallocr.o) (_malloc_usable_size_r)
/usr/lib/gcc/arm-none-eabi/9.2.1/../../../arm-none-eabi/lib/thumb/v7e-m/nofp/libc_nano.a(lib_a-strcmp.o)
                              /usr/lib/gcc/arm-none-eabi/9.2.1/../../../arm-none-eabi/lib/thumb/v7e-m/nofp/libc_nano.a(lib_a-locale.o) (strcmp)
/usr/lib/gcc/arm-none-eabi/9.2.1/../../../arm-none-eabi/lib/thumb/v7e-m/nofp/libc_nano.a(lib_a-wctomb_r.o)
                              /usr/lib/gcc/arm-none-eabi/9.2.1/../../../arm-none-eabi/lib/thumb/v7e-m/nofp/libc_nano.a(lib_a-locale.o) (__ascii_wctomb)
/usr/lib/gcc/arm-none-eabi/9.2.1/../../../arm-none-eabi/lib/thumb/v7e-m/nofp/libc_nano.a(lib_a-abort.o)
                              /usr/lib/gcc/arm-none-eabi/9.2.1/../../../arm-none-eabi/lib/thumb/v7e-m/nofp/libc_nano.a(lib_a-assert.o) (abort)
/usr/lib/gcc/arm-none-eabi/9.2.1/../../../arm-none-eabi/lib/thumb/v7e-m/nofp/libc_nano.a(lib_a-ctype_.o)
                              /usr/lib/gcc/arm-none-eabi/9.2.1/../../../arm-none-eabi/lib/thumb/v7e-m/nofp/libc_nano.a(lib_a-locale.o) (_ctype_)
/usr/lib/gcc/arm-none-eabi/9.2.1/../../../arm-none-eabi/lib/thumb/v7e-m/nofp/libc_nano.a(lib_a-signal.o)
                              /usr/lib/gcc/arm-none-eabi/9.2.1/../../../arm-none-eabi/lib/thumb/v7e-m/nofp/libc_nano.a(lib_a-abort.o) (raise)
/usr/lib/gcc/arm-none-eabi/9.2.1/thumb/v7e-m/nofp/libgcc.a(_arm_cmpdf2.o)
                              /usr/lib/gcc/arm-none-eabi/9.2.1/../../../arm-none-eabi/lib/thumb/v7e-m/nofp/libc_nano.a(lib_a-nano-vfprintf_float.o) (__aeabi_dcmpeq)
/usr/lib/gcc/arm-none-eabi/9.2.1/thumb/v7e-m/nofp/libgcc.a(_arm_unorddf2.o)
                              /usr/lib/gcc/arm-none-eabi/9.2.1/../../../arm-none-eabi/lib/thumb/v7e-m/nofp/libc_nano.a(lib_a-nano-vfprintf_float.o) (__aeabi_dcmpun)
/usr/lib/gcc/arm-none-eabi/9.2.1/thumb/v7e-m/nofp/libgcc.a(_arm_fixdfsi.o)
                              /usr/lib/gcc/arm-none-eabi/9.2.1/../../../arm-none-eabi/lib/thumb/v7e-m/nofp/libc_nano.a(lib_a-dtoa.o) (__aeabi_d2iz)

Discarded input sections

 .group         0x0000000000000000        0xc /home/ch/RIOT/tests/capteur/bin/lora-e5-dev/application_tests_capteur/main.o
 .group         0x0000000000000000        0xc /home/ch/RIOT/tests/capteur/bin/lora-e5-dev/application_tests_capteur/main.o
 .group         0x0000000000000000        0xc /home/ch/RIOT/tests/capteur/bin/lora-e5-dev/application_tests_capteur/main.o
 .group         0x0000000000000000        0xc /home/ch/RIOT/tests/capteur/bin/lora-e5-dev/application_tests_capteur/main.o
 .group         0x0000000000000000        0xc /home/ch/RIOT/tests/capteur/bin/lora-e5-dev/application_tests_capteur/main.o
 .group         0x0000000000000000        0xc /home/ch/RIOT/tests/capteur/bin/lora-e5-dev/application_tests_capteur/main.o
 .group         0x0000000000000000        0xc /home/ch/RIOT/tests/capteur/bin/lora-e5-dev/application_tests_capteur/main.o
 .group         0x0000000000000000        0xc /home/ch/RIOT/tests/capteur/bin/lora-e5-dev/application_tests_capteur/main.o
 .group         0x0000000000000000        0xc /home/ch/RIOT/tests/capteur/bin/lora-e5-dev/application_tests_capteur/main.o
 .group         0x0000000000000000        0xc /home/ch/RIOT/tests/capteur/bin/lora-e5-dev/application_tests_capteur/main.o
 .group         0x0000000000000000        0xc /home/ch/RIOT/tests/capteur/bin/lora-e5-dev/application_tests_capteur/main.o
 .group         0x0000000000000000        0xc /home/ch/RIOT/tests/capteur/bin/lora-e5-dev/application_tests_capteur/main.o
 .group         0x0000000000000000        0xc /home/ch/RIOT/tests/capteur/bin/lora-e5-dev/application_tests_capteur/main.o
 .group         0x0000000000000000        0xc /home/ch/RIOT/tests/capteur/bin/lora-e5-dev/application_tests_capteur/main.o
 .group         0x0000000000000000        0xc /home/ch/RIOT/tests/capteur/bin/lora-e5-dev/application_tests_capteur/main.o
 .group         0x0000000000000000        0xc /home/ch/RIOT/tests/capteur/bin/lora-e5-dev/application_tests_capteur/main.o
 .group         0x0000000000000000        0xc /home/ch/RIOT/tests/capteur/bin/lora-e5-dev/application_tests_capteur/main.o
 .group         0x0000000000000000        0xc /home/ch/RIOT/tests/capteur/bin/lora-e5-dev/application_tests_capteur/main.o
Memory Configuration

Name             Origin             Length             Attributes
ccmram           0x0000000010000000 0x0000000000000000
sram4            0x0000000028000000 0x0000000000000000
rom              0x0000000008000000 0x0000000000040000 xr
ram              0x0000000020000000 0x0000000000010000 w !xr
bkup_ram         0x0000000000000000 0x0000000000000000 w !xr
*default*        0x0000000000000000 0xffffffffffffffff

Linker script and memory map

LOAD /home/ch/RIOT/tests/capteur/bin/lora-e5-dev/application_tests_capteur/main.o
LOAD /home/ch/RIOT/tests/capteur/bin/lora-e5-dev/auto_init/auto_init.o
LOAD /home/ch/RIOT/tests/capteur/bin/lora-e5-dev/board/board.o
LOAD /home/ch/RIOT/tests/capteur/bin/lora-e5-dev/core/assert.o
LOAD /home/ch/RIOT/tests/capteur/bin/lora-e5-dev/core/atomic_c11.o
LOAD /home/ch/RIOT/tests/capteur/bin/lora-e5-dev/core/atomic_sync.o
LOAD /home/ch/RIOT/tests/capteur/bin/lora-e5-dev/core/bitarithm.o
LOAD /home/ch/RIOT/tests/capteur/bin/lora-e5-dev/core/clist.o
LOAD /home/ch/RIOT/tests/capteur/bin/lora-e5-dev/core/cond.o
LOAD /home/ch/RIOT/tests/capteur/bin/lora-e5-dev/core/init.o
LOAD /home/ch/RIOT/tests/capteur/bin/lora-e5-dev/core/msg.o
LOAD /home/ch/RIOT/tests/capteur/bin/lora-e5-dev/core/mutex.o
LOAD /home/ch/RIOT/tests/capteur/bin/lora-e5-dev/core/panic.o
LOAD /home/ch/RIOT/tests/capteur/bin/lora-e5-dev/core/priority_queue.o
LOAD /home/ch/RIOT/tests/capteur/bin/lora-e5-dev/core/ringbuffer.o
LOAD /home/ch/RIOT/tests/capteur/bin/lora-e5-dev/core/rmutex.o
LOAD /home/ch/RIOT/tests/capteur/bin/lora-e5-dev/core/sched.o
LOAD /home/ch/RIOT/tests/capteur/bin/lora-e5-dev/core/thread.o
LOAD /home/ch/RIOT/tests/capteur/bin/lora-e5-dev/cortexm_common/cortexm_init.o
LOAD /home/ch/RIOT/tests/capteur/bin/lora-e5-dev/cortexm_common/mpu.o
LOAD /home/ch/RIOT/tests/capteur/bin/lora-e5-dev/cortexm_common/panic.o
LOAD /home/ch/RIOT/tests/capteur/bin/lora-e5-dev/cortexm_common_periph/pm.o
LOAD /home/ch/RIOT/tests/capteur/bin/lora-e5-dev/cortexm_common/thread_arch.o
LOAD /home/ch/RIOT/tests/capteur/bin/lora-e5-dev/cortexm_common/vectors_cortexm.o
LOAD /home/ch/RIOT/tests/capteur/bin/lora-e5-dev/cpu/cpu_common.o
LOAD /home/ch/RIOT/tests/capteur/bin/lora-e5-dev/cpu/cpu_init.o
LOAD /home/ch/RIOT/tests/capteur/bin/lora-e5-dev/div/div.o
LOAD /home/ch/RIOT/tests/capteur/bin/lora-e5-dev/malloc_thread_safe/malloc_wrappers.o
LOAD /home/ch/RIOT/tests/capteur/bin/lora-e5-dev/newlib_syscalls_default/syscalls.o
LOAD /home/ch/RIOT/tests/capteur/bin/lora-e5-dev/periph_common/gpio.o
LOAD /home/ch/RIOT/tests/capteur/bin/lora-e5-dev/periph_common/init.o
LOAD /home/ch/RIOT/tests/capteur/bin/lora-e5-dev/periph_common/pm.o
LOAD /home/ch/RIOT/tests/capteur/bin/lora-e5-dev/periph_common/timer.o
LOAD /home/ch/RIOT/tests/capteur/bin/lora-e5-dev/periph/gpio_all.o
LOAD /home/ch/RIOT/tests/capteur/bin/lora-e5-dev/periph/pm.o
LOAD /home/ch/RIOT/tests/capteur/bin/lora-e5-dev/periph/timer.o
LOAD /home/ch/RIOT/tests/capteur/bin/lora-e5-dev/periph/uart.o
LOAD /home/ch/RIOT/tests/capteur/bin/lora-e5-dev/pm_layered/pm.o
LOAD /home/ch/RIOT/tests/capteur/bin/lora-e5-dev/stdio_uart/stdio_uart.o
LOAD /home/ch/RIOT/tests/capteur/bin/lora-e5-dev/stm32_clk/stmclk_common.o
LOAD /home/ch/RIOT/tests/capteur/bin/lora-e5-dev/stm32_clk/stmclk_l4wx.o
LOAD /home/ch/RIOT/tests/capteur/bin/lora-e5-dev/stm32_vectors/STM32WLE5xx.o
LOAD /home/ch/RIOT/tests/capteur/bin/lora-e5-dev/xtimer/xtimer_core.o
LOAD /home/ch/RIOT/tests/capteur/bin/lora-e5-dev/xtimer/xtimer.o
LOAD /usr/lib/gcc/arm-none-eabi/9.2.1/../../../arm-none-eabi/lib/thumb/v7e-m/nofp/libm.a
LOAD /usr/lib/gcc/arm-none-eabi/9.2.1/thumb/v7e-m/nofp/libgcc.a
                0x0000000008000000                _rom_start_addr = 0x8000000
                0x0000000020000000                _ram_start_addr = 0x20000000
                0x0000000000040000                _rom_length = 0x40000
                0x0000000000010000                _ram_length = 0x10000
LOAD /usr/lib/gcc/arm-none-eabi/9.2.1/../../../arm-none-eabi/lib/thumb/v7e-m/nofp/libc_nano.a
START GROUP
LOAD /usr/lib/gcc/arm-none-eabi/9.2.1/thumb/v7e-m/nofp/libgcc.a
LOAD /usr/lib/gcc/arm-none-eabi/9.2.1/../../../arm-none-eabi/lib/thumb/v7e-m/nofp/libg_nano.a
LOAD /usr/lib/gcc/arm-none-eabi/9.2.1/../../../arm-none-eabi/lib/thumb/v7e-m/nofp/libc_nano.a
END GROUP
START GROUP
LOAD /usr/lib/gcc/arm-none-eabi/9.2.1/thumb/v7e-m/nofp/libgcc.a
LOAD /usr/lib/gcc/arm-none-eabi/9.2.1/../../../arm-none-eabi/lib/thumb/v7e-m/nofp/libc_nano.a
END GROUP
                0x0000000000000000                ccmram_length = DEFINED (ccmram_len)?ccmram_len:0x0
                0x0000000000000000                sram4_length = DEFINED (sram4_length)?sram4_length:0x0

.heap2          0x0000000000000000        0x0
                0x0000000000000000                _sheap2 = .
                0x0000000028000000                _eheap2 = (ORIGIN (sram4) + LENGTH (sram4))
                0x0000000000000000                _rom_offset = DEFINED (_rom_offset)?_rom_offset:0x0
                0x0000000000040000                _fw_rom_length = DEFINED (_fw_rom_length)?_fw_rom_length:(_rom_length - _rom_offset)
                0x0000000000000001                ASSERT ((_fw_rom_length <= (_rom_length - _rom_offset)), Specified firmware size does not fit in ROM)
                0x0000000000000000                _backup_ram_start_addr = DEFINED (_backup_ram_start_addr)?_backup_ram_start_addr:0x0
                0x0000000000000000                _backup_ram_len = DEFINED (_backup_ram_len)?_backup_ram_len:0x0

.text           0x0000000008000000     0x66d4
                0x0000000008000000                . = ALIGN (0x4)
                0x0000000008000000                _sfixed = .
                0x0000000008000000                _isr_vectors = DEFINED (_isr_vectors)?_isr_vectors:.
 *(SORT_BY_NAME(.vectors*))
 .vectors.0     0x0000000008000000       0x40 /home/ch/RIOT/tests/capteur/bin/lora-e5-dev/cortexm_common/vectors_cortexm.o
                0x0000000008000000                cortex_vector_base
 .vectors.1     0x0000000008000040       0xf8 /home/ch/RIOT/tests/capteur/bin/lora-e5-dev/stm32_vectors/STM32WLE5xx.o
                0x0000000008000040                vector_cpu
 *(.text .text.* .gnu.linkonce.t.*)
 .text.pulseIn  0x0000000008000138       0xa8 /home/ch/RIOT/tests/capteur/bin/lora-e5-dev/application_tests_capteur/main.o
                0x0000000008000138                pulseIn
 .text.pow      0x00000000080001e0       0x2a /home/ch/RIOT/tests/capteur/bin/lora-e5-dev/application_tests_capteur/main.o
                0x00000000080001e0                pow
 *fill*         0x000000000800020a        0x2 
 .text.setup    0x000000000800020c       0x24 /home/ch/RIOT/tests/capteur/bin/lora-e5-dev/application_tests_capteur/main.o
                0x000000000800020c                setup
 .text.loop     0x0000000008000230      0x170 /home/ch/RIOT/tests/capteur/bin/lora-e5-dev/application_tests_capteur/main.o
                0x0000000008000230                loop
 .text.startup.main
                0x00000000080003a0        0xc /home/ch/RIOT/tests/capteur/bin/lora-e5-dev/application_tests_capteur/main.o
                0x00000000080003a0                main
 .text.auto_init
                0x00000000080003ac        0x4 /home/ch/RIOT/tests/capteur/bin/lora-e5-dev/auto_init/auto_init.o
                0x00000000080003ac                auto_init
 .text.board_init
                0x00000000080003b0       0x44 /home/ch/RIOT/tests/capteur/bin/lora-e5-dev/board/board.o
                0x00000000080003b0                board_init
 .text.main_trampoline
                0x00000000080003f4       0x18 /home/ch/RIOT/tests/capteur/bin/lora-e5-dev/core/init.o
 .text.kernel_init
                0x000000000800040c       0x34 /home/ch/RIOT/tests/capteur/bin/lora-e5-dev/core/init.o
                0x000000000800040c                kernel_init
 .text.mutex_lock
                0x0000000008000440       0x68 /home/ch/RIOT/tests/capteur/bin/lora-e5-dev/core/mutex.o
                0x0000000008000440                mutex_lock
 .text.mutex_unlock
                0x00000000080004a8       0x44 /home/ch/RIOT/tests/capteur/bin/lora-e5-dev/core/mutex.o
                0x00000000080004a8                mutex_unlock
 .text.panic_app
                0x00000000080004ec        0x2 /home/ch/RIOT/tests/capteur/bin/lora-e5-dev/core/panic.o
                0x00000000080004ec                panic_app
 *fill*         0x00000000080004ee        0x2 
 .text.core_panic
                0x00000000080004f0       0x50 /home/ch/RIOT/tests/capteur/bin/lora-e5-dev/core/panic.o
                0x00000000080004f0                core_panic
 .text._unschedule
                0x0000000008000540       0x24 /home/ch/RIOT/tests/capteur/bin/lora-e5-dev/core/sched.o
 .text.sched_run
                0x0000000008000564       0x6c /home/ch/RIOT/tests/capteur/bin/lora-e5-dev/core/sched.o
                0x0000000008000564                sched_run
 .text.sched_set_status
                0x00000000080005d0       0x84 /home/ch/RIOT/tests/capteur/bin/lora-e5-dev/core/sched.o
                0x00000000080005d0                sched_set_status
 .text.sched_switch
                0x0000000008000654       0x3c /home/ch/RIOT/tests/capteur/bin/lora-e5-dev/core/sched.o
                0x0000000008000654                sched_switch
 .text.sched_task_exit
                0x0000000008000690       0x3c /home/ch/RIOT/tests/capteur/bin/lora-e5-dev/core/sched.o
                0x0000000008000690                sched_task_exit
 .text.thread_getname
                0x00000000080006cc       0x1c /home/ch/RIOT/tests/capteur/bin/lora-e5-dev/core/thread.o
                0x00000000080006cc                thread_getname
 .text.thread_add_to_list
                0x00000000080006e8       0x30 /home/ch/RIOT/tests/capteur/bin/lora-e5-dev/core/thread.o
                0x00000000080006e8                thread_add_to_list
 .text.thread_create
                0x0000000008000718       0xe8 /home/ch/RIOT/tests/capteur/bin/lora-e5-dev/core/thread.o
                0x0000000008000718                thread_create
 .text.cortexm_init
                0x0000000008000800       0x40 /home/ch/RIOT/tests/capteur/bin/lora-e5-dev/cortexm_common/cortexm_init.o
                0x0000000008000800                cortexm_init
 .text.panic_arch
                0x0000000008000840       0x1c /home/ch/RIOT/tests/capteur/bin/lora-e5-dev/cortexm_common/panic.o
                0x0000000008000840                panic_arch
 .text.thread_stack_init
                0x000000000800085c       0x68 /home/ch/RIOT/tests/capteur/bin/lora-e5-dev/cortexm_common/thread_arch.o
                0x000000000800085c                thread_stack_init
 .text.cpu_switch_context_exit
                0x00000000080008c4       0x18 /home/ch/RIOT/tests/capteur/bin/lora-e5-dev/cortexm_common/thread_arch.o
                0x00000000080008c4                cpu_switch_context_exit
 .text.isr_pendsv
                0x00000000080008dc       0x38 /home/ch/RIOT/tests/capteur/bin/lora-e5-dev/cortexm_common/thread_arch.o
                0x00000000080008dc                isr_pendsv
 .text.isr_svc  0x0000000008000914       0x10 /home/ch/RIOT/tests/capteur/bin/lora-e5-dev/cortexm_common/thread_arch.o
                0x0000000008000914                isr_svc
 .text.sched_arch_idle
                0x0000000008000924       0x10 /home/ch/RIOT/tests/capteur/bin/lora-e5-dev/cortexm_common/thread_arch.o
                0x0000000008000924                sched_arch_idle
 .text.hard_fault_default
                0x0000000008000934       0x44 /home/ch/RIOT/tests/capteur/bin/lora-e5-dev/cortexm_common/vectors_cortexm.o
                0x0000000008000934                hard_fault_default
 .text.nmi_default
                0x0000000008000978       0x10 /home/ch/RIOT/tests/capteur/bin/lora-e5-dev/cortexm_common/vectors_cortexm.o
                0x0000000008000978                nmi_default
 .text.mem_manage_default
                0x0000000008000988       0x10 /home/ch/RIOT/tests/capteur/bin/lora-e5-dev/cortexm_common/vectors_cortexm.o
                0x0000000008000988                mem_manage_default
 .text.bus_fault_default
                0x0000000008000998       0x10 /home/ch/RIOT/tests/capteur/bin/lora-e5-dev/cortexm_common/vectors_cortexm.o
                0x0000000008000998                bus_fault_default
 .text.usage_fault_default
                0x00000000080009a8       0x10 /home/ch/RIOT/tests/capteur/bin/lora-e5-dev/cortexm_common/vectors_cortexm.o
                0x00000000080009a8                usage_fault_default
 .text.debug_mon_default
                0x00000000080009b8       0x10 /home/ch/RIOT/tests/capteur/bin/lora-e5-dev/cortexm_common/vectors_cortexm.o
                0x00000000080009b8                debug_mon_default
 .text.dummy_handler_default
                0x00000000080009c8       0x10 /home/ch/RIOT/tests/capteur/bin/lora-e5-dev/cortexm_common/vectors_cortexm.o
                0x00000000080009c8                dummy_handler_default
                0x00000000080009c8                isr_systick
 .text.pre_startup
                0x00000000080009d8        0x2 /home/ch/RIOT/tests/capteur/bin/lora-e5-dev/cortexm_common/vectors_cortexm.o
                0x00000000080009d8                pre_startup
 .text.post_startup
                0x00000000080009da        0x2 /home/ch/RIOT/tests/capteur/bin/lora-e5-dev/cortexm_common/vectors_cortexm.o
                0x00000000080009da                post_startup
 .text.reset_handler_default
                0x00000000080009dc       0x70 /home/ch/RIOT/tests/capteur/bin/lora-e5-dev/cortexm_common/vectors_cortexm.o
                0x00000000080009dc                reset_handler_default
 .text.hard_fault_handler
                0x0000000008000a4c      0x1bc /home/ch/RIOT/tests/capteur/bin/lora-e5-dev/cortexm_common/vectors_cortexm.o
                0x0000000008000a4c                hard_fault_handler
 .text.periph_apb_clk
                0x0000000008000c08       0x18 /home/ch/RIOT/tests/capteur/bin/lora-e5-dev/cpu/cpu_common.o
                0x0000000008000c08                periph_apb_clk
 .text.periph_timer_clk
                0x0000000008000c20       0x20 /home/ch/RIOT/tests/capteur/bin/lora-e5-dev/cpu/cpu_common.o
                0x0000000008000c20                periph_timer_clk
 .text.periph_clk_en
                0x0000000008000c40       0x68 /home/ch/RIOT/tests/capteur/bin/lora-e5-dev/cpu/cpu_common.o
                0x0000000008000c40                periph_clk_en
 .text.cpu_init
                0x0000000008000ca8       0x16 /home/ch/RIOT/tests/capteur/bin/lora-e5-dev/cpu/cpu_init.o
                0x0000000008000ca8                cpu_init
 .text._div_mulhi64
                0x0000000008000cbe       0x4c /home/ch/RIOT/tests/capteur/bin/lora-e5-dev/div/div.o
                0x0000000008000cbe                _div_mulhi64
 *fill*         0x0000000008000d0a        0x2 
 .text.__wrap_malloc
                0x0000000008000d0c       0x38 /home/ch/RIOT/tests/capteur/bin/lora-e5-dev/malloc_thread_safe/malloc_wrappers.o
                0x0000000008000d0c                __wrap_malloc
 .text._init    0x0000000008000d44        0x2 /home/ch/RIOT/tests/capteur/bin/lora-e5-dev/newlib_syscalls_default/syscalls.o
                0x0000000008000d44                _init
 .text._fini    0x0000000008000d46        0x2 /home/ch/RIOT/tests/capteur/bin/lora-e5-dev/newlib_syscalls_default/syscalls.o
                0x0000000008000d46                _fini
 .text._exit    0x0000000008000d48       0x14 /home/ch/RIOT/tests/capteur/bin/lora-e5-dev/newlib_syscalls_default/syscalls.o
                0x0000000008000d48                _exit
 .text._sbrk_r  0x0000000008000d5c       0x40 /home/ch/RIOT/tests/capteur/bin/lora-e5-dev/newlib_syscalls_default/syscalls.o
                0x0000000008000d5c                _sbrk_r
 .text._getpid_r
                0x0000000008000d9c        0xc /home/ch/RIOT/tests/capteur/bin/lora-e5-dev/newlib_syscalls_default/syscalls.o
                0x0000000008000d9c                _getpid_r
 .text._kill_r  0x0000000008000da8        0xa /home/ch/RIOT/tests/capteur/bin/lora-e5-dev/newlib_syscalls_default/syscalls.o
                0x0000000008000da8                _kill_r
 .text._read_r  0x0000000008000db2        0x8 /home/ch/RIOT/tests/capteur/bin/lora-e5-dev/newlib_syscalls_default/syscalls.o
                0x0000000008000db2                _read_r
 .text._write_r
                0x0000000008000dba        0x8 /home/ch/RIOT/tests/capteur/bin/lora-e5-dev/newlib_syscalls_default/syscalls.o
                0x0000000008000dba                _write_r
 .text._close_r
                0x0000000008000dc2        0xa /home/ch/RIOT/tests/capteur/bin/lora-e5-dev/newlib_syscalls_default/syscalls.o
                0x0000000008000dc2                _close_r
 .text._lseek_r
                0x0000000008000dcc        0xa /home/ch/RIOT/tests/capteur/bin/lora-e5-dev/newlib_syscalls_default/syscalls.o
                0x0000000008000dcc                _lseek_r
 .text._fstat_r
                0x0000000008000dd6        0xa /home/ch/RIOT/tests/capteur/bin/lora-e5-dev/newlib_syscalls_default/syscalls.o
                0x0000000008000dd6                _fstat_r
 .text._isatty_r
                0x0000000008000de0       0x10 /home/ch/RIOT/tests/capteur/bin/lora-e5-dev/newlib_syscalls_default/syscalls.o
                0x0000000008000de0                _isatty_r
 .text._gettimeofday_r
                0x0000000008000df0       0x9c /home/ch/RIOT/tests/capteur/bin/lora-e5-dev/newlib_syscalls_default/syscalls.o
                0x0000000008000df0                _gettimeofday_r
 .text.periph_init
                0x0000000008000e8c        0x2 /home/ch/RIOT/tests/capteur/bin/lora-e5-dev/periph_common/init.o
                0x0000000008000e8c                periph_init
 .text.gpio_init
                0x0000000008000e8e       0x68 /home/ch/RIOT/tests/capteur/bin/lora-e5-dev/periph/gpio_all.o
                0x0000000008000e8e                gpio_init
 .text.gpio_init_af
                0x0000000008000ef6       0x58 /home/ch/RIOT/tests/capteur/bin/lora-e5-dev/periph/gpio_all.o
                0x0000000008000ef6                gpio_init_af
 .text.gpio_read
                0x0000000008000f4e       0x14 /home/ch/RIOT/tests/capteur/bin/lora-e5-dev/periph/gpio_all.o
                0x0000000008000f4e                gpio_read
 .text.gpio_set
                0x0000000008000f62       0x12 /home/ch/RIOT/tests/capteur/bin/lora-e5-dev/periph/gpio_all.o
                0x0000000008000f62                gpio_set
 .text.pm_set   0x0000000008000f74       0x74 /home/ch/RIOT/tests/capteur/bin/lora-e5-dev/periph/pm.o
                0x0000000008000f74                pm_set
 .text.timer_set_absolute
                0x0000000008000fe8       0x38 /home/ch/RIOT/tests/capteur/bin/lora-e5-dev/periph/timer.o
                0x0000000008000fe8                timer_set_absolute
 .text.timer_read
                0x0000000008001020       0x10 /home/ch/RIOT/tests/capteur/bin/lora-e5-dev/periph/timer.o
                0x0000000008001020                timer_read
 .text.timer_start
                0x0000000008001030       0x14 /home/ch/RIOT/tests/capteur/bin/lora-e5-dev/periph/timer.o
                0x0000000008001030                timer_start
 .text.timer_init
                0x0000000008001044       0x54 /home/ch/RIOT/tests/capteur/bin/lora-e5-dev/periph/timer.o
                0x0000000008001044                timer_init
 .text.isr_tim2
                0x0000000008001098       0x74 /home/ch/RIOT/tests/capteur/bin/lora-e5-dev/periph/timer.o
                0x0000000008001098                isr_tim2
 .text.irq_handler
                0x000000000800110c       0x54 /home/ch/RIOT/tests/capteur/bin/lora-e5-dev/periph/uart.o
 .text.uart_enable_clock
                0x0000000008001160       0x30 /home/ch/RIOT/tests/capteur/bin/lora-e5-dev/periph/uart.o
 .text.uart_init
                0x0000000008001190       0xa8 /home/ch/RIOT/tests/capteur/bin/lora-e5-dev/periph/uart.o
                0x0000000008001190                uart_init
 .text.uart_write
                0x0000000008001238       0x40 /home/ch/RIOT/tests/capteur/bin/lora-e5-dev/periph/uart.o
                0x0000000008001238                uart_write
 .text.isr_usart1
                0x0000000008001278        0x6 /home/ch/RIOT/tests/capteur/bin/lora-e5-dev/periph/uart.o
                0x0000000008001278                isr_usart1
 .text.isr_usart2
                0x000000000800127e        0x6 /home/ch/RIOT/tests/capteur/bin/lora-e5-dev/periph/uart.o
                0x000000000800127e                isr_usart2
 .text.isr_lpuart1
                0x0000000008001284        0x6 /home/ch/RIOT/tests/capteur/bin/lora-e5-dev/periph/uart.o
                0x0000000008001284                isr_lpuart1
 *fill*         0x000000000800128a        0x2 
 .text.pm_set_lowest
                0x000000000800128c       0x3c /home/ch/RIOT/tests/capteur/bin/lora-e5-dev/pm_layered/pm.o
                0x000000000800128c                pm_set_lowest
 .text.pm_block
                0x00000000080012c8       0x2c /home/ch/RIOT/tests/capteur/bin/lora-e5-dev/pm_layered/pm.o
                0x00000000080012c8                pm_block
 .text.pm_off   0x00000000080012f4       0x10 /home/ch/RIOT/tests/capteur/bin/lora-e5-dev/pm_layered/pm.o
                0x00000000080012f4                pm_off
 .text.stdio_init
                0x0000000008001304        0xe /home/ch/RIOT/tests/capteur/bin/lora-e5-dev/stdio_uart/stdio_uart.o
                0x0000000008001304                stdio_init
 .text.stdio_read
                0x0000000008001312        0x6 /home/ch/RIOT/tests/capteur/bin/lora-e5-dev/stdio_uart/stdio_uart.o
                0x0000000008001312                stdio_read
 .text.stdio_write
                0x0000000008001318       0x12 /home/ch/RIOT/tests/capteur/bin/lora-e5-dev/stdio_uart/stdio_uart.o
                0x0000000008001318                stdio_write
 .text.stmclk_enable_hsi
                0x000000000800132a       0x14 /home/ch/RIOT/tests/capteur/bin/lora-e5-dev/stm32_clk/stmclk_common.o
                0x000000000800132a                stmclk_enable_hsi
 .text.stmclk_disable_hsi
                0x000000000800133e        0xe /home/ch/RIOT/tests/capteur/bin/lora-e5-dev/stm32_clk/stmclk_common.o
                0x000000000800133e                stmclk_disable_hsi
 .text.stmclk_init_sysclk
                0x000000000800134c       0x9c /home/ch/RIOT/tests/capteur/bin/lora-e5-dev/stm32_clk/stmclk_l4wx.o
                0x000000000800134c                stmclk_init_sysclk
 .text.dummy_handler
                0x00000000080013e8        0x4 /home/ch/RIOT/tests/capteur/bin/lora-e5-dev/stm32_vectors/STM32WLE5xx.o
                0x00000000080013e8                isr_lptim2
                0x00000000080013e8                isr_rtc_wkup
                0x00000000080013e8                isr_hsem
                0x00000000080013e8                isr_dac
                0x00000000080013e8                isr_tim16
                0x00000000080013e8                isr_exti
                0x00000000080013e8                isr_dma1_channel4
                0x00000000080013e8                isr_dma2_channel7
                0x00000000080013e8                isr_i2c1_ev
                0x00000000080013e8                isr_subghz_radio
                0x00000000080013e8                isr_tim1_brk
                0x00000000080013e8                isr_dma1_channel5
                0x00000000080013e8                isr_dma1_channel2
                0x00000000080013e8                isr_pka
                0x00000000080013e8                isr_dma2_channel6
                0x00000000080013e8                isr_dma1_channel7
                0x00000000080013e8                isr_i2c3_ev
                0x00000000080013e8                isr_tim1_up
                0x00000000080013e8                isr_dma2_channel4
                0x00000000080013e8                isr_spi2
                0x00000000080013e8                isr_tim1_trg_com
                0x00000000080013e8                isr_dma1_channel1
                0x00000000080013e8                dummy_handler
                0x00000000080013e8                isr_adc
                0x00000000080013e8                isr_aes
                0x00000000080013e8                isr_comp
                0x00000000080013e8                isr_spi1
                0x00000000080013e8                isr_lptim1
                0x00000000080013e8                isr_rcc
                0x00000000080013e8                isr_tamp_stamp_lsecss_ssru
                0x00000000080013e8                isr_flash
                0x00000000080013e8                isr_dma2_channel5
                0x00000000080013e8                isr_i2c3_er
                0x00000000080013e8                isr_tim1_cc
                0x00000000080013e8                isr_lptim3
                0x00000000080013e8                isr_subghzspi
                0x00000000080013e8                isr_dma2_channel1
                0x00000000080013e8                isr_tim17
                0x00000000080013e8                isr_i2c2_er
                0x00000000080013e8                isr_dma1_channel6
                0x00000000080013e8                isr_pvd_pvm
                0x00000000080013e8                isr_rng
                0x00000000080013e8                isr_dmamux1_ovr
                0x00000000080013e8                isr_i2c2_ev
                0x00000000080013e8                isr_dma2_channel2
                0x00000000080013e8                isr_dma2_channel3
                0x00000000080013e8                isr_rtc_alarm
                0x00000000080013e8                isr_dma1_channel3
                0x00000000080013e8                isr_i2c1_er
                0x00000000080013e8                isr_wwdg
 .text._add_timer_to_list
                0x00000000080013ec       0x34 /home/ch/RIOT/tests/capteur/bin/lora-e5-dev/xtimer/xtimer_core.o
 .text._remove_timer_from_list
                0x0000000008001420       0x18 /home/ch/RIOT/tests/capteur/bin/lora-e5-dev/xtimer/xtimer_core.o
 .text._xtimer_now64
                0x0000000008001438       0x38 /home/ch/RIOT/tests/capteur/bin/lora-e5-dev/xtimer/xtimer_core.o
 .text._schedule_earliest_lltimer
                0x0000000008001470       0x44 /home/ch/RIOT/tests/capteur/bin/lora-e5-dev/xtimer/xtimer_core.o
 .text._xtimer_now
                0x00000000080014b4        0x8 /home/ch/RIOT/tests/capteur/bin/lora-e5-dev/xtimer/xtimer_core.o
                0x00000000080014b4                _xtimer_now
 .text.xtimer_init
                0x00000000080014bc       0x30 /home/ch/RIOT/tests/capteur/bin/lora-e5-dev/xtimer/xtimer_core.o
                0x00000000080014bc                xtimer_init
 .text._periph_timer_callback
                0x00000000080014ec      0x118 /home/ch/RIOT/tests/capteur/bin/lora-e5-dev/xtimer/xtimer_core.o
 .text          0x0000000008001604      0x168 /usr/lib/gcc/arm-none-eabi/9.2.1/thumb/v7e-m/nofp/libgcc.a(_arm_mulsf3.o)
                0x0000000008001604                __mulsf3
                0x0000000008001604                __aeabi_fmul
 .text          0x000000000800176c      0x378 /usr/lib/gcc/arm-none-eabi/9.2.1/thumb/v7e-m/nofp/libgcc.a(_arm_addsubdf3.o)
                0x000000000800176c                __aeabi_drsub
                0x0000000008001774                __aeabi_dsub
                0x0000000008001774                __subdf3
                0x0000000008001778                __adddf3
                0x0000000008001778                __aeabi_dadd
                0x00000000080019f0                __aeabi_ui2d
                0x00000000080019f0                __floatunsidf
                0x0000000008001a10                __floatsidf
                0x0000000008001a10                __aeabi_i2d
                0x0000000008001a34                __extendsfdf2
                0x0000000008001a34                __aeabi_f2d
                0x0000000008001a78                __aeabi_ul2d
                0x0000000008001a78                __floatundidf
                0x0000000008001a88                __floatdidf
                0x0000000008001a88                __aeabi_l2d
 .text          0x0000000008001ae4      0x424 /usr/lib/gcc/arm-none-eabi/9.2.1/thumb/v7e-m/nofp/libgcc.a(_arm_muldivdf3.o)
                0x0000000008001ae4                __aeabi_dmul
                0x0000000008001ae4                __muldf3
                0x0000000008001d38                __aeabi_ddiv
                0x0000000008001d38                __divdf3
 .text          0x0000000008001f08       0xa0 /usr/lib/gcc/arm-none-eabi/9.2.1/thumb/v7e-m/nofp/libgcc.a(_arm_truncdfsf2.o)
                0x0000000008001f08                __aeabi_d2f
                0x0000000008001f08                __truncdfsf2
 .text          0x0000000008001fa8       0x4c /usr/lib/gcc/arm-none-eabi/9.2.1/thumb/v7e-m/nofp/libgcc.a(_arm_fixsfsi.o)
                0x0000000008001fa8                __fixsfsi
                0x0000000008001fa8                __aeabi_f2iz
 .text          0x0000000008001ff4       0x48 /usr/lib/gcc/arm-none-eabi/9.2.1/../../../arm-none-eabi/lib/thumb/v7e-m/nofp/libc_nano.a(lib_a-init.o)
                0x0000000008001ff4                __libc_init_array
 .text          0x000000000800203c       0x20 /usr/lib/gcc/arm-none-eabi/9.2.1/../../../arm-none-eabi/lib/thumb/v7e-m/nofp/libc_nano.a(lib_a-malloc.o)
                0x000000000800203c                malloc
                0x000000000800204c                free
 .text          0x000000000800205c      0x134 /usr/lib/gcc/arm-none-eabi/9.2.1/../../../arm-none-eabi/lib/thumb/v7e-m/nofp/libc_nano.a(lib_a-memcpy.o)
                0x000000000800205c                memcpy
 .text          0x0000000008002190       0xa0 /usr/lib/gcc/arm-none-eabi/9.2.1/../../../arm-none-eabi/lib/thumb/v7e-m/nofp/libc_nano.a(lib_a-memset.o)
                0x0000000008002190                memset
 .text          0x0000000008002230       0xac /usr/lib/gcc/arm-none-eabi/9.2.1/../../../arm-none-eabi/lib/thumb/v7e-m/nofp/libc_nano.a(lib_a-nano-freer.o)
                0x0000000008002230                _free_r
 .text          0x00000000080022dc       0xc8 /usr/lib/gcc/arm-none-eabi/9.2.1/../../../arm-none-eabi/lib/thumb/v7e-m/nofp/libc_nano.a(lib_a-nano-mallocr.o)
                0x00000000080022dc                _malloc_r
 .text          0x00000000080023a4      0x6c0 /usr/lib/gcc/arm-none-eabi/9.2.1/../../../arm-none-eabi/lib/thumb/v7e-m/nofp/libc_nano.a(lib_a-nano-vfprintf_float.o)
                0x00000000080023a4                __cvt
                0x0000000008002498                __exponent
                0x0000000008002524                _printf_float
 .text          0x0000000008002a64      0x3c4 /usr/lib/gcc/arm-none-eabi/9.2.1/../../../arm-none-eabi/lib/thumb/v7e-m/nofp/libc_nano.a(lib_a-nano-vfprintf_i.o)
                0x0000000008002a64                _printf_common
                0x0000000008002b90                _printf_i
 .text          0x0000000008002e28       0x68 /usr/lib/gcc/arm-none-eabi/9.2.1/../../../arm-none-eabi/lib/thumb/v7e-m/nofp/libc_nano.a(lib_a-printf.o)
                0x0000000008002e28                _printf_r
                0x0000000008002e28                _iprintf_r
                0x0000000008002e58                printf
                0x0000000008002e58                iprintf
 .text          0x0000000008002e90       0xe8 /usr/lib/gcc/arm-none-eabi/9.2.1/../../../arm-none-eabi/lib/thumb/v7e-m/nofp/libc_nano.a(lib_a-puts.o)
                0x0000000008002e90                _puts_r
                0x0000000008002f68                puts
 *fill*         0x0000000008002f78        0x8 
 .text          0x0000000008002f80       0xdc /usr/lib/gcc/arm-none-eabi/9.2.1/../../../arm-none-eabi/lib/thumb/v7e-m/nofp/libc_nano.a(lib_a-strlen.o)
                0x0000000008002f80                strlen
 .text          0x000000000800305c       0x34 /usr/lib/gcc/arm-none-eabi/9.2.1/../../../arm-none-eabi/lib/thumb/v7e-m/nofp/libc_nano.a(lib_a-time.o)
                0x000000000800305c                time
 .text          0x0000000008003090       0xc0 /usr/lib/gcc/arm-none-eabi/9.2.1/../../../arm-none-eabi/lib/thumb/v7e-m/nofp/libc_nano.a(lib_a-wbuf.o)
                0x0000000008003090                __swbuf_r
                0x0000000008003140                __swbuf
 .text          0x0000000008003150      0x100 /usr/lib/gcc/arm-none-eabi/9.2.1/../../../arm-none-eabi/lib/thumb/v7e-m/nofp/libc_nano.a(lib_a-wsetup.o)
                0x0000000008003150                __swsetup_r
 .text          0x0000000008003250     0x104c /usr/lib/gcc/arm-none-eabi/9.2.1/../../../arm-none-eabi/lib/thumb/v7e-m/nofp/libc_nano.a(lib_a-dtoa.o)
                0x0000000008003374                _dtoa_r
 .text          0x000000000800429c      0x1b0 /usr/lib/gcc/arm-none-eabi/9.2.1/../../../arm-none-eabi/lib/thumb/v7e-m/nofp/libc_nano.a(lib_a-fflush.o)
                0x000000000800429c                __sflush_r
                0x00000000080043c8                _fflush_r
                0x0000000008004428                fflush
 .text          0x000000000800444c      0x210 /usr/lib/gcc/arm-none-eabi/9.2.1/../../../arm-none-eabi/lib/thumb/v7e-m/nofp/libc_nano.a(lib_a-findfp.o)
                0x0000000008004450                _cleanup_r
                0x0000000008004460                __sfmoreglue
                0x0000000008004490                __sfp
                0x0000000008004608                _cleanup
                0x000000000800461c                __sinit
                0x0000000008004624                __sfp_lock_acquire
                0x0000000008004628                __sfp_lock_release
                0x000000000800462c                __sinit_lock_acquire
                0x0000000008004630                __sinit_lock_release
                0x0000000008004634                __fp_lock_all
                0x0000000008004648                __fp_unlock_all
 .text          0x000000000800465c       0x44 /usr/lib/gcc/arm-none-eabi/9.2.1/../../../arm-none-eabi/lib/thumb/v7e-m/nofp/libc_nano.a(lib_a-fprintf.o)
                0x000000000800465c                _fprintf_r
                0x000000000800465c                _fiprintf_r
                0x0000000008004678                fprintf
                0x0000000008004678                fiprintf
 .text          0x00000000080046a0       0xa0 /usr/lib/gcc/arm-none-eabi/9.2.1/../../../arm-none-eabi/lib/thumb/v7e-m/nofp/libc_nano.a(lib_a-fwalk.o)
                0x00000000080046a0                _fwalk
                0x00000000080046ec                _fwalk_reent
 .text          0x0000000008004740       0x14 /usr/lib/gcc/arm-none-eabi/9.2.1/../../../arm-none-eabi/lib/thumb/v7e-m/nofp/libc_nano.a(lib_a-localeconv.o)
                0x0000000008004740                __localeconv_l
                0x0000000008004744                _localeconv_r
                0x000000000800474c                localeconv
 .text          0x0000000008004754       0xf0 /usr/lib/gcc/arm-none-eabi/9.2.1/../../../arm-none-eabi/lib/thumb/v7e-m/nofp/libc_nano.a(lib_a-makebuf.o)
                0x0000000008004754                __swhatbuf_r
                0x00000000080047b0                __smakebuf_r
 *fill*         0x0000000008004844        0xc 
 .text          0x0000000008004850       0xa0 /usr/lib/gcc/arm-none-eabi/9.2.1/../../../arm-none-eabi/lib/thumb/v7e-m/nofp/libc_nano.a(lib_a-memchr.o)
                0x0000000008004850                memchr
 .text          0x00000000080048f0        0x8 /usr/lib/gcc/arm-none-eabi/9.2.1/../../../arm-none-eabi/lib/thumb/v7e-m/nofp/libc_nano.a(lib_a-mlock.o)
                0x00000000080048f0                __malloc_lock
                0x00000000080048f4                __malloc_unlock
 .text          0x00000000080048f8      0xa08 /usr/lib/gcc/arm-none-eabi/9.2.1/../../../arm-none-eabi/lib/thumb/v7e-m/nofp/libc_nano.a(lib_a-mprec.o)
                0x00000000080048f8                _Balloc
                0x0000000008004978                _Bfree
                0x00000000080049c4                __multadd
                0x0000000008004a64                __s2b
                0x0000000008004b10                __hi0bits
                0x0000000008004b50                __lo0bits
                0x0000000008004bb0                __i2b
                0x0000000008004bdc                __multiply
                0x0000000008004d28                __pow5mult
                0x0000000008004dec                __lshift
                0x0000000008004eb4                __mcmp
                0x0000000008004eec                __mdiff
                0x0000000008005014                __ulp
                0x0000000008005054                __b2d
                0x000000000800510c                __d2b
                0x00000000080051d0                __ratio
                0x000000000800522c                _mprec_log10
                0x0000000008005264                __copybits
                0x00000000080052ac                __any_on
 .text          0x0000000008005300       0x1c /usr/lib/gcc/arm-none-eabi/9.2.1/../../../arm-none-eabi/lib/thumb/v7e-m/nofp/libc_nano.a(lib_a-nano-callocr.o)
                0x0000000008005300                _calloc_r
 .text          0x000000000800531c       0x4c /usr/lib/gcc/arm-none-eabi/9.2.1/../../../arm-none-eabi/lib/thumb/v7e-m/nofp/libc_nano.a(lib_a-nano-reallocr.o)
                0x000000000800531c                _realloc_r
 .text          0x0000000008005368      0x360 /usr/lib/gcc/arm-none-eabi/9.2.1/../../../arm-none-eabi/lib/thumb/v7e-m/nofp/libc_nano.a(lib_a-nano-vfprintf.o)
                0x00000000080053a0                __sfputs_r
                0x00000000080053d0                __sprint_r
                0x00000000080053ec                _vfiprintf_r
                0x00000000080053ec                _vfprintf_r
                0x00000000080056b0                vfiprintf
                0x00000000080056b0                vfprintf
 .text          0x00000000080056c8       0x90 /usr/lib/gcc/arm-none-eabi/9.2.1/../../../arm-none-eabi/lib/thumb/v7e-m/nofp/libc_nano.a(lib_a-stdio.o)
                0x00000000080056c8                __sread
                0x00000000080056ec                __seofread
                0x00000000080056f0                __swrite
                0x0000000008005730                __sseek
                0x0000000008005750                __sclose
 .text          0x0000000008005758       0x48 /usr/lib/gcc/arm-none-eabi/9.2.1/../../../arm-none-eabi/lib/thumb/v7e-m/nofp/libc_nano.a(lib_a-assert.o)
                0x0000000008005758                __assert_func
                0x0000000008005794                __assert
 .text          0x00000000080057a0      0x308 /usr/lib/gcc/arm-none-eabi/9.2.1/../../../arm-none-eabi/lib/thumb/v7e-m/nofp/libc_nano.a(lib_a-fvwrite.o)
                0x00000000080057a0                __sfvwrite_r
 .text          0x0000000008005aa8       0x40 /usr/lib/gcc/arm-none-eabi/9.2.1/../../../arm-none-eabi/lib/thumb/v7e-m/nofp/libc_nano.a(lib_a-mbtowc_r.o)
                0x0000000008005aa8                _mbtowc_r
                0x0000000008005abc                __ascii_mbtowc
 .text          0x0000000008005ae8       0xd0 /usr/lib/gcc/arm-none-eabi/9.2.1/../../../arm-none-eabi/lib/thumb/v7e-m/nofp/libc_nano.a(lib_a-memmove.o)
                0x0000000008005ae8                memmove
 .text          0x0000000008005bb8       0x10 /usr/lib/gcc/arm-none-eabi/9.2.1/../../../arm-none-eabi/lib/thumb/v7e-m/nofp/libc_nano.a(lib_a-nano-msizer.o)
                0x0000000008005bb8                _malloc_usable_size_r
 .text          0x0000000008005bc8       0x30 /usr/lib/gcc/arm-none-eabi/9.2.1/../../../arm-none-eabi/lib/thumb/v7e-m/nofp/libc_nano.a(lib_a-wctomb_r.o)
                0x0000000008005bc8                _wctomb_r
                0x0000000008005bdc                __ascii_wctomb
 .text          0x0000000008005bf8       0x10 /usr/lib/gcc/arm-none-eabi/9.2.1/../../../arm-none-eabi/lib/thumb/v7e-m/nofp/libc_nano.a(lib_a-abort.o)
                0x0000000008005bf8                abort
 .text          0x0000000008005c08      0x150 /usr/lib/gcc/arm-none-eabi/9.2.1/../../../arm-none-eabi/lib/thumb/v7e-m/nofp/libc_nano.a(lib_a-signal.o)
                0x0000000008005c30                _init_signal_r
                0x0000000008005c3c                _signal_r
                0x0000000008005c70                _raise_r
                0x0000000008005cc4                __sigtramp_r
                0x0000000008005d14                raise
                0x0000000008005d24                signal
                0x0000000008005d34                _init_signal
                0x0000000008005d48                __sigtramp
 .text          0x0000000008005d58      0x110 /usr/lib/gcc/arm-none-eabi/9.2.1/thumb/v7e-m/nofp/libgcc.a(_arm_cmpdf2.o)
                0x0000000008005d58                __gtdf2
                0x0000000008005d58                __gedf2
                0x0000000008005d60                __ltdf2
                0x0000000008005d60                __ledf2
                0x0000000008005d68                __cmpdf2
                0x0000000008005d68                __eqdf2
                0x0000000008005d68                __nedf2
                0x0000000008005de4                __aeabi_cdrcmple
                0x0000000008005df4                __aeabi_cdcmple
                0x0000000008005df4                __aeabi_cdcmpeq
                0x0000000008005e04                __aeabi_dcmpeq
                0x0000000008005e18                __aeabi_dcmplt
                0x0000000008005e2c                __aeabi_dcmple
                0x0000000008005e40                __aeabi_dcmpge
                0x0000000008005e54                __aeabi_dcmpgt
 .text          0x0000000008005e68       0x2c /usr/lib/gcc/arm-none-eabi/9.2.1/thumb/v7e-m/nofp/libgcc.a(_arm_unorddf2.o)
                0x0000000008005e68                __aeabi_dcmpun
                0x0000000008005e68                __unorddf2
 .text          0x0000000008005e94       0x50 /usr/lib/gcc/arm-none-eabi/9.2.1/thumb/v7e-m/nofp/libgcc.a(_arm_fixdfsi.o)
                0x0000000008005e94                __fixdfsi
                0x0000000008005e94                __aeabi_d2iz
 *(.glue_7t)
 .glue_7t       0x0000000008005ee4        0x0 linker stubs
 *(.glue_7)
 .glue_7        0x0000000008005ee4        0x0 linker stubs
 *(.rodata .rodata* .gnu.linkonce.r.*)
 .rodata.loop.str1.1
                0x0000000008005ee4       0x42 /home/ch/RIOT/tests/capteur/bin/lora-e5-dev/application_tests_capteur/main.o
 .rodata.main_trampoline.str1.1
                0x0000000008005f26       0x3b /home/ch/RIOT/tests/capteur/bin/lora-e5-dev/core/init.o
 .rodata.kernel_init.str1.1
                0x0000000008005f61        0x5 /home/ch/RIOT/tests/capteur/bin/lora-e5-dev/core/init.o
 .rodata.core_panic.str1.1
                0x0000000008005f66       0x2e /home/ch/RIOT/tests/capteur/bin/lora-e5-dev/core/panic.o
 .rodata.assert_crash_message
                0x0000000008005f94       0x12 /home/ch/RIOT/tests/capteur/bin/lora-e5-dev/core/panic.o
                0x0000000008005f94                assert_crash_message
 .rodata._unschedule.str1.1
                0x0000000008005fa6       0x2f /home/ch/RIOT/tests/capteur/bin/lora-e5-dev/core/sched.o
 .rodata.panic_arch.str1.1
                0x0000000008005fd5        0xf /home/ch/RIOT/tests/capteur/bin/lora-e5-dev/cortexm_common/panic.o
 .rodata.nmi_default.str1.1
                0x0000000008005fe4        0xc /home/ch/RIOT/tests/capteur/bin/lora-e5-dev/cortexm_common/vectors_cortexm.o
 .rodata.mem_manage_default.str1.1
                0x0000000008005ff0       0x13 /home/ch/RIOT/tests/capteur/bin/lora-e5-dev/cortexm_common/vectors_cortexm.o
 .rodata.bus_fault_default.str1.1
                0x0000000008006003       0x12 /home/ch/RIOT/tests/capteur/bin/lora-e5-dev/cortexm_common/vectors_cortexm.o
 .rodata.usage_fault_default.str1.1
                0x0000000008006015       0x14 /home/ch/RIOT/tests/capteur/bin/lora-e5-dev/cortexm_common/vectors_cortexm.o
 .rodata.debug_mon_default.str1.1
                0x0000000008006029       0x12 /home/ch/RIOT/tests/capteur/bin/lora-e5-dev/cortexm_common/vectors_cortexm.o
 .rodata.dummy_handler_default.str1.1
                0x000000000800603b        0xe /home/ch/RIOT/tests/capteur/bin/lora-e5-dev/cortexm_common/vectors_cortexm.o
 .rodata.hard_fault_handler.str1.1
                0x0000000008006049      0x233 /home/ch/RIOT/tests/capteur/bin/lora-e5-dev/cortexm_common/vectors_cortexm.o
 .rodata.apbmul
                0x000000000800627c        0x4 /home/ch/RIOT/tests/capteur/bin/lora-e5-dev/cpu/cpu_common.o
 .rodata._exit.str1.1
                0x0000000008006280       0x1a /home/ch/RIOT/tests/capteur/bin/lora-e5-dev/newlib_syscalls_default/syscalls.o
 *fill*         0x000000000800629a        0x2 
 .rodata.timer_config
                0x000000000800629c       0x10 /home/ch/RIOT/tests/capteur/bin/lora-e5-dev/periph/timer.o
 .rodata.uart_config
                0x00000000080062ac       0x54 /home/ch/RIOT/tests/capteur/bin/lora-e5-dev/periph/uart.o
 .rodata        0x0000000008006300        0x4 /usr/lib/gcc/arm-none-eabi/9.2.1/../../../arm-none-eabi/lib/thumb/v7e-m/nofp/libc_nano.a(lib_a-impure.o)
                0x0000000008006300                _global_impure_ptr
 .rodata.str1.4
                0x0000000008006304       0x12 /usr/lib/gcc/arm-none-eabi/9.2.1/../../../arm-none-eabi/lib/thumb/v7e-m/nofp/libc_nano.a(lib_a-nano-vfprintf_float.o)
 *fill*         0x0000000008006316        0x2 
 .rodata.str1.4
                0x0000000008006318       0x25 /usr/lib/gcc/arm-none-eabi/9.2.1/../../../arm-none-eabi/lib/thumb/v7e-m/nofp/libc_nano.a(lib_a-nano-vfprintf_i.o)
 *fill*         0x000000000800633d        0x3 
 .rodata.str1.4
                0x0000000008006340       0x6d /usr/lib/gcc/arm-none-eabi/9.2.1/../../../arm-none-eabi/lib/thumb/v7e-m/nofp/libc_nano.a(lib_a-dtoa.o)
                                         0x71 (size before relaxing)
 *fill*         0x00000000080063ad        0x3 
 .rodata        0x00000000080063b0       0x60 /usr/lib/gcc/arm-none-eabi/9.2.1/../../../arm-none-eabi/lib/thumb/v7e-m/nofp/libc_nano.a(lib_a-findfp.o)
                0x00000000080063b0                __sf_fake_stderr
                0x00000000080063d0                __sf_fake_stdout
                0x00000000080063f0                __sf_fake_stdin
 .rodata        0x0000000008006410      0x128 /usr/lib/gcc/arm-none-eabi/9.2.1/../../../arm-none-eabi/lib/thumb/v7e-m/nofp/libc_nano.a(lib_a-mprec.o)
                0x0000000008006420                __mprec_tens
                0x00000000080064e8                __mprec_tinytens
                0x0000000008006510                __mprec_bigtens
 .rodata.str1.4
                0x0000000008006538       0x33 /usr/lib/gcc/arm-none-eabi/9.2.1/../../../arm-none-eabi/lib/thumb/v7e-m/nofp/libc_nano.a(lib_a-mprec.o)
                                         0x5d (size before relaxing)
 *fill*         0x000000000800656b        0x1 
 .rodata.str1.4
                0x000000000800656c       0x13 /usr/lib/gcc/arm-none-eabi/9.2.1/../../../arm-none-eabi/lib/thumb/v7e-m/nofp/libc_nano.a(lib_a-nano-vfprintf.o)
 *fill*         0x000000000800657f        0x1 
 .rodata.str1.4
                0x0000000008006580       0x3f /usr/lib/gcc/arm-none-eabi/9.2.1/../../../arm-none-eabi/lib/thumb/v7e-m/nofp/libc_nano.a(lib_a-assert.o)
                                         0x43 (size before relaxing)
 *fill*         0x00000000080065bf        0x1 
 .rodata.str1.4
                0x00000000080065c0        0xe /usr/lib/gcc/arm-none-eabi/9.2.1/../../../arm-none-eabi/lib/thumb/v7e-m/nofp/libc_nano.a(lib_a-locale.o)
                                         0x12 (size before relaxing)
 *fill*         0x00000000080065ce        0x2 
 .rodata        0x00000000080065d0      0x101 /usr/lib/gcc/arm-none-eabi/9.2.1/../../../arm-none-eabi/lib/thumb/v7e-m/nofp/libc_nano.a(lib_a-ctype_.o)
                0x00000000080065d0                _ctype_
 *(SORT_BY_NAME(.roxfa.*))
 *(.ARM.extab* .gnu.linkonce.armextab.*)
                0x00000000080066d4                . = ALIGN (0x4)
 *fill*         0x00000000080066d1        0x3 
 *(.init)
                0x00000000080066d4                . = ALIGN (0x4)
                0x00000000080066d4                __preinit_array_start = .
 *(.preinit_array)
                0x00000000080066d4                __preinit_array_end = .
                0x00000000080066d4                . = ALIGN (0x4)
                0x00000000080066d4                __init_array_start = .
 *(SORT_BY_NAME(.init_array.*))
 *(.init_array)
                0x00000000080066d4                __init_array_end = .
                0x00000000080066d4                . = ALIGN (0x4)
 *crtbegin.o(.ctors)
 *(EXCLUDE_FILE(*crtend.o) .ctors)
 *(SORT_BY_NAME(.ctors.*))
 *crtend.o(.ctors)
                0x00000000080066d4                . = ALIGN (0x4)
 *(.fini)
                0x00000000080066d4                . = ALIGN (0x4)
                0x00000000080066d4                __fini_array_start = .
 *(.fini_array)
 *(SORT_BY_NAME(.fini_array.*))
                0x00000000080066d4                __fini_array_end = .
 *crtbegin.o(.dtors)
 *(EXCLUDE_FILE(*crtend.o) .dtors)
 *(SORT_BY_NAME(.dtors.*))
 *crtend.o(.dtors)
                0x00000000080066d4                . = ALIGN (0x4)
                0x00000000080066d4                _efixed = .

.vfp11_veneer   0x00000000080066d4        0x0
 .vfp11_veneer  0x00000000080066d4        0x0 linker stubs

.v4_bx          0x00000000080066d4        0x0
 .v4_bx         0x00000000080066d4        0x0 linker stubs

.iplt           0x00000000080066d4        0x0
 .iplt          0x00000000080066d4        0x0 /home/ch/RIOT/tests/capteur/bin/lora-e5-dev/application_tests_capteur/main.o

.igot.plt       0x00000000080066d4        0x0
 .igot.plt      0x00000000080066d4        0x0 /home/ch/RIOT/tests/capteur/bin/lora-e5-dev/application_tests_capteur/main.o

.rel.dyn        0x00000000080066d4        0x0
 .rel.iplt      0x00000000080066d4        0x0 /home/ch/RIOT/tests/capteur/bin/lora-e5-dev/application_tests_capteur/main.o

.tdata          0x00000000080066d4        0x0
                0x00000000080066d4                __tdata_start = .
 *(.tdata .tdata.* .gnu.linkonce.td.*)
                0x00000000080066d4                __tdata_end = .
                0x00000000080066d4                __tdata_source = LOADADDR (.tdata)
                0x0000000000000000                __tdata_size = SIZEOF (.tdata)

.tbss           0x00000000080066d4        0x0
 *(.tbss .tbss.* .gnu.linkonce.tb.*)
 *(.tcommon)
                0x00000000080066d4                __tbss_end = .
                0x0000000000000000                __tls_size = (__tbss_end - __tdata_start)
                0x0000000000000000                __tbss_size = (__tls_size - __tdata_size)
                [!provide]                        PROVIDE (__exidx_start = .)

.ARM.exidx
 *(.ARM.exidx* .gnu.linkonce.armexidx.*)
                [!provide]                        PROVIDE (__exidx_end = .)
                0x00000000080066d4                . = ALIGN (0x4)

.eh_frame
 *(.eh_frame)
                0x00000000080066d4                . = ALIGN (0x4)
                0x00000000080066d4                _etext = .

.stack          0x0000000020000000      0x200
 *(.puf)
                0x0000000020000000                . = ALIGN (0x8)
                0x0000000020000000                _sstack = .
 *(.isr_stack)
 .isr_stack     0x0000000020000000      0x200 /home/ch/RIOT/tests/capteur/bin/lora-e5-dev/cortexm_common/vectors_cortexm.o
                0x0000000020000000                isr_stack
                0x0000000020000200                . = ALIGN (0x8)
                0x0000000020000200                _estack = .

.relocate       0x0000000020000200      0x1e4 load address 0x00000000080066d4
                0x0000000020000200                . = ALIGN (0x4)
                0x0000000020000200                _srelocate = .
 *(.ramfunc .ramfunc.*)
 *(.data .data.*)
 .data.pulse_time_out
                0x0000000020000200        0x4 /home/ch/RIOT/tests/capteur/bin/lora-e5-dev/application_tests_capteur/main.o
                0x0000000020000200                pulse_time_out
 .data.sampletime_s
                0x0000000020000204        0x4 /home/ch/RIOT/tests/capteur/bin/lora-e5-dev/application_tests_capteur/main.o
                0x0000000020000204                sampletime_s
 .data.heap_top
                0x0000000020000208        0x4 /home/ch/RIOT/tests/capteur/bin/lora-e5-dev/newlib_syscalls_default/syscalls.o
 .data.pm_blocker
                0x000000002000020c        0x4 /home/ch/RIOT/tests/capteur/bin/lora-e5-dev/pm_layered/pm.o
 .data          0x0000000020000210       0x64 /usr/lib/gcc/arm-none-eabi/9.2.1/../../../arm-none-eabi/lib/thumb/v7e-m/nofp/libc_nano.a(lib_a-impure.o)
                0x0000000020000210                _impure_ptr
 .data          0x0000000020000274      0x16c /usr/lib/gcc/arm-none-eabi/9.2.1/../../../arm-none-eabi/lib/thumb/v7e-m/nofp/libc_nano.a(lib_a-locale.o)
                0x0000000020000274                __global_locale
 *(SORT_BY_NAME(.xfa.*))
 *(.openocd .openocd.*)
 .openocd       0x00000000200003e0        0x2 /home/ch/RIOT/tests/capteur/bin/lora-e5-dev/core/sched.o
                0x00000000200003e0                _tcb_name_offset
                0x00000000200003e1                max_threads
                0x00000000200003e4                . = ALIGN (0x4)
 *fill*         0x00000000200003e2        0x2 
                0x00000000200003e4                _erelocate = .

.bss            0x00000000200003e8      0x758 load address 0x00000000080068b8
                0x00000000200003e8                . = ALIGN (0x4)
                0x00000000200003e8                _sbss = .
                0x00000000200003e8                _szero = .
 *(.bss .bss.*)
 .bss.concentration
                0x00000000200003e8        0x4 /home/ch/RIOT/tests/capteur/bin/lora-e5-dev/application_tests_capteur/main.o
                0x00000000200003e8                concentration
 *fill*         0x00000000200003ec        0x4 
 .bss.currenttime
                0x00000000200003f0        0x8 /home/ch/RIOT/tests/capteur/bin/lora-e5-dev/application_tests_capteur/main.o
                0x00000000200003f0                currenttime
 .bss.duration  0x00000000200003f8        0x4 /home/ch/RIOT/tests/capteur/bin/lora-e5-dev/application_tests_capteur/main.o
                0x00000000200003f8                duration
 .bss.lowpulseoccupancy
                0x00000000200003fc        0x4 /home/ch/RIOT/tests/capteur/bin/lora-e5-dev/application_tests_capteur/main.o
                0x00000000200003fc                lowpulseoccupancy
 .bss.pin       0x0000000020000400        0x4 /home/ch/RIOT/tests/capteur/bin/lora-e5-dev/application_tests_capteur/main.o
                0x0000000020000400                pin
 .bss.ratio     0x0000000020000404        0x4 /home/ch/RIOT/tests/capteur/bin/lora-e5-dev/application_tests_capteur/main.o
                0x0000000020000404                ratio
 .bss.starttime
                0x0000000020000408        0x8 /home/ch/RIOT/tests/capteur/bin/lora-e5-dev/application_tests_capteur/main.o
                0x0000000020000408                starttime
 .bss.main_stack
                0x0000000020000410      0x600 /home/ch/RIOT/tests/capteur/bin/lora-e5-dev/core/init.o
 .bss.crashed   0x0000000020000a10        0x4 /home/ch/RIOT/tests/capteur/bin/lora-e5-dev/core/panic.o
 .bss.runqueue_bitcache
                0x0000000020000a14        0x4 /home/ch/RIOT/tests/capteur/bin/lora-e5-dev/core/sched.o
 .bss.sched_active_pid
                0x0000000020000a18        0x2 /home/ch/RIOT/tests/capteur/bin/lora-e5-dev/core/sched.o
                0x0000000020000a18                sched_active_pid
 *fill*         0x0000000020000a1a        0x2 
 .bss.sched_active_thread
                0x0000000020000a1c        0x4 /home/ch/RIOT/tests/capteur/bin/lora-e5-dev/core/sched.o
                0x0000000020000a1c                sched_active_thread
 .bss.sched_context_switch_request
                0x0000000020000a20        0x4 /home/ch/RIOT/tests/capteur/bin/lora-e5-dev/core/sched.o
                0x0000000020000a20                sched_context_switch_request
 .bss.sched_num_threads
                0x0000000020000a24        0x4 /home/ch/RIOT/tests/capteur/bin/lora-e5-dev/core/sched.o
                0x0000000020000a24                sched_num_threads
 .bss.sched_runqueues
                0x0000000020000a28       0x40 /home/ch/RIOT/tests/capteur/bin/lora-e5-dev/core/sched.o
                0x0000000020000a28                sched_runqueues
 .bss.sched_threads
                0x0000000020000a68       0x84 /home/ch/RIOT/tests/capteur/bin/lora-e5-dev/core/sched.o
                0x0000000020000a68                sched_threads
 .bss._lock     0x0000000020000aec        0x4 /home/ch/RIOT/tests/capteur/bin/lora-e5-dev/malloc_thread_safe/malloc_wrappers.o
 .bss.isr_ctx   0x0000000020000af0        0x8 /home/ch/RIOT/tests/capteur/bin/lora-e5-dev/periph/timer.o
 .bss.isr_ctx   0x0000000020000af8       0x24 /home/ch/RIOT/tests/capteur/bin/lora-e5-dev/periph/uart.o
 .bss._in_handler
                0x0000000020000b1c        0x4 /home/ch/RIOT/tests/capteur/bin/lora-e5-dev/xtimer/xtimer_core.o
 .bss._lltimer_ongoing
                0x0000000020000b20        0x1 /home/ch/RIOT/tests/capteur/bin/lora-e5-dev/xtimer/xtimer_core.o
 *fill*         0x0000000020000b21        0x7 
 .bss._xtimer_current_time
                0x0000000020000b28        0x8 /home/ch/RIOT/tests/capteur/bin/lora-e5-dev/xtimer/xtimer_core.o
                0x0000000020000b28                _xtimer_current_time
 .bss.long_list_head
                0x0000000020000b30        0x4 /home/ch/RIOT/tests/capteur/bin/lora-e5-dev/xtimer/xtimer_core.o
 .bss.timer_list_head
                0x0000000020000b34        0x4 /home/ch/RIOT/tests/capteur/bin/lora-e5-dev/xtimer/xtimer_core.o
 .bss           0x0000000020000b38        0x8 /usr/lib/gcc/arm-none-eabi/9.2.1/../../../arm-none-eabi/lib/thumb/v7e-m/nofp/libc_nano.a(lib_a-nano-mallocr.o)
                0x0000000020000b38                __malloc_free_list
                0x0000000020000b3c                __malloc_sbrk_start
 *(COMMON)
                0x0000000020000b40                . = ALIGN (0x4)
                0x0000000020000b40                _ebss = .
                0x0000000020000b40                _ezero = .

.noinit         0x0000000020000b40        0x0 load address 0x00000000080068b8
                0x0000000020000b40                __noinit_start = .
 *(.noinit)
                0x0000000020000b40                . = ALIGN (0x4)
                0x0000000020000b40                __noinit_end = .
                0x0000000020000b40                . = ALIGN (0x4)
                0x0000000020000b40                _sheap = .
                0x0000000020010000                _eheap = (ORIGIN (ram) + LENGTH (ram))
                0x0000000020000000                _sram = ORIGIN (ram)
                0x0000000020010000                _eram = (ORIGIN (ram) + LENGTH (ram))
                0x0000000008000000                _srom = ORIGIN (rom)
                0x0000000008040000                _erom = (ORIGIN (rom) + LENGTH (rom))
                0x00000000080068b8                _sbackup_data_load = LOADADDR (.backup.data)

.backup.data    0x0000000000000000        0x0 load address 0x00000000080068b8
                0x0000000000000000                _sbackup_data = .
 *(.backup.data)
                0x0000000000000000                _ebackup_data = .
                0x0000000000000000                . = ALIGN (0x4)

.backup.bss     0x0000000000000000        0x0 load address 0x00000000080068b8
                0x0000000000000000                _sbackup_bss = .
 *(.backup.bss)
                0x0000000000000000                _ebackup_bss = .
                0x0000000000000000                . = ALIGN (0x4)

.heap3          0x0000000000000000        0x0 load address 0x00000000080068b8
                0x0000000000000000                _sheap1 = .
                0x0000000000000000                _eheap1 = (ORIGIN (bkup_ram) + LENGTH (bkup_ram))

.end_fw         0x00000000080068b8        0x0
                0x00000000080068b8                _end_fw = .
OUTPUT(/home/ch/RIOT/tests/capteur/bin/lora-e5-dev/tests_capteur.elf elf32-littlearm)
LOAD linker stubs

.debug_info     0x0000000000000000    0x46bf8
 .debug_info    0x0000000000000000     0x18e7 /home/ch/RIOT/tests/capteur/bin/lora-e5-dev/application_tests_capteur/main.o
 .debug_info    0x00000000000018e7      0xd3f /home/ch/RIOT/tests/capteur/bin/lora-e5-dev/auto_init/auto_init.o
 .debug_info    0x0000000000002626     0x16ab /home/ch/RIOT/tests/capteur/bin/lora-e5-dev/board/board.o
 .debug_info    0x0000000000003cd1      0xe90 /home/ch/RIOT/tests/capteur/bin/lora-e5-dev/core/init.o
 .debug_info    0x0000000000004b61     0x1b99 /home/ch/RIOT/tests/capteur/bin/lora-e5-dev/core/mutex.o
 .debug_info    0x00000000000066fa      0xf0b /home/ch/RIOT/tests/capteur/bin/lora-e5-dev/core/panic.o
 .debug_info    0x0000000000007605     0x14b1 /home/ch/RIOT/tests/capteur/bin/lora-e5-dev/core/sched.o
 .debug_info    0x0000000000008ab6     0x1e7a /home/ch/RIOT/tests/capteur/bin/lora-e5-dev/core/thread.o
 .debug_info    0x000000000000a930     0x1386 /home/ch/RIOT/tests/capteur/bin/lora-e5-dev/cortexm_common/cortexm_init.o
 .debug_info    0x000000000000bcb6      0xd6b /home/ch/RIOT/tests/capteur/bin/lora-e5-dev/cortexm_common/panic.o
 .debug_info    0x000000000000ca21     0x12a1 /home/ch/RIOT/tests/capteur/bin/lora-e5-dev/cortexm_common/thread_arch.o
 .debug_info    0x000000000000dcc2     0x172a /home/ch/RIOT/tests/capteur/bin/lora-e5-dev/cortexm_common/vectors_cortexm.o
 .debug_info    0x000000000000f3ec     0x18d9 /home/ch/RIOT/tests/capteur/bin/lora-e5-dev/cpu/cpu_common.o
 .debug_info    0x0000000000010cc5     0x1609 /home/ch/RIOT/tests/capteur/bin/lora-e5-dev/cpu/cpu_init.o
 .debug_info    0x00000000000122ce      0xa2f /home/ch/RIOT/tests/capteur/bin/lora-e5-dev/div/div.o
 .debug_info    0x0000000000012cfd     0x10e0 /home/ch/RIOT/tests/capteur/bin/lora-e5-dev/malloc_thread_safe/malloc_wrappers.o
 .debug_info    0x0000000000013ddd     0x252d /home/ch/RIOT/tests/capteur/bin/lora-e5-dev/newlib_syscalls_default/syscalls.o
 .debug_info    0x000000000001630a      0xc8e /home/ch/RIOT/tests/capteur/bin/lora-e5-dev/periph_common/init.o
 .debug_info    0x0000000000016f98     0x1e4a /home/ch/RIOT/tests/capteur/bin/lora-e5-dev/periph/gpio_all.o
 .debug_info    0x0000000000018de2     0x11a8 /home/ch/RIOT/tests/capteur/bin/lora-e5-dev/periph/pm.o
 .debug_info    0x0000000000019f8a     0x1ec4 /home/ch/RIOT/tests/capteur/bin/lora-e5-dev/periph/timer.o
 .debug_info    0x000000000001be4e     0x2236 /home/ch/RIOT/tests/capteur/bin/lora-e5-dev/periph/uart.o
 .debug_info    0x000000000001e084     0x11b7 /home/ch/RIOT/tests/capteur/bin/lora-e5-dev/pm_layered/pm.o
 .debug_info    0x000000000001f23b     0x16bf /home/ch/RIOT/tests/capteur/bin/lora-e5-dev/stdio_uart/stdio_uart.o
 .debug_info    0x00000000000208fa     0x195f /home/ch/RIOT/tests/capteur/bin/lora-e5-dev/stm32_clk/stmclk_common.o
 .debug_info    0x0000000000022259     0x19ee /home/ch/RIOT/tests/capteur/bin/lora-e5-dev/stm32_clk/stmclk_l4wx.o
 .debug_info    0x0000000000023c47      0x2a0 /home/ch/RIOT/tests/capteur/bin/lora-e5-dev/stm32_vectors/STM32WLE5xx.o
 .debug_info    0x0000000000023ee7     0x2083 /home/ch/RIOT/tests/capteur/bin/lora-e5-dev/xtimer/xtimer_core.o
 .debug_info    0x0000000000025f6a       0x26 /usr/lib/gcc/arm-none-eabi/9.2.1/thumb/v7e-m/nofp/libgcc.a(_arm_mulsf3.o)
 .debug_info    0x0000000000025f90       0x26 /usr/lib/gcc/arm-none-eabi/9.2.1/thumb/v7e-m/nofp/libgcc.a(_arm_addsubdf3.o)
 .debug_info    0x0000000000025fb6       0x26 /usr/lib/gcc/arm-none-eabi/9.2.1/thumb/v7e-m/nofp/libgcc.a(_arm_muldivdf3.o)
 .debug_info    0x0000000000025fdc       0x26 /usr/lib/gcc/arm-none-eabi/9.2.1/thumb/v7e-m/nofp/libgcc.a(_arm_truncdfsf2.o)
 .debug_info    0x0000000000026002       0x26 /usr/lib/gcc/arm-none-eabi/9.2.1/thumb/v7e-m/nofp/libgcc.a(_arm_fixsfsi.o)
 .debug_info    0x0000000000026028      0x92a /usr/lib/gcc/arm-none-eabi/9.2.1/../../../arm-none-eabi/lib/thumb/v7e-m/nofp/libc_nano.a(lib_a-impure.o)
 .debug_info    0x0000000000026952      0x11a /usr/lib/gcc/arm-none-eabi/9.2.1/../../../arm-none-eabi/lib/thumb/v7e-m/nofp/libc_nano.a(lib_a-init.o)
 .debug_info    0x0000000000026a6c      0x9b6 /usr/lib/gcc/arm-none-eabi/9.2.1/../../../arm-none-eabi/lib/thumb/v7e-m/nofp/libc_nano.a(lib_a-malloc.o)
 .debug_info    0x0000000000027422       0x26 /usr/lib/gcc/arm-none-eabi/9.2.1/../../../arm-none-eabi/lib/thumb/v7e-m/nofp/libc_nano.a(lib_a-memcpy.o)
 .debug_info    0x0000000000027448      0xf21 /usr/lib/gcc/arm-none-eabi/9.2.1/../../../arm-none-eabi/lib/thumb/v7e-m/nofp/libc_nano.a(lib_a-memset.o)
 .debug_info    0x0000000000028369      0xb85 /usr/lib/gcc/arm-none-eabi/9.2.1/../../../arm-none-eabi/lib/thumb/v7e-m/nofp/libc_nano.a(lib_a-nano-freer.o)
 .debug_info    0x0000000000028eee      0xc5a /usr/lib/gcc/arm-none-eabi/9.2.1/../../../arm-none-eabi/lib/thumb/v7e-m/nofp/libc_nano.a(lib_a-nano-mallocr.o)
 .debug_info    0x0000000000029b48     0x1adb /usr/lib/gcc/arm-none-eabi/9.2.1/../../../arm-none-eabi/lib/thumb/v7e-m/nofp/libc_nano.a(lib_a-nano-vfprintf_float.o)
 .debug_info    0x000000000002b623     0x1592 /usr/lib/gcc/arm-none-eabi/9.2.1/../../../arm-none-eabi/lib/thumb/v7e-m/nofp/libc_nano.a(lib_a-nano-vfprintf_i.o)
 .debug_info    0x000000000002cbb5      0xc67 /usr/lib/gcc/arm-none-eabi/9.2.1/../../../arm-none-eabi/lib/thumb/v7e-m/nofp/libc_nano.a(lib_a-printf.o)
 .debug_info    0x000000000002d81c      0xd13 /usr/lib/gcc/arm-none-eabi/9.2.1/../../../arm-none-eabi/lib/thumb/v7e-m/nofp/libc_nano.a(lib_a-puts.o)
 .debug_info    0x000000000002e52f       0x26 /usr/lib/gcc/arm-none-eabi/9.2.1/../../../arm-none-eabi/lib/thumb/v7e-m/nofp/libc_nano.a(lib_a-strlen.o)
 .debug_info    0x000000000002e555      0x9f9 /usr/lib/gcc/arm-none-eabi/9.2.1/../../../arm-none-eabi/lib/thumb/v7e-m/nofp/libc_nano.a(lib_a-time.o)
 .debug_info    0x000000000002ef4e      0xc90 /usr/lib/gcc/arm-none-eabi/9.2.1/../../../arm-none-eabi/lib/thumb/v7e-m/nofp/libc_nano.a(lib_a-wbuf.o)
 .debug_info    0x000000000002fbde      0xbfa /usr/lib/gcc/arm-none-eabi/9.2.1/../../../arm-none-eabi/lib/thumb/v7e-m/nofp/libc_nano.a(lib_a-wsetup.o)
 .debug_info    0x00000000000307d8     0x1b3c /usr/lib/gcc/arm-none-eabi/9.2.1/../../../arm-none-eabi/lib/thumb/v7e-m/nofp/libc_nano.a(lib_a-dtoa.o)
 .debug_info    0x0000000000032314      0xd73 /usr/lib/gcc/arm-none-eabi/9.2.1/../../../arm-none-eabi/lib/thumb/v7e-m/nofp/libc_nano.a(lib_a-fflush.o)
 .debug_info    0x0000000000033087     0x11a8 /usr/lib/gcc/arm-none-eabi/9.2.1/../../../arm-none-eabi/lib/thumb/v7e-m/nofp/libc_nano.a(lib_a-findfp.o)
 .debug_info    0x000000000003422f      0xa7a /usr/lib/gcc/arm-none-eabi/9.2.1/../../../arm-none-eabi/lib/thumb/v7e-m/nofp/libc_nano.a(lib_a-fprintf.o)
 .debug_info    0x0000000000034ca9      0xca4 /usr/lib/gcc/arm-none-eabi/9.2.1/../../../arm-none-eabi/lib/thumb/v7e-m/nofp/libc_nano.a(lib_a-fwalk.o)
 .debug_info    0x000000000003594d      0xf49 /usr/lib/gcc/arm-none-eabi/9.2.1/../../../arm-none-eabi/lib/thumb/v7e-m/nofp/libc_nano.a(lib_a-localeconv.o)
 .debug_info    0x0000000000036896      0xf68 /usr/lib/gcc/arm-none-eabi/9.2.1/../../../arm-none-eabi/lib/thumb/v7e-m/nofp/libc_nano.a(lib_a-makebuf.o)
 .debug_info    0x00000000000377fe       0x26 /usr/lib/gcc/arm-none-eabi/9.2.1/../../../arm-none-eabi/lib/thumb/v7e-m/nofp/libc_nano.a(lib_a-memchr.o)
 .debug_info    0x0000000000037824      0x961 /usr/lib/gcc/arm-none-eabi/9.2.1/../../../arm-none-eabi/lib/thumb/v7e-m/nofp/libc_nano.a(lib_a-mlock.o)
 .debug_info    0x0000000000038185     0x240f /usr/lib/gcc/arm-none-eabi/9.2.1/../../../arm-none-eabi/lib/thumb/v7e-m/nofp/libc_nano.a(lib_a-mprec.o)
 .debug_info    0x000000000003a594      0xafe /usr/lib/gcc/arm-none-eabi/9.2.1/../../../arm-none-eabi/lib/thumb/v7e-m/nofp/libc_nano.a(lib_a-nano-callocr.o)
 .debug_info    0x000000000003b092      0xb77 /usr/lib/gcc/arm-none-eabi/9.2.1/../../../arm-none-eabi/lib/thumb/v7e-m/nofp/libc_nano.a(lib_a-nano-reallocr.o)
 .debug_info    0x000000000003bc09     0x176a /usr/lib/gcc/arm-none-eabi/9.2.1/../../../arm-none-eabi/lib/thumb/v7e-m/nofp/libc_nano.a(lib_a-nano-vfprintf.o)
 .debug_info    0x000000000003d373      0xe67 /usr/lib/gcc/arm-none-eabi/9.2.1/../../../arm-none-eabi/lib/thumb/v7e-m/nofp/libc_nano.a(lib_a-stdio.o)
 .debug_info    0x000000000003e1da      0xa41 /usr/lib/gcc/arm-none-eabi/9.2.1/../../../arm-none-eabi/lib/thumb/v7e-m/nofp/libc_nano.a(lib_a-assert.o)
 .debug_info    0x000000000003ec1b      0xeed /usr/lib/gcc/arm-none-eabi/9.2.1/../../../arm-none-eabi/lib/thumb/v7e-m/nofp/libc_nano.a(lib_a-fvwrite.o)
 .debug_info    0x000000000003fb08     0x10ca /usr/lib/gcc/arm-none-eabi/9.2.1/../../../arm-none-eabi/lib/thumb/v7e-m/nofp/libc_nano.a(lib_a-locale.o)
 .debug_info    0x0000000000040bd2     0x1044 /usr/lib/gcc/arm-none-eabi/9.2.1/../../../arm-none-eabi/lib/thumb/v7e-m/nofp/libc_nano.a(lib_a-mbtowc_r.o)
 .debug_info    0x0000000000041c16      0xf2b /usr/lib/gcc/arm-none-eabi/9.2.1/../../../arm-none-eabi/lib/thumb/v7e-m/nofp/libc_nano.a(lib_a-memmove.o)
 .debug_info    0x0000000000042b41      0xaa6 /usr/lib/gcc/arm-none-eabi/9.2.1/../../../arm-none-eabi/lib/thumb/v7e-m/nofp/libc_nano.a(lib_a-nano-msizer.o)
 .debug_info    0x00000000000435e7      0xffd /usr/lib/gcc/arm-none-eabi/9.2.1/../../../arm-none-eabi/lib/thumb/v7e-m/nofp/libc_nano.a(lib_a-wctomb_r.o)
 .debug_info    0x00000000000445e4      0x9b5 /usr/lib/gcc/arm-none-eabi/9.2.1/../../../arm-none-eabi/lib/thumb/v7e-m/nofp/libc_nano.a(lib_a-abort.o)
 .debug_info    0x0000000000044f99      0xe91 /usr/lib/gcc/arm-none-eabi/9.2.1/../../../arm-none-eabi/lib/thumb/v7e-m/nofp/libc_nano.a(lib_a-ctype_.o)
 .debug_info    0x0000000000045e2a      0xd5c /usr/lib/gcc/arm-none-eabi/9.2.1/../../../arm-none-eabi/lib/thumb/v7e-m/nofp/libc_nano.a(lib_a-signal.o)
 .debug_info    0x0000000000046b86       0x26 /usr/lib/gcc/arm-none-eabi/9.2.1/thumb/v7e-m/nofp/libgcc.a(_arm_cmpdf2.o)
 .debug_info    0x0000000000046bac       0x26 /usr/lib/gcc/arm-none-eabi/9.2.1/thumb/v7e-m/nofp/libgcc.a(_arm_unorddf2.o)
 .debug_info    0x0000000000046bd2       0x26 /usr/lib/gcc/arm-none-eabi/9.2.1/thumb/v7e-m/nofp/libgcc.a(_arm_fixdfsi.o)

.debug_abbrev   0x0000000000000000     0xbda7
 .debug_abbrev  0x0000000000000000      0x399 /home/ch/RIOT/tests/capteur/bin/lora-e5-dev/application_tests_capteur/main.o
 .debug_abbrev  0x0000000000000399      0x231 /home/ch/RIOT/tests/capteur/bin/lora-e5-dev/auto_init/auto_init.o
 .debug_abbrev  0x00000000000005ca      0x2c6 /home/ch/RIOT/tests/capteur/bin/lora-e5-dev/board/board.o
 .debug_abbrev  0x0000000000000890      0x32c /home/ch/RIOT/tests/capteur/bin/lora-e5-dev/core/init.o
 .debug_abbrev  0x0000000000000bbc      0x40d /home/ch/RIOT/tests/capteur/bin/lora-e5-dev/core/mutex.o
 .debug_abbrev  0x0000000000000fc9      0x364 /home/ch/RIOT/tests/capteur/bin/lora-e5-dev/core/panic.o
 .debug_abbrev  0x000000000000132d      0x4d7 /home/ch/RIOT/tests/capteur/bin/lora-e5-dev/core/sched.o
 .debug_abbrev  0x0000000000001804      0x532 /home/ch/RIOT/tests/capteur/bin/lora-e5-dev/core/thread.o
 .debug_abbrev  0x0000000000001d36      0x3b5 /home/ch/RIOT/tests/capteur/bin/lora-e5-dev/cortexm_common/cortexm_init.o
 .debug_abbrev  0x00000000000020eb      0x2fe /home/ch/RIOT/tests/capteur/bin/lora-e5-dev/cortexm_common/panic.o
 .debug_abbrev  0x00000000000023e9      0x48e /home/ch/RIOT/tests/capteur/bin/lora-e5-dev/cortexm_common/thread_arch.o
 .debug_abbrev  0x0000000000002877      0x495 /home/ch/RIOT/tests/capteur/bin/lora-e5-dev/cortexm_common/vectors_cortexm.o
 .debug_abbrev  0x0000000000002d0c      0x37d /home/ch/RIOT/tests/capteur/bin/lora-e5-dev/cpu/cpu_common.o
 .debug_abbrev  0x0000000000003089      0x2ee /home/ch/RIOT/tests/capteur/bin/lora-e5-dev/cpu/cpu_init.o
 .debug_abbrev  0x0000000000003377      0x1d2 /home/ch/RIOT/tests/capteur/bin/lora-e5-dev/div/div.o
 .debug_abbrev  0x0000000000003549      0x3f1 /home/ch/RIOT/tests/capteur/bin/lora-e5-dev/malloc_thread_safe/malloc_wrappers.o
 .debug_abbrev  0x000000000000393a      0x55e /home/ch/RIOT/tests/capteur/bin/lora-e5-dev/newlib_syscalls_default/syscalls.o
 .debug_abbrev  0x0000000000003e98      0x26a /home/ch/RIOT/tests/capteur/bin/lora-e5-dev/periph_common/init.o
 .debug_abbrev  0x0000000000004102      0x3ee /home/ch/RIOT/tests/capteur/bin/lora-e5-dev/periph/gpio_all.o
 .debug_abbrev  0x00000000000044f0      0x3cc /home/ch/RIOT/tests/capteur/bin/lora-e5-dev/periph/pm.o
 .debug_abbrev  0x00000000000048bc      0x47e /home/ch/RIOT/tests/capteur/bin/lora-e5-dev/periph/timer.o
 .debug_abbrev  0x0000000000004d3a      0x52b /home/ch/RIOT/tests/capteur/bin/lora-e5-dev/periph/uart.o
 .debug_abbrev  0x0000000000005265      0x3a1 /home/ch/RIOT/tests/capteur/bin/lora-e5-dev/pm_layered/pm.o
 .debug_abbrev  0x0000000000005606      0x344 /home/ch/RIOT/tests/capteur/bin/lora-e5-dev/stdio_uart/stdio_uart.o
 .debug_abbrev  0x000000000000594a      0x2fb /home/ch/RIOT/tests/capteur/bin/lora-e5-dev/stm32_clk/stmclk_common.o
 .debug_abbrev  0x0000000000005c45      0x39b /home/ch/RIOT/tests/capteur/bin/lora-e5-dev/stm32_clk/stmclk_l4wx.o
 .debug_abbrev  0x0000000000005fe0       0xf4 /home/ch/RIOT/tests/capteur/bin/lora-e5-dev/stm32_vectors/STM32WLE5xx.o
 .debug_abbrev  0x00000000000060d4      0x541 /home/ch/RIOT/tests/capteur/bin/lora-e5-dev/xtimer/xtimer_core.o
 .debug_abbrev  0x0000000000006615       0x14 /usr/lib/gcc/arm-none-eabi/9.2.1/thumb/v7e-m/nofp/libgcc.a(_arm_mulsf3.o)
 .debug_abbrev  0x0000000000006629       0x14 /usr/lib/gcc/arm-none-eabi/9.2.1/thumb/v7e-m/nofp/libgcc.a(_arm_addsubdf3.o)
 .debug_abbrev  0x000000000000663d       0x14 /usr/lib/gcc/arm-none-eabi/9.2.1/thumb/v7e-m/nofp/libgcc.a(_arm_muldivdf3.o)
 .debug_abbrev  0x0000000000006651       0x14 /usr/lib/gcc/arm-none-eabi/9.2.1/thumb/v7e-m/nofp/libgcc.a(_arm_truncdfsf2.o)
 .debug_abbrev  0x0000000000006665       0x14 /usr/lib/gcc/arm-none-eabi/9.2.1/thumb/v7e-m/nofp/libgcc.a(_arm_fixsfsi.o)
 .debug_abbrev  0x0000000000006679      0x17a /usr/lib/gcc/arm-none-eabi/9.2.1/../../../arm-none-eabi/lib/thumb/v7e-m/nofp/libc_nano.a(lib_a-impure.o)
 .debug_abbrev  0x00000000000067f3       0xcc /usr/lib/gcc/arm-none-eabi/9.2.1/../../../arm-none-eabi/lib/thumb/v7e-m/nofp/libc_nano.a(lib_a-init.o)
 .debug_abbrev  0x00000000000068bf      0x1f2 /usr/lib/gcc/arm-none-eabi/9.2.1/../../../arm-none-eabi/lib/thumb/v7e-m/nofp/libc_nano.a(lib_a-malloc.o)
 .debug_abbrev  0x0000000000006ab1       0x14 /usr/lib/gcc/arm-none-eabi/9.2.1/../../../arm-none-eabi/lib/thumb/v7e-m/nofp/libc_nano.a(lib_a-memcpy.o)
 .debug_abbrev  0x0000000000006ac5      0x1d9 /usr/lib/gcc/arm-none-eabi/9.2.1/../../../arm-none-eabi/lib/thumb/v7e-m/nofp/libc_nano.a(lib_a-memset.o)
 .debug_abbrev  0x0000000000006c9e      0x286 /usr/lib/gcc/arm-none-eabi/9.2.1/../../../arm-none-eabi/lib/thumb/v7e-m/nofp/libc_nano.a(lib_a-nano-freer.o)
 .debug_abbrev  0x0000000000006f24      0x2d1 /usr/lib/gcc/arm-none-eabi/9.2.1/../../../arm-none-eabi/lib/thumb/v7e-m/nofp/libc_nano.a(lib_a-nano-mallocr.o)
 .debug_abbrev  0x00000000000071f5      0x351 /usr/lib/gcc/arm-none-eabi/9.2.1/../../../arm-none-eabi/lib/thumb/v7e-m/nofp/libc_nano.a(lib_a-nano-vfprintf_float.o)
 .debug_abbrev  0x0000000000007546      0x2dc /usr/lib/gcc/arm-none-eabi/9.2.1/../../../arm-none-eabi/lib/thumb/v7e-m/nofp/libc_nano.a(lib_a-nano-vfprintf_i.o)
 .debug_abbrev  0x0000000000007822      0x29f /usr/lib/gcc/arm-none-eabi/9.2.1/../../../arm-none-eabi/lib/thumb/v7e-m/nofp/libc_nano.a(lib_a-printf.o)
 .debug_abbrev  0x0000000000007ac1      0x2de /usr/lib/gcc/arm-none-eabi/9.2.1/../../../arm-none-eabi/lib/thumb/v7e-m/nofp/libc_nano.a(lib_a-puts.o)
 .debug_abbrev  0x0000000000007d9f       0x14 /usr/lib/gcc/arm-none-eabi/9.2.1/../../../arm-none-eabi/lib/thumb/v7e-m/nofp/libc_nano.a(lib_a-strlen.o)
 .debug_abbrev  0x0000000000007db3      0x1e4 /usr/lib/gcc/arm-none-eabi/9.2.1/../../../arm-none-eabi/lib/thumb/v7e-m/nofp/libc_nano.a(lib_a-time.o)
 .debug_abbrev  0x0000000000007f97      0x285 /usr/lib/gcc/arm-none-eabi/9.2.1/../../../arm-none-eabi/lib/thumb/v7e-m/nofp/libc_nano.a(lib_a-wbuf.o)
 .debug_abbrev  0x000000000000821c      0x23a /usr/lib/gcc/arm-none-eabi/9.2.1/../../../arm-none-eabi/lib/thumb/v7e-m/nofp/libc_nano.a(lib_a-wsetup.o)
 .debug_abbrev  0x0000000000008456      0x310 /usr/lib/gcc/arm-none-eabi/9.2.1/../../../arm-none-eabi/lib/thumb/v7e-m/nofp/libc_nano.a(lib_a-dtoa.o)
 .debug_abbrev  0x0000000000008766      0x2e4 /usr/lib/gcc/arm-none-eabi/9.2.1/../../../arm-none-eabi/lib/thumb/v7e-m/nofp/libc_nano.a(lib_a-fflush.o)
 .debug_abbrev  0x0000000000008a4a      0x3dc /usr/lib/gcc/arm-none-eabi/9.2.1/../../../arm-none-eabi/lib/thumb/v7e-m/nofp/libc_nano.a(lib_a-findfp.o)
 .debug_abbrev  0x0000000000008e26      0x23c /usr/lib/gcc/arm-none-eabi/9.2.1/../../../arm-none-eabi/lib/thumb/v7e-m/nofp/libc_nano.a(lib_a-fprintf.o)
 .debug_abbrev  0x0000000000009062      0x210 /usr/lib/gcc/arm-none-eabi/9.2.1/../../../arm-none-eabi/lib/thumb/v7e-m/nofp/libc_nano.a(lib_a-fwalk.o)
 .debug_abbrev  0x0000000000009272      0x23f /usr/lib/gcc/arm-none-eabi/9.2.1/../../../arm-none-eabi/lib/thumb/v7e-m/nofp/libc_nano.a(lib_a-localeconv.o)
 .debug_abbrev  0x00000000000094b1      0x2f6 /usr/lib/gcc/arm-none-eabi/9.2.1/../../../arm-none-eabi/lib/thumb/v7e-m/nofp/libc_nano.a(lib_a-makebuf.o)
 .debug_abbrev  0x00000000000097a7       0x14 /usr/lib/gcc/arm-none-eabi/9.2.1/../../../arm-none-eabi/lib/thumb/v7e-m/nofp/libc_nano.a(lib_a-memchr.o)
 .debug_abbrev  0x00000000000097bb      0x1c5 /usr/lib/gcc/arm-none-eabi/9.2.1/../../../arm-none-eabi/lib/thumb/v7e-m/nofp/libc_nano.a(lib_a-mlock.o)
 .debug_abbrev  0x0000000000009980      0x474 /usr/lib/gcc/arm-none-eabi/9.2.1/../../../arm-none-eabi/lib/thumb/v7e-m/nofp/libc_nano.a(lib_a-mprec.o)
 .debug_abbrev  0x0000000000009df4      0x20d /usr/lib/gcc/arm-none-eabi/9.2.1/../../../arm-none-eabi/lib/thumb/v7e-m/nofp/libc_nano.a(lib_a-nano-callocr.o)
 .debug_abbrev  0x000000000000a001      0x22a /usr/lib/gcc/arm-none-eabi/9.2.1/../../../arm-none-eabi/lib/thumb/v7e-m/nofp/libc_nano.a(lib_a-nano-reallocr.o)
 .debug_abbrev  0x000000000000a22b      0x337 /usr/lib/gcc/arm-none-eabi/9.2.1/../../../arm-none-eabi/lib/thumb/v7e-m/nofp/libc_nano.a(lib_a-nano-vfprintf.o)
 .debug_abbrev  0x000000000000a562      0x26f /usr/lib/gcc/arm-none-eabi/9.2.1/../../../arm-none-eabi/lib/thumb/v7e-m/nofp/libc_nano.a(lib_a-stdio.o)
 .debug_abbrev  0x000000000000a7d1      0x1ff /usr/lib/gcc/arm-none-eabi/9.2.1/../../../arm-none-eabi/lib/thumb/v7e-m/nofp/libc_nano.a(lib_a-assert.o)
 .debug_abbrev  0x000000000000a9d0      0x270 /usr/lib/gcc/arm-none-eabi/9.2.1/../../../arm-none-eabi/lib/thumb/v7e-m/nofp/libc_nano.a(lib_a-fvwrite.o)
 .debug_abbrev  0x000000000000ac40      0x2aa /usr/lib/gcc/arm-none-eabi/9.2.1/../../../arm-none-eabi/lib/thumb/v7e-m/nofp/libc_nano.a(lib_a-locale.o)
 .debug_abbrev  0x000000000000aeea      0x221 /usr/lib/gcc/arm-none-eabi/9.2.1/../../../arm-none-eabi/lib/thumb/v7e-m/nofp/libc_nano.a(lib_a-mbtowc_r.o)
 .debug_abbrev  0x000000000000b10b      0x1de /usr/lib/gcc/arm-none-eabi/9.2.1/../../../arm-none-eabi/lib/thumb/v7e-m/nofp/libc_nano.a(lib_a-memmove.o)
 .debug_abbrev  0x000000000000b2e9      0x1e5 /usr/lib/gcc/arm-none-eabi/9.2.1/../../../arm-none-eabi/lib/thumb/v7e-m/nofp/libc_nano.a(lib_a-nano-msizer.o)
 .debug_abbrev  0x000000000000b4ce      0x22b /usr/lib/gcc/arm-none-eabi/9.2.1/../../../arm-none-eabi/lib/thumb/v7e-m/nofp/libc_nano.a(lib_a-wctomb_r.o)
 .debug_abbrev  0x000000000000b6f9      0x1cd /usr/lib/gcc/arm-none-eabi/9.2.1/../../../arm-none-eabi/lib/thumb/v7e-m/nofp/libc_nano.a(lib_a-abort.o)
 .debug_abbrev  0x000000000000b8c6      0x178 /usr/lib/gcc/arm-none-eabi/9.2.1/../../../arm-none-eabi/lib/thumb/v7e-m/nofp/libc_nano.a(lib_a-ctype_.o)
 .debug_abbrev  0x000000000000ba3e      0x32d /usr/lib/gcc/arm-none-eabi/9.2.1/../../../arm-none-eabi/lib/thumb/v7e-m/nofp/libc_nano.a(lib_a-signal.o)
 .debug_abbrev  0x000000000000bd6b       0x14 /usr/lib/gcc/arm-none-eabi/9.2.1/thumb/v7e-m/nofp/libgcc.a(_arm_cmpdf2.o)
 .debug_abbrev  0x000000000000bd7f       0x14 /usr/lib/gcc/arm-none-eabi/9.2.1/thumb/v7e-m/nofp/libgcc.a(_arm_unorddf2.o)
 .debug_abbrev  0x000000000000bd93       0x14 /usr/lib/gcc/arm-none-eabi/9.2.1/thumb/v7e-m/nofp/libgcc.a(_arm_fixdfsi.o)

.debug_loc      0x0000000000000000     0xeec5
 .debug_loc     0x0000000000000000      0x157 /home/ch/RIOT/tests/capteur/bin/lora-e5-dev/application_tests_capteur/main.o
 .debug_loc     0x0000000000000157       0x2a /home/ch/RIOT/tests/capteur/bin/lora-e5-dev/board/board.o
 .debug_loc     0x0000000000000181       0x4f /home/ch/RIOT/tests/capteur/bin/lora-e5-dev/core/init.o
 .debug_loc     0x00000000000001d0      0x7d2 /home/ch/RIOT/tests/capteur/bin/lora-e5-dev/core/mutex.o
 .debug_loc     0x00000000000009a2       0x86 /home/ch/RIOT/tests/capteur/bin/lora-e5-dev/core/panic.o
 .debug_loc     0x0000000000000a28      0x2ca /home/ch/RIOT/tests/capteur/bin/lora-e5-dev/core/sched.o
 .debug_loc     0x0000000000000cf2      0xb20 /home/ch/RIOT/tests/capteur/bin/lora-e5-dev/core/thread.o
 .debug_loc     0x0000000000001812      0x194 /home/ch/RIOT/tests/capteur/bin/lora-e5-dev/cortexm_common/cortexm_init.o
 .debug_loc     0x00000000000019a6       0x63 /home/ch/RIOT/tests/capteur/bin/lora-e5-dev/cortexm_common/panic.o
 .debug_loc     0x0000000000001a09      0x243 /home/ch/RIOT/tests/capteur/bin/lora-e5-dev/cortexm_common/thread_arch.o
 .debug_loc     0x0000000000001c4c      0x443 /home/ch/RIOT/tests/capteur/bin/lora-e5-dev/cortexm_common/vectors_cortexm.o
 .debug_loc     0x000000000000208f      0x22f /home/ch/RIOT/tests/capteur/bin/lora-e5-dev/cpu/cpu_common.o
 .debug_loc     0x00000000000022be       0x2a /home/ch/RIOT/tests/capteur/bin/lora-e5-dev/cpu/cpu_init.o
 .debug_loc     0x00000000000022e8       0xed /home/ch/RIOT/tests/capteur/bin/lora-e5-dev/div/div.o
 .debug_loc     0x00000000000023d5      0x2cc /home/ch/RIOT/tests/capteur/bin/lora-e5-dev/malloc_thread_safe/malloc_wrappers.o
 .debug_loc     0x00000000000026a1      0x6af /home/ch/RIOT/tests/capteur/bin/lora-e5-dev/newlib_syscalls_default/syscalls.o
 .debug_loc     0x0000000000002d50       0x2a /home/ch/RIOT/tests/capteur/bin/lora-e5-dev/periph_common/init.o
 .debug_loc     0x0000000000002d7a      0x504 /home/ch/RIOT/tests/capteur/bin/lora-e5-dev/periph/gpio_all.o
 .debug_loc     0x000000000000327e      0x143 /home/ch/RIOT/tests/capteur/bin/lora-e5-dev/periph/pm.o
 .debug_loc     0x00000000000033c1      0x432 /home/ch/RIOT/tests/capteur/bin/lora-e5-dev/periph/timer.o
 .debug_loc     0x00000000000037f3      0x52e /home/ch/RIOT/tests/capteur/bin/lora-e5-dev/periph/uart.o
 .debug_loc     0x0000000000003d21      0x26c /home/ch/RIOT/tests/capteur/bin/lora-e5-dev/pm_layered/pm.o
 .debug_loc     0x0000000000003f8d       0xb0 /home/ch/RIOT/tests/capteur/bin/lora-e5-dev/stdio_uart/stdio_uart.o
 .debug_loc     0x000000000000403d       0x2a /home/ch/RIOT/tests/capteur/bin/lora-e5-dev/stm32_clk/stmclk_common.o
 .debug_loc     0x0000000000004067       0x93 /home/ch/RIOT/tests/capteur/bin/lora-e5-dev/stm32_clk/stmclk_l4wx.o
 .debug_loc     0x00000000000040fa      0x713 /home/ch/RIOT/tests/capteur/bin/lora-e5-dev/xtimer/xtimer_core.o
 .debug_loc     0x000000000000480d       0xba /usr/lib/gcc/arm-none-eabi/9.2.1/../../../arm-none-eabi/lib/thumb/v7e-m/nofp/libc_nano.a(lib_a-init.o)
 .debug_loc     0x00000000000048c7       0x64 /usr/lib/gcc/arm-none-eabi/9.2.1/../../../arm-none-eabi/lib/thumb/v7e-m/nofp/libc_nano.a(lib_a-malloc.o)
 .debug_loc     0x000000000000492b      0x231 /usr/lib/gcc/arm-none-eabi/9.2.1/../../../arm-none-eabi/lib/thumb/v7e-m/nofp/libc_nano.a(lib_a-memset.o)
 .debug_loc     0x0000000000004b5c      0x211 /usr/lib/gcc/arm-none-eabi/9.2.1/../../../arm-none-eabi/lib/thumb/v7e-m/nofp/libc_nano.a(lib_a-nano-freer.o)
 .debug_loc     0x0000000000004d6d      0x437 /usr/lib/gcc/arm-none-eabi/9.2.1/../../../arm-none-eabi/lib/thumb/v7e-m/nofp/libc_nano.a(lib_a-nano-mallocr.o)
 .debug_loc     0x00000000000051a4      0x9f0 /usr/lib/gcc/arm-none-eabi/9.2.1/../../../arm-none-eabi/lib/thumb/v7e-m/nofp/libc_nano.a(lib_a-nano-vfprintf_float.o)
 .debug_loc     0x0000000000005b94      0x7ab /usr/lib/gcc/arm-none-eabi/9.2.1/../../../arm-none-eabi/lib/thumb/v7e-m/nofp/libc_nano.a(lib_a-nano-vfprintf_i.o)
 .debug_loc     0x000000000000633f       0x98 /usr/lib/gcc/arm-none-eabi/9.2.1/../../../arm-none-eabi/lib/thumb/v7e-m/nofp/libc_nano.a(lib_a-printf.o)
 .debug_loc     0x00000000000063d7      0x32d /usr/lib/gcc/arm-none-eabi/9.2.1/../../../arm-none-eabi/lib/thumb/v7e-m/nofp/libc_nano.a(lib_a-puts.o)
 .debug_loc     0x0000000000006704       0x22 /usr/lib/gcc/arm-none-eabi/9.2.1/../../../arm-none-eabi/lib/thumb/v7e-m/nofp/libc_nano.a(lib_a-time.o)
 .debug_loc     0x0000000000006726      0x193 /usr/lib/gcc/arm-none-eabi/9.2.1/../../../arm-none-eabi/lib/thumb/v7e-m/nofp/libc_nano.a(lib_a-wbuf.o)
 .debug_loc     0x00000000000068b9       0xb7 /usr/lib/gcc/arm-none-eabi/9.2.1/../../../arm-none-eabi/lib/thumb/v7e-m/nofp/libc_nano.a(lib_a-wsetup.o)
 .debug_loc     0x0000000000006970     0x32ee /usr/lib/gcc/arm-none-eabi/9.2.1/../../../arm-none-eabi/lib/thumb/v7e-m/nofp/libc_nano.a(lib_a-dtoa.o)
 .debug_loc     0x0000000000009c5e      0x3f5 /usr/lib/gcc/arm-none-eabi/9.2.1/../../../arm-none-eabi/lib/thumb/v7e-m/nofp/libc_nano.a(lib_a-fflush.o)
 .debug_loc     0x000000000000a053      0x339 /usr/lib/gcc/arm-none-eabi/9.2.1/../../../arm-none-eabi/lib/thumb/v7e-m/nofp/libc_nano.a(lib_a-findfp.o)
 .debug_loc     0x000000000000a38c       0xa6 /usr/lib/gcc/arm-none-eabi/9.2.1/../../../arm-none-eabi/lib/thumb/v7e-m/nofp/libc_nano.a(lib_a-fprintf.o)
 .debug_loc     0x000000000000a432      0x24f /usr/lib/gcc/arm-none-eabi/9.2.1/../../../arm-none-eabi/lib/thumb/v7e-m/nofp/libc_nano.a(lib_a-fwalk.o)
 .debug_loc     0x000000000000a681       0x6f /usr/lib/gcc/arm-none-eabi/9.2.1/../../../arm-none-eabi/lib/thumb/v7e-m/nofp/libc_nano.a(lib_a-localeconv.o)
 .debug_loc     0x000000000000a6f0      0x192 /usr/lib/gcc/arm-none-eabi/9.2.1/../../../arm-none-eabi/lib/thumb/v7e-m/nofp/libc_nano.a(lib_a-makebuf.o)
 .debug_loc     0x000000000000a882     0x23cd /usr/lib/gcc/arm-none-eabi/9.2.1/../../../arm-none-eabi/lib/thumb/v7e-m/nofp/libc_nano.a(lib_a-mprec.o)
 .debug_loc     0x000000000000cc4f       0x91 /usr/lib/gcc/arm-none-eabi/9.2.1/../../../arm-none-eabi/lib/thumb/v7e-m/nofp/libc_nano.a(lib_a-nano-callocr.o)
 .debug_loc     0x000000000000cce0      0x133 /usr/lib/gcc/arm-none-eabi/9.2.1/../../../arm-none-eabi/lib/thumb/v7e-m/nofp/libc_nano.a(lib_a-nano-reallocr.o)
 .debug_loc     0x000000000000ce13      0x7a3 /usr/lib/gcc/arm-none-eabi/9.2.1/../../../arm-none-eabi/lib/thumb/v7e-m/nofp/libc_nano.a(lib_a-nano-vfprintf.o)
 .debug_loc     0x000000000000d5b6      0x393 /usr/lib/gcc/arm-none-eabi/9.2.1/../../../arm-none-eabi/lib/thumb/v7e-m/nofp/libc_nano.a(lib_a-stdio.o)
 .debug_loc     0x000000000000d949      0x15c /usr/lib/gcc/arm-none-eabi/9.2.1/../../../arm-none-eabi/lib/thumb/v7e-m/nofp/libc_nano.a(lib_a-assert.o)
 .debug_loc     0x000000000000daa5      0x669 /usr/lib/gcc/arm-none-eabi/9.2.1/../../../arm-none-eabi/lib/thumb/v7e-m/nofp/libc_nano.a(lib_a-fvwrite.o)
 .debug_loc     0x000000000000e10e      0x189 /usr/lib/gcc/arm-none-eabi/9.2.1/../../../arm-none-eabi/lib/thumb/v7e-m/nofp/libc_nano.a(lib_a-locale.o)
 .debug_loc     0x000000000000e297      0x21d /usr/lib/gcc/arm-none-eabi/9.2.1/../../../arm-none-eabi/lib/thumb/v7e-m/nofp/libc_nano.a(lib_a-mbtowc_r.o)
 .debug_loc     0x000000000000e4b4      0x2f1 /usr/lib/gcc/arm-none-eabi/9.2.1/../../../arm-none-eabi/lib/thumb/v7e-m/nofp/libc_nano.a(lib_a-memmove.o)
 .debug_loc     0x000000000000e7a5       0x86 /usr/lib/gcc/arm-none-eabi/9.2.1/../../../arm-none-eabi/lib/thumb/v7e-m/nofp/libc_nano.a(lib_a-nano-msizer.o)
 .debug_loc     0x000000000000e82b      0x13a /usr/lib/gcc/arm-none-eabi/9.2.1/../../../arm-none-eabi/lib/thumb/v7e-m/nofp/libc_nano.a(lib_a-wctomb_r.o)
 .debug_loc     0x000000000000e965      0x560 /usr/lib/gcc/arm-none-eabi/9.2.1/../../../arm-none-eabi/lib/thumb/v7e-m/nofp/libc_nano.a(lib_a-signal.o)

.debug_aranges  0x0000000000000000      0xdc8
 .debug_aranges
                0x0000000000000000       0x48 /home/ch/RIOT/tests/capteur/bin/lora-e5-dev/application_tests_capteur/main.o
 .debug_aranges
                0x0000000000000048       0x20 /home/ch/RIOT/tests/capteur/bin/lora-e5-dev/auto_init/auto_init.o
 .debug_aranges
                0x0000000000000068       0x28 /home/ch/RIOT/tests/capteur/bin/lora-e5-dev/board/board.o
 .debug_aranges
                0x0000000000000090       0x30 /home/ch/RIOT/tests/capteur/bin/lora-e5-dev/core/init.o
 .debug_aranges
                0x00000000000000c0       0x50 /home/ch/RIOT/tests/capteur/bin/lora-e5-dev/core/mutex.o
 .debug_aranges
                0x0000000000000110       0x38 /home/ch/RIOT/tests/capteur/bin/lora-e5-dev/core/panic.o
 .debug_aranges
                0x0000000000000148       0x48 /home/ch/RIOT/tests/capteur/bin/lora-e5-dev/core/sched.o
 .debug_aranges
                0x0000000000000190       0x78 /home/ch/RIOT/tests/capteur/bin/lora-e5-dev/core/thread.o
 .debug_aranges
                0x0000000000000208       0x30 /home/ch/RIOT/tests/capteur/bin/lora-e5-dev/cortexm_common/cortexm_init.o
 .debug_aranges
                0x0000000000000238       0x28 /home/ch/RIOT/tests/capteur/bin/lora-e5-dev/cortexm_common/panic.o
 .debug_aranges
                0x0000000000000260       0x68 /home/ch/RIOT/tests/capteur/bin/lora-e5-dev/cortexm_common/thread_arch.o
 .debug_aranges
                0x00000000000002c8       0x70 /home/ch/RIOT/tests/capteur/bin/lora-e5-dev/cortexm_common/vectors_cortexm.o
 .debug_aranges
                0x0000000000000338       0x40 /home/ch/RIOT/tests/capteur/bin/lora-e5-dev/cpu/cpu_common.o
 .debug_aranges
                0x0000000000000378       0x40 /home/ch/RIOT/tests/capteur/bin/lora-e5-dev/cpu/cpu_init.o
 .debug_aranges
                0x00000000000003b8       0x20 /home/ch/RIOT/tests/capteur/bin/lora-e5-dev/div/div.o
 .debug_aranges
                0x00000000000003d8       0x40 /home/ch/RIOT/tests/capteur/bin/lora-e5-dev/malloc_thread_safe/malloc_wrappers.o
 .debug_aranges
                0x0000000000000418       0xc8 /home/ch/RIOT/tests/capteur/bin/lora-e5-dev/newlib_syscalls_default/syscalls.o
 .debug_aranges
                0x00000000000004e0       0x28 /home/ch/RIOT/tests/capteur/bin/lora-e5-dev/periph_common/init.o
 .debug_aranges
                0x0000000000000508       0x70 /home/ch/RIOT/tests/capteur/bin/lora-e5-dev/periph/gpio_all.o
 .debug_aranges
                0x0000000000000578       0x38 /home/ch/RIOT/tests/capteur/bin/lora-e5-dev/periph/pm.o
 .debug_aranges
                0x00000000000005b0       0x58 /home/ch/RIOT/tests/capteur/bin/lora-e5-dev/periph/timer.o
 .debug_aranges
                0x0000000000000608       0x68 /home/ch/RIOT/tests/capteur/bin/lora-e5-dev/periph/uart.o
 .debug_aranges
                0x0000000000000670       0x48 /home/ch/RIOT/tests/capteur/bin/lora-e5-dev/pm_layered/pm.o
 .debug_aranges
                0x00000000000006b8       0x38 /home/ch/RIOT/tests/capteur/bin/lora-e5-dev/stdio_uart/stdio_uart.o
 .debug_aranges
                0x00000000000006f0       0x58 /home/ch/RIOT/tests/capteur/bin/lora-e5-dev/stm32_clk/stmclk_common.o
 .debug_aranges
                0x0000000000000748       0x28 /home/ch/RIOT/tests/capteur/bin/lora-e5-dev/stm32_clk/stmclk_l4wx.o
 .debug_aranges
                0x0000000000000770       0x20 /home/ch/RIOT/tests/capteur/bin/lora-e5-dev/stm32_vectors/STM32WLE5xx.o
 .debug_aranges
                0x0000000000000790       0x68 /home/ch/RIOT/tests/capteur/bin/lora-e5-dev/xtimer/xtimer_core.o
 .debug_aranges
                0x00000000000007f8       0x20 /usr/lib/gcc/arm-none-eabi/9.2.1/thumb/v7e-m/nofp/libgcc.a(_arm_mulsf3.o)
 .debug_aranges
                0x0000000000000818       0x20 /usr/lib/gcc/arm-none-eabi/9.2.1/thumb/v7e-m/nofp/libgcc.a(_arm_addsubdf3.o)
 .debug_aranges
                0x0000000000000838       0x20 /usr/lib/gcc/arm-none-eabi/9.2.1/thumb/v7e-m/nofp/libgcc.a(_arm_muldivdf3.o)
 .debug_aranges
                0x0000000000000858       0x20 /usr/lib/gcc/arm-none-eabi/9.2.1/thumb/v7e-m/nofp/libgcc.a(_arm_truncdfsf2.o)
 .debug_aranges
                0x0000000000000878       0x20 /usr/lib/gcc/arm-none-eabi/9.2.1/thumb/v7e-m/nofp/libgcc.a(_arm_fixsfsi.o)
 .debug_aranges
                0x0000000000000898       0x18 /usr/lib/gcc/arm-none-eabi/9.2.1/../../../arm-none-eabi/lib/thumb/v7e-m/nofp/libc_nano.a(lib_a-impure.o)
 .debug_aranges
                0x00000000000008b0       0x20 /usr/lib/gcc/arm-none-eabi/9.2.1/../../../arm-none-eabi/lib/thumb/v7e-m/nofp/libc_nano.a(lib_a-init.o)
 .debug_aranges
                0x00000000000008d0       0x20 /usr/lib/gcc/arm-none-eabi/9.2.1/../../../arm-none-eabi/lib/thumb/v7e-m/nofp/libc_nano.a(lib_a-malloc.o)
 .debug_aranges
                0x00000000000008f0       0x20 /usr/lib/gcc/arm-none-eabi/9.2.1/../../../arm-none-eabi/lib/thumb/v7e-m/nofp/libc_nano.a(lib_a-memcpy.o)
 .debug_aranges
                0x0000000000000910       0x20 /usr/lib/gcc/arm-none-eabi/9.2.1/../../../arm-none-eabi/lib/thumb/v7e-m/nofp/libc_nano.a(lib_a-memset.o)
 .debug_aranges
                0x0000000000000930       0x20 /usr/lib/gcc/arm-none-eabi/9.2.1/../../../arm-none-eabi/lib/thumb/v7e-m/nofp/libc_nano.a(lib_a-nano-freer.o)
 .debug_aranges
                0x0000000000000950       0x20 /usr/lib/gcc/arm-none-eabi/9.2.1/../../../arm-none-eabi/lib/thumb/v7e-m/nofp/libc_nano.a(lib_a-nano-mallocr.o)
 .debug_aranges
                0x0000000000000970       0x20 /usr/lib/gcc/arm-none-eabi/9.2.1/../../../arm-none-eabi/lib/thumb/v7e-m/nofp/libc_nano.a(lib_a-nano-vfprintf_float.o)
 .debug_aranges
                0x0000000000000990       0x20 /usr/lib/gcc/arm-none-eabi/9.2.1/../../../arm-none-eabi/lib/thumb/v7e-m/nofp/libc_nano.a(lib_a-nano-vfprintf_i.o)
 .debug_aranges
                0x00000000000009b0       0x20 /usr/lib/gcc/arm-none-eabi/9.2.1/../../../arm-none-eabi/lib/thumb/v7e-m/nofp/libc_nano.a(lib_a-printf.o)
 .debug_aranges
                0x00000000000009d0       0x20 /usr/lib/gcc/arm-none-eabi/9.2.1/../../../arm-none-eabi/lib/thumb/v7e-m/nofp/libc_nano.a(lib_a-puts.o)
 .debug_aranges
                0x00000000000009f0       0x20 /usr/lib/gcc/arm-none-eabi/9.2.1/../../../arm-none-eabi/lib/thumb/v7e-m/nofp/libc_nano.a(lib_a-strlen.o)
 .debug_aranges
                0x0000000000000a10       0x20 /usr/lib/gcc/arm-none-eabi/9.2.1/../../../arm-none-eabi/lib/thumb/v7e-m/nofp/libc_nano.a(lib_a-time.o)
 .debug_aranges
                0x0000000000000a30       0x20 /usr/lib/gcc/arm-none-eabi/9.2.1/../../../arm-none-eabi/lib/thumb/v7e-m/nofp/libc_nano.a(lib_a-wbuf.o)
 .debug_aranges
                0x0000000000000a50       0x20 /usr/lib/gcc/arm-none-eabi/9.2.1/../../../arm-none-eabi/lib/thumb/v7e-m/nofp/libc_nano.a(lib_a-wsetup.o)
 .debug_aranges
                0x0000000000000a70       0x20 /usr/lib/gcc/arm-none-eabi/9.2.1/../../../arm-none-eabi/lib/thumb/v7e-m/nofp/libc_nano.a(lib_a-dtoa.o)
 .debug_aranges
                0x0000000000000a90       0x20 /usr/lib/gcc/arm-none-eabi/9.2.1/../../../arm-none-eabi/lib/thumb/v7e-m/nofp/libc_nano.a(lib_a-fflush.o)
 .debug_aranges
                0x0000000000000ab0       0x20 /usr/lib/gcc/arm-none-eabi/9.2.1/../../../arm-none-eabi/lib/thumb/v7e-m/nofp/libc_nano.a(lib_a-findfp.o)
 .debug_aranges
                0x0000000000000ad0       0x20 /usr/lib/gcc/arm-none-eabi/9.2.1/../../../arm-none-eabi/lib/thumb/v7e-m/nofp/libc_nano.a(lib_a-fprintf.o)
 .debug_aranges
                0x0000000000000af0       0x20 /usr/lib/gcc/arm-none-eabi/9.2.1/../../../arm-none-eabi/lib/thumb/v7e-m/nofp/libc_nano.a(lib_a-fwalk.o)
 .debug_aranges
                0x0000000000000b10       0x20 /usr/lib/gcc/arm-none-eabi/9.2.1/../../../arm-none-eabi/lib/thumb/v7e-m/nofp/libc_nano.a(lib_a-localeconv.o)
 .debug_aranges
                0x0000000000000b30       0x20 /usr/lib/gcc/arm-none-eabi/9.2.1/../../../arm-none-eabi/lib/thumb/v7e-m/nofp/libc_nano.a(lib_a-makebuf.o)
 .debug_aranges
                0x0000000000000b50       0x20 /usr/lib/gcc/arm-none-eabi/9.2.1/../../../arm-none-eabi/lib/thumb/v7e-m/nofp/libc_nano.a(lib_a-memchr.o)
 .debug_aranges
                0x0000000000000b70       0x20 /usr/lib/gcc/arm-none-eabi/9.2.1/../../../arm-none-eabi/lib/thumb/v7e-m/nofp/libc_nano.a(lib_a-mlock.o)
 .debug_aranges
                0x0000000000000b90       0x20 /usr/lib/gcc/arm-none-eabi/9.2.1/../../../arm-none-eabi/lib/thumb/v7e-m/nofp/libc_nano.a(lib_a-mprec.o)
 .debug_aranges
                0x0000000000000bb0       0x20 /usr/lib/gcc/arm-none-eabi/9.2.1/../../../arm-none-eabi/lib/thumb/v7e-m/nofp/libc_nano.a(lib_a-nano-callocr.o)
 .debug_aranges
                0x0000000000000bd0       0x20 /usr/lib/gcc/arm-none-eabi/9.2.1/../../../arm-none-eabi/lib/thumb/v7e-m/nofp/libc_nano.a(lib_a-nano-reallocr.o)
 .debug_aranges
                0x0000000000000bf0       0x20 /usr/lib/gcc/arm-none-eabi/9.2.1/../../../arm-none-eabi/lib/thumb/v7e-m/nofp/libc_nano.a(lib_a-nano-vfprintf.o)
 .debug_aranges
                0x0000000000000c10       0x20 /usr/lib/gcc/arm-none-eabi/9.2.1/../../../arm-none-eabi/lib/thumb/v7e-m/nofp/libc_nano.a(lib_a-stdio.o)
 .debug_aranges
                0x0000000000000c30       0x20 /usr/lib/gcc/arm-none-eabi/9.2.1/../../../arm-none-eabi/lib/thumb/v7e-m/nofp/libc_nano.a(lib_a-assert.o)
 .debug_aranges
                0x0000000000000c50       0x20 /usr/lib/gcc/arm-none-eabi/9.2.1/../../../arm-none-eabi/lib/thumb/v7e-m/nofp/libc_nano.a(lib_a-fvwrite.o)
 .debug_aranges
                0x0000000000000c70       0x20 /usr/lib/gcc/arm-none-eabi/9.2.1/../../../arm-none-eabi/lib/thumb/v7e-m/nofp/libc_nano.a(lib_a-locale.o)
 .debug_aranges
                0x0000000000000c90       0x20 /usr/lib/gcc/arm-none-eabi/9.2.1/../../../arm-none-eabi/lib/thumb/v7e-m/nofp/libc_nano.a(lib_a-mbtowc_r.o)
 .debug_aranges
                0x0000000000000cb0       0x20 /usr/lib/gcc/arm-none-eabi/9.2.1/../../../arm-none-eabi/lib/thumb/v7e-m/nofp/libc_nano.a(lib_a-memmove.o)
 .debug_aranges
                0x0000000000000cd0       0x20 /usr/lib/gcc/arm-none-eabi/9.2.1/../../../arm-none-eabi/lib/thumb/v7e-m/nofp/libc_nano.a(lib_a-nano-msizer.o)
 .debug_aranges
                0x0000000000000cf0       0x20 /usr/lib/gcc/arm-none-eabi/9.2.1/../../../arm-none-eabi/lib/thumb/v7e-m/nofp/libc_nano.a(lib_a-wctomb_r.o)
 .debug_aranges
                0x0000000000000d10       0x20 /usr/lib/gcc/arm-none-eabi/9.2.1/../../../arm-none-eabi/lib/thumb/v7e-m/nofp/libc_nano.a(lib_a-abort.o)
 .debug_aranges
                0x0000000000000d30       0x18 /usr/lib/gcc/arm-none-eabi/9.2.1/../../../arm-none-eabi/lib/thumb/v7e-m/nofp/libc_nano.a(lib_a-ctype_.o)
 .debug_aranges
                0x0000000000000d48       0x20 /usr/lib/gcc/arm-none-eabi/9.2.1/../../../arm-none-eabi/lib/thumb/v7e-m/nofp/libc_nano.a(lib_a-signal.o)
 .debug_aranges
                0x0000000000000d68       0x20 /usr/lib/gcc/arm-none-eabi/9.2.1/thumb/v7e-m/nofp/libgcc.a(_arm_cmpdf2.o)
 .debug_aranges
                0x0000000000000d88       0x20 /usr/lib/gcc/arm-none-eabi/9.2.1/thumb/v7e-m/nofp/libgcc.a(_arm_unorddf2.o)
 .debug_aranges
                0x0000000000000da8       0x20 /usr/lib/gcc/arm-none-eabi/9.2.1/thumb/v7e-m/nofp/libgcc.a(_arm_fixdfsi.o)

.debug_ranges   0x0000000000000000     0x19d8
 .debug_ranges  0x0000000000000000       0x50 /home/ch/RIOT/tests/capteur/bin/lora-e5-dev/application_tests_capteur/main.o
 .debug_ranges  0x0000000000000050       0x10 /home/ch/RIOT/tests/capteur/bin/lora-e5-dev/auto_init/auto_init.o
 .debug_ranges  0x0000000000000060       0x18 /home/ch/RIOT/tests/capteur/bin/lora-e5-dev/board/board.o
 .debug_ranges  0x0000000000000078       0x50 /home/ch/RIOT/tests/capteur/bin/lora-e5-dev/core/init.o
 .debug_ranges  0x00000000000000c8      0x280 /home/ch/RIOT/tests/capteur/bin/lora-e5-dev/core/mutex.o
 .debug_ranges  0x0000000000000348       0x28 /home/ch/RIOT/tests/capteur/bin/lora-e5-dev/core/panic.o
 .debug_ranges  0x0000000000000370      0x118 /home/ch/RIOT/tests/capteur/bin/lora-e5-dev/core/sched.o
 .debug_ranges  0x0000000000000488      0x298 /home/ch/RIOT/tests/capteur/bin/lora-e5-dev/core/thread.o
 .debug_ranges  0x0000000000000720       0xb8 /home/ch/RIOT/tests/capteur/bin/lora-e5-dev/cortexm_common/cortexm_init.o
 .debug_ranges  0x00000000000007d8       0x48 /home/ch/RIOT/tests/capteur/bin/lora-e5-dev/cortexm_common/panic.o
 .debug_ranges  0x0000000000000820       0x88 /home/ch/RIOT/tests/capteur/bin/lora-e5-dev/cortexm_common/thread_arch.o
 .debug_ranges  0x00000000000008a8       0x78 /home/ch/RIOT/tests/capteur/bin/lora-e5-dev/cortexm_common/vectors_cortexm.o
 .debug_ranges  0x0000000000000920       0x30 /home/ch/RIOT/tests/capteur/bin/lora-e5-dev/cpu/cpu_common.o
 .debug_ranges  0x0000000000000950       0x30 /home/ch/RIOT/tests/capteur/bin/lora-e5-dev/cpu/cpu_init.o
 .debug_ranges  0x0000000000000980       0x10 /home/ch/RIOT/tests/capteur/bin/lora-e5-dev/div/div.o
 .debug_ranges  0x0000000000000990      0x108 /home/ch/RIOT/tests/capteur/bin/lora-e5-dev/malloc_thread_safe/malloc_wrappers.o
 .debug_ranges  0x0000000000000a98      0x1d8 /home/ch/RIOT/tests/capteur/bin/lora-e5-dev/newlib_syscalls_default/syscalls.o
 .debug_ranges  0x0000000000000c70       0x18 /home/ch/RIOT/tests/capteur/bin/lora-e5-dev/periph_common/init.o
 .debug_ranges  0x0000000000000c88      0x190 /home/ch/RIOT/tests/capteur/bin/lora-e5-dev/periph/gpio_all.o
 .debug_ranges  0x0000000000000e18       0x70 /home/ch/RIOT/tests/capteur/bin/lora-e5-dev/periph/pm.o
 .debug_ranges  0x0000000000000e88      0x138 /home/ch/RIOT/tests/capteur/bin/lora-e5-dev/periph/timer.o
 .debug_ranges  0x0000000000000fc0      0x120 /home/ch/RIOT/tests/capteur/bin/lora-e5-dev/periph/uart.o
 .debug_ranges  0x00000000000010e0       0xc8 /home/ch/RIOT/tests/capteur/bin/lora-e5-dev/pm_layered/pm.o
 .debug_ranges  0x00000000000011a8       0x28 /home/ch/RIOT/tests/capteur/bin/lora-e5-dev/stdio_uart/stdio_uart.o
 .debug_ranges  0x00000000000011d0       0x48 /home/ch/RIOT/tests/capteur/bin/lora-e5-dev/stm32_clk/stmclk_common.o
 .debug_ranges  0x0000000000001218       0x60 /home/ch/RIOT/tests/capteur/bin/lora-e5-dev/stm32_clk/stmclk_l4wx.o
 .debug_ranges  0x0000000000001278       0x10 /home/ch/RIOT/tests/capteur/bin/lora-e5-dev/stm32_vectors/STM32WLE5xx.o
 .debug_ranges  0x0000000000001288      0x1d8 /home/ch/RIOT/tests/capteur/bin/lora-e5-dev/xtimer/xtimer_core.o
 .debug_ranges  0x0000000000001460       0x18 /usr/lib/gcc/arm-none-eabi/9.2.1/../../../arm-none-eabi/lib/thumb/v7e-m/nofp/libc_nano.a(lib_a-nano-freer.o)
 .debug_ranges  0x0000000000001478       0x38 /usr/lib/gcc/arm-none-eabi/9.2.1/../../../arm-none-eabi/lib/thumb/v7e-m/nofp/libc_nano.a(lib_a-nano-mallocr.o)
 .debug_ranges  0x00000000000014b0       0x30 /usr/lib/gcc/arm-none-eabi/9.2.1/../../../arm-none-eabi/lib/thumb/v7e-m/nofp/libc_nano.a(lib_a-nano-vfprintf_float.o)
 .debug_ranges  0x00000000000014e0       0x98 /usr/lib/gcc/arm-none-eabi/9.2.1/../../../arm-none-eabi/lib/thumb/v7e-m/nofp/libc_nano.a(lib_a-nano-vfprintf_i.o)
 .debug_ranges  0x0000000000001578       0x68 /usr/lib/gcc/arm-none-eabi/9.2.1/../../../arm-none-eabi/lib/thumb/v7e-m/nofp/libc_nano.a(lib_a-puts.o)
 .debug_ranges  0x00000000000015e0       0x20 /usr/lib/gcc/arm-none-eabi/9.2.1/../../../arm-none-eabi/lib/thumb/v7e-m/nofp/libc_nano.a(lib_a-wbuf.o)
 .debug_ranges  0x0000000000001600       0x30 /usr/lib/gcc/arm-none-eabi/9.2.1/../../../arm-none-eabi/lib/thumb/v7e-m/nofp/libc_nano.a(lib_a-wsetup.o)
 .debug_ranges  0x0000000000001630       0x60 /usr/lib/gcc/arm-none-eabi/9.2.1/../../../arm-none-eabi/lib/thumb/v7e-m/nofp/libc_nano.a(lib_a-dtoa.o)
 .debug_ranges  0x0000000000001690       0x68 /usr/lib/gcc/arm-none-eabi/9.2.1/../../../arm-none-eabi/lib/thumb/v7e-m/nofp/libc_nano.a(lib_a-fflush.o)
 .debug_ranges  0x00000000000016f8       0xe8 /usr/lib/gcc/arm-none-eabi/9.2.1/../../../arm-none-eabi/lib/thumb/v7e-m/nofp/libc_nano.a(lib_a-findfp.o)
 .debug_ranges  0x00000000000017e0       0x28 /usr/lib/gcc/arm-none-eabi/9.2.1/../../../arm-none-eabi/lib/thumb/v7e-m/nofp/libc_nano.a(lib_a-makebuf.o)
 .debug_ranges  0x0000000000001808      0x160 /usr/lib/gcc/arm-none-eabi/9.2.1/../../../arm-none-eabi/lib/thumb/v7e-m/nofp/libc_nano.a(lib_a-mprec.o)
 .debug_ranges  0x0000000000001968       0x28 /usr/lib/gcc/arm-none-eabi/9.2.1/../../../arm-none-eabi/lib/thumb/v7e-m/nofp/libc_nano.a(lib_a-nano-vfprintf.o)
 .debug_ranges  0x0000000000001990       0x18 /usr/lib/gcc/arm-none-eabi/9.2.1/../../../arm-none-eabi/lib/thumb/v7e-m/nofp/libc_nano.a(lib_a-fvwrite.o)
 .debug_ranges  0x00000000000019a8       0x30 /usr/lib/gcc/arm-none-eabi/9.2.1/../../../arm-none-eabi/lib/thumb/v7e-m/nofp/libc_nano.a(lib_a-signal.o)

.debug_macro    0x0000000000000000    0x2afd0
 .debug_macro   0x0000000000000000      0x4ed /home/ch/RIOT/tests/capteur/bin/lora-e5-dev/application_tests_capteur/main.o
 .debug_macro   0x00000000000004ed      0xaf6 /home/ch/RIOT/tests/capteur/bin/lora-e5-dev/application_tests_capteur/main.o
 .debug_macro   0x0000000000000fe3      0x130 /home/ch/RIOT/tests/capteur/bin/lora-e5-dev/application_tests_capteur/main.o
 .debug_macro   0x0000000000001113       0x22 /home/ch/RIOT/tests/capteur/bin/lora-e5-dev/application_tests_capteur/main.o
 .debug_macro   0x0000000000001135       0x46 /home/ch/RIOT/tests/capteur/bin/lora-e5-dev/application_tests_capteur/main.o
 .debug_macro   0x000000000000117b       0x18 /home/ch/RIOT/tests/capteur/bin/lora-e5-dev/application_tests_capteur/main.o
 .debug_macro   0x0000000000001193       0x5c /home/ch/RIOT/tests/capteur/bin/lora-e5-dev/application_tests_capteur/main.o
 .debug_macro   0x00000000000011ef       0x3c /home/ch/RIOT/tests/capteur/bin/lora-e5-dev/application_tests_capteur/main.o
 .debug_macro   0x000000000000122b       0x34 /home/ch/RIOT/tests/capteur/bin/lora-e5-dev/application_tests_capteur/main.o
 .debug_macro   0x000000000000125f       0x57 /home/ch/RIOT/tests/capteur/bin/lora-e5-dev/application_tests_capteur/main.o
 .debug_macro   0x00000000000012b6      0x174 /home/ch/RIOT/tests/capteur/bin/lora-e5-dev/application_tests_capteur/main.o
 .debug_macro   0x000000000000142a      0x339 /home/ch/RIOT/tests/capteur/bin/lora-e5-dev/application_tests_capteur/main.o
 .debug_macro   0x0000000000001763       0x16 /home/ch/RIOT/tests/capteur/bin/lora-e5-dev/application_tests_capteur/main.o
 .debug_macro   0x0000000000001779       0x43 /home/ch/RIOT/tests/capteur/bin/lora-e5-dev/application_tests_capteur/main.o
 .debug_macro   0x00000000000017bc       0x34 /home/ch/RIOT/tests/capteur/bin/lora-e5-dev/application_tests_capteur/main.o
 .debug_macro   0x00000000000017f0       0x10 /home/ch/RIOT/tests/capteur/bin/lora-e5-dev/application_tests_capteur/main.o
 .debug_macro   0x0000000000001800       0x52 /home/ch/RIOT/tests/capteur/bin/lora-e5-dev/application_tests_capteur/main.o
 .debug_macro   0x0000000000001852       0x71 /home/ch/RIOT/tests/capteur/bin/lora-e5-dev/application_tests_capteur/main.o
 .debug_macro   0x00000000000018c3      0x34e /home/ch/RIOT/tests/capteur/bin/lora-e5-dev/application_tests_capteur/main.o
 .debug_macro   0x0000000000001c11       0x75 /home/ch/RIOT/tests/capteur/bin/lora-e5-dev/application_tests_capteur/main.o
 .debug_macro   0x0000000000001c86       0x10 /home/ch/RIOT/tests/capteur/bin/lora-e5-dev/application_tests_capteur/main.o
 .debug_macro   0x0000000000001c96      0x12a /home/ch/RIOT/tests/capteur/bin/lora-e5-dev/application_tests_capteur/main.o
 .debug_macro   0x0000000000001dc0       0x10 /home/ch/RIOT/tests/capteur/bin/lora-e5-dev/application_tests_capteur/main.o
 .debug_macro   0x0000000000001dd0       0x35 /home/ch/RIOT/tests/capteur/bin/lora-e5-dev/application_tests_capteur/main.o
 .debug_macro   0x0000000000001e05       0x10 /home/ch/RIOT/tests/capteur/bin/lora-e5-dev/application_tests_capteur/main.o
 .debug_macro   0x0000000000001e15       0x10 /home/ch/RIOT/tests/capteur/bin/lora-e5-dev/application_tests_capteur/main.o
 .debug_macro   0x0000000000001e25       0x10 /home/ch/RIOT/tests/capteur/bin/lora-e5-dev/application_tests_capteur/main.o
 .debug_macro   0x0000000000001e35       0x6a /home/ch/RIOT/tests/capteur/bin/lora-e5-dev/application_tests_capteur/main.o
 .debug_macro   0x0000000000001e9f       0xb2 /home/ch/RIOT/tests/capteur/bin/lora-e5-dev/application_tests_capteur/main.o
 .debug_macro   0x0000000000001f51       0x2e /home/ch/RIOT/tests/capteur/bin/lora-e5-dev/application_tests_capteur/main.o
 .debug_macro   0x0000000000001f7f       0x1c /home/ch/RIOT/tests/capteur/bin/lora-e5-dev/application_tests_capteur/main.o
 .debug_macro   0x0000000000001f9b       0x10 /home/ch/RIOT/tests/capteur/bin/lora-e5-dev/application_tests_capteur/main.o
 .debug_macro   0x0000000000001fab       0x16 /home/ch/RIOT/tests/capteur/bin/lora-e5-dev/application_tests_capteur/main.o
 .debug_macro   0x0000000000001fc1      0x114 /home/ch/RIOT/tests/capteur/bin/lora-e5-dev/application_tests_capteur/main.o
 .debug_macro   0x00000000000020d5       0x16 /home/ch/RIOT/tests/capteur/bin/lora-e5-dev/application_tests_capteur/main.o
 .debug_macro   0x00000000000020eb       0x22 /home/ch/RIOT/tests/capteur/bin/lora-e5-dev/application_tests_capteur/main.o
 .debug_macro   0x000000000000210d       0x22 /home/ch/RIOT/tests/capteur/bin/lora-e5-dev/application_tests_capteur/main.o
 .debug_macro   0x000000000000212f      0x103 /home/ch/RIOT/tests/capteur/bin/lora-e5-dev/application_tests_capteur/main.o
 .debug_macro   0x0000000000002232      0x3c6 /home/ch/RIOT/tests/capteur/bin/lora-e5-dev/application_tests_capteur/main.o
 .debug_macro   0x00000000000025f8       0x40 /home/ch/RIOT/tests/capteur/bin/lora-e5-dev/application_tests_capteur/main.o
 .debug_macro   0x0000000000002638       0x3d /home/ch/RIOT/tests/capteur/bin/lora-e5-dev/application_tests_capteur/main.o
 .debug_macro   0x0000000000002675       0x49 /home/ch/RIOT/tests/capteur/bin/lora-e5-dev/application_tests_capteur/main.o
 .debug_macro   0x00000000000026be       0x2e /home/ch/RIOT/tests/capteur/bin/lora-e5-dev/application_tests_capteur/main.o
 .debug_macro   0x00000000000026ec       0x34 /home/ch/RIOT/tests/capteur/bin/lora-e5-dev/application_tests_capteur/main.o
 .debug_macro   0x0000000000002720       0x1c /home/ch/RIOT/tests/capteur/bin/lora-e5-dev/application_tests_capteur/main.o
 .debug_macro   0x000000000000273c       0x22 /home/ch/RIOT/tests/capteur/bin/lora-e5-dev/application_tests_capteur/main.o
 .debug_macro   0x000000000000275e       0xd9 /home/ch/RIOT/tests/capteur/bin/lora-e5-dev/application_tests_capteur/main.o
 .debug_macro   0x0000000000002837     0x102d /home/ch/RIOT/tests/capteur/bin/lora-e5-dev/application_tests_capteur/main.o
 .debug_macro   0x0000000000003864      0x11f /home/ch/RIOT/tests/capteur/bin/lora-e5-dev/application_tests_capteur/main.o
 .debug_macro   0x0000000000003983     0xcc1c /home/ch/RIOT/tests/capteur/bin/lora-e5-dev/application_tests_capteur/main.o
 .debug_macro   0x000000000001059f       0x6d /home/ch/RIOT/tests/capteur/bin/lora-e5-dev/application_tests_capteur/main.o
 .debug_macro   0x000000000001060c       0x10 /home/ch/RIOT/tests/capteur/bin/lora-e5-dev/application_tests_capteur/main.o
 .debug_macro   0x000000000001061c       0x2b /home/ch/RIOT/tests/capteur/bin/lora-e5-dev/application_tests_capteur/main.o
 .debug_macro   0x0000000000010647       0x42 /home/ch/RIOT/tests/capteur/bin/lora-e5-dev/application_tests_capteur/main.o
 .debug_macro   0x0000000000010689       0x10 /home/ch/RIOT/tests/capteur/bin/lora-e5-dev/application_tests_capteur/main.o
 .debug_macro   0x0000000000010699       0x2e /home/ch/RIOT/tests/capteur/bin/lora-e5-dev/application_tests_capteur/main.o
 .debug_macro   0x00000000000106c7       0x10 /home/ch/RIOT/tests/capteur/bin/lora-e5-dev/application_tests_capteur/main.o
 .debug_macro   0x00000000000106d7       0x19 /home/ch/RIOT/tests/capteur/bin/lora-e5-dev/application_tests_capteur/main.o
 .debug_macro   0x00000000000106f0      0x118 /home/ch/RIOT/tests/capteur/bin/lora-e5-dev/application_tests_capteur/main.o
 .debug_macro   0x0000000000010808       0x76 /home/ch/RIOT/tests/capteur/bin/lora-e5-dev/application_tests_capteur/main.o
 .debug_macro   0x000000000001087e       0x1c /home/ch/RIOT/tests/capteur/bin/lora-e5-dev/application_tests_capteur/main.o
 .debug_macro   0x000000000001089a       0xe8 /home/ch/RIOT/tests/capteur/bin/lora-e5-dev/application_tests_capteur/main.o
 .debug_macro   0x0000000000010982       0x16 /home/ch/RIOT/tests/capteur/bin/lora-e5-dev/application_tests_capteur/main.o
 .debug_macro   0x0000000000010998       0x2e /home/ch/RIOT/tests/capteur/bin/lora-e5-dev/application_tests_capteur/main.o
 .debug_macro   0x00000000000109c6       0x90 /home/ch/RIOT/tests/capteur/bin/lora-e5-dev/application_tests_capteur/main.o
 .debug_macro   0x0000000000010a56       0x10 /home/ch/RIOT/tests/capteur/bin/lora-e5-dev/application_tests_capteur/main.o
 .debug_macro   0x0000000000010a66       0x1c /home/ch/RIOT/tests/capteur/bin/lora-e5-dev/application_tests_capteur/main.o
 .debug_macro   0x0000000000010a82       0x40 /home/ch/RIOT/tests/capteur/bin/lora-e5-dev/application_tests_capteur/main.o
 .debug_macro   0x0000000000010ac2       0x31 /home/ch/RIOT/tests/capteur/bin/lora-e5-dev/application_tests_capteur/main.o
 .debug_macro   0x0000000000010af3       0x84 /home/ch/RIOT/tests/capteur/bin/lora-e5-dev/application_tests_capteur/main.o
 .debug_macro   0x0000000000010b77       0x22 /home/ch/RIOT/tests/capteur/bin/lora-e5-dev/application_tests_capteur/main.o
 .debug_macro   0x0000000000010b99       0x22 /home/ch/RIOT/tests/capteur/bin/lora-e5-dev/application_tests_capteur/main.o
 .debug_macro   0x0000000000010bbb       0x16 /home/ch/RIOT/tests/capteur/bin/lora-e5-dev/application_tests_capteur/main.o
 .debug_macro   0x0000000000010bd1       0x10 /home/ch/RIOT/tests/capteur/bin/lora-e5-dev/application_tests_capteur/main.o
 .debug_macro   0x0000000000010be1       0x34 /home/ch/RIOT/tests/capteur/bin/lora-e5-dev/application_tests_capteur/main.o
 .debug_macro   0x0000000000010c15       0x28 /home/ch/RIOT/tests/capteur/bin/lora-e5-dev/application_tests_capteur/main.o
 .debug_macro   0x0000000000010c3d       0x16 /home/ch/RIOT/tests/capteur/bin/lora-e5-dev/application_tests_capteur/main.o
 .debug_macro   0x0000000000010c53       0x1c /home/ch/RIOT/tests/capteur/bin/lora-e5-dev/application_tests_capteur/main.o
 .debug_macro   0x0000000000010c6f       0x16 /home/ch/RIOT/tests/capteur/bin/lora-e5-dev/application_tests_capteur/main.o
 .debug_macro   0x0000000000010c85       0x1c /home/ch/RIOT/tests/capteur/bin/lora-e5-dev/application_tests_capteur/main.o
 .debug_macro   0x0000000000010ca1       0x6b /home/ch/RIOT/tests/capteur/bin/lora-e5-dev/application_tests_capteur/main.o
 .debug_macro   0x0000000000010d0c       0x28 /home/ch/RIOT/tests/capteur/bin/lora-e5-dev/application_tests_capteur/main.o
 .debug_macro   0x0000000000010d34       0x16 /home/ch/RIOT/tests/capteur/bin/lora-e5-dev/application_tests_capteur/main.o
 .debug_macro   0x0000000000010d4a       0x38 /home/ch/RIOT/tests/capteur/bin/lora-e5-dev/application_tests_capteur/main.o
 .debug_macro   0x0000000000010d82       0x43 /home/ch/RIOT/tests/capteur/bin/lora-e5-dev/application_tests_capteur/main.o
 .debug_macro   0x0000000000010dc5       0x1c /home/ch/RIOT/tests/capteur/bin/lora-e5-dev/application_tests_capteur/main.o
 .debug_macro   0x0000000000010de1       0x22 /home/ch/RIOT/tests/capteur/bin/lora-e5-dev/application_tests_capteur/main.o
 .debug_macro   0x0000000000010e03       0x10 /home/ch/RIOT/tests/capteur/bin/lora-e5-dev/application_tests_capteur/main.o
 .debug_macro   0x0000000000010e13      0x1e9 /home/ch/RIOT/tests/capteur/bin/lora-e5-dev/auto_init/auto_init.o
 .debug_macro   0x0000000000010ffc      0xaf6 /home/ch/RIOT/tests/capteur/bin/lora-e5-dev/auto_init/auto_init.o
 .debug_macro   0x0000000000011af2       0x16 /home/ch/RIOT/tests/capteur/bin/lora-e5-dev/auto_init/auto_init.o
 .debug_macro   0x0000000000011b08       0x97 /home/ch/RIOT/tests/capteur/bin/lora-e5-dev/auto_init/auto_init.o
 .debug_macro   0x0000000000011b9f       0xfd /home/ch/RIOT/tests/capteur/bin/lora-e5-dev/auto_init/auto_init.o
 .debug_macro   0x0000000000011c9c       0x34 /home/ch/RIOT/tests/capteur/bin/lora-e5-dev/auto_init/auto_init.o
 .debug_macro   0x0000000000011cd0      0x408 /home/ch/RIOT/tests/capteur/bin/lora-e5-dev/board/board.o
 .debug_macro   0x00000000000120d8      0xaf6 /home/ch/RIOT/tests/capteur/bin/lora-e5-dev/board/board.o
 .debug_macro   0x0000000000012bce      0x197 /home/ch/RIOT/tests/capteur/bin/lora-e5-dev/board/board.o
 .debug_macro   0x0000000000012d65       0x7c /home/ch/RIOT/tests/capteur/bin/lora-e5-dev/board/board.o
 .debug_macro   0x0000000000012de1      0x428 /home/ch/RIOT/tests/capteur/bin/lora-e5-dev/core/init.o
 .debug_macro   0x0000000000013209      0xaf6 /home/ch/RIOT/tests/capteur/bin/lora-e5-dev/core/init.o
 .debug_macro   0x0000000000013cff       0x10 /home/ch/RIOT/tests/capteur/bin/lora-e5-dev/core/init.o
 .debug_macro   0x0000000000013d0f      0x23b /home/ch/RIOT/tests/capteur/bin/lora-e5-dev/core/init.o
 .debug_macro   0x0000000000013f4a       0x2e /home/ch/RIOT/tests/capteur/bin/lora-e5-dev/core/init.o
 .debug_macro   0x0000000000013f78       0x10 /home/ch/RIOT/tests/capteur/bin/lora-e5-dev/core/init.o
 .debug_macro   0x0000000000013f88      0x2f7 /home/ch/RIOT/tests/capteur/bin/lora-e5-dev/core/mutex.o
 .debug_macro   0x000000000001427f      0xaf6 /home/ch/RIOT/tests/capteur/bin/lora-e5-dev/core/mutex.o
 .debug_macro   0x0000000000014d75      0x379 /home/ch/RIOT/tests/capteur/bin/lora-e5-dev/core/mutex.o
 .debug_macro   0x00000000000150ee       0x28 /home/ch/RIOT/tests/capteur/bin/lora-e5-dev/core/mutex.o
 .debug_macro   0x0000000000015116      0x3f6 /home/ch/RIOT/tests/capteur/bin/lora-e5-dev/core/panic.o
 .debug_macro   0x000000000001550c      0xaf6 /home/ch/RIOT/tests/capteur/bin/lora-e5-dev/core/panic.o
 .debug_macro   0x0000000000016002       0x10 /home/ch/RIOT/tests/capteur/bin/lora-e5-dev/core/panic.o
 .debug_macro   0x0000000000016012      0x2ec /home/ch/RIOT/tests/capteur/bin/lora-e5-dev/core/sched.o
 .debug_macro   0x00000000000162fe      0xaf6 /home/ch/RIOT/tests/capteur/bin/lora-e5-dev/core/sched.o
 .debug_macro   0x0000000000016df4      0x301 /home/ch/RIOT/tests/capteur/bin/lora-e5-dev/core/thread.o
 .debug_macro   0x00000000000170f5      0xaf6 /home/ch/RIOT/tests/capteur/bin/lora-e5-dev/core/thread.o
 .debug_macro   0x0000000000017beb       0x22 /home/ch/RIOT/tests/capteur/bin/lora-e5-dev/core/thread.o
 .debug_macro   0x0000000000017c0d       0xdc /home/ch/RIOT/tests/capteur/bin/lora-e5-dev/core/thread.o
 .debug_macro   0x0000000000017ce9      0x2d3 /home/ch/RIOT/tests/capteur/bin/lora-e5-dev/cortexm_common/cortexm_init.o
 .debug_macro   0x0000000000017fbc      0xaf6 /home/ch/RIOT/tests/capteur/bin/lora-e5-dev/cortexm_common/cortexm_init.o
 .debug_macro   0x0000000000018ab2      0x2d6 /home/ch/RIOT/tests/capteur/bin/lora-e5-dev/cortexm_common/panic.o
 .debug_macro   0x0000000000018d88      0xaf6 /home/ch/RIOT/tests/capteur/bin/lora-e5-dev/cortexm_common/panic.o
 .debug_macro   0x000000000001987e      0x2f3 /home/ch/RIOT/tests/capteur/bin/lora-e5-dev/cortexm_common/thread_arch.o
 .debug_macro   0x0000000000019b71      0xaf6 /home/ch/RIOT/tests/capteur/bin/lora-e5-dev/cortexm_common/thread_arch.o
 .debug_macro   0x000000000001a667       0x1c /home/ch/RIOT/tests/capteur/bin/lora-e5-dev/cortexm_common/thread_arch.o
 .debug_macro   0x000000000001a683      0x408 /home/ch/RIOT/tests/capteur/bin/lora-e5-dev/cortexm_common/vectors_cortexm.o
 .debug_macro   0x000000000001aa8b      0xaf6 /home/ch/RIOT/tests/capteur/bin/lora-e5-dev/cortexm_common/vectors_cortexm.o
 .debug_macro   0x000000000001b581       0x1c /home/ch/RIOT/tests/capteur/bin/lora-e5-dev/cortexm_common/vectors_cortexm.o
 .debug_macro   0x000000000001b59d      0x414 /home/ch/RIOT/tests/capteur/bin/lora-e5-dev/cpu/cpu_common.o
 .debug_macro   0x000000000001b9b1      0xaf6 /home/ch/RIOT/tests/capteur/bin/lora-e5-dev/cpu/cpu_common.o
 .debug_macro   0x000000000001c4a7      0x463 /home/ch/RIOT/tests/capteur/bin/lora-e5-dev/cpu/cpu_init.o
 .debug_macro   0x000000000001c90a      0xaf6 /home/ch/RIOT/tests/capteur/bin/lora-e5-dev/cpu/cpu_init.o
 .debug_macro   0x000000000001d400       0x16 /home/ch/RIOT/tests/capteur/bin/lora-e5-dev/cpu/cpu_init.o
 .debug_macro   0x000000000001d416      0x4fe /home/ch/RIOT/tests/capteur/bin/lora-e5-dev/cpu/cpu_init.o
 .debug_macro   0x000000000001d914      0x176 /home/ch/RIOT/tests/capteur/bin/lora-e5-dev/div/div.o
 .debug_macro   0x000000000001da8a      0xaf6 /home/ch/RIOT/tests/capteur/bin/lora-e5-dev/div/div.o
 .debug_macro   0x000000000001e580      0x285 /home/ch/RIOT/tests/capteur/bin/lora-e5-dev/malloc_thread_safe/malloc_wrappers.o
 .debug_macro   0x000000000001e805      0xaf6 /home/ch/RIOT/tests/capteur/bin/lora-e5-dev/malloc_thread_safe/malloc_wrappers.o
 .debug_macro   0x000000000001f2fb      0x5db /home/ch/RIOT/tests/capteur/bin/lora-e5-dev/newlib_syscalls_default/syscalls.o
 .debug_macro   0x000000000001f8d6      0xaf6 /home/ch/RIOT/tests/capteur/bin/lora-e5-dev/newlib_syscalls_default/syscalls.o
 .debug_macro   0x00000000000203cc       0x10 /home/ch/RIOT/tests/capteur/bin/lora-e5-dev/newlib_syscalls_default/syscalls.o
 .debug_macro   0x00000000000203dc       0xcf /home/ch/RIOT/tests/capteur/bin/lora-e5-dev/newlib_syscalls_default/syscalls.o
 .debug_macro   0x00000000000204ab       0x20 /home/ch/RIOT/tests/capteur/bin/lora-e5-dev/newlib_syscalls_default/syscalls.o
 .debug_macro   0x00000000000204cb       0xbe /home/ch/RIOT/tests/capteur/bin/lora-e5-dev/newlib_syscalls_default/syscalls.o
 .debug_macro   0x0000000000020589       0x10 /home/ch/RIOT/tests/capteur/bin/lora-e5-dev/newlib_syscalls_default/syscalls.o
 .debug_macro   0x0000000000020599      0x241 /home/ch/RIOT/tests/capteur/bin/lora-e5-dev/newlib_syscalls_default/syscalls.o
 .debug_macro   0x00000000000207da       0x10 /home/ch/RIOT/tests/capteur/bin/lora-e5-dev/newlib_syscalls_default/syscalls.o
 .debug_macro   0x00000000000207ea       0x3c /home/ch/RIOT/tests/capteur/bin/lora-e5-dev/newlib_syscalls_default/syscalls.o
 .debug_macro   0x0000000000020826       0xff /home/ch/RIOT/tests/capteur/bin/lora-e5-dev/newlib_syscalls_default/syscalls.o
 .debug_macro   0x0000000000020925       0x16 /home/ch/RIOT/tests/capteur/bin/lora-e5-dev/newlib_syscalls_default/syscalls.o
 .debug_macro   0x000000000002093b      0x102 /home/ch/RIOT/tests/capteur/bin/lora-e5-dev/newlib_syscalls_default/syscalls.o
 .debug_macro   0x0000000000020a3d       0x10 /home/ch/RIOT/tests/capteur/bin/lora-e5-dev/newlib_syscalls_default/syscalls.o
 .debug_macro   0x0000000000020a4d       0x43 /home/ch/RIOT/tests/capteur/bin/lora-e5-dev/newlib_syscalls_default/syscalls.o
 .debug_macro   0x0000000000020a90      0x3c1 /home/ch/RIOT/tests/capteur/bin/lora-e5-dev/periph_common/init.o
 .debug_macro   0x0000000000020e51      0xaf6 /home/ch/RIOT/tests/capteur/bin/lora-e5-dev/periph_common/init.o
 .debug_macro   0x0000000000021947      0x426 /home/ch/RIOT/tests/capteur/bin/lora-e5-dev/periph/gpio_all.o
 .debug_macro   0x0000000000021d6d      0xaf6 /home/ch/RIOT/tests/capteur/bin/lora-e5-dev/periph/gpio_all.o
 .debug_macro   0x0000000000022863      0x413 /home/ch/RIOT/tests/capteur/bin/lora-e5-dev/periph/pm.o
 .debug_macro   0x0000000000022c76      0xaf6 /home/ch/RIOT/tests/capteur/bin/lora-e5-dev/periph/pm.o
 .debug_macro   0x000000000002376c      0x40a /home/ch/RIOT/tests/capteur/bin/lora-e5-dev/periph/timer.o
 .debug_macro   0x0000000000023b76      0xaf6 /home/ch/RIOT/tests/capteur/bin/lora-e5-dev/periph/timer.o
 .debug_macro   0x000000000002466c      0x45d /home/ch/RIOT/tests/capteur/bin/lora-e5-dev/periph/uart.o
 .debug_macro   0x0000000000024ac9      0xaf6 /home/ch/RIOT/tests/capteur/bin/lora-e5-dev/periph/uart.o
 .debug_macro   0x00000000000255bf       0x10 /home/ch/RIOT/tests/capteur/bin/lora-e5-dev/periph/uart.o
 .debug_macro   0x00000000000255cf      0x412 /home/ch/RIOT/tests/capteur/bin/lora-e5-dev/pm_layered/pm.o
 .debug_macro   0x00000000000259e1      0xaf6 /home/ch/RIOT/tests/capteur/bin/lora-e5-dev/pm_layered/pm.o
 .debug_macro   0x00000000000264d7       0x28 /home/ch/RIOT/tests/capteur/bin/lora-e5-dev/pm_layered/pm.o
 .debug_macro   0x00000000000264ff       0x27 /home/ch/RIOT/tests/capteur/bin/lora-e5-dev/pm_layered/pm.o
 .debug_macro   0x0000000000026526      0x4bd /home/ch/RIOT/tests/capteur/bin/lora-e5-dev/stdio_uart/stdio_uart.o
 .debug_macro   0x00000000000269e3      0xaf6 /home/ch/RIOT/tests/capteur/bin/lora-e5-dev/stdio_uart/stdio_uart.o
 .debug_macro   0x00000000000274d9       0x16 /home/ch/RIOT/tests/capteur/bin/lora-e5-dev/stdio_uart/stdio_uart.o
 .debug_macro   0x00000000000274ef      0x423 /home/ch/RIOT/tests/capteur/bin/lora-e5-dev/stm32_clk/stmclk_common.o
 .debug_macro   0x0000000000027912      0xaf6 /home/ch/RIOT/tests/capteur/bin/lora-e5-dev/stm32_clk/stmclk_common.o
 .debug_macro   0x0000000000028408      0x55d /home/ch/RIOT/tests/capteur/bin/lora-e5-dev/stm32_clk/stmclk_l4wx.o
 .debug_macro   0x0000000000028965      0xaf6 /home/ch/RIOT/tests/capteur/bin/lora-e5-dev/stm32_clk/stmclk_l4wx.o
 .debug_macro   0x000000000002945b       0xb7 /home/ch/RIOT/tests/capteur/bin/lora-e5-dev/stm32_vectors/STM32WLE5xx.o
 .debug_macro   0x0000000000029512      0xaf6 /home/ch/RIOT/tests/capteur/bin/lora-e5-dev/stm32_vectors/STM32WLE5xx.o
 .debug_macro   0x000000000002a008       0x16 /home/ch/RIOT/tests/capteur/bin/lora-e5-dev/stm32_vectors/STM32WLE5xx.o
 .debug_macro   0x000000000002a01e      0x4a6 /home/ch/RIOT/tests/capteur/bin/lora-e5-dev/xtimer/xtimer_core.o
 .debug_macro   0x000000000002a4c4      0xaf6 /home/ch/RIOT/tests/capteur/bin/lora-e5-dev/xtimer/xtimer_core.o
 .debug_macro   0x000000000002afba       0x16 /home/ch/RIOT/tests/capteur/bin/lora-e5-dev/xtimer/xtimer_core.o

.debug_line     0x0000000000000000    0x19154
 .debug_line    0x0000000000000000      0xb28 /home/ch/RIOT/tests/capteur/bin/lora-e5-dev/application_tests_capteur/main.o
 .debug_line    0x0000000000000b28      0x314 /home/ch/RIOT/tests/capteur/bin/lora-e5-dev/auto_init/auto_init.o
 .debug_line    0x0000000000000e3c      0x868 /home/ch/RIOT/tests/capteur/bin/lora-e5-dev/board/board.o
 .debug_line    0x00000000000016a4      0x7de /home/ch/RIOT/tests/capteur/bin/lora-e5-dev/core/init.o
 .debug_line    0x0000000000001e82      0xc49 /home/ch/RIOT/tests/capteur/bin/lora-e5-dev/core/mutex.o
 .debug_line    0x0000000000002acb      0x835 /home/ch/RIOT/tests/capteur/bin/lora-e5-dev/core/panic.o
 .debug_line    0x0000000000003300      0x93c /home/ch/RIOT/tests/capteur/bin/lora-e5-dev/core/sched.o
 .debug_line    0x0000000000003c3c      0xe71 /home/ch/RIOT/tests/capteur/bin/lora-e5-dev/core/thread.o
 .debug_line    0x0000000000004aad      0x652 /home/ch/RIOT/tests/capteur/bin/lora-e5-dev/cortexm_common/cortexm_init.o
 .debug_line    0x00000000000050ff      0x55b /home/ch/RIOT/tests/capteur/bin/lora-e5-dev/cortexm_common/panic.o
 .debug_line    0x000000000000565a      0x83a /home/ch/RIOT/tests/capteur/bin/lora-e5-dev/cortexm_common/thread_arch.o
 .debug_line    0x0000000000005e94      0xa19 /home/ch/RIOT/tests/capteur/bin/lora-e5-dev/cortexm_common/vectors_cortexm.o
 .debug_line    0x00000000000068ad      0x928 /home/ch/RIOT/tests/capteur/bin/lora-e5-dev/cpu/cpu_common.o
 .debug_line    0x00000000000071d5      0x8ea /home/ch/RIOT/tests/capteur/bin/lora-e5-dev/cpu/cpu_init.o
 .debug_line    0x0000000000007abf      0x2de /home/ch/RIOT/tests/capteur/bin/lora-e5-dev/div/div.o
 .debug_line    0x0000000000007d9d      0x639 /home/ch/RIOT/tests/capteur/bin/lora-e5-dev/malloc_thread_safe/malloc_wrappers.o
 .debug_line    0x00000000000083d6      0xee5 /home/ch/RIOT/tests/capteur/bin/lora-e5-dev/newlib_syscalls_default/syscalls.o
 .debug_line    0x00000000000092bb      0x6e8 /home/ch/RIOT/tests/capteur/bin/lora-e5-dev/periph_common/init.o
 .debug_line    0x00000000000099a3      0xc05 /home/ch/RIOT/tests/capteur/bin/lora-e5-dev/periph/gpio_all.o
 .debug_line    0x000000000000a5a8      0x872 /home/ch/RIOT/tests/capteur/bin/lora-e5-dev/periph/pm.o
 .debug_line    0x000000000000ae1a      0xb84 /home/ch/RIOT/tests/capteur/bin/lora-e5-dev/periph/timer.o
 .debug_line    0x000000000000b99e      0xc4d /home/ch/RIOT/tests/capteur/bin/lora-e5-dev/periph/uart.o
 .debug_line    0x000000000000c5eb      0x9fa /home/ch/RIOT/tests/capteur/bin/lora-e5-dev/pm_layered/pm.o
 .debug_line    0x000000000000cfe5      0x909 /home/ch/RIOT/tests/capteur/bin/lora-e5-dev/stdio_uart/stdio_uart.o
 .debug_line    0x000000000000d8ee      0x995 /home/ch/RIOT/tests/capteur/bin/lora-e5-dev/stm32_clk/stmclk_common.o
 .debug_line    0x000000000000e283      0x9ef /home/ch/RIOT/tests/capteur/bin/lora-e5-dev/stm32_clk/stmclk_l4wx.o
 .debug_line    0x000000000000ec72      0x273 /home/ch/RIOT/tests/capteur/bin/lora-e5-dev/stm32_vectors/STM32WLE5xx.o
 .debug_line    0x000000000000eee5      0xf1b /home/ch/RIOT/tests/capteur/bin/lora-e5-dev/xtimer/xtimer_core.o
 .debug_line    0x000000000000fe00       0xd4 /usr/lib/gcc/arm-none-eabi/9.2.1/thumb/v7e-m/nofp/libgcc.a(_arm_mulsf3.o)
 .debug_line    0x000000000000fed4      0x186 /usr/lib/gcc/arm-none-eabi/9.2.1/thumb/v7e-m/nofp/libgcc.a(_arm_addsubdf3.o)
 .debug_line    0x000000000001005a      0x19b /usr/lib/gcc/arm-none-eabi/9.2.1/thumb/v7e-m/nofp/libgcc.a(_arm_muldivdf3.o)
 .debug_line    0x00000000000101f5       0x8d /usr/lib/gcc/arm-none-eabi/9.2.1/thumb/v7e-m/nofp/libgcc.a(_arm_truncdfsf2.o)
 .debug_line    0x0000000000010282       0x79 /usr/lib/gcc/arm-none-eabi/9.2.1/thumb/v7e-m/nofp/libgcc.a(_arm_fixsfsi.o)
 .debug_line    0x00000000000102fb       0xe3 /usr/lib/gcc/arm-none-eabi/9.2.1/../../../arm-none-eabi/lib/thumb/v7e-m/nofp/libc_nano.a(lib_a-impure.o)
 .debug_line    0x00000000000103de      0x10d /usr/lib/gcc/arm-none-eabi/9.2.1/../../../arm-none-eabi/lib/thumb/v7e-m/nofp/libc_nano.a(lib_a-init.o)
 .debug_line    0x00000000000104eb      0x15e /usr/lib/gcc/arm-none-eabi/9.2.1/../../../arm-none-eabi/lib/thumb/v7e-m/nofp/libc_nano.a(lib_a-malloc.o)
 .debug_line    0x0000000000010649       0xbe /usr/lib/gcc/arm-none-eabi/9.2.1/../../../arm-none-eabi/lib/thumb/v7e-m/nofp/libc_nano.a(lib_a-memcpy.o)
 .debug_line    0x0000000000010707      0x26b /usr/lib/gcc/arm-none-eabi/9.2.1/../../../arm-none-eabi/lib/thumb/v7e-m/nofp/libc_nano.a(lib_a-memset.o)
 .debug_line    0x0000000000010972      0x2af /usr/lib/gcc/arm-none-eabi/9.2.1/../../../arm-none-eabi/lib/thumb/v7e-m/nofp/libc_nano.a(lib_a-nano-freer.o)
 .debug_line    0x0000000000010c21      0x2f2 /usr/lib/gcc/arm-none-eabi/9.2.1/../../../arm-none-eabi/lib/thumb/v7e-m/nofp/libc_nano.a(lib_a-nano-mallocr.o)
 .debug_line    0x0000000000010f13      0x9b2 /usr/lib/gcc/arm-none-eabi/9.2.1/../../../arm-none-eabi/lib/thumb/v7e-m/nofp/libc_nano.a(lib_a-nano-vfprintf_float.o)
 .debug_line    0x00000000000118c5      0x790 /usr/lib/gcc/arm-none-eabi/9.2.1/../../../arm-none-eabi/lib/thumb/v7e-m/nofp/libc_nano.a(lib_a-nano-vfprintf_i.o)
 .debug_line    0x0000000000012055      0x1fc /usr/lib/gcc/arm-none-eabi/9.2.1/../../../arm-none-eabi/lib/thumb/v7e-m/nofp/libc_nano.a(lib_a-printf.o)
 .debug_line    0x0000000000012251      0x316 /usr/lib/gcc/arm-none-eabi/9.2.1/../../../arm-none-eabi/lib/thumb/v7e-m/nofp/libc_nano.a(lib_a-puts.o)
 .debug_line    0x0000000000012567       0xaf /usr/lib/gcc/arm-none-eabi/9.2.1/../../../arm-none-eabi/lib/thumb/v7e-m/nofp/libc_nano.a(lib_a-strlen.o)
 .debug_line    0x0000000000012616      0x1cb /usr/lib/gcc/arm-none-eabi/9.2.1/../../../arm-none-eabi/lib/thumb/v7e-m/nofp/libc_nano.a(lib_a-time.o)
 .debug_line    0x00000000000127e1      0x27c /usr/lib/gcc/arm-none-eabi/9.2.1/../../../arm-none-eabi/lib/thumb/v7e-m/nofp/libc_nano.a(lib_a-wbuf.o)
 .debug_line    0x0000000000012a5d      0x311 /usr/lib/gcc/arm-none-eabi/9.2.1/../../../arm-none-eabi/lib/thumb/v7e-m/nofp/libc_nano.a(lib_a-wsetup.o)
 .debug_line    0x0000000000012d6e     0x140a /usr/lib/gcc/arm-none-eabi/9.2.1/../../../arm-none-eabi/lib/thumb/v7e-m/nofp/libc_nano.a(lib_a-dtoa.o)
 .debug_line    0x0000000000014178      0x418 /usr/lib/gcc/arm-none-eabi/9.2.1/../../../arm-none-eabi/lib/thumb/v7e-m/nofp/libc_nano.a(lib_a-fflush.o)
 .debug_line    0x0000000000014590      0x561 /usr/lib/gcc/arm-none-eabi/9.2.1/../../../arm-none-eabi/lib/thumb/v7e-m/nofp/libc_nano.a(lib_a-findfp.o)
 .debug_line    0x0000000000014af1      0x19a /usr/lib/gcc/arm-none-eabi/9.2.1/../../../arm-none-eabi/lib/thumb/v7e-m/nofp/libc_nano.a(lib_a-fprintf.o)
 .debug_line    0x0000000000014c8b      0x289 /usr/lib/gcc/arm-none-eabi/9.2.1/../../../arm-none-eabi/lib/thumb/v7e-m/nofp/libc_nano.a(lib_a-fwalk.o)
 .debug_line    0x0000000000014f14      0x1ca /usr/lib/gcc/arm-none-eabi/9.2.1/../../../arm-none-eabi/lib/thumb/v7e-m/nofp/libc_nano.a(lib_a-localeconv.o)
 .debug_line    0x00000000000150de      0x36f /usr/lib/gcc/arm-none-eabi/9.2.1/../../../arm-none-eabi/lib/thumb/v7e-m/nofp/libc_nano.a(lib_a-makebuf.o)
 .debug_line    0x000000000001544d       0xa4 /usr/lib/gcc/arm-none-eabi/9.2.1/../../../arm-none-eabi/lib/thumb/v7e-m/nofp/libc_nano.a(lib_a-memchr.o)
 .debug_line    0x00000000000154f1      0x13d /usr/lib/gcc/arm-none-eabi/9.2.1/../../../arm-none-eabi/lib/thumb/v7e-m/nofp/libc_nano.a(lib_a-mlock.o)
 .debug_line    0x000000000001562e     0x1451 /usr/lib/gcc/arm-none-eabi/9.2.1/../../../arm-none-eabi/lib/thumb/v7e-m/nofp/libc_nano.a(lib_a-mprec.o)
 .debug_line    0x0000000000016a7f      0x17a /usr/lib/gcc/arm-none-eabi/9.2.1/../../../arm-none-eabi/lib/thumb/v7e-m/nofp/libc_nano.a(lib_a-nano-callocr.o)
 .debug_line    0x0000000000016bf9      0x1c5 /usr/lib/gcc/arm-none-eabi/9.2.1/../../../arm-none-eabi/lib/thumb/v7e-m/nofp/libc_nano.a(lib_a-nano-reallocr.o)
 .debug_line    0x0000000000016dbe      0x726 /usr/lib/gcc/arm-none-eabi/9.2.1/../../../arm-none-eabi/lib/thumb/v7e-m/nofp/libc_nano.a(lib_a-nano-vfprintf.o)
 .debug_line    0x00000000000174e4      0x25f /usr/lib/gcc/arm-none-eabi/9.2.1/../../../arm-none-eabi/lib/thumb/v7e-m/nofp/libc_nano.a(lib_a-stdio.o)
 .debug_line    0x0000000000017743      0x18d /usr/lib/gcc/arm-none-eabi/9.2.1/../../../arm-none-eabi/lib/thumb/v7e-m/nofp/libc_nano.a(lib_a-assert.o)
 .debug_line    0x00000000000178d0      0x5e8 /usr/lib/gcc/arm-none-eabi/9.2.1/../../../arm-none-eabi/lib/thumb/v7e-m/nofp/libc_nano.a(lib_a-fvwrite.o)
 .debug_line    0x0000000000017eb8      0x252 /usr/lib/gcc/arm-none-eabi/9.2.1/../../../arm-none-eabi/lib/thumb/v7e-m/nofp/libc_nano.a(lib_a-locale.o)
 .debug_line    0x000000000001810a      0x228 /usr/lib/gcc/arm-none-eabi/9.2.1/../../../arm-none-eabi/lib/thumb/v7e-m/nofp/libc_nano.a(lib_a-mbtowc_r.o)
 .debug_line    0x0000000000018332      0x287 /usr/lib/gcc/arm-none-eabi/9.2.1/../../../arm-none-eabi/lib/thumb/v7e-m/nofp/libc_nano.a(lib_a-memmove.o)
 .debug_line    0x00000000000185b9      0x166 /usr/lib/gcc/arm-none-eabi/9.2.1/../../../arm-none-eabi/lib/thumb/v7e-m/nofp/libc_nano.a(lib_a-nano-msizer.o)
 .debug_line    0x000000000001871f      0x212 /usr/lib/gcc/arm-none-eabi/9.2.1/../../../arm-none-eabi/lib/thumb/v7e-m/nofp/libc_nano.a(lib_a-wctomb_r.o)
 .debug_line    0x0000000000018931      0x15f /usr/lib/gcc/arm-none-eabi/9.2.1/../../../arm-none-eabi/lib/thumb/v7e-m/nofp/libc_nano.a(lib_a-abort.o)
 .debug_line    0x0000000000018a90      0x154 /usr/lib/gcc/arm-none-eabi/9.2.1/../../../arm-none-eabi/lib/thumb/v7e-m/nofp/libc_nano.a(lib_a-ctype_.o)
 .debug_line    0x0000000000018be4      0x3cc /usr/lib/gcc/arm-none-eabi/9.2.1/../../../arm-none-eabi/lib/thumb/v7e-m/nofp/libc_nano.a(lib_a-signal.o)
 .debug_line    0x0000000000018fb0       0xbd /usr/lib/gcc/arm-none-eabi/9.2.1/thumb/v7e-m/nofp/libgcc.a(_arm_cmpdf2.o)
 .debug_line    0x000000000001906d       0x6e /usr/lib/gcc/arm-none-eabi/9.2.1/thumb/v7e-m/nofp/libgcc.a(_arm_unorddf2.o)
 .debug_line    0x00000000000190db       0x79 /usr/lib/gcc/arm-none-eabi/9.2.1/thumb/v7e-m/nofp/libgcc.a(_arm_fixdfsi.o)

.debug_str      0x0000000000000000    0x6427a
 .debug_str     0x0000000000000000    0x5cc31 /home/ch/RIOT/tests/capteur/bin/lora-e5-dev/application_tests_capteur/main.o
                                      0x5d157 (size before relaxing)
 .debug_str     0x000000000005cc31      0x5c2 /home/ch/RIOT/tests/capteur/bin/lora-e5-dev/auto_init/auto_init.o
                                       0x9703 (size before relaxing)
 .debug_str     0x000000000005d1f3       0xf7 /home/ch/RIOT/tests/capteur/bin/lora-e5-dev/board/board.o
                                      0x5bd07 (size before relaxing)
 .debug_str     0x000000000005d2ea      0x79f /home/ch/RIOT/tests/capteur/bin/lora-e5-dev/core/init.o
                                      0x5bad5 (size before relaxing)
 .debug_str     0x000000000005da89      0x342 /home/ch/RIOT/tests/capteur/bin/lora-e5-dev/core/mutex.o
                                      0x5a9a7 (size before relaxing)
 .debug_str     0x000000000005ddcb       0xc2 /home/ch/RIOT/tests/capteur/bin/lora-e5-dev/core/panic.o
                                      0x5b531 (size before relaxing)
 .debug_str     0x000000000005de8d      0x4bd /home/ch/RIOT/tests/capteur/bin/lora-e5-dev/core/sched.o
                                      0x5a855 (size before relaxing)
 .debug_str     0x000000000005e34a      0x24f /home/ch/RIOT/tests/capteur/bin/lora-e5-dev/core/thread.o
                                      0x5adc7 (size before relaxing)
 .debug_str     0x000000000005e599      0x595 /home/ch/RIOT/tests/capteur/bin/lora-e5-dev/cortexm_common/cortexm_init.o
                                      0x5a6b6 (size before relaxing)
 .debug_str     0x000000000005eb2e       0x64 /home/ch/RIOT/tests/capteur/bin/lora-e5-dev/cortexm_common/panic.o
                                      0x5a2d3 (size before relaxing)
 .debug_str     0x000000000005eb92      0x1a8 /home/ch/RIOT/tests/capteur/bin/lora-e5-dev/cortexm_common/thread_arch.o
                                      0x5a552 (size before relaxing)
 .debug_str     0x000000000005ed3a      0x42d /home/ch/RIOT/tests/capteur/bin/lora-e5-dev/cortexm_common/vectors_cortexm.o
                                      0x5ba24 (size before relaxing)
 .debug_str     0x000000000005f167      0x215 /home/ch/RIOT/tests/capteur/bin/lora-e5-dev/cpu/cpu_common.o
                                      0x5bd73 (size before relaxing)
 .debug_str     0x000000000005f37c     0x10fd /home/ch/RIOT/tests/capteur/bin/lora-e5-dev/cpu/cpu_init.o
                                      0x5cd23 (size before relaxing)
 .debug_str     0x0000000000060479       0xbd /home/ch/RIOT/tests/capteur/bin/lora-e5-dev/div/div.o
                                       0x8118 (size before relaxing)
 .debug_str     0x0000000000060536      0x137 /home/ch/RIOT/tests/capteur/bin/lora-e5-dev/malloc_thread_safe/malloc_wrappers.o
                                      0x59a47 (size before relaxing)
 .debug_str     0x000000000006066d      0x925 /home/ch/RIOT/tests/capteur/bin/lora-e5-dev/newlib_syscalls_default/syscalls.o
                                      0x5f04c (size before relaxing)
 .debug_str     0x0000000000060f92       0x9e /home/ch/RIOT/tests/capteur/bin/lora-e5-dev/periph_common/init.o
                                      0x5b249 (size before relaxing)
 .debug_str     0x0000000000061030      0x1e8 /home/ch/RIOT/tests/capteur/bin/lora-e5-dev/periph/gpio_all.o
                                      0x5beda (size before relaxing)
 .debug_str     0x0000000000061218      0x1b2 /home/ch/RIOT/tests/capteur/bin/lora-e5-dev/periph/pm.o
                                      0x5b62c (size before relaxing)
 .debug_str     0x00000000000613ca      0x11c /home/ch/RIOT/tests/capteur/bin/lora-e5-dev/periph/timer.o
                                      0x5c031 (size before relaxing)
 .debug_str     0x00000000000614e6      0x26a /home/ch/RIOT/tests/capteur/bin/lora-e5-dev/periph/uart.o
                                      0x5c76a (size before relaxing)
 .debug_str     0x0000000000061750      0x41a /home/ch/RIOT/tests/capteur/bin/lora-e5-dev/pm_layered/pm.o
                                      0x5b925 (size before relaxing)
 .debug_str     0x0000000000061b6a      0x185 /home/ch/RIOT/tests/capteur/bin/lora-e5-dev/stdio_uart/stdio_uart.o
                                      0x5d44d (size before relaxing)
 .debug_str     0x0000000000061cef      0x181 /home/ch/RIOT/tests/capteur/bin/lora-e5-dev/stm32_clk/stmclk_common.o
                                      0x5bca2 (size before relaxing)
 .debug_str     0x0000000000061e70      0x7c8 /home/ch/RIOT/tests/capteur/bin/lora-e5-dev/stm32_clk/stmclk_l4wx.o
                                      0x5c385 (size before relaxing)
 .debug_str     0x0000000000062638       0xbd /home/ch/RIOT/tests/capteur/bin/lora-e5-dev/stm32_vectors/STM32WLE5xx.o
                                      0x54b7a (size before relaxing)
 .debug_str     0x00000000000626f5      0x219 /home/ch/RIOT/tests/capteur/bin/lora-e5-dev/xtimer/xtimer_core.o
                                      0x5d3eb (size before relaxing)
 .debug_str     0x000000000006290e       0xa5 /usr/lib/gcc/arm-none-eabi/9.2.1/thumb/v7e-m/nofp/libgcc.a(_arm_mulsf3.o)
 .debug_str     0x00000000000629b3       0x31 /usr/lib/gcc/arm-none-eabi/9.2.1/thumb/v7e-m/nofp/libgcc.a(_arm_addsubdf3.o)
                                         0xa5 (size before relaxing)
 .debug_str     0x00000000000629e4       0xa5 /usr/lib/gcc/arm-none-eabi/9.2.1/thumb/v7e-m/nofp/libgcc.a(_arm_muldivdf3.o)
 .debug_str     0x00000000000629e4       0xa5 /usr/lib/gcc/arm-none-eabi/9.2.1/thumb/v7e-m/nofp/libgcc.a(_arm_truncdfsf2.o)
 .debug_str     0x00000000000629e4       0xa5 /usr/lib/gcc/arm-none-eabi/9.2.1/thumb/v7e-m/nofp/libgcc.a(_arm_fixsfsi.o)
 .debug_str     0x00000000000629e4      0x12b /usr/lib/gcc/arm-none-eabi/9.2.1/../../../arm-none-eabi/lib/thumb/v7e-m/nofp/libc_nano.a(lib_a-impure.o)
                                        0x5dc (size before relaxing)
 .debug_str     0x0000000000062b0f       0xdb /usr/lib/gcc/arm-none-eabi/9.2.1/../../../arm-none-eabi/lib/thumb/v7e-m/nofp/libc_nano.a(lib_a-init.o)
                                        0x223 (size before relaxing)
 .debug_str     0x0000000000062bea       0xbb /usr/lib/gcc/arm-none-eabi/9.2.1/../../../arm-none-eabi/lib/thumb/v7e-m/nofp/libc_nano.a(lib_a-malloc.o)
                                        0x60d (size before relaxing)
 .debug_str     0x0000000000062ca5       0xa7 /usr/lib/gcc/arm-none-eabi/9.2.1/../../../arm-none-eabi/lib/thumb/v7e-m/nofp/libc_nano.a(lib_a-memcpy.o)
                                         0xb3 (size before relaxing)
 .debug_str     0x0000000000062d4c      0x2ea /usr/lib/gcc/arm-none-eabi/9.2.1/../../../arm-none-eabi/lib/thumb/v7e-m/nofp/libc_nano.a(lib_a-memset.o)
                                        0x909 (size before relaxing)
 .debug_str     0x0000000000063036       0xe2 /usr/lib/gcc/arm-none-eabi/9.2.1/../../../arm-none-eabi/lib/thumb/v7e-m/nofp/libc_nano.a(lib_a-nano-freer.o)
                                        0x70c (size before relaxing)
 .debug_str     0x0000000000063118       0x2a /usr/lib/gcc/arm-none-eabi/9.2.1/../../../arm-none-eabi/lib/thumb/v7e-m/nofp/libc_nano.a(lib_a-nano-mallocr.o)
                                        0x723 (size before relaxing)
 .debug_str     0x0000000000063142      0x306 /usr/lib/gcc/arm-none-eabi/9.2.1/../../../arm-none-eabi/lib/thumb/v7e-m/nofp/libc_nano.a(lib_a-nano-vfprintf_float.o)
                                        0xc29 (size before relaxing)
 .debug_str     0x0000000000063448       0x82 /usr/lib/gcc/arm-none-eabi/9.2.1/../../../arm-none-eabi/lib/thumb/v7e-m/nofp/libc_nano.a(lib_a-nano-vfprintf_i.o)
                                        0xba6 (size before relaxing)
 .debug_str     0x00000000000634ca       0x51 /usr/lib/gcc/arm-none-eabi/9.2.1/../../../arm-none-eabi/lib/thumb/v7e-m/nofp/libc_nano.a(lib_a-printf.o)
                                        0x756 (size before relaxing)
 .debug_str     0x000000000006351b       0x69 /usr/lib/gcc/arm-none-eabi/9.2.1/../../../arm-none-eabi/lib/thumb/v7e-m/nofp/libc_nano.a(lib_a-puts.o)
                                        0x75f (size before relaxing)
 .debug_str     0x0000000000063584       0x42 /usr/lib/gcc/arm-none-eabi/9.2.1/../../../arm-none-eabi/lib/thumb/v7e-m/nofp/libc_nano.a(lib_a-strlen.o)
                                         0xb2 (size before relaxing)
 .debug_str     0x00000000000635c6       0xa9 /usr/lib/gcc/arm-none-eabi/9.2.1/../../../arm-none-eabi/lib/thumb/v7e-m/nofp/libc_nano.a(lib_a-time.o)
                                        0x645 (size before relaxing)
 .debug_str     0x000000000006366f       0x43 /usr/lib/gcc/arm-none-eabi/9.2.1/../../../arm-none-eabi/lib/thumb/v7e-m/nofp/libc_nano.a(lib_a-wbuf.o)
                                        0x765 (size before relaxing)
 .debug_str     0x00000000000636b2       0x40 /usr/lib/gcc/arm-none-eabi/9.2.1/../../../arm-none-eabi/lib/thumb/v7e-m/nofp/libc_nano.a(lib_a-wsetup.o)
                                        0x760 (size before relaxing)
 .debug_str     0x00000000000636f2      0x185 /usr/lib/gcc/arm-none-eabi/9.2.1/../../../arm-none-eabi/lib/thumb/v7e-m/nofp/libc_nano.a(lib_a-dtoa.o)
                                        0xae0 (size before relaxing)
 .debug_str     0x0000000000063877       0x63 /usr/lib/gcc/arm-none-eabi/9.2.1/../../../arm-none-eabi/lib/thumb/v7e-m/nofp/libc_nano.a(lib_a-fflush.o)
                                        0x78e (size before relaxing)
 .debug_str     0x00000000000638da      0x14f /usr/lib/gcc/arm-none-eabi/9.2.1/../../../arm-none-eabi/lib/thumb/v7e-m/nofp/libc_nano.a(lib_a-findfp.o)
                                        0x89e (size before relaxing)
 .debug_str     0x0000000000063a29       0x3f /usr/lib/gcc/arm-none-eabi/9.2.1/../../../arm-none-eabi/lib/thumb/v7e-m/nofp/libc_nano.a(lib_a-fprintf.o)
                                        0x61b (size before relaxing)
 .debug_str     0x0000000000063a68       0x41 /usr/lib/gcc/arm-none-eabi/9.2.1/../../../arm-none-eabi/lib/thumb/v7e-m/nofp/libc_nano.a(lib_a-fwalk.o)
                                        0x752 (size before relaxing)
 .debug_str     0x0000000000063aa9       0xf9 /usr/lib/gcc/arm-none-eabi/9.2.1/../../../arm-none-eabi/lib/thumb/v7e-m/nofp/libc_nano.a(lib_a-localeconv.o)
                                        0x96e (size before relaxing)
 .debug_str     0x0000000000063ba2       0x59 /usr/lib/gcc/arm-none-eabi/9.2.1/../../../arm-none-eabi/lib/thumb/v7e-m/nofp/libc_nano.a(lib_a-makebuf.o)
                                        0x8d3 (size before relaxing)
 .debug_str     0x0000000000063bfb       0x3c /usr/lib/gcc/arm-none-eabi/9.2.1/../../../arm-none-eabi/lib/thumb/v7e-m/nofp/libc_nano.a(lib_a-memchr.o)
                                         0xac (size before relaxing)
 .debug_str     0x0000000000063c37       0x4c /usr/lib/gcc/arm-none-eabi/9.2.1/../../../arm-none-eabi/lib/thumb/v7e-m/nofp/libc_nano.a(lib_a-mlock.o)
                                        0x608 (size before relaxing)
 .debug_str     0x0000000000063c83       0x8d /usr/lib/gcc/arm-none-eabi/9.2.1/../../../arm-none-eabi/lib/thumb/v7e-m/nofp/libc_nano.a(lib_a-mprec.o)
                                        0xa89 (size before relaxing)
 .debug_str     0x0000000000063d10        0x5 /usr/lib/gcc/arm-none-eabi/9.2.1/../../../arm-none-eabi/lib/thumb/v7e-m/nofp/libc_nano.a(lib_a-nano-callocr.o)
                                        0x6e2 (size before relaxing)
 .debug_str     0x0000000000063d15       0x2e /usr/lib/gcc/arm-none-eabi/9.2.1/../../../arm-none-eabi/lib/thumb/v7e-m/nofp/libc_nano.a(lib_a-nano-reallocr.o)
                                        0x709 (size before relaxing)
 .debug_str     0x0000000000063d43       0xd3 /usr/lib/gcc/arm-none-eabi/9.2.1/../../../arm-none-eabi/lib/thumb/v7e-m/nofp/libc_nano.a(lib_a-nano-vfprintf.o)
                                        0xc28 (size before relaxing)
 .debug_str     0x0000000000063e16       0x66 /usr/lib/gcc/arm-none-eabi/9.2.1/../../../arm-none-eabi/lib/thumb/v7e-m/nofp/libc_nano.a(lib_a-stdio.o)
                                        0x7a6 (size before relaxing)
 .debug_str     0x0000000000063e7c       0x57 /usr/lib/gcc/arm-none-eabi/9.2.1/../../../arm-none-eabi/lib/thumb/v7e-m/nofp/libc_nano.a(lib_a-assert.o)
                                        0x61c (size before relaxing)
 .debug_str     0x0000000000063ed3       0x5a /usr/lib/gcc/arm-none-eabi/9.2.1/../../../arm-none-eabi/lib/thumb/v7e-m/nofp/libc_nano.a(lib_a-fvwrite.o)
                                        0x7df (size before relaxing)
 .debug_str     0x0000000000063f2d       0x83 /usr/lib/gcc/arm-none-eabi/9.2.1/../../../arm-none-eabi/lib/thumb/v7e-m/nofp/libc_nano.a(lib_a-locale.o)
                                        0x9ae (size before relaxing)
 .debug_str     0x0000000000063fb0       0x55 /usr/lib/gcc/arm-none-eabi/9.2.1/../../../arm-none-eabi/lib/thumb/v7e-m/nofp/libc_nano.a(lib_a-mbtowc_r.o)
                                        0x97f (size before relaxing)
 .debug_str     0x0000000000064005       0x5f /usr/lib/gcc/arm-none-eabi/9.2.1/../../../arm-none-eabi/lib/thumb/v7e-m/nofp/libc_nano.a(lib_a-memmove.o)
                                        0x928 (size before relaxing)
 .debug_str     0x0000000000064064        0xf /usr/lib/gcc/arm-none-eabi/9.2.1/../../../arm-none-eabi/lib/thumb/v7e-m/nofp/libc_nano.a(lib_a-nano-msizer.o)
                                        0x6e7 (size before relaxing)
 .debug_str     0x0000000000064073       0x56 /usr/lib/gcc/arm-none-eabi/9.2.1/../../../arm-none-eabi/lib/thumb/v7e-m/nofp/libc_nano.a(lib_a-wctomb_r.o)
                                        0x986 (size before relaxing)
 .debug_str     0x00000000000640c9       0x39 /usr/lib/gcc/arm-none-eabi/9.2.1/../../../arm-none-eabi/lib/thumb/v7e-m/nofp/libc_nano.a(lib_a-abort.o)
                                        0x61a (size before relaxing)
 .debug_str     0x0000000000064102       0x91 /usr/lib/gcc/arm-none-eabi/9.2.1/../../../arm-none-eabi/lib/thumb/v7e-m/nofp/libc_nano.a(lib_a-ctype_.o)
                                        0x8f4 (size before relaxing)
 .debug_str     0x0000000000064193       0xe7 /usr/lib/gcc/arm-none-eabi/9.2.1/../../../arm-none-eabi/lib/thumb/v7e-m/nofp/libc_nano.a(lib_a-signal.o)
                                        0x67f (size before relaxing)
 .debug_str     0x000000000006427a       0xa5 /usr/lib/gcc/arm-none-eabi/9.2.1/thumb/v7e-m/nofp/libgcc.a(_arm_cmpdf2.o)
 .debug_str     0x000000000006427a       0xa5 /usr/lib/gcc/arm-none-eabi/9.2.1/thumb/v7e-m/nofp/libgcc.a(_arm_unorddf2.o)
 .debug_str     0x000000000006427a       0xa5 /usr/lib/gcc/arm-none-eabi/9.2.1/thumb/v7e-m/nofp/libgcc.a(_arm_fixdfsi.o)

.comment        0x0000000000000000       0xa7
 .comment       0x0000000000000000       0x59 /home/ch/RIOT/tests/capteur/bin/lora-e5-dev/application_tests_capteur/main.o
                                         0x5a (size before relaxing)
 .comment       0x0000000000000059       0x5a /home/ch/RIOT/tests/capteur/bin/lora-e5-dev/auto_init/auto_init.o
 .comment       0x0000000000000059       0x5a /home/ch/RIOT/tests/capteur/bin/lora-e5-dev/board/board.o
 .comment       0x0000000000000059       0x5a /home/ch/RIOT/tests/capteur/bin/lora-e5-dev/core/init.o
 .comment       0x0000000000000059       0x5a /home/ch/RIOT/tests/capteur/bin/lora-e5-dev/core/mutex.o
 .comment       0x0000000000000059       0x5a /home/ch/RIOT/tests/capteur/bin/lora-e5-dev/core/panic.o
 .comment       0x0000000000000059       0x5a /home/ch/RIOT/tests/capteur/bin/lora-e5-dev/core/sched.o
 .comment       0x0000000000000059       0x5a /home/ch/RIOT/tests/capteur/bin/lora-e5-dev/core/thread.o
 .comment       0x0000000000000059       0x5a /home/ch/RIOT/tests/capteur/bin/lora-e5-dev/cortexm_common/cortexm_init.o
 .comment       0x0000000000000059       0x5a /home/ch/RIOT/tests/capteur/bin/lora-e5-dev/cortexm_common/panic.o
 .comment       0x0000000000000059       0x5a /home/ch/RIOT/tests/capteur/bin/lora-e5-dev/cortexm_common/thread_arch.o
 .comment       0x0000000000000059       0x5a /home/ch/RIOT/tests/capteur/bin/lora-e5-dev/cortexm_common/vectors_cortexm.o
 .comment       0x0000000000000059       0x5a /home/ch/RIOT/tests/capteur/bin/lora-e5-dev/cpu/cpu_common.o
 .comment       0x0000000000000059       0x5a /home/ch/RIOT/tests/capteur/bin/lora-e5-dev/cpu/cpu_init.o
 .comment       0x0000000000000059       0x5a /home/ch/RIOT/tests/capteur/bin/lora-e5-dev/div/div.o
 .comment       0x0000000000000059       0x5a /home/ch/RIOT/tests/capteur/bin/lora-e5-dev/malloc_thread_safe/malloc_wrappers.o
 .comment       0x0000000000000059       0x5a /home/ch/RIOT/tests/capteur/bin/lora-e5-dev/newlib_syscalls_default/syscalls.o
 .comment       0x0000000000000059       0x5a /home/ch/RIOT/tests/capteur/bin/lora-e5-dev/periph_common/init.o
 .comment       0x0000000000000059       0x5a /home/ch/RIOT/tests/capteur/bin/lora-e5-dev/periph/gpio_all.o
 .comment       0x0000000000000059       0x5a /home/ch/RIOT/tests/capteur/bin/lora-e5-dev/periph/pm.o
 .comment       0x0000000000000059       0x5a /home/ch/RIOT/tests/capteur/bin/lora-e5-dev/periph/timer.o
 .comment       0x0000000000000059       0x5a /home/ch/RIOT/tests/capteur/bin/lora-e5-dev/periph/uart.o
 .comment       0x0000000000000059       0x5a /home/ch/RIOT/tests/capteur/bin/lora-e5-dev/pm_layered/pm.o
 .comment       0x0000000000000059       0x5a /home/ch/RIOT/tests/capteur/bin/lora-e5-dev/stdio_uart/stdio_uart.o
 .comment       0x0000000000000059       0x5a /home/ch/RIOT/tests/capteur/bin/lora-e5-dev/stm32_clk/stmclk_common.o
 .comment       0x0000000000000059       0x5a /home/ch/RIOT/tests/capteur/bin/lora-e5-dev/stm32_clk/stmclk_l4wx.o
 .comment       0x0000000000000059       0x5a /home/ch/RIOT/tests/capteur/bin/lora-e5-dev/stm32_vectors/STM32WLE5xx.o
 .comment       0x0000000000000059       0x5a /home/ch/RIOT/tests/capteur/bin/lora-e5-dev/xtimer/xtimer_core.o
 .comment       0x0000000000000059       0x4e /usr/lib/gcc/arm-none-eabi/9.2.1/../../../arm-none-eabi/lib/thumb/v7e-m/nofp/libc_nano.a(lib_a-impure.o)
                                         0x4f (size before relaxing)
 .comment       0x00000000000000a7       0x4f /usr/lib/gcc/arm-none-eabi/9.2.1/../../../arm-none-eabi/lib/thumb/v7e-m/nofp/libc_nano.a(lib_a-init.o)
 .comment       0x00000000000000a7       0x4f /usr/lib/gcc/arm-none-eabi/9.2.1/../../../arm-none-eabi/lib/thumb/v7e-m/nofp/libc_nano.a(lib_a-malloc.o)
 .comment       0x00000000000000a7       0x4f /usr/lib/gcc/arm-none-eabi/9.2.1/../../../arm-none-eabi/lib/thumb/v7e-m/nofp/libc_nano.a(lib_a-memset.o)
 .comment       0x00000000000000a7       0x4f /usr/lib/gcc/arm-none-eabi/9.2.1/../../../arm-none-eabi/lib/thumb/v7e-m/nofp/libc_nano.a(lib_a-nano-freer.o)
 .comment       0x00000000000000a7       0x4f /usr/lib/gcc/arm-none-eabi/9.2.1/../../../arm-none-eabi/lib/thumb/v7e-m/nofp/libc_nano.a(lib_a-nano-mallocr.o)
 .comment       0x00000000000000a7       0x4f /usr/lib/gcc/arm-none-eabi/9.2.1/../../../arm-none-eabi/lib/thumb/v7e-m/nofp/libc_nano.a(lib_a-nano-vfprintf_float.o)
 .comment       0x00000000000000a7       0x4f /usr/lib/gcc/arm-none-eabi/9.2.1/../../../arm-none-eabi/lib/thumb/v7e-m/nofp/libc_nano.a(lib_a-nano-vfprintf_i.o)
 .comment       0x00000000000000a7       0x4f /usr/lib/gcc/arm-none-eabi/9.2.1/../../../arm-none-eabi/lib/thumb/v7e-m/nofp/libc_nano.a(lib_a-printf.o)
 .comment       0x00000000000000a7       0x4f /usr/lib/gcc/arm-none-eabi/9.2.1/../../../arm-none-eabi/lib/thumb/v7e-m/nofp/libc_nano.a(lib_a-puts.o)
 .comment       0x00000000000000a7       0x4f /usr/lib/gcc/arm-none-eabi/9.2.1/../../../arm-none-eabi/lib/thumb/v7e-m/nofp/libc_nano.a(lib_a-time.o)
 .comment       0x00000000000000a7       0x4f /usr/lib/gcc/arm-none-eabi/9.2.1/../../../arm-none-eabi/lib/thumb/v7e-m/nofp/libc_nano.a(lib_a-wbuf.o)
 .comment       0x00000000000000a7       0x4f /usr/lib/gcc/arm-none-eabi/9.2.1/../../../arm-none-eabi/lib/thumb/v7e-m/nofp/libc_nano.a(lib_a-wsetup.o)
 .comment       0x00000000000000a7       0x4f /usr/lib/gcc/arm-none-eabi/9.2.1/../../../arm-none-eabi/lib/thumb/v7e-m/nofp/libc_nano.a(lib_a-dtoa.o)
 .comment       0x00000000000000a7       0x4f /usr/lib/gcc/arm-none-eabi/9.2.1/../../../arm-none-eabi/lib/thumb/v7e-m/nofp/libc_nano.a(lib_a-fflush.o)
 .comment       0x00000000000000a7       0x4f /usr/lib/gcc/arm-none-eabi/9.2.1/../../../arm-none-eabi/lib/thumb/v7e-m/nofp/libc_nano.a(lib_a-findfp.o)
 .comment       0x00000000000000a7       0x4f /usr/lib/gcc/arm-none-eabi/9.2.1/../../../arm-none-eabi/lib/thumb/v7e-m/nofp/libc_nano.a(lib_a-fprintf.o)
 .comment       0x00000000000000a7       0x4f /usr/lib/gcc/arm-none-eabi/9.2.1/../../../arm-none-eabi/lib/thumb/v7e-m/nofp/libc_nano.a(lib_a-fwalk.o)
 .comment       0x00000000000000a7       0x4f /usr/lib/gcc/arm-none-eabi/9.2.1/../../../arm-none-eabi/lib/thumb/v7e-m/nofp/libc_nano.a(lib_a-localeconv.o)
 .comment       0x00000000000000a7       0x4f /usr/lib/gcc/arm-none-eabi/9.2.1/../../../arm-none-eabi/lib/thumb/v7e-m/nofp/libc_nano.a(lib_a-makebuf.o)
 .comment       0x00000000000000a7       0x4f /usr/lib/gcc/arm-none-eabi/9.2.1/../../../arm-none-eabi/lib/thumb/v7e-m/nofp/libc_nano.a(lib_a-mlock.o)
 .comment       0x00000000000000a7       0x4f /usr/lib/gcc/arm-none-eabi/9.2.1/../../../arm-none-eabi/lib/thumb/v7e-m/nofp/libc_nano.a(lib_a-mprec.o)
 .comment       0x00000000000000a7       0x4f /usr/lib/gcc/arm-none-eabi/9.2.1/../../../arm-none-eabi/lib/thumb/v7e-m/nofp/libc_nano.a(lib_a-nano-callocr.o)
 .comment       0x00000000000000a7       0x4f /usr/lib/gcc/arm-none-eabi/9.2.1/../../../arm-none-eabi/lib/thumb/v7e-m/nofp/libc_nano.a(lib_a-nano-reallocr.o)
 .comment       0x00000000000000a7       0x4f /usr/lib/gcc/arm-none-eabi/9.2.1/../../../arm-none-eabi/lib/thumb/v7e-m/nofp/libc_nano.a(lib_a-nano-vfprintf.o)
 .comment       0x00000000000000a7       0x4f /usr/lib/gcc/arm-none-eabi/9.2.1/../../../arm-none-eabi/lib/thumb/v7e-m/nofp/libc_nano.a(lib_a-stdio.o)
 .comment       0x00000000000000a7       0x4f /usr/lib/gcc/arm-none-eabi/9.2.1/../../../arm-none-eabi/lib/thumb/v7e-m/nofp/libc_nano.a(lib_a-assert.o)
 .comment       0x00000000000000a7       0x4f /usr/lib/gcc/arm-none-eabi/9.2.1/../../../arm-none-eabi/lib/thumb/v7e-m/nofp/libc_nano.a(lib_a-fvwrite.o)
 .comment       0x00000000000000a7       0x4f /usr/lib/gcc/arm-none-eabi/9.2.1/../../../arm-none-eabi/lib/thumb/v7e-m/nofp/libc_nano.a(lib_a-locale.o)
 .comment       0x00000000000000a7       0x4f /usr/lib/gcc/arm-none-eabi/9.2.1/../../../arm-none-eabi/lib/thumb/v7e-m/nofp/libc_nano.a(lib_a-mbtowc_r.o)
 .comment       0x00000000000000a7       0x4f /usr/lib/gcc/arm-none-eabi/9.2.1/../../../arm-none-eabi/lib/thumb/v7e-m/nofp/libc_nano.a(lib_a-memmove.o)
 .comment       0x00000000000000a7       0x4f /usr/lib/gcc/arm-none-eabi/9.2.1/../../../arm-none-eabi/lib/thumb/v7e-m/nofp/libc_nano.a(lib_a-nano-msizer.o)
 .comment       0x00000000000000a7       0x4f /usr/lib/gcc/arm-none-eabi/9.2.1/../../../arm-none-eabi/lib/thumb/v7e-m/nofp/libc_nano.a(lib_a-wctomb_r.o)
 .comment       0x00000000000000a7       0x4f /usr/lib/gcc/arm-none-eabi/9.2.1/../../../arm-none-eabi/lib/thumb/v7e-m/nofp/libc_nano.a(lib_a-abort.o)
 .comment       0x00000000000000a7       0x4f /usr/lib/gcc/arm-none-eabi/9.2.1/../../../arm-none-eabi/lib/thumb/v7e-m/nofp/libc_nano.a(lib_a-ctype_.o)
 .comment       0x00000000000000a7       0x4f /usr/lib/gcc/arm-none-eabi/9.2.1/../../../arm-none-eabi/lib/thumb/v7e-m/nofp/libc_nano.a(lib_a-signal.o)

.ARM.attributes
                0x0000000000000000       0x2c
 .ARM.attributes
                0x0000000000000000       0x2e /home/ch/RIOT/tests/capteur/bin/lora-e5-dev/application_tests_capteur/main.o
 .ARM.attributes
                0x000000000000002e       0x2e /home/ch/RIOT/tests/capteur/bin/lora-e5-dev/auto_init/auto_init.o
 .ARM.attributes
                0x000000000000005c       0x2e /home/ch/RIOT/tests/capteur/bin/lora-e5-dev/board/board.o
 .ARM.attributes
                0x000000000000008a       0x2e /home/ch/RIOT/tests/capteur/bin/lora-e5-dev/core/init.o
 .ARM.attributes
                0x00000000000000b8       0x2e /home/ch/RIOT/tests/capteur/bin/lora-e5-dev/core/mutex.o
 .ARM.attributes
                0x00000000000000e6       0x2e /home/ch/RIOT/tests/capteur/bin/lora-e5-dev/core/panic.o
 .ARM.attributes
                0x0000000000000114       0x2e /home/ch/RIOT/tests/capteur/bin/lora-e5-dev/core/sched.o
 .ARM.attributes
                0x0000000000000142       0x2e /home/ch/RIOT/tests/capteur/bin/lora-e5-dev/core/thread.o
 .ARM.attributes
                0x0000000000000170       0x2e /home/ch/RIOT/tests/capteur/bin/lora-e5-dev/cortexm_common/cortexm_init.o
 .ARM.attributes
                0x000000000000019e       0x2e /home/ch/RIOT/tests/capteur/bin/lora-e5-dev/cortexm_common/panic.o
 .ARM.attributes
                0x00000000000001cc       0x2e /home/ch/RIOT/tests/capteur/bin/lora-e5-dev/cortexm_common/thread_arch.o
 .ARM.attributes
                0x00000000000001fa       0x2e /home/ch/RIOT/tests/capteur/bin/lora-e5-dev/cortexm_common/vectors_cortexm.o
 .ARM.attributes
                0x0000000000000228       0x2e /home/ch/RIOT/tests/capteur/bin/lora-e5-dev/cpu/cpu_common.o
 .ARM.attributes
                0x0000000000000256       0x2e /home/ch/RIOT/tests/capteur/bin/lora-e5-dev/cpu/cpu_init.o
 .ARM.attributes
                0x0000000000000284       0x2e /home/ch/RIOT/tests/capteur/bin/lora-e5-dev/div/div.o
 .ARM.attributes
                0x00000000000002b2       0x2e /home/ch/RIOT/tests/capteur/bin/lora-e5-dev/malloc_thread_safe/malloc_wrappers.o
 .ARM.attributes
                0x00000000000002e0       0x2e /home/ch/RIOT/tests/capteur/bin/lora-e5-dev/newlib_syscalls_default/syscalls.o
 .ARM.attributes
                0x000000000000030e       0x2e /home/ch/RIOT/tests/capteur/bin/lora-e5-dev/periph_common/init.o
 .ARM.attributes
                0x000000000000033c       0x2e /home/ch/RIOT/tests/capteur/bin/lora-e5-dev/periph/gpio_all.o
 .ARM.attributes
                0x000000000000036a       0x2e /home/ch/RIOT/tests/capteur/bin/lora-e5-dev/periph/pm.o
 .ARM.attributes
                0x0000000000000398       0x2e /home/ch/RIOT/tests/capteur/bin/lora-e5-dev/periph/timer.o
 .ARM.attributes
                0x00000000000003c6       0x2e /home/ch/RIOT/tests/capteur/bin/lora-e5-dev/periph/uart.o
 .ARM.attributes
                0x00000000000003f4       0x2e /home/ch/RIOT/tests/capteur/bin/lora-e5-dev/pm_layered/pm.o
 .ARM.attributes
                0x0000000000000422       0x2e /home/ch/RIOT/tests/capteur/bin/lora-e5-dev/stdio_uart/stdio_uart.o
 .ARM.attributes
                0x0000000000000450       0x2e /home/ch/RIOT/tests/capteur/bin/lora-e5-dev/stm32_clk/stmclk_common.o
 .ARM.attributes
                0x000000000000047e       0x2e /home/ch/RIOT/tests/capteur/bin/lora-e5-dev/stm32_clk/stmclk_l4wx.o
 .ARM.attributes
                0x00000000000004ac       0x2e /home/ch/RIOT/tests/capteur/bin/lora-e5-dev/stm32_vectors/STM32WLE5xx.o
 .ARM.attributes
                0x00000000000004da       0x2e /home/ch/RIOT/tests/capteur/bin/lora-e5-dev/xtimer/xtimer_core.o
 .ARM.attributes
                0x0000000000000508       0x1e /usr/lib/gcc/arm-none-eabi/9.2.1/thumb/v7e-m/nofp/libgcc.a(_arm_mulsf3.o)
 .ARM.attributes
                0x0000000000000526       0x1e /usr/lib/gcc/arm-none-eabi/9.2.1/thumb/v7e-m/nofp/libgcc.a(_arm_addsubdf3.o)
 .ARM.attributes
                0x0000000000000544       0x1e /usr/lib/gcc/arm-none-eabi/9.2.1/thumb/v7e-m/nofp/libgcc.a(_arm_muldivdf3.o)
 .ARM.attributes
                0x0000000000000562       0x1e /usr/lib/gcc/arm-none-eabi/9.2.1/thumb/v7e-m/nofp/libgcc.a(_arm_truncdfsf2.o)
 .ARM.attributes
                0x0000000000000580       0x1e /usr/lib/gcc/arm-none-eabi/9.2.1/thumb/v7e-m/nofp/libgcc.a(_arm_fixsfsi.o)
 .ARM.attributes
                0x000000000000059e       0x2e /usr/lib/gcc/arm-none-eabi/9.2.1/../../../arm-none-eabi/lib/thumb/v7e-m/nofp/libc_nano.a(lib_a-impure.o)
 .ARM.attributes
                0x00000000000005cc       0x2e /usr/lib/gcc/arm-none-eabi/9.2.1/../../../arm-none-eabi/lib/thumb/v7e-m/nofp/libc_nano.a(lib_a-init.o)
 .ARM.attributes
                0x00000000000005fa       0x2e /usr/lib/gcc/arm-none-eabi/9.2.1/../../../arm-none-eabi/lib/thumb/v7e-m/nofp/libc_nano.a(lib_a-malloc.o)
 .ARM.attributes
                0x0000000000000628       0x1c /usr/lib/gcc/arm-none-eabi/9.2.1/../../../arm-none-eabi/lib/thumb/v7e-m/nofp/libc_nano.a(lib_a-memcpy.o)
 .ARM.attributes
                0x0000000000000644       0x2e /usr/lib/gcc/arm-none-eabi/9.2.1/../../../arm-none-eabi/lib/thumb/v7e-m/nofp/libc_nano.a(lib_a-memset.o)
 .ARM.attributes
                0x0000000000000672       0x2e /usr/lib/gcc/arm-none-eabi/9.2.1/../../../arm-none-eabi/lib/thumb/v7e-m/nofp/libc_nano.a(lib_a-nano-freer.o)
 .ARM.attributes
                0x00000000000006a0       0x2e /usr/lib/gcc/arm-none-eabi/9.2.1/../../../arm-none-eabi/lib/thumb/v7e-m/nofp/libc_nano.a(lib_a-nano-mallocr.o)
 .ARM.attributes
                0x00000000000006ce       0x2e /usr/lib/gcc/arm-none-eabi/9.2.1/../../../arm-none-eabi/lib/thumb/v7e-m/nofp/libc_nano.a(lib_a-nano-vfprintf_float.o)
 .ARM.attributes
                0x00000000000006fc       0x2e /usr/lib/gcc/arm-none-eabi/9.2.1/../../../arm-none-eabi/lib/thumb/v7e-m/nofp/libc_nano.a(lib_a-nano-vfprintf_i.o)
 .ARM.attributes
                0x000000000000072a       0x2e /usr/lib/gcc/arm-none-eabi/9.2.1/../../../arm-none-eabi/lib/thumb/v7e-m/nofp/libc_nano.a(lib_a-printf.o)
 .ARM.attributes
                0x0000000000000758       0x2e /usr/lib/gcc/arm-none-eabi/9.2.1/../../../arm-none-eabi/lib/thumb/v7e-m/nofp/libc_nano.a(lib_a-puts.o)
 .ARM.attributes
                0x0000000000000786       0x1c /usr/lib/gcc/arm-none-eabi/9.2.1/../../../arm-none-eabi/lib/thumb/v7e-m/nofp/libc_nano.a(lib_a-strlen.o)
 .ARM.attributes
                0x00000000000007a2       0x2e /usr/lib/gcc/arm-none-eabi/9.2.1/../../../arm-none-eabi/lib/thumb/v7e-m/nofp/libc_nano.a(lib_a-time.o)
 .ARM.attributes
                0x00000000000007d0       0x2e /usr/lib/gcc/arm-none-eabi/9.2.1/../../../arm-none-eabi/lib/thumb/v7e-m/nofp/libc_nano.a(lib_a-wbuf.o)
 .ARM.attributes
                0x00000000000007fe       0x2e /usr/lib/gcc/arm-none-eabi/9.2.1/../../../arm-none-eabi/lib/thumb/v7e-m/nofp/libc_nano.a(lib_a-wsetup.o)
 .ARM.attributes
                0x000000000000082c       0x2e /usr/lib/gcc/arm-none-eabi/9.2.1/../../../arm-none-eabi/lib/thumb/v7e-m/nofp/libc_nano.a(lib_a-dtoa.o)
 .ARM.attributes
                0x000000000000085a       0x2e /usr/lib/gcc/arm-none-eabi/9.2.1/../../../arm-none-eabi/lib/thumb/v7e-m/nofp/libc_nano.a(lib_a-fflush.o)
 .ARM.attributes
                0x0000000000000888       0x2e /usr/lib/gcc/arm-none-eabi/9.2.1/../../../arm-none-eabi/lib/thumb/v7e-m/nofp/libc_nano.a(lib_a-findfp.o)
 .ARM.attributes
                0x00000000000008b6       0x2e /usr/lib/gcc/arm-none-eabi/9.2.1/../../../arm-none-eabi/lib/thumb/v7e-m/nofp/libc_nano.a(lib_a-fprintf.o)
 .ARM.attributes
                0x00000000000008e4       0x2e /usr/lib/gcc/arm-none-eabi/9.2.1/../../../arm-none-eabi/lib/thumb/v7e-m/nofp/libc_nano.a(lib_a-fwalk.o)
 .ARM.attributes
                0x0000000000000912       0x2e /usr/lib/gcc/arm-none-eabi/9.2.1/../../../arm-none-eabi/lib/thumb/v7e-m/nofp/libc_nano.a(lib_a-localeconv.o)
 .ARM.attributes
                0x0000000000000940       0x2e /usr/lib/gcc/arm-none-eabi/9.2.1/../../../arm-none-eabi/lib/thumb/v7e-m/nofp/libc_nano.a(lib_a-makebuf.o)
 .ARM.attributes
                0x000000000000096e       0x1c /usr/lib/gcc/arm-none-eabi/9.2.1/../../../arm-none-eabi/lib/thumb/v7e-m/nofp/libc_nano.a(lib_a-memchr.o)
 .ARM.attributes
                0x000000000000098a       0x2e /usr/lib/gcc/arm-none-eabi/9.2.1/../../../arm-none-eabi/lib/thumb/v7e-m/nofp/libc_nano.a(lib_a-mlock.o)
 .ARM.attributes
                0x00000000000009b8       0x2e /usr/lib/gcc/arm-none-eabi/9.2.1/../../../arm-none-eabi/lib/thumb/v7e-m/nofp/libc_nano.a(lib_a-mprec.o)
 .ARM.attributes
                0x00000000000009e6       0x2e /usr/lib/gcc/arm-none-eabi/9.2.1/../../../arm-none-eabi/lib/thumb/v7e-m/nofp/libc_nano.a(lib_a-nano-callocr.o)
 .ARM.attributes
                0x0000000000000a14       0x2e /usr/lib/gcc/arm-none-eabi/9.2.1/../../../arm-none-eabi/lib/thumb/v7e-m/nofp/libc_nano.a(lib_a-nano-reallocr.o)
 .ARM.attributes
                0x0000000000000a42       0x2e /usr/lib/gcc/arm-none-eabi/9.2.1/../../../arm-none-eabi/lib/thumb/v7e-m/nofp/libc_nano.a(lib_a-nano-vfprintf.o)
 .ARM.attributes
                0x0000000000000a70       0x2e /usr/lib/gcc/arm-none-eabi/9.2.1/../../../arm-none-eabi/lib/thumb/v7e-m/nofp/libc_nano.a(lib_a-stdio.o)
 .ARM.attributes
                0x0000000000000a9e       0x2e /usr/lib/gcc/arm-none-eabi/9.2.1/../../../arm-none-eabi/lib/thumb/v7e-m/nofp/libc_nano.a(lib_a-assert.o)
 .ARM.attributes
                0x0000000000000acc       0x2e /usr/lib/gcc/arm-none-eabi/9.2.1/../../../arm-none-eabi/lib/thumb/v7e-m/nofp/libc_nano.a(lib_a-fvwrite.o)
 .ARM.attributes
                0x0000000000000afa       0x2e /usr/lib/gcc/arm-none-eabi/9.2.1/../../../arm-none-eabi/lib/thumb/v7e-m/nofp/libc_nano.a(lib_a-locale.o)
 .ARM.attributes
                0x0000000000000b28       0x2e /usr/lib/gcc/arm-none-eabi/9.2.1/../../../arm-none-eabi/lib/thumb/v7e-m/nofp/libc_nano.a(lib_a-mbtowc_r.o)
 .ARM.attributes
                0x0000000000000b56       0x2e /usr/lib/gcc/arm-none-eabi/9.2.1/../../../arm-none-eabi/lib/thumb/v7e-m/nofp/libc_nano.a(lib_a-memmove.o)
 .ARM.attributes
                0x0000000000000b84       0x2e /usr/lib/gcc/arm-none-eabi/9.2.1/../../../arm-none-eabi/lib/thumb/v7e-m/nofp/libc_nano.a(lib_a-nano-msizer.o)
 .ARM.attributes
                0x0000000000000bb2       0x2e /usr/lib/gcc/arm-none-eabi/9.2.1/../../../arm-none-eabi/lib/thumb/v7e-m/nofp/libc_nano.a(lib_a-wctomb_r.o)
 .ARM.attributes
                0x0000000000000be0       0x2e /usr/lib/gcc/arm-none-eabi/9.2.1/../../../arm-none-eabi/lib/thumb/v7e-m/nofp/libc_nano.a(lib_a-abort.o)
 .ARM.attributes
                0x0000000000000c0e       0x2e /usr/lib/gcc/arm-none-eabi/9.2.1/../../../arm-none-eabi/lib/thumb/v7e-m/nofp/libc_nano.a(lib_a-ctype_.o)
 .ARM.attributes
                0x0000000000000c3c       0x2e /usr/lib/gcc/arm-none-eabi/9.2.1/../../../arm-none-eabi/lib/thumb/v7e-m/nofp/libc_nano.a(lib_a-signal.o)
 .ARM.attributes
                0x0000000000000c6a       0x1e /usr/lib/gcc/arm-none-eabi/9.2.1/thumb/v7e-m/nofp/libgcc.a(_arm_cmpdf2.o)
 .ARM.attributes
                0x0000000000000c88       0x1e /usr/lib/gcc/arm-none-eabi/9.2.1/thumb/v7e-m/nofp/libgcc.a(_arm_unorddf2.o)
 .ARM.attributes
                0x0000000000000ca6       0x1e /usr/lib/gcc/arm-none-eabi/9.2.1/thumb/v7e-m/nofp/libgcc.a(_arm_fixdfsi.o)

.debug_frame    0x0000000000000000     0x213c
 .debug_frame   0x0000000000000000       0xd8 /home/ch/RIOT/tests/capteur/bin/lora-e5-dev/application_tests_capteur/main.o
 .debug_frame   0x00000000000000d8       0x20 /home/ch/RIOT/tests/capteur/bin/lora-e5-dev/auto_init/auto_init.o
 .debug_frame   0x00000000000000f8       0x3c /home/ch/RIOT/tests/capteur/bin/lora-e5-dev/board/board.o
 .debug_frame   0x0000000000000134       0x50 /home/ch/RIOT/tests/capteur/bin/lora-e5-dev/core/init.o
 .debug_frame   0x0000000000000184       0xd0 /home/ch/RIOT/tests/capteur/bin/lora-e5-dev/core/mutex.o
 .debug_frame   0x0000000000000254       0x58 /home/ch/RIOT/tests/capteur/bin/lora-e5-dev/core/panic.o
 .debug_frame   0x00000000000002ac       0x90 /home/ch/RIOT/tests/capteur/bin/lora-e5-dev/core/sched.o
 .debug_frame   0x000000000000033c      0x124 /home/ch/RIOT/tests/capteur/bin/lora-e5-dev/core/thread.o
 .debug_frame   0x0000000000000460       0x48 /home/ch/RIOT/tests/capteur/bin/lora-e5-dev/cortexm_common/cortexm_init.o
 .debug_frame   0x00000000000004a8       0x38 /home/ch/RIOT/tests/capteur/bin/lora-e5-dev/cortexm_common/panic.o
 .debug_frame   0x00000000000004e0       0xd4 /home/ch/RIOT/tests/capteur/bin/lora-e5-dev/cortexm_common/thread_arch.o
 .debug_frame   0x00000000000005b4      0x128 /home/ch/RIOT/tests/capteur/bin/lora-e5-dev/cortexm_common/vectors_cortexm.o
 .debug_frame   0x00000000000006dc       0x60 /home/ch/RIOT/tests/capteur/bin/lora-e5-dev/cpu/cpu_common.o
 .debug_frame   0x000000000000073c       0x6c /home/ch/RIOT/tests/capteur/bin/lora-e5-dev/cpu/cpu_init.o
 .debug_frame   0x00000000000007a8       0x38 /home/ch/RIOT/tests/capteur/bin/lora-e5-dev/div/div.o
 .debug_frame   0x00000000000007e0       0x8c /home/ch/RIOT/tests/capteur/bin/lora-e5-dev/malloc_thread_safe/malloc_wrappers.o
 .debug_frame   0x000000000000086c      0x1b0 /home/ch/RIOT/tests/capteur/bin/lora-e5-dev/newlib_syscalls_default/syscalls.o
 .debug_frame   0x0000000000000a1c       0x30 /home/ch/RIOT/tests/capteur/bin/lora-e5-dev/periph_common/init.o
 .debug_frame   0x0000000000000a4c       0xfc /home/ch/RIOT/tests/capteur/bin/lora-e5-dev/periph/gpio_all.o
 .debug_frame   0x0000000000000b48       0x60 /home/ch/RIOT/tests/capteur/bin/lora-e5-dev/periph/pm.o
 .debug_frame   0x0000000000000ba8       0xb8 /home/ch/RIOT/tests/capteur/bin/lora-e5-dev/periph/timer.o
 .debug_frame   0x0000000000000c60       0xf8 /home/ch/RIOT/tests/capteur/bin/lora-e5-dev/periph/uart.o
 .debug_frame   0x0000000000000d58       0x90 /home/ch/RIOT/tests/capteur/bin/lora-e5-dev/pm_layered/pm.o
 .debug_frame   0x0000000000000de8       0x58 /home/ch/RIOT/tests/capteur/bin/lora-e5-dev/stdio_uart/stdio_uart.o
 .debug_frame   0x0000000000000e40       0xa8 /home/ch/RIOT/tests/capteur/bin/lora-e5-dev/stm32_clk/stmclk_common.o
 .debug_frame   0x0000000000000ee8       0x3c /home/ch/RIOT/tests/capteur/bin/lora-e5-dev/stm32_clk/stmclk_l4wx.o
 .debug_frame   0x0000000000000f24       0x20 /home/ch/RIOT/tests/capteur/bin/lora-e5-dev/stm32_vectors/STM32WLE5xx.o
 .debug_frame   0x0000000000000f44      0x130 /home/ch/RIOT/tests/capteur/bin/lora-e5-dev/xtimer/xtimer_core.o
 .debug_frame   0x0000000000001074       0x24 /usr/lib/gcc/arm-none-eabi/9.2.1/thumb/v7e-m/nofp/libgcc.a(_arm_mulsf3.o)
 .debug_frame   0x0000000000001098       0xac /usr/lib/gcc/arm-none-eabi/9.2.1/thumb/v7e-m/nofp/libgcc.a(_arm_addsubdf3.o)
 .debug_frame   0x0000000000001144       0x50 /usr/lib/gcc/arm-none-eabi/9.2.1/thumb/v7e-m/nofp/libgcc.a(_arm_muldivdf3.o)
 .debug_frame   0x0000000000001194       0x24 /usr/lib/gcc/arm-none-eabi/9.2.1/thumb/v7e-m/nofp/libgcc.a(_arm_truncdfsf2.o)
 .debug_frame   0x00000000000011b8       0x24 /usr/lib/gcc/arm-none-eabi/9.2.1/thumb/v7e-m/nofp/libgcc.a(_arm_fixsfsi.o)
 .debug_frame   0x00000000000011dc       0x2c /usr/lib/gcc/arm-none-eabi/9.2.1/../../../arm-none-eabi/lib/thumb/v7e-m/nofp/libc_nano.a(lib_a-init.o)
 .debug_frame   0x0000000000001208       0x30 /usr/lib/gcc/arm-none-eabi/9.2.1/../../../arm-none-eabi/lib/thumb/v7e-m/nofp/libc_nano.a(lib_a-malloc.o)
 .debug_frame   0x0000000000001238       0x38 /usr/lib/gcc/arm-none-eabi/9.2.1/../../../arm-none-eabi/lib/thumb/v7e-m/nofp/libc_nano.a(lib_a-memset.o)
 .debug_frame   0x0000000000001270       0x58 /usr/lib/gcc/arm-none-eabi/9.2.1/../../../arm-none-eabi/lib/thumb/v7e-m/nofp/libc_nano.a(lib_a-nano-freer.o)
 .debug_frame   0x00000000000012c8       0x30 /usr/lib/gcc/arm-none-eabi/9.2.1/../../../arm-none-eabi/lib/thumb/v7e-m/nofp/libc_nano.a(lib_a-nano-mallocr.o)
 .debug_frame   0x00000000000012f8       0xb0 /usr/lib/gcc/arm-none-eabi/9.2.1/../../../arm-none-eabi/lib/thumb/v7e-m/nofp/libc_nano.a(lib_a-nano-vfprintf_float.o)
 .debug_frame   0x00000000000013a8       0x68 /usr/lib/gcc/arm-none-eabi/9.2.1/../../../arm-none-eabi/lib/thumb/v7e-m/nofp/libc_nano.a(lib_a-nano-vfprintf_i.o)
 .debug_frame   0x0000000000001410       0x7c /usr/lib/gcc/arm-none-eabi/9.2.1/../../../arm-none-eabi/lib/thumb/v7e-m/nofp/libc_nano.a(lib_a-printf.o)
 .debug_frame   0x000000000000148c       0x40 /usr/lib/gcc/arm-none-eabi/9.2.1/../../../arm-none-eabi/lib/thumb/v7e-m/nofp/libc_nano.a(lib_a-puts.o)
 .debug_frame   0x00000000000014cc       0x30 /usr/lib/gcc/arm-none-eabi/9.2.1/../../../arm-none-eabi/lib/thumb/v7e-m/nofp/libc_nano.a(lib_a-time.o)
 .debug_frame   0x00000000000014fc       0x40 /usr/lib/gcc/arm-none-eabi/9.2.1/../../../arm-none-eabi/lib/thumb/v7e-m/nofp/libc_nano.a(lib_a-wbuf.o)
 .debug_frame   0x000000000000153c       0x2c /usr/lib/gcc/arm-none-eabi/9.2.1/../../../arm-none-eabi/lib/thumb/v7e-m/nofp/libc_nano.a(lib_a-wsetup.o)
 .debug_frame   0x0000000000001568       0x8c /usr/lib/gcc/arm-none-eabi/9.2.1/../../../arm-none-eabi/lib/thumb/v7e-m/nofp/libc_nano.a(lib_a-dtoa.o)
 .debug_frame   0x00000000000015f4       0x70 /usr/lib/gcc/arm-none-eabi/9.2.1/../../../arm-none-eabi/lib/thumb/v7e-m/nofp/libc_nano.a(lib_a-fflush.o)
 .debug_frame   0x0000000000001664      0x120 /usr/lib/gcc/arm-none-eabi/9.2.1/../../../arm-none-eabi/lib/thumb/v7e-m/nofp/libc_nano.a(lib_a-findfp.o)
 .debug_frame   0x0000000000001784       0x70 /usr/lib/gcc/arm-none-eabi/9.2.1/../../../arm-none-eabi/lib/thumb/v7e-m/nofp/libc_nano.a(lib_a-fprintf.o)
 .debug_frame   0x00000000000017f4       0x54 /usr/lib/gcc/arm-none-eabi/9.2.1/../../../arm-none-eabi/lib/thumb/v7e-m/nofp/libc_nano.a(lib_a-fwalk.o)
 .debug_frame   0x0000000000001848       0x40 /usr/lib/gcc/arm-none-eabi/9.2.1/../../../arm-none-eabi/lib/thumb/v7e-m/nofp/libc_nano.a(lib_a-localeconv.o)
 .debug_frame   0x0000000000001888       0x64 /usr/lib/gcc/arm-none-eabi/9.2.1/../../../arm-none-eabi/lib/thumb/v7e-m/nofp/libc_nano.a(lib_a-makebuf.o)
 .debug_frame   0x00000000000018ec       0x30 /usr/lib/gcc/arm-none-eabi/9.2.1/../../../arm-none-eabi/lib/thumb/v7e-m/nofp/libc_nano.a(lib_a-mlock.o)
 .debug_frame   0x000000000000191c      0x284 /usr/lib/gcc/arm-none-eabi/9.2.1/../../../arm-none-eabi/lib/thumb/v7e-m/nofp/libc_nano.a(lib_a-mprec.o)
 .debug_frame   0x0000000000001ba0       0x2c /usr/lib/gcc/arm-none-eabi/9.2.1/../../../arm-none-eabi/lib/thumb/v7e-m/nofp/libc_nano.a(lib_a-nano-callocr.o)
 .debug_frame   0x0000000000001bcc       0x38 /usr/lib/gcc/arm-none-eabi/9.2.1/../../../arm-none-eabi/lib/thumb/v7e-m/nofp/libc_nano.a(lib_a-nano-reallocr.o)
 .debug_frame   0x0000000000001c04       0xbc /usr/lib/gcc/arm-none-eabi/9.2.1/../../../arm-none-eabi/lib/thumb/v7e-m/nofp/libc_nano.a(lib_a-nano-vfprintf.o)
 .debug_frame   0x0000000000001cc0       0x8c /usr/lib/gcc/arm-none-eabi/9.2.1/../../../arm-none-eabi/lib/thumb/v7e-m/nofp/libc_nano.a(lib_a-stdio.o)
 .debug_frame   0x0000000000001d4c       0x40 /usr/lib/gcc/arm-none-eabi/9.2.1/../../../arm-none-eabi/lib/thumb/v7e-m/nofp/libc_nano.a(lib_a-assert.o)
 .debug_frame   0x0000000000001d8c       0x64 /usr/lib/gcc/arm-none-eabi/9.2.1/../../../arm-none-eabi/lib/thumb/v7e-m/nofp/libc_nano.a(lib_a-fvwrite.o)
 .debug_frame   0x0000000000001df0       0x54 /usr/lib/gcc/arm-none-eabi/9.2.1/../../../arm-none-eabi/lib/thumb/v7e-m/nofp/libc_nano.a(lib_a-locale.o)
 .debug_frame   0x0000000000001e44       0x4c /usr/lib/gcc/arm-none-eabi/9.2.1/../../../arm-none-eabi/lib/thumb/v7e-m/nofp/libc_nano.a(lib_a-mbtowc_r.o)
 .debug_frame   0x0000000000001e90       0x40 /usr/lib/gcc/arm-none-eabi/9.2.1/../../../arm-none-eabi/lib/thumb/v7e-m/nofp/libc_nano.a(lib_a-memmove.o)
 .debug_frame   0x0000000000001ed0       0x20 /usr/lib/gcc/arm-none-eabi/9.2.1/../../../arm-none-eabi/lib/thumb/v7e-m/nofp/libc_nano.a(lib_a-nano-msizer.o)
 .debug_frame   0x0000000000001ef0       0x3c /usr/lib/gcc/arm-none-eabi/9.2.1/../../../arm-none-eabi/lib/thumb/v7e-m/nofp/libc_nano.a(lib_a-wctomb_r.o)
 .debug_frame   0x0000000000001f2c       0x28 /usr/lib/gcc/arm-none-eabi/9.2.1/../../../arm-none-eabi/lib/thumb/v7e-m/nofp/libc_nano.a(lib_a-abort.o)
 .debug_frame   0x0000000000001f54       0xe0 /usr/lib/gcc/arm-none-eabi/9.2.1/../../../arm-none-eabi/lib/thumb/v7e-m/nofp/libc_nano.a(lib_a-signal.o)
 .debug_frame   0x0000000000002034       0xc4 /usr/lib/gcc/arm-none-eabi/9.2.1/thumb/v7e-m/nofp/libgcc.a(_arm_cmpdf2.o)
 .debug_frame   0x00000000000020f8       0x20 /usr/lib/gcc/arm-none-eabi/9.2.1/thumb/v7e-m/nofp/libgcc.a(_arm_unorddf2.o)
 .debug_frame   0x0000000000002118       0x24 /usr/lib/gcc/arm-none-eabi/9.2.1/thumb/v7e-m/nofp/libgcc.a(_arm_fixdfsi.o)
