Archive member included to satisfy reference by file (symbol)

/usr/lib/gcc/arm-none-eabi/9.2.1/thumb/v7e-m/nofp/libgcc.a(_aeabi_ldivmod.o)
                              /home/ch/RIOT/tests/periph_gpio/bin/p-nucleo-wb55/benchmark/benchmark.o (__aeabi_ldivmod)
/usr/lib/gcc/arm-none-eabi/9.2.1/thumb/v7e-m/nofp/libgcc.a(_aeabi_uldivmod.o)
                              /home/ch/RIOT/tests/periph_gpio/bin/p-nucleo-wb55/benchmark/benchmark.o (__aeabi_uldivmod)
/usr/lib/gcc/arm-none-eabi/9.2.1/thumb/v7e-m/nofp/libgcc.a(_udivmoddi4.o)
                              /usr/lib/gcc/arm-none-eabi/9.2.1/thumb/v7e-m/nofp/libgcc.a(_aeabi_ldivmod.o) (__udivmoddi4)
/usr/lib/gcc/arm-none-eabi/9.2.1/thumb/v7e-m/nofp/libgcc.a(_dvmd_tls.o)
                              /usr/lib/gcc/arm-none-eabi/9.2.1/thumb/v7e-m/nofp/libgcc.a(_aeabi_ldivmod.o) (__aeabi_ldiv0)
/usr/lib/gcc/arm-none-eabi/9.2.1/../../../arm-none-eabi/lib/thumb/v7e-m/nofp/libc_nano.a(lib_a-atoi.o)
                              /home/ch/RIOT/tests/periph_gpio/bin/p-nucleo-wb55/application_tests_periph_gpio/main.o (atoi)
/usr/lib/gcc/arm-none-eabi/9.2.1/../../../arm-none-eabi/lib/thumb/v7e-m/nofp/libc_nano.a(lib_a-atol.o)
                              /home/ch/RIOT/tests/periph_gpio/bin/p-nucleo-wb55/application_tests_periph_gpio/main.o (atol)
/usr/lib/gcc/arm-none-eabi/9.2.1/../../../arm-none-eabi/lib/thumb/v7e-m/nofp/libc_nano.a(lib_a-errno.o)
                              /home/ch/RIOT/tests/periph_gpio/bin/p-nucleo-wb55/newlib_syscalls_default/syscalls.o (__errno)
/usr/lib/gcc/arm-none-eabi/9.2.1/../../../arm-none-eabi/lib/thumb/v7e-m/nofp/libc_nano.a(lib_a-fflush.o)
                              /home/ch/RIOT/tests/periph_gpio/bin/p-nucleo-wb55/shell_commands/sc_pm.o (fflush)
/usr/lib/gcc/arm-none-eabi/9.2.1/../../../arm-none-eabi/lib/thumb/v7e-m/nofp/libc_nano.a(lib_a-findfp.o)
                              /usr/lib/gcc/arm-none-eabi/9.2.1/../../../arm-none-eabi/lib/thumb/v7e-m/nofp/libc_nano.a(lib_a-fflush.o) (__sinit)
/usr/lib/gcc/arm-none-eabi/9.2.1/../../../arm-none-eabi/lib/thumb/v7e-m/nofp/libc_nano.a(lib_a-fwalk.o)
                              /usr/lib/gcc/arm-none-eabi/9.2.1/../../../arm-none-eabi/lib/thumb/v7e-m/nofp/libc_nano.a(lib_a-findfp.o) (_fwalk)
/usr/lib/gcc/arm-none-eabi/9.2.1/../../../arm-none-eabi/lib/thumb/v7e-m/nofp/libc_nano.a(lib_a-getchar.o)
                              /home/ch/RIOT/tests/periph_gpio/bin/p-nucleo-wb55/shell/shell.o (getchar)
/usr/lib/gcc/arm-none-eabi/9.2.1/../../../arm-none-eabi/lib/thumb/v7e-m/nofp/libc_nano.a(lib_a-impure.o)
                              /usr/lib/gcc/arm-none-eabi/9.2.1/../../../arm-none-eabi/lib/thumb/v7e-m/nofp/libc_nano.a(lib_a-fflush.o) (_global_impure_ptr)
/usr/lib/gcc/arm-none-eabi/9.2.1/../../../arm-none-eabi/lib/thumb/v7e-m/nofp/libc_nano.a(lib_a-init.o)
                              /home/ch/RIOT/tests/periph_gpio/bin/p-nucleo-wb55/cortexm_common/vectors_cortexm.o (__libc_init_array)
/usr/lib/gcc/arm-none-eabi/9.2.1/../../../arm-none-eabi/lib/thumb/v7e-m/nofp/libc_nano.a(lib_a-malloc.o)
                              /home/ch/RIOT/tests/periph_gpio/bin/p-nucleo-wb55/malloc_thread_safe/malloc_wrappers.o (malloc)
/usr/lib/gcc/arm-none-eabi/9.2.1/../../../arm-none-eabi/lib/thumb/v7e-m/nofp/libc_nano.a(lib_a-memcmp.o)
                              /home/ch/RIOT/tests/periph_gpio/bin/p-nucleo-wb55/core/atomic_c11.o (memcmp)
/usr/lib/gcc/arm-none-eabi/9.2.1/../../../arm-none-eabi/lib/thumb/v7e-m/nofp/libc_nano.a(lib_a-memcpy.o)
                              /home/ch/RIOT/tests/periph_gpio/bin/p-nucleo-wb55/core/atomic_c11.o (memcpy)
/usr/lib/gcc/arm-none-eabi/9.2.1/../../../arm-none-eabi/lib/thumb/v7e-m/nofp/libc_nano.a(lib_a-memset.o)
                              /home/ch/RIOT/tests/periph_gpio/bin/p-nucleo-wb55/malloc_thread_safe/malloc_wrappers.o (memset)
/usr/lib/gcc/arm-none-eabi/9.2.1/../../../arm-none-eabi/lib/thumb/v7e-m/nofp/libc_nano.a(lib_a-mstats.o)
                              /home/ch/RIOT/tests/periph_gpio/bin/p-nucleo-wb55/newlib_syscalls_default/syscalls.o (mallinfo)
/usr/lib/gcc/arm-none-eabi/9.2.1/../../../arm-none-eabi/lib/thumb/v7e-m/nofp/libc_nano.a(lib_a-nano-freer.o)
                              /usr/lib/gcc/arm-none-eabi/9.2.1/../../../arm-none-eabi/lib/thumb/v7e-m/nofp/libc_nano.a(lib_a-fflush.o) (_free_r)
/usr/lib/gcc/arm-none-eabi/9.2.1/../../../arm-none-eabi/lib/thumb/v7e-m/nofp/libc_nano.a(lib_a-nano-mallinfor.o)
                              /usr/lib/gcc/arm-none-eabi/9.2.1/../../../arm-none-eabi/lib/thumb/v7e-m/nofp/libc_nano.a(lib_a-mstats.o) (_mallinfo_r)
/usr/lib/gcc/arm-none-eabi/9.2.1/../../../arm-none-eabi/lib/thumb/v7e-m/nofp/libc_nano.a(lib_a-nano-mallocr.o)
                              /usr/lib/gcc/arm-none-eabi/9.2.1/../../../arm-none-eabi/lib/thumb/v7e-m/nofp/libc_nano.a(lib_a-findfp.o) (_malloc_r)
/usr/lib/gcc/arm-none-eabi/9.2.1/../../../arm-none-eabi/lib/thumb/v7e-m/nofp/libc_nano.a(lib_a-nano-malloptr.o)
                              /usr/lib/gcc/arm-none-eabi/9.2.1/../../../arm-none-eabi/lib/thumb/v7e-m/nofp/libc_nano.a(lib_a-mstats.o) (_mallopt_r)
/usr/lib/gcc/arm-none-eabi/9.2.1/../../../arm-none-eabi/lib/thumb/v7e-m/nofp/libc_nano.a(lib_a-nano-mallstatsr.o)
                              /usr/lib/gcc/arm-none-eabi/9.2.1/../../../arm-none-eabi/lib/thumb/v7e-m/nofp/libc_nano.a(lib_a-mstats.o) (_malloc_stats_r)
/usr/lib/gcc/arm-none-eabi/9.2.1/../../../arm-none-eabi/lib/thumb/v7e-m/nofp/libc_nano.a(lib_a-printf.o)
                              /home/ch/RIOT/tests/periph_gpio/bin/p-nucleo-wb55/application_tests_periph_gpio/main.o (printf)
/usr/lib/gcc/arm-none-eabi/9.2.1/../../../arm-none-eabi/lib/thumb/v7e-m/nofp/libc_nano.a(lib_a-putchar.o)
                              /home/ch/RIOT/tests/periph_gpio/bin/p-nucleo-wb55/shell/shell.o (putchar)
/usr/lib/gcc/arm-none-eabi/9.2.1/../../../arm-none-eabi/lib/thumb/v7e-m/nofp/libc_nano.a(lib_a-puts.o)
                              /home/ch/RIOT/tests/periph_gpio/bin/p-nucleo-wb55/application_tests_periph_gpio/main.o (puts)
/usr/lib/gcc/arm-none-eabi/9.2.1/../../../arm-none-eabi/lib/thumb/v7e-m/nofp/libc_nano.a(lib_a-realloc.o)
                              /home/ch/RIOT/tests/periph_gpio/bin/p-nucleo-wb55/malloc_thread_safe/malloc_wrappers.o (realloc)
/usr/lib/gcc/arm-none-eabi/9.2.1/../../../arm-none-eabi/lib/thumb/v7e-m/nofp/libc_nano.a(lib_a-stdio.o)
                              /usr/lib/gcc/arm-none-eabi/9.2.1/../../../arm-none-eabi/lib/thumb/v7e-m/nofp/libc_nano.a(lib_a-findfp.o) (__sread)
/usr/lib/gcc/arm-none-eabi/9.2.1/../../../arm-none-eabi/lib/thumb/v7e-m/nofp/libc_nano.a(lib_a-strcmp.o)
                              /home/ch/RIOT/tests/periph_gpio/bin/p-nucleo-wb55/shell_commands/sc_pm.o (strcmp)
/usr/lib/gcc/arm-none-eabi/9.2.1/../../../arm-none-eabi/lib/thumb/v7e-m/nofp/libc_nano.a(lib_a-strlen.o)
                              /home/ch/RIOT/tests/periph_gpio/bin/p-nucleo-wb55/shell/shell.o (strlen)
/usr/lib/gcc/arm-none-eabi/9.2.1/../../../arm-none-eabi/lib/thumb/v7e-m/nofp/libc_nano.a(lib_a-strtol.o)
                              /usr/lib/gcc/arm-none-eabi/9.2.1/../../../arm-none-eabi/lib/thumb/v7e-m/nofp/libc_nano.a(lib_a-atoi.o) (_strtol_r)
/usr/lib/gcc/arm-none-eabi/9.2.1/../../../arm-none-eabi/lib/thumb/v7e-m/nofp/libc_nano.a(lib_a-wbuf.o)
                              /usr/lib/gcc/arm-none-eabi/9.2.1/../../../arm-none-eabi/lib/thumb/v7e-m/nofp/libc_nano.a(lib_a-puts.o) (__swbuf_r)
/usr/lib/gcc/arm-none-eabi/9.2.1/../../../arm-none-eabi/lib/thumb/v7e-m/nofp/libc_nano.a(lib_a-wsetup.o)
                              /usr/lib/gcc/arm-none-eabi/9.2.1/../../../arm-none-eabi/lib/thumb/v7e-m/nofp/libc_nano.a(lib_a-puts.o) (__swsetup_r)
/usr/lib/gcc/arm-none-eabi/9.2.1/../../../arm-none-eabi/lib/thumb/v7e-m/nofp/libc_nano.a(lib_a-ctype_.o)
                              /usr/lib/gcc/arm-none-eabi/9.2.1/../../../arm-none-eabi/lib/thumb/v7e-m/nofp/libc_nano.a(lib_a-strtol.o) (_ctype_)
/usr/lib/gcc/arm-none-eabi/9.2.1/../../../arm-none-eabi/lib/thumb/v7e-m/nofp/libc_nano.a(lib_a-fprintf.o)
                              /usr/lib/gcc/arm-none-eabi/9.2.1/../../../arm-none-eabi/lib/thumb/v7e-m/nofp/libc_nano.a(lib_a-mstats.o) (fiprintf)
/usr/lib/gcc/arm-none-eabi/9.2.1/../../../arm-none-eabi/lib/thumb/v7e-m/nofp/libc_nano.a(lib_a-getc.o)
                              /usr/lib/gcc/arm-none-eabi/9.2.1/../../../arm-none-eabi/lib/thumb/v7e-m/nofp/libc_nano.a(lib_a-getchar.o) (_getc_r)
/usr/lib/gcc/arm-none-eabi/9.2.1/../../../arm-none-eabi/lib/thumb/v7e-m/nofp/libc_nano.a(lib_a-makebuf.o)
                              /usr/lib/gcc/arm-none-eabi/9.2.1/../../../arm-none-eabi/lib/thumb/v7e-m/nofp/libc_nano.a(lib_a-wsetup.o) (__smakebuf_r)
/usr/lib/gcc/arm-none-eabi/9.2.1/../../../arm-none-eabi/lib/thumb/v7e-m/nofp/libc_nano.a(lib_a-mlock.o)
                              /usr/lib/gcc/arm-none-eabi/9.2.1/../../../arm-none-eabi/lib/thumb/v7e-m/nofp/libc_nano.a(lib_a-nano-freer.o) (__malloc_lock)
/usr/lib/gcc/arm-none-eabi/9.2.1/../../../arm-none-eabi/lib/thumb/v7e-m/nofp/libc_nano.a(lib_a-nano-reallocr.o)
                              /usr/lib/gcc/arm-none-eabi/9.2.1/../../../arm-none-eabi/lib/thumb/v7e-m/nofp/libc_nano.a(lib_a-realloc.o) (_realloc_r)
/usr/lib/gcc/arm-none-eabi/9.2.1/../../../arm-none-eabi/lib/thumb/v7e-m/nofp/libc_nano.a(lib_a-nano-vfprintf.o)
                              /usr/lib/gcc/arm-none-eabi/9.2.1/../../../arm-none-eabi/lib/thumb/v7e-m/nofp/libc_nano.a(lib_a-printf.o) (_vfprintf_r)
/usr/lib/gcc/arm-none-eabi/9.2.1/../../../arm-none-eabi/lib/thumb/v7e-m/nofp/libc_nano.a(lib_a-nano-vfprintf_i.o)
                              /usr/lib/gcc/arm-none-eabi/9.2.1/../../../arm-none-eabi/lib/thumb/v7e-m/nofp/libc_nano.a(lib_a-nano-vfprintf.o) (_printf_i)
/usr/lib/gcc/arm-none-eabi/9.2.1/../../../arm-none-eabi/lib/thumb/v7e-m/nofp/libc_nano.a(lib_a-putc.o)
                              /usr/lib/gcc/arm-none-eabi/9.2.1/../../../arm-none-eabi/lib/thumb/v7e-m/nofp/libc_nano.a(lib_a-putchar.o) (_putc_r)
/usr/lib/gcc/arm-none-eabi/9.2.1/../../../arm-none-eabi/lib/thumb/v7e-m/nofp/libc_nano.a(lib_a-rget.o)
                              /usr/lib/gcc/arm-none-eabi/9.2.1/../../../arm-none-eabi/lib/thumb/v7e-m/nofp/libc_nano.a(lib_a-getc.o) (__srget_r)
/usr/lib/gcc/arm-none-eabi/9.2.1/../../../arm-none-eabi/lib/thumb/v7e-m/nofp/libc_nano.a(lib_a-fvwrite.o)
                              /usr/lib/gcc/arm-none-eabi/9.2.1/../../../arm-none-eabi/lib/thumb/v7e-m/nofp/libc_nano.a(lib_a-nano-vfprintf.o) (__sfvwrite_r)
/usr/lib/gcc/arm-none-eabi/9.2.1/../../../arm-none-eabi/lib/thumb/v7e-m/nofp/libc_nano.a(lib_a-memchr.o)
                              /usr/lib/gcc/arm-none-eabi/9.2.1/../../../arm-none-eabi/lib/thumb/v7e-m/nofp/libc_nano.a(lib_a-nano-vfprintf.o) (memchr)
/usr/lib/gcc/arm-none-eabi/9.2.1/../../../arm-none-eabi/lib/thumb/v7e-m/nofp/libc_nano.a(lib_a-memmove.o)
                              /usr/lib/gcc/arm-none-eabi/9.2.1/../../../arm-none-eabi/lib/thumb/v7e-m/nofp/libc_nano.a(lib_a-fvwrite.o) (memmove)
/usr/lib/gcc/arm-none-eabi/9.2.1/../../../arm-none-eabi/lib/thumb/v7e-m/nofp/libc_nano.a(lib_a-nano-msizer.o)
                              /usr/lib/gcc/arm-none-eabi/9.2.1/../../../arm-none-eabi/lib/thumb/v7e-m/nofp/libc_nano.a(lib_a-nano-reallocr.o) (_malloc_usable_size_r)
/usr/lib/gcc/arm-none-eabi/9.2.1/../../../arm-none-eabi/lib/thumb/v7e-m/nofp/libc_nano.a(lib_a-refill.o)
                              /usr/lib/gcc/arm-none-eabi/9.2.1/../../../arm-none-eabi/lib/thumb/v7e-m/nofp/libc_nano.a(lib_a-rget.o) (__srefill_r)

Discarded input sections

 .group         0x0000000000000000        0xc /home/ch/RIOT/tests/periph_gpio/bin/p-nucleo-wb55/application_tests_periph_gpio/main.o
 .group         0x0000000000000000        0xc /home/ch/RIOT/tests/periph_gpio/bin/p-nucleo-wb55/application_tests_periph_gpio/main.o
 .group         0x0000000000000000        0xc /home/ch/RIOT/tests/periph_gpio/bin/p-nucleo-wb55/application_tests_periph_gpio/main.o
 .group         0x0000000000000000        0xc /home/ch/RIOT/tests/periph_gpio/bin/p-nucleo-wb55/application_tests_periph_gpio/main.o
 .group         0x0000000000000000        0xc /home/ch/RIOT/tests/periph_gpio/bin/p-nucleo-wb55/application_tests_periph_gpio/main.o
 .group         0x0000000000000000        0xc /home/ch/RIOT/tests/periph_gpio/bin/p-nucleo-wb55/application_tests_periph_gpio/main.o
 .group         0x0000000000000000        0xc /home/ch/RIOT/tests/periph_gpio/bin/p-nucleo-wb55/application_tests_periph_gpio/main.o
 .group         0x0000000000000000        0xc /home/ch/RIOT/tests/periph_gpio/bin/p-nucleo-wb55/application_tests_periph_gpio/main.o
 .group         0x0000000000000000        0xc /home/ch/RIOT/tests/periph_gpio/bin/p-nucleo-wb55/application_tests_periph_gpio/main.o
 .group         0x0000000000000000        0xc /home/ch/RIOT/tests/periph_gpio/bin/p-nucleo-wb55/application_tests_periph_gpio/main.o
 .group         0x0000000000000000        0xc /home/ch/RIOT/tests/periph_gpio/bin/p-nucleo-wb55/application_tests_periph_gpio/main.o
 .group         0x0000000000000000        0xc /home/ch/RIOT/tests/periph_gpio/bin/p-nucleo-wb55/application_tests_periph_gpio/main.o
 .group         0x0000000000000000        0xc /home/ch/RIOT/tests/periph_gpio/bin/p-nucleo-wb55/application_tests_periph_gpio/main.o
 .group         0x0000000000000000        0xc /home/ch/RIOT/tests/periph_gpio/bin/p-nucleo-wb55/application_tests_periph_gpio/main.o
 .group         0x0000000000000000        0xc /home/ch/RIOT/tests/periph_gpio/bin/p-nucleo-wb55/application_tests_periph_gpio/main.o
 .group         0x0000000000000000        0xc /home/ch/RIOT/tests/periph_gpio/bin/p-nucleo-wb55/application_tests_periph_gpio/main.o
 .group         0x0000000000000000        0xc /home/ch/RIOT/tests/periph_gpio/bin/p-nucleo-wb55/application_tests_periph_gpio/main.o
 .group         0x0000000000000000        0xc /home/ch/RIOT/tests/periph_gpio/bin/p-nucleo-wb55/application_tests_periph_gpio/main.o
Memory Configuration

Name             Origin             Length             Attributes
ccmram           0x0000000010000000 0x0000000000000000
sram4            0x0000000028000000 0x0000000000000000
rom              0x0000000008000000 0x00000000000ca000 xr
ram              0x0000000020000000 0x0000000000030000 w !xr
bkup_ram         0x0000000000000000 0x0000000000000000 w !xr
*default*        0x0000000000000000 0xffffffffffffffff

Linker script and memory map

LOAD /home/ch/RIOT/tests/periph_gpio/bin/p-nucleo-wb55/application_tests_periph_gpio/main.o
LOAD /home/ch/RIOT/tests/periph_gpio/bin/p-nucleo-wb55/auto_init/auto_init.o
LOAD /home/ch/RIOT/tests/periph_gpio/bin/p-nucleo-wb55/benchmark/benchmark.o
LOAD /home/ch/RIOT/tests/periph_gpio/bin/p-nucleo-wb55/boards_common_nucleo/board_common_nucleo_init.o
LOAD /home/ch/RIOT/tests/periph_gpio/bin/p-nucleo-wb55/core/assert.o
LOAD /home/ch/RIOT/tests/periph_gpio/bin/p-nucleo-wb55/core/atomic_c11.o
LOAD /home/ch/RIOT/tests/periph_gpio/bin/p-nucleo-wb55/core/atomic_sync.o
LOAD /home/ch/RIOT/tests/periph_gpio/bin/p-nucleo-wb55/core/bitarithm.o
LOAD /home/ch/RIOT/tests/periph_gpio/bin/p-nucleo-wb55/core/clist.o
LOAD /home/ch/RIOT/tests/periph_gpio/bin/p-nucleo-wb55/core/cond.o
LOAD /home/ch/RIOT/tests/periph_gpio/bin/p-nucleo-wb55/core/init.o
LOAD /home/ch/RIOT/tests/periph_gpio/bin/p-nucleo-wb55/core/msg.o
LOAD /home/ch/RIOT/tests/periph_gpio/bin/p-nucleo-wb55/core/mutex.o
LOAD /home/ch/RIOT/tests/periph_gpio/bin/p-nucleo-wb55/core/panic.o
LOAD /home/ch/RIOT/tests/periph_gpio/bin/p-nucleo-wb55/core/priority_queue.o
LOAD /home/ch/RIOT/tests/periph_gpio/bin/p-nucleo-wb55/core/ringbuffer.o
LOAD /home/ch/RIOT/tests/periph_gpio/bin/p-nucleo-wb55/core/rmutex.o
LOAD /home/ch/RIOT/tests/periph_gpio/bin/p-nucleo-wb55/core/sched.o
LOAD /home/ch/RIOT/tests/periph_gpio/bin/p-nucleo-wb55/core/thread.o
LOAD /home/ch/RIOT/tests/periph_gpio/bin/p-nucleo-wb55/cortexm_common/cortexm_init.o
LOAD /home/ch/RIOT/tests/periph_gpio/bin/p-nucleo-wb55/cortexm_common/mpu.o
LOAD /home/ch/RIOT/tests/periph_gpio/bin/p-nucleo-wb55/cortexm_common/panic.o
LOAD /home/ch/RIOT/tests/periph_gpio/bin/p-nucleo-wb55/cortexm_common_periph/pm.o
LOAD /home/ch/RIOT/tests/periph_gpio/bin/p-nucleo-wb55/cortexm_common/thread_arch.o
LOAD /home/ch/RIOT/tests/periph_gpio/bin/p-nucleo-wb55/cortexm_common/vectors_cortexm.o
LOAD /home/ch/RIOT/tests/periph_gpio/bin/p-nucleo-wb55/cpu/cpu_common.o
LOAD /home/ch/RIOT/tests/periph_gpio/bin/p-nucleo-wb55/cpu/cpu_init.o
LOAD /home/ch/RIOT/tests/periph_gpio/bin/p-nucleo-wb55/frac/frac.o
LOAD /home/ch/RIOT/tests/periph_gpio/bin/p-nucleo-wb55/isrpipe/isrpipe.o
LOAD /home/ch/RIOT/tests/periph_gpio/bin/p-nucleo-wb55/malloc_thread_safe/malloc_wrappers.o
LOAD /home/ch/RIOT/tests/periph_gpio/bin/p-nucleo-wb55/newlib_syscalls_default/syscalls.o
LOAD /home/ch/RIOT/tests/periph_gpio/bin/p-nucleo-wb55/periph_common/gpio.o
LOAD /home/ch/RIOT/tests/periph_gpio/bin/p-nucleo-wb55/periph_common/init.o
LOAD /home/ch/RIOT/tests/periph_gpio/bin/p-nucleo-wb55/periph_common/pm.o
LOAD /home/ch/RIOT/tests/periph_gpio/bin/p-nucleo-wb55/periph_common/timer.o
LOAD /home/ch/RIOT/tests/periph_gpio/bin/p-nucleo-wb55/periph/gpio_all.o
LOAD /home/ch/RIOT/tests/periph_gpio/bin/p-nucleo-wb55/periph/pm.o
LOAD /home/ch/RIOT/tests/periph_gpio/bin/p-nucleo-wb55/periph/timer.o
LOAD /home/ch/RIOT/tests/periph_gpio/bin/p-nucleo-wb55/periph/uart.o
LOAD /home/ch/RIOT/tests/periph_gpio/bin/p-nucleo-wb55/pm_layered/pm.o
LOAD /home/ch/RIOT/tests/periph_gpio/bin/p-nucleo-wb55/shell_commands/sc_pm.o
LOAD /home/ch/RIOT/tests/periph_gpio/bin/p-nucleo-wb55/shell_commands/sc_sys.o
LOAD /home/ch/RIOT/tests/periph_gpio/bin/p-nucleo-wb55/shell_commands/shell_commands.o
LOAD /home/ch/RIOT/tests/periph_gpio/bin/p-nucleo-wb55/shell/shell.o
LOAD /home/ch/RIOT/tests/periph_gpio/bin/p-nucleo-wb55/stdio_uart/stdio_uart.o
LOAD /home/ch/RIOT/tests/periph_gpio/bin/p-nucleo-wb55/stm32_clk/stmclk_common.o
LOAD /home/ch/RIOT/tests/periph_gpio/bin/p-nucleo-wb55/stm32_clk/stmclk_l4wx.o
LOAD /home/ch/RIOT/tests/periph_gpio/bin/p-nucleo-wb55/stm32_vectors/STM32WB55xx.o
LOAD /home/ch/RIOT/tests/periph_gpio/bin/p-nucleo-wb55/test_utils_interactive_sync/interactive_sync.o
LOAD /home/ch/RIOT/tests/periph_gpio/bin/p-nucleo-wb55/tsrb/tsrb.o
LOAD /home/ch/RIOT/tests/periph_gpio/bin/p-nucleo-wb55/ztimer_core/convert_frac.o
LOAD /home/ch/RIOT/tests/periph_gpio/bin/p-nucleo-wb55/ztimer_core/convert.o
LOAD /home/ch/RIOT/tests/periph_gpio/bin/p-nucleo-wb55/ztimer_core/convert_shift.o
LOAD /home/ch/RIOT/tests/periph_gpio/bin/p-nucleo-wb55/ztimer_core/core.o
LOAD /home/ch/RIOT/tests/periph_gpio/bin/p-nucleo-wb55/ztimer_core/init.o
LOAD /home/ch/RIOT/tests/periph_gpio/bin/p-nucleo-wb55/ztimer_core/periodic.o
LOAD /home/ch/RIOT/tests/periph_gpio/bin/p-nucleo-wb55/ztimer_core/periph_timer.o
LOAD /home/ch/RIOT/tests/periph_gpio/bin/p-nucleo-wb55/ztimer_core/util.o
LOAD /usr/lib/gcc/arm-none-eabi/9.2.1/../../../arm-none-eabi/lib/thumb/v7e-m/nofp/libm.a
LOAD /usr/lib/gcc/arm-none-eabi/9.2.1/thumb/v7e-m/nofp/libgcc.a
                0x0000000008000000                _rom_start_addr = 0x8000000
                0x0000000020000000                _ram_start_addr = 0x20000000
                0x00000000000ca000                _rom_length = 0xca000
                0x0000000000030000                _ram_length = 0x30000
LOAD /usr/lib/gcc/arm-none-eabi/9.2.1/../../../arm-none-eabi/lib/thumb/v7e-m/nofp/libc_nano.a
START GROUP
LOAD /usr/lib/gcc/arm-none-eabi/9.2.1/thumb/v7e-m/nofp/libgcc.a
LOAD /usr/lib/gcc/arm-none-eabi/9.2.1/../../../arm-none-eabi/lib/thumb/v7e-m/nofp/libg_nano.a
LOAD /usr/lib/gcc/arm-none-eabi/9.2.1/../../../arm-none-eabi/lib/thumb/v7e-m/nofp/libc_nano.a
END GROUP
START GROUP
LOAD /usr/lib/gcc/arm-none-eabi/9.2.1/thumb/v7e-m/nofp/libgcc.a
LOAD /usr/lib/gcc/arm-none-eabi/9.2.1/../../../arm-none-eabi/lib/thumb/v7e-m/nofp/libc_nano.a
END GROUP
                0x0000000000000000                ccmram_length = DEFINED (ccmram_len)?ccmram_len:0x0
                0x0000000000000000                sram4_length = DEFINED (sram4_length)?sram4_length:0x0

.heap2          0x0000000000000000        0x0
                0x0000000000000000                _sheap2 = .
                0x0000000028000000                _eheap2 = (ORIGIN (sram4) + LENGTH (sram4))
                0x0000000000000000                _rom_offset = DEFINED (_rom_offset)?_rom_offset:0x0
                0x00000000000ca000                _fw_rom_length = DEFINED (_fw_rom_length)?_fw_rom_length:(_rom_length - _rom_offset)
                0x0000000000000001                ASSERT ((_fw_rom_length <= (_rom_length - _rom_offset)), Specified firmware size does not fit in ROM)
                0x0000000000000000                _backup_ram_start_addr = DEFINED (_backup_ram_start_addr)?_backup_ram_start_addr:0x0
                0x0000000000000000                _backup_ram_len = DEFINED (_backup_ram_len)?_backup_ram_len:0x0

.text           0x0000000008000000     0x5c0c
                0x0000000008000000                . = ALIGN (0x4)
                0x0000000008000000                _sfixed = .
                0x0000000008000000                _isr_vectors = DEFINED (_isr_vectors)?_isr_vectors:.
 *(SORT_BY_NAME(.vectors*))
 .vectors.0     0x0000000008000000       0x40 /home/ch/RIOT/tests/periph_gpio/bin/p-nucleo-wb55/cortexm_common/vectors_cortexm.o
                0x0000000008000000                cortex_vector_base
 .vectors.1     0x0000000008000040       0xfc /home/ch/RIOT/tests/periph_gpio/bin/p-nucleo-wb55/stm32_vectors/STM32WB55xx.o
                0x0000000008000040                vector_cpu
 *(.text .text.* .gnu.linkonce.t.*)
 .text.cb       0x000000000800013c        0xc /home/ch/RIOT/tests/periph_gpio/bin/p-nucleo-wb55/application_tests_periph_gpio/main.o
 .text._test_cb
                0x0000000008000148        0x4 /home/ch/RIOT/tests/periph_gpio/bin/p-nucleo-wb55/application_tests_periph_gpio/main.o
 .text.cmd_read
                0x000000000800014c       0x58 /home/ch/RIOT/tests/periph_gpio/bin/p-nucleo-wb55/application_tests_periph_gpio/main.o
 .text.ztimer_now
                0x00000000080001a4       0x10 /home/ch/RIOT/tests/periph_gpio/bin/p-nucleo-wb55/application_tests_periph_gpio/main.o
 .text.bench    0x00000000080001b4      0x184 /home/ch/RIOT/tests/periph_gpio/bin/p-nucleo-wb55/application_tests_periph_gpio/main.o
 .text.init_int
                0x0000000008000338       0xac /home/ch/RIOT/tests/periph_gpio/bin/p-nucleo-wb55/application_tests_periph_gpio/main.o
 .text.cmd_auto_test
                0x00000000080003e4      0x210 /home/ch/RIOT/tests/periph_gpio/bin/p-nucleo-wb55/application_tests_periph_gpio/main.o
 .text.enable_int
                0x00000000080005f4       0x80 /home/ch/RIOT/tests/periph_gpio/bin/p-nucleo-wb55/application_tests_periph_gpio/main.o
 .text.cmd_toggle
                0x0000000008000674       0x38 /home/ch/RIOT/tests/periph_gpio/bin/p-nucleo-wb55/application_tests_periph_gpio/main.o
 .text.cmd_set  0x00000000080006ac       0x38 /home/ch/RIOT/tests/periph_gpio/bin/p-nucleo-wb55/application_tests_periph_gpio/main.o
 .text.cmd_clear
                0x00000000080006e4       0x38 /home/ch/RIOT/tests/periph_gpio/bin/p-nucleo-wb55/application_tests_periph_gpio/main.o
 .text.init_pin
                0x000000000800071c       0x50 /home/ch/RIOT/tests/periph_gpio/bin/p-nucleo-wb55/application_tests_periph_gpio/main.o
 .text.init_od_pu
                0x000000000800076c        0x6 /home/ch/RIOT/tests/periph_gpio/bin/p-nucleo-wb55/application_tests_periph_gpio/main.o
 .text.init_od  0x0000000008000772        0x6 /home/ch/RIOT/tests/periph_gpio/bin/p-nucleo-wb55/application_tests_periph_gpio/main.o
 .text.init_in_pd
                0x0000000008000778        0x6 /home/ch/RIOT/tests/periph_gpio/bin/p-nucleo-wb55/application_tests_periph_gpio/main.o
 .text.init_in_pu
                0x000000000800077e        0x6 /home/ch/RIOT/tests/periph_gpio/bin/p-nucleo-wb55/application_tests_periph_gpio/main.o
 .text.init_in  0x0000000008000784        0x6 /home/ch/RIOT/tests/periph_gpio/bin/p-nucleo-wb55/application_tests_periph_gpio/main.o
 .text.init_out
                0x000000000800078a        0x6 /home/ch/RIOT/tests/periph_gpio/bin/p-nucleo-wb55/application_tests_periph_gpio/main.o
 .text.startup.main
                0x0000000008000790       0x2c /home/ch/RIOT/tests/periph_gpio/bin/p-nucleo-wb55/application_tests_periph_gpio/main.o
                0x0000000008000790                main
 .text.auto_init
                0x00000000080007bc        0x4 /home/ch/RIOT/tests/periph_gpio/bin/p-nucleo-wb55/auto_init/auto_init.o
                0x00000000080007bc                auto_init
 .text.benchmark_print_time
                0x00000000080007c0       0x48 /home/ch/RIOT/tests/periph_gpio/bin/p-nucleo-wb55/benchmark/benchmark.o
                0x00000000080007c0                benchmark_print_time
 .text.board_common_nucleo_init
                0x0000000008000808       0x2c /home/ch/RIOT/tests/periph_gpio/bin/p-nucleo-wb55/boards_common_nucleo/board_common_nucleo_init.o
                0x0000000008000808                board_common_nucleo_init
 .text.board_init
                0x0000000008000834        0x4 /home/ch/RIOT/tests/periph_gpio/bin/p-nucleo-wb55/boards_common_nucleo/board_common_nucleo_init.o
                0x0000000008000834                board_init
 .text.main_trampoline
                0x0000000008000838       0x18 /home/ch/RIOT/tests/periph_gpio/bin/p-nucleo-wb55/core/init.o
 .text.kernel_init
                0x0000000008000850       0x34 /home/ch/RIOT/tests/periph_gpio/bin/p-nucleo-wb55/core/init.o
                0x0000000008000850                kernel_init
 .text.mutex_lock
                0x0000000008000884       0x68 /home/ch/RIOT/tests/periph_gpio/bin/p-nucleo-wb55/core/mutex.o
                0x0000000008000884                mutex_lock
 .text.mutex_lock_cancelable
                0x00000000080008ec       0x90 /home/ch/RIOT/tests/periph_gpio/bin/p-nucleo-wb55/core/mutex.o
                0x00000000080008ec                mutex_lock_cancelable
 .text.mutex_unlock
                0x000000000800097c       0x44 /home/ch/RIOT/tests/periph_gpio/bin/p-nucleo-wb55/core/mutex.o
                0x000000000800097c                mutex_unlock
 .text.mutex_cancel
                0x00000000080009c0       0x5a /home/ch/RIOT/tests/periph_gpio/bin/p-nucleo-wb55/core/mutex.o
                0x00000000080009c0                mutex_cancel
 .text.panic_app
                0x0000000008000a1a        0x2 /home/ch/RIOT/tests/periph_gpio/bin/p-nucleo-wb55/core/panic.o
                0x0000000008000a1a                panic_app
 .text.core_panic
                0x0000000008000a1c       0x50 /home/ch/RIOT/tests/periph_gpio/bin/p-nucleo-wb55/core/panic.o
                0x0000000008000a1c                core_panic
 .text._unschedule
                0x0000000008000a6c       0x24 /home/ch/RIOT/tests/periph_gpio/bin/p-nucleo-wb55/core/sched.o
 .text.sched_run
                0x0000000008000a90       0x6c /home/ch/RIOT/tests/periph_gpio/bin/p-nucleo-wb55/core/sched.o
                0x0000000008000a90                sched_run
 .text.sched_set_status
                0x0000000008000afc       0x84 /home/ch/RIOT/tests/periph_gpio/bin/p-nucleo-wb55/core/sched.o
                0x0000000008000afc                sched_set_status
 .text.sched_switch
                0x0000000008000b80       0x3c /home/ch/RIOT/tests/periph_gpio/bin/p-nucleo-wb55/core/sched.o
                0x0000000008000b80                sched_switch
 .text.sched_task_exit
                0x0000000008000bbc       0x3c /home/ch/RIOT/tests/periph_gpio/bin/p-nucleo-wb55/core/sched.o
                0x0000000008000bbc                sched_task_exit
 .text.thread_getname
                0x0000000008000bf8       0x1c /home/ch/RIOT/tests/periph_gpio/bin/p-nucleo-wb55/core/thread.o
                0x0000000008000bf8                thread_getname
 .text.thread_add_to_list
                0x0000000008000c14       0x30 /home/ch/RIOT/tests/periph_gpio/bin/p-nucleo-wb55/core/thread.o
                0x0000000008000c14                thread_add_to_list
 .text.thread_create
                0x0000000008000c44       0xe8 /home/ch/RIOT/tests/periph_gpio/bin/p-nucleo-wb55/core/thread.o
                0x0000000008000c44                thread_create
 .text.cortexm_init
                0x0000000008000d2c       0x40 /home/ch/RIOT/tests/periph_gpio/bin/p-nucleo-wb55/cortexm_common/cortexm_init.o
                0x0000000008000d2c                cortexm_init
 .text.panic_arch
                0x0000000008000d6c       0x1c /home/ch/RIOT/tests/periph_gpio/bin/p-nucleo-wb55/cortexm_common/panic.o
                0x0000000008000d6c                panic_arch
 .text.pm_reboot
                0x0000000008000d88       0x24 /home/ch/RIOT/tests/periph_gpio/bin/p-nucleo-wb55/cortexm_common_periph/pm.o
                0x0000000008000d88                pm_reboot
 .text.thread_stack_init
                0x0000000008000dac       0x68 /home/ch/RIOT/tests/periph_gpio/bin/p-nucleo-wb55/cortexm_common/thread_arch.o
                0x0000000008000dac                thread_stack_init
 .text.cpu_switch_context_exit
                0x0000000008000e14       0x18 /home/ch/RIOT/tests/periph_gpio/bin/p-nucleo-wb55/cortexm_common/thread_arch.o
                0x0000000008000e14                cpu_switch_context_exit
 .text.isr_pendsv
                0x0000000008000e2c       0x38 /home/ch/RIOT/tests/periph_gpio/bin/p-nucleo-wb55/cortexm_common/thread_arch.o
                0x0000000008000e2c                isr_pendsv
 .text.isr_svc  0x0000000008000e64       0x10 /home/ch/RIOT/tests/periph_gpio/bin/p-nucleo-wb55/cortexm_common/thread_arch.o
                0x0000000008000e64                isr_svc
 .text.sched_arch_idle
                0x0000000008000e74       0x10 /home/ch/RIOT/tests/periph_gpio/bin/p-nucleo-wb55/cortexm_common/thread_arch.o
                0x0000000008000e74                sched_arch_idle
 .text.hard_fault_default
                0x0000000008000e84       0x44 /home/ch/RIOT/tests/periph_gpio/bin/p-nucleo-wb55/cortexm_common/vectors_cortexm.o
                0x0000000008000e84                hard_fault_default
 .text.nmi_default
                0x0000000008000ec8       0x10 /home/ch/RIOT/tests/periph_gpio/bin/p-nucleo-wb55/cortexm_common/vectors_cortexm.o
                0x0000000008000ec8                nmi_default
 .text.mem_manage_default
                0x0000000008000ed8       0x10 /home/ch/RIOT/tests/periph_gpio/bin/p-nucleo-wb55/cortexm_common/vectors_cortexm.o
                0x0000000008000ed8                mem_manage_default
 .text.bus_fault_default
                0x0000000008000ee8       0x10 /home/ch/RIOT/tests/periph_gpio/bin/p-nucleo-wb55/cortexm_common/vectors_cortexm.o
                0x0000000008000ee8                bus_fault_default
 .text.usage_fault_default
                0x0000000008000ef8       0x10 /home/ch/RIOT/tests/periph_gpio/bin/p-nucleo-wb55/cortexm_common/vectors_cortexm.o
                0x0000000008000ef8                usage_fault_default
 .text.debug_mon_default
                0x0000000008000f08       0x10 /home/ch/RIOT/tests/periph_gpio/bin/p-nucleo-wb55/cortexm_common/vectors_cortexm.o
                0x0000000008000f08                debug_mon_default
 .text.dummy_handler_default
                0x0000000008000f18       0x10 /home/ch/RIOT/tests/periph_gpio/bin/p-nucleo-wb55/cortexm_common/vectors_cortexm.o
                0x0000000008000f18                dummy_handler_default
                0x0000000008000f18                isr_systick
 .text.pre_startup
                0x0000000008000f28        0x2 /home/ch/RIOT/tests/periph_gpio/bin/p-nucleo-wb55/cortexm_common/vectors_cortexm.o
                0x0000000008000f28                pre_startup
 .text.post_startup
                0x0000000008000f2a        0x2 /home/ch/RIOT/tests/periph_gpio/bin/p-nucleo-wb55/cortexm_common/vectors_cortexm.o
                0x0000000008000f2a                post_startup
 .text.reset_handler_default
                0x0000000008000f2c       0x70 /home/ch/RIOT/tests/periph_gpio/bin/p-nucleo-wb55/cortexm_common/vectors_cortexm.o
                0x0000000008000f2c                reset_handler_default
 .text.hard_fault_handler
                0x0000000008000f9c      0x1bc /home/ch/RIOT/tests/periph_gpio/bin/p-nucleo-wb55/cortexm_common/vectors_cortexm.o
                0x0000000008000f9c                hard_fault_handler
 .text.periph_apb_clk
                0x0000000008001158       0x18 /home/ch/RIOT/tests/periph_gpio/bin/p-nucleo-wb55/cpu/cpu_common.o
                0x0000000008001158                periph_apb_clk
 .text.periph_timer_clk
                0x0000000008001170       0x20 /home/ch/RIOT/tests/periph_gpio/bin/p-nucleo-wb55/cpu/cpu_common.o
                0x0000000008001170                periph_timer_clk
 .text.periph_clk_en
                0x0000000008001190       0x5a /home/ch/RIOT/tests/periph_gpio/bin/p-nucleo-wb55/cpu/cpu_common.o
                0x0000000008001190                periph_clk_en
 .text.cpu_init
                0x00000000080011ea       0x16 /home/ch/RIOT/tests/periph_gpio/bin/p-nucleo-wb55/cpu/cpu_init.o
                0x00000000080011ea                cpu_init
 .text.isrpipe_write_one
                0x0000000008001200       0x16 /home/ch/RIOT/tests/periph_gpio/bin/p-nucleo-wb55/isrpipe/isrpipe.o
                0x0000000008001200                isrpipe_write_one
 .text.isrpipe_read
                0x0000000008001216       0x22 /home/ch/RIOT/tests/periph_gpio/bin/p-nucleo-wb55/isrpipe/isrpipe.o
                0x0000000008001216                isrpipe_read
 .text._init    0x0000000008001238        0x2 /home/ch/RIOT/tests/periph_gpio/bin/p-nucleo-wb55/newlib_syscalls_default/syscalls.o
                0x0000000008001238                _init
 .text._fini    0x000000000800123a        0x2 /home/ch/RIOT/tests/periph_gpio/bin/p-nucleo-wb55/newlib_syscalls_default/syscalls.o
                0x000000000800123a                _fini
 .text._sbrk_r  0x000000000800123c       0x40 /home/ch/RIOT/tests/periph_gpio/bin/p-nucleo-wb55/newlib_syscalls_default/syscalls.o
                0x000000000800123c                _sbrk_r
 .text._read_r  0x000000000800127c        0x8 /home/ch/RIOT/tests/periph_gpio/bin/p-nucleo-wb55/newlib_syscalls_default/syscalls.o
                0x000000000800127c                _read_r
 .text._write_r
                0x0000000008001284        0x8 /home/ch/RIOT/tests/periph_gpio/bin/p-nucleo-wb55/newlib_syscalls_default/syscalls.o
                0x0000000008001284                _write_r
 .text._close_r
                0x000000000800128c        0xa /home/ch/RIOT/tests/periph_gpio/bin/p-nucleo-wb55/newlib_syscalls_default/syscalls.o
                0x000000000800128c                _close_r
 .text._lseek_r
                0x0000000008001296        0xa /home/ch/RIOT/tests/periph_gpio/bin/p-nucleo-wb55/newlib_syscalls_default/syscalls.o
                0x0000000008001296                _lseek_r
 .text._fstat_r
                0x00000000080012a0        0xa /home/ch/RIOT/tests/periph_gpio/bin/p-nucleo-wb55/newlib_syscalls_default/syscalls.o
                0x00000000080012a0                _fstat_r
 .text._isatty_r
                0x00000000080012aa       0x10 /home/ch/RIOT/tests/periph_gpio/bin/p-nucleo-wb55/newlib_syscalls_default/syscalls.o
                0x00000000080012aa                _isatty_r
 .text.periph_init
                0x00000000080012ba        0x2 /home/ch/RIOT/tests/periph_gpio/bin/p-nucleo-wb55/periph_common/init.o
                0x00000000080012ba                periph_init
 .text.timer_set
                0x00000000080012bc       0x22 /home/ch/RIOT/tests/periph_gpio/bin/p-nucleo-wb55/periph_common/timer.o
                0x00000000080012bc                timer_set
 .text.gpio_init
                0x00000000080012de       0x68 /home/ch/RIOT/tests/periph_gpio/bin/p-nucleo-wb55/periph/gpio_all.o
                0x00000000080012de                gpio_init
 .text.gpio_init_af
                0x0000000008001346       0x58 /home/ch/RIOT/tests/periph_gpio/bin/p-nucleo-wb55/periph/gpio_all.o
                0x0000000008001346                gpio_init_af
 *fill*         0x000000000800139e        0x2 
 .text.gpio_irq_enable
                0x00000000080013a0       0x1c /home/ch/RIOT/tests/periph_gpio/bin/p-nucleo-wb55/periph/gpio_all.o
                0x00000000080013a0                gpio_irq_enable
 .text.gpio_irq_disable
                0x00000000080013bc       0x1c /home/ch/RIOT/tests/periph_gpio/bin/p-nucleo-wb55/periph/gpio_all.o
                0x00000000080013bc                gpio_irq_disable
 .text.gpio_read
                0x00000000080013d8       0x14 /home/ch/RIOT/tests/periph_gpio/bin/p-nucleo-wb55/periph/gpio_all.o
                0x00000000080013d8                gpio_read
 .text.gpio_set
                0x00000000080013ec       0x12 /home/ch/RIOT/tests/periph_gpio/bin/p-nucleo-wb55/periph/gpio_all.o
                0x00000000080013ec                gpio_set
 .text.gpio_clear
                0x00000000080013fe       0x14 /home/ch/RIOT/tests/periph_gpio/bin/p-nucleo-wb55/periph/gpio_all.o
                0x00000000080013fe                gpio_clear
 .text.gpio_toggle
                0x0000000008001412       0x1e /home/ch/RIOT/tests/periph_gpio/bin/p-nucleo-wb55/periph/gpio_all.o
                0x0000000008001412                gpio_toggle
 .text.gpio_write
                0x0000000008001430        0xa /home/ch/RIOT/tests/periph_gpio/bin/p-nucleo-wb55/periph/gpio_all.o
                0x0000000008001430                gpio_write
 *fill*         0x000000000800143a        0x2 
 .text.gpio_init_int
                0x000000000800143c       0xb0 /home/ch/RIOT/tests/periph_gpio/bin/p-nucleo-wb55/periph/gpio_all.o
                0x000000000800143c                gpio_init_int
 .text.isr_exti
                0x00000000080014ec       0x5c /home/ch/RIOT/tests/periph_gpio/bin/p-nucleo-wb55/periph/gpio_all.o
                0x00000000080014ec                isr_exti
 .text.pm_set   0x0000000008001548       0x74 /home/ch/RIOT/tests/periph_gpio/bin/p-nucleo-wb55/periph/pm.o
                0x0000000008001548                pm_set
 .text.timer_set_absolute
                0x00000000080015bc       0x38 /home/ch/RIOT/tests/periph_gpio/bin/p-nucleo-wb55/periph/timer.o
                0x00000000080015bc                timer_set_absolute
 .text.timer_clear
                0x00000000080015f4       0x28 /home/ch/RIOT/tests/periph_gpio/bin/p-nucleo-wb55/periph/timer.o
                0x00000000080015f4                timer_clear
 .text.timer_read
                0x000000000800161c       0x10 /home/ch/RIOT/tests/periph_gpio/bin/p-nucleo-wb55/periph/timer.o
                0x000000000800161c                timer_read
 .text.timer_start
                0x000000000800162c       0x14 /home/ch/RIOT/tests/periph_gpio/bin/p-nucleo-wb55/periph/timer.o
                0x000000000800162c                timer_start
 .text.timer_init
                0x0000000008001640       0x54 /home/ch/RIOT/tests/periph_gpio/bin/p-nucleo-wb55/periph/timer.o
                0x0000000008001640                timer_init
 .text.isr_tim2
                0x0000000008001694       0x74 /home/ch/RIOT/tests/periph_gpio/bin/p-nucleo-wb55/periph/timer.o
                0x0000000008001694                isr_tim2
 .text.irq_handler
                0x0000000008001708       0x54 /home/ch/RIOT/tests/periph_gpio/bin/p-nucleo-wb55/periph/uart.o
 .text.uart_enable_clock
                0x000000000800175c       0x30 /home/ch/RIOT/tests/periph_gpio/bin/p-nucleo-wb55/periph/uart.o
 .text.uart_init
                0x000000000800178c      0x120 /home/ch/RIOT/tests/periph_gpio/bin/p-nucleo-wb55/periph/uart.o
                0x000000000800178c                uart_init
 .text.uart_write
                0x00000000080018ac       0x40 /home/ch/RIOT/tests/periph_gpio/bin/p-nucleo-wb55/periph/uart.o
                0x00000000080018ac                uart_write
 .text.isr_usart1
                0x00000000080018ec        0x6 /home/ch/RIOT/tests/periph_gpio/bin/p-nucleo-wb55/periph/uart.o
                0x00000000080018ec                isr_usart1
 .text.isr_lpuart1
                0x00000000080018f2        0x6 /home/ch/RIOT/tests/periph_gpio/bin/p-nucleo-wb55/periph/uart.o
                0x00000000080018f2                isr_lpuart1
 .text.pm_set_lowest
                0x00000000080018f8       0x3c /home/ch/RIOT/tests/periph_gpio/bin/p-nucleo-wb55/pm_layered/pm.o
                0x00000000080018f8                pm_set_lowest
 .text.pm_block
                0x0000000008001934       0x2c /home/ch/RIOT/tests/periph_gpio/bin/p-nucleo-wb55/pm_layered/pm.o
                0x0000000008001934                pm_block
 .text.pm_unblock
                0x0000000008001960       0x2c /home/ch/RIOT/tests/periph_gpio/bin/p-nucleo-wb55/pm_layered/pm.o
                0x0000000008001960                pm_unblock
 .text.pm_get_blocker
                0x000000000800198c       0x14 /home/ch/RIOT/tests/periph_gpio/bin/p-nucleo-wb55/pm_layered/pm.o
                0x000000000800198c                pm_get_blocker
 .text.pm_off   0x00000000080019a0       0x10 /home/ch/RIOT/tests/periph_gpio/bin/p-nucleo-wb55/pm_layered/pm.o
                0x00000000080019a0                pm_off
 .text._print_usage
                0x00000000080019b0       0x44 /home/ch/RIOT/tests/periph_gpio/bin/p-nucleo-wb55/shell_commands/sc_pm.o
 .text.parse_mode
                0x00000000080019f4       0x20 /home/ch/RIOT/tests/periph_gpio/bin/p-nucleo-wb55/shell_commands/sc_pm.o
 .text._pm_handler
                0x0000000008001a14      0x184 /home/ch/RIOT/tests/periph_gpio/bin/p-nucleo-wb55/shell_commands/sc_pm.o
                0x0000000008001a14                _pm_handler
 .text._reboot_handler
                0x0000000008001b98        0xa /home/ch/RIOT/tests/periph_gpio/bin/p-nucleo-wb55/shell_commands/sc_sys.o
                0x0000000008001b98                _reboot_handler
 *fill*         0x0000000008001ba2        0x2 
 .text._version_handler
                0x0000000008001ba4       0x10 /home/ch/RIOT/tests/periph_gpio/bin/p-nucleo-wb55/shell_commands/sc_sys.o
                0x0000000008001ba4                _version_handler
 .text.print_prompt
                0x0000000008001bb4       0x20 /home/ch/RIOT/tests/periph_gpio/bin/p-nucleo-wb55/shell/shell.o
 .text.print_commands
                0x0000000008001bd4       0x24 /home/ch/RIOT/tests/periph_gpio/bin/p-nucleo-wb55/shell/shell.o
 .text.shell_run_once
                0x0000000008001bf8      0x2d4 /home/ch/RIOT/tests/periph_gpio/bin/p-nucleo-wb55/shell/shell.o
                0x0000000008001bf8                shell_run_once
 .text.stdio_init
                0x0000000008001ecc       0x18 /home/ch/RIOT/tests/periph_gpio/bin/p-nucleo-wb55/stdio_uart/stdio_uart.o
                0x0000000008001ecc                stdio_init
 .text.stdio_read
                0x0000000008001ee4       0x10 /home/ch/RIOT/tests/periph_gpio/bin/p-nucleo-wb55/stdio_uart/stdio_uart.o
                0x0000000008001ee4                stdio_read
 .text.stdio_write
                0x0000000008001ef4       0x12 /home/ch/RIOT/tests/periph_gpio/bin/p-nucleo-wb55/stdio_uart/stdio_uart.o
                0x0000000008001ef4                stdio_write
 .text.stmclk_enable_hsi
                0x0000000008001f06       0x14 /home/ch/RIOT/tests/periph_gpio/bin/p-nucleo-wb55/stm32_clk/stmclk_common.o
                0x0000000008001f06                stmclk_enable_hsi
 .text.stmclk_disable_hsi
                0x0000000008001f1a        0xe /home/ch/RIOT/tests/periph_gpio/bin/p-nucleo-wb55/stm32_clk/stmclk_common.o
                0x0000000008001f1a                stmclk_disable_hsi
 .text.stmclk_init_sysclk
                0x0000000008001f28       0xb4 /home/ch/RIOT/tests/periph_gpio/bin/p-nucleo-wb55/stm32_clk/stmclk_l4wx.o
                0x0000000008001f28                stmclk_init_sysclk
 .text.dummy_handler
                0x0000000008001fdc        0x4 /home/ch/RIOT/tests/periph_gpio/bin/p-nucleo-wb55/stm32_vectors/STM32WB55xx.o
                0x0000000008001fdc                isr_lptim2
                0x0000000008001fdc                isr_rtc_wkup
                0x0000000008001fdc                isr_tim1_trg_com_tim17
                0x0000000008001fdc                isr_hsem
                0x0000000008001fdc                isr_aes2
                0x0000000008001fdc                isr_dma1_channel4
                0x0000000008001fdc                isr_tsc
                0x0000000008001fdc                isr_dma2_channel7
                0x0000000008001fdc                isr_i2c1_ev
                0x0000000008001fdc                isr_tim1_brk
                0x0000000008001fdc                isr_dma1_channel5
                0x0000000008001fdc                isr_dma1_channel2
                0x0000000008001fdc                isr_pka
                0x0000000008001fdc                isr_dma2_channel6
                0x0000000008001fdc                isr_dma1_channel7
                0x0000000008001fdc                isr_i2c3_ev
                0x0000000008001fdc                isr_c2sev_pwr_c2h
                0x0000000008001fdc                isr_tamp_stamp_lsecss
                0x0000000008001fdc                isr_dma2_channel4
                0x0000000008001fdc                isr_spi2
                0x0000000008001fdc                isr_dma1_channel1
                0x0000000008001fdc                dummy_handler
                0x0000000008001fdc                isr_ipcc_c1_tx
                0x0000000008001fdc                isr_tim1_up_tim16
                0x0000000008001fdc                isr_usb_hp
                0x0000000008001fdc                isr_comp
                0x0000000008001fdc                isr_spi1
                0x0000000008001fdc                isr_lptim1
                0x0000000008001fdc                isr_sai1
                0x0000000008001fdc                isr_usb_lp
                0x0000000008001fdc                isr_rcc
                0x0000000008001fdc                isr_flash
                0x0000000008001fdc                isr_dma2_channel5
                0x0000000008001fdc                isr_i2c3_er
                0x0000000008001fdc                isr_tim1_cc
                0x0000000008001fdc                isr_aes1
                0x0000000008001fdc                isr_dma2_channel1
                0x0000000008001fdc                isr_adc1
                0x0000000008001fdc                isr_dma1_channel6
                0x0000000008001fdc                isr_pwr_sotf_bleact_802act_rfphase
                0x0000000008001fdc                isr_lcd
                0x0000000008001fdc                isr_pvd_pvm
                0x0000000008001fdc                isr_crs
                0x0000000008001fdc                isr_fpu
                0x0000000008001fdc                isr_rng
                0x0000000008001fdc                isr_dmamux1_ovr
                0x0000000008001fdc                isr_dma2_channel2
                0x0000000008001fdc                isr_dma2_channel3
                0x0000000008001fdc                isr_rtc_alarm
                0x0000000008001fdc                isr_ipcc_c1_rx
                0x0000000008001fdc                isr_quadspi
                0x0000000008001fdc                isr_dma1_channel3
                0x0000000008001fdc                isr_i2c1_er
                0x0000000008001fdc                isr_wwdg
 .text._pop     0x0000000008001fe0       0x12 /home/ch/RIOT/tests/periph_gpio/bin/p-nucleo-wb55/tsrb/tsrb.o
 .text.tsrb_get
                0x0000000008001ff2       0x3e /home/ch/RIOT/tests/periph_gpio/bin/p-nucleo-wb55/tsrb/tsrb.o
                0x0000000008001ff2                tsrb_get
 .text.tsrb_add_one
                0x0000000008002030       0x3c /home/ch/RIOT/tests/periph_gpio/bin/p-nucleo-wb55/tsrb/tsrb.o
                0x0000000008002030                tsrb_add_one
 .text._is_set  0x000000000800206c       0x18 /home/ch/RIOT/tests/periph_gpio/bin/p-nucleo-wb55/ztimer_core/core.o
 .text._now_next
                0x0000000008002084       0x2a /home/ch/RIOT/tests/periph_gpio/bin/p-nucleo-wb55/ztimer_core/core.o
 .text._ztimer_update
                0x00000000080020ae       0x28 /home/ch/RIOT/tests/periph_gpio/bin/p-nucleo-wb55/ztimer_core/core.o
 *fill*         0x00000000080020d6        0x2 
 .text._del_entry_from_list
                0x00000000080020d8       0x64 /home/ch/RIOT/tests/periph_gpio/bin/p-nucleo-wb55/ztimer_core/core.o
 .text._ztimer_now_extend
                0x000000000800213c       0x40 /home/ch/RIOT/tests/periph_gpio/bin/p-nucleo-wb55/ztimer_core/core.o
                0x000000000800213c                _ztimer_now_extend
 .text.ztimer_now
                0x000000000800217c       0x10 /home/ch/RIOT/tests/periph_gpio/bin/p-nucleo-wb55/ztimer_core/core.o
 .text._ztimer_update_head_offset
                0x000000000800218c       0x32 /home/ch/RIOT/tests/periph_gpio/bin/p-nucleo-wb55/ztimer_core/core.o
 .text.ztimer_remove
                0x00000000080021be       0x32 /home/ch/RIOT/tests/periph_gpio/bin/p-nucleo-wb55/ztimer_core/core.o
                0x00000000080021be                ztimer_remove
 .text.ztimer_set
                0x00000000080021f0       0x9c /home/ch/RIOT/tests/periph_gpio/bin/p-nucleo-wb55/ztimer_core/core.o
                0x00000000080021f0                ztimer_set
 .text.ztimer_handler
                0x000000000800228c       0x94 /home/ch/RIOT/tests/periph_gpio/bin/p-nucleo-wb55/ztimer_core/core.o
                0x000000000800228c                ztimer_handler
 .text.ztimer_init
                0x0000000008002320       0x24 /home/ch/RIOT/tests/periph_gpio/bin/p-nucleo-wb55/ztimer_core/init.o
                0x0000000008002320                ztimer_init
 .text._ztimer_periph_timer_callback
                0x0000000008002344        0x4 /home/ch/RIOT/tests/periph_gpio/bin/p-nucleo-wb55/ztimer_core/periph_timer.o
 .text._ztimer_periph_timer_cancel
                0x0000000008002348        0x8 /home/ch/RIOT/tests/periph_gpio/bin/p-nucleo-wb55/ztimer_core/periph_timer.o
 .text._ztimer_periph_timer_now
                0x0000000008002350        0x6 /home/ch/RIOT/tests/periph_gpio/bin/p-nucleo-wb55/ztimer_core/periph_timer.o
 .text._ztimer_periph_timer_set
                0x0000000008002356       0x10 /home/ch/RIOT/tests/periph_gpio/bin/p-nucleo-wb55/ztimer_core/periph_timer.o
 *fill*         0x0000000008002366        0x2 
 .text.ztimer_periph_timer_init
                0x0000000008002368       0x44 /home/ch/RIOT/tests/periph_gpio/bin/p-nucleo-wb55/ztimer_core/periph_timer.o
                0x0000000008002368                ztimer_periph_timer_init
 .text.timeout_cb
                0x00000000080023ac        0x4 /home/ch/RIOT/tests/periph_gpio/bin/p-nucleo-wb55/ztimer_core/util.o
 .text.ztimer_mutex_lock_timeout
                0x00000000080023b0       0x68 /home/ch/RIOT/tests/periph_gpio/bin/p-nucleo-wb55/ztimer_core/util.o
                0x00000000080023b0                ztimer_mutex_lock_timeout
 .text          0x0000000008002418       0x30 /usr/lib/gcc/arm-none-eabi/9.2.1/thumb/v7e-m/nofp/libgcc.a(_aeabi_uldivmod.o)
                0x0000000008002418                __aeabi_uldivmod
 .text          0x0000000008002448      0x2c0 /usr/lib/gcc/arm-none-eabi/9.2.1/thumb/v7e-m/nofp/libgcc.a(_udivmoddi4.o)
                0x0000000008002448                __udivmoddi4
 .text          0x0000000008002708        0x4 /usr/lib/gcc/arm-none-eabi/9.2.1/thumb/v7e-m/nofp/libgcc.a(_dvmd_tls.o)
                0x0000000008002708                __aeabi_ldiv0
                0x0000000008002708                __aeabi_idiv0
 .text          0x000000000800270c       0x10 /usr/lib/gcc/arm-none-eabi/9.2.1/../../../arm-none-eabi/lib/thumb/v7e-m/nofp/libc_nano.a(lib_a-atoi.o)
                0x000000000800270c                atoi
                0x0000000008002714                _atoi_r
 .text          0x000000000800271c       0x10 /usr/lib/gcc/arm-none-eabi/9.2.1/../../../arm-none-eabi/lib/thumb/v7e-m/nofp/libc_nano.a(lib_a-atol.o)
                0x000000000800271c                atol
                0x0000000008002724                _atol_r
 .text          0x000000000800272c        0xc /usr/lib/gcc/arm-none-eabi/9.2.1/../../../arm-none-eabi/lib/thumb/v7e-m/nofp/libc_nano.a(lib_a-errno.o)
                0x000000000800272c                __errno
 .text          0x0000000008002738      0x1b0 /usr/lib/gcc/arm-none-eabi/9.2.1/../../../arm-none-eabi/lib/thumb/v7e-m/nofp/libc_nano.a(lib_a-fflush.o)
                0x0000000008002738                __sflush_r
                0x0000000008002864                _fflush_r
                0x00000000080028c4                fflush
 .text          0x00000000080028e8      0x210 /usr/lib/gcc/arm-none-eabi/9.2.1/../../../arm-none-eabi/lib/thumb/v7e-m/nofp/libc_nano.a(lib_a-findfp.o)
                0x00000000080028ec                _cleanup_r
                0x00000000080028fc                __sfmoreglue
                0x000000000800292c                __sfp
                0x0000000008002aa4                _cleanup
                0x0000000008002ab8                __sinit
                0x0000000008002ac0                __sfp_lock_acquire
                0x0000000008002ac4                __sfp_lock_release
                0x0000000008002ac8                __sinit_lock_acquire
                0x0000000008002acc                __sinit_lock_release
                0x0000000008002ad0                __fp_lock_all
                0x0000000008002ae4                __fp_unlock_all
 .text          0x0000000008002af8       0xa0 /usr/lib/gcc/arm-none-eabi/9.2.1/../../../arm-none-eabi/lib/thumb/v7e-m/nofp/libc_nano.a(lib_a-fwalk.o)
                0x0000000008002af8                _fwalk
                0x0000000008002b44                _fwalk_reent
 .text          0x0000000008002b98       0x58 /usr/lib/gcc/arm-none-eabi/9.2.1/../../../arm-none-eabi/lib/thumb/v7e-m/nofp/libc_nano.a(lib_a-getchar.o)
                0x0000000008002b98                _getchar_r
                0x0000000008002bc0                getchar
 .text          0x0000000008002bf0       0x48 /usr/lib/gcc/arm-none-eabi/9.2.1/../../../arm-none-eabi/lib/thumb/v7e-m/nofp/libc_nano.a(lib_a-init.o)
                0x0000000008002bf0                __libc_init_array
 .text          0x0000000008002c38      0x134 /usr/lib/gcc/arm-none-eabi/9.2.1/../../../arm-none-eabi/lib/thumb/v7e-m/nofp/libc_nano.a(lib_a-memcpy.o)
                0x0000000008002c38                memcpy
 .text          0x0000000008002d6c       0xa0 /usr/lib/gcc/arm-none-eabi/9.2.1/../../../arm-none-eabi/lib/thumb/v7e-m/nofp/libc_nano.a(lib_a-memset.o)
                0x0000000008002d6c                memset
 .text          0x0000000008002e0c       0xac /usr/lib/gcc/arm-none-eabi/9.2.1/../../../arm-none-eabi/lib/thumb/v7e-m/nofp/libc_nano.a(lib_a-nano-freer.o)
                0x0000000008002e0c                _free_r
 .text          0x0000000008002eb8       0xc8 /usr/lib/gcc/arm-none-eabi/9.2.1/../../../arm-none-eabi/lib/thumb/v7e-m/nofp/libc_nano.a(lib_a-nano-mallocr.o)
                0x0000000008002eb8                _malloc_r
 .text          0x0000000008002f80       0x68 /usr/lib/gcc/arm-none-eabi/9.2.1/../../../arm-none-eabi/lib/thumb/v7e-m/nofp/libc_nano.a(lib_a-printf.o)
                0x0000000008002f80                _printf_r
                0x0000000008002f80                _iprintf_r
                0x0000000008002fb0                printf
                0x0000000008002fb0                iprintf
 .text          0x0000000008002fe8       0x58 /usr/lib/gcc/arm-none-eabi/9.2.1/../../../arm-none-eabi/lib/thumb/v7e-m/nofp/libc_nano.a(lib_a-putchar.o)
                0x0000000008002fe8                _putchar_r
                0x000000000800300c                putchar
 .text          0x0000000008003040       0xe8 /usr/lib/gcc/arm-none-eabi/9.2.1/../../../arm-none-eabi/lib/thumb/v7e-m/nofp/libc_nano.a(lib_a-puts.o)
                0x0000000008003040                _puts_r
                0x0000000008003118                puts
 .text          0x0000000008003128       0x90 /usr/lib/gcc/arm-none-eabi/9.2.1/../../../arm-none-eabi/lib/thumb/v7e-m/nofp/libc_nano.a(lib_a-stdio.o)
                0x0000000008003128                __sread
                0x000000000800314c                __seofread
                0x0000000008003150                __swrite
                0x0000000008003190                __sseek
                0x00000000080031b0                __sclose
 *fill*         0x00000000080031b8        0x8 
 .text          0x00000000080031c0      0x2dc /usr/lib/gcc/arm-none-eabi/9.2.1/../../../arm-none-eabi/lib/thumb/v7e-m/nofp/libc_nano.a(lib_a-strcmp.o)
                0x00000000080031c8                strcmp
 *fill*         0x000000000800349c       0x24 
 .text          0x00000000080034c0       0xdc /usr/lib/gcc/arm-none-eabi/9.2.1/../../../arm-none-eabi/lib/thumb/v7e-m/nofp/libc_nano.a(lib_a-strlen.o)
                0x00000000080034c0                strlen
 .text          0x000000000800359c      0x160 /usr/lib/gcc/arm-none-eabi/9.2.1/../../../arm-none-eabi/lib/thumb/v7e-m/nofp/libc_nano.a(lib_a-strtol.o)
                0x00000000080036d0                _strtol_r
                0x00000000080036d4                strtol_l
                0x00000000080036e8                strtol
 .text          0x00000000080036fc       0xc0 /usr/lib/gcc/arm-none-eabi/9.2.1/../../../arm-none-eabi/lib/thumb/v7e-m/nofp/libc_nano.a(lib_a-wbuf.o)
                0x00000000080036fc                __swbuf_r
                0x00000000080037ac                __swbuf
 .text          0x00000000080037bc      0x100 /usr/lib/gcc/arm-none-eabi/9.2.1/../../../arm-none-eabi/lib/thumb/v7e-m/nofp/libc_nano.a(lib_a-wsetup.o)
                0x00000000080037bc                __swsetup_r
 .text          0x00000000080038bc       0xdc /usr/lib/gcc/arm-none-eabi/9.2.1/../../../arm-none-eabi/lib/thumb/v7e-m/nofp/libc_nano.a(lib_a-getc.o)
                0x00000000080038bc                _getc_r
                0x0000000008003928                getc
 .text          0x0000000008003998       0xf0 /usr/lib/gcc/arm-none-eabi/9.2.1/../../../arm-none-eabi/lib/thumb/v7e-m/nofp/libc_nano.a(lib_a-makebuf.o)
                0x0000000008003998                __swhatbuf_r
                0x00000000080039f4                __smakebuf_r
 .text          0x0000000008003a88        0x8 /usr/lib/gcc/arm-none-eabi/9.2.1/../../../arm-none-eabi/lib/thumb/v7e-m/nofp/libc_nano.a(lib_a-mlock.o)
                0x0000000008003a88                __malloc_lock
                0x0000000008003a8c                __malloc_unlock
 .text          0x0000000008003a90       0x4c /usr/lib/gcc/arm-none-eabi/9.2.1/../../../arm-none-eabi/lib/thumb/v7e-m/nofp/libc_nano.a(lib_a-nano-reallocr.o)
                0x0000000008003a90                _realloc_r
 .text          0x0000000008003adc      0x360 /usr/lib/gcc/arm-none-eabi/9.2.1/../../../arm-none-eabi/lib/thumb/v7e-m/nofp/libc_nano.a(lib_a-nano-vfprintf.o)
                0x0000000008003b14                __sfputs_r
                0x0000000008003b44                __sprint_r
                0x0000000008003b60                _vfiprintf_r
                0x0000000008003b60                _vfprintf_r
                0x0000000008003e24                vfiprintf
                0x0000000008003e24                vfprintf
 .text          0x0000000008003e3c      0x3c4 /usr/lib/gcc/arm-none-eabi/9.2.1/../../../arm-none-eabi/lib/thumb/v7e-m/nofp/libc_nano.a(lib_a-nano-vfprintf_i.o)
                0x0000000008003e3c                _printf_common
                0x0000000008003f68                _printf_i
 .text          0x0000000008004200      0x10c /usr/lib/gcc/arm-none-eabi/9.2.1/../../../arm-none-eabi/lib/thumb/v7e-m/nofp/libc_nano.a(lib_a-putc.o)
                0x0000000008004200                _putc_r
                0x0000000008004280                putc
 .text          0x000000000800430c       0x70 /usr/lib/gcc/arm-none-eabi/9.2.1/../../../arm-none-eabi/lib/thumb/v7e-m/nofp/libc_nano.a(lib_a-rget.o)
                0x000000000800430c                __srget_r
                0x000000000800436c                __srget
 .text          0x000000000800437c      0x308 /usr/lib/gcc/arm-none-eabi/9.2.1/../../../arm-none-eabi/lib/thumb/v7e-m/nofp/libc_nano.a(lib_a-fvwrite.o)
                0x000000000800437c                __sfvwrite_r
 *fill*         0x0000000008004684        0xc 
 .text          0x0000000008004690       0xa0 /usr/lib/gcc/arm-none-eabi/9.2.1/../../../arm-none-eabi/lib/thumb/v7e-m/nofp/libc_nano.a(lib_a-memchr.o)
                0x0000000008004690                memchr
 .text          0x0000000008004730       0xd0 /usr/lib/gcc/arm-none-eabi/9.2.1/../../../arm-none-eabi/lib/thumb/v7e-m/nofp/libc_nano.a(lib_a-memmove.o)
                0x0000000008004730                memmove
 .text          0x0000000008004800       0x10 /usr/lib/gcc/arm-none-eabi/9.2.1/../../../arm-none-eabi/lib/thumb/v7e-m/nofp/libc_nano.a(lib_a-nano-msizer.o)
                0x0000000008004800                _malloc_usable_size_r
 .text          0x0000000008004810      0x144 /usr/lib/gcc/arm-none-eabi/9.2.1/../../../arm-none-eabi/lib/thumb/v7e-m/nofp/libc_nano.a(lib_a-refill.o)
                0x0000000008004824                __srefill_r
 *(.glue_7t)
 .glue_7t       0x0000000008004954        0x0 linker stubs
 *(.glue_7)
 .glue_7        0x0000000008004954        0x0 linker stubs
 *(.rodata .rodata* .gnu.linkonce.r.*)
 .rodata.cb.str1.1
                0x0000000008004954       0x25 /home/ch/RIOT/tests/periph_gpio/bin/p-nucleo-wb55/application_tests_periph_gpio/main.o
 .rodata.cmd_read.str1.1
                0x0000000008004979       0x4d /home/ch/RIOT/tests/periph_gpio/bin/p-nucleo-wb55/application_tests_periph_gpio/main.o
 .rodata.bench.str1.1
                0x00000000080049c6       0x9e /home/ch/RIOT/tests/periph_gpio/bin/p-nucleo-wb55/application_tests_periph_gpio/main.o
 .rodata.init_int.str1.1
                0x0000000008004a64      0x149 /home/ch/RIOT/tests/periph_gpio/bin/p-nucleo-wb55/application_tests_periph_gpio/main.o
 .rodata.cmd_auto_test.str1.1
                0x0000000008004bad      0x242 /home/ch/RIOT/tests/periph_gpio/bin/p-nucleo-wb55/application_tests_periph_gpio/main.o
 .rodata.enable_int.str1.1
                0x0000000008004def       0x89 /home/ch/RIOT/tests/periph_gpio/bin/p-nucleo-wb55/application_tests_periph_gpio/main.o
 .rodata.init_pin.str1.1
                0x0000000008004e78       0x28 /home/ch/RIOT/tests/periph_gpio/bin/p-nucleo-wb55/application_tests_periph_gpio/main.o
 .rodata.main.str1.1
                0x0000000008004ea0      0x140 /home/ch/RIOT/tests/periph_gpio/bin/p-nucleo-wb55/application_tests_periph_gpio/main.o
 .rodata.str1.1
                0x0000000008004fe0      0x20d /home/ch/RIOT/tests/periph_gpio/bin/p-nucleo-wb55/application_tests_periph_gpio/main.o
                                        0x223 (size before relaxing)
 .rodata.CSWTCH.45
                0x00000000080051ed        0x3 /home/ch/RIOT/tests/periph_gpio/bin/p-nucleo-wb55/application_tests_periph_gpio/main.o
 .rodata.shell_commands
                0x00000000080051f0       0xb4 /home/ch/RIOT/tests/periph_gpio/bin/p-nucleo-wb55/application_tests_periph_gpio/main.o
 .rodata.benchmark_print_time.str1.1
                0x00000000080052a4       0x43 /home/ch/RIOT/tests/periph_gpio/bin/p-nucleo-wb55/benchmark/benchmark.o
 .rodata.main_trampoline.str1.1
                0x00000000080052e7       0x3b /home/ch/RIOT/tests/periph_gpio/bin/p-nucleo-wb55/core/init.o
 .rodata.kernel_init.str1.1
                0x0000000008005322        0x5 /home/ch/RIOT/tests/periph_gpio/bin/p-nucleo-wb55/core/init.o
 .rodata.core_panic.str1.1
                0x0000000008005327       0x2e /home/ch/RIOT/tests/periph_gpio/bin/p-nucleo-wb55/core/panic.o
 .rodata.assert_crash_message
                0x0000000008005355       0x12 /home/ch/RIOT/tests/periph_gpio/bin/p-nucleo-wb55/core/panic.o
                0x0000000008005355                assert_crash_message
 .rodata._unschedule.str1.1
                0x0000000008005367       0x2f /home/ch/RIOT/tests/periph_gpio/bin/p-nucleo-wb55/core/sched.o
 .rodata.panic_arch.str1.1
                0x0000000008005396        0xf /home/ch/RIOT/tests/periph_gpio/bin/p-nucleo-wb55/cortexm_common/panic.o
 .rodata.nmi_default.str1.1
                0x00000000080053a5        0xc /home/ch/RIOT/tests/periph_gpio/bin/p-nucleo-wb55/cortexm_common/vectors_cortexm.o
 .rodata.mem_manage_default.str1.1
                0x00000000080053b1       0x13 /home/ch/RIOT/tests/periph_gpio/bin/p-nucleo-wb55/cortexm_common/vectors_cortexm.o
 .rodata.bus_fault_default.str1.1
                0x00000000080053c4       0x12 /home/ch/RIOT/tests/periph_gpio/bin/p-nucleo-wb55/cortexm_common/vectors_cortexm.o
 .rodata.usage_fault_default.str1.1
                0x00000000080053d6       0x14 /home/ch/RIOT/tests/periph_gpio/bin/p-nucleo-wb55/cortexm_common/vectors_cortexm.o
 .rodata.debug_mon_default.str1.1
                0x00000000080053ea       0x12 /home/ch/RIOT/tests/periph_gpio/bin/p-nucleo-wb55/cortexm_common/vectors_cortexm.o
 .rodata.dummy_handler_default.str1.1
                0x00000000080053fc        0xe /home/ch/RIOT/tests/periph_gpio/bin/p-nucleo-wb55/cortexm_common/vectors_cortexm.o
 .rodata.hard_fault_handler.str1.1
                0x000000000800540a      0x233 /home/ch/RIOT/tests/periph_gpio/bin/p-nucleo-wb55/cortexm_common/vectors_cortexm.o
 .rodata.apbmul
                0x000000000800563d        0x3 /home/ch/RIOT/tests/periph_gpio/bin/p-nucleo-wb55/cpu/cpu_common.o
 .rodata.timer_config
                0x0000000008005640       0x10 /home/ch/RIOT/tests/periph_gpio/bin/p-nucleo-wb55/periph/timer.o
 .rodata.uart_config
                0x0000000008005650       0x38 /home/ch/RIOT/tests/periph_gpio/bin/p-nucleo-wb55/periph/uart.o
 .rodata._print_usage.str1.1
                0x0000000008005688       0xf3 /home/ch/RIOT/tests/periph_gpio/bin/p-nucleo-wb55/shell_commands/sc_pm.o
 .rodata.parse_mode.str1.1
                0x000000000800577b       0x28 /home/ch/RIOT/tests/periph_gpio/bin/p-nucleo-wb55/shell_commands/sc_pm.o
 .rodata._pm_handler.str1.1
                0x00000000080057a3      0x154 /home/ch/RIOT/tests/periph_gpio/bin/p-nucleo-wb55/shell_commands/sc_pm.o
                                        0x15e (size before relaxing)
 .rodata._version_handler.str1.1
                0x00000000080058f7       0x19 /home/ch/RIOT/tests/periph_gpio/bin/p-nucleo-wb55/shell_commands/sc_sys.o
 .rodata.str1.1
                0x0000000008005910       0x61 /home/ch/RIOT/tests/periph_gpio/bin/p-nucleo-wb55/shell_commands/shell_commands.o
 *fill*         0x0000000008005971        0x3 
 .rodata._shell_command_list
                0x0000000008005974       0x30 /home/ch/RIOT/tests/periph_gpio/bin/p-nucleo-wb55/shell_commands/shell_commands.o
                0x0000000008005974                _shell_command_list
 .rodata.print_commands.str1.1
                0x00000000080059a4        0xa /home/ch/RIOT/tests/periph_gpio/bin/p-nucleo-wb55/shell/shell.o
 .rodata.shell_run_once.str1.1
                0x00000000080059ae       0xa9 /home/ch/RIOT/tests/periph_gpio/bin/p-nucleo-wb55/shell/shell.o
 *fill*         0x0000000008005a57        0x1 
 .rodata.ZTIMER_USEC
                0x0000000008005a58        0x4 /home/ch/RIOT/tests/periph_gpio/bin/p-nucleo-wb55/ztimer_core/init.o
                0x0000000008005a58                ZTIMER_USEC
 .rodata._ztimer_periph_timer_ops
                0x0000000008005a5c        0xc /home/ch/RIOT/tests/periph_gpio/bin/p-nucleo-wb55/ztimer_core/periph_timer.o
 .rodata        0x0000000008005a68       0x60 /usr/lib/gcc/arm-none-eabi/9.2.1/../../../arm-none-eabi/lib/thumb/v7e-m/nofp/libc_nano.a(lib_a-findfp.o)
                0x0000000008005a68                __sf_fake_stderr
                0x0000000008005a88                __sf_fake_stdout
                0x0000000008005aa8                __sf_fake_stdin
 .rodata        0x0000000008005ac8        0x4 /usr/lib/gcc/arm-none-eabi/9.2.1/../../../arm-none-eabi/lib/thumb/v7e-m/nofp/libc_nano.a(lib_a-impure.o)
                0x0000000008005ac8                _global_impure_ptr
 .rodata        0x0000000008005acc      0x101 /usr/lib/gcc/arm-none-eabi/9.2.1/../../../arm-none-eabi/lib/thumb/v7e-m/nofp/libc_nano.a(lib_a-ctype_.o)
                0x0000000008005acc                _ctype_
 *fill*         0x0000000008005bcd        0x3 
 .rodata.str1.4
                0x0000000008005bd0       0x13 /usr/lib/gcc/arm-none-eabi/9.2.1/../../../arm-none-eabi/lib/thumb/v7e-m/nofp/libc_nano.a(lib_a-nano-vfprintf.o)
 *fill*         0x0000000008005be3        0x1 
 .rodata.str1.4
                0x0000000008005be4       0x25 /usr/lib/gcc/arm-none-eabi/9.2.1/../../../arm-none-eabi/lib/thumb/v7e-m/nofp/libc_nano.a(lib_a-nano-vfprintf_i.o)
 *(SORT_BY_NAME(.roxfa.*))
 *fill*         0x0000000008005c09        0x3 
 .roxfa.shell_commands_xfa.0_
                0x0000000008005c0c        0x0 /home/ch/RIOT/tests/periph_gpio/bin/p-nucleo-wb55/shell/shell.o
                0x0000000008005c0c                shell_commands_xfa
 .roxfa.shell_commands_xfa.9_
                0x0000000008005c0c        0x0 /home/ch/RIOT/tests/periph_gpio/bin/p-nucleo-wb55/shell/shell.o
                0x0000000008005c0c                shell_commands_xfa_end
 *(.ARM.extab* .gnu.linkonce.armextab.*)
                0x0000000008005c0c                . = ALIGN (0x4)
 *(.init)
                0x0000000008005c0c                . = ALIGN (0x4)
                0x0000000008005c0c                __preinit_array_start = .
 *(.preinit_array)
                0x0000000008005c0c                __preinit_array_end = .
                0x0000000008005c0c                . = ALIGN (0x4)
                0x0000000008005c0c                __init_array_start = .
 *(SORT_BY_NAME(.init_array.*))
 *(.init_array)
                0x0000000008005c0c                __init_array_end = .
                0x0000000008005c0c                . = ALIGN (0x4)
 *crtbegin.o(.ctors)
 *(EXCLUDE_FILE(*crtend.o) .ctors)
 *(SORT_BY_NAME(.ctors.*))
 *crtend.o(.ctors)
                0x0000000008005c0c                . = ALIGN (0x4)
 *(.fini)
                0x0000000008005c0c                . = ALIGN (0x4)
                0x0000000008005c0c                __fini_array_start = .
 *(.fini_array)
 *(SORT_BY_NAME(.fini_array.*))
                0x0000000008005c0c                __fini_array_end = .
 *crtbegin.o(.dtors)
 *(EXCLUDE_FILE(*crtend.o) .dtors)
 *(SORT_BY_NAME(.dtors.*))
 *crtend.o(.dtors)
                0x0000000008005c0c                . = ALIGN (0x4)
                0x0000000008005c0c                _efixed = .

.vfp11_veneer   0x0000000008005c0c        0x0
 .vfp11_veneer  0x0000000008005c0c        0x0 linker stubs

.v4_bx          0x0000000008005c0c        0x0
 .v4_bx         0x0000000008005c0c        0x0 linker stubs

.iplt           0x0000000008005c0c        0x0
 .iplt          0x0000000008005c0c        0x0 /home/ch/RIOT/tests/periph_gpio/bin/p-nucleo-wb55/application_tests_periph_gpio/main.o

.igot.plt       0x0000000008005c0c        0x0
 .igot.plt      0x0000000008005c0c        0x0 /home/ch/RIOT/tests/periph_gpio/bin/p-nucleo-wb55/application_tests_periph_gpio/main.o

.tdata          0x0000000008005c0c        0x0
                0x0000000008005c0c                __tdata_start = .
 *(.tdata .tdata.* .gnu.linkonce.td.*)
                0x0000000008005c0c                __tdata_end = .
                0x0000000008005c0c                __tdata_source = LOADADDR (.tdata)
                0x0000000000000000                __tdata_size = SIZEOF (.tdata)

.tbss           0x0000000008005c0c        0x0
 *(.tbss .tbss.* .gnu.linkonce.tb.*)
 *(.tcommon)
                0x0000000008005c0c                __tbss_end = .
                0x0000000000000000                __tls_size = (__tbss_end - __tdata_start)
                0x0000000000000000                __tbss_size = (__tls_size - __tdata_size)
                [!provide]                        PROVIDE (__exidx_start = .)

.ARM.exidx      0x0000000008005c0c        0x8
 *(.ARM.exidx* .gnu.linkonce.armexidx.*)
 .ARM.exidx     0x0000000008005c0c        0x8 /usr/lib/gcc/arm-none-eabi/9.2.1/thumb/v7e-m/nofp/libgcc.a(_udivmoddi4.o)
                [!provide]                        PROVIDE (__exidx_end = .)

.rel.dyn        0x0000000008005c14        0x0
 .rel.iplt      0x0000000008005c14        0x0 /home/ch/RIOT/tests/periph_gpio/bin/p-nucleo-wb55/application_tests_periph_gpio/main.o
                0x0000000008005c14                . = ALIGN (0x4)

.eh_frame
 *(.eh_frame)
                0x0000000008005c14                . = ALIGN (0x4)
                0x0000000008005c14                _etext = .

.stack          0x0000000020000000      0x200
 *(.puf)
                0x0000000020000000                . = ALIGN (0x8)
                0x0000000020000000                _sstack = .
 *(.isr_stack)
 .isr_stack     0x0000000020000000      0x200 /home/ch/RIOT/tests/periph_gpio/bin/p-nucleo-wb55/cortexm_common/vectors_cortexm.o
                0x0000000020000000                isr_stack
                0x0000000020000200                . = ALIGN (0x8)
                0x0000000020000200                _estack = .

.relocate       0x0000000020000200       0xb0 load address 0x0000000008005c14
                0x0000000020000200                . = ALIGN (0x4)
                0x0000000020000200                _srelocate = .
 *(.ramfunc .ramfunc.*)
 *(.data .data.*)
 .data.heap_top
                0x0000000020000200        0x4 /home/ch/RIOT/tests/periph_gpio/bin/p-nucleo-wb55/newlib_syscalls_default/syscalls.o
 .data.pm_blocker
                0x0000000020000204        0x4 /home/ch/RIOT/tests/periph_gpio/bin/p-nucleo-wb55/pm_layered/pm.o
 .data.stdio_uart_isrpipe
                0x0000000020000208       0x14 /home/ch/RIOT/tests/periph_gpio/bin/p-nucleo-wb55/stdio_uart/stdio_uart.o
                0x0000000020000208                stdio_uart_isrpipe
 .data._ztimer_periph_timer
                0x000000002000021c       0x2c /home/ch/RIOT/tests/periph_gpio/bin/p-nucleo-wb55/ztimer_core/init.o
 .data          0x0000000020000248       0x64 /usr/lib/gcc/arm-none-eabi/9.2.1/../../../arm-none-eabi/lib/thumb/v7e-m/nofp/libc_nano.a(lib_a-impure.o)
                0x0000000020000248                _impure_ptr
 *(SORT_BY_NAME(.xfa.*))
 *(.openocd .openocd.*)
 .openocd       0x00000000200002ac        0x2 /home/ch/RIOT/tests/periph_gpio/bin/p-nucleo-wb55/core/sched.o
                0x00000000200002ac                _tcb_name_offset
                0x00000000200002ad                max_threads
                0x00000000200002b0                . = ALIGN (0x4)
 *fill*         0x00000000200002ae        0x2 
                0x00000000200002b0                _erelocate = .

.bss            0x00000000200002b0      0x7c4 load address 0x0000000008005cc4
                0x00000000200002b0                . = ALIGN (0x4)
                0x00000000200002b0                _sbss = .
                0x00000000200002b0                _szero = .
 *(.bss .bss.*)
 .bss.main_stack
                0x00000000200002b0      0x600 /home/ch/RIOT/tests/periph_gpio/bin/p-nucleo-wb55/core/init.o
 .bss.crashed   0x00000000200008b0        0x4 /home/ch/RIOT/tests/periph_gpio/bin/p-nucleo-wb55/core/panic.o
 .bss.runqueue_bitcache
                0x00000000200008b4        0x4 /home/ch/RIOT/tests/periph_gpio/bin/p-nucleo-wb55/core/sched.o
 .bss.sched_active_pid
                0x00000000200008b8        0x2 /home/ch/RIOT/tests/periph_gpio/bin/p-nucleo-wb55/core/sched.o
                0x00000000200008b8                sched_active_pid
 *fill*         0x00000000200008ba        0x2 
 .bss.sched_active_thread
                0x00000000200008bc        0x4 /home/ch/RIOT/tests/periph_gpio/bin/p-nucleo-wb55/core/sched.o
                0x00000000200008bc                sched_active_thread
 .bss.sched_context_switch_request
                0x00000000200008c0        0x4 /home/ch/RIOT/tests/periph_gpio/bin/p-nucleo-wb55/core/sched.o
                0x00000000200008c0                sched_context_switch_request
 .bss.sched_num_threads
                0x00000000200008c4        0x4 /home/ch/RIOT/tests/periph_gpio/bin/p-nucleo-wb55/core/sched.o
                0x00000000200008c4                sched_num_threads
 .bss.sched_runqueues
                0x00000000200008c8       0x40 /home/ch/RIOT/tests/periph_gpio/bin/p-nucleo-wb55/core/sched.o
                0x00000000200008c8                sched_runqueues
 .bss.sched_threads
                0x0000000020000908       0x84 /home/ch/RIOT/tests/periph_gpio/bin/p-nucleo-wb55/core/sched.o
                0x0000000020000908                sched_threads
 .bss.isr_ctx   0x000000002000098c       0x80 /home/ch/RIOT/tests/periph_gpio/bin/p-nucleo-wb55/periph/gpio_all.o
 .bss.isr_ctx   0x0000000020000a0c        0x8 /home/ch/RIOT/tests/periph_gpio/bin/p-nucleo-wb55/periph/timer.o
 .bss.isr_ctx   0x0000000020000a14       0x18 /home/ch/RIOT/tests/periph_gpio/bin/p-nucleo-wb55/periph/uart.o
 .bss._rx_buf_mem
                0x0000000020000a2c       0x40 /home/ch/RIOT/tests/periph_gpio/bin/p-nucleo-wb55/stdio_uart/stdio_uart.o
 .bss           0x0000000020000a6c        0x8 /usr/lib/gcc/arm-none-eabi/9.2.1/../../../arm-none-eabi/lib/thumb/v7e-m/nofp/libc_nano.a(lib_a-nano-mallocr.o)
                0x0000000020000a6c                __malloc_free_list
                0x0000000020000a70                __malloc_sbrk_start
 *(COMMON)
                0x0000000020000a74                . = ALIGN (0x4)
                0x0000000020000a74                _ebss = .
                0x0000000020000a74                _ezero = .

.noinit         0x0000000020000a74        0x0 load address 0x0000000008005cc4
                0x0000000020000a74                __noinit_start = .
 *(.noinit)
                0x0000000020000a74                . = ALIGN (0x4)
                0x0000000020000a74                __noinit_end = .
                0x0000000020000a74                . = ALIGN (0x4)
                0x0000000020000a74                _sheap = .
                0x0000000020030000                _eheap = (ORIGIN (ram) + LENGTH (ram))
                0x0000000020000000                _sram = ORIGIN (ram)
                0x0000000020030000                _eram = (ORIGIN (ram) + LENGTH (ram))
                0x0000000008000000                _srom = ORIGIN (rom)
                0x00000000080ca000                _erom = (ORIGIN (rom) + LENGTH (rom))
                0x0000000008005cc4                _sbackup_data_load = LOADADDR (.backup.data)

.backup.data    0x0000000000000000        0x0 load address 0x0000000008005cc4
                0x0000000000000000                _sbackup_data = .
 *(.backup.data)
                0x0000000000000000                _ebackup_data = .
                0x0000000000000000                . = ALIGN (0x4)

.backup.bss     0x0000000000000000        0x0 load address 0x0000000008005cc4
                0x0000000000000000                _sbackup_bss = .
 *(.backup.bss)
                0x0000000000000000                _ebackup_bss = .
                0x0000000000000000                . = ALIGN (0x4)

.heap3          0x0000000000000000        0x0 load address 0x0000000008005cc4
                0x0000000000000000                _sheap1 = .
                0x0000000000000000                _eheap1 = (ORIGIN (bkup_ram) + LENGTH (bkup_ram))

.end_fw         0x0000000008005cc4        0x0
                0x0000000008005cc4                _end_fw = .
OUTPUT(/home/ch/RIOT/tests/periph_gpio/bin/p-nucleo-wb55/tests_periph_gpio.elf elf32-littlearm)
LOAD linker stubs

.debug_info     0x0000000000000000    0x500c3
 .debug_info    0x0000000000000000     0x2e76 /home/ch/RIOT/tests/periph_gpio/bin/p-nucleo-wb55/application_tests_periph_gpio/main.o
 .debug_info    0x0000000000002e76      0xd3f /home/ch/RIOT/tests/periph_gpio/bin/p-nucleo-wb55/auto_init/auto_init.o
 .debug_info    0x0000000000003bb5      0xf17 /home/ch/RIOT/tests/periph_gpio/bin/p-nucleo-wb55/benchmark/benchmark.o
 .debug_info    0x0000000000004acc     0x15e3 /home/ch/RIOT/tests/periph_gpio/bin/p-nucleo-wb55/boards_common_nucleo/board_common_nucleo_init.o
 .debug_info    0x00000000000060af      0xe90 /home/ch/RIOT/tests/periph_gpio/bin/p-nucleo-wb55/core/init.o
 .debug_info    0x0000000000006f3f     0x1b99 /home/ch/RIOT/tests/periph_gpio/bin/p-nucleo-wb55/core/mutex.o
 .debug_info    0x0000000000008ad8      0xf0b /home/ch/RIOT/tests/periph_gpio/bin/p-nucleo-wb55/core/panic.o
 .debug_info    0x00000000000099e3     0x14b1 /home/ch/RIOT/tests/periph_gpio/bin/p-nucleo-wb55/core/sched.o
 .debug_info    0x000000000000ae94     0x1e7a /home/ch/RIOT/tests/periph_gpio/bin/p-nucleo-wb55/core/thread.o
 .debug_info    0x000000000000cd0e     0x139e /home/ch/RIOT/tests/periph_gpio/bin/p-nucleo-wb55/cortexm_common/cortexm_init.o
 .debug_info    0x000000000000e0ac      0xd6b /home/ch/RIOT/tests/periph_gpio/bin/p-nucleo-wb55/cortexm_common/panic.o
 .debug_info    0x000000000000ee17      0xea9 /home/ch/RIOT/tests/periph_gpio/bin/p-nucleo-wb55/cortexm_common_periph/pm.o
 .debug_info    0x000000000000fcc0     0x12a1 /home/ch/RIOT/tests/periph_gpio/bin/p-nucleo-wb55/cortexm_common/thread_arch.o
 .debug_info    0x0000000000010f61     0x1f87 /home/ch/RIOT/tests/periph_gpio/bin/p-nucleo-wb55/cortexm_common/vectors_cortexm.o
 .debug_info    0x0000000000012ee8     0x19fd /home/ch/RIOT/tests/periph_gpio/bin/p-nucleo-wb55/cpu/cpu_common.o
 .debug_info    0x00000000000148e5     0x1602 /home/ch/RIOT/tests/periph_gpio/bin/p-nucleo-wb55/cpu/cpu_init.o
 .debug_info    0x0000000000015ee7      0x837 /home/ch/RIOT/tests/periph_gpio/bin/p-nucleo-wb55/isrpipe/isrpipe.o
 .debug_info    0x000000000001671e     0x21de /home/ch/RIOT/tests/periph_gpio/bin/p-nucleo-wb55/newlib_syscalls_default/syscalls.o
 .debug_info    0x00000000000188fc      0xc8e /home/ch/RIOT/tests/periph_gpio/bin/p-nucleo-wb55/periph_common/init.o
 .debug_info    0x000000000001958a     0x16cd /home/ch/RIOT/tests/periph_gpio/bin/p-nucleo-wb55/periph_common/timer.o
 .debug_info    0x000000000001ac57     0x27bb /home/ch/RIOT/tests/periph_gpio/bin/p-nucleo-wb55/periph/gpio_all.o
 .debug_info    0x000000000001d412     0x11e0 /home/ch/RIOT/tests/periph_gpio/bin/p-nucleo-wb55/periph/pm.o
 .debug_info    0x000000000001e5f2     0x1ed5 /home/ch/RIOT/tests/periph_gpio/bin/p-nucleo-wb55/periph/timer.o
 .debug_info    0x00000000000204c7     0x268b /home/ch/RIOT/tests/periph_gpio/bin/p-nucleo-wb55/periph/uart.o
 .debug_info    0x0000000000022b52     0x11b7 /home/ch/RIOT/tests/periph_gpio/bin/p-nucleo-wb55/pm_layered/pm.o
 .debug_info    0x0000000000023d09     0x13ab /home/ch/RIOT/tests/periph_gpio/bin/p-nucleo-wb55/shell_commands/sc_pm.o
 .debug_info    0x00000000000250b4      0xd3c /home/ch/RIOT/tests/periph_gpio/bin/p-nucleo-wb55/shell_commands/sc_sys.o
 .debug_info    0x0000000000025df0      0xd18 /home/ch/RIOT/tests/periph_gpio/bin/p-nucleo-wb55/shell_commands/shell_commands.o
 .debug_info    0x0000000000026b08     0x1721 /home/ch/RIOT/tests/periph_gpio/bin/p-nucleo-wb55/shell/shell.o
 .debug_info    0x0000000000028229     0x1966 /home/ch/RIOT/tests/periph_gpio/bin/p-nucleo-wb55/stdio_uart/stdio_uart.o
 .debug_info    0x0000000000029b8f     0x1abb /home/ch/RIOT/tests/periph_gpio/bin/p-nucleo-wb55/stm32_clk/stmclk_common.o
 .debug_info    0x000000000002b64a     0x1bae /home/ch/RIOT/tests/periph_gpio/bin/p-nucleo-wb55/stm32_clk/stmclk_l4wx.o
 .debug_info    0x000000000002d1f8      0x2b8 /home/ch/RIOT/tests/periph_gpio/bin/p-nucleo-wb55/stm32_vectors/STM32WB55xx.o
 .debug_info    0x000000000002d4b0     0x1249 /home/ch/RIOT/tests/periph_gpio/bin/p-nucleo-wb55/tsrb/tsrb.o
 .debug_info    0x000000000002e6f9     0x1db7 /home/ch/RIOT/tests/periph_gpio/bin/p-nucleo-wb55/ztimer_core/core.o
 .debug_info    0x00000000000304b0     0x17af /home/ch/RIOT/tests/periph_gpio/bin/p-nucleo-wb55/ztimer_core/init.o
 .debug_info    0x0000000000031c5f     0x1a2c /home/ch/RIOT/tests/periph_gpio/bin/p-nucleo-wb55/ztimer_core/periph_timer.o
 .debug_info    0x000000000003368b     0x1c80 /home/ch/RIOT/tests/periph_gpio/bin/p-nucleo-wb55/ztimer_core/util.o
 .debug_info    0x000000000003530b       0x26 /usr/lib/gcc/arm-none-eabi/9.2.1/thumb/v7e-m/nofp/libgcc.a(_aeabi_uldivmod.o)
 .debug_info    0x0000000000035331      0xd7c /usr/lib/gcc/arm-none-eabi/9.2.1/thumb/v7e-m/nofp/libgcc.a(_udivmoddi4.o)
 .debug_info    0x00000000000360ad       0x26 /usr/lib/gcc/arm-none-eabi/9.2.1/thumb/v7e-m/nofp/libgcc.a(_dvmd_tls.o)
 .debug_info    0x00000000000360d3      0x9d9 /usr/lib/gcc/arm-none-eabi/9.2.1/../../../arm-none-eabi/lib/thumb/v7e-m/nofp/libc_nano.a(lib_a-atoi.o)
 .debug_info    0x0000000000036aac      0x9d9 /usr/lib/gcc/arm-none-eabi/9.2.1/../../../arm-none-eabi/lib/thumb/v7e-m/nofp/libc_nano.a(lib_a-atol.o)
 .debug_info    0x0000000000037485      0x953 /usr/lib/gcc/arm-none-eabi/9.2.1/../../../arm-none-eabi/lib/thumb/v7e-m/nofp/libc_nano.a(lib_a-errno.o)
 .debug_info    0x0000000000037dd8      0xd73 /usr/lib/gcc/arm-none-eabi/9.2.1/../../../arm-none-eabi/lib/thumb/v7e-m/nofp/libc_nano.a(lib_a-fflush.o)
 .debug_info    0x0000000000038b4b     0x11a8 /usr/lib/gcc/arm-none-eabi/9.2.1/../../../arm-none-eabi/lib/thumb/v7e-m/nofp/libc_nano.a(lib_a-findfp.o)
 .debug_info    0x0000000000039cf3      0xca4 /usr/lib/gcc/arm-none-eabi/9.2.1/../../../arm-none-eabi/lib/thumb/v7e-m/nofp/libc_nano.a(lib_a-fwalk.o)
 .debug_info    0x000000000003a997      0xbc9 /usr/lib/gcc/arm-none-eabi/9.2.1/../../../arm-none-eabi/lib/thumb/v7e-m/nofp/libc_nano.a(lib_a-getchar.o)
 .debug_info    0x000000000003b560      0x92a /usr/lib/gcc/arm-none-eabi/9.2.1/../../../arm-none-eabi/lib/thumb/v7e-m/nofp/libc_nano.a(lib_a-impure.o)
 .debug_info    0x000000000003be8a      0x11a /usr/lib/gcc/arm-none-eabi/9.2.1/../../../arm-none-eabi/lib/thumb/v7e-m/nofp/libc_nano.a(lib_a-init.o)
 .debug_info    0x000000000003bfa4       0x26 /usr/lib/gcc/arm-none-eabi/9.2.1/../../../arm-none-eabi/lib/thumb/v7e-m/nofp/libc_nano.a(lib_a-memcpy.o)
 .debug_info    0x000000000003bfca      0xf21 /usr/lib/gcc/arm-none-eabi/9.2.1/../../../arm-none-eabi/lib/thumb/v7e-m/nofp/libc_nano.a(lib_a-memset.o)
 .debug_info    0x000000000003ceeb      0xb85 /usr/lib/gcc/arm-none-eabi/9.2.1/../../../arm-none-eabi/lib/thumb/v7e-m/nofp/libc_nano.a(lib_a-nano-freer.o)
 .debug_info    0x000000000003da70      0xc5a /usr/lib/gcc/arm-none-eabi/9.2.1/../../../arm-none-eabi/lib/thumb/v7e-m/nofp/libc_nano.a(lib_a-nano-mallocr.o)
 .debug_info    0x000000000003e6ca      0xc67 /usr/lib/gcc/arm-none-eabi/9.2.1/../../../arm-none-eabi/lib/thumb/v7e-m/nofp/libc_nano.a(lib_a-printf.o)
 .debug_info    0x000000000003f331      0xbf0 /usr/lib/gcc/arm-none-eabi/9.2.1/../../../arm-none-eabi/lib/thumb/v7e-m/nofp/libc_nano.a(lib_a-putchar.o)
 .debug_info    0x000000000003ff21      0xd13 /usr/lib/gcc/arm-none-eabi/9.2.1/../../../arm-none-eabi/lib/thumb/v7e-m/nofp/libc_nano.a(lib_a-puts.o)
 .debug_info    0x0000000000040c34      0xe67 /usr/lib/gcc/arm-none-eabi/9.2.1/../../../arm-none-eabi/lib/thumb/v7e-m/nofp/libc_nano.a(lib_a-stdio.o)
 .debug_info    0x0000000000041a9b       0x26 /usr/lib/gcc/arm-none-eabi/9.2.1/../../../arm-none-eabi/lib/thumb/v7e-m/nofp/libc_nano.a(lib_a-strcmp.o)
 .debug_info    0x0000000000041ac1       0x26 /usr/lib/gcc/arm-none-eabi/9.2.1/../../../arm-none-eabi/lib/thumb/v7e-m/nofp/libc_nano.a(lib_a-strlen.o)
 .debug_info    0x0000000000041ae7     0x126b /usr/lib/gcc/arm-none-eabi/9.2.1/../../../arm-none-eabi/lib/thumb/v7e-m/nofp/libc_nano.a(lib_a-strtol.o)
 .debug_info    0x0000000000042d52      0xc90 /usr/lib/gcc/arm-none-eabi/9.2.1/../../../arm-none-eabi/lib/thumb/v7e-m/nofp/libc_nano.a(lib_a-wbuf.o)
 .debug_info    0x00000000000439e2      0xbfa /usr/lib/gcc/arm-none-eabi/9.2.1/../../../arm-none-eabi/lib/thumb/v7e-m/nofp/libc_nano.a(lib_a-wsetup.o)
 .debug_info    0x00000000000445dc      0xe91 /usr/lib/gcc/arm-none-eabi/9.2.1/../../../arm-none-eabi/lib/thumb/v7e-m/nofp/libc_nano.a(lib_a-ctype_.o)
 .debug_info    0x000000000004546d      0xc43 /usr/lib/gcc/arm-none-eabi/9.2.1/../../../arm-none-eabi/lib/thumb/v7e-m/nofp/libc_nano.a(lib_a-getc.o)
 .debug_info    0x00000000000460b0      0xf68 /usr/lib/gcc/arm-none-eabi/9.2.1/../../../arm-none-eabi/lib/thumb/v7e-m/nofp/libc_nano.a(lib_a-makebuf.o)
 .debug_info    0x0000000000047018      0x961 /usr/lib/gcc/arm-none-eabi/9.2.1/../../../arm-none-eabi/lib/thumb/v7e-m/nofp/libc_nano.a(lib_a-mlock.o)
 .debug_info    0x0000000000047979      0xb77 /usr/lib/gcc/arm-none-eabi/9.2.1/../../../arm-none-eabi/lib/thumb/v7e-m/nofp/libc_nano.a(lib_a-nano-reallocr.o)
 .debug_info    0x00000000000484f0     0x176a /usr/lib/gcc/arm-none-eabi/9.2.1/../../../arm-none-eabi/lib/thumb/v7e-m/nofp/libc_nano.a(lib_a-nano-vfprintf.o)
 .debug_info    0x0000000000049c5a     0x1592 /usr/lib/gcc/arm-none-eabi/9.2.1/../../../arm-none-eabi/lib/thumb/v7e-m/nofp/libc_nano.a(lib_a-nano-vfprintf_i.o)
 .debug_info    0x000000000004b1ec      0xd09 /usr/lib/gcc/arm-none-eabi/9.2.1/../../../arm-none-eabi/lib/thumb/v7e-m/nofp/libc_nano.a(lib_a-putc.o)
 .debug_info    0x000000000004bef5      0xc12 /usr/lib/gcc/arm-none-eabi/9.2.1/../../../arm-none-eabi/lib/thumb/v7e-m/nofp/libc_nano.a(lib_a-rget.o)
 .debug_info    0x000000000004cb07      0xeed /usr/lib/gcc/arm-none-eabi/9.2.1/../../../arm-none-eabi/lib/thumb/v7e-m/nofp/libc_nano.a(lib_a-fvwrite.o)
 .debug_info    0x000000000004d9f4       0x26 /usr/lib/gcc/arm-none-eabi/9.2.1/../../../arm-none-eabi/lib/thumb/v7e-m/nofp/libc_nano.a(lib_a-memchr.o)
 .debug_info    0x000000000004da1a      0xf2b /usr/lib/gcc/arm-none-eabi/9.2.1/../../../arm-none-eabi/lib/thumb/v7e-m/nofp/libc_nano.a(lib_a-memmove.o)
 .debug_info    0x000000000004e945      0xaa6 /usr/lib/gcc/arm-none-eabi/9.2.1/../../../arm-none-eabi/lib/thumb/v7e-m/nofp/libc_nano.a(lib_a-nano-msizer.o)
 .debug_info    0x000000000004f3eb      0xcd8 /usr/lib/gcc/arm-none-eabi/9.2.1/../../../arm-none-eabi/lib/thumb/v7e-m/nofp/libc_nano.a(lib_a-refill.o)

.debug_abbrev   0x0000000000000000     0xd83c
 .debug_abbrev  0x0000000000000000      0x4b2 /home/ch/RIOT/tests/periph_gpio/bin/p-nucleo-wb55/application_tests_periph_gpio/main.o
 .debug_abbrev  0x00000000000004b2      0x231 /home/ch/RIOT/tests/periph_gpio/bin/p-nucleo-wb55/auto_init/auto_init.o
 .debug_abbrev  0x00000000000006e3      0x2cd /home/ch/RIOT/tests/periph_gpio/bin/p-nucleo-wb55/benchmark/benchmark.o
 .debug_abbrev  0x00000000000009b0      0x2d4 /home/ch/RIOT/tests/periph_gpio/bin/p-nucleo-wb55/boards_common_nucleo/board_common_nucleo_init.o
 .debug_abbrev  0x0000000000000c84      0x32c /home/ch/RIOT/tests/periph_gpio/bin/p-nucleo-wb55/core/init.o
 .debug_abbrev  0x0000000000000fb0      0x40d /home/ch/RIOT/tests/periph_gpio/bin/p-nucleo-wb55/core/mutex.o
 .debug_abbrev  0x00000000000013bd      0x364 /home/ch/RIOT/tests/periph_gpio/bin/p-nucleo-wb55/core/panic.o
 .debug_abbrev  0x0000000000001721      0x4d7 /home/ch/RIOT/tests/periph_gpio/bin/p-nucleo-wb55/core/sched.o
 .debug_abbrev  0x0000000000001bf8      0x532 /home/ch/RIOT/tests/periph_gpio/bin/p-nucleo-wb55/core/thread.o
 .debug_abbrev  0x000000000000212a      0x3b5 /home/ch/RIOT/tests/periph_gpio/bin/p-nucleo-wb55/cortexm_common/cortexm_init.o
 .debug_abbrev  0x00000000000024df      0x2fe /home/ch/RIOT/tests/periph_gpio/bin/p-nucleo-wb55/cortexm_common/panic.o
 .debug_abbrev  0x00000000000027dd      0x2cc /home/ch/RIOT/tests/periph_gpio/bin/p-nucleo-wb55/cortexm_common_periph/pm.o
 .debug_abbrev  0x0000000000002aa9      0x48e /home/ch/RIOT/tests/periph_gpio/bin/p-nucleo-wb55/cortexm_common/thread_arch.o
 .debug_abbrev  0x0000000000002f37      0x4a6 /home/ch/RIOT/tests/periph_gpio/bin/p-nucleo-wb55/cortexm_common/vectors_cortexm.o
 .debug_abbrev  0x00000000000033dd      0x37d /home/ch/RIOT/tests/periph_gpio/bin/p-nucleo-wb55/cpu/cpu_common.o
 .debug_abbrev  0x000000000000375a      0x2ee /home/ch/RIOT/tests/periph_gpio/bin/p-nucleo-wb55/cpu/cpu_init.o
 .debug_abbrev  0x0000000000003a48      0x2ea /home/ch/RIOT/tests/periph_gpio/bin/p-nucleo-wb55/isrpipe/isrpipe.o
 .debug_abbrev  0x0000000000003d32      0x533 /home/ch/RIOT/tests/periph_gpio/bin/p-nucleo-wb55/newlib_syscalls_default/syscalls.o
 .debug_abbrev  0x0000000000004265      0x26a /home/ch/RIOT/tests/periph_gpio/bin/p-nucleo-wb55/periph_common/init.o
 .debug_abbrev  0x00000000000044cf      0x3a8 /home/ch/RIOT/tests/periph_gpio/bin/p-nucleo-wb55/periph_common/timer.o
 .debug_abbrev  0x0000000000004877      0x502 /home/ch/RIOT/tests/periph_gpio/bin/p-nucleo-wb55/periph/gpio_all.o
 .debug_abbrev  0x0000000000004d79      0x3cc /home/ch/RIOT/tests/periph_gpio/bin/p-nucleo-wb55/periph/pm.o
 .debug_abbrev  0x0000000000005145      0x47e /home/ch/RIOT/tests/periph_gpio/bin/p-nucleo-wb55/periph/timer.o
 .debug_abbrev  0x00000000000055c3      0x52b /home/ch/RIOT/tests/periph_gpio/bin/p-nucleo-wb55/periph/uart.o
 .debug_abbrev  0x0000000000005aee      0x3a1 /home/ch/RIOT/tests/periph_gpio/bin/p-nucleo-wb55/pm_layered/pm.o
 .debug_abbrev  0x0000000000005e8f      0x3b5 /home/ch/RIOT/tests/periph_gpio/bin/p-nucleo-wb55/shell_commands/sc_pm.o
 .debug_abbrev  0x0000000000006244      0x2b7 /home/ch/RIOT/tests/periph_gpio/bin/p-nucleo-wb55/shell_commands/sc_sys.o
 .debug_abbrev  0x00000000000064fb      0x25f /home/ch/RIOT/tests/periph_gpio/bin/p-nucleo-wb55/shell_commands/shell_commands.o
 .debug_abbrev  0x000000000000675a      0x576 /home/ch/RIOT/tests/periph_gpio/bin/p-nucleo-wb55/shell/shell.o
 .debug_abbrev  0x0000000000006cd0      0x41a /home/ch/RIOT/tests/periph_gpio/bin/p-nucleo-wb55/stdio_uart/stdio_uart.o
 .debug_abbrev  0x00000000000070ea      0x2fb /home/ch/RIOT/tests/periph_gpio/bin/p-nucleo-wb55/stm32_clk/stmclk_common.o
 .debug_abbrev  0x00000000000073e5      0x39b /home/ch/RIOT/tests/periph_gpio/bin/p-nucleo-wb55/stm32_clk/stmclk_l4wx.o
 .debug_abbrev  0x0000000000007780       0xf4 /home/ch/RIOT/tests/periph_gpio/bin/p-nucleo-wb55/stm32_vectors/STM32WB55xx.o
 .debug_abbrev  0x0000000000007874      0x291 /home/ch/RIOT/tests/periph_gpio/bin/p-nucleo-wb55/tsrb/tsrb.o
 .debug_abbrev  0x0000000000007b05      0x537 /home/ch/RIOT/tests/periph_gpio/bin/p-nucleo-wb55/ztimer_core/core.o
 .debug_abbrev  0x000000000000803c      0x2d6 /home/ch/RIOT/tests/periph_gpio/bin/p-nucleo-wb55/ztimer_core/init.o
 .debug_abbrev  0x0000000000008312      0x3a9 /home/ch/RIOT/tests/periph_gpio/bin/p-nucleo-wb55/ztimer_core/periph_timer.o
 .debug_abbrev  0x00000000000086bb      0x4b6 /home/ch/RIOT/tests/periph_gpio/bin/p-nucleo-wb55/ztimer_core/util.o
 .debug_abbrev  0x0000000000008b71       0x14 /usr/lib/gcc/arm-none-eabi/9.2.1/thumb/v7e-m/nofp/libgcc.a(_aeabi_uldivmod.o)
 .debug_abbrev  0x0000000000008b85      0x1c2 /usr/lib/gcc/arm-none-eabi/9.2.1/thumb/v7e-m/nofp/libgcc.a(_udivmoddi4.o)
 .debug_abbrev  0x0000000000008d47       0x14 /usr/lib/gcc/arm-none-eabi/9.2.1/thumb/v7e-m/nofp/libgcc.a(_dvmd_tls.o)
 .debug_abbrev  0x0000000000008d5b      0x1d6 /usr/lib/gcc/arm-none-eabi/9.2.1/../../../arm-none-eabi/lib/thumb/v7e-m/nofp/libc_nano.a(lib_a-atoi.o)
 .debug_abbrev  0x0000000000008f31      0x1d6 /usr/lib/gcc/arm-none-eabi/9.2.1/../../../arm-none-eabi/lib/thumb/v7e-m/nofp/libc_nano.a(lib_a-atol.o)
 .debug_abbrev  0x0000000000009107      0x198 /usr/lib/gcc/arm-none-eabi/9.2.1/../../../arm-none-eabi/lib/thumb/v7e-m/nofp/libc_nano.a(lib_a-errno.o)
 .debug_abbrev  0x000000000000929f      0x2e4 /usr/lib/gcc/arm-none-eabi/9.2.1/../../../arm-none-eabi/lib/thumb/v7e-m/nofp/libc_nano.a(lib_a-fflush.o)
 .debug_abbrev  0x0000000000009583      0x3dc /usr/lib/gcc/arm-none-eabi/9.2.1/../../../arm-none-eabi/lib/thumb/v7e-m/nofp/libc_nano.a(lib_a-findfp.o)
 .debug_abbrev  0x000000000000995f      0x210 /usr/lib/gcc/arm-none-eabi/9.2.1/../../../arm-none-eabi/lib/thumb/v7e-m/nofp/libc_nano.a(lib_a-fwalk.o)
 .debug_abbrev  0x0000000000009b6f      0x276 /usr/lib/gcc/arm-none-eabi/9.2.1/../../../arm-none-eabi/lib/thumb/v7e-m/nofp/libc_nano.a(lib_a-getchar.o)
 .debug_abbrev  0x0000000000009de5      0x17a /usr/lib/gcc/arm-none-eabi/9.2.1/../../../arm-none-eabi/lib/thumb/v7e-m/nofp/libc_nano.a(lib_a-impure.o)
 .debug_abbrev  0x0000000000009f5f       0xcc /usr/lib/gcc/arm-none-eabi/9.2.1/../../../arm-none-eabi/lib/thumb/v7e-m/nofp/libc_nano.a(lib_a-init.o)
 .debug_abbrev  0x000000000000a02b       0x14 /usr/lib/gcc/arm-none-eabi/9.2.1/../../../arm-none-eabi/lib/thumb/v7e-m/nofp/libc_nano.a(lib_a-memcpy.o)
 .debug_abbrev  0x000000000000a03f      0x1d9 /usr/lib/gcc/arm-none-eabi/9.2.1/../../../arm-none-eabi/lib/thumb/v7e-m/nofp/libc_nano.a(lib_a-memset.o)
 .debug_abbrev  0x000000000000a218      0x286 /usr/lib/gcc/arm-none-eabi/9.2.1/../../../arm-none-eabi/lib/thumb/v7e-m/nofp/libc_nano.a(lib_a-nano-freer.o)
 .debug_abbrev  0x000000000000a49e      0x2d1 /usr/lib/gcc/arm-none-eabi/9.2.1/../../../arm-none-eabi/lib/thumb/v7e-m/nofp/libc_nano.a(lib_a-nano-mallocr.o)
 .debug_abbrev  0x000000000000a76f      0x29f /usr/lib/gcc/arm-none-eabi/9.2.1/../../../arm-none-eabi/lib/thumb/v7e-m/nofp/libc_nano.a(lib_a-printf.o)
 .debug_abbrev  0x000000000000aa0e      0x268 /usr/lib/gcc/arm-none-eabi/9.2.1/../../../arm-none-eabi/lib/thumb/v7e-m/nofp/libc_nano.a(lib_a-putchar.o)
 .debug_abbrev  0x000000000000ac76      0x2de /usr/lib/gcc/arm-none-eabi/9.2.1/../../../arm-none-eabi/lib/thumb/v7e-m/nofp/libc_nano.a(lib_a-puts.o)
 .debug_abbrev  0x000000000000af54      0x26f /usr/lib/gcc/arm-none-eabi/9.2.1/../../../arm-none-eabi/lib/thumb/v7e-m/nofp/libc_nano.a(lib_a-stdio.o)
 .debug_abbrev  0x000000000000b1c3       0x14 /usr/lib/gcc/arm-none-eabi/9.2.1/../../../arm-none-eabi/lib/thumb/v7e-m/nofp/libc_nano.a(lib_a-strcmp.o)
 .debug_abbrev  0x000000000000b1d7       0x14 /usr/lib/gcc/arm-none-eabi/9.2.1/../../../arm-none-eabi/lib/thumb/v7e-m/nofp/libc_nano.a(lib_a-strlen.o)
 .debug_abbrev  0x000000000000b1eb      0x2d4 /usr/lib/gcc/arm-none-eabi/9.2.1/../../../arm-none-eabi/lib/thumb/v7e-m/nofp/libc_nano.a(lib_a-strtol.o)
 .debug_abbrev  0x000000000000b4bf      0x285 /usr/lib/gcc/arm-none-eabi/9.2.1/../../../arm-none-eabi/lib/thumb/v7e-m/nofp/libc_nano.a(lib_a-wbuf.o)
 .debug_abbrev  0x000000000000b744      0x23a /usr/lib/gcc/arm-none-eabi/9.2.1/../../../arm-none-eabi/lib/thumb/v7e-m/nofp/libc_nano.a(lib_a-wsetup.o)
 .debug_abbrev  0x000000000000b97e      0x178 /usr/lib/gcc/arm-none-eabi/9.2.1/../../../arm-none-eabi/lib/thumb/v7e-m/nofp/libc_nano.a(lib_a-ctype_.o)
 .debug_abbrev  0x000000000000baf6      0x26d /usr/lib/gcc/arm-none-eabi/9.2.1/../../../arm-none-eabi/lib/thumb/v7e-m/nofp/libc_nano.a(lib_a-getc.o)
 .debug_abbrev  0x000000000000bd63      0x2f6 /usr/lib/gcc/arm-none-eabi/9.2.1/../../../arm-none-eabi/lib/thumb/v7e-m/nofp/libc_nano.a(lib_a-makebuf.o)
 .debug_abbrev  0x000000000000c059      0x1c5 /usr/lib/gcc/arm-none-eabi/9.2.1/../../../arm-none-eabi/lib/thumb/v7e-m/nofp/libc_nano.a(lib_a-mlock.o)
 .debug_abbrev  0x000000000000c21e      0x22a /usr/lib/gcc/arm-none-eabi/9.2.1/../../../arm-none-eabi/lib/thumb/v7e-m/nofp/libc_nano.a(lib_a-nano-reallocr.o)
 .debug_abbrev  0x000000000000c448      0x337 /usr/lib/gcc/arm-none-eabi/9.2.1/../../../arm-none-eabi/lib/thumb/v7e-m/nofp/libc_nano.a(lib_a-nano-vfprintf.o)
 .debug_abbrev  0x000000000000c77f      0x2dc /usr/lib/gcc/arm-none-eabi/9.2.1/../../../arm-none-eabi/lib/thumb/v7e-m/nofp/libc_nano.a(lib_a-nano-vfprintf_i.o)
 .debug_abbrev  0x000000000000ca5b      0x2c1 /usr/lib/gcc/arm-none-eabi/9.2.1/../../../arm-none-eabi/lib/thumb/v7e-m/nofp/libc_nano.a(lib_a-putc.o)
 .debug_abbrev  0x000000000000cd1c      0x251 /usr/lib/gcc/arm-none-eabi/9.2.1/../../../arm-none-eabi/lib/thumb/v7e-m/nofp/libc_nano.a(lib_a-rget.o)
 .debug_abbrev  0x000000000000cf6d      0x270 /usr/lib/gcc/arm-none-eabi/9.2.1/../../../arm-none-eabi/lib/thumb/v7e-m/nofp/libc_nano.a(lib_a-fvwrite.o)
 .debug_abbrev  0x000000000000d1dd       0x14 /usr/lib/gcc/arm-none-eabi/9.2.1/../../../arm-none-eabi/lib/thumb/v7e-m/nofp/libc_nano.a(lib_a-memchr.o)
 .debug_abbrev  0x000000000000d1f1      0x1de /usr/lib/gcc/arm-none-eabi/9.2.1/../../../arm-none-eabi/lib/thumb/v7e-m/nofp/libc_nano.a(lib_a-memmove.o)
 .debug_abbrev  0x000000000000d3cf      0x1e5 /usr/lib/gcc/arm-none-eabi/9.2.1/../../../arm-none-eabi/lib/thumb/v7e-m/nofp/libc_nano.a(lib_a-nano-msizer.o)
 .debug_abbrev  0x000000000000d5b4      0x288 /usr/lib/gcc/arm-none-eabi/9.2.1/../../../arm-none-eabi/lib/thumb/v7e-m/nofp/libc_nano.a(lib_a-refill.o)

.debug_loc      0x0000000000000000     0xe1bb
 .debug_loc     0x0000000000000000     0x11ba /home/ch/RIOT/tests/periph_gpio/bin/p-nucleo-wb55/application_tests_periph_gpio/main.o
 .debug_loc     0x00000000000011ba      0x2a3 /home/ch/RIOT/tests/periph_gpio/bin/p-nucleo-wb55/benchmark/benchmark.o
 .debug_loc     0x000000000000145d       0x2a /home/ch/RIOT/tests/periph_gpio/bin/p-nucleo-wb55/boards_common_nucleo/board_common_nucleo_init.o
 .debug_loc     0x0000000000001487       0x4f /home/ch/RIOT/tests/periph_gpio/bin/p-nucleo-wb55/core/init.o
 .debug_loc     0x00000000000014d6      0x7d2 /home/ch/RIOT/tests/periph_gpio/bin/p-nucleo-wb55/core/mutex.o
 .debug_loc     0x0000000000001ca8       0x86 /home/ch/RIOT/tests/periph_gpio/bin/p-nucleo-wb55/core/panic.o
 .debug_loc     0x0000000000001d2e      0x2ca /home/ch/RIOT/tests/periph_gpio/bin/p-nucleo-wb55/core/sched.o
 .debug_loc     0x0000000000001ff8      0xb20 /home/ch/RIOT/tests/periph_gpio/bin/p-nucleo-wb55/core/thread.o
 .debug_loc     0x0000000000002b18      0x194 /home/ch/RIOT/tests/periph_gpio/bin/p-nucleo-wb55/cortexm_common/cortexm_init.o
 .debug_loc     0x0000000000002cac       0x63 /home/ch/RIOT/tests/periph_gpio/bin/p-nucleo-wb55/cortexm_common/panic.o
 .debug_loc     0x0000000000002d0f       0x2a /home/ch/RIOT/tests/periph_gpio/bin/p-nucleo-wb55/cortexm_common_periph/pm.o
 .debug_loc     0x0000000000002d39      0x243 /home/ch/RIOT/tests/periph_gpio/bin/p-nucleo-wb55/cortexm_common/thread_arch.o
 .debug_loc     0x0000000000002f7c      0x443 /home/ch/RIOT/tests/periph_gpio/bin/p-nucleo-wb55/cortexm_common/vectors_cortexm.o
 .debug_loc     0x00000000000033bf      0x1f5 /home/ch/RIOT/tests/periph_gpio/bin/p-nucleo-wb55/cpu/cpu_common.o
 .debug_loc     0x00000000000035b4       0x2a /home/ch/RIOT/tests/periph_gpio/bin/p-nucleo-wb55/cpu/cpu_init.o
 .debug_loc     0x00000000000035de      0x300 /home/ch/RIOT/tests/periph_gpio/bin/p-nucleo-wb55/isrpipe/isrpipe.o
 .debug_loc     0x00000000000038de      0x52c /home/ch/RIOT/tests/periph_gpio/bin/p-nucleo-wb55/newlib_syscalls_default/syscalls.o
 .debug_loc     0x0000000000003e0a       0x2a /home/ch/RIOT/tests/periph_gpio/bin/p-nucleo-wb55/periph_common/init.o
 .debug_loc     0x0000000000003e34      0x10e /home/ch/RIOT/tests/periph_gpio/bin/p-nucleo-wb55/periph_common/timer.o
 .debug_loc     0x0000000000003f42      0x764 /home/ch/RIOT/tests/periph_gpio/bin/p-nucleo-wb55/periph/gpio_all.o
 .debug_loc     0x00000000000046a6      0x143 /home/ch/RIOT/tests/periph_gpio/bin/p-nucleo-wb55/periph/pm.o
 .debug_loc     0x00000000000047e9      0x432 /home/ch/RIOT/tests/periph_gpio/bin/p-nucleo-wb55/periph/timer.o
 .debug_loc     0x0000000000004c1b      0x5f0 /home/ch/RIOT/tests/periph_gpio/bin/p-nucleo-wb55/periph/uart.o
 .debug_loc     0x000000000000520b      0x26c /home/ch/RIOT/tests/periph_gpio/bin/p-nucleo-wb55/pm_layered/pm.o
 .debug_loc     0x0000000000005477      0x39b /home/ch/RIOT/tests/periph_gpio/bin/p-nucleo-wb55/shell_commands/sc_pm.o
 .debug_loc     0x0000000000005812       0xbe /home/ch/RIOT/tests/periph_gpio/bin/p-nucleo-wb55/shell_commands/sc_sys.o
 .debug_loc     0x00000000000058d0       0x2a /home/ch/RIOT/tests/periph_gpio/bin/p-nucleo-wb55/shell_commands/shell_commands.o
 .debug_loc     0x00000000000058fa      0x7ff /home/ch/RIOT/tests/periph_gpio/bin/p-nucleo-wb55/shell/shell.o
 .debug_loc     0x00000000000060f9      0x187 /home/ch/RIOT/tests/periph_gpio/bin/p-nucleo-wb55/stdio_uart/stdio_uart.o
 .debug_loc     0x0000000000006280       0x2a /home/ch/RIOT/tests/periph_gpio/bin/p-nucleo-wb55/stm32_clk/stmclk_common.o
 .debug_loc     0x00000000000062aa       0x93 /home/ch/RIOT/tests/periph_gpio/bin/p-nucleo-wb55/stm32_clk/stmclk_l4wx.o
 .debug_loc     0x000000000000633d      0xc56 /home/ch/RIOT/tests/periph_gpio/bin/p-nucleo-wb55/tsrb/tsrb.o
 .debug_loc     0x0000000000006f93      0x98c /home/ch/RIOT/tests/periph_gpio/bin/p-nucleo-wb55/ztimer_core/core.o
 .debug_loc     0x000000000000791f       0x2a /home/ch/RIOT/tests/periph_gpio/bin/p-nucleo-wb55/ztimer_core/init.o
 .debug_loc     0x0000000000007949      0x3b1 /home/ch/RIOT/tests/periph_gpio/bin/p-nucleo-wb55/ztimer_core/periph_timer.o
 .debug_loc     0x0000000000007cfa      0x9b3 /home/ch/RIOT/tests/periph_gpio/bin/p-nucleo-wb55/ztimer_core/util.o
 .debug_loc     0x00000000000086ad      0xf8a /usr/lib/gcc/arm-none-eabi/9.2.1/thumb/v7e-m/nofp/libgcc.a(_udivmoddi4.o)
 .debug_loc     0x0000000000009637       0x6f /usr/lib/gcc/arm-none-eabi/9.2.1/../../../arm-none-eabi/lib/thumb/v7e-m/nofp/libc_nano.a(lib_a-atoi.o)
 .debug_loc     0x00000000000096a6       0x6f /usr/lib/gcc/arm-none-eabi/9.2.1/../../../arm-none-eabi/lib/thumb/v7e-m/nofp/libc_nano.a(lib_a-atol.o)
 .debug_loc     0x0000000000009715      0x3f5 /usr/lib/gcc/arm-none-eabi/9.2.1/../../../arm-none-eabi/lib/thumb/v7e-m/nofp/libc_nano.a(lib_a-fflush.o)
 .debug_loc     0x0000000000009b0a      0x339 /usr/lib/gcc/arm-none-eabi/9.2.1/../../../arm-none-eabi/lib/thumb/v7e-m/nofp/libc_nano.a(lib_a-findfp.o)
 .debug_loc     0x0000000000009e43      0x24f /usr/lib/gcc/arm-none-eabi/9.2.1/../../../arm-none-eabi/lib/thumb/v7e-m/nofp/libc_nano.a(lib_a-fwalk.o)
 .debug_loc     0x000000000000a092       0xa5 /usr/lib/gcc/arm-none-eabi/9.2.1/../../../arm-none-eabi/lib/thumb/v7e-m/nofp/libc_nano.a(lib_a-getchar.o)
 .debug_loc     0x000000000000a137       0xba /usr/lib/gcc/arm-none-eabi/9.2.1/../../../arm-none-eabi/lib/thumb/v7e-m/nofp/libc_nano.a(lib_a-init.o)
 .debug_loc     0x000000000000a1f1      0x231 /usr/lib/gcc/arm-none-eabi/9.2.1/../../../arm-none-eabi/lib/thumb/v7e-m/nofp/libc_nano.a(lib_a-memset.o)
 .debug_loc     0x000000000000a422      0x211 /usr/lib/gcc/arm-none-eabi/9.2.1/../../../arm-none-eabi/lib/thumb/v7e-m/nofp/libc_nano.a(lib_a-nano-freer.o)
 .debug_loc     0x000000000000a633      0x437 /usr/lib/gcc/arm-none-eabi/9.2.1/../../../arm-none-eabi/lib/thumb/v7e-m/nofp/libc_nano.a(lib_a-nano-mallocr.o)
 .debug_loc     0x000000000000aa6a       0x98 /usr/lib/gcc/arm-none-eabi/9.2.1/../../../arm-none-eabi/lib/thumb/v7e-m/nofp/libc_nano.a(lib_a-printf.o)
 .debug_loc     0x000000000000ab02      0x13e /usr/lib/gcc/arm-none-eabi/9.2.1/../../../arm-none-eabi/lib/thumb/v7e-m/nofp/libc_nano.a(lib_a-putchar.o)
 .debug_loc     0x000000000000ac40      0x32d /usr/lib/gcc/arm-none-eabi/9.2.1/../../../arm-none-eabi/lib/thumb/v7e-m/nofp/libc_nano.a(lib_a-puts.o)
 .debug_loc     0x000000000000af6d      0x393 /usr/lib/gcc/arm-none-eabi/9.2.1/../../../arm-none-eabi/lib/thumb/v7e-m/nofp/libc_nano.a(lib_a-stdio.o)
 .debug_loc     0x000000000000b300      0x7ad /usr/lib/gcc/arm-none-eabi/9.2.1/../../../arm-none-eabi/lib/thumb/v7e-m/nofp/libc_nano.a(lib_a-strtol.o)
 .debug_loc     0x000000000000baad      0x193 /usr/lib/gcc/arm-none-eabi/9.2.1/../../../arm-none-eabi/lib/thumb/v7e-m/nofp/libc_nano.a(lib_a-wbuf.o)
 .debug_loc     0x000000000000bc40       0xb7 /usr/lib/gcc/arm-none-eabi/9.2.1/../../../arm-none-eabi/lib/thumb/v7e-m/nofp/libc_nano.a(lib_a-wsetup.o)
 .debug_loc     0x000000000000bcf7      0x22c /usr/lib/gcc/arm-none-eabi/9.2.1/../../../arm-none-eabi/lib/thumb/v7e-m/nofp/libc_nano.a(lib_a-getc.o)
 .debug_loc     0x000000000000bf23      0x192 /usr/lib/gcc/arm-none-eabi/9.2.1/../../../arm-none-eabi/lib/thumb/v7e-m/nofp/libc_nano.a(lib_a-makebuf.o)
 .debug_loc     0x000000000000c0b5      0x133 /usr/lib/gcc/arm-none-eabi/9.2.1/../../../arm-none-eabi/lib/thumb/v7e-m/nofp/libc_nano.a(lib_a-nano-reallocr.o)
 .debug_loc     0x000000000000c1e8      0x7a3 /usr/lib/gcc/arm-none-eabi/9.2.1/../../../arm-none-eabi/lib/thumb/v7e-m/nofp/libc_nano.a(lib_a-nano-vfprintf.o)
 .debug_loc     0x000000000000c98b      0x7ab /usr/lib/gcc/arm-none-eabi/9.2.1/../../../arm-none-eabi/lib/thumb/v7e-m/nofp/libc_nano.a(lib_a-nano-vfprintf_i.o)
 .debug_loc     0x000000000000d136      0x400 /usr/lib/gcc/arm-none-eabi/9.2.1/../../../arm-none-eabi/lib/thumb/v7e-m/nofp/libc_nano.a(lib_a-putc.o)
 .debug_loc     0x000000000000d536      0x106 /usr/lib/gcc/arm-none-eabi/9.2.1/../../../arm-none-eabi/lib/thumb/v7e-m/nofp/libc_nano.a(lib_a-rget.o)
 .debug_loc     0x000000000000d63c      0x669 /usr/lib/gcc/arm-none-eabi/9.2.1/../../../arm-none-eabi/lib/thumb/v7e-m/nofp/libc_nano.a(lib_a-fvwrite.o)
 .debug_loc     0x000000000000dca5      0x2f1 /usr/lib/gcc/arm-none-eabi/9.2.1/../../../arm-none-eabi/lib/thumb/v7e-m/nofp/libc_nano.a(lib_a-memmove.o)
 .debug_loc     0x000000000000df96       0x86 /usr/lib/gcc/arm-none-eabi/9.2.1/../../../arm-none-eabi/lib/thumb/v7e-m/nofp/libc_nano.a(lib_a-nano-msizer.o)
 .debug_loc     0x000000000000e01c      0x19f /usr/lib/gcc/arm-none-eabi/9.2.1/../../../arm-none-eabi/lib/thumb/v7e-m/nofp/libc_nano.a(lib_a-refill.o)

.debug_aranges  0x0000000000000000      0xfd0
 .debug_aranges
                0x0000000000000000       0xb8 /home/ch/RIOT/tests/periph_gpio/bin/p-nucleo-wb55/application_tests_periph_gpio/main.o
 .debug_aranges
                0x00000000000000b8       0x20 /home/ch/RIOT/tests/periph_gpio/bin/p-nucleo-wb55/auto_init/auto_init.o
 .debug_aranges
                0x00000000000000d8       0x28 /home/ch/RIOT/tests/periph_gpio/bin/p-nucleo-wb55/benchmark/benchmark.o
 .debug_aranges
                0x0000000000000100       0x30 /home/ch/RIOT/tests/periph_gpio/bin/p-nucleo-wb55/boards_common_nucleo/board_common_nucleo_init.o
 .debug_aranges
                0x0000000000000130       0x30 /home/ch/RIOT/tests/periph_gpio/bin/p-nucleo-wb55/core/init.o
 .debug_aranges
                0x0000000000000160       0x50 /home/ch/RIOT/tests/periph_gpio/bin/p-nucleo-wb55/core/mutex.o
 .debug_aranges
                0x00000000000001b0       0x38 /home/ch/RIOT/tests/periph_gpio/bin/p-nucleo-wb55/core/panic.o
 .debug_aranges
                0x00000000000001e8       0x48 /home/ch/RIOT/tests/periph_gpio/bin/p-nucleo-wb55/core/sched.o
 .debug_aranges
                0x0000000000000230       0x78 /home/ch/RIOT/tests/periph_gpio/bin/p-nucleo-wb55/core/thread.o
 .debug_aranges
                0x00000000000002a8       0x30 /home/ch/RIOT/tests/periph_gpio/bin/p-nucleo-wb55/cortexm_common/cortexm_init.o
 .debug_aranges
                0x00000000000002d8       0x28 /home/ch/RIOT/tests/periph_gpio/bin/p-nucleo-wb55/cortexm_common/panic.o
 .debug_aranges
                0x0000000000000300       0x28 /home/ch/RIOT/tests/periph_gpio/bin/p-nucleo-wb55/cortexm_common_periph/pm.o
 .debug_aranges
                0x0000000000000328       0x68 /home/ch/RIOT/tests/periph_gpio/bin/p-nucleo-wb55/cortexm_common/thread_arch.o
 .debug_aranges
                0x0000000000000390       0x70 /home/ch/RIOT/tests/periph_gpio/bin/p-nucleo-wb55/cortexm_common/vectors_cortexm.o
 .debug_aranges
                0x0000000000000400       0x40 /home/ch/RIOT/tests/periph_gpio/bin/p-nucleo-wb55/cpu/cpu_common.o
 .debug_aranges
                0x0000000000000440       0x40 /home/ch/RIOT/tests/periph_gpio/bin/p-nucleo-wb55/cpu/cpu_init.o
 .debug_aranges
                0x0000000000000480       0x40 /home/ch/RIOT/tests/periph_gpio/bin/p-nucleo-wb55/isrpipe/isrpipe.o
 .debug_aranges
                0x00000000000004c0       0xc0 /home/ch/RIOT/tests/periph_gpio/bin/p-nucleo-wb55/newlib_syscalls_default/syscalls.o
 .debug_aranges
                0x0000000000000580       0x28 /home/ch/RIOT/tests/periph_gpio/bin/p-nucleo-wb55/periph_common/init.o
 .debug_aranges
                0x00000000000005a8       0x28 /home/ch/RIOT/tests/periph_gpio/bin/p-nucleo-wb55/periph_common/timer.o
 .debug_aranges
                0x00000000000005d0       0x80 /home/ch/RIOT/tests/periph_gpio/bin/p-nucleo-wb55/periph/gpio_all.o
 .debug_aranges
                0x0000000000000650       0x38 /home/ch/RIOT/tests/periph_gpio/bin/p-nucleo-wb55/periph/pm.o
 .debug_aranges
                0x0000000000000688       0x58 /home/ch/RIOT/tests/periph_gpio/bin/p-nucleo-wb55/periph/timer.o
 .debug_aranges
                0x00000000000006e0       0x60 /home/ch/RIOT/tests/periph_gpio/bin/p-nucleo-wb55/periph/uart.o
 .debug_aranges
                0x0000000000000740       0x48 /home/ch/RIOT/tests/periph_gpio/bin/p-nucleo-wb55/pm_layered/pm.o
 .debug_aranges
                0x0000000000000788       0x38 /home/ch/RIOT/tests/periph_gpio/bin/p-nucleo-wb55/shell_commands/sc_pm.o
 .debug_aranges
                0x00000000000007c0       0x30 /home/ch/RIOT/tests/periph_gpio/bin/p-nucleo-wb55/shell_commands/sc_sys.o
 .debug_aranges
                0x00000000000007f0       0x20 /home/ch/RIOT/tests/periph_gpio/bin/p-nucleo-wb55/shell_commands/shell_commands.o
 .debug_aranges
                0x0000000000000810       0x50 /home/ch/RIOT/tests/periph_gpio/bin/p-nucleo-wb55/shell/shell.o
 .debug_aranges
                0x0000000000000860       0x40 /home/ch/RIOT/tests/periph_gpio/bin/p-nucleo-wb55/stdio_uart/stdio_uart.o
 .debug_aranges
                0x00000000000008a0       0x58 /home/ch/RIOT/tests/periph_gpio/bin/p-nucleo-wb55/stm32_clk/stmclk_common.o
 .debug_aranges
                0x00000000000008f8       0x28 /home/ch/RIOT/tests/periph_gpio/bin/p-nucleo-wb55/stm32_clk/stmclk_l4wx.o
 .debug_aranges
                0x0000000000000920       0x20 /home/ch/RIOT/tests/periph_gpio/bin/p-nucleo-wb55/stm32_vectors/STM32WB55xx.o
 .debug_aranges
                0x0000000000000940       0x60 /home/ch/RIOT/tests/periph_gpio/bin/p-nucleo-wb55/tsrb/tsrb.o
 .debug_aranges
                0x00000000000009a0       0x78 /home/ch/RIOT/tests/periph_gpio/bin/p-nucleo-wb55/ztimer_core/core.o
 .debug_aranges
                0x0000000000000a18       0x28 /home/ch/RIOT/tests/periph_gpio/bin/p-nucleo-wb55/ztimer_core/init.o
 .debug_aranges
                0x0000000000000a40       0x48 /home/ch/RIOT/tests/periph_gpio/bin/p-nucleo-wb55/ztimer_core/periph_timer.o
 .debug_aranges
                0x0000000000000a88       0x78 /home/ch/RIOT/tests/periph_gpio/bin/p-nucleo-wb55/ztimer_core/util.o
 .debug_aranges
                0x0000000000000b00       0x20 /usr/lib/gcc/arm-none-eabi/9.2.1/thumb/v7e-m/nofp/libgcc.a(_aeabi_uldivmod.o)
 .debug_aranges
                0x0000000000000b20       0x20 /usr/lib/gcc/arm-none-eabi/9.2.1/thumb/v7e-m/nofp/libgcc.a(_udivmoddi4.o)
 .debug_aranges
                0x0000000000000b40       0x20 /usr/lib/gcc/arm-none-eabi/9.2.1/thumb/v7e-m/nofp/libgcc.a(_dvmd_tls.o)
 .debug_aranges
                0x0000000000000b60       0x20 /usr/lib/gcc/arm-none-eabi/9.2.1/../../../arm-none-eabi/lib/thumb/v7e-m/nofp/libc_nano.a(lib_a-atoi.o)
 .debug_aranges
                0x0000000000000b80       0x20 /usr/lib/gcc/arm-none-eabi/9.2.1/../../../arm-none-eabi/lib/thumb/v7e-m/nofp/libc_nano.a(lib_a-atol.o)
 .debug_aranges
                0x0000000000000ba0       0x20 /usr/lib/gcc/arm-none-eabi/9.2.1/../../../arm-none-eabi/lib/thumb/v7e-m/nofp/libc_nano.a(lib_a-errno.o)
 .debug_aranges
                0x0000000000000bc0       0x20 /usr/lib/gcc/arm-none-eabi/9.2.1/../../../arm-none-eabi/lib/thumb/v7e-m/nofp/libc_nano.a(lib_a-fflush.o)
 .debug_aranges
                0x0000000000000be0       0x20 /usr/lib/gcc/arm-none-eabi/9.2.1/../../../arm-none-eabi/lib/thumb/v7e-m/nofp/libc_nano.a(lib_a-findfp.o)
 .debug_aranges
                0x0000000000000c00       0x20 /usr/lib/gcc/arm-none-eabi/9.2.1/../../../arm-none-eabi/lib/thumb/v7e-m/nofp/libc_nano.a(lib_a-fwalk.o)
 .debug_aranges
                0x0000000000000c20       0x20 /usr/lib/gcc/arm-none-eabi/9.2.1/../../../arm-none-eabi/lib/thumb/v7e-m/nofp/libc_nano.a(lib_a-getchar.o)
 .debug_aranges
                0x0000000000000c40       0x18 /usr/lib/gcc/arm-none-eabi/9.2.1/../../../arm-none-eabi/lib/thumb/v7e-m/nofp/libc_nano.a(lib_a-impure.o)
 .debug_aranges
                0x0000000000000c58       0x20 /usr/lib/gcc/arm-none-eabi/9.2.1/../../../arm-none-eabi/lib/thumb/v7e-m/nofp/libc_nano.a(lib_a-init.o)
 .debug_aranges
                0x0000000000000c78       0x20 /usr/lib/gcc/arm-none-eabi/9.2.1/../../../arm-none-eabi/lib/thumb/v7e-m/nofp/libc_nano.a(lib_a-memcpy.o)
 .debug_aranges
                0x0000000000000c98       0x20 /usr/lib/gcc/arm-none-eabi/9.2.1/../../../arm-none-eabi/lib/thumb/v7e-m/nofp/libc_nano.a(lib_a-memset.o)
 .debug_aranges
                0x0000000000000cb8       0x20 /usr/lib/gcc/arm-none-eabi/9.2.1/../../../arm-none-eabi/lib/thumb/v7e-m/nofp/libc_nano.a(lib_a-nano-freer.o)
 .debug_aranges
                0x0000000000000cd8       0x20 /usr/lib/gcc/arm-none-eabi/9.2.1/../../../arm-none-eabi/lib/thumb/v7e-m/nofp/libc_nano.a(lib_a-nano-mallocr.o)
 .debug_aranges
                0x0000000000000cf8       0x20 /usr/lib/gcc/arm-none-eabi/9.2.1/../../../arm-none-eabi/lib/thumb/v7e-m/nofp/libc_nano.a(lib_a-printf.o)
 .debug_aranges
                0x0000000000000d18       0x20 /usr/lib/gcc/arm-none-eabi/9.2.1/../../../arm-none-eabi/lib/thumb/v7e-m/nofp/libc_nano.a(lib_a-putchar.o)
 .debug_aranges
                0x0000000000000d38       0x20 /usr/lib/gcc/arm-none-eabi/9.2.1/../../../arm-none-eabi/lib/thumb/v7e-m/nofp/libc_nano.a(lib_a-puts.o)
 .debug_aranges
                0x0000000000000d58       0x20 /usr/lib/gcc/arm-none-eabi/9.2.1/../../../arm-none-eabi/lib/thumb/v7e-m/nofp/libc_nano.a(lib_a-stdio.o)
 .debug_aranges
                0x0000000000000d78       0x20 /usr/lib/gcc/arm-none-eabi/9.2.1/../../../arm-none-eabi/lib/thumb/v7e-m/nofp/libc_nano.a(lib_a-strcmp.o)
 .debug_aranges
                0x0000000000000d98       0x20 /usr/lib/gcc/arm-none-eabi/9.2.1/../../../arm-none-eabi/lib/thumb/v7e-m/nofp/libc_nano.a(lib_a-strlen.o)
 .debug_aranges
                0x0000000000000db8       0x20 /usr/lib/gcc/arm-none-eabi/9.2.1/../../../arm-none-eabi/lib/thumb/v7e-m/nofp/libc_nano.a(lib_a-strtol.o)
 .debug_aranges
                0x0000000000000dd8       0x20 /usr/lib/gcc/arm-none-eabi/9.2.1/../../../arm-none-eabi/lib/thumb/v7e-m/nofp/libc_nano.a(lib_a-wbuf.o)
 .debug_aranges
                0x0000000000000df8       0x20 /usr/lib/gcc/arm-none-eabi/9.2.1/../../../arm-none-eabi/lib/thumb/v7e-m/nofp/libc_nano.a(lib_a-wsetup.o)
 .debug_aranges
                0x0000000000000e18       0x18 /usr/lib/gcc/arm-none-eabi/9.2.1/../../../arm-none-eabi/lib/thumb/v7e-m/nofp/libc_nano.a(lib_a-ctype_.o)
 .debug_aranges
                0x0000000000000e30       0x20 /usr/lib/gcc/arm-none-eabi/9.2.1/../../../arm-none-eabi/lib/thumb/v7e-m/nofp/libc_nano.a(lib_a-getc.o)
 .debug_aranges
                0x0000000000000e50       0x20 /usr/lib/gcc/arm-none-eabi/9.2.1/../../../arm-none-eabi/lib/thumb/v7e-m/nofp/libc_nano.a(lib_a-makebuf.o)
 .debug_aranges
                0x0000000000000e70       0x20 /usr/lib/gcc/arm-none-eabi/9.2.1/../../../arm-none-eabi/lib/thumb/v7e-m/nofp/libc_nano.a(lib_a-mlock.o)
 .debug_aranges
                0x0000000000000e90       0x20 /usr/lib/gcc/arm-none-eabi/9.2.1/../../../arm-none-eabi/lib/thumb/v7e-m/nofp/libc_nano.a(lib_a-nano-reallocr.o)
 .debug_aranges
                0x0000000000000eb0       0x20 /usr/lib/gcc/arm-none-eabi/9.2.1/../../../arm-none-eabi/lib/thumb/v7e-m/nofp/libc_nano.a(lib_a-nano-vfprintf.o)
 .debug_aranges
                0x0000000000000ed0       0x20 /usr/lib/gcc/arm-none-eabi/9.2.1/../../../arm-none-eabi/lib/thumb/v7e-m/nofp/libc_nano.a(lib_a-nano-vfprintf_i.o)
 .debug_aranges
                0x0000000000000ef0       0x20 /usr/lib/gcc/arm-none-eabi/9.2.1/../../../arm-none-eabi/lib/thumb/v7e-m/nofp/libc_nano.a(lib_a-putc.o)
 .debug_aranges
                0x0000000000000f10       0x20 /usr/lib/gcc/arm-none-eabi/9.2.1/../../../arm-none-eabi/lib/thumb/v7e-m/nofp/libc_nano.a(lib_a-rget.o)
 .debug_aranges
                0x0000000000000f30       0x20 /usr/lib/gcc/arm-none-eabi/9.2.1/../../../arm-none-eabi/lib/thumb/v7e-m/nofp/libc_nano.a(lib_a-fvwrite.o)
 .debug_aranges
                0x0000000000000f50       0x20 /usr/lib/gcc/arm-none-eabi/9.2.1/../../../arm-none-eabi/lib/thumb/v7e-m/nofp/libc_nano.a(lib_a-memchr.o)
 .debug_aranges
                0x0000000000000f70       0x20 /usr/lib/gcc/arm-none-eabi/9.2.1/../../../arm-none-eabi/lib/thumb/v7e-m/nofp/libc_nano.a(lib_a-memmove.o)
 .debug_aranges
                0x0000000000000f90       0x20 /usr/lib/gcc/arm-none-eabi/9.2.1/../../../arm-none-eabi/lib/thumb/v7e-m/nofp/libc_nano.a(lib_a-nano-msizer.o)
 .debug_aranges
                0x0000000000000fb0       0x20 /usr/lib/gcc/arm-none-eabi/9.2.1/../../../arm-none-eabi/lib/thumb/v7e-m/nofp/libc_nano.a(lib_a-refill.o)

.debug_ranges   0x0000000000000000     0x2538
 .debug_ranges  0x0000000000000000      0x2a0 /home/ch/RIOT/tests/periph_gpio/bin/p-nucleo-wb55/application_tests_periph_gpio/main.o
 .debug_ranges  0x00000000000002a0       0x10 /home/ch/RIOT/tests/periph_gpio/bin/p-nucleo-wb55/auto_init/auto_init.o
 .debug_ranges  0x00000000000002b0       0x18 /home/ch/RIOT/tests/periph_gpio/bin/p-nucleo-wb55/benchmark/benchmark.o
 .debug_ranges  0x00000000000002c8       0x20 /home/ch/RIOT/tests/periph_gpio/bin/p-nucleo-wb55/boards_common_nucleo/board_common_nucleo_init.o
 .debug_ranges  0x00000000000002e8       0x50 /home/ch/RIOT/tests/periph_gpio/bin/p-nucleo-wb55/core/init.o
 .debug_ranges  0x0000000000000338      0x280 /home/ch/RIOT/tests/periph_gpio/bin/p-nucleo-wb55/core/mutex.o
 .debug_ranges  0x00000000000005b8       0x28 /home/ch/RIOT/tests/periph_gpio/bin/p-nucleo-wb55/core/panic.o
 .debug_ranges  0x00000000000005e0      0x118 /home/ch/RIOT/tests/periph_gpio/bin/p-nucleo-wb55/core/sched.o
 .debug_ranges  0x00000000000006f8      0x298 /home/ch/RIOT/tests/periph_gpio/bin/p-nucleo-wb55/core/thread.o
 .debug_ranges  0x0000000000000990       0xb8 /home/ch/RIOT/tests/periph_gpio/bin/p-nucleo-wb55/cortexm_common/cortexm_init.o
 .debug_ranges  0x0000000000000a48       0x48 /home/ch/RIOT/tests/periph_gpio/bin/p-nucleo-wb55/cortexm_common/panic.o
 .debug_ranges  0x0000000000000a90       0x18 /home/ch/RIOT/tests/periph_gpio/bin/p-nucleo-wb55/cortexm_common_periph/pm.o
 .debug_ranges  0x0000000000000aa8       0x88 /home/ch/RIOT/tests/periph_gpio/bin/p-nucleo-wb55/cortexm_common/thread_arch.o
 .debug_ranges  0x0000000000000b30       0x78 /home/ch/RIOT/tests/periph_gpio/bin/p-nucleo-wb55/cortexm_common/vectors_cortexm.o
 .debug_ranges  0x0000000000000ba8       0x30 /home/ch/RIOT/tests/periph_gpio/bin/p-nucleo-wb55/cpu/cpu_common.o
 .debug_ranges  0x0000000000000bd8       0x30 /home/ch/RIOT/tests/periph_gpio/bin/p-nucleo-wb55/cpu/cpu_init.o
 .debug_ranges  0x0000000000000c08       0x48 /home/ch/RIOT/tests/periph_gpio/bin/p-nucleo-wb55/isrpipe/isrpipe.o
 .debug_ranges  0x0000000000000c50      0x130 /home/ch/RIOT/tests/periph_gpio/bin/p-nucleo-wb55/newlib_syscalls_default/syscalls.o
 .debug_ranges  0x0000000000000d80       0x18 /home/ch/RIOT/tests/periph_gpio/bin/p-nucleo-wb55/periph_common/init.o
 .debug_ranges  0x0000000000000d98       0x60 /home/ch/RIOT/tests/periph_gpio/bin/p-nucleo-wb55/periph_common/timer.o
 .debug_ranges  0x0000000000000df8      0x250 /home/ch/RIOT/tests/periph_gpio/bin/p-nucleo-wb55/periph/gpio_all.o
 .debug_ranges  0x0000000000001048       0x70 /home/ch/RIOT/tests/periph_gpio/bin/p-nucleo-wb55/periph/pm.o
 .debug_ranges  0x00000000000010b8      0x138 /home/ch/RIOT/tests/periph_gpio/bin/p-nucleo-wb55/periph/timer.o
 .debug_ranges  0x00000000000011f0      0x130 /home/ch/RIOT/tests/periph_gpio/bin/p-nucleo-wb55/periph/uart.o
 .debug_ranges  0x0000000000001320       0xc8 /home/ch/RIOT/tests/periph_gpio/bin/p-nucleo-wb55/pm_layered/pm.o
 .debug_ranges  0x00000000000013e8       0xb0 /home/ch/RIOT/tests/periph_gpio/bin/p-nucleo-wb55/shell_commands/sc_pm.o
 .debug_ranges  0x0000000000001498       0x20 /home/ch/RIOT/tests/periph_gpio/bin/p-nucleo-wb55/shell_commands/sc_sys.o
 .debug_ranges  0x00000000000014b8       0x10 /home/ch/RIOT/tests/periph_gpio/bin/p-nucleo-wb55/shell_commands/shell_commands.o
 .debug_ranges  0x00000000000014c8      0x170 /home/ch/RIOT/tests/periph_gpio/bin/p-nucleo-wb55/shell/shell.o
 .debug_ranges  0x0000000000001638       0x60 /home/ch/RIOT/tests/periph_gpio/bin/p-nucleo-wb55/stdio_uart/stdio_uart.o
 .debug_ranges  0x0000000000001698       0x48 /home/ch/RIOT/tests/periph_gpio/bin/p-nucleo-wb55/stm32_clk/stmclk_common.o
 .debug_ranges  0x00000000000016e0       0x60 /home/ch/RIOT/tests/periph_gpio/bin/p-nucleo-wb55/stm32_clk/stmclk_l4wx.o
 .debug_ranges  0x0000000000001740       0x10 /home/ch/RIOT/tests/periph_gpio/bin/p-nucleo-wb55/stm32_vectors/STM32WB55xx.o
 .debug_ranges  0x0000000000001750      0x3d0 /home/ch/RIOT/tests/periph_gpio/bin/p-nucleo-wb55/tsrb/tsrb.o
 .debug_ranges  0x0000000000001b20      0x1c8 /home/ch/RIOT/tests/periph_gpio/bin/p-nucleo-wb55/ztimer_core/core.o
 .debug_ranges  0x0000000000001ce8       0x18 /home/ch/RIOT/tests/periph_gpio/bin/p-nucleo-wb55/ztimer_core/init.o
 .debug_ranges  0x0000000000001d00       0x50 /home/ch/RIOT/tests/periph_gpio/bin/p-nucleo-wb55/ztimer_core/periph_timer.o
 .debug_ranges  0x0000000000001d50      0x268 /home/ch/RIOT/tests/periph_gpio/bin/p-nucleo-wb55/ztimer_core/util.o
 .debug_ranges  0x0000000000001fb8       0xc8 /usr/lib/gcc/arm-none-eabi/9.2.1/thumb/v7e-m/nofp/libgcc.a(_udivmoddi4.o)
 .debug_ranges  0x0000000000002080       0x68 /usr/lib/gcc/arm-none-eabi/9.2.1/../../../arm-none-eabi/lib/thumb/v7e-m/nofp/libc_nano.a(lib_a-fflush.o)
 .debug_ranges  0x00000000000020e8       0xe8 /usr/lib/gcc/arm-none-eabi/9.2.1/../../../arm-none-eabi/lib/thumb/v7e-m/nofp/libc_nano.a(lib_a-findfp.o)
 .debug_ranges  0x00000000000021d0       0x18 /usr/lib/gcc/arm-none-eabi/9.2.1/../../../arm-none-eabi/lib/thumb/v7e-m/nofp/libc_nano.a(lib_a-nano-freer.o)
 .debug_ranges  0x00000000000021e8       0x38 /usr/lib/gcc/arm-none-eabi/9.2.1/../../../arm-none-eabi/lib/thumb/v7e-m/nofp/libc_nano.a(lib_a-nano-mallocr.o)
 .debug_ranges  0x0000000000002220       0x68 /usr/lib/gcc/arm-none-eabi/9.2.1/../../../arm-none-eabi/lib/thumb/v7e-m/nofp/libc_nano.a(lib_a-puts.o)
 .debug_ranges  0x0000000000002288       0x20 /usr/lib/gcc/arm-none-eabi/9.2.1/../../../arm-none-eabi/lib/thumb/v7e-m/nofp/libc_nano.a(lib_a-strtol.o)
 .debug_ranges  0x00000000000022a8       0x20 /usr/lib/gcc/arm-none-eabi/9.2.1/../../../arm-none-eabi/lib/thumb/v7e-m/nofp/libc_nano.a(lib_a-wbuf.o)
 .debug_ranges  0x00000000000022c8       0x30 /usr/lib/gcc/arm-none-eabi/9.2.1/../../../arm-none-eabi/lib/thumb/v7e-m/nofp/libc_nano.a(lib_a-wsetup.o)
 .debug_ranges  0x00000000000022f8       0x58 /usr/lib/gcc/arm-none-eabi/9.2.1/../../../arm-none-eabi/lib/thumb/v7e-m/nofp/libc_nano.a(lib_a-getc.o)
 .debug_ranges  0x0000000000002350       0x28 /usr/lib/gcc/arm-none-eabi/9.2.1/../../../arm-none-eabi/lib/thumb/v7e-m/nofp/libc_nano.a(lib_a-makebuf.o)
 .debug_ranges  0x0000000000002378       0x28 /usr/lib/gcc/arm-none-eabi/9.2.1/../../../arm-none-eabi/lib/thumb/v7e-m/nofp/libc_nano.a(lib_a-nano-vfprintf.o)
 .debug_ranges  0x00000000000023a0       0x98 /usr/lib/gcc/arm-none-eabi/9.2.1/../../../arm-none-eabi/lib/thumb/v7e-m/nofp/libc_nano.a(lib_a-nano-vfprintf_i.o)
 .debug_ranges  0x0000000000002438       0xa8 /usr/lib/gcc/arm-none-eabi/9.2.1/../../../arm-none-eabi/lib/thumb/v7e-m/nofp/libc_nano.a(lib_a-putc.o)
 .debug_ranges  0x00000000000024e0       0x20 /usr/lib/gcc/arm-none-eabi/9.2.1/../../../arm-none-eabi/lib/thumb/v7e-m/nofp/libc_nano.a(lib_a-rget.o)
 .debug_ranges  0x0000000000002500       0x18 /usr/lib/gcc/arm-none-eabi/9.2.1/../../../arm-none-eabi/lib/thumb/v7e-m/nofp/libc_nano.a(lib_a-fvwrite.o)
 .debug_ranges  0x0000000000002518       0x20 /usr/lib/gcc/arm-none-eabi/9.2.1/../../../arm-none-eabi/lib/thumb/v7e-m/nofp/libc_nano.a(lib_a-refill.o)

.debug_macro    0x0000000000000000    0x3a103
 .debug_macro   0x0000000000000000      0x4d3 /home/ch/RIOT/tests/periph_gpio/bin/p-nucleo-wb55/application_tests_periph_gpio/main.o
 .debug_macro   0x00000000000004d3      0xaf6 /home/ch/RIOT/tests/periph_gpio/bin/p-nucleo-wb55/application_tests_periph_gpio/main.o
 .debug_macro   0x0000000000000fc9      0x1b4 /home/ch/RIOT/tests/periph_gpio/bin/p-nucleo-wb55/application_tests_periph_gpio/main.o
 .debug_macro   0x000000000000117d       0x22 /home/ch/RIOT/tests/periph_gpio/bin/p-nucleo-wb55/application_tests_periph_gpio/main.o
 .debug_macro   0x000000000000119f       0x46 /home/ch/RIOT/tests/periph_gpio/bin/p-nucleo-wb55/application_tests_periph_gpio/main.o
 .debug_macro   0x00000000000011e5       0x18 /home/ch/RIOT/tests/periph_gpio/bin/p-nucleo-wb55/application_tests_periph_gpio/main.o
 .debug_macro   0x00000000000011fd       0x5c /home/ch/RIOT/tests/periph_gpio/bin/p-nucleo-wb55/application_tests_periph_gpio/main.o
 .debug_macro   0x0000000000001259       0x3c /home/ch/RIOT/tests/periph_gpio/bin/p-nucleo-wb55/application_tests_periph_gpio/main.o
 .debug_macro   0x0000000000001295       0x34 /home/ch/RIOT/tests/periph_gpio/bin/p-nucleo-wb55/application_tests_periph_gpio/main.o
 .debug_macro   0x00000000000012c9       0x16 /home/ch/RIOT/tests/periph_gpio/bin/p-nucleo-wb55/application_tests_periph_gpio/main.o
 .debug_macro   0x00000000000012df       0x57 /home/ch/RIOT/tests/periph_gpio/bin/p-nucleo-wb55/application_tests_periph_gpio/main.o
 .debug_macro   0x0000000000001336       0x97 /home/ch/RIOT/tests/periph_gpio/bin/p-nucleo-wb55/application_tests_periph_gpio/main.o
 .debug_macro   0x00000000000013cd      0x339 /home/ch/RIOT/tests/periph_gpio/bin/p-nucleo-wb55/application_tests_periph_gpio/main.o
 .debug_macro   0x0000000000001706       0xfd /home/ch/RIOT/tests/periph_gpio/bin/p-nucleo-wb55/application_tests_periph_gpio/main.o
 .debug_macro   0x0000000000001803       0x10 /home/ch/RIOT/tests/periph_gpio/bin/p-nucleo-wb55/application_tests_periph_gpio/main.o
 .debug_macro   0x0000000000001813       0x16 /home/ch/RIOT/tests/periph_gpio/bin/p-nucleo-wb55/application_tests_periph_gpio/main.o
 .debug_macro   0x0000000000001829       0x43 /home/ch/RIOT/tests/periph_gpio/bin/p-nucleo-wb55/application_tests_periph_gpio/main.o
 .debug_macro   0x000000000000186c       0x34 /home/ch/RIOT/tests/periph_gpio/bin/p-nucleo-wb55/application_tests_periph_gpio/main.o
 .debug_macro   0x00000000000018a0       0x10 /home/ch/RIOT/tests/periph_gpio/bin/p-nucleo-wb55/application_tests_periph_gpio/main.o
 .debug_macro   0x00000000000018b0       0x52 /home/ch/RIOT/tests/periph_gpio/bin/p-nucleo-wb55/application_tests_periph_gpio/main.o
 .debug_macro   0x0000000000001902       0x71 /home/ch/RIOT/tests/periph_gpio/bin/p-nucleo-wb55/application_tests_periph_gpio/main.o
 .debug_macro   0x0000000000001973      0x34e /home/ch/RIOT/tests/periph_gpio/bin/p-nucleo-wb55/application_tests_periph_gpio/main.o
 .debug_macro   0x0000000000001cc1       0x75 /home/ch/RIOT/tests/periph_gpio/bin/p-nucleo-wb55/application_tests_periph_gpio/main.o
 .debug_macro   0x0000000000001d36       0x10 /home/ch/RIOT/tests/periph_gpio/bin/p-nucleo-wb55/application_tests_periph_gpio/main.o
 .debug_macro   0x0000000000001d46      0x12a /home/ch/RIOT/tests/periph_gpio/bin/p-nucleo-wb55/application_tests_periph_gpio/main.o
 .debug_macro   0x0000000000001e70       0x10 /home/ch/RIOT/tests/periph_gpio/bin/p-nucleo-wb55/application_tests_periph_gpio/main.o
 .debug_macro   0x0000000000001e80       0x6a /home/ch/RIOT/tests/periph_gpio/bin/p-nucleo-wb55/application_tests_periph_gpio/main.o
 .debug_macro   0x0000000000001eea       0xb2 /home/ch/RIOT/tests/periph_gpio/bin/p-nucleo-wb55/application_tests_periph_gpio/main.o
 .debug_macro   0x0000000000001f9c       0x16 /home/ch/RIOT/tests/periph_gpio/bin/p-nucleo-wb55/application_tests_periph_gpio/main.o
 .debug_macro   0x0000000000001fb2      0x114 /home/ch/RIOT/tests/periph_gpio/bin/p-nucleo-wb55/application_tests_periph_gpio/main.o
 .debug_macro   0x00000000000020c6       0x16 /home/ch/RIOT/tests/periph_gpio/bin/p-nucleo-wb55/application_tests_periph_gpio/main.o
 .debug_macro   0x00000000000020dc       0x35 /home/ch/RIOT/tests/periph_gpio/bin/p-nucleo-wb55/application_tests_periph_gpio/main.o
 .debug_macro   0x0000000000002111       0x22 /home/ch/RIOT/tests/periph_gpio/bin/p-nucleo-wb55/application_tests_periph_gpio/main.o
 .debug_macro   0x0000000000002133       0x22 /home/ch/RIOT/tests/periph_gpio/bin/p-nucleo-wb55/application_tests_periph_gpio/main.o
 .debug_macro   0x0000000000002155       0x49 /home/ch/RIOT/tests/periph_gpio/bin/p-nucleo-wb55/application_tests_periph_gpio/main.o
 .debug_macro   0x000000000000219e       0x2e /home/ch/RIOT/tests/periph_gpio/bin/p-nucleo-wb55/application_tests_periph_gpio/main.o
 .debug_macro   0x00000000000021cc       0x2e /home/ch/RIOT/tests/periph_gpio/bin/p-nucleo-wb55/application_tests_periph_gpio/main.o
 .debug_macro   0x00000000000021fa       0x1c /home/ch/RIOT/tests/periph_gpio/bin/p-nucleo-wb55/application_tests_periph_gpio/main.o
 .debug_macro   0x0000000000002216       0x22 /home/ch/RIOT/tests/periph_gpio/bin/p-nucleo-wb55/application_tests_periph_gpio/main.o
 .debug_macro   0x0000000000002238       0xd9 /home/ch/RIOT/tests/periph_gpio/bin/p-nucleo-wb55/application_tests_periph_gpio/main.o
 .debug_macro   0x0000000000002311     0x102d /home/ch/RIOT/tests/periph_gpio/bin/p-nucleo-wb55/application_tests_periph_gpio/main.o
 .debug_macro   0x000000000000333e      0x11f /home/ch/RIOT/tests/periph_gpio/bin/p-nucleo-wb55/application_tests_periph_gpio/main.o
 .debug_macro   0x000000000000345d    0x12ae9 /home/ch/RIOT/tests/periph_gpio/bin/p-nucleo-wb55/application_tests_periph_gpio/main.o
 .debug_macro   0x0000000000015f46       0x6c /home/ch/RIOT/tests/periph_gpio/bin/p-nucleo-wb55/application_tests_periph_gpio/main.o
 .debug_macro   0x0000000000015fb2       0x10 /home/ch/RIOT/tests/periph_gpio/bin/p-nucleo-wb55/application_tests_periph_gpio/main.o
 .debug_macro   0x0000000000015fc2       0x2b /home/ch/RIOT/tests/periph_gpio/bin/p-nucleo-wb55/application_tests_periph_gpio/main.o
 .debug_macro   0x0000000000015fed       0xe8 /home/ch/RIOT/tests/periph_gpio/bin/p-nucleo-wb55/application_tests_periph_gpio/main.o
 .debug_macro   0x00000000000160d5      0x103 /home/ch/RIOT/tests/periph_gpio/bin/p-nucleo-wb55/application_tests_periph_gpio/main.o
 .debug_macro   0x00000000000161d8      0x3c6 /home/ch/RIOT/tests/periph_gpio/bin/p-nucleo-wb55/application_tests_periph_gpio/main.o
 .debug_macro   0x000000000001659e       0x3d /home/ch/RIOT/tests/periph_gpio/bin/p-nucleo-wb55/application_tests_periph_gpio/main.o
 .debug_macro   0x00000000000165db       0x42 /home/ch/RIOT/tests/periph_gpio/bin/p-nucleo-wb55/application_tests_periph_gpio/main.o
 .debug_macro   0x000000000001661d       0x10 /home/ch/RIOT/tests/periph_gpio/bin/p-nucleo-wb55/application_tests_periph_gpio/main.o
 .debug_macro   0x000000000001662d       0x2e /home/ch/RIOT/tests/periph_gpio/bin/p-nucleo-wb55/application_tests_periph_gpio/main.o
 .debug_macro   0x000000000001665b       0x16 /home/ch/RIOT/tests/periph_gpio/bin/p-nucleo-wb55/application_tests_periph_gpio/main.o
 .debug_macro   0x0000000000016671       0x2e /home/ch/RIOT/tests/periph_gpio/bin/p-nucleo-wb55/application_tests_periph_gpio/main.o
 .debug_macro   0x000000000001669f       0x10 /home/ch/RIOT/tests/periph_gpio/bin/p-nucleo-wb55/application_tests_periph_gpio/main.o
 .debug_macro   0x00000000000166af       0x10 /home/ch/RIOT/tests/periph_gpio/bin/p-nucleo-wb55/application_tests_periph_gpio/main.o
 .debug_macro   0x00000000000166bf       0x1c /home/ch/RIOT/tests/periph_gpio/bin/p-nucleo-wb55/application_tests_periph_gpio/main.o
 .debug_macro   0x00000000000166db       0x40 /home/ch/RIOT/tests/periph_gpio/bin/p-nucleo-wb55/application_tests_periph_gpio/main.o
 .debug_macro   0x000000000001671b       0x31 /home/ch/RIOT/tests/periph_gpio/bin/p-nucleo-wb55/application_tests_periph_gpio/main.o
 .debug_macro   0x000000000001674c       0x84 /home/ch/RIOT/tests/periph_gpio/bin/p-nucleo-wb55/application_tests_periph_gpio/main.o
 .debug_macro   0x00000000000167d0       0x22 /home/ch/RIOT/tests/periph_gpio/bin/p-nucleo-wb55/application_tests_periph_gpio/main.o
 .debug_macro   0x00000000000167f2       0x22 /home/ch/RIOT/tests/periph_gpio/bin/p-nucleo-wb55/application_tests_periph_gpio/main.o
 .debug_macro   0x0000000000016814       0x16 /home/ch/RIOT/tests/periph_gpio/bin/p-nucleo-wb55/application_tests_periph_gpio/main.o
 .debug_macro   0x000000000001682a       0x10 /home/ch/RIOT/tests/periph_gpio/bin/p-nucleo-wb55/application_tests_periph_gpio/main.o
 .debug_macro   0x000000000001683a       0x34 /home/ch/RIOT/tests/periph_gpio/bin/p-nucleo-wb55/application_tests_periph_gpio/main.o
 .debug_macro   0x000000000001686e       0x28 /home/ch/RIOT/tests/periph_gpio/bin/p-nucleo-wb55/application_tests_periph_gpio/main.o
 .debug_macro   0x0000000000016896       0x16 /home/ch/RIOT/tests/periph_gpio/bin/p-nucleo-wb55/application_tests_periph_gpio/main.o
 .debug_macro   0x00000000000168ac       0x40 /home/ch/RIOT/tests/periph_gpio/bin/p-nucleo-wb55/application_tests_periph_gpio/main.o
 .debug_macro   0x00000000000168ec       0x1c /home/ch/RIOT/tests/periph_gpio/bin/p-nucleo-wb55/application_tests_periph_gpio/main.o
 .debug_macro   0x0000000000016908       0x16 /home/ch/RIOT/tests/periph_gpio/bin/p-nucleo-wb55/application_tests_periph_gpio/main.o
 .debug_macro   0x000000000001691e       0x10 /home/ch/RIOT/tests/periph_gpio/bin/p-nucleo-wb55/application_tests_periph_gpio/main.o
 .debug_macro   0x000000000001692e       0x4a /home/ch/RIOT/tests/periph_gpio/bin/p-nucleo-wb55/application_tests_periph_gpio/main.o
 .debug_macro   0x0000000000016978       0x23 /home/ch/RIOT/tests/periph_gpio/bin/p-nucleo-wb55/application_tests_periph_gpio/main.o
 .debug_macro   0x000000000001699b       0x19 /home/ch/RIOT/tests/periph_gpio/bin/p-nucleo-wb55/application_tests_periph_gpio/main.o
 .debug_macro   0x00000000000169b4      0x118 /home/ch/RIOT/tests/periph_gpio/bin/p-nucleo-wb55/application_tests_periph_gpio/main.o
 .debug_macro   0x0000000000016acc       0x12 /home/ch/RIOT/tests/periph_gpio/bin/p-nucleo-wb55/application_tests_periph_gpio/main.o
 .debug_macro   0x0000000000016ade       0x28 /home/ch/RIOT/tests/periph_gpio/bin/p-nucleo-wb55/application_tests_periph_gpio/main.o
 .debug_macro   0x0000000000016b06       0x1c /home/ch/RIOT/tests/periph_gpio/bin/p-nucleo-wb55/application_tests_periph_gpio/main.o
 .debug_macro   0x0000000000016b22       0x6b /home/ch/RIOT/tests/periph_gpio/bin/p-nucleo-wb55/application_tests_periph_gpio/main.o
 .debug_macro   0x0000000000016b8d       0x16 /home/ch/RIOT/tests/periph_gpio/bin/p-nucleo-wb55/application_tests_periph_gpio/main.o
 .debug_macro   0x0000000000016ba3       0x28 /home/ch/RIOT/tests/periph_gpio/bin/p-nucleo-wb55/application_tests_periph_gpio/main.o
 .debug_macro   0x0000000000016bcb       0x16 /home/ch/RIOT/tests/periph_gpio/bin/p-nucleo-wb55/application_tests_periph_gpio/main.o
 .debug_macro   0x0000000000016be1       0x29 /home/ch/RIOT/tests/periph_gpio/bin/p-nucleo-wb55/application_tests_periph_gpio/main.o
 .debug_macro   0x0000000000016c0a      0x1e9 /home/ch/RIOT/tests/periph_gpio/bin/p-nucleo-wb55/auto_init/auto_init.o
 .debug_macro   0x0000000000016df3      0xaf6 /home/ch/RIOT/tests/periph_gpio/bin/p-nucleo-wb55/auto_init/auto_init.o
 .debug_macro   0x00000000000178e9       0x34 /home/ch/RIOT/tests/periph_gpio/bin/p-nucleo-wb55/auto_init/auto_init.o
 .debug_macro   0x000000000001791d      0x333 /home/ch/RIOT/tests/periph_gpio/bin/p-nucleo-wb55/benchmark/benchmark.o
 .debug_macro   0x0000000000017c50      0xaf6 /home/ch/RIOT/tests/periph_gpio/bin/p-nucleo-wb55/benchmark/benchmark.o
 .debug_macro   0x0000000000018746      0x427 /home/ch/RIOT/tests/periph_gpio/bin/p-nucleo-wb55/boards_common_nucleo/board_common_nucleo_init.o
 .debug_macro   0x0000000000018b6d      0xaf6 /home/ch/RIOT/tests/periph_gpio/bin/p-nucleo-wb55/boards_common_nucleo/board_common_nucleo_init.o
 .debug_macro   0x0000000000019663       0x9a /home/ch/RIOT/tests/periph_gpio/bin/p-nucleo-wb55/boards_common_nucleo/board_common_nucleo_init.o
 .debug_macro   0x00000000000196fd      0x428 /home/ch/RIOT/tests/periph_gpio/bin/p-nucleo-wb55/core/init.o
 .debug_macro   0x0000000000019b25      0xaf6 /home/ch/RIOT/tests/periph_gpio/bin/p-nucleo-wb55/core/init.o
 .debug_macro   0x000000000001a61b       0x10 /home/ch/RIOT/tests/periph_gpio/bin/p-nucleo-wb55/core/init.o
 .debug_macro   0x000000000001a62b      0x23b /home/ch/RIOT/tests/periph_gpio/bin/p-nucleo-wb55/core/init.o
 .debug_macro   0x000000000001a866       0x2e /home/ch/RIOT/tests/periph_gpio/bin/p-nucleo-wb55/core/init.o
 .debug_macro   0x000000000001a894      0x2f7 /home/ch/RIOT/tests/periph_gpio/bin/p-nucleo-wb55/core/mutex.o
 .debug_macro   0x000000000001ab8b      0xaf6 /home/ch/RIOT/tests/periph_gpio/bin/p-nucleo-wb55/core/mutex.o
 .debug_macro   0x000000000001b681      0x379 /home/ch/RIOT/tests/periph_gpio/bin/p-nucleo-wb55/core/mutex.o
 .debug_macro   0x000000000001b9fa       0x28 /home/ch/RIOT/tests/periph_gpio/bin/p-nucleo-wb55/core/mutex.o
 .debug_macro   0x000000000001ba22      0x3f6 /home/ch/RIOT/tests/periph_gpio/bin/p-nucleo-wb55/core/panic.o
 .debug_macro   0x000000000001be18      0xaf6 /home/ch/RIOT/tests/periph_gpio/bin/p-nucleo-wb55/core/panic.o
 .debug_macro   0x000000000001c90e       0x10 /home/ch/RIOT/tests/periph_gpio/bin/p-nucleo-wb55/core/panic.o
 .debug_macro   0x000000000001c91e      0x2ec /home/ch/RIOT/tests/periph_gpio/bin/p-nucleo-wb55/core/sched.o
 .debug_macro   0x000000000001cc0a      0xaf6 /home/ch/RIOT/tests/periph_gpio/bin/p-nucleo-wb55/core/sched.o
 .debug_macro   0x000000000001d700      0x301 /home/ch/RIOT/tests/periph_gpio/bin/p-nucleo-wb55/core/thread.o
 .debug_macro   0x000000000001da01      0xaf6 /home/ch/RIOT/tests/periph_gpio/bin/p-nucleo-wb55/core/thread.o
 .debug_macro   0x000000000001e4f7       0x22 /home/ch/RIOT/tests/periph_gpio/bin/p-nucleo-wb55/core/thread.o
 .debug_macro   0x000000000001e519       0xdc /home/ch/RIOT/tests/periph_gpio/bin/p-nucleo-wb55/core/thread.o
 .debug_macro   0x000000000001e5f5      0x2d3 /home/ch/RIOT/tests/periph_gpio/bin/p-nucleo-wb55/cortexm_common/cortexm_init.o
 .debug_macro   0x000000000001e8c8      0xaf6 /home/ch/RIOT/tests/periph_gpio/bin/p-nucleo-wb55/cortexm_common/cortexm_init.o
 .debug_macro   0x000000000001f3be      0x2d6 /home/ch/RIOT/tests/periph_gpio/bin/p-nucleo-wb55/cortexm_common/panic.o
 .debug_macro   0x000000000001f694      0xaf6 /home/ch/RIOT/tests/periph_gpio/bin/p-nucleo-wb55/cortexm_common/panic.o
 .debug_macro   0x000000000002018a      0x3ce /home/ch/RIOT/tests/periph_gpio/bin/p-nucleo-wb55/cortexm_common_periph/pm.o
 .debug_macro   0x0000000000020558      0xaf6 /home/ch/RIOT/tests/periph_gpio/bin/p-nucleo-wb55/cortexm_common_periph/pm.o
 .debug_macro   0x000000000002104e      0x2f3 /home/ch/RIOT/tests/periph_gpio/bin/p-nucleo-wb55/cortexm_common/thread_arch.o
 .debug_macro   0x0000000000021341      0xaf6 /home/ch/RIOT/tests/periph_gpio/bin/p-nucleo-wb55/cortexm_common/thread_arch.o
 .debug_macro   0x0000000000021e37       0x1c /home/ch/RIOT/tests/periph_gpio/bin/p-nucleo-wb55/cortexm_common/thread_arch.o
 .debug_macro   0x0000000000021e53      0x451 /home/ch/RIOT/tests/periph_gpio/bin/p-nucleo-wb55/cortexm_common/vectors_cortexm.o
 .debug_macro   0x00000000000222a4      0xaf6 /home/ch/RIOT/tests/periph_gpio/bin/p-nucleo-wb55/cortexm_common/vectors_cortexm.o
 .debug_macro   0x0000000000022d9a       0x1c /home/ch/RIOT/tests/periph_gpio/bin/p-nucleo-wb55/cortexm_common/vectors_cortexm.o
 .debug_macro   0x0000000000022db6      0x41d /home/ch/RIOT/tests/periph_gpio/bin/p-nucleo-wb55/cpu/cpu_common.o
 .debug_macro   0x00000000000231d3      0xaf6 /home/ch/RIOT/tests/periph_gpio/bin/p-nucleo-wb55/cpu/cpu_common.o
 .debug_macro   0x0000000000023cc9      0x47c /home/ch/RIOT/tests/periph_gpio/bin/p-nucleo-wb55/cpu/cpu_init.o
 .debug_macro   0x0000000000024145      0xaf6 /home/ch/RIOT/tests/periph_gpio/bin/p-nucleo-wb55/cpu/cpu_init.o
 .debug_macro   0x0000000000024c3b       0x16 /home/ch/RIOT/tests/periph_gpio/bin/p-nucleo-wb55/cpu/cpu_init.o
 .debug_macro   0x0000000000024c51      0x4fe /home/ch/RIOT/tests/periph_gpio/bin/p-nucleo-wb55/cpu/cpu_init.o
 .debug_macro   0x000000000002514f      0x217 /home/ch/RIOT/tests/periph_gpio/bin/p-nucleo-wb55/isrpipe/isrpipe.o
 .debug_macro   0x0000000000025366      0xaf6 /home/ch/RIOT/tests/periph_gpio/bin/p-nucleo-wb55/isrpipe/isrpipe.o
 .debug_macro   0x0000000000025e5c      0x555 /home/ch/RIOT/tests/periph_gpio/bin/p-nucleo-wb55/newlib_syscalls_default/syscalls.o
 .debug_macro   0x00000000000263b1      0xaf6 /home/ch/RIOT/tests/periph_gpio/bin/p-nucleo-wb55/newlib_syscalls_default/syscalls.o
 .debug_macro   0x0000000000026ea7       0x10 /home/ch/RIOT/tests/periph_gpio/bin/p-nucleo-wb55/newlib_syscalls_default/syscalls.o
 .debug_macro   0x0000000000026eb7       0xcf /home/ch/RIOT/tests/periph_gpio/bin/p-nucleo-wb55/newlib_syscalls_default/syscalls.o
 .debug_macro   0x0000000000026f86       0x20 /home/ch/RIOT/tests/periph_gpio/bin/p-nucleo-wb55/newlib_syscalls_default/syscalls.o
 .debug_macro   0x0000000000026fa6       0xbe /home/ch/RIOT/tests/periph_gpio/bin/p-nucleo-wb55/newlib_syscalls_default/syscalls.o
 .debug_macro   0x0000000000027064       0x10 /home/ch/RIOT/tests/periph_gpio/bin/p-nucleo-wb55/newlib_syscalls_default/syscalls.o
 .debug_macro   0x0000000000027074      0x241 /home/ch/RIOT/tests/periph_gpio/bin/p-nucleo-wb55/newlib_syscalls_default/syscalls.o
 .debug_macro   0x00000000000272b5       0x10 /home/ch/RIOT/tests/periph_gpio/bin/p-nucleo-wb55/newlib_syscalls_default/syscalls.o
 .debug_macro   0x00000000000272c5       0x3c /home/ch/RIOT/tests/periph_gpio/bin/p-nucleo-wb55/newlib_syscalls_default/syscalls.o
 .debug_macro   0x0000000000027301       0xff /home/ch/RIOT/tests/periph_gpio/bin/p-nucleo-wb55/newlib_syscalls_default/syscalls.o
 .debug_macro   0x0000000000027400       0x16 /home/ch/RIOT/tests/periph_gpio/bin/p-nucleo-wb55/newlib_syscalls_default/syscalls.o
 .debug_macro   0x0000000000027416       0x10 /home/ch/RIOT/tests/periph_gpio/bin/p-nucleo-wb55/newlib_syscalls_default/syscalls.o
 .debug_macro   0x0000000000027426       0x10 /home/ch/RIOT/tests/periph_gpio/bin/p-nucleo-wb55/newlib_syscalls_default/syscalls.o
 .debug_macro   0x0000000000027436       0x2e /home/ch/RIOT/tests/periph_gpio/bin/p-nucleo-wb55/newlib_syscalls_default/syscalls.o
 .debug_macro   0x0000000000027464      0x102 /home/ch/RIOT/tests/periph_gpio/bin/p-nucleo-wb55/newlib_syscalls_default/syscalls.o
 .debug_macro   0x0000000000027566      0x3c1 /home/ch/RIOT/tests/periph_gpio/bin/p-nucleo-wb55/periph_common/init.o
 .debug_macro   0x0000000000027927      0xaf6 /home/ch/RIOT/tests/periph_gpio/bin/p-nucleo-wb55/periph_common/init.o
 .debug_macro   0x000000000002841d      0x413 /home/ch/RIOT/tests/periph_gpio/bin/p-nucleo-wb55/periph_common/timer.o
 .debug_macro   0x0000000000028830      0xaf6 /home/ch/RIOT/tests/periph_gpio/bin/p-nucleo-wb55/periph_common/timer.o
 .debug_macro   0x0000000000029326       0x1c /home/ch/RIOT/tests/periph_gpio/bin/p-nucleo-wb55/periph_common/timer.o
 .debug_macro   0x0000000000029342      0x43b /home/ch/RIOT/tests/periph_gpio/bin/p-nucleo-wb55/periph/gpio_all.o
 .debug_macro   0x000000000002977d      0xaf6 /home/ch/RIOT/tests/periph_gpio/bin/p-nucleo-wb55/periph/gpio_all.o
 .debug_macro   0x000000000002a273      0x413 /home/ch/RIOT/tests/periph_gpio/bin/p-nucleo-wb55/periph/pm.o
 .debug_macro   0x000000000002a686      0xaf6 /home/ch/RIOT/tests/periph_gpio/bin/p-nucleo-wb55/periph/pm.o
 .debug_macro   0x000000000002b17c      0x413 /home/ch/RIOT/tests/periph_gpio/bin/p-nucleo-wb55/periph/timer.o
 .debug_macro   0x000000000002b58f      0xaf6 /home/ch/RIOT/tests/periph_gpio/bin/p-nucleo-wb55/periph/timer.o
 .debug_macro   0x000000000002c085      0x466 /home/ch/RIOT/tests/periph_gpio/bin/p-nucleo-wb55/periph/uart.o
 .debug_macro   0x000000000002c4eb      0xaf6 /home/ch/RIOT/tests/periph_gpio/bin/p-nucleo-wb55/periph/uart.o
 .debug_macro   0x000000000002cfe1       0x10 /home/ch/RIOT/tests/periph_gpio/bin/p-nucleo-wb55/periph/uart.o
 .debug_macro   0x000000000002cff1      0x412 /home/ch/RIOT/tests/periph_gpio/bin/p-nucleo-wb55/pm_layered/pm.o
 .debug_macro   0x000000000002d403      0xaf6 /home/ch/RIOT/tests/periph_gpio/bin/p-nucleo-wb55/pm_layered/pm.o
 .debug_macro   0x000000000002def9       0x28 /home/ch/RIOT/tests/periph_gpio/bin/p-nucleo-wb55/pm_layered/pm.o
 .debug_macro   0x000000000002df21       0x27 /home/ch/RIOT/tests/periph_gpio/bin/p-nucleo-wb55/pm_layered/pm.o
 .debug_macro   0x000000000002df48      0x410 /home/ch/RIOT/tests/periph_gpio/bin/p-nucleo-wb55/shell_commands/sc_pm.o
 .debug_macro   0x000000000002e358      0xaf6 /home/ch/RIOT/tests/periph_gpio/bin/p-nucleo-wb55/shell_commands/sc_pm.o
 .debug_macro   0x000000000002ee4e      0x3ce /home/ch/RIOT/tests/periph_gpio/bin/p-nucleo-wb55/shell_commands/sc_sys.o
 .debug_macro   0x000000000002f21c      0xaf6 /home/ch/RIOT/tests/periph_gpio/bin/p-nucleo-wb55/shell_commands/sc_sys.o
 .debug_macro   0x000000000002fd12      0x41e /home/ch/RIOT/tests/periph_gpio/bin/p-nucleo-wb55/shell_commands/shell_commands.o
 .debug_macro   0x0000000000030130      0xaf6 /home/ch/RIOT/tests/periph_gpio/bin/p-nucleo-wb55/shell_commands/shell_commands.o
 .debug_macro   0x0000000000030c26      0x10e /home/ch/RIOT/tests/periph_gpio/bin/p-nucleo-wb55/shell_commands/shell_commands.o
 .debug_macro   0x0000000000030d34       0x8d /home/ch/RIOT/tests/periph_gpio/bin/p-nucleo-wb55/shell_commands/shell_commands.o
 .debug_macro   0x0000000000030dc1       0x22 /home/ch/RIOT/tests/periph_gpio/bin/p-nucleo-wb55/shell_commands/shell_commands.o
 .debug_macro   0x0000000000030de3      0x499 /home/ch/RIOT/tests/periph_gpio/bin/p-nucleo-wb55/shell/shell.o
 .debug_macro   0x000000000003127c      0xaf6 /home/ch/RIOT/tests/periph_gpio/bin/p-nucleo-wb55/shell/shell.o
 .debug_macro   0x0000000000031d72      0x4d0 /home/ch/RIOT/tests/periph_gpio/bin/p-nucleo-wb55/stdio_uart/stdio_uart.o
 .debug_macro   0x0000000000032242      0xaf6 /home/ch/RIOT/tests/periph_gpio/bin/p-nucleo-wb55/stdio_uart/stdio_uart.o
 .debug_macro   0x0000000000032d38       0x16 /home/ch/RIOT/tests/periph_gpio/bin/p-nucleo-wb55/stdio_uart/stdio_uart.o
 .debug_macro   0x0000000000032d4e      0x43e /home/ch/RIOT/tests/periph_gpio/bin/p-nucleo-wb55/stm32_clk/stmclk_common.o
 .debug_macro   0x000000000003318c      0xaf6 /home/ch/RIOT/tests/periph_gpio/bin/p-nucleo-wb55/stm32_clk/stmclk_common.o
 .debug_macro   0x0000000000033c82      0x558 /home/ch/RIOT/tests/periph_gpio/bin/p-nucleo-wb55/stm32_clk/stmclk_l4wx.o
 .debug_macro   0x00000000000341da      0xaf6 /home/ch/RIOT/tests/periph_gpio/bin/p-nucleo-wb55/stm32_clk/stmclk_l4wx.o
 .debug_macro   0x0000000000034cd0       0xb7 /home/ch/RIOT/tests/periph_gpio/bin/p-nucleo-wb55/stm32_vectors/STM32WB55xx.o
 .debug_macro   0x0000000000034d87      0xaf6 /home/ch/RIOT/tests/periph_gpio/bin/p-nucleo-wb55/stm32_vectors/STM32WB55xx.o
 .debug_macro   0x000000000003587d       0x16 /home/ch/RIOT/tests/periph_gpio/bin/p-nucleo-wb55/stm32_vectors/STM32WB55xx.o
 .debug_macro   0x0000000000035893      0x110 /home/ch/RIOT/tests/periph_gpio/bin/p-nucleo-wb55/tsrb/tsrb.o
 .debug_macro   0x00000000000359a3      0xaf6 /home/ch/RIOT/tests/periph_gpio/bin/p-nucleo-wb55/tsrb/tsrb.o
 .debug_macro   0x0000000000036499      0x41b /home/ch/RIOT/tests/periph_gpio/bin/p-nucleo-wb55/ztimer_core/core.o
 .debug_macro   0x00000000000368b4      0xaf6 /home/ch/RIOT/tests/periph_gpio/bin/p-nucleo-wb55/ztimer_core/core.o
 .debug_macro   0x00000000000373aa      0x511 /home/ch/RIOT/tests/periph_gpio/bin/p-nucleo-wb55/ztimer_core/init.o
 .debug_macro   0x00000000000378bb      0xaf6 /home/ch/RIOT/tests/periph_gpio/bin/p-nucleo-wb55/ztimer_core/init.o
 .debug_macro   0x00000000000383b1       0x22 /home/ch/RIOT/tests/periph_gpio/bin/p-nucleo-wb55/ztimer_core/init.o
 .debug_macro   0x00000000000383d3       0x41 /home/ch/RIOT/tests/periph_gpio/bin/p-nucleo-wb55/ztimer_core/init.o
 .debug_macro   0x0000000000038414      0x461 /home/ch/RIOT/tests/periph_gpio/bin/p-nucleo-wb55/ztimer_core/periph_timer.o
 .debug_macro   0x0000000000038875      0xaf6 /home/ch/RIOT/tests/periph_gpio/bin/p-nucleo-wb55/ztimer_core/periph_timer.o
 .debug_macro   0x000000000003936b      0x2a2 /home/ch/RIOT/tests/periph_gpio/bin/p-nucleo-wb55/ztimer_core/util.o
 .debug_macro   0x000000000003960d      0xaf6 /home/ch/RIOT/tests/periph_gpio/bin/p-nucleo-wb55/ztimer_core/util.o

.debug_line     0x0000000000000000    0x1cac2
 .debug_line    0x0000000000000000      0xf81 /home/ch/RIOT/tests/periph_gpio/bin/p-nucleo-wb55/application_tests_periph_gpio/main.o
 .debug_line    0x0000000000000f81      0x318 /home/ch/RIOT/tests/periph_gpio/bin/p-nucleo-wb55/auto_init/auto_init.o
 .debug_line    0x0000000000001299      0x5a8 /home/ch/RIOT/tests/periph_gpio/bin/p-nucleo-wb55/benchmark/benchmark.o
 .debug_line    0x0000000000001841      0x8d7 /home/ch/RIOT/tests/periph_gpio/bin/p-nucleo-wb55/boards_common_nucleo/board_common_nucleo_init.o
 .debug_line    0x0000000000002118      0x7e4 /home/ch/RIOT/tests/periph_gpio/bin/p-nucleo-wb55/core/init.o
 .debug_line    0x00000000000028fc      0xc4f /home/ch/RIOT/tests/periph_gpio/bin/p-nucleo-wb55/core/mutex.o
 .debug_line    0x000000000000354b      0x83b /home/ch/RIOT/tests/periph_gpio/bin/p-nucleo-wb55/core/panic.o
 .debug_line    0x0000000000003d86      0x942 /home/ch/RIOT/tests/periph_gpio/bin/p-nucleo-wb55/core/sched.o
 .debug_line    0x00000000000046c8      0xe77 /home/ch/RIOT/tests/periph_gpio/bin/p-nucleo-wb55/core/thread.o
 .debug_line    0x000000000000553f      0x658 /home/ch/RIOT/tests/periph_gpio/bin/p-nucleo-wb55/cortexm_common/cortexm_init.o
 .debug_line    0x0000000000005b97      0x561 /home/ch/RIOT/tests/periph_gpio/bin/p-nucleo-wb55/cortexm_common/panic.o
 .debug_line    0x00000000000060f8      0x777 /home/ch/RIOT/tests/periph_gpio/bin/p-nucleo-wb55/cortexm_common_periph/pm.o
 .debug_line    0x000000000000686f      0x840 /home/ch/RIOT/tests/periph_gpio/bin/p-nucleo-wb55/cortexm_common/thread_arch.o
 .debug_line    0x00000000000070af      0xb6b /home/ch/RIOT/tests/periph_gpio/bin/p-nucleo-wb55/cortexm_common/vectors_cortexm.o
 .debug_line    0x0000000000007c1a      0x936 /home/ch/RIOT/tests/periph_gpio/bin/p-nucleo-wb55/cpu/cpu_common.o
 .debug_line    0x0000000000008550      0x945 /home/ch/RIOT/tests/periph_gpio/bin/p-nucleo-wb55/cpu/cpu_init.o
 .debug_line    0x0000000000008e95      0x565 /home/ch/RIOT/tests/periph_gpio/bin/p-nucleo-wb55/isrpipe/isrpipe.o
 .debug_line    0x00000000000093fa      0xd49 /home/ch/RIOT/tests/periph_gpio/bin/p-nucleo-wb55/newlib_syscalls_default/syscalls.o
 .debug_line    0x000000000000a143      0x6ee /home/ch/RIOT/tests/periph_gpio/bin/p-nucleo-wb55/periph_common/init.o
 .debug_line    0x000000000000a831      0x8d3 /home/ch/RIOT/tests/periph_gpio/bin/p-nucleo-wb55/periph_common/timer.o
 .debug_line    0x000000000000b104      0xe3d /home/ch/RIOT/tests/periph_gpio/bin/p-nucleo-wb55/periph/gpio_all.o
 .debug_line    0x000000000000bf41      0x878 /home/ch/RIOT/tests/periph_gpio/bin/p-nucleo-wb55/periph/pm.o
 .debug_line    0x000000000000c7b9      0xba2 /home/ch/RIOT/tests/periph_gpio/bin/p-nucleo-wb55/periph/timer.o
 .debug_line    0x000000000000d35b      0xcb6 /home/ch/RIOT/tests/periph_gpio/bin/p-nucleo-wb55/periph/uart.o
 .debug_line    0x000000000000e011      0xa00 /home/ch/RIOT/tests/periph_gpio/bin/p-nucleo-wb55/pm_layered/pm.o
 .debug_line    0x000000000000ea11      0x98c /home/ch/RIOT/tests/periph_gpio/bin/p-nucleo-wb55/shell_commands/sc_pm.o
 .debug_line    0x000000000000f39d      0x75f /home/ch/RIOT/tests/periph_gpio/bin/p-nucleo-wb55/shell_commands/sc_sys.o
 .debug_line    0x000000000000fafc      0x75c /home/ch/RIOT/tests/periph_gpio/bin/p-nucleo-wb55/shell_commands/shell_commands.o
 .debug_line    0x0000000000010258      0xc4e /home/ch/RIOT/tests/periph_gpio/bin/p-nucleo-wb55/shell/shell.o
 .debug_line    0x0000000000010ea6      0x9fb /home/ch/RIOT/tests/periph_gpio/bin/p-nucleo-wb55/stdio_uart/stdio_uart.o
 .debug_line    0x00000000000118a1      0x987 /home/ch/RIOT/tests/periph_gpio/bin/p-nucleo-wb55/stm32_clk/stmclk_common.o
 .debug_line    0x0000000000012228      0xa36 /home/ch/RIOT/tests/periph_gpio/bin/p-nucleo-wb55/stm32_clk/stmclk_l4wx.o
 .debug_line    0x0000000000012c5e      0x279 /home/ch/RIOT/tests/periph_gpio/bin/p-nucleo-wb55/stm32_vectors/STM32WB55xx.o
 .debug_line    0x0000000000012ed7      0xb7b /home/ch/RIOT/tests/periph_gpio/bin/p-nucleo-wb55/tsrb/tsrb.o
 .debug_line    0x0000000000013a52      0xf41 /home/ch/RIOT/tests/periph_gpio/bin/p-nucleo-wb55/ztimer_core/core.o
 .debug_line    0x0000000000014993      0x9a3 /home/ch/RIOT/tests/periph_gpio/bin/p-nucleo-wb55/ztimer_core/init.o
 .debug_line    0x0000000000015336      0x98f /home/ch/RIOT/tests/periph_gpio/bin/p-nucleo-wb55/ztimer_core/periph_timer.o
 .debug_line    0x0000000000015cc5      0x982 /home/ch/RIOT/tests/periph_gpio/bin/p-nucleo-wb55/ztimer_core/util.o
 .debug_line    0x0000000000016647       0x60 /usr/lib/gcc/arm-none-eabi/9.2.1/thumb/v7e-m/nofp/libgcc.a(_aeabi_uldivmod.o)
 .debug_line    0x00000000000166a7      0x610 /usr/lib/gcc/arm-none-eabi/9.2.1/thumb/v7e-m/nofp/libgcc.a(_udivmoddi4.o)
 .debug_line    0x0000000000016cb7       0x60 /usr/lib/gcc/arm-none-eabi/9.2.1/thumb/v7e-m/nofp/libgcc.a(_dvmd_tls.o)
 .debug_line    0x0000000000016d17      0x14e /usr/lib/gcc/arm-none-eabi/9.2.1/../../../arm-none-eabi/lib/thumb/v7e-m/nofp/libc_nano.a(lib_a-atoi.o)
 .debug_line    0x0000000000016e65      0x14e /usr/lib/gcc/arm-none-eabi/9.2.1/../../../arm-none-eabi/lib/thumb/v7e-m/nofp/libc_nano.a(lib_a-atol.o)
 .debug_line    0x0000000000016fb3      0x108 /usr/lib/gcc/arm-none-eabi/9.2.1/../../../arm-none-eabi/lib/thumb/v7e-m/nofp/libc_nano.a(lib_a-errno.o)
 .debug_line    0x00000000000170bb      0x418 /usr/lib/gcc/arm-none-eabi/9.2.1/../../../arm-none-eabi/lib/thumb/v7e-m/nofp/libc_nano.a(lib_a-fflush.o)
 .debug_line    0x00000000000174d3      0x561 /usr/lib/gcc/arm-none-eabi/9.2.1/../../../arm-none-eabi/lib/thumb/v7e-m/nofp/libc_nano.a(lib_a-findfp.o)
 .debug_line    0x0000000000017a34      0x289 /usr/lib/gcc/arm-none-eabi/9.2.1/../../../arm-none-eabi/lib/thumb/v7e-m/nofp/libc_nano.a(lib_a-fwalk.o)
 .debug_line    0x0000000000017cbd      0x1f5 /usr/lib/gcc/arm-none-eabi/9.2.1/../../../arm-none-eabi/lib/thumb/v7e-m/nofp/libc_nano.a(lib_a-getchar.o)
 .debug_line    0x0000000000017eb2       0xe3 /usr/lib/gcc/arm-none-eabi/9.2.1/../../../arm-none-eabi/lib/thumb/v7e-m/nofp/libc_nano.a(lib_a-impure.o)
 .debug_line    0x0000000000017f95      0x10d /usr/lib/gcc/arm-none-eabi/9.2.1/../../../arm-none-eabi/lib/thumb/v7e-m/nofp/libc_nano.a(lib_a-init.o)
 .debug_line    0x00000000000180a2       0xbe /usr/lib/gcc/arm-none-eabi/9.2.1/../../../arm-none-eabi/lib/thumb/v7e-m/nofp/libc_nano.a(lib_a-memcpy.o)
 .debug_line    0x0000000000018160      0x26b /usr/lib/gcc/arm-none-eabi/9.2.1/../../../arm-none-eabi/lib/thumb/v7e-m/nofp/libc_nano.a(lib_a-memset.o)
 .debug_line    0x00000000000183cb      0x2af /usr/lib/gcc/arm-none-eabi/9.2.1/../../../arm-none-eabi/lib/thumb/v7e-m/nofp/libc_nano.a(lib_a-nano-freer.o)
 .debug_line    0x000000000001867a      0x2f2 /usr/lib/gcc/arm-none-eabi/9.2.1/../../../arm-none-eabi/lib/thumb/v7e-m/nofp/libc_nano.a(lib_a-nano-mallocr.o)
 .debug_line    0x000000000001896c      0x1fc /usr/lib/gcc/arm-none-eabi/9.2.1/../../../arm-none-eabi/lib/thumb/v7e-m/nofp/libc_nano.a(lib_a-printf.o)
 .debug_line    0x0000000000018b68      0x1ec /usr/lib/gcc/arm-none-eabi/9.2.1/../../../arm-none-eabi/lib/thumb/v7e-m/nofp/libc_nano.a(lib_a-putchar.o)
 .debug_line    0x0000000000018d54      0x316 /usr/lib/gcc/arm-none-eabi/9.2.1/../../../arm-none-eabi/lib/thumb/v7e-m/nofp/libc_nano.a(lib_a-puts.o)
 .debug_line    0x000000000001906a      0x25f /usr/lib/gcc/arm-none-eabi/9.2.1/../../../arm-none-eabi/lib/thumb/v7e-m/nofp/libc_nano.a(lib_a-stdio.o)
 .debug_line    0x00000000000192c9      0x137 /usr/lib/gcc/arm-none-eabi/9.2.1/../../../arm-none-eabi/lib/thumb/v7e-m/nofp/libc_nano.a(lib_a-strcmp.o)
 .debug_line    0x0000000000019400       0xaf /usr/lib/gcc/arm-none-eabi/9.2.1/../../../arm-none-eabi/lib/thumb/v7e-m/nofp/libc_nano.a(lib_a-strlen.o)
 .debug_line    0x00000000000194af      0x3da /usr/lib/gcc/arm-none-eabi/9.2.1/../../../arm-none-eabi/lib/thumb/v7e-m/nofp/libc_nano.a(lib_a-strtol.o)
 .debug_line    0x0000000000019889      0x27c /usr/lib/gcc/arm-none-eabi/9.2.1/../../../arm-none-eabi/lib/thumb/v7e-m/nofp/libc_nano.a(lib_a-wbuf.o)
 .debug_line    0x0000000000019b05      0x311 /usr/lib/gcc/arm-none-eabi/9.2.1/../../../arm-none-eabi/lib/thumb/v7e-m/nofp/libc_nano.a(lib_a-wsetup.o)
 .debug_line    0x0000000000019e16      0x154 /usr/lib/gcc/arm-none-eabi/9.2.1/../../../arm-none-eabi/lib/thumb/v7e-m/nofp/libc_nano.a(lib_a-ctype_.o)
 .debug_line    0x0000000000019f6a      0x2f2 /usr/lib/gcc/arm-none-eabi/9.2.1/../../../arm-none-eabi/lib/thumb/v7e-m/nofp/libc_nano.a(lib_a-getc.o)
 .debug_line    0x000000000001a25c      0x36f /usr/lib/gcc/arm-none-eabi/9.2.1/../../../arm-none-eabi/lib/thumb/v7e-m/nofp/libc_nano.a(lib_a-makebuf.o)
 .debug_line    0x000000000001a5cb      0x13d /usr/lib/gcc/arm-none-eabi/9.2.1/../../../arm-none-eabi/lib/thumb/v7e-m/nofp/libc_nano.a(lib_a-mlock.o)
 .debug_line    0x000000000001a708      0x1c5 /usr/lib/gcc/arm-none-eabi/9.2.1/../../../arm-none-eabi/lib/thumb/v7e-m/nofp/libc_nano.a(lib_a-nano-reallocr.o)
 .debug_line    0x000000000001a8cd      0x726 /usr/lib/gcc/arm-none-eabi/9.2.1/../../../arm-none-eabi/lib/thumb/v7e-m/nofp/libc_nano.a(lib_a-nano-vfprintf.o)
 .debug_line    0x000000000001aff3      0x790 /usr/lib/gcc/arm-none-eabi/9.2.1/../../../arm-none-eabi/lib/thumb/v7e-m/nofp/libc_nano.a(lib_a-nano-vfprintf_i.o)
 .debug_line    0x000000000001b783      0x364 /usr/lib/gcc/arm-none-eabi/9.2.1/../../../arm-none-eabi/lib/thumb/v7e-m/nofp/libc_nano.a(lib_a-putc.o)
 .debug_line    0x000000000001bae7      0x1ef /usr/lib/gcc/arm-none-eabi/9.2.1/../../../arm-none-eabi/lib/thumb/v7e-m/nofp/libc_nano.a(lib_a-rget.o)
 .debug_line    0x000000000001bcd6      0x5e8 /usr/lib/gcc/arm-none-eabi/9.2.1/../../../arm-none-eabi/lib/thumb/v7e-m/nofp/libc_nano.a(lib_a-fvwrite.o)
 .debug_line    0x000000000001c2be       0xa4 /usr/lib/gcc/arm-none-eabi/9.2.1/../../../arm-none-eabi/lib/thumb/v7e-m/nofp/libc_nano.a(lib_a-memchr.o)
 .debug_line    0x000000000001c362      0x287 /usr/lib/gcc/arm-none-eabi/9.2.1/../../../arm-none-eabi/lib/thumb/v7e-m/nofp/libc_nano.a(lib_a-memmove.o)
 .debug_line    0x000000000001c5e9      0x166 /usr/lib/gcc/arm-none-eabi/9.2.1/../../../arm-none-eabi/lib/thumb/v7e-m/nofp/libc_nano.a(lib_a-nano-msizer.o)
 .debug_line    0x000000000001c74f      0x373 /usr/lib/gcc/arm-none-eabi/9.2.1/../../../arm-none-eabi/lib/thumb/v7e-m/nofp/libc_nano.a(lib_a-refill.o)

.debug_str      0x0000000000000000    0x89140
 .debug_str     0x0000000000000000    0x7fac4 /home/ch/RIOT/tests/periph_gpio/bin/p-nucleo-wb55/application_tests_periph_gpio/main.o
                                      0x7fff8 (size before relaxing)
 .debug_str     0x000000000007fac4      0x5c2 /home/ch/RIOT/tests/periph_gpio/bin/p-nucleo-wb55/auto_init/auto_init.o
                                       0x992e (size before relaxing)
 .debug_str     0x0000000000080086       0xa3 /home/ch/RIOT/tests/periph_gpio/bin/p-nucleo-wb55/benchmark/benchmark.o
                                      0x7e16f (size before relaxing)
 .debug_str     0x0000000000080129      0x41e /home/ch/RIOT/tests/periph_gpio/bin/p-nucleo-wb55/boards_common_nucleo/board_common_nucleo_init.o
                                      0x7e7b3 (size before relaxing)
 .debug_str     0x0000000000080547      0x773 /home/ch/RIOT/tests/periph_gpio/bin/p-nucleo-wb55/core/init.o
                                      0x7e430 (size before relaxing)
 .debug_str     0x0000000000080cba      0x315 /home/ch/RIOT/tests/periph_gpio/bin/p-nucleo-wb55/core/mutex.o
                                      0x7d6d6 (size before relaxing)
 .debug_str     0x0000000000080fcf       0xc2 /home/ch/RIOT/tests/periph_gpio/bin/p-nucleo-wb55/core/panic.o
                                      0x7de8c (size before relaxing)
 .debug_str     0x0000000000081091      0x4bd /home/ch/RIOT/tests/periph_gpio/bin/p-nucleo-wb55/core/sched.o
                                      0x7d584 (size before relaxing)
 .debug_str     0x000000000008154e      0x24f /home/ch/RIOT/tests/periph_gpio/bin/p-nucleo-wb55/core/thread.o
                                      0x7daf6 (size before relaxing)
 .debug_str     0x000000000008179d      0x5e0 /home/ch/RIOT/tests/periph_gpio/bin/p-nucleo-wb55/cortexm_common/cortexm_init.o
                                      0x7d430 (size before relaxing)
 .debug_str     0x0000000000081d7d       0x64 /home/ch/RIOT/tests/periph_gpio/bin/p-nucleo-wb55/cortexm_common/panic.o
                                      0x7d002 (size before relaxing)
 .debug_str     0x0000000000081de1       0xb1 /home/ch/RIOT/tests/periph_gpio/bin/p-nucleo-wb55/cortexm_common_periph/pm.o
                                      0x7dc2e (size before relaxing)
 .debug_str     0x0000000000081e92      0x1a8 /home/ch/RIOT/tests/periph_gpio/bin/p-nucleo-wb55/cortexm_common/thread_arch.o
                                      0x7d281 (size before relaxing)
 .debug_str     0x000000000008203a      0x41c /home/ch/RIOT/tests/periph_gpio/bin/p-nucleo-wb55/cortexm_common/vectors_cortexm.o
                                      0x7ec66 (size before relaxing)
 .debug_str     0x0000000000082456      0x269 /home/ch/RIOT/tests/periph_gpio/bin/p-nucleo-wb55/cpu/cpu_common.o
                                      0x7e823 (size before relaxing)
 .debug_str     0x00000000000826bf     0x10fd /home/ch/RIOT/tests/periph_gpio/bin/p-nucleo-wb55/cpu/cpu_init.o
                                      0x7f7a4 (size before relaxing)
 .debug_str     0x00000000000837bc      0x1a7 /home/ch/RIOT/tests/periph_gpio/bin/p-nucleo-wb55/isrpipe/isrpipe.o
                                      0x799c2 (size before relaxing)
 .debug_str     0x0000000000083963      0x8c9 /home/ch/RIOT/tests/periph_gpio/bin/p-nucleo-wb55/newlib_syscalls_default/syscalls.o
                                      0x806cf (size before relaxing)
 .debug_str     0x000000000008422c       0x9e /home/ch/RIOT/tests/periph_gpio/bin/p-nucleo-wb55/periph_common/init.o
                                      0x7dba4 (size before relaxing)
 .debug_str     0x00000000000842ca      0x11d /home/ch/RIOT/tests/periph_gpio/bin/p-nucleo-wb55/periph_common/timer.o
                                      0x7e4e7 (size before relaxing)
 .debug_str     0x00000000000843e7      0x29c /home/ch/RIOT/tests/periph_gpio/bin/p-nucleo-wb55/periph/gpio_all.o
                                      0x7eee7 (size before relaxing)
 .debug_str     0x0000000000084683      0x1b2 /home/ch/RIOT/tests/periph_gpio/bin/p-nucleo-wb55/periph/pm.o
                                      0x7df95 (size before relaxing)
 .debug_str     0x0000000000084835       0xc0 /home/ch/RIOT/tests/periph_gpio/bin/p-nucleo-wb55/periph/timer.o
                                      0x7ea67 (size before relaxing)
 .debug_str     0x00000000000848f5      0x27e /home/ch/RIOT/tests/periph_gpio/bin/p-nucleo-wb55/periph/uart.o
                                      0x7f390 (size before relaxing)
 .debug_str     0x0000000000084b73      0x41a /home/ch/RIOT/tests/periph_gpio/bin/p-nucleo-wb55/pm_layered/pm.o
                                      0x7e280 (size before relaxing)
 .debug_str     0x0000000000084f8d      0x10d /home/ch/RIOT/tests/periph_gpio/bin/p-nucleo-wb55/shell_commands/sc_pm.o
                                      0x7dd2b (size before relaxing)
 .debug_str     0x000000000008509a       0x98 /home/ch/RIOT/tests/periph_gpio/bin/p-nucleo-wb55/shell_commands/sc_sys.o
                                      0x7dbde (size before relaxing)
 .debug_str     0x0000000000085132      0x145 /home/ch/RIOT/tests/periph_gpio/bin/p-nucleo-wb55/shell_commands/shell_commands.o
                                      0x7e32f (size before relaxing)
 .debug_str     0x0000000000085277      0x34e /home/ch/RIOT/tests/periph_gpio/bin/p-nucleo-wb55/shell/shell.o
                                      0x7ebdd (size before relaxing)
 .debug_str     0x00000000000855c5      0x133 /home/ch/RIOT/tests/periph_gpio/bin/p-nucleo-wb55/stdio_uart/stdio_uart.o
                                      0x7ffa4 (size before relaxing)
 .debug_str     0x00000000000856f8      0x1dd /home/ch/RIOT/tests/periph_gpio/bin/p-nucleo-wb55/stm32_clk/stmclk_common.o
                                      0x7e7c6 (size before relaxing)
 .debug_str     0x00000000000858d5      0x7c3 /home/ch/RIOT/tests/periph_gpio/bin/p-nucleo-wb55/stm32_clk/stmclk_l4wx.o
                                      0x7ee3e (size before relaxing)
 .debug_str     0x0000000000086098       0xbd /home/ch/RIOT/tests/periph_gpio/bin/p-nucleo-wb55/stm32_vectors/STM32WB55xx.o
                                      0x778f4 (size before relaxing)
 .debug_str     0x0000000000086155       0xc3 /home/ch/RIOT/tests/periph_gpio/bin/p-nucleo-wb55/tsrb/tsrb.o
                                      0x77e4c (size before relaxing)
 .debug_str     0x0000000000086218      0x15f /home/ch/RIOT/tests/periph_gpio/bin/p-nucleo-wb55/ztimer_core/core.o
                                      0x7f0ef (size before relaxing)
 .debug_str     0x0000000000086377      0x3e3 /home/ch/RIOT/tests/periph_gpio/bin/p-nucleo-wb55/ztimer_core/init.o
                                      0x7fe01 (size before relaxing)
 .debug_str     0x000000000008675a      0x146 /home/ch/RIOT/tests/periph_gpio/bin/p-nucleo-wb55/ztimer_core/periph_timer.o
                                      0x7f75f (size before relaxing)
 .debug_str     0x00000000000868a0      0x25c /home/ch/RIOT/tests/periph_gpio/bin/p-nucleo-wb55/ztimer_core/util.o
                                      0x7cb9c (size before relaxing)
 .debug_str     0x0000000000086afc       0xa0 /usr/lib/gcc/arm-none-eabi/9.2.1/thumb/v7e-m/nofp/libgcc.a(_aeabi_uldivmod.o)
 .debug_str     0x0000000000086b9c     0x10de /usr/lib/gcc/arm-none-eabi/9.2.1/thumb/v7e-m/nofp/libgcc.a(_udivmoddi4.o)
                                       0x11e0 (size before relaxing)
 .debug_str     0x0000000000087c7a       0x30 /usr/lib/gcc/arm-none-eabi/9.2.1/thumb/v7e-m/nofp/libgcc.a(_dvmd_tls.o)
                                         0xa4 (size before relaxing)
 .debug_str     0x0000000000087caa      0x142 /usr/lib/gcc/arm-none-eabi/9.2.1/../../../arm-none-eabi/lib/thumb/v7e-m/nofp/libc_nano.a(lib_a-atoi.o)
                                        0x5f8 (size before relaxing)
 .debug_str     0x0000000000087dec       0x3a /usr/lib/gcc/arm-none-eabi/9.2.1/../../../arm-none-eabi/lib/thumb/v7e-m/nofp/libc_nano.a(lib_a-atol.o)
                                        0x5f8 (size before relaxing)
 .debug_str     0x0000000000087e26       0x90 /usr/lib/gcc/arm-none-eabi/9.2.1/../../../arm-none-eabi/lib/thumb/v7e-m/nofp/libc_nano.a(lib_a-errno.o)
                                        0x5ee (size before relaxing)
 .debug_str     0x0000000000087eb6      0x1de /usr/lib/gcc/arm-none-eabi/9.2.1/../../../arm-none-eabi/lib/thumb/v7e-m/nofp/libc_nano.a(lib_a-fflush.o)
                                        0x78e (size before relaxing)
 .debug_str     0x0000000000088094      0x17c /usr/lib/gcc/arm-none-eabi/9.2.1/../../../arm-none-eabi/lib/thumb/v7e-m/nofp/libc_nano.a(lib_a-findfp.o)
                                        0x89e (size before relaxing)
 .debug_str     0x0000000000088210       0x41 /usr/lib/gcc/arm-none-eabi/9.2.1/../../../arm-none-eabi/lib/thumb/v7e-m/nofp/libc_nano.a(lib_a-fwalk.o)
                                        0x752 (size before relaxing)
 .debug_str     0x0000000000088251       0x47 /usr/lib/gcc/arm-none-eabi/9.2.1/../../../arm-none-eabi/lib/thumb/v7e-m/nofp/libc_nano.a(lib_a-getchar.o)
                                        0x735 (size before relaxing)
 .debug_str     0x0000000000088298       0x9d /usr/lib/gcc/arm-none-eabi/9.2.1/../../../arm-none-eabi/lib/thumb/v7e-m/nofp/libc_nano.a(lib_a-impure.o)
                                        0x5dc (size before relaxing)
 .debug_str     0x0000000000088335       0xdb /usr/lib/gcc/arm-none-eabi/9.2.1/../../../arm-none-eabi/lib/thumb/v7e-m/nofp/libc_nano.a(lib_a-init.o)
                                        0x223 (size before relaxing)
 .debug_str     0x0000000000088410       0xa7 /usr/lib/gcc/arm-none-eabi/9.2.1/../../../arm-none-eabi/lib/thumb/v7e-m/nofp/libc_nano.a(lib_a-memcpy.o)
                                         0xb3 (size before relaxing)
 .debug_str     0x00000000000884b7      0x303 /usr/lib/gcc/arm-none-eabi/9.2.1/../../../arm-none-eabi/lib/thumb/v7e-m/nofp/libc_nano.a(lib_a-memset.o)
                                        0x909 (size before relaxing)
 .debug_str     0x00000000000887ba       0xe2 /usr/lib/gcc/arm-none-eabi/9.2.1/../../../arm-none-eabi/lib/thumb/v7e-m/nofp/libc_nano.a(lib_a-nano-freer.o)
                                        0x70c (size before relaxing)
 .debug_str     0x000000000008889c       0x2a /usr/lib/gcc/arm-none-eabi/9.2.1/../../../arm-none-eabi/lib/thumb/v7e-m/nofp/libc_nano.a(lib_a-nano-mallocr.o)
                                        0x723 (size before relaxing)
 .debug_str     0x00000000000888c6       0x4e /usr/lib/gcc/arm-none-eabi/9.2.1/../../../arm-none-eabi/lib/thumb/v7e-m/nofp/libc_nano.a(lib_a-printf.o)
                                        0x756 (size before relaxing)
 .debug_str     0x0000000000088914       0x47 /usr/lib/gcc/arm-none-eabi/9.2.1/../../../arm-none-eabi/lib/thumb/v7e-m/nofp/libc_nano.a(lib_a-putchar.o)
                                        0x735 (size before relaxing)
 .debug_str     0x000000000008895b       0x59 /usr/lib/gcc/arm-none-eabi/9.2.1/../../../arm-none-eabi/lib/thumb/v7e-m/nofp/libc_nano.a(lib_a-puts.o)
                                        0x75f (size before relaxing)
 .debug_str     0x00000000000889b4       0x66 /usr/lib/gcc/arm-none-eabi/9.2.1/../../../arm-none-eabi/lib/thumb/v7e-m/nofp/libc_nano.a(lib_a-stdio.o)
                                        0x7a6 (size before relaxing)
 .debug_str     0x0000000000088a1a       0x42 /usr/lib/gcc/arm-none-eabi/9.2.1/../../../arm-none-eabi/lib/thumb/v7e-m/nofp/libc_nano.a(lib_a-strcmp.o)
                                         0xb2 (size before relaxing)
 .debug_str     0x0000000000088a5c       0x42 /usr/lib/gcc/arm-none-eabi/9.2.1/../../../arm-none-eabi/lib/thumb/v7e-m/nofp/libc_nano.a(lib_a-strlen.o)
                                         0xb2 (size before relaxing)
 .debug_str     0x0000000000088a9e       0x9e /usr/lib/gcc/arm-none-eabi/9.2.1/../../../arm-none-eabi/lib/thumb/v7e-m/nofp/libc_nano.a(lib_a-strtol.o)
                                        0x99f (size before relaxing)
 .debug_str     0x0000000000088b3c       0x39 /usr/lib/gcc/arm-none-eabi/9.2.1/../../../arm-none-eabi/lib/thumb/v7e-m/nofp/libc_nano.a(lib_a-wbuf.o)
                                        0x765 (size before relaxing)
 .debug_str     0x0000000000088b75       0x40 /usr/lib/gcc/arm-none-eabi/9.2.1/../../../arm-none-eabi/lib/thumb/v7e-m/nofp/libc_nano.a(lib_a-wsetup.o)
                                        0x760 (size before relaxing)
 .debug_str     0x0000000000088bb5       0x91 /usr/lib/gcc/arm-none-eabi/9.2.1/../../../arm-none-eabi/lib/thumb/v7e-m/nofp/libc_nano.a(lib_a-ctype_.o)
                                        0x8f4 (size before relaxing)
 .debug_str     0x0000000000088c46       0x40 /usr/lib/gcc/arm-none-eabi/9.2.1/../../../arm-none-eabi/lib/thumb/v7e-m/nofp/libc_nano.a(lib_a-getc.o)
                                        0x74a (size before relaxing)
 .debug_str     0x0000000000088c86       0x51 /usr/lib/gcc/arm-none-eabi/9.2.1/../../../arm-none-eabi/lib/thumb/v7e-m/nofp/libc_nano.a(lib_a-makebuf.o)
                                        0x8d3 (size before relaxing)
 .debug_str     0x0000000000088cd7       0x4c /usr/lib/gcc/arm-none-eabi/9.2.1/../../../arm-none-eabi/lib/thumb/v7e-m/nofp/libc_nano.a(lib_a-mlock.o)
                                        0x608 (size before relaxing)
 .debug_str     0x0000000000088d23       0x35 /usr/lib/gcc/arm-none-eabi/9.2.1/../../../arm-none-eabi/lib/thumb/v7e-m/nofp/libc_nano.a(lib_a-nano-reallocr.o)
                                        0x709 (size before relaxing)
 .debug_str     0x0000000000088d58      0x189 /usr/lib/gcc/arm-none-eabi/9.2.1/../../../arm-none-eabi/lib/thumb/v7e-m/nofp/libc_nano.a(lib_a-nano-vfprintf.o)
                                        0xc28 (size before relaxing)
 .debug_str     0x0000000000088ee1       0x94 /usr/lib/gcc/arm-none-eabi/9.2.1/../../../arm-none-eabi/lib/thumb/v7e-m/nofp/libc_nano.a(lib_a-nano-vfprintf_i.o)
                                        0xba6 (size before relaxing)
 .debug_str     0x0000000000088f75       0x36 /usr/lib/gcc/arm-none-eabi/9.2.1/../../../arm-none-eabi/lib/thumb/v7e-m/nofp/libc_nano.a(lib_a-putc.o)
                                        0x759 (size before relaxing)
 .debug_str     0x0000000000088fab       0x45 /usr/lib/gcc/arm-none-eabi/9.2.1/../../../arm-none-eabi/lib/thumb/v7e-m/nofp/libc_nano.a(lib_a-rget.o)
                                        0x75b (size before relaxing)
 .debug_str     0x0000000000088ff0       0x5a /usr/lib/gcc/arm-none-eabi/9.2.1/../../../arm-none-eabi/lib/thumb/v7e-m/nofp/libc_nano.a(lib_a-fvwrite.o)
                                        0x7df (size before relaxing)
 .debug_str     0x000000000008904a       0x3c /usr/lib/gcc/arm-none-eabi/9.2.1/../../../arm-none-eabi/lib/thumb/v7e-m/nofp/libc_nano.a(lib_a-memchr.o)
                                         0xac (size before relaxing)
 .debug_str     0x0000000000089086       0x66 /usr/lib/gcc/arm-none-eabi/9.2.1/../../../arm-none-eabi/lib/thumb/v7e-m/nofp/libc_nano.a(lib_a-memmove.o)
                                        0x928 (size before relaxing)
 .debug_str     0x00000000000890ec        0xf /usr/lib/gcc/arm-none-eabi/9.2.1/../../../arm-none-eabi/lib/thumb/v7e-m/nofp/libc_nano.a(lib_a-nano-msizer.o)
                                        0x6e7 (size before relaxing)
 .debug_str     0x00000000000890fb       0x45 /usr/lib/gcc/arm-none-eabi/9.2.1/../../../arm-none-eabi/lib/thumb/v7e-m/nofp/libc_nano.a(lib_a-refill.o)
                                        0x795 (size before relaxing)

.comment        0x0000000000000000       0xa7
 .comment       0x0000000000000000       0x59 /home/ch/RIOT/tests/periph_gpio/bin/p-nucleo-wb55/application_tests_periph_gpio/main.o
                                         0x5a (size before relaxing)
 .comment       0x0000000000000059       0x5a /home/ch/RIOT/tests/periph_gpio/bin/p-nucleo-wb55/auto_init/auto_init.o
 .comment       0x0000000000000059       0x5a /home/ch/RIOT/tests/periph_gpio/bin/p-nucleo-wb55/benchmark/benchmark.o
 .comment       0x0000000000000059       0x5a /home/ch/RIOT/tests/periph_gpio/bin/p-nucleo-wb55/boards_common_nucleo/board_common_nucleo_init.o
 .comment       0x0000000000000059       0x5a /home/ch/RIOT/tests/periph_gpio/bin/p-nucleo-wb55/core/init.o
 .comment       0x0000000000000059       0x5a /home/ch/RIOT/tests/periph_gpio/bin/p-nucleo-wb55/core/mutex.o
 .comment       0x0000000000000059       0x5a /home/ch/RIOT/tests/periph_gpio/bin/p-nucleo-wb55/core/panic.o
 .comment       0x0000000000000059       0x5a /home/ch/RIOT/tests/periph_gpio/bin/p-nucleo-wb55/core/sched.o
 .comment       0x0000000000000059       0x5a /home/ch/RIOT/tests/periph_gpio/bin/p-nucleo-wb55/core/thread.o
 .comment       0x0000000000000059       0x5a /home/ch/RIOT/tests/periph_gpio/bin/p-nucleo-wb55/cortexm_common/cortexm_init.o
 .comment       0x0000000000000059       0x5a /home/ch/RIOT/tests/periph_gpio/bin/p-nucleo-wb55/cortexm_common/panic.o
 .comment       0x0000000000000059       0x5a /home/ch/RIOT/tests/periph_gpio/bin/p-nucleo-wb55/cortexm_common_periph/pm.o
 .comment       0x0000000000000059       0x5a /home/ch/RIOT/tests/periph_gpio/bin/p-nucleo-wb55/cortexm_common/thread_arch.o
 .comment       0x0000000000000059       0x5a /home/ch/RIOT/tests/periph_gpio/bin/p-nucleo-wb55/cortexm_common/vectors_cortexm.o
 .comment       0x0000000000000059       0x5a /home/ch/RIOT/tests/periph_gpio/bin/p-nucleo-wb55/cpu/cpu_common.o
 .comment       0x0000000000000059       0x5a /home/ch/RIOT/tests/periph_gpio/bin/p-nucleo-wb55/cpu/cpu_init.o
 .comment       0x0000000000000059       0x5a /home/ch/RIOT/tests/periph_gpio/bin/p-nucleo-wb55/isrpipe/isrpipe.o
 .comment       0x0000000000000059       0x5a /home/ch/RIOT/tests/periph_gpio/bin/p-nucleo-wb55/newlib_syscalls_default/syscalls.o
 .comment       0x0000000000000059       0x5a /home/ch/RIOT/tests/periph_gpio/bin/p-nucleo-wb55/periph_common/init.o
 .comment       0x0000000000000059       0x5a /home/ch/RIOT/tests/periph_gpio/bin/p-nucleo-wb55/periph_common/timer.o
 .comment       0x0000000000000059       0x5a /home/ch/RIOT/tests/periph_gpio/bin/p-nucleo-wb55/periph/gpio_all.o
 .comment       0x0000000000000059       0x5a /home/ch/RIOT/tests/periph_gpio/bin/p-nucleo-wb55/periph/pm.o
 .comment       0x0000000000000059       0x5a /home/ch/RIOT/tests/periph_gpio/bin/p-nucleo-wb55/periph/timer.o
 .comment       0x0000000000000059       0x5a /home/ch/RIOT/tests/periph_gpio/bin/p-nucleo-wb55/periph/uart.o
 .comment       0x0000000000000059       0x5a /home/ch/RIOT/tests/periph_gpio/bin/p-nucleo-wb55/pm_layered/pm.o
 .comment       0x0000000000000059       0x5a /home/ch/RIOT/tests/periph_gpio/bin/p-nucleo-wb55/shell_commands/sc_pm.o
 .comment       0x0000000000000059       0x5a /home/ch/RIOT/tests/periph_gpio/bin/p-nucleo-wb55/shell_commands/sc_sys.o
 .comment       0x0000000000000059       0x5a /home/ch/RIOT/tests/periph_gpio/bin/p-nucleo-wb55/shell_commands/shell_commands.o
 .comment       0x0000000000000059       0x5a /home/ch/RIOT/tests/periph_gpio/bin/p-nucleo-wb55/shell/shell.o
 .comment       0x0000000000000059       0x5a /home/ch/RIOT/tests/periph_gpio/bin/p-nucleo-wb55/stdio_uart/stdio_uart.o
 .comment       0x0000000000000059       0x5a /home/ch/RIOT/tests/periph_gpio/bin/p-nucleo-wb55/stm32_clk/stmclk_common.o
 .comment       0x0000000000000059       0x5a /home/ch/RIOT/tests/periph_gpio/bin/p-nucleo-wb55/stm32_clk/stmclk_l4wx.o
 .comment       0x0000000000000059       0x5a /home/ch/RIOT/tests/periph_gpio/bin/p-nucleo-wb55/stm32_vectors/STM32WB55xx.o
 .comment       0x0000000000000059       0x5a /home/ch/RIOT/tests/periph_gpio/bin/p-nucleo-wb55/tsrb/tsrb.o
 .comment       0x0000000000000059       0x5a /home/ch/RIOT/tests/periph_gpio/bin/p-nucleo-wb55/ztimer_core/core.o
 .comment       0x0000000000000059       0x5a /home/ch/RIOT/tests/periph_gpio/bin/p-nucleo-wb55/ztimer_core/init.o
 .comment       0x0000000000000059       0x5a /home/ch/RIOT/tests/periph_gpio/bin/p-nucleo-wb55/ztimer_core/periph_timer.o
 .comment       0x0000000000000059       0x5a /home/ch/RIOT/tests/periph_gpio/bin/p-nucleo-wb55/ztimer_core/util.o
 .comment       0x0000000000000059       0x5a /usr/lib/gcc/arm-none-eabi/9.2.1/thumb/v7e-m/nofp/libgcc.a(_udivmoddi4.o)
 .comment       0x0000000000000059       0x4e /usr/lib/gcc/arm-none-eabi/9.2.1/../../../arm-none-eabi/lib/thumb/v7e-m/nofp/libc_nano.a(lib_a-atoi.o)
                                         0x4f (size before relaxing)
 .comment       0x00000000000000a7       0x4f /usr/lib/gcc/arm-none-eabi/9.2.1/../../../arm-none-eabi/lib/thumb/v7e-m/nofp/libc_nano.a(lib_a-atol.o)
 .comment       0x00000000000000a7       0x4f /usr/lib/gcc/arm-none-eabi/9.2.1/../../../arm-none-eabi/lib/thumb/v7e-m/nofp/libc_nano.a(lib_a-errno.o)
 .comment       0x00000000000000a7       0x4f /usr/lib/gcc/arm-none-eabi/9.2.1/../../../arm-none-eabi/lib/thumb/v7e-m/nofp/libc_nano.a(lib_a-fflush.o)
 .comment       0x00000000000000a7       0x4f /usr/lib/gcc/arm-none-eabi/9.2.1/../../../arm-none-eabi/lib/thumb/v7e-m/nofp/libc_nano.a(lib_a-findfp.o)
 .comment       0x00000000000000a7       0x4f /usr/lib/gcc/arm-none-eabi/9.2.1/../../../arm-none-eabi/lib/thumb/v7e-m/nofp/libc_nano.a(lib_a-fwalk.o)
 .comment       0x00000000000000a7       0x4f /usr/lib/gcc/arm-none-eabi/9.2.1/../../../arm-none-eabi/lib/thumb/v7e-m/nofp/libc_nano.a(lib_a-getchar.o)
 .comment       0x00000000000000a7       0x4f /usr/lib/gcc/arm-none-eabi/9.2.1/../../../arm-none-eabi/lib/thumb/v7e-m/nofp/libc_nano.a(lib_a-impure.o)
 .comment       0x00000000000000a7       0x4f /usr/lib/gcc/arm-none-eabi/9.2.1/../../../arm-none-eabi/lib/thumb/v7e-m/nofp/libc_nano.a(lib_a-init.o)
 .comment       0x00000000000000a7       0x4f /usr/lib/gcc/arm-none-eabi/9.2.1/../../../arm-none-eabi/lib/thumb/v7e-m/nofp/libc_nano.a(lib_a-memset.o)
 .comment       0x00000000000000a7       0x4f /usr/lib/gcc/arm-none-eabi/9.2.1/../../../arm-none-eabi/lib/thumb/v7e-m/nofp/libc_nano.a(lib_a-nano-freer.o)
 .comment       0x00000000000000a7       0x4f /usr/lib/gcc/arm-none-eabi/9.2.1/../../../arm-none-eabi/lib/thumb/v7e-m/nofp/libc_nano.a(lib_a-nano-mallocr.o)
 .comment       0x00000000000000a7       0x4f /usr/lib/gcc/arm-none-eabi/9.2.1/../../../arm-none-eabi/lib/thumb/v7e-m/nofp/libc_nano.a(lib_a-printf.o)
 .comment       0x00000000000000a7       0x4f /usr/lib/gcc/arm-none-eabi/9.2.1/../../../arm-none-eabi/lib/thumb/v7e-m/nofp/libc_nano.a(lib_a-putchar.o)
 .comment       0x00000000000000a7       0x4f /usr/lib/gcc/arm-none-eabi/9.2.1/../../../arm-none-eabi/lib/thumb/v7e-m/nofp/libc_nano.a(lib_a-puts.o)
 .comment       0x00000000000000a7       0x4f /usr/lib/gcc/arm-none-eabi/9.2.1/../../../arm-none-eabi/lib/thumb/v7e-m/nofp/libc_nano.a(lib_a-stdio.o)
 .comment       0x00000000000000a7       0x4f /usr/lib/gcc/arm-none-eabi/9.2.1/../../../arm-none-eabi/lib/thumb/v7e-m/nofp/libc_nano.a(lib_a-strtol.o)
 .comment       0x00000000000000a7       0x4f /usr/lib/gcc/arm-none-eabi/9.2.1/../../../arm-none-eabi/lib/thumb/v7e-m/nofp/libc_nano.a(lib_a-wbuf.o)
 .comment       0x00000000000000a7       0x4f /usr/lib/gcc/arm-none-eabi/9.2.1/../../../arm-none-eabi/lib/thumb/v7e-m/nofp/libc_nano.a(lib_a-wsetup.o)
 .comment       0x00000000000000a7       0x4f /usr/lib/gcc/arm-none-eabi/9.2.1/../../../arm-none-eabi/lib/thumb/v7e-m/nofp/libc_nano.a(lib_a-ctype_.o)
 .comment       0x00000000000000a7       0x4f /usr/lib/gcc/arm-none-eabi/9.2.1/../../../arm-none-eabi/lib/thumb/v7e-m/nofp/libc_nano.a(lib_a-getc.o)
 .comment       0x00000000000000a7       0x4f /usr/lib/gcc/arm-none-eabi/9.2.1/../../../arm-none-eabi/lib/thumb/v7e-m/nofp/libc_nano.a(lib_a-makebuf.o)
 .comment       0x00000000000000a7       0x4f /usr/lib/gcc/arm-none-eabi/9.2.1/../../../arm-none-eabi/lib/thumb/v7e-m/nofp/libc_nano.a(lib_a-mlock.o)
 .comment       0x00000000000000a7       0x4f /usr/lib/gcc/arm-none-eabi/9.2.1/../../../arm-none-eabi/lib/thumb/v7e-m/nofp/libc_nano.a(lib_a-nano-reallocr.o)
 .comment       0x00000000000000a7       0x4f /usr/lib/gcc/arm-none-eabi/9.2.1/../../../arm-none-eabi/lib/thumb/v7e-m/nofp/libc_nano.a(lib_a-nano-vfprintf.o)
 .comment       0x00000000000000a7       0x4f /usr/lib/gcc/arm-none-eabi/9.2.1/../../../arm-none-eabi/lib/thumb/v7e-m/nofp/libc_nano.a(lib_a-nano-vfprintf_i.o)
 .comment       0x00000000000000a7       0x4f /usr/lib/gcc/arm-none-eabi/9.2.1/../../../arm-none-eabi/lib/thumb/v7e-m/nofp/libc_nano.a(lib_a-putc.o)
 .comment       0x00000000000000a7       0x4f /usr/lib/gcc/arm-none-eabi/9.2.1/../../../arm-none-eabi/lib/thumb/v7e-m/nofp/libc_nano.a(lib_a-rget.o)
 .comment       0x00000000000000a7       0x4f /usr/lib/gcc/arm-none-eabi/9.2.1/../../../arm-none-eabi/lib/thumb/v7e-m/nofp/libc_nano.a(lib_a-fvwrite.o)
 .comment       0x00000000000000a7       0x4f /usr/lib/gcc/arm-none-eabi/9.2.1/../../../arm-none-eabi/lib/thumb/v7e-m/nofp/libc_nano.a(lib_a-memmove.o)
 .comment       0x00000000000000a7       0x4f /usr/lib/gcc/arm-none-eabi/9.2.1/../../../arm-none-eabi/lib/thumb/v7e-m/nofp/libc_nano.a(lib_a-nano-msizer.o)
 .comment       0x00000000000000a7       0x4f /usr/lib/gcc/arm-none-eabi/9.2.1/../../../arm-none-eabi/lib/thumb/v7e-m/nofp/libc_nano.a(lib_a-refill.o)

.ARM.attributes
                0x0000000000000000       0x2c
 .ARM.attributes
                0x0000000000000000       0x2e /home/ch/RIOT/tests/periph_gpio/bin/p-nucleo-wb55/application_tests_periph_gpio/main.o
 .ARM.attributes
                0x000000000000002e       0x2e /home/ch/RIOT/tests/periph_gpio/bin/p-nucleo-wb55/auto_init/auto_init.o
 .ARM.attributes
                0x000000000000005c       0x2e /home/ch/RIOT/tests/periph_gpio/bin/p-nucleo-wb55/benchmark/benchmark.o
 .ARM.attributes
                0x000000000000008a       0x2e /home/ch/RIOT/tests/periph_gpio/bin/p-nucleo-wb55/boards_common_nucleo/board_common_nucleo_init.o
 .ARM.attributes
                0x00000000000000b8       0x2e /home/ch/RIOT/tests/periph_gpio/bin/p-nucleo-wb55/core/init.o
 .ARM.attributes
                0x00000000000000e6       0x2e /home/ch/RIOT/tests/periph_gpio/bin/p-nucleo-wb55/core/mutex.o
 .ARM.attributes
                0x0000000000000114       0x2e /home/ch/RIOT/tests/periph_gpio/bin/p-nucleo-wb55/core/panic.o
 .ARM.attributes
                0x0000000000000142       0x2e /home/ch/RIOT/tests/periph_gpio/bin/p-nucleo-wb55/core/sched.o
 .ARM.attributes
                0x0000000000000170       0x2e /home/ch/RIOT/tests/periph_gpio/bin/p-nucleo-wb55/core/thread.o
 .ARM.attributes
                0x000000000000019e       0x2e /home/ch/RIOT/tests/periph_gpio/bin/p-nucleo-wb55/cortexm_common/cortexm_init.o
 .ARM.attributes
                0x00000000000001cc       0x2e /home/ch/RIOT/tests/periph_gpio/bin/p-nucleo-wb55/cortexm_common/panic.o
 .ARM.attributes
                0x00000000000001fa       0x2e /home/ch/RIOT/tests/periph_gpio/bin/p-nucleo-wb55/cortexm_common_periph/pm.o
 .ARM.attributes
                0x0000000000000228       0x2e /home/ch/RIOT/tests/periph_gpio/bin/p-nucleo-wb55/cortexm_common/thread_arch.o
 .ARM.attributes
                0x0000000000000256       0x2e /home/ch/RIOT/tests/periph_gpio/bin/p-nucleo-wb55/cortexm_common/vectors_cortexm.o
 .ARM.attributes
                0x0000000000000284       0x2e /home/ch/RIOT/tests/periph_gpio/bin/p-nucleo-wb55/cpu/cpu_common.o
 .ARM.attributes
                0x00000000000002b2       0x2e /home/ch/RIOT/tests/periph_gpio/bin/p-nucleo-wb55/cpu/cpu_init.o
 .ARM.attributes
                0x00000000000002e0       0x2e /home/ch/RIOT/tests/periph_gpio/bin/p-nucleo-wb55/isrpipe/isrpipe.o
 .ARM.attributes
                0x000000000000030e       0x2e /home/ch/RIOT/tests/periph_gpio/bin/p-nucleo-wb55/newlib_syscalls_default/syscalls.o
 .ARM.attributes
                0x000000000000033c       0x2e /home/ch/RIOT/tests/periph_gpio/bin/p-nucleo-wb55/periph_common/init.o
 .ARM.attributes
                0x000000000000036a       0x2e /home/ch/RIOT/tests/periph_gpio/bin/p-nucleo-wb55/periph_common/timer.o
 .ARM.attributes
                0x0000000000000398       0x2e /home/ch/RIOT/tests/periph_gpio/bin/p-nucleo-wb55/periph/gpio_all.o
 .ARM.attributes
                0x00000000000003c6       0x2e /home/ch/RIOT/tests/periph_gpio/bin/p-nucleo-wb55/periph/pm.o
 .ARM.attributes
                0x00000000000003f4       0x2e /home/ch/RIOT/tests/periph_gpio/bin/p-nucleo-wb55/periph/timer.o
 .ARM.attributes
                0x0000000000000422       0x2e /home/ch/RIOT/tests/periph_gpio/bin/p-nucleo-wb55/periph/uart.o
 .ARM.attributes
                0x0000000000000450       0x2e /home/ch/RIOT/tests/periph_gpio/bin/p-nucleo-wb55/pm_layered/pm.o
 .ARM.attributes
                0x000000000000047e       0x2e /home/ch/RIOT/tests/periph_gpio/bin/p-nucleo-wb55/shell_commands/sc_pm.o
 .ARM.attributes
                0x00000000000004ac       0x2e /home/ch/RIOT/tests/periph_gpio/bin/p-nucleo-wb55/shell_commands/sc_sys.o
 .ARM.attributes
                0x00000000000004da       0x2e /home/ch/RIOT/tests/periph_gpio/bin/p-nucleo-wb55/shell_commands/shell_commands.o
 .ARM.attributes
                0x0000000000000508       0x2e /home/ch/RIOT/tests/periph_gpio/bin/p-nucleo-wb55/shell/shell.o
 .ARM.attributes
                0x0000000000000536       0x2e /home/ch/RIOT/tests/periph_gpio/bin/p-nucleo-wb55/stdio_uart/stdio_uart.o
 .ARM.attributes
                0x0000000000000564       0x2e /home/ch/RIOT/tests/periph_gpio/bin/p-nucleo-wb55/stm32_clk/stmclk_common.o
 .ARM.attributes
                0x0000000000000592       0x2e /home/ch/RIOT/tests/periph_gpio/bin/p-nucleo-wb55/stm32_clk/stmclk_l4wx.o
 .ARM.attributes
                0x00000000000005c0       0x2e /home/ch/RIOT/tests/periph_gpio/bin/p-nucleo-wb55/stm32_vectors/STM32WB55xx.o
 .ARM.attributes
                0x00000000000005ee       0x2e /home/ch/RIOT/tests/periph_gpio/bin/p-nucleo-wb55/tsrb/tsrb.o
 .ARM.attributes
                0x000000000000061c       0x2e /home/ch/RIOT/tests/periph_gpio/bin/p-nucleo-wb55/ztimer_core/core.o
 .ARM.attributes
                0x000000000000064a       0x2e /home/ch/RIOT/tests/periph_gpio/bin/p-nucleo-wb55/ztimer_core/init.o
 .ARM.attributes
                0x0000000000000678       0x2e /home/ch/RIOT/tests/periph_gpio/bin/p-nucleo-wb55/ztimer_core/periph_timer.o
 .ARM.attributes
                0x00000000000006a6       0x2e /home/ch/RIOT/tests/periph_gpio/bin/p-nucleo-wb55/ztimer_core/util.o
 .ARM.attributes
                0x00000000000006d4       0x1e /usr/lib/gcc/arm-none-eabi/9.2.1/thumb/v7e-m/nofp/libgcc.a(_aeabi_uldivmod.o)
 .ARM.attributes
                0x00000000000006f2       0x2e /usr/lib/gcc/arm-none-eabi/9.2.1/thumb/v7e-m/nofp/libgcc.a(_udivmoddi4.o)
 .ARM.attributes
                0x0000000000000720       0x1e /usr/lib/gcc/arm-none-eabi/9.2.1/thumb/v7e-m/nofp/libgcc.a(_dvmd_tls.o)
 .ARM.attributes
                0x000000000000073e       0x2e /usr/lib/gcc/arm-none-eabi/9.2.1/../../../arm-none-eabi/lib/thumb/v7e-m/nofp/libc_nano.a(lib_a-atoi.o)
 .ARM.attributes
                0x000000000000076c       0x2e /usr/lib/gcc/arm-none-eabi/9.2.1/../../../arm-none-eabi/lib/thumb/v7e-m/nofp/libc_nano.a(lib_a-atol.o)
 .ARM.attributes
                0x000000000000079a       0x2e /usr/lib/gcc/arm-none-eabi/9.2.1/../../../arm-none-eabi/lib/thumb/v7e-m/nofp/libc_nano.a(lib_a-errno.o)
 .ARM.attributes
                0x00000000000007c8       0x2e /usr/lib/gcc/arm-none-eabi/9.2.1/../../../arm-none-eabi/lib/thumb/v7e-m/nofp/libc_nano.a(lib_a-fflush.o)
 .ARM.attributes
                0x00000000000007f6       0x2e /usr/lib/gcc/arm-none-eabi/9.2.1/../../../arm-none-eabi/lib/thumb/v7e-m/nofp/libc_nano.a(lib_a-findfp.o)
 .ARM.attributes
                0x0000000000000824       0x2e /usr/lib/gcc/arm-none-eabi/9.2.1/../../../arm-none-eabi/lib/thumb/v7e-m/nofp/libc_nano.a(lib_a-fwalk.o)
 .ARM.attributes
                0x0000000000000852       0x2e /usr/lib/gcc/arm-none-eabi/9.2.1/../../../arm-none-eabi/lib/thumb/v7e-m/nofp/libc_nano.a(lib_a-getchar.o)
 .ARM.attributes
                0x0000000000000880       0x2e /usr/lib/gcc/arm-none-eabi/9.2.1/../../../arm-none-eabi/lib/thumb/v7e-m/nofp/libc_nano.a(lib_a-impure.o)
 .ARM.attributes
                0x00000000000008ae       0x2e /usr/lib/gcc/arm-none-eabi/9.2.1/../../../arm-none-eabi/lib/thumb/v7e-m/nofp/libc_nano.a(lib_a-init.o)
 .ARM.attributes
                0x00000000000008dc       0x1c /usr/lib/gcc/arm-none-eabi/9.2.1/../../../arm-none-eabi/lib/thumb/v7e-m/nofp/libc_nano.a(lib_a-memcpy.o)
 .ARM.attributes
                0x00000000000008f8       0x2e /usr/lib/gcc/arm-none-eabi/9.2.1/../../../arm-none-eabi/lib/thumb/v7e-m/nofp/libc_nano.a(lib_a-memset.o)
 .ARM.attributes
                0x0000000000000926       0x2e /usr/lib/gcc/arm-none-eabi/9.2.1/../../../arm-none-eabi/lib/thumb/v7e-m/nofp/libc_nano.a(lib_a-nano-freer.o)
 .ARM.attributes
                0x0000000000000954       0x2e /usr/lib/gcc/arm-none-eabi/9.2.1/../../../arm-none-eabi/lib/thumb/v7e-m/nofp/libc_nano.a(lib_a-nano-mallocr.o)
 .ARM.attributes
                0x0000000000000982       0x2e /usr/lib/gcc/arm-none-eabi/9.2.1/../../../arm-none-eabi/lib/thumb/v7e-m/nofp/libc_nano.a(lib_a-printf.o)
 .ARM.attributes
                0x00000000000009b0       0x2e /usr/lib/gcc/arm-none-eabi/9.2.1/../../../arm-none-eabi/lib/thumb/v7e-m/nofp/libc_nano.a(lib_a-putchar.o)
 .ARM.attributes
                0x00000000000009de       0x2e /usr/lib/gcc/arm-none-eabi/9.2.1/../../../arm-none-eabi/lib/thumb/v7e-m/nofp/libc_nano.a(lib_a-puts.o)
 .ARM.attributes
                0x0000000000000a0c       0x2e /usr/lib/gcc/arm-none-eabi/9.2.1/../../../arm-none-eabi/lib/thumb/v7e-m/nofp/libc_nano.a(lib_a-stdio.o)
 .ARM.attributes
                0x0000000000000a3a       0x1c /usr/lib/gcc/arm-none-eabi/9.2.1/../../../arm-none-eabi/lib/thumb/v7e-m/nofp/libc_nano.a(lib_a-strcmp.o)
 .ARM.attributes
                0x0000000000000a56       0x1c /usr/lib/gcc/arm-none-eabi/9.2.1/../../../arm-none-eabi/lib/thumb/v7e-m/nofp/libc_nano.a(lib_a-strlen.o)
 .ARM.attributes
                0x0000000000000a72       0x2e /usr/lib/gcc/arm-none-eabi/9.2.1/../../../arm-none-eabi/lib/thumb/v7e-m/nofp/libc_nano.a(lib_a-strtol.o)
 .ARM.attributes
                0x0000000000000aa0       0x2e /usr/lib/gcc/arm-none-eabi/9.2.1/../../../arm-none-eabi/lib/thumb/v7e-m/nofp/libc_nano.a(lib_a-wbuf.o)
 .ARM.attributes
                0x0000000000000ace       0x2e /usr/lib/gcc/arm-none-eabi/9.2.1/../../../arm-none-eabi/lib/thumb/v7e-m/nofp/libc_nano.a(lib_a-wsetup.o)
 .ARM.attributes
                0x0000000000000afc       0x2e /usr/lib/gcc/arm-none-eabi/9.2.1/../../../arm-none-eabi/lib/thumb/v7e-m/nofp/libc_nano.a(lib_a-ctype_.o)
 .ARM.attributes
                0x0000000000000b2a       0x2e /usr/lib/gcc/arm-none-eabi/9.2.1/../../../arm-none-eabi/lib/thumb/v7e-m/nofp/libc_nano.a(lib_a-getc.o)
 .ARM.attributes
                0x0000000000000b58       0x2e /usr/lib/gcc/arm-none-eabi/9.2.1/../../../arm-none-eabi/lib/thumb/v7e-m/nofp/libc_nano.a(lib_a-makebuf.o)
 .ARM.attributes
                0x0000000000000b86       0x2e /usr/lib/gcc/arm-none-eabi/9.2.1/../../../arm-none-eabi/lib/thumb/v7e-m/nofp/libc_nano.a(lib_a-mlock.o)
 .ARM.attributes
                0x0000000000000bb4       0x2e /usr/lib/gcc/arm-none-eabi/9.2.1/../../../arm-none-eabi/lib/thumb/v7e-m/nofp/libc_nano.a(lib_a-nano-reallocr.o)
 .ARM.attributes
                0x0000000000000be2       0x2e /usr/lib/gcc/arm-none-eabi/9.2.1/../../../arm-none-eabi/lib/thumb/v7e-m/nofp/libc_nano.a(lib_a-nano-vfprintf.o)
 .ARM.attributes
                0x0000000000000c10       0x2e /usr/lib/gcc/arm-none-eabi/9.2.1/../../../arm-none-eabi/lib/thumb/v7e-m/nofp/libc_nano.a(lib_a-nano-vfprintf_i.o)
 .ARM.attributes
                0x0000000000000c3e       0x2e /usr/lib/gcc/arm-none-eabi/9.2.1/../../../arm-none-eabi/lib/thumb/v7e-m/nofp/libc_nano.a(lib_a-putc.o)
 .ARM.attributes
                0x0000000000000c6c       0x2e /usr/lib/gcc/arm-none-eabi/9.2.1/../../../arm-none-eabi/lib/thumb/v7e-m/nofp/libc_nano.a(lib_a-rget.o)
 .ARM.attributes
                0x0000000000000c9a       0x2e /usr/lib/gcc/arm-none-eabi/9.2.1/../../../arm-none-eabi/lib/thumb/v7e-m/nofp/libc_nano.a(lib_a-fvwrite.o)
 .ARM.attributes
                0x0000000000000cc8       0x1c /usr/lib/gcc/arm-none-eabi/9.2.1/../../../arm-none-eabi/lib/thumb/v7e-m/nofp/libc_nano.a(lib_a-memchr.o)
 .ARM.attributes
                0x0000000000000ce4       0x2e /usr/lib/gcc/arm-none-eabi/9.2.1/../../../arm-none-eabi/lib/thumb/v7e-m/nofp/libc_nano.a(lib_a-memmove.o)
 .ARM.attributes
                0x0000000000000d12       0x2e /usr/lib/gcc/arm-none-eabi/9.2.1/../../../arm-none-eabi/lib/thumb/v7e-m/nofp/libc_nano.a(lib_a-nano-msizer.o)
 .ARM.attributes
                0x0000000000000d40       0x2e /usr/lib/gcc/arm-none-eabi/9.2.1/../../../arm-none-eabi/lib/thumb/v7e-m/nofp/libc_nano.a(lib_a-refill.o)

.debug_frame    0x0000000000000000     0x21e0
