Archive member included to satisfy reference by file (symbol)

/usr/lib/gcc/arm-none-eabi/9.2.1/../../../arm-none-eabi/lib/thumb/v7e-m/nofp/libm.a(lib_a-s_ceil.o)
                              /home/ch/RIOT/tests/lora_co2_scd30/bin/lora-e5-dev/semtech_loramac_mac_region/RegionCommon.o (ceil)
/usr/lib/gcc/arm-none-eabi/9.2.1/../../../arm-none-eabi/lib/thumb/v7e-m/nofp/libm.a(lib_a-s_floor.o)
                              /home/ch/RIOT/tests/lora_co2_scd30/bin/lora-e5-dev/semtech_loramac_mac_region/RegionCommon.o (floor)
/usr/lib/gcc/arm-none-eabi/9.2.1/thumb/v7e-m/nofp/libgcc.a(_arm_muldf3.o)
                              /home/ch/RIOT/tests/lora_co2_scd30/bin/lora-e5-dev/semtech_loramac_mac_region/RegionCommon.o (__aeabi_dmul)
/usr/lib/gcc/arm-none-eabi/9.2.1/thumb/v7e-m/nofp/libgcc.a(_arm_mulsf3.o)
                              /home/ch/RIOT/tests/lora_co2_scd30/bin/lora-e5-dev/cayenne-lpp/cayenne_lpp.o (__aeabi_fmul)
/usr/lib/gcc/arm-none-eabi/9.2.1/thumb/v7e-m/nofp/libgcc.a(_arm_addsubdf3.o)
                              /home/ch/RIOT/tests/lora_co2_scd30/bin/lora-e5-dev/semtech_loramac_mac_region/RegionCommon.o (__aeabi_dsub)
/usr/lib/gcc/arm-none-eabi/9.2.1/thumb/v7e-m/nofp/libgcc.a(_arm_muldivdf3.o)
                              /home/ch/RIOT/tests/lora_co2_scd30/bin/lora-e5-dev/semtech_loramac_mac_region/RegionCommon.o (__aeabi_ddiv)
/usr/lib/gcc/arm-none-eabi/9.2.1/thumb/v7e-m/nofp/libgcc.a(_arm_cmpdf2.o)
                              /usr/lib/gcc/arm-none-eabi/9.2.1/../../../arm-none-eabi/lib/thumb/v7e-m/nofp/libm.a(lib_a-s_ceil.o) (__aeabi_dcmpgt)
/usr/lib/gcc/arm-none-eabi/9.2.1/thumb/v7e-m/nofp/libgcc.a(_arm_fixdfsi.o)
                              /home/ch/RIOT/tests/lora_co2_scd30/bin/lora-e5-dev/semtech_loramac_mac_region/RegionCommon.o (__aeabi_d2iz)
/usr/lib/gcc/arm-none-eabi/9.2.1/thumb/v7e-m/nofp/libgcc.a(_arm_fixunsdfsi.o)
                              /home/ch/RIOT/tests/lora_co2_scd30/bin/lora-e5-dev/semtech_loramac_mac_region/RegionCommon.o (__aeabi_d2uiz)
/usr/lib/gcc/arm-none-eabi/9.2.1/thumb/v7e-m/nofp/libgcc.a(_arm_addsubsf3.o)
                              /home/ch/RIOT/tests/lora_co2_scd30/bin/lora-e5-dev/fmt/fmt.o (__aeabi_fsub)
/usr/lib/gcc/arm-none-eabi/9.2.1/thumb/v7e-m/nofp/libgcc.a(_arm_cmpsf2.o)
                              /home/ch/RIOT/tests/lora_co2_scd30/bin/lora-e5-dev/fmt/fmt.o (__aeabi_fcmplt)
/usr/lib/gcc/arm-none-eabi/9.2.1/thumb/v7e-m/nofp/libgcc.a(_arm_fixsfsi.o)
                              /home/ch/RIOT/tests/lora_co2_scd30/bin/lora-e5-dev/cayenne-lpp/cayenne_lpp.o (__aeabi_f2iz)
/usr/lib/gcc/arm-none-eabi/9.2.1/thumb/v7e-m/nofp/libgcc.a(_arm_fixunssfsi.o)
                              /home/ch/RIOT/tests/lora_co2_scd30/bin/lora-e5-dev/cayenne-lpp/cayenne_lpp.o (__aeabi_f2uiz)
/usr/lib/gcc/arm-none-eabi/9.2.1/../../../arm-none-eabi/lib/thumb/v7e-m/nofp/libc_nano.a(lib_a-errno.o)
                              /home/ch/RIOT/tests/lora_co2_scd30/bin/lora-e5-dev/newlib_syscalls_default/syscalls.o (__errno)
/usr/lib/gcc/arm-none-eabi/9.2.1/../../../arm-none-eabi/lib/thumb/v7e-m/nofp/libc_nano.a(lib_a-impure.o)
                              /usr/lib/gcc/arm-none-eabi/9.2.1/../../../arm-none-eabi/lib/thumb/v7e-m/nofp/libc_nano.a(lib_a-errno.o) (_impure_ptr)
/usr/lib/gcc/arm-none-eabi/9.2.1/../../../arm-none-eabi/lib/thumb/v7e-m/nofp/libc_nano.a(lib_a-init.o)
                              /home/ch/RIOT/tests/lora_co2_scd30/bin/lora-e5-dev/cortexm_common/vectors_cortexm.o (__libc_init_array)
/usr/lib/gcc/arm-none-eabi/9.2.1/../../../arm-none-eabi/lib/thumb/v7e-m/nofp/libc_nano.a(lib_a-malloc.o)
                              /home/ch/RIOT/tests/lora_co2_scd30/bin/lora-e5-dev/malloc_thread_safe/malloc_wrappers.o (malloc)
/usr/lib/gcc/arm-none-eabi/9.2.1/../../../arm-none-eabi/lib/thumb/v7e-m/nofp/libc_nano.a(lib_a-memcmp.o)
                              /home/ch/RIOT/tests/lora_co2_scd30/bin/lora-e5-dev/core/atomic_c11.o (memcmp)
/usr/lib/gcc/arm-none-eabi/9.2.1/../../../arm-none-eabi/lib/thumb/v7e-m/nofp/libc_nano.a(lib_a-memcpy.o)
                              /home/ch/RIOT/tests/lora_co2_scd30/bin/lora-e5-dev/core/atomic_c11.o (memcpy)
/usr/lib/gcc/arm-none-eabi/9.2.1/../../../arm-none-eabi/lib/thumb/v7e-m/nofp/libc_nano.a(lib_a-memmove.o)
                              /home/ch/RIOT/tests/lora_co2_scd30/bin/lora-e5-dev/fmt/fmt.o (memmove)
/usr/lib/gcc/arm-none-eabi/9.2.1/../../../arm-none-eabi/lib/thumb/v7e-m/nofp/libc_nano.a(lib_a-memset.o)
                              /home/ch/RIOT/tests/lora_co2_scd30/bin/lora-e5-dev/cayenne-lpp/cayenne_lpp.o (memset)
/usr/lib/gcc/arm-none-eabi/9.2.1/../../../arm-none-eabi/lib/thumb/v7e-m/nofp/libc_nano.a(lib_a-mstats.o)
                              /home/ch/RIOT/tests/lora_co2_scd30/bin/lora-e5-dev/newlib_syscalls_default/syscalls.o (mallinfo)
/usr/lib/gcc/arm-none-eabi/9.2.1/../../../arm-none-eabi/lib/thumb/v7e-m/nofp/libc_nano.a(lib_a-nano-freer.o)
                              /usr/lib/gcc/arm-none-eabi/9.2.1/../../../arm-none-eabi/lib/thumb/v7e-m/nofp/libc_nano.a(lib_a-malloc.o) (_free_r)
/usr/lib/gcc/arm-none-eabi/9.2.1/../../../arm-none-eabi/lib/thumb/v7e-m/nofp/libc_nano.a(lib_a-nano-mallinfor.o)
                              /usr/lib/gcc/arm-none-eabi/9.2.1/../../../arm-none-eabi/lib/thumb/v7e-m/nofp/libc_nano.a(lib_a-mstats.o) (_mallinfo_r)
/usr/lib/gcc/arm-none-eabi/9.2.1/../../../arm-none-eabi/lib/thumb/v7e-m/nofp/libc_nano.a(lib_a-nano-mallocr.o)
                              /usr/lib/gcc/arm-none-eabi/9.2.1/../../../arm-none-eabi/lib/thumb/v7e-m/nofp/libc_nano.a(lib_a-malloc.o) (_malloc_r)
/usr/lib/gcc/arm-none-eabi/9.2.1/../../../arm-none-eabi/lib/thumb/v7e-m/nofp/libc_nano.a(lib_a-nano-malloptr.o)
                              /usr/lib/gcc/arm-none-eabi/9.2.1/../../../arm-none-eabi/lib/thumb/v7e-m/nofp/libc_nano.a(lib_a-mstats.o) (_mallopt_r)
/usr/lib/gcc/arm-none-eabi/9.2.1/../../../arm-none-eabi/lib/thumb/v7e-m/nofp/libc_nano.a(lib_a-nano-mallstatsr.o)
                              /usr/lib/gcc/arm-none-eabi/9.2.1/../../../arm-none-eabi/lib/thumb/v7e-m/nofp/libc_nano.a(lib_a-mstats.o) (_malloc_stats_r)
/usr/lib/gcc/arm-none-eabi/9.2.1/../../../arm-none-eabi/lib/thumb/v7e-m/nofp/libc_nano.a(lib_a-nano-vfprintf_float.o)
                              (_printf_float)
/usr/lib/gcc/arm-none-eabi/9.2.1/../../../arm-none-eabi/lib/thumb/v7e-m/nofp/libc_nano.a(lib_a-nano-vfprintf_i.o)
                              /usr/lib/gcc/arm-none-eabi/9.2.1/../../../arm-none-eabi/lib/thumb/v7e-m/nofp/libc_nano.a(lib_a-nano-vfprintf_float.o) (_printf_common)
/usr/lib/gcc/arm-none-eabi/9.2.1/../../../arm-none-eabi/lib/thumb/v7e-m/nofp/libc_nano.a(lib_a-printf.o)
                              /home/ch/RIOT/tests/lora_co2_scd30/bin/lora-e5-dev/application_lora_co2_scd30/main.o (printf)
/usr/lib/gcc/arm-none-eabi/9.2.1/../../../arm-none-eabi/lib/thumb/v7e-m/nofp/libc_nano.a(lib_a-puts.o)
                              /home/ch/RIOT/tests/lora_co2_scd30/bin/lora-e5-dev/application_lora_co2_scd30/main.o (puts)
/usr/lib/gcc/arm-none-eabi/9.2.1/../../../arm-none-eabi/lib/thumb/v7e-m/nofp/libc_nano.a(lib_a-realloc.o)
                              /home/ch/RIOT/tests/lora_co2_scd30/bin/lora-e5-dev/malloc_thread_safe/malloc_wrappers.o (realloc)
/usr/lib/gcc/arm-none-eabi/9.2.1/../../../arm-none-eabi/lib/thumb/v7e-m/nofp/libc_nano.a(lib_a-strlen.o)
                              /usr/lib/gcc/arm-none-eabi/9.2.1/../../../arm-none-eabi/lib/thumb/v7e-m/nofp/libc_nano.a(lib_a-nano-vfprintf_float.o) (strlen)
/usr/lib/gcc/arm-none-eabi/9.2.1/../../../arm-none-eabi/lib/thumb/v7e-m/nofp/libc_nano.a(lib_a-syswrite.o)
                              /home/ch/RIOT/tests/lora_co2_scd30/bin/lora-e5-dev/fmt/fmt.o (write)
/usr/lib/gcc/arm-none-eabi/9.2.1/../../../arm-none-eabi/lib/thumb/v7e-m/nofp/libc_nano.a(lib_a-time.o)
                              /home/ch/RIOT/tests/lora_co2_scd30/bin/lora-e5-dev/application_lora_co2_scd30/main.o (time)
/usr/lib/gcc/arm-none-eabi/9.2.1/../../../arm-none-eabi/lib/thumb/v7e-m/nofp/libc_nano.a(lib_a-wbuf.o)
                              /usr/lib/gcc/arm-none-eabi/9.2.1/../../../arm-none-eabi/lib/thumb/v7e-m/nofp/libc_nano.a(lib_a-puts.o) (__swbuf_r)
/usr/lib/gcc/arm-none-eabi/9.2.1/../../../arm-none-eabi/lib/thumb/v7e-m/nofp/libc_nano.a(lib_a-wsetup.o)
                              /usr/lib/gcc/arm-none-eabi/9.2.1/../../../arm-none-eabi/lib/thumb/v7e-m/nofp/libc_nano.a(lib_a-puts.o) (__swsetup_r)
/usr/lib/gcc/arm-none-eabi/9.2.1/../../../arm-none-eabi/lib/thumb/v7e-m/nofp/libc_nano.a(lib_a-dtoa.o)
                              /usr/lib/gcc/arm-none-eabi/9.2.1/../../../arm-none-eabi/lib/thumb/v7e-m/nofp/libc_nano.a(lib_a-nano-vfprintf_float.o) (_dtoa_r)
/usr/lib/gcc/arm-none-eabi/9.2.1/../../../arm-none-eabi/lib/thumb/v7e-m/nofp/libc_nano.a(lib_a-fflush.o)
                              /usr/lib/gcc/arm-none-eabi/9.2.1/../../../arm-none-eabi/lib/thumb/v7e-m/nofp/libc_nano.a(lib_a-wbuf.o) (_fflush_r)
/usr/lib/gcc/arm-none-eabi/9.2.1/../../../arm-none-eabi/lib/thumb/v7e-m/nofp/libc_nano.a(lib_a-findfp.o)
                              /usr/lib/gcc/arm-none-eabi/9.2.1/../../../arm-none-eabi/lib/thumb/v7e-m/nofp/libc_nano.a(lib_a-mstats.o) (__sinit)
/usr/lib/gcc/arm-none-eabi/9.2.1/../../../arm-none-eabi/lib/thumb/v7e-m/nofp/libc_nano.a(lib_a-fprintf.o)
                              /usr/lib/gcc/arm-none-eabi/9.2.1/../../../arm-none-eabi/lib/thumb/v7e-m/nofp/libc_nano.a(lib_a-mstats.o) (fiprintf)
/usr/lib/gcc/arm-none-eabi/9.2.1/../../../arm-none-eabi/lib/thumb/v7e-m/nofp/libc_nano.a(lib_a-fwalk.o)
                              /usr/lib/gcc/arm-none-eabi/9.2.1/../../../arm-none-eabi/lib/thumb/v7e-m/nofp/libc_nano.a(lib_a-findfp.o) (_fwalk)
/usr/lib/gcc/arm-none-eabi/9.2.1/../../../arm-none-eabi/lib/thumb/v7e-m/nofp/libc_nano.a(lib_a-localeconv.o)
                              /usr/lib/gcc/arm-none-eabi/9.2.1/../../../arm-none-eabi/lib/thumb/v7e-m/nofp/libc_nano.a(lib_a-nano-vfprintf_float.o) (_localeconv_r)
/usr/lib/gcc/arm-none-eabi/9.2.1/../../../arm-none-eabi/lib/thumb/v7e-m/nofp/libc_nano.a(lib_a-makebuf.o)
                              /usr/lib/gcc/arm-none-eabi/9.2.1/../../../arm-none-eabi/lib/thumb/v7e-m/nofp/libc_nano.a(lib_a-wsetup.o) (__smakebuf_r)
/usr/lib/gcc/arm-none-eabi/9.2.1/../../../arm-none-eabi/lib/thumb/v7e-m/nofp/libc_nano.a(lib_a-memchr.o)
                              /usr/lib/gcc/arm-none-eabi/9.2.1/../../../arm-none-eabi/lib/thumb/v7e-m/nofp/libc_nano.a(lib_a-nano-vfprintf_i.o) (memchr)
/usr/lib/gcc/arm-none-eabi/9.2.1/../../../arm-none-eabi/lib/thumb/v7e-m/nofp/libc_nano.a(lib_a-mlock.o)
                              /usr/lib/gcc/arm-none-eabi/9.2.1/../../../arm-none-eabi/lib/thumb/v7e-m/nofp/libc_nano.a(lib_a-nano-freer.o) (__malloc_lock)
/usr/lib/gcc/arm-none-eabi/9.2.1/../../../arm-none-eabi/lib/thumb/v7e-m/nofp/libc_nano.a(lib_a-mprec.o)
                              /usr/lib/gcc/arm-none-eabi/9.2.1/../../../arm-none-eabi/lib/thumb/v7e-m/nofp/libc_nano.a(lib_a-dtoa.o) (_Balloc)
/usr/lib/gcc/arm-none-eabi/9.2.1/../../../arm-none-eabi/lib/thumb/v7e-m/nofp/libc_nano.a(lib_a-nano-callocr.o)
                              /usr/lib/gcc/arm-none-eabi/9.2.1/../../../arm-none-eabi/lib/thumb/v7e-m/nofp/libc_nano.a(lib_a-mprec.o) (_calloc_r)
/usr/lib/gcc/arm-none-eabi/9.2.1/../../../arm-none-eabi/lib/thumb/v7e-m/nofp/libc_nano.a(lib_a-nano-reallocr.o)
                              /usr/lib/gcc/arm-none-eabi/9.2.1/../../../arm-none-eabi/lib/thumb/v7e-m/nofp/libc_nano.a(lib_a-realloc.o) (_realloc_r)
/usr/lib/gcc/arm-none-eabi/9.2.1/../../../arm-none-eabi/lib/thumb/v7e-m/nofp/libc_nano.a(lib_a-nano-vfprintf.o)
                              /usr/lib/gcc/arm-none-eabi/9.2.1/../../../arm-none-eabi/lib/thumb/v7e-m/nofp/libc_nano.a(lib_a-printf.o) (_vfprintf_r)
/usr/lib/gcc/arm-none-eabi/9.2.1/../../../arm-none-eabi/lib/thumb/v7e-m/nofp/libc_nano.a(lib_a-stdio.o)
                              /usr/lib/gcc/arm-none-eabi/9.2.1/../../../arm-none-eabi/lib/thumb/v7e-m/nofp/libc_nano.a(lib_a-findfp.o) (__sread)
/usr/lib/gcc/arm-none-eabi/9.2.1/../../../arm-none-eabi/lib/thumb/v7e-m/nofp/libc_nano.a(lib_a-assert.o)
                              /usr/lib/gcc/arm-none-eabi/9.2.1/../../../arm-none-eabi/lib/thumb/v7e-m/nofp/libc_nano.a(lib_a-dtoa.o) (__assert_func)
/usr/lib/gcc/arm-none-eabi/9.2.1/../../../arm-none-eabi/lib/thumb/v7e-m/nofp/libc_nano.a(lib_a-fvwrite.o)
                              /usr/lib/gcc/arm-none-eabi/9.2.1/../../../arm-none-eabi/lib/thumb/v7e-m/nofp/libc_nano.a(lib_a-nano-vfprintf.o) (__sfvwrite_r)
/usr/lib/gcc/arm-none-eabi/9.2.1/../../../arm-none-eabi/lib/thumb/v7e-m/nofp/libc_nano.a(lib_a-locale.o)
                              /usr/lib/gcc/arm-none-eabi/9.2.1/../../../arm-none-eabi/lib/thumb/v7e-m/nofp/libc_nano.a(lib_a-localeconv.o) (__global_locale)
/usr/lib/gcc/arm-none-eabi/9.2.1/../../../arm-none-eabi/lib/thumb/v7e-m/nofp/libc_nano.a(lib_a-mbtowc_r.o)
                              /usr/lib/gcc/arm-none-eabi/9.2.1/../../../arm-none-eabi/lib/thumb/v7e-m/nofp/libc_nano.a(lib_a-locale.o) (__ascii_mbtowc)
/usr/lib/gcc/arm-none-eabi/9.2.1/../../../arm-none-eabi/lib/thumb/v7e-m/nofp/libc_nano.a(lib_a-nano-msizer.o)
                              /usr/lib/gcc/arm-none-eabi/9.2.1/../../../arm-none-eabi/lib/thumb/v7e-m/nofp/libc_nano.a(lib_a-nano-reallocr.o) (_malloc_usable_size_r)
/usr/lib/gcc/arm-none-eabi/9.2.1/../../../arm-none-eabi/lib/thumb/v7e-m/nofp/libc_nano.a(lib_a-strcmp.o)
                              /usr/lib/gcc/arm-none-eabi/9.2.1/../../../arm-none-eabi/lib/thumb/v7e-m/nofp/libc_nano.a(lib_a-locale.o) (strcmp)
/usr/lib/gcc/arm-none-eabi/9.2.1/../../../arm-none-eabi/lib/thumb/v7e-m/nofp/libc_nano.a(lib_a-wctomb_r.o)
                              /usr/lib/gcc/arm-none-eabi/9.2.1/../../../arm-none-eabi/lib/thumb/v7e-m/nofp/libc_nano.a(lib_a-locale.o) (__ascii_wctomb)
/usr/lib/gcc/arm-none-eabi/9.2.1/../../../arm-none-eabi/lib/thumb/v7e-m/nofp/libc_nano.a(lib_a-abort.o)
                              /usr/lib/gcc/arm-none-eabi/9.2.1/../../../arm-none-eabi/lib/thumb/v7e-m/nofp/libc_nano.a(lib_a-assert.o) (abort)
/usr/lib/gcc/arm-none-eabi/9.2.1/../../../arm-none-eabi/lib/thumb/v7e-m/nofp/libc_nano.a(lib_a-ctype_.o)
                              /usr/lib/gcc/arm-none-eabi/9.2.1/../../../arm-none-eabi/lib/thumb/v7e-m/nofp/libc_nano.a(lib_a-locale.o) (_ctype_)
/usr/lib/gcc/arm-none-eabi/9.2.1/../../../arm-none-eabi/lib/thumb/v7e-m/nofp/libc_nano.a(lib_a-signal.o)
                              /usr/lib/gcc/arm-none-eabi/9.2.1/../../../arm-none-eabi/lib/thumb/v7e-m/nofp/libc_nano.a(lib_a-abort.o) (raise)
/usr/lib/gcc/arm-none-eabi/9.2.1/thumb/v7e-m/nofp/libgcc.a(_arm_unorddf2.o)
                              /usr/lib/gcc/arm-none-eabi/9.2.1/../../../arm-none-eabi/lib/thumb/v7e-m/nofp/libc_nano.a(lib_a-nano-vfprintf_float.o) (__aeabi_dcmpun)

Discarded input sections

 .group         0x0000000000000000        0xc /home/ch/RIOT/tests/lora_co2_scd30/bin/lora-e5-dev/application_lora_co2_scd30/main.o
 .group         0x0000000000000000        0xc /home/ch/RIOT/tests/lora_co2_scd30/bin/lora-e5-dev/application_lora_co2_scd30/main.o
 .group         0x0000000000000000        0xc /home/ch/RIOT/tests/lora_co2_scd30/bin/lora-e5-dev/application_lora_co2_scd30/main.o
 .group         0x0000000000000000        0xc /home/ch/RIOT/tests/lora_co2_scd30/bin/lora-e5-dev/application_lora_co2_scd30/main.o
 .group         0x0000000000000000        0xc /home/ch/RIOT/tests/lora_co2_scd30/bin/lora-e5-dev/application_lora_co2_scd30/main.o
 .group         0x0000000000000000        0xc /home/ch/RIOT/tests/lora_co2_scd30/bin/lora-e5-dev/application_lora_co2_scd30/main.o
 .group         0x0000000000000000        0xc /home/ch/RIOT/tests/lora_co2_scd30/bin/lora-e5-dev/application_lora_co2_scd30/main.o
 .group         0x0000000000000000        0xc /home/ch/RIOT/tests/lora_co2_scd30/bin/lora-e5-dev/application_lora_co2_scd30/main.o
 .group         0x0000000000000000        0xc /home/ch/RIOT/tests/lora_co2_scd30/bin/lora-e5-dev/application_lora_co2_scd30/main.o
 .group         0x0000000000000000        0xc /home/ch/RIOT/tests/lora_co2_scd30/bin/lora-e5-dev/application_lora_co2_scd30/main.o
 .group         0x0000000000000000        0xc /home/ch/RIOT/tests/lora_co2_scd30/bin/lora-e5-dev/application_lora_co2_scd30/main.o
 .group         0x0000000000000000        0xc /home/ch/RIOT/tests/lora_co2_scd30/bin/lora-e5-dev/application_lora_co2_scd30/main.o
 .group         0x0000000000000000        0xc /home/ch/RIOT/tests/lora_co2_scd30/bin/lora-e5-dev/application_lora_co2_scd30/main.o
 .group         0x0000000000000000        0xc /home/ch/RIOT/tests/lora_co2_scd30/bin/lora-e5-dev/application_lora_co2_scd30/main.o
 .group         0x0000000000000000        0xc /home/ch/RIOT/tests/lora_co2_scd30/bin/lora-e5-dev/application_lora_co2_scd30/main.o
 .group         0x0000000000000000        0xc /home/ch/RIOT/tests/lora_co2_scd30/bin/lora-e5-dev/application_lora_co2_scd30/main.o
 .group         0x0000000000000000        0xc /home/ch/RIOT/tests/lora_co2_scd30/bin/lora-e5-dev/application_lora_co2_scd30/main.o
 .group         0x0000000000000000        0xc /home/ch/RIOT/tests/lora_co2_scd30/bin/lora-e5-dev/application_lora_co2_scd30/main.o
Memory Configuration

Name             Origin             Length             Attributes
ccmram           0x0000000010000000 0x0000000000000000
sram4            0x0000000028000000 0x0000000000000000
rom              0x0000000008000000 0x0000000000040000 xr
ram              0x0000000020000000 0x0000000000010000 w !xr
bkup_ram         0x0000000000000000 0x0000000000000000 w !xr
*default*        0x0000000000000000 0xffffffffffffffff

Linker script and memory map

LOAD /home/ch/RIOT/tests/lora_co2_scd30/bin/lora-e5-dev/application_lora_co2_scd30/main.o
LOAD /home/ch/RIOT/tests/lora_co2_scd30/bin/lora-e5-dev/auto_init/auto_init.o
LOAD /home/ch/RIOT/tests/lora_co2_scd30/bin/lora-e5-dev/board/board.o
LOAD /home/ch/RIOT/tests/lora_co2_scd30/bin/lora-e5-dev/cayenne-lpp/cayenne_lpp.o
LOAD /home/ch/RIOT/tests/lora_co2_scd30/bin/lora-e5-dev/checksum/crc16_ccitt.o
LOAD /home/ch/RIOT/tests/lora_co2_scd30/bin/lora-e5-dev/checksum/crc8.o
LOAD /home/ch/RIOT/tests/lora_co2_scd30/bin/lora-e5-dev/checksum/fletcher16.o
LOAD /home/ch/RIOT/tests/lora_co2_scd30/bin/lora-e5-dev/checksum/fletcher32.o
LOAD /home/ch/RIOT/tests/lora_co2_scd30/bin/lora-e5-dev/checksum/ucrc16.o
LOAD /home/ch/RIOT/tests/lora_co2_scd30/bin/lora-e5-dev/core/assert.o
LOAD /home/ch/RIOT/tests/lora_co2_scd30/bin/lora-e5-dev/core/atomic_c11.o
LOAD /home/ch/RIOT/tests/lora_co2_scd30/bin/lora-e5-dev/core/atomic_sync.o
LOAD /home/ch/RIOT/tests/lora_co2_scd30/bin/lora-e5-dev/core/bitarithm.o
LOAD /home/ch/RIOT/tests/lora_co2_scd30/bin/lora-e5-dev/core/clist.o
LOAD /home/ch/RIOT/tests/lora_co2_scd30/bin/lora-e5-dev/core/cond.o
LOAD /home/ch/RIOT/tests/lora_co2_scd30/bin/lora-e5-dev/core/init.o
LOAD /home/ch/RIOT/tests/lora_co2_scd30/bin/lora-e5-dev/core/msg.o
LOAD /home/ch/RIOT/tests/lora_co2_scd30/bin/lora-e5-dev/core/mutex.o
LOAD /home/ch/RIOT/tests/lora_co2_scd30/bin/lora-e5-dev/core/panic.o
LOAD /home/ch/RIOT/tests/lora_co2_scd30/bin/lora-e5-dev/core/priority_queue.o
LOAD /home/ch/RIOT/tests/lora_co2_scd30/bin/lora-e5-dev/core/ringbuffer.o
LOAD /home/ch/RIOT/tests/lora_co2_scd30/bin/lora-e5-dev/core/rmutex.o
LOAD /home/ch/RIOT/tests/lora_co2_scd30/bin/lora-e5-dev/core/sched.o
LOAD /home/ch/RIOT/tests/lora_co2_scd30/bin/lora-e5-dev/core/thread.o
LOAD /home/ch/RIOT/tests/lora_co2_scd30/bin/lora-e5-dev/cortexm_common/cortexm_init.o
LOAD /home/ch/RIOT/tests/lora_co2_scd30/bin/lora-e5-dev/cortexm_common/mpu.o
LOAD /home/ch/RIOT/tests/lora_co2_scd30/bin/lora-e5-dev/cortexm_common/panic.o
LOAD /home/ch/RIOT/tests/lora_co2_scd30/bin/lora-e5-dev/cortexm_common_periph/pm.o
LOAD /home/ch/RIOT/tests/lora_co2_scd30/bin/lora-e5-dev/cortexm_common/thread_arch.o
LOAD /home/ch/RIOT/tests/lora_co2_scd30/bin/lora-e5-dev/cortexm_common/vectors_cortexm.o
LOAD /home/ch/RIOT/tests/lora_co2_scd30/bin/lora-e5-dev/cpu/cpu_common.o
LOAD /home/ch/RIOT/tests/lora_co2_scd30/bin/lora-e5-dev/cpu/cpu_init.o
LOAD /home/ch/RIOT/tests/lora_co2_scd30/bin/lora-e5-dev/crypto/aes.o
LOAD /home/ch/RIOT/tests/lora_co2_scd30/bin/lora-e5-dev/crypto/chacha20poly1305.o
LOAD /home/ch/RIOT/tests/lora_co2_scd30/bin/lora-e5-dev/crypto/chacha.o
LOAD /home/ch/RIOT/tests/lora_co2_scd30/bin/lora-e5-dev/crypto/chacha_prng.o
LOAD /home/ch/RIOT/tests/lora_co2_scd30/bin/lora-e5-dev/crypto/ciphers.o
LOAD /home/ch/RIOT/tests/lora_co2_scd30/bin/lora-e5-dev/crypto/helper.o
LOAD /home/ch/RIOT/tests/lora_co2_scd30/bin/lora-e5-dev/crypto/poly1305.o
LOAD /home/ch/RIOT/tests/lora_co2_scd30/bin/lora-e5-dev/div/div.o
LOAD /home/ch/RIOT/tests/lora_co2_scd30/bin/lora-e5-dev/driver_sx126x_hal/driver_sx126x_hal.o
LOAD /home/ch/RIOT/tests/lora_co2_scd30/bin/lora-e5-dev/driver_sx126x/sx126x.o
LOAD /home/ch/RIOT/tests/lora_co2_scd30/bin/lora-e5-dev/fmt/fmt.o
LOAD /home/ch/RIOT/tests/lora_co2_scd30/bin/lora-e5-dev/frac/frac.o
LOAD /home/ch/RIOT/tests/lora_co2_scd30/bin/lora-e5-dev/hashes/cmac.o
LOAD /home/ch/RIOT/tests/lora_co2_scd30/bin/lora-e5-dev/hashes/hashes.o
LOAD /home/ch/RIOT/tests/lora_co2_scd30/bin/lora-e5-dev/hashes/md5.o
LOAD /home/ch/RIOT/tests/lora_co2_scd30/bin/lora-e5-dev/hashes/pbkdf2.o
LOAD /home/ch/RIOT/tests/lora_co2_scd30/bin/lora-e5-dev/hashes/sha1.o
LOAD /home/ch/RIOT/tests/lora_co2_scd30/bin/lora-e5-dev/hashes/sha224.o
LOAD /home/ch/RIOT/tests/lora_co2_scd30/bin/lora-e5-dev/hashes/sha256.o
LOAD /home/ch/RIOT/tests/lora_co2_scd30/bin/lora-e5-dev/hashes/sha2xx_common.o
LOAD /home/ch/RIOT/tests/lora_co2_scd30/bin/lora-e5-dev/hashes/sha3.o
LOAD /home/ch/RIOT/tests/lora_co2_scd30/bin/lora-e5-dev/iolist/iolist.o
LOAD /home/ch/RIOT/tests/lora_co2_scd30/bin/lora-e5-dev/luid/luid.o
LOAD /home/ch/RIOT/tests/lora_co2_scd30/bin/lora-e5-dev/malloc_thread_safe/malloc_wrappers.o
LOAD /home/ch/RIOT/tests/lora_co2_scd30/bin/lora-e5-dev/newlib_syscalls_default/syscalls.o
LOAD /home/ch/RIOT/tests/lora_co2_scd30/bin/lora-e5-dev/periph_common/cpuid.o
LOAD /home/ch/RIOT/tests/lora_co2_scd30/bin/lora-e5-dev/periph_common/gpio.o
LOAD /home/ch/RIOT/tests/lora_co2_scd30/bin/lora-e5-dev/periph_common/i2c.o
LOAD /home/ch/RIOT/tests/lora_co2_scd30/bin/lora-e5-dev/periph_common/init.o
LOAD /home/ch/RIOT/tests/lora_co2_scd30/bin/lora-e5-dev/periph_common/pm.o
LOAD /home/ch/RIOT/tests/lora_co2_scd30/bin/lora-e5-dev/periph_common/spi.o
LOAD /home/ch/RIOT/tests/lora_co2_scd30/bin/lora-e5-dev/periph_common/timer.o
LOAD /home/ch/RIOT/tests/lora_co2_scd30/bin/lora-e5-dev/periph/gpio_all.o
LOAD /home/ch/RIOT/tests/lora_co2_scd30/bin/lora-e5-dev/periph/i2c_1.o
LOAD /home/ch/RIOT/tests/lora_co2_scd30/bin/lora-e5-dev/periph/pm.o
LOAD /home/ch/RIOT/tests/lora_co2_scd30/bin/lora-e5-dev/periph/rtt_all.o
LOAD /home/ch/RIOT/tests/lora_co2_scd30/bin/lora-e5-dev/periph/spi.o
LOAD /home/ch/RIOT/tests/lora_co2_scd30/bin/lora-e5-dev/periph/timer.o
LOAD /home/ch/RIOT/tests/lora_co2_scd30/bin/lora-e5-dev/periph/uart.o
LOAD /home/ch/RIOT/tests/lora_co2_scd30/bin/lora-e5-dev/pm_layered/pm.o
LOAD /home/ch/RIOT/tests/lora_co2_scd30/bin/lora-e5-dev/random/musl_lcg.o
LOAD /home/ch/RIOT/tests/lora_co2_scd30/bin/lora-e5-dev/random/random.o
LOAD /home/ch/RIOT/tests/lora_co2_scd30/bin/lora-e5-dev/scd30/scd30.o
LOAD /home/ch/RIOT/tests/lora_co2_scd30/bin/lora-e5-dev/semtech_loramac_arch/utilities.o
LOAD /home/ch/RIOT/tests/lora_co2_scd30/bin/lora-e5-dev/semtech_loramac_contrib/semtech_loramac_getset.o
LOAD /home/ch/RIOT/tests/lora_co2_scd30/bin/lora-e5-dev/semtech_loramac_contrib/semtech_loramac.o
LOAD /home/ch/RIOT/tests/lora_co2_scd30/bin/lora-e5-dev/semtech_loramac_contrib/semtech_loramac_radio.o
LOAD /home/ch/RIOT/tests/lora_co2_scd30/bin/lora-e5-dev/semtech_loramac_contrib/semtech_loramac_timer.o
LOAD /home/ch/RIOT/tests/lora_co2_scd30/bin/lora-e5-dev/semtech_loramac_crypto/cmac.o
LOAD /home/ch/RIOT/tests/lora_co2_scd30/bin/lora-e5-dev/semtech_loramac_mac/LoRaMacCrypto.o
LOAD /home/ch/RIOT/tests/lora_co2_scd30/bin/lora-e5-dev/semtech_loramac_mac/LoRaMac.o
LOAD /home/ch/RIOT/tests/lora_co2_scd30/bin/lora-e5-dev/semtech_loramac_mac_region/RegionAS923.o
LOAD /home/ch/RIOT/tests/lora_co2_scd30/bin/lora-e5-dev/semtech_loramac_mac_region/RegionAU915.o
LOAD /home/ch/RIOT/tests/lora_co2_scd30/bin/lora-e5-dev/semtech_loramac_mac_region/RegionCN470.o
LOAD /home/ch/RIOT/tests/lora_co2_scd30/bin/lora-e5-dev/semtech_loramac_mac_region/RegionCN779.o
LOAD /home/ch/RIOT/tests/lora_co2_scd30/bin/lora-e5-dev/semtech_loramac_mac_region/RegionCommon.o
LOAD /home/ch/RIOT/tests/lora_co2_scd30/bin/lora-e5-dev/semtech_loramac_mac_region/RegionEU433.o
LOAD /home/ch/RIOT/tests/lora_co2_scd30/bin/lora-e5-dev/semtech_loramac_mac_region/RegionEU868.o
LOAD /home/ch/RIOT/tests/lora_co2_scd30/bin/lora-e5-dev/semtech_loramac_mac_region/RegionIN865.o
LOAD /home/ch/RIOT/tests/lora_co2_scd30/bin/lora-e5-dev/semtech_loramac_mac_region/RegionKR920.o
LOAD /home/ch/RIOT/tests/lora_co2_scd30/bin/lora-e5-dev/semtech_loramac_mac_region/Region.o
LOAD /home/ch/RIOT/tests/lora_co2_scd30/bin/lora-e5-dev/semtech_loramac_mac_region/RegionRU864.o
LOAD /home/ch/RIOT/tests/lora_co2_scd30/bin/lora-e5-dev/semtech_loramac_mac_region/RegionUS915-Hybrid.o
LOAD /home/ch/RIOT/tests/lora_co2_scd30/bin/lora-e5-dev/semtech_loramac_mac_region/RegionUS915.o
LOAD /home/ch/RIOT/tests/lora_co2_scd30/bin/lora-e5-dev/stdio_uart/stdio_uart.o
LOAD /home/ch/RIOT/tests/lora_co2_scd30/bin/lora-e5-dev/stm32_clk/stmclk_common.o
LOAD /home/ch/RIOT/tests/lora_co2_scd30/bin/lora-e5-dev/stm32_clk/stmclk_l4wx.o
LOAD /home/ch/RIOT/tests/lora_co2_scd30/bin/lora-e5-dev/stm32_vectors/STM32WLE5xx.o
LOAD /home/ch/RIOT/tests/lora_co2_scd30/bin/lora-e5-dev/sx126x/sx126x_netdev.o
LOAD /home/ch/RIOT/tests/lora_co2_scd30/bin/lora-e5-dev/sx126x/sx126x.o
LOAD /home/ch/RIOT/tests/lora_co2_scd30/bin/lora-e5-dev/xtimer/xtimer_core.o
LOAD /home/ch/RIOT/tests/lora_co2_scd30/bin/lora-e5-dev/xtimer/xtimer.o
LOAD /home/ch/RIOT/tests/lora_co2_scd30/bin/lora-e5-dev/ztimer_core/convert_frac.o
LOAD /home/ch/RIOT/tests/lora_co2_scd30/bin/lora-e5-dev/ztimer_core/convert.o
LOAD /home/ch/RIOT/tests/lora_co2_scd30/bin/lora-e5-dev/ztimer_core/convert_shift.o
LOAD /home/ch/RIOT/tests/lora_co2_scd30/bin/lora-e5-dev/ztimer_core/core.o
LOAD /home/ch/RIOT/tests/lora_co2_scd30/bin/lora-e5-dev/ztimer_core/init.o
LOAD /home/ch/RIOT/tests/lora_co2_scd30/bin/lora-e5-dev/ztimer_core/periodic.o
LOAD /home/ch/RIOT/tests/lora_co2_scd30/bin/lora-e5-dev/ztimer_core/periph_rtt.o
LOAD /home/ch/RIOT/tests/lora_co2_scd30/bin/lora-e5-dev/ztimer_core/periph_timer.o
LOAD /home/ch/RIOT/tests/lora_co2_scd30/bin/lora-e5-dev/ztimer_core/util.o
LOAD /usr/lib/gcc/arm-none-eabi/9.2.1/../../../arm-none-eabi/lib/thumb/v7e-m/nofp/libm.a
LOAD /usr/lib/gcc/arm-none-eabi/9.2.1/thumb/v7e-m/nofp/libgcc.a
                0x0000000008000000                _rom_start_addr = 0x8000000
                0x0000000020000000                _ram_start_addr = 0x20000000
                0x0000000000040000                _rom_length = 0x40000
                0x0000000000010000                _ram_length = 0x10000
LOAD /usr/lib/gcc/arm-none-eabi/9.2.1/../../../arm-none-eabi/lib/thumb/v7e-m/nofp/libc_nano.a
START GROUP
LOAD /usr/lib/gcc/arm-none-eabi/9.2.1/thumb/v7e-m/nofp/libgcc.a
LOAD /usr/lib/gcc/arm-none-eabi/9.2.1/../../../arm-none-eabi/lib/thumb/v7e-m/nofp/libg_nano.a
LOAD /usr/lib/gcc/arm-none-eabi/9.2.1/../../../arm-none-eabi/lib/thumb/v7e-m/nofp/libc_nano.a
END GROUP
START GROUP
LOAD /usr/lib/gcc/arm-none-eabi/9.2.1/thumb/v7e-m/nofp/libgcc.a
LOAD /usr/lib/gcc/arm-none-eabi/9.2.1/../../../arm-none-eabi/lib/thumb/v7e-m/nofp/libc_nano.a
END GROUP
                0x0000000000000000                ccmram_length = DEFINED (ccmram_len)?ccmram_len:0x0
                0x0000000000000000                sram4_length = DEFINED (sram4_length)?sram4_length:0x0

.heap2          0x0000000000000000        0x0
                0x0000000000000000                _sheap2 = .
                0x0000000028000000                _eheap2 = (ORIGIN (sram4) + LENGTH (sram4))
                0x0000000000000000                _rom_offset = DEFINED (_rom_offset)?_rom_offset:0x0
                0x0000000000040000                _fw_rom_length = DEFINED (_fw_rom_length)?_fw_rom_length:(_rom_length - _rom_offset)
                0x0000000000000001                ASSERT ((_fw_rom_length <= (_rom_length - _rom_offset)), Specified firmware size does not fit in ROM)
                0x0000000000000000                _backup_ram_start_addr = DEFINED (_backup_ram_start_addr)?_backup_ram_start_addr:0x0
                0x0000000000000000                _backup_ram_len = DEFINED (_backup_ram_len)?_backup_ram_len:0x0

.text           0x0000000008000000     0xe464
                0x0000000008000000                . = ALIGN (0x4)
                0x0000000008000000                _sfixed = .
                0x0000000008000000                _isr_vectors = DEFINED (_isr_vectors)?_isr_vectors:.
 *(SORT_BY_NAME(.vectors*))
 .vectors.0     0x0000000008000000       0x40 /home/ch/RIOT/tests/lora_co2_scd30/bin/lora-e5-dev/cortexm_common/vectors_cortexm.o
                0x0000000008000000                cortex_vector_base
 .vectors.1     0x0000000008000040       0xf8 /home/ch/RIOT/tests/lora_co2_scd30/bin/lora-e5-dev/stm32_vectors/STM32WLE5xx.o
                0x0000000008000040                vector_cpu
 *(.text .text.* .gnu.linkonce.t.*)
 .text.setup_scd30
                0x0000000008000138       0xc8 /home/ch/RIOT/tests/lora_co2_scd30/bin/lora-e5-dev/application_lora_co2_scd30/main.o
                0x0000000008000138                setup_scd30
 .text.get_mesurement
                0x0000000008000200       0x44 /home/ch/RIOT/tests/lora_co2_scd30/bin/lora-e5-dev/application_lora_co2_scd30/main.o
                0x0000000008000200                get_mesurement
 .text.startup.main
                0x0000000008000244      0x184 /home/ch/RIOT/tests/lora_co2_scd30/bin/lora-e5-dev/application_lora_co2_scd30/main.o
                0x0000000008000244                main
 .text.auto_init
                0x00000000080003c8       0x12 /home/ch/RIOT/tests/lora_co2_scd30/bin/lora-e5-dev/auto_init/auto_init.o
                0x00000000080003c8                auto_init
 *fill*         0x00000000080003da        0x2 
 .text.board_init
                0x00000000080003dc       0x5c /home/ch/RIOT/tests/lora_co2_scd30/bin/lora-e5-dev/board/board.o
                0x00000000080003dc                board_init
 .text.lora_e5_dev_sx126x_set_rf_mode
                0x0000000008000438       0x3c /home/ch/RIOT/tests/lora_co2_scd30/bin/lora-e5-dev/board/board.o
                0x0000000008000438                lora_e5_dev_sx126x_set_rf_mode
 .text.cayenne_lpp_reset
                0x0000000008000474       0x14 /home/ch/RIOT/tests/lora_co2_scd30/bin/lora-e5-dev/cayenne-lpp/cayenne_lpp.o
                0x0000000008000474                cayenne_lpp_reset
 .text.cayenne_lpp_add_analog_output
                0x0000000008000488       0x4c /home/ch/RIOT/tests/lora_co2_scd30/bin/lora-e5-dev/cayenne-lpp/cayenne_lpp.o
                0x0000000008000488                cayenne_lpp_add_analog_output
 .text.crc8     0x00000000080004d4       0x28 /home/ch/RIOT/tests/lora_co2_scd30/bin/lora-e5-dev/checksum/crc8.o
                0x00000000080004d4                crc8
 .text.main_trampoline
                0x00000000080004fc       0x18 /home/ch/RIOT/tests/lora_co2_scd30/bin/lora-e5-dev/core/init.o
 .text.kernel_init
                0x0000000008000514       0x34 /home/ch/RIOT/tests/lora_co2_scd30/bin/lora-e5-dev/core/init.o
                0x0000000008000514                kernel_init
 .text._msg_receive
                0x0000000008000548       0xec /home/ch/RIOT/tests/lora_co2_scd30/bin/lora-e5-dev/core/msg.o
 .text.queue_msg
                0x0000000008000634       0x2a /home/ch/RIOT/tests/lora_co2_scd30/bin/lora-e5-dev/core/msg.o
 *fill*         0x000000000800065e        0x2 
 .text._msg_send_oneway
                0x0000000008000660       0x44 /home/ch/RIOT/tests/lora_co2_scd30/bin/lora-e5-dev/core/msg.o
 .text._msg_send
                0x00000000080006a4       0xa4 /home/ch/RIOT/tests/lora_co2_scd30/bin/lora-e5-dev/core/msg.o
 .text.msg_send_to_self
                0x0000000008000748       0x28 /home/ch/RIOT/tests/lora_co2_scd30/bin/lora-e5-dev/core/msg.o
                0x0000000008000748                msg_send_to_self
 .text.msg_send_int
                0x0000000008000770        0x8 /home/ch/RIOT/tests/lora_co2_scd30/bin/lora-e5-dev/core/msg.o
                0x0000000008000770                msg_send_int
 .text.msg_send
                0x0000000008000778       0x2c /home/ch/RIOT/tests/lora_co2_scd30/bin/lora-e5-dev/core/msg.o
                0x0000000008000778                msg_send
 .text.msg_send_receive
                0x00000000080007a4       0x54 /home/ch/RIOT/tests/lora_co2_scd30/bin/lora-e5-dev/core/msg.o
                0x00000000080007a4                msg_send_receive
 .text.msg_reply
                0x00000000080007f8       0x54 /home/ch/RIOT/tests/lora_co2_scd30/bin/lora-e5-dev/core/msg.o
                0x00000000080007f8                msg_reply
 .text.msg_receive
                0x000000000800084c        0x6 /home/ch/RIOT/tests/lora_co2_scd30/bin/lora-e5-dev/core/msg.o
                0x000000000800084c                msg_receive
 *fill*         0x0000000008000852        0x2 
 .text.msg_init_queue
                0x0000000008000854       0x28 /home/ch/RIOT/tests/lora_co2_scd30/bin/lora-e5-dev/core/msg.o
                0x0000000008000854                msg_init_queue
 .text.mutex_lock
                0x000000000800087c       0x68 /home/ch/RIOT/tests/lora_co2_scd30/bin/lora-e5-dev/core/mutex.o
                0x000000000800087c                mutex_lock
 .text.mutex_unlock
                0x00000000080008e4       0x44 /home/ch/RIOT/tests/lora_co2_scd30/bin/lora-e5-dev/core/mutex.o
                0x00000000080008e4                mutex_unlock
 .text.panic_app
                0x0000000008000928        0x2 /home/ch/RIOT/tests/lora_co2_scd30/bin/lora-e5-dev/core/panic.o
                0x0000000008000928                panic_app
 *fill*         0x000000000800092a        0x2 
 .text.core_panic
                0x000000000800092c       0x50 /home/ch/RIOT/tests/lora_co2_scd30/bin/lora-e5-dev/core/panic.o
                0x000000000800092c                core_panic
 .text._unschedule
                0x000000000800097c       0x24 /home/ch/RIOT/tests/lora_co2_scd30/bin/lora-e5-dev/core/sched.o
 .text.sched_run
                0x00000000080009a0       0x6c /home/ch/RIOT/tests/lora_co2_scd30/bin/lora-e5-dev/core/sched.o
                0x00000000080009a0                sched_run
 .text.sched_set_status
                0x0000000008000a0c       0x84 /home/ch/RIOT/tests/lora_co2_scd30/bin/lora-e5-dev/core/sched.o
                0x0000000008000a0c                sched_set_status
 .text.sched_switch
                0x0000000008000a90       0x3c /home/ch/RIOT/tests/lora_co2_scd30/bin/lora-e5-dev/core/sched.o
                0x0000000008000a90                sched_switch
 .text.sched_task_exit
                0x0000000008000acc       0x3c /home/ch/RIOT/tests/lora_co2_scd30/bin/lora-e5-dev/core/sched.o
                0x0000000008000acc                sched_task_exit
 .text.thread_getname
                0x0000000008000b08       0x1c /home/ch/RIOT/tests/lora_co2_scd30/bin/lora-e5-dev/core/thread.o
                0x0000000008000b08                thread_getname
 .text.thread_add_to_list
                0x0000000008000b24       0x30 /home/ch/RIOT/tests/lora_co2_scd30/bin/lora-e5-dev/core/thread.o
                0x0000000008000b24                thread_add_to_list
 .text.thread_create
                0x0000000008000b54       0xe8 /home/ch/RIOT/tests/lora_co2_scd30/bin/lora-e5-dev/core/thread.o
                0x0000000008000b54                thread_create
 .text.cortexm_init
                0x0000000008000c3c       0x40 /home/ch/RIOT/tests/lora_co2_scd30/bin/lora-e5-dev/cortexm_common/cortexm_init.o
                0x0000000008000c3c                cortexm_init
 .text.panic_arch
                0x0000000008000c7c       0x1c /home/ch/RIOT/tests/lora_co2_scd30/bin/lora-e5-dev/cortexm_common/panic.o
                0x0000000008000c7c                panic_arch
 .text.thread_stack_init
                0x0000000008000c98       0x68 /home/ch/RIOT/tests/lora_co2_scd30/bin/lora-e5-dev/cortexm_common/thread_arch.o
                0x0000000008000c98                thread_stack_init
 .text.cpu_switch_context_exit
                0x0000000008000d00       0x18 /home/ch/RIOT/tests/lora_co2_scd30/bin/lora-e5-dev/cortexm_common/thread_arch.o
                0x0000000008000d00                cpu_switch_context_exit
 .text.isr_pendsv
                0x0000000008000d18       0x38 /home/ch/RIOT/tests/lora_co2_scd30/bin/lora-e5-dev/cortexm_common/thread_arch.o
                0x0000000008000d18                isr_pendsv
 .text.isr_svc  0x0000000008000d50       0x10 /home/ch/RIOT/tests/lora_co2_scd30/bin/lora-e5-dev/cortexm_common/thread_arch.o
                0x0000000008000d50                isr_svc
 .text.sched_arch_idle
                0x0000000008000d60       0x10 /home/ch/RIOT/tests/lora_co2_scd30/bin/lora-e5-dev/cortexm_common/thread_arch.o
                0x0000000008000d60                sched_arch_idle
 .text.hard_fault_default
                0x0000000008000d70       0x44 /home/ch/RIOT/tests/lora_co2_scd30/bin/lora-e5-dev/cortexm_common/vectors_cortexm.o
                0x0000000008000d70                hard_fault_default
 .text.nmi_default
                0x0000000008000db4       0x10 /home/ch/RIOT/tests/lora_co2_scd30/bin/lora-e5-dev/cortexm_common/vectors_cortexm.o
                0x0000000008000db4                nmi_default
 .text.mem_manage_default
                0x0000000008000dc4       0x10 /home/ch/RIOT/tests/lora_co2_scd30/bin/lora-e5-dev/cortexm_common/vectors_cortexm.o
                0x0000000008000dc4                mem_manage_default
 .text.bus_fault_default
                0x0000000008000dd4       0x10 /home/ch/RIOT/tests/lora_co2_scd30/bin/lora-e5-dev/cortexm_common/vectors_cortexm.o
                0x0000000008000dd4                bus_fault_default
 .text.usage_fault_default
                0x0000000008000de4       0x10 /home/ch/RIOT/tests/lora_co2_scd30/bin/lora-e5-dev/cortexm_common/vectors_cortexm.o
                0x0000000008000de4                usage_fault_default
 .text.debug_mon_default
                0x0000000008000df4       0x10 /home/ch/RIOT/tests/lora_co2_scd30/bin/lora-e5-dev/cortexm_common/vectors_cortexm.o
                0x0000000008000df4                debug_mon_default
 .text.dummy_handler_default
                0x0000000008000e04       0x10 /home/ch/RIOT/tests/lora_co2_scd30/bin/lora-e5-dev/cortexm_common/vectors_cortexm.o
                0x0000000008000e04                dummy_handler_default
                0x0000000008000e04                isr_systick
 .text.pre_startup
                0x0000000008000e14        0x2 /home/ch/RIOT/tests/lora_co2_scd30/bin/lora-e5-dev/cortexm_common/vectors_cortexm.o
                0x0000000008000e14                pre_startup
 .text.post_startup
                0x0000000008000e16        0x2 /home/ch/RIOT/tests/lora_co2_scd30/bin/lora-e5-dev/cortexm_common/vectors_cortexm.o
                0x0000000008000e16                post_startup
 .text.reset_handler_default
                0x0000000008000e18       0x70 /home/ch/RIOT/tests/lora_co2_scd30/bin/lora-e5-dev/cortexm_common/vectors_cortexm.o
                0x0000000008000e18                reset_handler_default
 .text.hard_fault_handler
                0x0000000008000e88      0x1bc /home/ch/RIOT/tests/lora_co2_scd30/bin/lora-e5-dev/cortexm_common/vectors_cortexm.o
                0x0000000008000e88                hard_fault_handler
 .text.periph_apb_clk
                0x0000000008001044       0x18 /home/ch/RIOT/tests/lora_co2_scd30/bin/lora-e5-dev/cpu/cpu_common.o
                0x0000000008001044                periph_apb_clk
 .text.periph_timer_clk
                0x000000000800105c       0x20 /home/ch/RIOT/tests/lora_co2_scd30/bin/lora-e5-dev/cpu/cpu_common.o
                0x000000000800105c                periph_timer_clk
 .text.periph_clk_en
                0x000000000800107c       0x68 /home/ch/RIOT/tests/lora_co2_scd30/bin/lora-e5-dev/cpu/cpu_common.o
                0x000000000800107c                periph_clk_en
 .text.periph_clk_dis
                0x00000000080010e4       0x72 /home/ch/RIOT/tests/lora_co2_scd30/bin/lora-e5-dev/cpu/cpu_common.o
                0x00000000080010e4                periph_clk_dis
 .text.cpu_init
                0x0000000008001156       0x16 /home/ch/RIOT/tests/lora_co2_scd30/bin/lora-e5-dev/cpu/cpu_init.o
                0x0000000008001156                cpu_init
 .text.aes_init
                0x000000000800116c       0x22 /home/ch/RIOT/tests/lora_co2_scd30/bin/lora-e5-dev/crypto/aes.o
                0x000000000800116c                aes_init
 *fill*         0x000000000800118e        0x2 
 .text.aes_set_encrypt_key.constprop.0
                0x0000000008001190       0xf0 /home/ch/RIOT/tests/lora_co2_scd30/bin/lora-e5-dev/crypto/aes.o
 .text.aes_encrypt
                0x0000000008001280      0x358 /home/ch/RIOT/tests/lora_co2_scd30/bin/lora-e5-dev/crypto/aes.o
                0x0000000008001280                aes_encrypt
 .text._div_mulhi64
                0x00000000080015d8       0x4c /home/ch/RIOT/tests/lora_co2_scd30/bin/lora-e5-dev/div/div.o
                0x00000000080015d8                _div_mulhi64
 .text.sx126x_is_stm32wl.part.0
                0x0000000008001624       0x10 /home/ch/RIOT/tests/lora_co2_scd30/bin/lora-e5-dev/driver_sx126x_hal/driver_sx126x_hal.o
 .text.sx126x_hal_reset
                0x0000000008001634       0x88 /home/ch/RIOT/tests/lora_co2_scd30/bin/lora-e5-dev/driver_sx126x_hal/driver_sx126x_hal.o
                0x0000000008001634                sx126x_hal_reset
 .text.sx126x_hal_wakeup
                0x00000000080016bc       0x48 /home/ch/RIOT/tests/lora_co2_scd30/bin/lora-e5-dev/driver_sx126x_hal/driver_sx126x_hal.o
                0x00000000080016bc                sx126x_hal_wakeup
 .text.sx126x_radio_wait_until_ready
                0x0000000008001704       0x24 /home/ch/RIOT/tests/lora_co2_scd30/bin/lora-e5-dev/driver_sx126x_hal/driver_sx126x_hal.o
 .text.sx126x_hal_write
                0x0000000008001728       0xa8 /home/ch/RIOT/tests/lora_co2_scd30/bin/lora-e5-dev/driver_sx126x_hal/driver_sx126x_hal.o
                0x0000000008001728                sx126x_hal_write
 .text.sx126x_hal_read
                0x00000000080017d0       0x88 /home/ch/RIOT/tests/lora_co2_scd30/bin/lora-e5-dev/driver_sx126x_hal/driver_sx126x_hal.o
                0x00000000080017d0                sx126x_hal_read
 .text.sx126x_set_standby
                0x0000000008001858       0x1e /home/ch/RIOT/tests/lora_co2_scd30/bin/lora-e5-dev/driver_sx126x/sx126x.o
                0x0000000008001858                sx126x_set_standby
 .text.sx126x_set_tx_with_timeout_in_rtc_step
                0x0000000008001876       0x26 /home/ch/RIOT/tests/lora_co2_scd30/bin/lora-e5-dev/driver_sx126x/sx126x.o
                0x0000000008001876                sx126x_set_tx_with_timeout_in_rtc_step
 .text.sx126x_set_tx
                0x000000000800189c       0x10 /home/ch/RIOT/tests/lora_co2_scd30/bin/lora-e5-dev/driver_sx126x/sx126x.o
                0x000000000800189c                sx126x_set_tx
 .text.sx126x_set_rx_with_timeout_in_rtc_step
                0x00000000080018ac       0x26 /home/ch/RIOT/tests/lora_co2_scd30/bin/lora-e5-dev/driver_sx126x/sx126x.o
                0x00000000080018ac                sx126x_set_rx_with_timeout_in_rtc_step
 .text.sx126x_set_rx
                0x00000000080018d2       0x10 /home/ch/RIOT/tests/lora_co2_scd30/bin/lora-e5-dev/driver_sx126x/sx126x.o
                0x00000000080018d2                sx126x_set_rx
 .text.sx126x_stop_timer_on_preamble
                0x00000000080018e2       0x1e /home/ch/RIOT/tests/lora_co2_scd30/bin/lora-e5-dev/driver_sx126x/sx126x.o
                0x00000000080018e2                sx126x_stop_timer_on_preamble
 .text.sx126x_set_reg_mode
                0x0000000008001900       0x1e /home/ch/RIOT/tests/lora_co2_scd30/bin/lora-e5-dev/driver_sx126x/sx126x.o
                0x0000000008001900                sx126x_set_reg_mode
 .text.sx126x_set_pa_cfg
                0x000000000800191e       0x32 /home/ch/RIOT/tests/lora_co2_scd30/bin/lora-e5-dev/driver_sx126x/sx126x.o
                0x000000000800191e                sx126x_set_pa_cfg
 .text.sx126x_write_register
                0x0000000008001950       0x22 /home/ch/RIOT/tests/lora_co2_scd30/bin/lora-e5-dev/driver_sx126x/sx126x.o
                0x0000000008001950                sx126x_write_register
 .text.sx126x_read_register
                0x0000000008001972       0x26 /home/ch/RIOT/tests/lora_co2_scd30/bin/lora-e5-dev/driver_sx126x/sx126x.o
                0x0000000008001972                sx126x_read_register
 .text.sx126x_write_buffer
                0x0000000008001998       0x1c /home/ch/RIOT/tests/lora_co2_scd30/bin/lora-e5-dev/driver_sx126x/sx126x.o
                0x0000000008001998                sx126x_write_buffer
 .text.sx126x_read_buffer
                0x00000000080019b4       0x22 /home/ch/RIOT/tests/lora_co2_scd30/bin/lora-e5-dev/driver_sx126x/sx126x.o
                0x00000000080019b4                sx126x_read_buffer
 .text.sx126x_set_dio_irq_params
                0x00000000080019d6       0x48 /home/ch/RIOT/tests/lora_co2_scd30/bin/lora-e5-dev/driver_sx126x/sx126x.o
                0x00000000080019d6                sx126x_set_dio_irq_params
 .text.sx126x_get_irq_status
                0x0000000008001a1e       0x34 /home/ch/RIOT/tests/lora_co2_scd30/bin/lora-e5-dev/driver_sx126x/sx126x.o
                0x0000000008001a1e                sx126x_get_irq_status
 .text.sx126x_clear_irq_status
                0x0000000008001a52       0x24 /home/ch/RIOT/tests/lora_co2_scd30/bin/lora-e5-dev/driver_sx126x/sx126x.o
                0x0000000008001a52                sx126x_clear_irq_status
 .text.sx126x_get_and_clear_irq_status
                0x0000000008001a76       0x3c /home/ch/RIOT/tests/lora_co2_scd30/bin/lora-e5-dev/driver_sx126x/sx126x.o
                0x0000000008001a76                sx126x_get_and_clear_irq_status
 .text.sx126x_set_rf_freq_in_pll_steps
                0x0000000008001ab2       0x30 /home/ch/RIOT/tests/lora_co2_scd30/bin/lora-e5-dev/driver_sx126x/sx126x.o
                0x0000000008001ab2                sx126x_set_rf_freq_in_pll_steps
 .text.sx126x_set_pkt_type
                0x0000000008001ae2       0x1e /home/ch/RIOT/tests/lora_co2_scd30/bin/lora-e5-dev/driver_sx126x/sx126x.o
                0x0000000008001ae2                sx126x_set_pkt_type
 .text.sx126x_get_pkt_type
                0x0000000008001b00       0x38 /home/ch/RIOT/tests/lora_co2_scd30/bin/lora-e5-dev/driver_sx126x/sx126x.o
                0x0000000008001b00                sx126x_get_pkt_type
 .text.sx126x_set_tx_params
                0x0000000008001b38       0x22 /home/ch/RIOT/tests/lora_co2_scd30/bin/lora-e5-dev/driver_sx126x/sx126x.o
                0x0000000008001b38                sx126x_set_tx_params
 .text.sx126x_set_lora_mod_params
                0x0000000008001b5a       0x78 /home/ch/RIOT/tests/lora_co2_scd30/bin/lora-e5-dev/driver_sx126x/sx126x.o
                0x0000000008001b5a                sx126x_set_lora_mod_params
 .text.sx126x_set_lora_pkt_params
                0x0000000008001bd2       0x80 /home/ch/RIOT/tests/lora_co2_scd30/bin/lora-e5-dev/driver_sx126x/sx126x.o
                0x0000000008001bd2                sx126x_set_lora_pkt_params
 .text.sx126x_get_status
                0x0000000008001c52       0x34 /home/ch/RIOT/tests/lora_co2_scd30/bin/lora-e5-dev/driver_sx126x/sx126x.o
                0x0000000008001c52                sx126x_get_status
 .text.sx126x_get_rx_buffer_status
                0x0000000008001c86       0x32 /home/ch/RIOT/tests/lora_co2_scd30/bin/lora-e5-dev/driver_sx126x/sx126x.o
                0x0000000008001c86                sx126x_get_rx_buffer_status
 .text.sx126x_get_lora_pkt_status
                0x0000000008001cb8       0x54 /home/ch/RIOT/tests/lora_co2_scd30/bin/lora-e5-dev/driver_sx126x/sx126x.o
                0x0000000008001cb8                sx126x_get_lora_pkt_status
 .text.sx126x_get_rssi_inst
                0x0000000008001d0c       0x34 /home/ch/RIOT/tests/lora_co2_scd30/bin/lora-e5-dev/driver_sx126x/sx126x.o
                0x0000000008001d0c                sx126x_get_rssi_inst
 .text.sx126x_reset
                0x0000000008001d40        0x4 /home/ch/RIOT/tests/lora_co2_scd30/bin/lora-e5-dev/driver_sx126x/sx126x.o
                0x0000000008001d40                sx126x_reset
 .text.sx126x_get_random_numbers
                0x0000000008001d44       0xd0 /home/ch/RIOT/tests/lora_co2_scd30/bin/lora-e5-dev/driver_sx126x/sx126x.o
                0x0000000008001d44                sx126x_get_random_numbers
 .text.sx126x_convert_freq_in_hz_to_pll_step
                0x0000000008001e14       0x1e /home/ch/RIOT/tests/lora_co2_scd30/bin/lora-e5-dev/driver_sx126x/sx126x.o
                0x0000000008001e14                sx126x_convert_freq_in_hz_to_pll_step
 .text.sx126x_set_rf_freq
                0x0000000008001e32       0x16 /home/ch/RIOT/tests/lora_co2_scd30/bin/lora-e5-dev/driver_sx126x/sx126x.o
                0x0000000008001e32                sx126x_set_rf_freq
 .text.sx126x_cfg_rx_boosted
                0x0000000008001e48       0x20 /home/ch/RIOT/tests/lora_co2_scd30/bin/lora-e5-dev/driver_sx126x/sx126x.o
                0x0000000008001e48                sx126x_cfg_rx_boosted
 .text.sx126x_set_lora_sync_word
                0x0000000008001e68       0x4e /home/ch/RIOT/tests/lora_co2_scd30/bin/lora-e5-dev/driver_sx126x/sx126x.o
                0x0000000008001e68                sx126x_set_lora_sync_word
 .text.fmt_strlen
                0x0000000008001eb6       0x10 /home/ch/RIOT/tests/lora_co2_scd30/bin/lora-e5-dev/fmt/fmt.o
                0x0000000008001eb6                fmt_strlen
 .text.fmt_hex_byte
                0x0000000008001ec6       0x46 /home/ch/RIOT/tests/lora_co2_scd30/bin/lora-e5-dev/fmt/fmt.o
                0x0000000008001ec6                fmt_hex_byte
 .text.fmt_hex_bytes
                0x0000000008001f0c       0x34 /home/ch/RIOT/tests/lora_co2_scd30/bin/lora-e5-dev/fmt/fmt.o
                0x0000000008001f0c                fmt_hex_bytes
 .text.gcd32    0x0000000008001f40       0x40 /home/ch/RIOT/tests/lora_co2_scd30/bin/lora-e5-dev/frac/frac.o
                0x0000000008001f40                gcd32
 .text.frac_init
                0x0000000008001f80       0xb4 /home/ch/RIOT/tests/lora_co2_scd30/bin/lora-e5-dev/frac/frac.o
                0x0000000008001f80                frac_init
 .text.luid_base
                0x0000000008002034       0x64 /home/ch/RIOT/tests/lora_co2_scd30/bin/lora-e5-dev/luid/luid.o
                0x0000000008002034                luid_base
 .text.luid_get
                0x0000000008002098       0x1c /home/ch/RIOT/tests/lora_co2_scd30/bin/lora-e5-dev/luid/luid.o
                0x0000000008002098                luid_get
 .text.__wrap_malloc
                0x00000000080020b4       0x38 /home/ch/RIOT/tests/lora_co2_scd30/bin/lora-e5-dev/malloc_thread_safe/malloc_wrappers.o
                0x00000000080020b4                __wrap_malloc
 .text._init    0x00000000080020ec        0x2 /home/ch/RIOT/tests/lora_co2_scd30/bin/lora-e5-dev/newlib_syscalls_default/syscalls.o
                0x00000000080020ec                _init
 .text._fini    0x00000000080020ee        0x2 /home/ch/RIOT/tests/lora_co2_scd30/bin/lora-e5-dev/newlib_syscalls_default/syscalls.o
                0x00000000080020ee                _fini
 .text._exit    0x00000000080020f0       0x14 /home/ch/RIOT/tests/lora_co2_scd30/bin/lora-e5-dev/newlib_syscalls_default/syscalls.o
                0x00000000080020f0                _exit
 .text._sbrk_r  0x0000000008002104       0x40 /home/ch/RIOT/tests/lora_co2_scd30/bin/lora-e5-dev/newlib_syscalls_default/syscalls.o
                0x0000000008002104                _sbrk_r
 .text._getpid_r
                0x0000000008002144        0xc /home/ch/RIOT/tests/lora_co2_scd30/bin/lora-e5-dev/newlib_syscalls_default/syscalls.o
                0x0000000008002144                _getpid_r
 .text._kill_r  0x0000000008002150        0xa /home/ch/RIOT/tests/lora_co2_scd30/bin/lora-e5-dev/newlib_syscalls_default/syscalls.o
                0x0000000008002150                _kill_r
 .text._read_r  0x000000000800215a        0x8 /home/ch/RIOT/tests/lora_co2_scd30/bin/lora-e5-dev/newlib_syscalls_default/syscalls.o
                0x000000000800215a                _read_r
 .text._write_r
                0x0000000008002162        0x8 /home/ch/RIOT/tests/lora_co2_scd30/bin/lora-e5-dev/newlib_syscalls_default/syscalls.o
                0x0000000008002162                _write_r
 .text._close_r
                0x000000000800216a        0xa /home/ch/RIOT/tests/lora_co2_scd30/bin/lora-e5-dev/newlib_syscalls_default/syscalls.o
                0x000000000800216a                _close_r
 .text._lseek_r
                0x0000000008002174        0xa /home/ch/RIOT/tests/lora_co2_scd30/bin/lora-e5-dev/newlib_syscalls_default/syscalls.o
                0x0000000008002174                _lseek_r
 .text._fstat_r
                0x000000000800217e        0xa /home/ch/RIOT/tests/lora_co2_scd30/bin/lora-e5-dev/newlib_syscalls_default/syscalls.o
                0x000000000800217e                _fstat_r
 .text._isatty_r
                0x0000000008002188       0x10 /home/ch/RIOT/tests/lora_co2_scd30/bin/lora-e5-dev/newlib_syscalls_default/syscalls.o
                0x0000000008002188                _isatty_r
 .text._gettimeofday_r
                0x0000000008002198       0xb8 /home/ch/RIOT/tests/lora_co2_scd30/bin/lora-e5-dev/newlib_syscalls_default/syscalls.o
                0x0000000008002198                _gettimeofday_r
 .text.cpuid_get
                0x0000000008002250        0xc /home/ch/RIOT/tests/lora_co2_scd30/bin/lora-e5-dev/periph_common/cpuid.o
                0x0000000008002250                cpuid_get
 .text.periph_init
                0x000000000800225c       0x1c /home/ch/RIOT/tests/lora_co2_scd30/bin/lora-e5-dev/periph_common/init.o
                0x000000000800225c                periph_init
 .text.timer_set
                0x0000000008002278       0x22 /home/ch/RIOT/tests/lora_co2_scd30/bin/lora-e5-dev/periph_common/timer.o
                0x0000000008002278                timer_set
 .text.gpio_init
                0x000000000800229a       0x68 /home/ch/RIOT/tests/lora_co2_scd30/bin/lora-e5-dev/periph/gpio_all.o
                0x000000000800229a                gpio_init
 .text.gpio_init_af
                0x0000000008002302       0x58 /home/ch/RIOT/tests/lora_co2_scd30/bin/lora-e5-dev/periph/gpio_all.o
                0x0000000008002302                gpio_init_af
 .text.gpio_set
                0x000000000800235a       0x12 /home/ch/RIOT/tests/lora_co2_scd30/bin/lora-e5-dev/periph/gpio_all.o
                0x000000000800235a                gpio_set
 .text.gpio_clear
                0x000000000800236c       0x14 /home/ch/RIOT/tests/lora_co2_scd30/bin/lora-e5-dev/periph/gpio_all.o
                0x000000000800236c                gpio_clear
 .text.isr_exti
                0x0000000008002380       0x5c /home/ch/RIOT/tests/lora_co2_scd30/bin/lora-e5-dev/periph/gpio_all.o
                0x0000000008002380                isr_exti
 .text._wait_for_bus
                0x00000000080023dc       0x2c /home/ch/RIOT/tests/lora_co2_scd30/bin/lora-e5-dev/periph/i2c_1.o
 .text._stop    0x0000000008002408       0x34 /home/ch/RIOT/tests/lora_co2_scd30/bin/lora-e5-dev/periph/i2c_1.o
 .text._wait_isr_set
                0x000000000800243c       0x54 /home/ch/RIOT/tests/lora_co2_scd30/bin/lora-e5-dev/periph/i2c_1.o
 .text._start   0x0000000008002490       0x84 /home/ch/RIOT/tests/lora_co2_scd30/bin/lora-e5-dev/periph/i2c_1.o
 .text._write   0x0000000008002514       0x94 /home/ch/RIOT/tests/lora_co2_scd30/bin/lora-e5-dev/periph/i2c_1.o
 .text.i2c_init
                0x00000000080025a8       0x98 /home/ch/RIOT/tests/lora_co2_scd30/bin/lora-e5-dev/periph/i2c_1.o
                0x00000000080025a8                i2c_init
 .text.i2c_acquire
                0x0000000008002640       0x38 /home/ch/RIOT/tests/lora_co2_scd30/bin/lora-e5-dev/periph/i2c_1.o
                0x0000000008002640                i2c_acquire
 .text.i2c_release
                0x0000000008002678       0x3c /home/ch/RIOT/tests/lora_co2_scd30/bin/lora-e5-dev/periph/i2c_1.o
                0x0000000008002678                i2c_release
 .text.i2c_read_bytes
                0x00000000080026b4       0x90 /home/ch/RIOT/tests/lora_co2_scd30/bin/lora-e5-dev/periph/i2c_1.o
                0x00000000080026b4                i2c_read_bytes
 .text.i2c_write_bytes
                0x0000000008002744       0x28 /home/ch/RIOT/tests/lora_co2_scd30/bin/lora-e5-dev/periph/i2c_1.o
                0x0000000008002744                i2c_write_bytes
 .text.isr_i2c2_er
                0x000000000800276c       0x10 /home/ch/RIOT/tests/lora_co2_scd30/bin/lora-e5-dev/periph/i2c_1.o
                0x000000000800276c                isr_i2c2_er
 .text.pm_set   0x000000000800277c       0x74 /home/ch/RIOT/tests/lora_co2_scd30/bin/lora-e5-dev/periph/pm.o
                0x000000000800277c                pm_set
 .text.rtt_get_counter
                0x00000000080027f0       0x10 /home/ch/RIOT/tests/lora_co2_scd30/bin/lora-e5-dev/periph/rtt_all.o
                0x00000000080027f0                rtt_get_counter
 .text.rtt_set_alarm
                0x0000000008002800       0x44 /home/ch/RIOT/tests/lora_co2_scd30/bin/lora-e5-dev/periph/rtt_all.o
                0x0000000008002800                rtt_set_alarm
 .text.rtt_clear_alarm
                0x0000000008002844        0xc /home/ch/RIOT/tests/lora_co2_scd30/bin/lora-e5-dev/periph/rtt_all.o
                0x0000000008002844                rtt_clear_alarm
 .text.rtt_poweron
                0x0000000008002850        0xa /home/ch/RIOT/tests/lora_co2_scd30/bin/lora-e5-dev/periph/rtt_all.o
                0x0000000008002850                rtt_poweron
 *fill*         0x000000000800285a        0x2 
 .text.rtt_init
                0x000000000800285c       0x70 /home/ch/RIOT/tests/lora_co2_scd30/bin/lora-e5-dev/periph/rtt_all.o
                0x000000000800285c                rtt_init
 .text.isr_lptim1
                0x00000000080028cc       0x64 /home/ch/RIOT/tests/lora_co2_scd30/bin/lora-e5-dev/periph/rtt_all.o
                0x00000000080028cc                isr_lptim1
 .text.spi_init_pins
                0x0000000008002930       0x5c /home/ch/RIOT/tests/lora_co2_scd30/bin/lora-e5-dev/periph/spi.o
                0x0000000008002930                spi_init_pins
 .text.spi_init
                0x000000000800298c       0x5c /home/ch/RIOT/tests/lora_co2_scd30/bin/lora-e5-dev/periph/spi.o
                0x000000000800298c                spi_init
 .text.spi_init_cs
                0x00000000080029e8       0x64 /home/ch/RIOT/tests/lora_co2_scd30/bin/lora-e5-dev/periph/spi.o
                0x00000000080029e8                spi_init_cs
 .text.spi_acquire
                0x0000000008002a4c       0xc4 /home/ch/RIOT/tests/lora_co2_scd30/bin/lora-e5-dev/periph/spi.o
                0x0000000008002a4c                spi_acquire
 .text.spi_release
                0x0000000008002b10       0x3c /home/ch/RIOT/tests/lora_co2_scd30/bin/lora-e5-dev/periph/spi.o
                0x0000000008002b10                spi_release
 .text.spi_transfer_bytes
                0x0000000008002b4c       0xe0 /home/ch/RIOT/tests/lora_co2_scd30/bin/lora-e5-dev/periph/spi.o
                0x0000000008002b4c                spi_transfer_bytes
 .text.timer_set_absolute
                0x0000000008002c2c       0x38 /home/ch/RIOT/tests/lora_co2_scd30/bin/lora-e5-dev/periph/timer.o
                0x0000000008002c2c                timer_set_absolute
 .text.timer_clear
                0x0000000008002c64       0x28 /home/ch/RIOT/tests/lora_co2_scd30/bin/lora-e5-dev/periph/timer.o
                0x0000000008002c64                timer_clear
 .text.timer_read
                0x0000000008002c8c       0x10 /home/ch/RIOT/tests/lora_co2_scd30/bin/lora-e5-dev/periph/timer.o
                0x0000000008002c8c                timer_read
 .text.timer_start
                0x0000000008002c9c       0x14 /home/ch/RIOT/tests/lora_co2_scd30/bin/lora-e5-dev/periph/timer.o
                0x0000000008002c9c                timer_start
 .text.timer_init
                0x0000000008002cb0       0x54 /home/ch/RIOT/tests/lora_co2_scd30/bin/lora-e5-dev/periph/timer.o
                0x0000000008002cb0                timer_init
 .text.isr_tim2
                0x0000000008002d04       0x74 /home/ch/RIOT/tests/lora_co2_scd30/bin/lora-e5-dev/periph/timer.o
                0x0000000008002d04                isr_tim2
 .text.irq_handler
                0x0000000008002d78       0x54 /home/ch/RIOT/tests/lora_co2_scd30/bin/lora-e5-dev/periph/uart.o
 .text.uart_enable_clock
                0x0000000008002dcc       0x30 /home/ch/RIOT/tests/lora_co2_scd30/bin/lora-e5-dev/periph/uart.o
 .text.uart_init
                0x0000000008002dfc       0xa8 /home/ch/RIOT/tests/lora_co2_scd30/bin/lora-e5-dev/periph/uart.o
                0x0000000008002dfc                uart_init
 .text.uart_write
                0x0000000008002ea4       0x40 /home/ch/RIOT/tests/lora_co2_scd30/bin/lora-e5-dev/periph/uart.o
                0x0000000008002ea4                uart_write
 .text.isr_usart1
                0x0000000008002ee4        0x6 /home/ch/RIOT/tests/lora_co2_scd30/bin/lora-e5-dev/periph/uart.o
                0x0000000008002ee4                isr_usart1
 .text.isr_usart2
                0x0000000008002eea        0x6 /home/ch/RIOT/tests/lora_co2_scd30/bin/lora-e5-dev/periph/uart.o
                0x0000000008002eea                isr_usart2
 .text.isr_lpuart1
                0x0000000008002ef0        0x6 /home/ch/RIOT/tests/lora_co2_scd30/bin/lora-e5-dev/periph/uart.o
                0x0000000008002ef0                isr_lpuart1
 *fill*         0x0000000008002ef6        0x2 
 .text.pm_set_lowest
                0x0000000008002ef8       0x3c /home/ch/RIOT/tests/lora_co2_scd30/bin/lora-e5-dev/pm_layered/pm.o
                0x0000000008002ef8                pm_set_lowest
 .text.pm_block
                0x0000000008002f34       0x2c /home/ch/RIOT/tests/lora_co2_scd30/bin/lora-e5-dev/pm_layered/pm.o
                0x0000000008002f34                pm_block
 .text.pm_unblock
                0x0000000008002f60       0x2c /home/ch/RIOT/tests/lora_co2_scd30/bin/lora-e5-dev/pm_layered/pm.o
                0x0000000008002f60                pm_unblock
 .text.pm_off   0x0000000008002f8c       0x10 /home/ch/RIOT/tests/lora_co2_scd30/bin/lora-e5-dev/pm_layered/pm.o
                0x0000000008002f8c                pm_off
 .text.random_init
                0x0000000008002f9c       0x10 /home/ch/RIOT/tests/lora_co2_scd30/bin/lora-e5-dev/random/musl_lcg.o
                0x0000000008002f9c                random_init
 .text.random_uint32
                0x0000000008002fac       0x30 /home/ch/RIOT/tests/lora_co2_scd30/bin/lora-e5-dev/random/musl_lcg.o
                0x0000000008002fac                random_uint32
 .text.auto_init_random
                0x0000000008002fdc       0x18 /home/ch/RIOT/tests/lora_co2_scd30/bin/lora-e5-dev/random/random.o
                0x0000000008002fdc                auto_init_random
 .text.random_uint32_range
                0x0000000008002ff4       0x48 /home/ch/RIOT/tests/lora_co2_scd30/bin/lora-e5-dev/random/random.o
                0x0000000008002ff4                random_uint32_range
 .text.byteorder_bebuftohl
                0x000000000800303c        0x6 /home/ch/RIOT/tests/lora_co2_scd30/bin/lora-e5-dev/scd30/scd30.o
 .text._scd30_crc_check.constprop.0
                0x0000000008003042       0x18 /home/ch/RIOT/tests/lora_co2_scd30/bin/lora-e5-dev/scd30/scd30.o
 .text._scd30_read_data
                0x000000000800305a       0xb6 /home/ch/RIOT/tests/lora_co2_scd30/bin/lora-e5-dev/scd30/scd30.o
 .text.scd30_set_param
                0x0000000008003110       0x5a /home/ch/RIOT/tests/lora_co2_scd30/bin/lora-e5-dev/scd30/scd30.o
                0x0000000008003110                scd30_set_param
 .text.scd30_get_param
                0x000000000800316a       0x7e /home/ch/RIOT/tests/lora_co2_scd30/bin/lora-e5-dev/scd30/scd30.o
                0x000000000800316a                scd30_get_param
 .text.scd30_read_periodic
                0x00000000080031e8       0x68 /home/ch/RIOT/tests/lora_co2_scd30/bin/lora-e5-dev/scd30/scd30.o
                0x00000000080031e8                scd30_read_periodic
 .text.scd30_start_periodic_measurement
                0x0000000008003250       0x40 /home/ch/RIOT/tests/lora_co2_scd30/bin/lora-e5-dev/scd30/scd30.o
                0x0000000008003250                scd30_start_periodic_measurement
 .text.scd30_reset
                0x0000000008003290       0x44 /home/ch/RIOT/tests/lora_co2_scd30/bin/lora-e5-dev/scd30/scd30.o
                0x0000000008003290                scd30_reset
 .text.scd30_init
                0x00000000080032d4       0x2c /home/ch/RIOT/tests/lora_co2_scd30/bin/lora-e5-dev/scd30/scd30.o
                0x00000000080032d4                scd30_init
 .text.srand1   0x0000000008003300        0x2 /home/ch/RIOT/tests/lora_co2_scd30/bin/lora-e5-dev/semtech_loramac_arch/utilities.o
                0x0000000008003300                srand1
 .text.randr    0x0000000008003302       0x16 /home/ch/RIOT/tests/lora_co2_scd30/bin/lora-e5-dev/semtech_loramac_arch/utilities.o
                0x0000000008003302                randr
 .text.memcpy1  0x0000000008003318        0x4 /home/ch/RIOT/tests/lora_co2_scd30/bin/lora-e5-dev/semtech_loramac_arch/utilities.o
                0x0000000008003318                memcpy1
 .text.memcpyr  0x000000000800331c       0x14 /home/ch/RIOT/tests/lora_co2_scd30/bin/lora-e5-dev/semtech_loramac_arch/utilities.o
                0x000000000800331c                memcpyr
 .text.memset1  0x0000000008003330        0x4 /home/ch/RIOT/tests/lora_co2_scd30/bin/lora-e5-dev/semtech_loramac_arch/utilities.o
                0x0000000008003330                memset1
 .text._semtech_loramac_set_rx2_params.isra.0
                0x0000000008003334       0x30 /home/ch/RIOT/tests/lora_co2_scd30/bin/lora-e5-dev/semtech_loramac_contrib/semtech_loramac_getset.o
 .text.semtech_loramac_set_deveui
                0x0000000008003364        0x8 /home/ch/RIOT/tests/lora_co2_scd30/bin/lora-e5-dev/semtech_loramac_contrib/semtech_loramac_getset.o
                0x0000000008003364                semtech_loramac_set_deveui
 .text.semtech_loramac_set_appeui
                0x000000000800336c        0x8 /home/ch/RIOT/tests/lora_co2_scd30/bin/lora-e5-dev/semtech_loramac_contrib/semtech_loramac_getset.o
                0x000000000800336c                semtech_loramac_set_appeui
 .text.semtech_loramac_set_appkey
                0x0000000008003374        0x8 /home/ch/RIOT/tests/lora_co2_scd30/bin/lora-e5-dev/semtech_loramac_contrib/semtech_loramac_getset.o
                0x0000000008003374                semtech_loramac_set_appkey
 .text.semtech_loramac_set_class
                0x000000000800337c       0x28 /home/ch/RIOT/tests/lora_co2_scd30/bin/lora-e5-dev/semtech_loramac_contrib/semtech_loramac_getset.o
                0x000000000800337c                semtech_loramac_set_class
 .text.semtech_loramac_set_dr
                0x00000000080033a4       0x28 /home/ch/RIOT/tests/lora_co2_scd30/bin/lora-e5-dev/semtech_loramac_contrib/semtech_loramac_getset.o
                0x00000000080033a4                semtech_loramac_set_dr
 .text.semtech_loramac_get_dr
                0x00000000080033cc       0x28 /home/ch/RIOT/tests/lora_co2_scd30/bin/lora-e5-dev/semtech_loramac_contrib/semtech_loramac_getset.o
                0x00000000080033cc                semtech_loramac_get_dr
 .text.semtech_loramac_set_adr
                0x00000000080033f4       0x28 /home/ch/RIOT/tests/lora_co2_scd30/bin/lora-e5-dev/semtech_loramac_contrib/semtech_loramac_getset.o
                0x00000000080033f4                semtech_loramac_set_adr
 .text.semtech_loramac_set_public_network
                0x000000000800341c       0x28 /home/ch/RIOT/tests/lora_co2_scd30/bin/lora-e5-dev/semtech_loramac_contrib/semtech_loramac_getset.o
                0x000000000800341c                semtech_loramac_set_public_network
 .text.semtech_loramac_set_netid
                0x0000000008003444       0x26 /home/ch/RIOT/tests/lora_co2_scd30/bin/lora-e5-dev/semtech_loramac_contrib/semtech_loramac_getset.o
                0x0000000008003444                semtech_loramac_set_netid
 .text.semtech_loramac_set_tx_port
                0x000000000800346a        0x4 /home/ch/RIOT/tests/lora_co2_scd30/bin/lora-e5-dev/semtech_loramac_contrib/semtech_loramac_getset.o
                0x000000000800346a                semtech_loramac_set_tx_port
 .text.semtech_loramac_set_tx_mode
                0x000000000800346e        0x4 /home/ch/RIOT/tests/lora_co2_scd30/bin/lora-e5-dev/semtech_loramac_contrib/semtech_loramac_getset.o
                0x000000000800346e                semtech_loramac_set_tx_mode
 .text.semtech_loramac_set_system_max_rx_error
                0x0000000008003472       0x26 /home/ch/RIOT/tests/lora_co2_scd30/bin/lora-e5-dev/semtech_loramac_contrib/semtech_loramac_getset.o
                0x0000000008003472                semtech_loramac_set_system_max_rx_error
 .text.semtech_loramac_set_min_rx_symbols
                0x0000000008003498       0x28 /home/ch/RIOT/tests/lora_co2_scd30/bin/lora-e5-dev/semtech_loramac_contrib/semtech_loramac_getset.o
                0x0000000008003498                semtech_loramac_set_min_rx_symbols
 .text.semtech_loramac_set_rx2_dr
                0x00000000080034c0       0x2c /home/ch/RIOT/tests/lora_co2_scd30/bin/lora-e5-dev/semtech_loramac_contrib/semtech_loramac_getset.o
                0x00000000080034c0                semtech_loramac_set_rx2_dr
 .text.mlme_indication
                0x00000000080034ec       0x24 /home/ch/RIOT/tests/lora_co2_scd30/bin/lora-e5-dev/semtech_loramac_contrib/semtech_loramac.o
 .text.mlme_confirm
                0x0000000008003510       0x24 /home/ch/RIOT/tests/lora_co2_scd30/bin/lora-e5-dev/semtech_loramac_contrib/semtech_loramac.o
 .text.mcps_indication
                0x0000000008003534       0x24 /home/ch/RIOT/tests/lora_co2_scd30/bin/lora-e5-dev/semtech_loramac_contrib/semtech_loramac.o
 .text.mcps_confirm
                0x0000000008003558       0x24 /home/ch/RIOT/tests/lora_co2_scd30/bin/lora-e5-dev/semtech_loramac_contrib/semtech_loramac.o
 .text._semtech_loramac_event_cb
                0x000000000800357c       0x9c /home/ch/RIOT/tests/lora_co2_scd30/bin/lora-e5-dev/semtech_loramac_contrib/semtech_loramac.o
 .text._semtech_loramac_event_loop
                0x0000000008003618       0xf0 /home/ch/RIOT/tests/lora_co2_scd30/bin/lora-e5-dev/semtech_loramac_contrib/semtech_loramac.o
                0x0000000008003618                _semtech_loramac_event_loop
 .text._join    0x0000000008003708       0xd4 /home/ch/RIOT/tests/lora_co2_scd30/bin/lora-e5-dev/semtech_loramac_contrib/semtech_loramac.o
 .text._send    0x00000000080037dc       0x98 /home/ch/RIOT/tests/lora_co2_scd30/bin/lora-e5-dev/semtech_loramac_contrib/semtech_loramac.o
 .text._init_loramac
                0x0000000008003874       0x8c /home/ch/RIOT/tests/lora_co2_scd30/bin/lora-e5-dev/semtech_loramac_contrib/semtech_loramac.o
                0x0000000008003874                _init_loramac
 .text.semtech_loramac_init
                0x0000000008003900       0x64 /home/ch/RIOT/tests/lora_co2_scd30/bin/lora-e5-dev/semtech_loramac_contrib/semtech_loramac.o
                0x0000000008003900                semtech_loramac_init
 .text.semtech_loramac_is_mac_joined
                0x0000000008003964       0x28 /home/ch/RIOT/tests/lora_co2_scd30/bin/lora-e5-dev/semtech_loramac_contrib/semtech_loramac.o
                0x0000000008003964                semtech_loramac_is_mac_joined
 .text.semtech_loramac_join
                0x000000000800398c       0x58 /home/ch/RIOT/tests/lora_co2_scd30/bin/lora-e5-dev/semtech_loramac_contrib/semtech_loramac.o
                0x000000000800398c                semtech_loramac_join
 .text.semtech_loramac_send
                0x00000000080039e4       0x5c /home/ch/RIOT/tests/lora_co2_scd30/bin/lora-e5-dev/semtech_loramac_contrib/semtech_loramac.o
                0x00000000080039e4                semtech_loramac_send
 .text.SX127XGetStatus
                0x0000000008003a40       0x38 /home/ch/RIOT/tests/lora_co2_scd30/bin/lora-e5-dev/semtech_loramac_contrib/semtech_loramac_radio.o
                0x0000000008003a40                SX127XGetStatus
 .text.SX127XSetModem
                0x0000000008003a78       0x24 /home/ch/RIOT/tests/lora_co2_scd30/bin/lora-e5-dev/semtech_loramac_contrib/semtech_loramac_radio.o
                0x0000000008003a78                SX127XSetModem
 .text.SX127XSetChannel
                0x0000000008003a9c       0x20 /home/ch/RIOT/tests/lora_co2_scd30/bin/lora-e5-dev/semtech_loramac_contrib/semtech_loramac_radio.o
                0x0000000008003a9c                SX127XSetChannel
 .text.SX127XRandom
                0x0000000008003abc       0x20 /home/ch/RIOT/tests/lora_co2_scd30/bin/lora-e5-dev/semtech_loramac_contrib/semtech_loramac_radio.o
                0x0000000008003abc                SX127XRandom
 .text.SX127XSetRxConfig
                0x0000000008003adc      0x108 /home/ch/RIOT/tests/lora_co2_scd30/bin/lora-e5-dev/semtech_loramac_contrib/semtech_loramac_radio.o
                0x0000000008003adc                SX127XSetRxConfig
 .text.SX127XSetTxConfig
                0x0000000008003be4       0xe8 /home/ch/RIOT/tests/lora_co2_scd30/bin/lora-e5-dev/semtech_loramac_contrib/semtech_loramac_radio.o
                0x0000000008003be4                SX127XSetTxConfig
 .text.SX127XSend
                0x0000000008003ccc       0x20 /home/ch/RIOT/tests/lora_co2_scd30/bin/lora-e5-dev/semtech_loramac_contrib/semtech_loramac_radio.o
                0x0000000008003ccc                SX127XSend
 .text.SX127XSleep
                0x0000000008003cec       0x20 /home/ch/RIOT/tests/lora_co2_scd30/bin/lora-e5-dev/semtech_loramac_contrib/semtech_loramac_radio.o
                0x0000000008003cec                SX127XSleep
 .text.SX127XStandby
                0x0000000008003d0c       0x24 /home/ch/RIOT/tests/lora_co2_scd30/bin/lora-e5-dev/semtech_loramac_contrib/semtech_loramac_radio.o
                0x0000000008003d0c                SX127XStandby
 .text.SX127XRx
                0x0000000008003d30       0x38 /home/ch/RIOT/tests/lora_co2_scd30/bin/lora-e5-dev/semtech_loramac_contrib/semtech_loramac_radio.o
                0x0000000008003d30                SX127XRx
 .text.SX127XStartCad
                0x0000000008003d68        0x2 /home/ch/RIOT/tests/lora_co2_scd30/bin/lora-e5-dev/semtech_loramac_contrib/semtech_loramac_radio.o
                0x0000000008003d68                SX127XStartCad
 *fill*         0x0000000008003d6a        0x2 
 .text.SX127XRssi
                0x0000000008003d6c       0x20 /home/ch/RIOT/tests/lora_co2_scd30/bin/lora-e5-dev/semtech_loramac_contrib/semtech_loramac_radio.o
                0x0000000008003d6c                SX127XRssi
 .text.SX127XWrite
                0x0000000008003d8c        0x2 /home/ch/RIOT/tests/lora_co2_scd30/bin/lora-e5-dev/semtech_loramac_contrib/semtech_loramac_radio.o
                0x0000000008003d8c                SX127XWrite
 .text.SX127XRead
                0x0000000008003d8e        0x4 /home/ch/RIOT/tests/lora_co2_scd30/bin/lora-e5-dev/semtech_loramac_contrib/semtech_loramac_radio.o
                0x0000000008003d8e                SX127XRead
 .text.SX127XWriteBuffer
                0x0000000008003d92        0x2 /home/ch/RIOT/tests/lora_co2_scd30/bin/lora-e5-dev/semtech_loramac_contrib/semtech_loramac_radio.o
                0x0000000008003d92                SX127XWriteBuffer
 .text.SX127XSetMaxPayloadLength
                0x0000000008003d94       0x20 /home/ch/RIOT/tests/lora_co2_scd30/bin/lora-e5-dev/semtech_loramac_contrib/semtech_loramac_radio.o
                0x0000000008003d94                SX127XSetMaxPayloadLength
 .text.SX127XCheckRfFrequency
                0x0000000008003db4        0x4 /home/ch/RIOT/tests/lora_co2_scd30/bin/lora-e5-dev/semtech_loramac_contrib/semtech_loramac_radio.o
                0x0000000008003db4                SX127XCheckRfFrequency
 .text.SX127XSetTxContinuousWave
                0x0000000008003db8        0x2 /home/ch/RIOT/tests/lora_co2_scd30/bin/lora-e5-dev/semtech_loramac_contrib/semtech_loramac_radio.o
                0x0000000008003db8                SX127XSetTxContinuousWave
 *fill*         0x0000000008003dba        0x2 
 .text.SX127XSetPublicNetwork
                0x0000000008003dbc       0x28 /home/ch/RIOT/tests/lora_co2_scd30/bin/lora-e5-dev/semtech_loramac_contrib/semtech_loramac_radio.o
                0x0000000008003dbc                SX127XSetPublicNetwork
 .text.SX127XGetWakeupTime
                0x0000000008003de4        0x4 /home/ch/RIOT/tests/lora_co2_scd30/bin/lora-e5-dev/semtech_loramac_contrib/semtech_loramac_radio.o
                0x0000000008003de4                SX127XGetWakeupTime
 .text.SX127XRxBoosted
                0x0000000008003de8        0x2 /home/ch/RIOT/tests/lora_co2_scd30/bin/lora-e5-dev/semtech_loramac_contrib/semtech_loramac_radio.o
                0x0000000008003de8                SX127XRxBoosted
 .text.SX127XSetRxDutyCycle
                0x0000000008003dea        0x2 /home/ch/RIOT/tests/lora_co2_scd30/bin/lora-e5-dev/semtech_loramac_contrib/semtech_loramac_radio.o
                0x0000000008003dea                SX127XSetRxDutyCycle
 .text.SX127XIsChannelFree
                0x0000000008003dec       0x50 /home/ch/RIOT/tests/lora_co2_scd30/bin/lora-e5-dev/semtech_loramac_contrib/semtech_loramac_radio.o
                0x0000000008003dec                SX127XIsChannelFree
 .text.SX127XTimeOnAir
                0x0000000008003e3c       0xcc /home/ch/RIOT/tests/lora_co2_scd30/bin/lora-e5-dev/semtech_loramac_contrib/semtech_loramac_radio.o
                0x0000000008003e3c                SX127XTimeOnAir
 .text.SX127XInit
                0x0000000008003f08       0x24 /home/ch/RIOT/tests/lora_co2_scd30/bin/lora-e5-dev/semtech_loramac_contrib/semtech_loramac_radio.o
                0x0000000008003f08                SX127XInit
 .text.SX127XReadBuffer
                0x0000000008003f2c        0x2 /home/ch/RIOT/tests/lora_co2_scd30/bin/lora-e5-dev/semtech_loramac_contrib/semtech_loramac_radio.o
                0x0000000008003f2c                SX127XReadBuffer
 .text.SX127XIrqProcess
                0x0000000008003f2e        0x2 /home/ch/RIOT/tests/lora_co2_scd30/bin/lora-e5-dev/semtech_loramac_contrib/semtech_loramac_radio.o
                0x0000000008003f2e                SX127XIrqProcess
 .text.ztimer_now
                0x0000000008003f30       0x10 /home/ch/RIOT/tests/lora_co2_scd30/bin/lora-e5-dev/semtech_loramac_contrib/semtech_loramac_timer.o
 .text.TimerInit
                0x0000000008003f40       0x18 /home/ch/RIOT/tests/lora_co2_scd30/bin/lora-e5-dev/semtech_loramac_contrib/semtech_loramac_timer.o
                0x0000000008003f40                TimerInit
 .text.TimerStart
                0x0000000008003f58       0x38 /home/ch/RIOT/tests/lora_co2_scd30/bin/lora-e5-dev/semtech_loramac_contrib/semtech_loramac_timer.o
                0x0000000008003f58                TimerStart
 .text.TimerStop
                0x0000000008003f90       0x14 /home/ch/RIOT/tests/lora_co2_scd30/bin/lora-e5-dev/semtech_loramac_contrib/semtech_loramac_timer.o
                0x0000000008003f90                TimerStop
 .text.TimerSetValue
                0x0000000008003fa4       0x20 /home/ch/RIOT/tests/lora_co2_scd30/bin/lora-e5-dev/semtech_loramac_contrib/semtech_loramac_timer.o
                0x0000000008003fa4                TimerSetValue
 .text.TimerGetCurrentTime
                0x0000000008003fc4        0xc /home/ch/RIOT/tests/lora_co2_scd30/bin/lora-e5-dev/semtech_loramac_contrib/semtech_loramac_timer.o
                0x0000000008003fc4                TimerGetCurrentTime
 .text.TimerGetElapsedTime
                0x0000000008003fd0       0x14 /home/ch/RIOT/tests/lora_co2_scd30/bin/lora-e5-dev/semtech_loramac_contrib/semtech_loramac_timer.o
                0x0000000008003fd0                TimerGetElapsedTime
 .text.AES_CMAC_Init
                0x0000000008003fe4       0x14 /home/ch/RIOT/tests/lora_co2_scd30/bin/lora-e5-dev/semtech_loramac_crypto/cmac.o
                0x0000000008003fe4                AES_CMAC_Init
 .text.AES_CMAC_SetKey
                0x0000000008003ff8        0x6 /home/ch/RIOT/tests/lora_co2_scd30/bin/lora-e5-dev/semtech_loramac_crypto/cmac.o
                0x0000000008003ff8                AES_CMAC_SetKey
 .text.AES_CMAC_Update
                0x0000000008003ffe       0xb0 /home/ch/RIOT/tests/lora_co2_scd30/bin/lora-e5-dev/semtech_loramac_crypto/cmac.o
                0x0000000008003ffe                AES_CMAC_Update
 .text.AES_CMAC_Final
                0x00000000080040ae      0x15e /home/ch/RIOT/tests/lora_co2_scd30/bin/lora-e5-dev/semtech_loramac_crypto/cmac.o
                0x00000000080040ae                AES_CMAC_Final
 .text.LoRaMacComputeMic
                0x000000000800420c       0x78 /home/ch/RIOT/tests/lora_co2_scd30/bin/lora-e5-dev/semtech_loramac_mac/LoRaMacCrypto.o
                0x000000000800420c                LoRaMacComputeMic
 .text.LoRaMacPayloadEncrypt
                0x0000000008004284       0xd8 /home/ch/RIOT/tests/lora_co2_scd30/bin/lora-e5-dev/semtech_loramac_mac/LoRaMacCrypto.o
                0x0000000008004284                LoRaMacPayloadEncrypt
 .text.LoRaMacPayloadDecrypt
                0x000000000800435c        0xe /home/ch/RIOT/tests/lora_co2_scd30/bin/lora-e5-dev/semtech_loramac_mac/LoRaMacCrypto.o
                0x000000000800435c                LoRaMacPayloadDecrypt
 *fill*         0x000000000800436a        0x2 
 .text.LoRaMacJoinComputeMic
                0x000000000800436c       0x40 /home/ch/RIOT/tests/lora_co2_scd30/bin/lora-e5-dev/semtech_loramac_mac/LoRaMacCrypto.o
                0x000000000800436c                LoRaMacJoinComputeMic
 .text.LoRaMacJoinDecrypt
                0x00000000080043ac       0x38 /home/ch/RIOT/tests/lora_co2_scd30/bin/lora-e5-dev/semtech_loramac_mac/LoRaMacCrypto.o
                0x00000000080043ac                LoRaMacJoinDecrypt
 .text.LoRaMacJoinComputeSKeys
                0x00000000080043e4       0x88 /home/ch/RIOT/tests/lora_co2_scd30/bin/lora-e5-dev/semtech_loramac_mac/LoRaMacCrypto.o
                0x00000000080043e4                LoRaMacJoinComputeSKeys
 .text.ValidatePayloadLength
                0x000000000800446c       0x54 /home/ch/RIOT/tests/lora_co2_scd30/bin/lora-e5-dev/semtech_loramac_mac/LoRaMac.o
 .text.ResetMacParameters
                0x00000000080044c0       0xe8 /home/ch/RIOT/tests/lora_co2_scd30/bin/lora-e5-dev/semtech_loramac_mac/LoRaMac.o
 .text.OnAckTimeoutTimerEvent
                0x00000000080045a8       0x4c /home/ch/RIOT/tests/lora_co2_scd30/bin/lora-e5-dev/semtech_loramac_mac/LoRaMac.o
 .text.OnRxWindow1TimerEvent
                0x00000000080045f4       0x80 /home/ch/RIOT/tests/lora_co2_scd30/bin/lora-e5-dev/semtech_loramac_mac/LoRaMac.o
 .text.OnRxWindow2TimerEvent
                0x0000000008004674       0x80 /home/ch/RIOT/tests/lora_co2_scd30/bin/lora-e5-dev/semtech_loramac_mac/LoRaMac.o
 .text.OpenContinuousRx2Window
                0x00000000080046f4       0x14 /home/ch/RIOT/tests/lora_co2_scd30/bin/lora-e5-dev/semtech_loramac_mac/LoRaMac.o
 .text.OnRadioRxTimeout
                0x0000000008004708       0xa4 /home/ch/RIOT/tests/lora_co2_scd30/bin/lora-e5-dev/semtech_loramac_mac/LoRaMac.o
 .text.OnRadioTxTimeout
                0x00000000080047ac       0x40 /home/ch/RIOT/tests/lora_co2_scd30/bin/lora-e5-dev/semtech_loramac_mac/LoRaMac.o
 .text.OnRadioRxError
                0x00000000080047ec       0xa4 /home/ch/RIOT/tests/lora_co2_scd30/bin/lora-e5-dev/semtech_loramac_mac/LoRaMac.o
 .text.OnRadioTxDone
                0x0000000008004890      0x144 /home/ch/RIOT/tests/lora_co2_scd30/bin/lora-e5-dev/semtech_loramac_mac/LoRaMac.o
 .text.ProcessMacCommands
                0x00000000080049d4      0x450 /home/ch/RIOT/tests/lora_co2_scd30/bin/lora-e5-dev/semtech_loramac_mac/LoRaMac.o
 .text.PrepareFrame
                0x0000000008004e24      0x388 /home/ch/RIOT/tests/lora_co2_scd30/bin/lora-e5-dev/semtech_loramac_mac/LoRaMac.o
                0x0000000008004e24                PrepareFrame
 .text.SendFrameOnChannel
                0x00000000080051ac       0xb8 /home/ch/RIOT/tests/lora_co2_scd30/bin/lora-e5-dev/semtech_loramac_mac/LoRaMac.o
                0x00000000080051ac                SendFrameOnChannel
 .text.ScheduleTx
                0x0000000008005264      0x1a0 /home/ch/RIOT/tests/lora_co2_scd30/bin/lora-e5-dev/semtech_loramac_mac/LoRaMac.o
 .text.Send     0x0000000008005404       0x48 /home/ch/RIOT/tests/lora_co2_scd30/bin/lora-e5-dev/semtech_loramac_mac/LoRaMac.o
                0x0000000008005404                Send
 .text.OnTxDelayedTimerEvent
                0x000000000800544c       0x24 /home/ch/RIOT/tests/lora_co2_scd30/bin/lora-e5-dev/semtech_loramac_mac/LoRaMac.o
 .text.OnMacStateCheckTimerEvent
                0x0000000008005470      0x2e0 /home/ch/RIOT/tests/lora_co2_scd30/bin/lora-e5-dev/semtech_loramac_mac/LoRaMac.o
 .text.PrepareRxDoneAbort
                0x0000000008005750       0x38 /home/ch/RIOT/tests/lora_co2_scd30/bin/lora-e5-dev/semtech_loramac_mac/LoRaMac.o
 .text.OnRadioRxDone
                0x0000000008005788      0x508 /home/ch/RIOT/tests/lora_co2_scd30/bin/lora-e5-dev/semtech_loramac_mac/LoRaMac.o
 .text.SetTxContinuousWave
                0x0000000008005c90       0x64 /home/ch/RIOT/tests/lora_co2_scd30/bin/lora-e5-dev/semtech_loramac_mac/LoRaMac.o
                0x0000000008005c90                SetTxContinuousWave
 .text.SetTxContinuousWave1
                0x0000000008005cf4       0x40 /home/ch/RIOT/tests/lora_co2_scd30/bin/lora-e5-dev/semtech_loramac_mac/LoRaMac.o
                0x0000000008005cf4                SetTxContinuousWave1
 .text.LoRaMacInitialization
                0x0000000008005d34      0x294 /home/ch/RIOT/tests/lora_co2_scd30/bin/lora-e5-dev/semtech_loramac_mac/LoRaMac.o
                0x0000000008005d34                LoRaMacInitialization
 .text.LoRaMacQueryTxPossible
                0x0000000008005fc8       0xf0 /home/ch/RIOT/tests/lora_co2_scd30/bin/lora-e5-dev/semtech_loramac_mac/LoRaMac.o
                0x0000000008005fc8                LoRaMacQueryTxPossible
 .text.LoRaMacMibGetRequestConfirm
                0x00000000080060b8      0x140 /home/ch/RIOT/tests/lora_co2_scd30/bin/lora-e5-dev/semtech_loramac_mac/LoRaMac.o
                0x00000000080060b8                LoRaMacMibGetRequestConfirm
 .text.LoRaMacMibSetRequestConfirm
                0x00000000080061f8      0x2e8 /home/ch/RIOT/tests/lora_co2_scd30/bin/lora-e5-dev/semtech_loramac_mac/LoRaMac.o
                0x00000000080061f8                LoRaMacMibSetRequestConfirm
 .text.LoRaMacMlmeRequest
                0x00000000080064e0      0x140 /home/ch/RIOT/tests/lora_co2_scd30/bin/lora-e5-dev/semtech_loramac_mac/LoRaMac.o
                0x00000000080064e0                LoRaMacMlmeRequest
 .text.LoRaMacMcpsRequest
                0x0000000008006620      0x148 /home/ch/RIOT/tests/lora_co2_scd30/bin/lora-e5-dev/semtech_loramac_mac/LoRaMac.o
                0x0000000008006620                LoRaMacMcpsRequest
 .text.RegionCommonGetJoinDc
                0x0000000008006768       0x24 /home/ch/RIOT/tests/lora_co2_scd30/bin/lora-e5-dev/semtech_loramac_mac_region/RegionCommon.o
                0x0000000008006768                RegionCommonGetJoinDc
 .text.RegionCommonChanVerifyDr
                0x000000000800678c       0x68 /home/ch/RIOT/tests/lora_co2_scd30/bin/lora-e5-dev/semtech_loramac_mac_region/RegionCommon.o
                0x000000000800678c                RegionCommonChanVerifyDr
 .text.RegionCommonValueInRange
                0x00000000080067f4       0x12 /home/ch/RIOT/tests/lora_co2_scd30/bin/lora-e5-dev/semtech_loramac_mac_region/RegionCommon.o
                0x00000000080067f4                RegionCommonValueInRange
 .text.RegionCommonChanDisable
                0x0000000008006806       0x32 /home/ch/RIOT/tests/lora_co2_scd30/bin/lora-e5-dev/semtech_loramac_mac_region/RegionCommon.o
                0x0000000008006806                RegionCommonChanDisable
 .text.RegionCommonCountChannels
                0x0000000008006838       0x3c /home/ch/RIOT/tests/lora_co2_scd30/bin/lora-e5-dev/semtech_loramac_mac_region/RegionCommon.o
                0x0000000008006838                RegionCommonCountChannels
 .text.RegionCommonChanMaskCopy
                0x0000000008006874       0x1e /home/ch/RIOT/tests/lora_co2_scd30/bin/lora-e5-dev/semtech_loramac_mac_region/RegionCommon.o
                0x0000000008006874                RegionCommonChanMaskCopy
 .text.RegionCommonSetBandTxDone
                0x0000000008006892        0xa /home/ch/RIOT/tests/lora_co2_scd30/bin/lora-e5-dev/semtech_loramac_mac_region/RegionCommon.o
                0x0000000008006892                RegionCommonSetBandTxDone
 .text.RegionCommonUpdateBandTimeOff
                0x000000000800689c       0x9c /home/ch/RIOT/tests/lora_co2_scd30/bin/lora-e5-dev/semtech_loramac_mac_region/RegionCommon.o
                0x000000000800689c                RegionCommonUpdateBandTimeOff
 .text.RegionCommonParseLinkAdrReq
                0x0000000008006938       0x34 /home/ch/RIOT/tests/lora_co2_scd30/bin/lora-e5-dev/semtech_loramac_mac_region/RegionCommon.o
                0x0000000008006938                RegionCommonParseLinkAdrReq
 .text.RegionCommonLinkAdrReqVerifyParams
                0x000000000800696c       0x8e /home/ch/RIOT/tests/lora_co2_scd30/bin/lora-e5-dev/semtech_loramac_mac_region/RegionCommon.o
                0x000000000800696c                RegionCommonLinkAdrReqVerifyParams
 *fill*         0x00000000080069fa        0x2 
 .text.RegionCommonComputeSymbolTimeLoRa
                0x00000000080069fc       0x34 /home/ch/RIOT/tests/lora_co2_scd30/bin/lora-e5-dev/semtech_loramac_mac_region/RegionCommon.o
                0x00000000080069fc                RegionCommonComputeSymbolTimeLoRa
 .text.RegionCommonComputeSymbolTimeFsk
                0x0000000008006a30       0x18 /home/ch/RIOT/tests/lora_co2_scd30/bin/lora-e5-dev/semtech_loramac_mac_region/RegionCommon.o
                0x0000000008006a30                RegionCommonComputeSymbolTimeFsk
 .text.RegionCommonComputeRxWindowParameters
                0x0000000008006a48       0xbc /home/ch/RIOT/tests/lora_co2_scd30/bin/lora-e5-dev/semtech_loramac_mac_region/RegionCommon.o
                0x0000000008006a48                RegionCommonComputeRxWindowParameters
 .text.RegionCommonComputeTxPower
                0x0000000008006b04       0x2a /home/ch/RIOT/tests/lora_co2_scd30/bin/lora-e5-dev/semtech_loramac_mac_region/RegionCommon.o
                0x0000000008006b04                RegionCommonComputeTxPower
 .text.RegionCommonCalcBackOff
                0x0000000008006b2e       0x4a /home/ch/RIOT/tests/lora_co2_scd30/bin/lora-e5-dev/semtech_loramac_mac_region/RegionCommon.o
                0x0000000008006b2e                RegionCommonCalcBackOff
 .text.VerifyTxFreq
                0x0000000008006b78       0x98 /home/ch/RIOT/tests/lora_co2_scd30/bin/lora-e5-dev/semtech_loramac_mac_region/RegionEU868.o
 .text.RegionEU868GetPhyParam
                0x0000000008006c10       0xc0 /home/ch/RIOT/tests/lora_co2_scd30/bin/lora-e5-dev/semtech_loramac_mac_region/RegionEU868.o
                0x0000000008006c10                RegionEU868GetPhyParam
 .text.RegionEU868SetBandTxDone
                0x0000000008006cd0       0x24 /home/ch/RIOT/tests/lora_co2_scd30/bin/lora-e5-dev/semtech_loramac_mac_region/RegionEU868.o
                0x0000000008006cd0                RegionEU868SetBandTxDone
 .text.RegionEU868InitDefaults
                0x0000000008006cf4       0x68 /home/ch/RIOT/tests/lora_co2_scd30/bin/lora-e5-dev/semtech_loramac_mac_region/RegionEU868.o
                0x0000000008006cf4                RegionEU868InitDefaults
 .text.RegionEU868Verify
                0x0000000008006d5c       0x34 /home/ch/RIOT/tests/lora_co2_scd30/bin/lora-e5-dev/semtech_loramac_mac_region/RegionEU868.o
                0x0000000008006d5c                RegionEU868Verify
 .text.RegionEU868ChanMaskSet
                0x0000000008006d90       0x34 /home/ch/RIOT/tests/lora_co2_scd30/bin/lora-e5-dev/semtech_loramac_mac_region/RegionEU868.o
                0x0000000008006d90                RegionEU868ChanMaskSet
 .text.RegionEU868AdrNext
                0x0000000008006dc4       0x78 /home/ch/RIOT/tests/lora_co2_scd30/bin/lora-e5-dev/semtech_loramac_mac_region/RegionEU868.o
                0x0000000008006dc4                RegionEU868AdrNext
 .text.RegionEU868ComputeRxWindowParameters
                0x0000000008006e3c       0x84 /home/ch/RIOT/tests/lora_co2_scd30/bin/lora-e5-dev/semtech_loramac_mac_region/RegionEU868.o
                0x0000000008006e3c                RegionEU868ComputeRxWindowParameters
 .text.RegionEU868RxConfig
                0x0000000008006ec0       0xe0 /home/ch/RIOT/tests/lora_co2_scd30/bin/lora-e5-dev/semtech_loramac_mac_region/RegionEU868.o
                0x0000000008006ec0                RegionEU868RxConfig
 .text.RegionEU868TxConfig
                0x0000000008006fa0      0x10c /home/ch/RIOT/tests/lora_co2_scd30/bin/lora-e5-dev/semtech_loramac_mac_region/RegionEU868.o
                0x0000000008006fa0                RegionEU868TxConfig
 .text.RegionEU868LinkAdrReq
                0x00000000080070ac      0x144 /home/ch/RIOT/tests/lora_co2_scd30/bin/lora-e5-dev/semtech_loramac_mac_region/RegionEU868.o
                0x00000000080070ac                RegionEU868LinkAdrReq
 .text.RegionEU868RxParamSetupReq
                0x00000000080071f0       0x44 /home/ch/RIOT/tests/lora_co2_scd30/bin/lora-e5-dev/semtech_loramac_mac_region/RegionEU868.o
                0x00000000080071f0                RegionEU868RxParamSetupReq
 .text.RegionEU868TxParamSetupReq
                0x0000000008007234        0x6 /home/ch/RIOT/tests/lora_co2_scd30/bin/lora-e5-dev/semtech_loramac_mac_region/RegionEU868.o
                0x0000000008007234                RegionEU868TxParamSetupReq
 *fill*         0x000000000800723a        0x2 
 .text.RegionEU868DlChannelReq
                0x000000000800723c       0x44 /home/ch/RIOT/tests/lora_co2_scd30/bin/lora-e5-dev/semtech_loramac_mac_region/RegionEU868.o
                0x000000000800723c                RegionEU868DlChannelReq
 .text.RegionEU868AlternateDr
                0x0000000008007280        0x2 /home/ch/RIOT/tests/lora_co2_scd30/bin/lora-e5-dev/semtech_loramac_mac_region/RegionEU868.o
                0x0000000008007280                RegionEU868AlternateDr
 *fill*         0x0000000008007282        0x2 
 .text.RegionEU868CalcBackOff
                0x0000000008007284       0x38 /home/ch/RIOT/tests/lora_co2_scd30/bin/lora-e5-dev/semtech_loramac_mac_region/RegionEU868.o
                0x0000000008007284                RegionEU868CalcBackOff
 .text.RegionEU868NextChannel
                0x00000000080072bc      0x114 /home/ch/RIOT/tests/lora_co2_scd30/bin/lora-e5-dev/semtech_loramac_mac_region/RegionEU868.o
                0x00000000080072bc                RegionEU868NextChannel
 .text.RegionEU868ChannelAdd
                0x00000000080073d0       0xe4 /home/ch/RIOT/tests/lora_co2_scd30/bin/lora-e5-dev/semtech_loramac_mac_region/RegionEU868.o
                0x00000000080073d0                RegionEU868ChannelAdd
 .text.RegionEU868ChannelsRemove
                0x00000000080074b4       0x30 /home/ch/RIOT/tests/lora_co2_scd30/bin/lora-e5-dev/semtech_loramac_mac_region/RegionEU868.o
                0x00000000080074b4                RegionEU868ChannelsRemove
 .text.RegionEU868ApplyCFList
                0x00000000080074e4       0x78 /home/ch/RIOT/tests/lora_co2_scd30/bin/lora-e5-dev/semtech_loramac_mac_region/RegionEU868.o
                0x00000000080074e4                RegionEU868ApplyCFList
 .text.RegionEU868NewChannelReq
                0x000000000800755c       0x3c /home/ch/RIOT/tests/lora_co2_scd30/bin/lora-e5-dev/semtech_loramac_mac_region/RegionEU868.o
                0x000000000800755c                RegionEU868NewChannelReq
 .text.RegionEU868SetContinuousWave
                0x0000000008007598       0x4c /home/ch/RIOT/tests/lora_co2_scd30/bin/lora-e5-dev/semtech_loramac_mac_region/RegionEU868.o
                0x0000000008007598                RegionEU868SetContinuousWave
 .text.RegionEU868ApplyDrOffset
                0x00000000080075e4        0xc /home/ch/RIOT/tests/lora_co2_scd30/bin/lora-e5-dev/semtech_loramac_mac_region/RegionEU868.o
                0x00000000080075e4                RegionEU868ApplyDrOffset
 .text.RegionIsActive
                0x00000000080075f0        0x8 /home/ch/RIOT/tests/lora_co2_scd30/bin/lora-e5-dev/semtech_loramac_mac_region/Region.o
                0x00000000080075f0                RegionIsActive
 .text.RegionGetPhyParam
                0x00000000080075f8        0xe /home/ch/RIOT/tests/lora_co2_scd30/bin/lora-e5-dev/semtech_loramac_mac_region/Region.o
                0x00000000080075f8                RegionGetPhyParam
 .text.RegionSetBandTxDone
                0x0000000008007606        0xc /home/ch/RIOT/tests/lora_co2_scd30/bin/lora-e5-dev/semtech_loramac_mac_region/Region.o
                0x0000000008007606                RegionSetBandTxDone
 .text.RegionInitDefaults
                0x0000000008007612        0xc /home/ch/RIOT/tests/lora_co2_scd30/bin/lora-e5-dev/semtech_loramac_mac_region/Region.o
                0x0000000008007612                RegionInitDefaults
 .text.RegionVerify
                0x000000000800761e       0x12 /home/ch/RIOT/tests/lora_co2_scd30/bin/lora-e5-dev/semtech_loramac_mac_region/Region.o
                0x000000000800761e                RegionVerify
 .text.RegionApplyCFList
                0x0000000008007630        0xc /home/ch/RIOT/tests/lora_co2_scd30/bin/lora-e5-dev/semtech_loramac_mac_region/Region.o
                0x0000000008007630                RegionApplyCFList
 .text.RegionChanMaskSet
                0x000000000800763c        0xe /home/ch/RIOT/tests/lora_co2_scd30/bin/lora-e5-dev/semtech_loramac_mac_region/Region.o
                0x000000000800763c                RegionChanMaskSet
 .text.RegionAdrNext
                0x000000000800764a       0x1c /home/ch/RIOT/tests/lora_co2_scd30/bin/lora-e5-dev/semtech_loramac_mac_region/Region.o
                0x000000000800764a                RegionAdrNext
 .text.RegionComputeRxWindowParameters
                0x0000000008007666       0x1a /home/ch/RIOT/tests/lora_co2_scd30/bin/lora-e5-dev/semtech_loramac_mac_region/Region.o
                0x0000000008007666                RegionComputeRxWindowParameters
 .text.RegionRxConfig
                0x0000000008007680       0x12 /home/ch/RIOT/tests/lora_co2_scd30/bin/lora-e5-dev/semtech_loramac_mac_region/Region.o
                0x0000000008007680                RegionRxConfig
 .text.RegionTxConfig
                0x0000000008007692       0x1a /home/ch/RIOT/tests/lora_co2_scd30/bin/lora-e5-dev/semtech_loramac_mac_region/Region.o
                0x0000000008007692                RegionTxConfig
 .text.RegionLinkAdrReq
                0x00000000080076ac       0x20 /home/ch/RIOT/tests/lora_co2_scd30/bin/lora-e5-dev/semtech_loramac_mac_region/Region.o
                0x00000000080076ac                RegionLinkAdrReq
 .text.RegionRxParamSetupReq
                0x00000000080076cc        0xe /home/ch/RIOT/tests/lora_co2_scd30/bin/lora-e5-dev/semtech_loramac_mac_region/Region.o
                0x00000000080076cc                RegionRxParamSetupReq
 .text.RegionNewChannelReq
                0x00000000080076da        0xe /home/ch/RIOT/tests/lora_co2_scd30/bin/lora-e5-dev/semtech_loramac_mac_region/Region.o
                0x00000000080076da                RegionNewChannelReq
 .text.RegionTxParamSetupReq
                0x00000000080076e8        0xe /home/ch/RIOT/tests/lora_co2_scd30/bin/lora-e5-dev/semtech_loramac_mac_region/Region.o
                0x00000000080076e8                RegionTxParamSetupReq
 .text.RegionDlChannelReq
                0x00000000080076f6        0xe /home/ch/RIOT/tests/lora_co2_scd30/bin/lora-e5-dev/semtech_loramac_mac_region/Region.o
                0x00000000080076f6                RegionDlChannelReq
 .text.RegionAlternateDr
                0x0000000008007704        0xe /home/ch/RIOT/tests/lora_co2_scd30/bin/lora-e5-dev/semtech_loramac_mac_region/Region.o
                0x0000000008007704                RegionAlternateDr
 .text.RegionCalcBackOff
                0x0000000008007712        0xc /home/ch/RIOT/tests/lora_co2_scd30/bin/lora-e5-dev/semtech_loramac_mac_region/Region.o
                0x0000000008007712                RegionCalcBackOff
 .text.RegionNextChannel
                0x000000000800771e       0x1c /home/ch/RIOT/tests/lora_co2_scd30/bin/lora-e5-dev/semtech_loramac_mac_region/Region.o
                0x000000000800771e                RegionNextChannel
 .text.RegionSetContinuousWave
                0x000000000800773a        0xc /home/ch/RIOT/tests/lora_co2_scd30/bin/lora-e5-dev/semtech_loramac_mac_region/Region.o
                0x000000000800773a                RegionSetContinuousWave
 .text.RegionApplyDrOffset
                0x0000000008007746       0x1a /home/ch/RIOT/tests/lora_co2_scd30/bin/lora-e5-dev/semtech_loramac_mac_region/Region.o
                0x0000000008007746                RegionApplyDrOffset
 .text.stdio_init
                0x0000000008007760        0xe /home/ch/RIOT/tests/lora_co2_scd30/bin/lora-e5-dev/stdio_uart/stdio_uart.o
                0x0000000008007760                stdio_init
 .text.stdio_read
                0x000000000800776e        0x6 /home/ch/RIOT/tests/lora_co2_scd30/bin/lora-e5-dev/stdio_uart/stdio_uart.o
                0x000000000800776e                stdio_read
 .text.stdio_write
                0x0000000008007774       0x12 /home/ch/RIOT/tests/lora_co2_scd30/bin/lora-e5-dev/stdio_uart/stdio_uart.o
                0x0000000008007774                stdio_write
 .text.stmclk_enable_hsi
                0x0000000008007786       0x14 /home/ch/RIOT/tests/lora_co2_scd30/bin/lora-e5-dev/stm32_clk/stmclk_common.o
                0x0000000008007786                stmclk_enable_hsi
 .text.stmclk_disable_hsi
                0x000000000800779a        0xe /home/ch/RIOT/tests/lora_co2_scd30/bin/lora-e5-dev/stm32_clk/stmclk_common.o
                0x000000000800779a                stmclk_disable_hsi
 .text.stmclk_dbp_unlock
                0x00000000080077a8       0x10 /home/ch/RIOT/tests/lora_co2_scd30/bin/lora-e5-dev/stm32_clk/stmclk_common.o
                0x00000000080077a8                stmclk_dbp_unlock
 .text.stmclk_dbp_lock
                0x00000000080077b8       0x10 /home/ch/RIOT/tests/lora_co2_scd30/bin/lora-e5-dev/stm32_clk/stmclk_common.o
                0x00000000080077b8                stmclk_dbp_lock
 .text.stmclk_enable_lfclk
                0x00000000080077c8       0x3e /home/ch/RIOT/tests/lora_co2_scd30/bin/lora-e5-dev/stm32_clk/stmclk_common.o
                0x00000000080077c8                stmclk_enable_lfclk
 *fill*         0x0000000008007806        0x2 
 .text.stmclk_init_sysclk
                0x0000000008007808       0xa8 /home/ch/RIOT/tests/lora_co2_scd30/bin/lora-e5-dev/stm32_clk/stmclk_l4wx.o
                0x0000000008007808                stmclk_init_sysclk
 .text.dummy_handler
                0x00000000080078b0        0x4 /home/ch/RIOT/tests/lora_co2_scd30/bin/lora-e5-dev/stm32_vectors/STM32WLE5xx.o
                0x00000000080078b0                isr_lptim2
                0x00000000080078b0                isr_rtc_wkup
                0x00000000080078b0                isr_hsem
                0x00000000080078b0                isr_dac
                0x00000000080078b0                isr_tim16
                0x00000000080078b0                isr_dma1_channel4
                0x00000000080078b0                isr_dma2_channel7
                0x00000000080078b0                isr_i2c1_ev
                0x00000000080078b0                isr_tim1_brk
                0x00000000080078b0                isr_dma1_channel5
                0x00000000080078b0                isr_dma1_channel2
                0x00000000080078b0                isr_pka
                0x00000000080078b0                isr_dma2_channel6
                0x00000000080078b0                isr_dma1_channel7
                0x00000000080078b0                isr_i2c3_ev
                0x00000000080078b0                isr_tim1_up
                0x00000000080078b0                isr_dma2_channel4
                0x00000000080078b0                isr_spi2
                0x00000000080078b0                isr_tim1_trg_com
                0x00000000080078b0                isr_dma1_channel1
                0x00000000080078b0                dummy_handler
                0x00000000080078b0                isr_adc
                0x00000000080078b0                isr_aes
                0x00000000080078b0                isr_comp
                0x00000000080078b0                isr_spi1
                0x00000000080078b0                isr_rcc
                0x00000000080078b0                isr_tamp_stamp_lsecss_ssru
                0x00000000080078b0                isr_flash
                0x00000000080078b0                isr_dma2_channel5
                0x00000000080078b0                isr_i2c3_er
                0x00000000080078b0                isr_tim1_cc
                0x00000000080078b0                isr_lptim3
                0x00000000080078b0                isr_subghzspi
                0x00000000080078b0                isr_dma2_channel1
                0x00000000080078b0                isr_tim17
                0x00000000080078b0                isr_dma1_channel6
                0x00000000080078b0                isr_pvd_pvm
                0x00000000080078b0                isr_rng
                0x00000000080078b0                isr_dmamux1_ovr
                0x00000000080078b0                isr_i2c2_ev
                0x00000000080078b0                isr_dma2_channel2
                0x00000000080078b0                isr_dma2_channel3
                0x00000000080078b0                isr_rtc_alarm
                0x00000000080078b0                isr_dma1_channel3
                0x00000000080078b0                isr_i2c1_er
                0x00000000080078b0                isr_wwdg
 .text._set     0x00000000080078b4      0x214 /home/ch/RIOT/tests/lora_co2_scd30/bin/lora-e5-dev/sx126x/sx126x_netdev.o
 .text._get     0x0000000008007ac8      0x150 /home/ch/RIOT/tests/lora_co2_scd30/bin/lora-e5-dev/sx126x/sx126x_netdev.o
 .text._recv    0x0000000008007c18       0x4c /home/ch/RIOT/tests/lora_co2_scd30/bin/lora-e5-dev/sx126x/sx126x_netdev.o
 .text._send    0x0000000008007c64       0x68 /home/ch/RIOT/tests/lora_co2_scd30/bin/lora-e5-dev/sx126x/sx126x_netdev.o
 .text._isr     0x0000000008007ccc       0x7c /home/ch/RIOT/tests/lora_co2_scd30/bin/lora-e5-dev/sx126x/sx126x_netdev.o
 .text._init    0x0000000008007d48       0x28 /home/ch/RIOT/tests/lora_co2_scd30/bin/lora-e5-dev/sx126x/sx126x_netdev.o
 .text.isr_subghz_radio
                0x0000000008007d70       0x48 /home/ch/RIOT/tests/lora_co2_scd30/bin/lora-e5-dev/sx126x/sx126x_netdev.o
                0x0000000008007d70                isr_subghz_radio
 .text.sx126x_setup
                0x0000000008007db8        0xc /home/ch/RIOT/tests/lora_co2_scd30/bin/lora-e5-dev/sx126x/sx126x.o
                0x0000000008007db8                sx126x_setup
 .text.sx126x_get_channel
                0x0000000008007dc4        0x4 /home/ch/RIOT/tests/lora_co2_scd30/bin/lora-e5-dev/sx126x/sx126x.o
                0x0000000008007dc4                sx126x_get_channel
 .text.sx126x_set_channel
                0x0000000008007dc8        0x6 /home/ch/RIOT/tests/lora_co2_scd30/bin/lora-e5-dev/sx126x/sx126x.o
                0x0000000008007dc8                sx126x_set_channel
 *fill*         0x0000000008007dce        0x2 
 .text.sx126x_init
                0x0000000008007dd0       0xb4 /home/ch/RIOT/tests/lora_co2_scd30/bin/lora-e5-dev/sx126x/sx126x.o
                0x0000000008007dd0                sx126x_init
 .text.sx126x_get_bandwidth
                0x0000000008007e84        0x8 /home/ch/RIOT/tests/lora_co2_scd30/bin/lora-e5-dev/sx126x/sx126x.o
                0x0000000008007e84                sx126x_get_bandwidth
 .text.sx126x_set_bandwidth
                0x0000000008007e8c       0x34 /home/ch/RIOT/tests/lora_co2_scd30/bin/lora-e5-dev/sx126x/sx126x.o
                0x0000000008007e8c                sx126x_set_bandwidth
 .text.sx126x_get_spreading_factor
                0x0000000008007ec0        0x4 /home/ch/RIOT/tests/lora_co2_scd30/bin/lora-e5-dev/sx126x/sx126x.o
                0x0000000008007ec0                sx126x_get_spreading_factor
 .text.sx126x_set_spreading_factor
                0x0000000008007ec4       0x30 /home/ch/RIOT/tests/lora_co2_scd30/bin/lora-e5-dev/sx126x/sx126x.o
                0x0000000008007ec4                sx126x_set_spreading_factor
 .text.sx126x_get_coding_rate
                0x0000000008007ef4        0x4 /home/ch/RIOT/tests/lora_co2_scd30/bin/lora-e5-dev/sx126x/sx126x.o
                0x0000000008007ef4                sx126x_get_coding_rate
 .text.sx126x_set_coding_rate
                0x0000000008007ef8        0xa /home/ch/RIOT/tests/lora_co2_scd30/bin/lora-e5-dev/sx126x/sx126x.o
                0x0000000008007ef8                sx126x_set_coding_rate
 .text.sx126x_get_lora_payload_length
                0x0000000008007f02       0x12 /home/ch/RIOT/tests/lora_co2_scd30/bin/lora-e5-dev/sx126x/sx126x.o
                0x0000000008007f02                sx126x_get_lora_payload_length
 .text.sx126x_set_lora_payload_length
                0x0000000008007f14        0xa /home/ch/RIOT/tests/lora_co2_scd30/bin/lora-e5-dev/sx126x/sx126x.o
                0x0000000008007f14                sx126x_set_lora_payload_length
 .text.sx126x_get_lora_crc
                0x0000000008007f1e        0x4 /home/ch/RIOT/tests/lora_co2_scd30/bin/lora-e5-dev/sx126x/sx126x.o
                0x0000000008007f1e                sx126x_get_lora_crc
 .text.sx126x_set_lora_crc
                0x0000000008007f22        0xa /home/ch/RIOT/tests/lora_co2_scd30/bin/lora-e5-dev/sx126x/sx126x.o
                0x0000000008007f22                sx126x_set_lora_crc
 .text.sx126x_set_lora_implicit_header
                0x0000000008007f2c        0xa /home/ch/RIOT/tests/lora_co2_scd30/bin/lora-e5-dev/sx126x/sx126x.o
                0x0000000008007f2c                sx126x_set_lora_implicit_header
 .text.sx126x_set_lora_preamble_length
                0x0000000008007f36        0xc /home/ch/RIOT/tests/lora_co2_scd30/bin/lora-e5-dev/sx126x/sx126x.o
                0x0000000008007f36                sx126x_set_lora_preamble_length
 .text.sx126x_get_lora_iq_invert
                0x0000000008007f42        0x4 /home/ch/RIOT/tests/lora_co2_scd30/bin/lora-e5-dev/sx126x/sx126x.o
                0x0000000008007f42                sx126x_get_lora_iq_invert
 .text.sx126x_set_lora_iq_invert
                0x0000000008007f46        0xa /home/ch/RIOT/tests/lora_co2_scd30/bin/lora-e5-dev/sx126x/sx126x.o
                0x0000000008007f46                sx126x_set_lora_iq_invert
 .text._add_timer_to_list
                0x0000000008007f50       0x34 /home/ch/RIOT/tests/lora_co2_scd30/bin/lora-e5-dev/xtimer/xtimer_core.o
 .text._remove_timer_from_list
                0x0000000008007f84       0x18 /home/ch/RIOT/tests/lora_co2_scd30/bin/lora-e5-dev/xtimer/xtimer_core.o
 .text.ztimer_now
                0x0000000008007f9c       0x10 /home/ch/RIOT/tests/lora_co2_scd30/bin/lora-e5-dev/xtimer/xtimer_core.o
 .text._xtimer_now64
                0x0000000008007fac       0x40 /home/ch/RIOT/tests/lora_co2_scd30/bin/lora-e5-dev/xtimer/xtimer_core.o
 .text._schedule_earliest_lltimer
                0x0000000008007fec       0x58 /home/ch/RIOT/tests/lora_co2_scd30/bin/lora-e5-dev/xtimer/xtimer_core.o
 .text._xtimer_now
                0x0000000008008044        0x8 /home/ch/RIOT/tests/lora_co2_scd30/bin/lora-e5-dev/xtimer/xtimer_core.o
                0x0000000008008044                _xtimer_now
 .text.xtimer_init
                0x000000000800804c        0xe /home/ch/RIOT/tests/lora_co2_scd30/bin/lora-e5-dev/xtimer/xtimer_core.o
                0x000000000800804c                xtimer_init
 *fill*         0x000000000800805a        0x2 
 .text._ztimer_callback
                0x000000000800805c      0x118 /home/ch/RIOT/tests/lora_co2_scd30/bin/lora-e5-dev/xtimer/xtimer_core.o
 .text.xtimer_remove
                0x0000000008008174       0x30 /home/ch/RIOT/tests/lora_co2_scd30/bin/lora-e5-dev/xtimer/xtimer_core.o
                0x0000000008008174                xtimer_remove
 .text._xtimer_set64
                0x00000000080081a4       0x84 /home/ch/RIOT/tests/lora_co2_scd30/bin/lora-e5-dev/xtimer/xtimer_core.o
                0x00000000080081a4                _xtimer_set64
 .text._callback_unlock_mutex
                0x0000000008008228        0x4 /home/ch/RIOT/tests/lora_co2_scd30/bin/lora-e5-dev/xtimer/xtimer.o
 .text.ztimer_now
                0x000000000800822c       0x10 /home/ch/RIOT/tests/lora_co2_scd30/bin/lora-e5-dev/xtimer/xtimer.o
 .text._xtimer_tsleep
                0x000000000800823c       0x68 /home/ch/RIOT/tests/lora_co2_scd30/bin/lora-e5-dev/xtimer/xtimer.o
                0x000000000800823c                _xtimer_tsleep
 .text.ztimer_convert_frac_op_now
                0x00000000080082a4       0x3e /home/ch/RIOT/tests/lora_co2_scd30/bin/lora-e5-dev/ztimer_core/convert_frac.o
 .text.ztimer_convert_frac_op_set
                0x00000000080082e2       0x34 /home/ch/RIOT/tests/lora_co2_scd30/bin/lora-e5-dev/ztimer_core/convert_frac.o
 *fill*         0x0000000008008316        0x2 
 .text.ztimer_convert_frac_init
                0x0000000008008318       0x9c /home/ch/RIOT/tests/lora_co2_scd30/bin/lora-e5-dev/ztimer_core/convert_frac.o
                0x0000000008008318                ztimer_convert_frac_init
 .text.ztimer_convert_cancel
                0x00000000080083b4        0xa /home/ch/RIOT/tests/lora_co2_scd30/bin/lora-e5-dev/ztimer_core/convert.o
                0x00000000080083b4                ztimer_convert_cancel
 .text._is_set  0x00000000080083be       0x18 /home/ch/RIOT/tests/lora_co2_scd30/bin/lora-e5-dev/ztimer_core/core.o
 .text._now_next
                0x00000000080083d6       0x2a /home/ch/RIOT/tests/lora_co2_scd30/bin/lora-e5-dev/ztimer_core/core.o
 .text._ztimer_update
                0x0000000008008400       0x28 /home/ch/RIOT/tests/lora_co2_scd30/bin/lora-e5-dev/ztimer_core/core.o
 .text._del_entry_from_list
                0x0000000008008428       0x64 /home/ch/RIOT/tests/lora_co2_scd30/bin/lora-e5-dev/ztimer_core/core.o
 .text._ztimer_now_extend
                0x000000000800848c       0x40 /home/ch/RIOT/tests/lora_co2_scd30/bin/lora-e5-dev/ztimer_core/core.o
                0x000000000800848c                _ztimer_now_extend
 .text.ztimer_now
                0x00000000080084cc       0x10 /home/ch/RIOT/tests/lora_co2_scd30/bin/lora-e5-dev/ztimer_core/core.o
 .text._ztimer_update_head_offset
                0x00000000080084dc       0x32 /home/ch/RIOT/tests/lora_co2_scd30/bin/lora-e5-dev/ztimer_core/core.o
 .text.ztimer_remove
                0x000000000800850e       0x32 /home/ch/RIOT/tests/lora_co2_scd30/bin/lora-e5-dev/ztimer_core/core.o
                0x000000000800850e                ztimer_remove
 .text.ztimer_set
                0x0000000008008540       0x9c /home/ch/RIOT/tests/lora_co2_scd30/bin/lora-e5-dev/ztimer_core/core.o
                0x0000000008008540                ztimer_set
 .text.ztimer_handler
                0x00000000080085dc       0x94 /home/ch/RIOT/tests/lora_co2_scd30/bin/lora-e5-dev/ztimer_core/core.o
                0x00000000080085dc                ztimer_handler
 .text.ztimer_init
                0x0000000008008670       0x48 /home/ch/RIOT/tests/lora_co2_scd30/bin/lora-e5-dev/ztimer_core/init.o
                0x0000000008008670                ztimer_init
 .text._ztimer_periph_rtt_cancel
                0x00000000080086b8        0x4 /home/ch/RIOT/tests/lora_co2_scd30/bin/lora-e5-dev/ztimer_core/periph_rtt.o
 .text._ztimer_periph_rtt_now
                0x00000000080086bc        0x4 /home/ch/RIOT/tests/lora_co2_scd30/bin/lora-e5-dev/ztimer_core/periph_rtt.o
 .text._ztimer_periph_rtt_set
                0x00000000080086c0       0x2c /home/ch/RIOT/tests/lora_co2_scd30/bin/lora-e5-dev/ztimer_core/periph_rtt.o
 .text._ztimer_periph_rtt_callback
                0x00000000080086ec        0x4 /home/ch/RIOT/tests/lora_co2_scd30/bin/lora-e5-dev/ztimer_core/periph_rtt.o
 .text.ztimer_periph_rtt_init
                0x00000000080086f0       0x30 /home/ch/RIOT/tests/lora_co2_scd30/bin/lora-e5-dev/ztimer_core/periph_rtt.o
                0x00000000080086f0                ztimer_periph_rtt_init
 .text._ztimer_periph_timer_callback
                0x0000000008008720        0x4 /home/ch/RIOT/tests/lora_co2_scd30/bin/lora-e5-dev/ztimer_core/periph_timer.o
 .text._ztimer_periph_timer_cancel
                0x0000000008008724        0x8 /home/ch/RIOT/tests/lora_co2_scd30/bin/lora-e5-dev/ztimer_core/periph_timer.o
 .text._ztimer_periph_timer_now
                0x000000000800872c        0x6 /home/ch/RIOT/tests/lora_co2_scd30/bin/lora-e5-dev/ztimer_core/periph_timer.o
 .text._ztimer_periph_timer_set
                0x0000000008008732       0x10 /home/ch/RIOT/tests/lora_co2_scd30/bin/lora-e5-dev/ztimer_core/periph_timer.o
 *fill*         0x0000000008008742        0x2 
 .text.ztimer_periph_timer_init
                0x0000000008008744       0x44 /home/ch/RIOT/tests/lora_co2_scd30/bin/lora-e5-dev/ztimer_core/periph_timer.o
                0x0000000008008744                ztimer_periph_timer_init
 .text._callback_unlock_mutex
                0x0000000008008788        0x4 /home/ch/RIOT/tests/lora_co2_scd30/bin/lora-e5-dev/ztimer_core/util.o
 .text._callback_msg
                0x000000000800878c        0x8 /home/ch/RIOT/tests/lora_co2_scd30/bin/lora-e5-dev/ztimer_core/util.o
 .text.ztimer_sleep
                0x0000000008008794       0x48 /home/ch/RIOT/tests/lora_co2_scd30/bin/lora-e5-dev/ztimer_core/util.o
                0x0000000008008794                ztimer_sleep
 .text.ztimer_set_msg
                0x00000000080087dc       0x18 /home/ch/RIOT/tests/lora_co2_scd30/bin/lora-e5-dev/ztimer_core/util.o
                0x00000000080087dc                ztimer_set_msg
 *fill*         0x00000000080087f4        0x4 
 .text          0x00000000080087f8      0x108 /usr/lib/gcc/arm-none-eabi/9.2.1/../../../arm-none-eabi/lib/thumb/v7e-m/nofp/libm.a(lib_a-s_ceil.o)
                0x00000000080087f8                ceil
 .text          0x0000000008008900      0x108 /usr/lib/gcc/arm-none-eabi/9.2.1/../../../arm-none-eabi/lib/thumb/v7e-m/nofp/libm.a(lib_a-s_floor.o)
                0x0000000008008900                floor
 .text          0x0000000008008a08      0x168 /usr/lib/gcc/arm-none-eabi/9.2.1/thumb/v7e-m/nofp/libgcc.a(_arm_mulsf3.o)
                0x0000000008008a08                __mulsf3
                0x0000000008008a08                __aeabi_fmul
 .text          0x0000000008008b70      0x378 /usr/lib/gcc/arm-none-eabi/9.2.1/thumb/v7e-m/nofp/libgcc.a(_arm_addsubdf3.o)
                0x0000000008008b70                __aeabi_drsub
                0x0000000008008b78                __aeabi_dsub
                0x0000000008008b78                __subdf3
                0x0000000008008b7c                __adddf3
                0x0000000008008b7c                __aeabi_dadd
                0x0000000008008df4                __aeabi_ui2d
                0x0000000008008df4                __floatunsidf
                0x0000000008008e14                __floatsidf
                0x0000000008008e14                __aeabi_i2d
                0x0000000008008e38                __extendsfdf2
                0x0000000008008e38                __aeabi_f2d
                0x0000000008008e7c                __aeabi_ul2d
                0x0000000008008e7c                __floatundidf
                0x0000000008008e8c                __floatdidf
                0x0000000008008e8c                __aeabi_l2d
 .text          0x0000000008008ee8      0x424 /usr/lib/gcc/arm-none-eabi/9.2.1/thumb/v7e-m/nofp/libgcc.a(_arm_muldivdf3.o)
                0x0000000008008ee8                __aeabi_dmul
                0x0000000008008ee8                __muldf3
                0x000000000800913c                __aeabi_ddiv
                0x000000000800913c                __divdf3
 .text          0x000000000800930c      0x110 /usr/lib/gcc/arm-none-eabi/9.2.1/thumb/v7e-m/nofp/libgcc.a(_arm_cmpdf2.o)
                0x000000000800930c                __gtdf2
                0x000000000800930c                __gedf2
                0x0000000008009314                __ltdf2
                0x0000000008009314                __ledf2
                0x000000000800931c                __cmpdf2
                0x000000000800931c                __eqdf2
                0x000000000800931c                __nedf2
                0x0000000008009398                __aeabi_cdrcmple
                0x00000000080093a8                __aeabi_cdcmple
                0x00000000080093a8                __aeabi_cdcmpeq
                0x00000000080093b8                __aeabi_dcmpeq
                0x00000000080093cc                __aeabi_dcmplt
                0x00000000080093e0                __aeabi_dcmple
                0x00000000080093f4                __aeabi_dcmpge
                0x0000000008009408                __aeabi_dcmpgt
 .text          0x000000000800941c       0x50 /usr/lib/gcc/arm-none-eabi/9.2.1/thumb/v7e-m/nofp/libgcc.a(_arm_fixdfsi.o)
                0x000000000800941c                __fixdfsi
                0x000000000800941c                __aeabi_d2iz
 .text          0x000000000800946c       0x40 /usr/lib/gcc/arm-none-eabi/9.2.1/thumb/v7e-m/nofp/libgcc.a(_arm_fixunsdfsi.o)
                0x000000000800946c                __fixunsdfsi
                0x000000000800946c                __aeabi_d2uiz
 .text          0x00000000080094ac      0x21c /usr/lib/gcc/arm-none-eabi/9.2.1/thumb/v7e-m/nofp/libgcc.a(_arm_addsubsf3.o)
                0x00000000080094ac                __aeabi_frsub
                0x00000000080094b4                __subsf3
                0x00000000080094b4                __aeabi_fsub
                0x00000000080094b8                __aeabi_fadd
                0x00000000080094b8                __addsf3
                0x0000000008009618                __aeabi_ui2f
                0x0000000008009618                __floatunsisf
                0x0000000008009620                __aeabi_i2f
                0x0000000008009620                __floatsisf
                0x000000000800963c                __floatundisf
                0x000000000800963c                __aeabi_ul2f
                0x000000000800964c                __floatdisf
                0x000000000800964c                __aeabi_l2f
 .text          0x00000000080096c8       0x4c /usr/lib/gcc/arm-none-eabi/9.2.1/thumb/v7e-m/nofp/libgcc.a(_arm_fixsfsi.o)
                0x00000000080096c8                __fixsfsi
                0x00000000080096c8                __aeabi_f2iz
 .text          0x0000000008009714       0x48 /usr/lib/gcc/arm-none-eabi/9.2.1/../../../arm-none-eabi/lib/thumb/v7e-m/nofp/libc_nano.a(lib_a-init.o)
                0x0000000008009714                __libc_init_array
 .text          0x000000000800975c       0x20 /usr/lib/gcc/arm-none-eabi/9.2.1/../../../arm-none-eabi/lib/thumb/v7e-m/nofp/libc_nano.a(lib_a-malloc.o)
                0x000000000800975c                malloc
                0x000000000800976c                free
 .text          0x000000000800977c      0x134 /usr/lib/gcc/arm-none-eabi/9.2.1/../../../arm-none-eabi/lib/thumb/v7e-m/nofp/libc_nano.a(lib_a-memcpy.o)
                0x000000000800977c                memcpy
 .text          0x00000000080098b0       0xd0 /usr/lib/gcc/arm-none-eabi/9.2.1/../../../arm-none-eabi/lib/thumb/v7e-m/nofp/libc_nano.a(lib_a-memmove.o)
                0x00000000080098b0                memmove
 .text          0x0000000008009980       0xa0 /usr/lib/gcc/arm-none-eabi/9.2.1/../../../arm-none-eabi/lib/thumb/v7e-m/nofp/libc_nano.a(lib_a-memset.o)
                0x0000000008009980                memset
 .text          0x0000000008009a20       0xac /usr/lib/gcc/arm-none-eabi/9.2.1/../../../arm-none-eabi/lib/thumb/v7e-m/nofp/libc_nano.a(lib_a-nano-freer.o)
                0x0000000008009a20                _free_r
 .text          0x0000000008009acc       0xc8 /usr/lib/gcc/arm-none-eabi/9.2.1/../../../arm-none-eabi/lib/thumb/v7e-m/nofp/libc_nano.a(lib_a-nano-mallocr.o)
                0x0000000008009acc                _malloc_r
 .text          0x0000000008009b94      0x6c0 /usr/lib/gcc/arm-none-eabi/9.2.1/../../../arm-none-eabi/lib/thumb/v7e-m/nofp/libc_nano.a(lib_a-nano-vfprintf_float.o)
                0x0000000008009b94                __cvt
                0x0000000008009c88                __exponent
                0x0000000008009d14                _printf_float
 .text          0x000000000800a254      0x3c4 /usr/lib/gcc/arm-none-eabi/9.2.1/../../../arm-none-eabi/lib/thumb/v7e-m/nofp/libc_nano.a(lib_a-nano-vfprintf_i.o)
                0x000000000800a254                _printf_common
                0x000000000800a380                _printf_i
 .text          0x000000000800a618       0x68 /usr/lib/gcc/arm-none-eabi/9.2.1/../../../arm-none-eabi/lib/thumb/v7e-m/nofp/libc_nano.a(lib_a-printf.o)
                0x000000000800a618                _printf_r
                0x000000000800a618                _iprintf_r
                0x000000000800a648                printf
                0x000000000800a648                iprintf
 .text          0x000000000800a680       0xe8 /usr/lib/gcc/arm-none-eabi/9.2.1/../../../arm-none-eabi/lib/thumb/v7e-m/nofp/libc_nano.a(lib_a-puts.o)
                0x000000000800a680                _puts_r
                0x000000000800a758                puts
 *fill*         0x000000000800a768       0x18 
 .text          0x000000000800a780       0xdc /usr/lib/gcc/arm-none-eabi/9.2.1/../../../arm-none-eabi/lib/thumb/v7e-m/nofp/libc_nano.a(lib_a-strlen.o)
                0x000000000800a780                strlen
 .text          0x000000000800a85c       0x34 /usr/lib/gcc/arm-none-eabi/9.2.1/../../../arm-none-eabi/lib/thumb/v7e-m/nofp/libc_nano.a(lib_a-time.o)
                0x000000000800a85c                time
 .text          0x000000000800a890       0xc0 /usr/lib/gcc/arm-none-eabi/9.2.1/../../../arm-none-eabi/lib/thumb/v7e-m/nofp/libc_nano.a(lib_a-wbuf.o)
                0x000000000800a890                __swbuf_r
                0x000000000800a940                __swbuf
 .text          0x000000000800a950      0x100 /usr/lib/gcc/arm-none-eabi/9.2.1/../../../arm-none-eabi/lib/thumb/v7e-m/nofp/libc_nano.a(lib_a-wsetup.o)
                0x000000000800a950                __swsetup_r
 .text          0x000000000800aa50     0x104c /usr/lib/gcc/arm-none-eabi/9.2.1/../../../arm-none-eabi/lib/thumb/v7e-m/nofp/libc_nano.a(lib_a-dtoa.o)
                0x000000000800ab74                _dtoa_r
 .text          0x000000000800ba9c      0x1b0 /usr/lib/gcc/arm-none-eabi/9.2.1/../../../arm-none-eabi/lib/thumb/v7e-m/nofp/libc_nano.a(lib_a-fflush.o)
                0x000000000800ba9c                __sflush_r
                0x000000000800bbc8                _fflush_r
                0x000000000800bc28                fflush
 .text          0x000000000800bc4c      0x210 /usr/lib/gcc/arm-none-eabi/9.2.1/../../../arm-none-eabi/lib/thumb/v7e-m/nofp/libc_nano.a(lib_a-findfp.o)
                0x000000000800bc50                _cleanup_r
                0x000000000800bc60                __sfmoreglue
                0x000000000800bc90                __sfp
                0x000000000800be08                _cleanup
                0x000000000800be1c                __sinit
                0x000000000800be24                __sfp_lock_acquire
                0x000000000800be28                __sfp_lock_release
                0x000000000800be2c                __sinit_lock_acquire
                0x000000000800be30                __sinit_lock_release
                0x000000000800be34                __fp_lock_all
                0x000000000800be48                __fp_unlock_all
 .text          0x000000000800be5c       0x44 /usr/lib/gcc/arm-none-eabi/9.2.1/../../../arm-none-eabi/lib/thumb/v7e-m/nofp/libc_nano.a(lib_a-fprintf.o)
                0x000000000800be5c                _fprintf_r
                0x000000000800be5c                _fiprintf_r
                0x000000000800be78                fprintf
                0x000000000800be78                fiprintf
 .text          0x000000000800bea0       0xa0 /usr/lib/gcc/arm-none-eabi/9.2.1/../../../arm-none-eabi/lib/thumb/v7e-m/nofp/libc_nano.a(lib_a-fwalk.o)
                0x000000000800bea0                _fwalk
                0x000000000800beec                _fwalk_reent
 .text          0x000000000800bf40       0x14 /usr/lib/gcc/arm-none-eabi/9.2.1/../../../arm-none-eabi/lib/thumb/v7e-m/nofp/libc_nano.a(lib_a-localeconv.o)
                0x000000000800bf40                __localeconv_l
                0x000000000800bf44                _localeconv_r
                0x000000000800bf4c                localeconv
 .text          0x000000000800bf54       0xf0 /usr/lib/gcc/arm-none-eabi/9.2.1/../../../arm-none-eabi/lib/thumb/v7e-m/nofp/libc_nano.a(lib_a-makebuf.o)
                0x000000000800bf54                __swhatbuf_r
                0x000000000800bfb0                __smakebuf_r
 *fill*         0x000000000800c044        0xc 
 .text          0x000000000800c050       0xa0 /usr/lib/gcc/arm-none-eabi/9.2.1/../../../arm-none-eabi/lib/thumb/v7e-m/nofp/libc_nano.a(lib_a-memchr.o)
                0x000000000800c050                memchr
 .text          0x000000000800c0f0        0x8 /usr/lib/gcc/arm-none-eabi/9.2.1/../../../arm-none-eabi/lib/thumb/v7e-m/nofp/libc_nano.a(lib_a-mlock.o)
                0x000000000800c0f0                __malloc_lock
                0x000000000800c0f4                __malloc_unlock
 .text          0x000000000800c0f8      0xa08 /usr/lib/gcc/arm-none-eabi/9.2.1/../../../arm-none-eabi/lib/thumb/v7e-m/nofp/libc_nano.a(lib_a-mprec.o)
                0x000000000800c0f8                _Balloc
                0x000000000800c178                _Bfree
                0x000000000800c1c4                __multadd
                0x000000000800c264                __s2b
                0x000000000800c310                __hi0bits
                0x000000000800c350                __lo0bits
                0x000000000800c3b0                __i2b
                0x000000000800c3dc                __multiply
                0x000000000800c528                __pow5mult
                0x000000000800c5ec                __lshift
                0x000000000800c6b4                __mcmp
                0x000000000800c6ec                __mdiff
                0x000000000800c814                __ulp
                0x000000000800c854                __b2d
                0x000000000800c90c                __d2b
                0x000000000800c9d0                __ratio
                0x000000000800ca2c                _mprec_log10
                0x000000000800ca64                __copybits
                0x000000000800caac                __any_on
 .text          0x000000000800cb00       0x1c /usr/lib/gcc/arm-none-eabi/9.2.1/../../../arm-none-eabi/lib/thumb/v7e-m/nofp/libc_nano.a(lib_a-nano-callocr.o)
                0x000000000800cb00                _calloc_r
 .text          0x000000000800cb1c       0x4c /usr/lib/gcc/arm-none-eabi/9.2.1/../../../arm-none-eabi/lib/thumb/v7e-m/nofp/libc_nano.a(lib_a-nano-reallocr.o)
                0x000000000800cb1c                _realloc_r
 .text          0x000000000800cb68      0x360 /usr/lib/gcc/arm-none-eabi/9.2.1/../../../arm-none-eabi/lib/thumb/v7e-m/nofp/libc_nano.a(lib_a-nano-vfprintf.o)
                0x000000000800cba0                __sfputs_r
                0x000000000800cbd0                __sprint_r
                0x000000000800cbec                _vfiprintf_r
                0x000000000800cbec                _vfprintf_r
                0x000000000800ceb0                vfiprintf
                0x000000000800ceb0                vfprintf
 .text          0x000000000800cec8       0x90 /usr/lib/gcc/arm-none-eabi/9.2.1/../../../arm-none-eabi/lib/thumb/v7e-m/nofp/libc_nano.a(lib_a-stdio.o)
                0x000000000800cec8                __sread
                0x000000000800ceec                __seofread
                0x000000000800cef0                __swrite
                0x000000000800cf30                __sseek
                0x000000000800cf50                __sclose
 .text          0x000000000800cf58       0x48 /usr/lib/gcc/arm-none-eabi/9.2.1/../../../arm-none-eabi/lib/thumb/v7e-m/nofp/libc_nano.a(lib_a-assert.o)
                0x000000000800cf58                __assert_func
                0x000000000800cf94                __assert
 .text          0x000000000800cfa0      0x308 /usr/lib/gcc/arm-none-eabi/9.2.1/../../../arm-none-eabi/lib/thumb/v7e-m/nofp/libc_nano.a(lib_a-fvwrite.o)
                0x000000000800cfa0                __sfvwrite_r
 .text          0x000000000800d2a8       0x40 /usr/lib/gcc/arm-none-eabi/9.2.1/../../../arm-none-eabi/lib/thumb/v7e-m/nofp/libc_nano.a(lib_a-mbtowc_r.o)
                0x000000000800d2a8                _mbtowc_r
                0x000000000800d2bc                __ascii_mbtowc
 .text          0x000000000800d2e8       0x10 /usr/lib/gcc/arm-none-eabi/9.2.1/../../../arm-none-eabi/lib/thumb/v7e-m/nofp/libc_nano.a(lib_a-nano-msizer.o)
                0x000000000800d2e8                _malloc_usable_size_r
 .text          0x000000000800d2f8       0x30 /usr/lib/gcc/arm-none-eabi/9.2.1/../../../arm-none-eabi/lib/thumb/v7e-m/nofp/libc_nano.a(lib_a-wctomb_r.o)
                0x000000000800d2f8                _wctomb_r
                0x000000000800d30c                __ascii_wctomb
 .text          0x000000000800d328       0x10 /usr/lib/gcc/arm-none-eabi/9.2.1/../../../arm-none-eabi/lib/thumb/v7e-m/nofp/libc_nano.a(lib_a-abort.o)
                0x000000000800d328                abort
 .text          0x000000000800d338      0x150 /usr/lib/gcc/arm-none-eabi/9.2.1/../../../arm-none-eabi/lib/thumb/v7e-m/nofp/libc_nano.a(lib_a-signal.o)
                0x000000000800d360                _init_signal_r
                0x000000000800d36c                _signal_r
                0x000000000800d3a0                _raise_r
                0x000000000800d3f4                __sigtramp_r
                0x000000000800d444                raise
                0x000000000800d454                signal
                0x000000000800d464                _init_signal
                0x000000000800d478                __sigtramp
 .text          0x000000000800d488       0x2c /usr/lib/gcc/arm-none-eabi/9.2.1/thumb/v7e-m/nofp/libgcc.a(_arm_unorddf2.o)
                0x000000000800d488                __aeabi_dcmpun
                0x000000000800d488                __unorddf2
 *(.glue_7t)
 .glue_7t       0x000000000800d4b4        0x0 linker stubs
 *(.glue_7)
 .glue_7        0x000000000800d4b4        0x0 linker stubs
 *(.rodata .rodata* .gnu.linkonce.r.*)
 .rodata.setup_scd30.str1.1
                0x000000000800d4b4       0xad /home/ch/RIOT/tests/lora_co2_scd30/bin/lora-e5-dev/application_lora_co2_scd30/main.o
 .rodata.get_mesurement.str1.1
                0x000000000800d561       0x48 /home/ch/RIOT/tests/lora_co2_scd30/bin/lora-e5-dev/application_lora_co2_scd30/main.o
 .rodata.main.str1.1
                0x000000000800d5a9      0x113 /home/ch/RIOT/tests/lora_co2_scd30/bin/lora-e5-dev/application_lora_co2_scd30/main.o
                                        0x124 (size before relaxing)
 .rodata.sx126x_params
                0x000000000800d6bc       0x20 /home/ch/RIOT/tests/lora_co2_scd30/bin/lora-e5-dev/application_lora_co2_scd30/main.o
 .rodata.main_trampoline.str1.1
                0x000000000800d6dc       0x3b /home/ch/RIOT/tests/lora_co2_scd30/bin/lora-e5-dev/core/init.o
 .rodata.kernel_init.str1.1
                0x000000000800d717        0x5 /home/ch/RIOT/tests/lora_co2_scd30/bin/lora-e5-dev/core/init.o
 .rodata.core_panic.str1.1
                0x000000000800d71c       0x2e /home/ch/RIOT/tests/lora_co2_scd30/bin/lora-e5-dev/core/panic.o
 .rodata.assert_crash_message
                0x000000000800d74a       0x12 /home/ch/RIOT/tests/lora_co2_scd30/bin/lora-e5-dev/core/panic.o
                0x000000000800d74a                assert_crash_message
 .rodata._unschedule.str1.1
                0x000000000800d75c       0x2f /home/ch/RIOT/tests/lora_co2_scd30/bin/lora-e5-dev/core/sched.o
 .rodata.panic_arch.str1.1
                0x000000000800d78b        0xf /home/ch/RIOT/tests/lora_co2_scd30/bin/lora-e5-dev/cortexm_common/panic.o
 .rodata.nmi_default.str1.1
                0x000000000800d79a        0xc /home/ch/RIOT/tests/lora_co2_scd30/bin/lora-e5-dev/cortexm_common/vectors_cortexm.o
 .rodata.mem_manage_default.str1.1
                0x000000000800d7a6       0x13 /home/ch/RIOT/tests/lora_co2_scd30/bin/lora-e5-dev/cortexm_common/vectors_cortexm.o
 .rodata.bus_fault_default.str1.1
                0x000000000800d7b9       0x12 /home/ch/RIOT/tests/lora_co2_scd30/bin/lora-e5-dev/cortexm_common/vectors_cortexm.o
 .rodata.usage_fault_default.str1.1
                0x000000000800d7cb       0x14 /home/ch/RIOT/tests/lora_co2_scd30/bin/lora-e5-dev/cortexm_common/vectors_cortexm.o
 .rodata.debug_mon_default.str1.1
                0x000000000800d7df       0x12 /home/ch/RIOT/tests/lora_co2_scd30/bin/lora-e5-dev/cortexm_common/vectors_cortexm.o
 .rodata.dummy_handler_default.str1.1
                0x000000000800d7f1        0xe /home/ch/RIOT/tests/lora_co2_scd30/bin/lora-e5-dev/cortexm_common/vectors_cortexm.o
 .rodata.hard_fault_handler.str1.1
                0x000000000800d7ff      0x233 /home/ch/RIOT/tests/lora_co2_scd30/bin/lora-e5-dev/cortexm_common/vectors_cortexm.o
 .rodata.apbmul
                0x000000000800da32        0x4 /home/ch/RIOT/tests/lora_co2_scd30/bin/lora-e5-dev/cpu/cpu_common.o
 *fill*         0x000000000800da36        0x2 
 .rodata.Te0    0x000000000800da38      0x400 /home/ch/RIOT/tests/lora_co2_scd30/bin/lora-e5-dev/crypto/aes.o
 .rodata.rcon   0x000000000800de38       0x28 /home/ch/RIOT/tests/lora_co2_scd30/bin/lora-e5-dev/crypto/aes.o
 .rodata        0x000000000800de60        0x3 /home/ch/RIOT/tests/lora_co2_scd30/bin/lora-e5-dev/driver_sx126x/sx126x.o
 .rodata._exit.str1.1
                0x000000000800de63       0x1a /home/ch/RIOT/tests/lora_co2_scd30/bin/lora-e5-dev/newlib_syscalls_default/syscalls.o
 *fill*         0x000000000800de7d        0x3 
 .rodata.spi_config
                0x000000000800de80       0x40 /home/ch/RIOT/tests/lora_co2_scd30/bin/lora-e5-dev/periph/spi.o
 .rodata.timer_config
                0x000000000800dec0       0x10 /home/ch/RIOT/tests/lora_co2_scd30/bin/lora-e5-dev/periph/timer.o
 .rodata.uart_config
                0x000000000800ded0       0x54 /home/ch/RIOT/tests/lora_co2_scd30/bin/lora-e5-dev/periph/uart.o
 .rodata.semtech_loramac_init.str1.1
                0x000000000800df24        0xc /home/ch/RIOT/tests/lora_co2_scd30/bin/lora-e5-dev/semtech_loramac_contrib/semtech_loramac.o
 .rodata.CSWTCH.34
                0x000000000800df30        0xc /home/ch/RIOT/tests/lora_co2_scd30/bin/lora-e5-dev/semtech_loramac_contrib/semtech_loramac.o
 .rodata        0x000000000800df3c       0x18 /home/ch/RIOT/tests/lora_co2_scd30/bin/lora-e5-dev/semtech_loramac_contrib/semtech_loramac_radio.o
 .rodata.Radio  0x000000000800df54       0x6c /home/ch/RIOT/tests/lora_co2_scd30/bin/lora-e5-dev/semtech_loramac_contrib/semtech_loramac_radio.o
                0x000000000800df54                Radio
 .rodata.LoRaMacMaxEirpTable
                0x000000000800dfc0       0x10 /home/ch/RIOT/tests/lora_co2_scd30/bin/lora-e5-dev/semtech_loramac_mac/LoRaMac.o
 .rodata        0x000000000800dfd0       0x24 /home/ch/RIOT/tests/lora_co2_scd30/bin/lora-e5-dev/semtech_loramac_mac_region/RegionEU868.o
 .rodata.BandwidthsEU868
                0x000000000800dff4       0x20 /home/ch/RIOT/tests/lora_co2_scd30/bin/lora-e5-dev/semtech_loramac_mac_region/RegionEU868.o
 .rodata.CSWTCH.48
                0x000000000800e014        0x7 /home/ch/RIOT/tests/lora_co2_scd30/bin/lora-e5-dev/semtech_loramac_mac_region/RegionEU868.o
 .rodata.DataratesEU868
                0x000000000800e01b        0x8 /home/ch/RIOT/tests/lora_co2_scd30/bin/lora-e5-dev/semtech_loramac_mac_region/RegionEU868.o
 .rodata.MaxPayloadOfDatarateEU868
                0x000000000800e023        0x8 /home/ch/RIOT/tests/lora_co2_scd30/bin/lora-e5-dev/semtech_loramac_mac_region/RegionEU868.o
 .rodata.MaxPayloadOfDatarateRepeaterEU868
                0x000000000800e02b        0x8 /home/ch/RIOT/tests/lora_co2_scd30/bin/lora-e5-dev/semtech_loramac_mac_region/RegionEU868.o
 *fill*         0x000000000800e033        0x1 
 .rodata.sx126x_driver
                0x000000000800e034       0x1c /home/ch/RIOT/tests/lora_co2_scd30/bin/lora-e5-dev/sx126x/sx126x_netdev.o
                0x000000000800e034                sx126x_driver
 .rodata._bw_khz
                0x000000000800e050        0x6 /home/ch/RIOT/tests/lora_co2_scd30/bin/lora-e5-dev/sx126x/sx126x.o
 .rodata.hpa_cfg
                0x000000000800e056        0x4 /home/ch/RIOT/tests/lora_co2_scd30/bin/lora-e5-dev/sx126x/sx126x.o
                0x000000000800e056                hpa_cfg
 .rodata.lpa_cfg
                0x000000000800e05a        0x4 /home/ch/RIOT/tests/lora_co2_scd30/bin/lora-e5-dev/sx126x/sx126x.o
                0x000000000800e05a                lpa_cfg
 *fill*         0x000000000800e05e        0x2 
 .rodata.ztimer_convert_frac_ops
                0x000000000800e060        0xc /home/ch/RIOT/tests/lora_co2_scd30/bin/lora-e5-dev/ztimer_core/convert_frac.o
 .rodata.ZTIMER_MSEC
                0x000000000800e06c        0x4 /home/ch/RIOT/tests/lora_co2_scd30/bin/lora-e5-dev/ztimer_core/init.o
                0x000000000800e06c                ZTIMER_MSEC
 .rodata.ZTIMER_USEC
                0x000000000800e070        0x4 /home/ch/RIOT/tests/lora_co2_scd30/bin/lora-e5-dev/ztimer_core/init.o
                0x000000000800e070                ZTIMER_USEC
 .rodata._ztimer_periph_rtt_ops
                0x000000000800e074        0xc /home/ch/RIOT/tests/lora_co2_scd30/bin/lora-e5-dev/ztimer_core/periph_rtt.o
 .rodata._ztimer_periph_timer_ops
                0x000000000800e080        0xc /home/ch/RIOT/tests/lora_co2_scd30/bin/lora-e5-dev/ztimer_core/periph_timer.o
 .rodata        0x000000000800e08c        0x4 /usr/lib/gcc/arm-none-eabi/9.2.1/../../../arm-none-eabi/lib/thumb/v7e-m/nofp/libc_nano.a(lib_a-impure.o)
                0x000000000800e08c                _global_impure_ptr
 .rodata.str1.4
                0x000000000800e090       0x12 /usr/lib/gcc/arm-none-eabi/9.2.1/../../../arm-none-eabi/lib/thumb/v7e-m/nofp/libc_nano.a(lib_a-nano-vfprintf_float.o)
 *fill*         0x000000000800e0a2        0x2 
 .rodata.str1.4
                0x000000000800e0a4       0x25 /usr/lib/gcc/arm-none-eabi/9.2.1/../../../arm-none-eabi/lib/thumb/v7e-m/nofp/libc_nano.a(lib_a-nano-vfprintf_i.o)
 *fill*         0x000000000800e0c9        0x3 
 .rodata.str1.4
                0x000000000800e0cc       0x6d /usr/lib/gcc/arm-none-eabi/9.2.1/../../../arm-none-eabi/lib/thumb/v7e-m/nofp/libc_nano.a(lib_a-dtoa.o)
                                         0x71 (size before relaxing)
 *fill*         0x000000000800e139        0x3 
 .rodata        0x000000000800e13c       0x60 /usr/lib/gcc/arm-none-eabi/9.2.1/../../../arm-none-eabi/lib/thumb/v7e-m/nofp/libc_nano.a(lib_a-findfp.o)
                0x000000000800e13c                __sf_fake_stderr
                0x000000000800e15c                __sf_fake_stdout
                0x000000000800e17c                __sf_fake_stdin
 *fill*         0x000000000800e19c        0x4 
 .rodata        0x000000000800e1a0      0x128 /usr/lib/gcc/arm-none-eabi/9.2.1/../../../arm-none-eabi/lib/thumb/v7e-m/nofp/libc_nano.a(lib_a-mprec.o)
                0x000000000800e1b0                __mprec_tens
                0x000000000800e278                __mprec_tinytens
                0x000000000800e2a0                __mprec_bigtens
 .rodata.str1.4
                0x000000000800e2c8       0x33 /usr/lib/gcc/arm-none-eabi/9.2.1/../../../arm-none-eabi/lib/thumb/v7e-m/nofp/libc_nano.a(lib_a-mprec.o)
                                         0x5d (size before relaxing)
 *fill*         0x000000000800e2fb        0x1 
 .rodata.str1.4
                0x000000000800e2fc       0x13 /usr/lib/gcc/arm-none-eabi/9.2.1/../../../arm-none-eabi/lib/thumb/v7e-m/nofp/libc_nano.a(lib_a-nano-vfprintf.o)
 *fill*         0x000000000800e30f        0x1 
 .rodata.str1.4
                0x000000000800e310       0x3f /usr/lib/gcc/arm-none-eabi/9.2.1/../../../arm-none-eabi/lib/thumb/v7e-m/nofp/libc_nano.a(lib_a-assert.o)
                                         0x43 (size before relaxing)
 *fill*         0x000000000800e34f        0x1 
 .rodata.str1.4
                0x000000000800e350        0xe /usr/lib/gcc/arm-none-eabi/9.2.1/../../../arm-none-eabi/lib/thumb/v7e-m/nofp/libc_nano.a(lib_a-locale.o)
                                         0x12 (size before relaxing)
 *fill*         0x000000000800e35e        0x2 
 .rodata        0x000000000800e360      0x101 /usr/lib/gcc/arm-none-eabi/9.2.1/../../../arm-none-eabi/lib/thumb/v7e-m/nofp/libc_nano.a(lib_a-ctype_.o)
                0x000000000800e360                _ctype_
 *(SORT_BY_NAME(.roxfa.*))
 *(.ARM.extab* .gnu.linkonce.armextab.*)
                0x000000000800e464                . = ALIGN (0x4)
 *fill*         0x000000000800e461        0x3 
 *(.init)
                0x000000000800e464                . = ALIGN (0x4)
                0x000000000800e464                __preinit_array_start = .
 *(.preinit_array)
                0x000000000800e464                __preinit_array_end = .
                0x000000000800e464                . = ALIGN (0x4)
                0x000000000800e464                __init_array_start = .
 *(SORT_BY_NAME(.init_array.*))
 *(.init_array)
                0x000000000800e464                __init_array_end = .
                0x000000000800e464                . = ALIGN (0x4)
 *crtbegin.o(.ctors)
 *(EXCLUDE_FILE(*crtend.o) .ctors)
 *(SORT_BY_NAME(.ctors.*))
 *crtend.o(.ctors)
                0x000000000800e464                . = ALIGN (0x4)
 *(.fini)
                0x000000000800e464                . = ALIGN (0x4)
                0x000000000800e464                __fini_array_start = .
 *(.fini_array)
 *(SORT_BY_NAME(.fini_array.*))
                0x000000000800e464                __fini_array_end = .
 *crtbegin.o(.dtors)
 *(EXCLUDE_FILE(*crtend.o) .dtors)
 *(SORT_BY_NAME(.dtors.*))
 *crtend.o(.dtors)
                0x000000000800e464                . = ALIGN (0x4)
                0x000000000800e464                _efixed = .

.vfp11_veneer   0x000000000800e464        0x0
 .vfp11_veneer  0x000000000800e464        0x0 linker stubs

.v4_bx          0x000000000800e464        0x0
 .v4_bx         0x000000000800e464        0x0 linker stubs

.iplt           0x000000000800e464        0x0
 .iplt          0x000000000800e464        0x0 /home/ch/RIOT/tests/lora_co2_scd30/bin/lora-e5-dev/application_lora_co2_scd30/main.o

.igot.plt       0x000000000800e464        0x0
 .igot.plt      0x000000000800e464        0x0 /home/ch/RIOT/tests/lora_co2_scd30/bin/lora-e5-dev/application_lora_co2_scd30/main.o

.rel.dyn        0x000000000800e464        0x0
 .rel.iplt      0x000000000800e464        0x0 /home/ch/RIOT/tests/lora_co2_scd30/bin/lora-e5-dev/application_lora_co2_scd30/main.o

.tdata          0x000000000800e464        0x0
                0x000000000800e464                __tdata_start = .
 *(.tdata .tdata.* .gnu.linkonce.td.*)
                0x000000000800e464                __tdata_end = .
                0x000000000800e464                __tdata_source = LOADADDR (.tdata)
                0x0000000000000000                __tdata_size = SIZEOF (.tdata)

.tbss           0x000000000800e464        0x0
 *(.tbss .tbss.* .gnu.linkonce.tb.*)
 *(.tcommon)
                0x000000000800e464                __tbss_end = .
                0x0000000000000000                __tls_size = (__tbss_end - __tdata_start)
                0x0000000000000000                __tbss_size = (__tls_size - __tdata_size)
                [!provide]                        PROVIDE (__exidx_start = .)

.ARM.exidx
 *(.ARM.exidx* .gnu.linkonce.armexidx.*)
                [!provide]                        PROVIDE (__exidx_end = .)
                0x000000000800e464                . = ALIGN (0x4)

.eh_frame
 *(.eh_frame)
                0x000000000800e464                . = ALIGN (0x4)
                0x000000000800e464                _etext = .

.stack          0x0000000020000000      0x200
 *(.puf)
                0x0000000020000000                . = ALIGN (0x8)
                0x0000000020000000                _sstack = .
 *(.isr_stack)
 .isr_stack     0x0000000020000000      0x200 /home/ch/RIOT/tests/lora_co2_scd30/bin/lora-e5-dev/cortexm_common/vectors_cortexm.o
                0x0000000020000000                isr_stack
                0x0000000020000200                . = ALIGN (0x8)
                0x0000000020000200                _estack = .

.relocate       0x0000000020000200      0x29c load address 0x000000000800e464
                0x0000000020000200                . = ALIGN (0x4)
                0x0000000020000200                _srelocate = .
 *(.ramfunc .ramfunc.*)
 *(.data .data.*)
 .data.interval
                0x0000000020000200        0x2 /home/ch/RIOT/tests/lora_co2_scd30/bin/lora-e5-dev/application_lora_co2_scd30/main.o
                0x0000000020000200                interval
 *fill*         0x0000000020000202        0x2 
 .data.params   0x0000000020000204        0x8 /home/ch/RIOT/tests/lora_co2_scd30/bin/lora-e5-dev/application_lora_co2_scd30/main.o
                0x0000000020000204                params
 .data.pressure_compensation
                0x000000002000020c        0x2 /home/ch/RIOT/tests/lora_co2_scd30/bin/lora-e5-dev/application_lora_co2_scd30/main.o
                0x000000002000020c                pressure_compensation
 *fill*         0x000000002000020e        0x2 
 .data.heap_top
                0x0000000020000210        0x4 /home/ch/RIOT/tests/lora_co2_scd30/bin/lora-e5-dev/newlib_syscalls_default/syscalls.o
 .data.pm_blocker
                0x0000000020000214        0x4 /home/ch/RIOT/tests/lora_co2_scd30/bin/lora-e5-dev/pm_layered/pm.o
 .data.MicBlockB0
                0x0000000020000218       0x10 /home/ch/RIOT/tests/lora_co2_scd30/bin/lora-e5-dev/semtech_loramac_mac/LoRaMacCrypto.o
 .data.aBlock   0x0000000020000228       0x10 /home/ch/RIOT/tests/lora_co2_scd30/bin/lora-e5-dev/semtech_loramac_mac/LoRaMacCrypto.o
 .data.AckTimeoutRetries
                0x0000000020000238        0x1 /home/ch/RIOT/tests/lora_co2_scd30/bin/lora-e5-dev/semtech_loramac_mac/LoRaMac.o
 .data.AckTimeoutRetriesCounter
                0x0000000020000239        0x1 /home/ch/RIOT/tests/lora_co2_scd30/bin/lora-e5-dev/semtech_loramac_mac/LoRaMac.o
 .data.IsRxWindowsEnabled
                0x000000002000023a        0x1 /home/ch/RIOT/tests/lora_co2_scd30/bin/lora-e5-dev/semtech_loramac_mac/LoRaMac.o
 *fill*         0x000000002000023b        0x1 
 .data.Bands    0x000000002000023c       0x50 /home/ch/RIOT/tests/lora_co2_scd30/bin/lora-e5-dev/semtech_loramac_mac_region/RegionEU868.o
 .data._ztimer  0x000000002000028c       0x10 /home/ch/RIOT/tests/lora_co2_scd30/bin/lora-e5-dev/xtimer/xtimer_core.o
 .data._ztimer_periph_timer
                0x000000002000029c       0x2c /home/ch/RIOT/tests/lora_co2_scd30/bin/lora-e5-dev/ztimer_core/init.o
 .data          0x00000000200002c8       0x64 /usr/lib/gcc/arm-none-eabi/9.2.1/../../../arm-none-eabi/lib/thumb/v7e-m/nofp/libc_nano.a(lib_a-impure.o)
                0x00000000200002c8                _impure_ptr
 .data          0x000000002000032c      0x16c /usr/lib/gcc/arm-none-eabi/9.2.1/../../../arm-none-eabi/lib/thumb/v7e-m/nofp/libc_nano.a(lib_a-locale.o)
                0x000000002000032c                __global_locale
 *(SORT_BY_NAME(.xfa.*))
 *(.openocd .openocd.*)
 .openocd       0x0000000020000498        0x2 /home/ch/RIOT/tests/lora_co2_scd30/bin/lora-e5-dev/core/sched.o
                0x0000000020000498                _tcb_name_offset
                0x0000000020000499                max_threads
                0x000000002000049c                . = ALIGN (0x4)
 *fill*         0x000000002000049a        0x2 
                0x000000002000049c                _erelocate = .

.bss            0x00000000200004a0     0x13b0 load address 0x000000000800e700
                0x00000000200004a0                . = ALIGN (0x4)
                0x00000000200004a0                _sbss = .
                0x00000000200004a0                _szero = .
 *(.bss .bss.*)
 .bss.appeui    0x00000000200004a0        0x8 /home/ch/RIOT/tests/lora_co2_scd30/bin/lora-e5-dev/application_lora_co2_scd30/main.o
 .bss.appkey    0x00000000200004a8       0x10 /home/ch/RIOT/tests/lora_co2_scd30/bin/lora-e5-dev/application_lora_co2_scd30/main.o
 .bss.deveui    0x00000000200004b8        0x8 /home/ch/RIOT/tests/lora_co2_scd30/bin/lora-e5-dev/application_lora_co2_scd30/main.o
 .bss.loramac   0x00000000200004c0       0x2c /home/ch/RIOT/tests/lora_co2_scd30/bin/lora-e5-dev/application_lora_co2_scd30/main.o
 .bss.lpp       0x00000000200004ec       0x2b /home/ch/RIOT/tests/lora_co2_scd30/bin/lora-e5-dev/application_lora_co2_scd30/main.o
 *fill*         0x0000000020000517        0x1 
 .bss.result    0x0000000020000518        0xc /home/ch/RIOT/tests/lora_co2_scd30/bin/lora-e5-dev/application_lora_co2_scd30/main.o
                0x0000000020000518                result
 .bss.scd30_dev
                0x0000000020000524        0x8 /home/ch/RIOT/tests/lora_co2_scd30/bin/lora-e5-dev/application_lora_co2_scd30/main.o
                0x0000000020000524                scd30_dev
 .bss.sx126x    0x000000002000052c       0x24 /home/ch/RIOT/tests/lora_co2_scd30/bin/lora-e5-dev/application_lora_co2_scd30/main.o
 .bss.value     0x0000000020000550        0x2 /home/ch/RIOT/tests/lora_co2_scd30/bin/lora-e5-dev/application_lora_co2_scd30/main.o
                0x0000000020000550                value
 .bss.main_stack
                0x0000000020000552      0x600 /home/ch/RIOT/tests/lora_co2_scd30/bin/lora-e5-dev/core/init.o
 *fill*         0x0000000020000b52        0x2 
 .bss.crashed   0x0000000020000b54        0x4 /home/ch/RIOT/tests/lora_co2_scd30/bin/lora-e5-dev/core/panic.o
 .bss.runqueue_bitcache
                0x0000000020000b58        0x4 /home/ch/RIOT/tests/lora_co2_scd30/bin/lora-e5-dev/core/sched.o
 .bss.sched_active_pid
                0x0000000020000b5c        0x2 /home/ch/RIOT/tests/lora_co2_scd30/bin/lora-e5-dev/core/sched.o
                0x0000000020000b5c                sched_active_pid
 *fill*         0x0000000020000b5e        0x2 
 .bss.sched_active_thread
                0x0000000020000b60        0x4 /home/ch/RIOT/tests/lora_co2_scd30/bin/lora-e5-dev/core/sched.o
                0x0000000020000b60                sched_active_thread
 .bss.sched_context_switch_request
                0x0000000020000b64        0x4 /home/ch/RIOT/tests/lora_co2_scd30/bin/lora-e5-dev/core/sched.o
                0x0000000020000b64                sched_context_switch_request
 .bss.sched_num_threads
                0x0000000020000b68        0x4 /home/ch/RIOT/tests/lora_co2_scd30/bin/lora-e5-dev/core/sched.o
                0x0000000020000b68                sched_num_threads
 .bss.sched_runqueues
                0x0000000020000b6c       0x40 /home/ch/RIOT/tests/lora_co2_scd30/bin/lora-e5-dev/core/sched.o
                0x0000000020000b6c                sched_runqueues
 .bss.sched_threads
                0x0000000020000bac       0x84 /home/ch/RIOT/tests/lora_co2_scd30/bin/lora-e5-dev/core/sched.o
                0x0000000020000bac                sched_threads
 .bss.lastused  0x0000000020000c30        0x1 /home/ch/RIOT/tests/lora_co2_scd30/bin/lora-e5-dev/luid/luid.o
 *fill*         0x0000000020000c31        0x3 
 .bss._lock     0x0000000020000c34        0x4 /home/ch/RIOT/tests/lora_co2_scd30/bin/lora-e5-dev/malloc_thread_safe/malloc_wrappers.o
 .bss.isr_ctx   0x0000000020000c38       0x80 /home/ch/RIOT/tests/lora_co2_scd30/bin/lora-e5-dev/periph/gpio_all.o
 .bss.locks     0x0000000020000cb8        0x4 /home/ch/RIOT/tests/lora_co2_scd30/bin/lora-e5-dev/periph/i2c_1.o
 .bss.ovf_arg   0x0000000020000cbc        0x4 /home/ch/RIOT/tests/lora_co2_scd30/bin/lora-e5-dev/periph/rtt_all.o
 .bss.ovf_cb    0x0000000020000cc0        0x4 /home/ch/RIOT/tests/lora_co2_scd30/bin/lora-e5-dev/periph/rtt_all.o
 .bss.to_arg    0x0000000020000cc4        0x4 /home/ch/RIOT/tests/lora_co2_scd30/bin/lora-e5-dev/periph/rtt_all.o
 .bss.to_cb     0x0000000020000cc8        0x4 /home/ch/RIOT/tests/lora_co2_scd30/bin/lora-e5-dev/periph/rtt_all.o
 .bss.clocks    0x0000000020000ccc        0x8 /home/ch/RIOT/tests/lora_co2_scd30/bin/lora-e5-dev/periph/spi.o
 .bss.dividers  0x0000000020000cd4        0x2 /home/ch/RIOT/tests/lora_co2_scd30/bin/lora-e5-dev/periph/spi.o
 *fill*         0x0000000020000cd6        0x2 
 .bss.locks     0x0000000020000cd8        0x8 /home/ch/RIOT/tests/lora_co2_scd30/bin/lora-e5-dev/periph/spi.o
 .bss.isr_ctx   0x0000000020000ce0        0x8 /home/ch/RIOT/tests/lora_co2_scd30/bin/lora-e5-dev/periph/timer.o
 .bss.isr_ctx   0x0000000020000ce8       0x24 /home/ch/RIOT/tests/lora_co2_scd30/bin/lora-e5-dev/periph/uart.o
 *fill*         0x0000000020000d0c        0x4 
 .bss._seed     0x0000000020000d10        0x8 /home/ch/RIOT/tests/lora_co2_scd30/bin/lora-e5-dev/random/musl_lcg.o
 .bss._semtech_loramac_msg_queue
                0x0000000020000d18       0x20 /home/ch/RIOT/tests/lora_co2_scd30/bin/lora-e5-dev/semtech_loramac_contrib/semtech_loramac.o
 .bss._semtech_loramac_stack
                0x0000000020000d38      0x400 /home/ch/RIOT/tests/lora_co2_scd30/bin/lora-e5-dev/semtech_loramac_contrib/semtech_loramac.o
 .bss.loramac_netdev_ptr
                0x0000000020001138        0x4 /home/ch/RIOT/tests/lora_co2_scd30/bin/lora-e5-dev/semtech_loramac_contrib/semtech_loramac.o
                0x0000000020001138                loramac_netdev_ptr
 .bss.semtech_loramac_callbacks
                0x000000002000113c        0x4 /home/ch/RIOT/tests/lora_co2_scd30/bin/lora-e5-dev/semtech_loramac_contrib/semtech_loramac.o
                0x000000002000113c                semtech_loramac_callbacks
 .bss.semtech_loramac_pid
                0x0000000020001140        0x2 /home/ch/RIOT/tests/lora_co2_scd30/bin/lora-e5-dev/semtech_loramac_contrib/semtech_loramac.o
                0x0000000020001140                semtech_loramac_pid
 *fill*         0x0000000020001142        0x2 
 .bss.semtech_loramac_primitives
                0x0000000020001144       0x10 /home/ch/RIOT/tests/lora_co2_scd30/bin/lora-e5-dev/semtech_loramac_contrib/semtech_loramac.o
                0x0000000020001144                semtech_loramac_primitives
 .bss.semtech_loramac_radio_events
                0x0000000020001154       0x1c /home/ch/RIOT/tests/lora_co2_scd30/bin/lora-e5-dev/semtech_loramac_contrib/semtech_loramac.o
                0x0000000020001154                semtech_loramac_radio_events
 .bss.AesCmacCtx
                0x0000000020001170       0x38 /home/ch/RIOT/tests/lora_co2_scd30/bin/lora-e5-dev/semtech_loramac_mac/LoRaMacCrypto.o
 .bss.AesContext
                0x00000000200011a8       0x11 /home/ch/RIOT/tests/lora_co2_scd30/bin/lora-e5-dev/semtech_loramac_mac/LoRaMacCrypto.o
 .bss.Mic       0x00000000200011b9       0x10 /home/ch/RIOT/tests/lora_co2_scd30/bin/lora-e5-dev/semtech_loramac_mac/LoRaMacCrypto.o
 .bss.sBlock    0x00000000200011c9       0x10 /home/ch/RIOT/tests/lora_co2_scd30/bin/lora-e5-dev/semtech_loramac_mac/LoRaMacCrypto.o
 .bss.AckTimeoutRetry
                0x00000000200011d9        0x1 /home/ch/RIOT/tests/lora_co2_scd30/bin/lora-e5-dev/semtech_loramac_mac/LoRaMac.o
 *fill*         0x00000000200011da        0x2 
 .bss.AckTimeoutTimer
                0x00000000200011dc       0x24 /home/ch/RIOT/tests/lora_co2_scd30/bin/lora-e5-dev/semtech_loramac_mac/LoRaMac.o
 .bss.AdrAckCounter
                0x0000000020001200        0x4 /home/ch/RIOT/tests/lora_co2_scd30/bin/lora-e5-dev/semtech_loramac_mac/LoRaMac.o
 .bss.AdrCtrlOn
                0x0000000020001204        0x1 /home/ch/RIOT/tests/lora_co2_scd30/bin/lora-e5-dev/semtech_loramac_mac/LoRaMac.o
 *fill*         0x0000000020001205        0x1 
 .bss.AggregatedDCycle
                0x0000000020001206        0x2 /home/ch/RIOT/tests/lora_co2_scd30/bin/lora-e5-dev/semtech_loramac_mac/LoRaMac.o
 .bss.AggregatedLastTxDoneTime
                0x0000000020001208        0x4 /home/ch/RIOT/tests/lora_co2_scd30/bin/lora-e5-dev/semtech_loramac_mac/LoRaMac.o
 .bss.AggregatedTimeOff
                0x000000002000120c        0x4 /home/ch/RIOT/tests/lora_co2_scd30/bin/lora-e5-dev/semtech_loramac_mac/LoRaMac.o
 .bss.Channel   0x0000000020001210        0x1 /home/ch/RIOT/tests/lora_co2_scd30/bin/lora-e5-dev/semtech_loramac_mac/LoRaMac.o
 .bss.ChannelsNbRepCounter
                0x0000000020001211        0x1 /home/ch/RIOT/tests/lora_co2_scd30/bin/lora-e5-dev/semtech_loramac_mac/LoRaMac.o
 *fill*         0x0000000020001212        0x2 
 .bss.DownLinkCounter
                0x0000000020001214        0x4 /home/ch/RIOT/tests/lora_co2_scd30/bin/lora-e5-dev/semtech_loramac_mac/LoRaMac.o
 .bss.DutyCycleOn
                0x0000000020001218        0x1 /home/ch/RIOT/tests/lora_co2_scd30/bin/lora-e5-dev/semtech_loramac_mac/LoRaMac.o
 .bss.IsLoRaMacNetworkJoined
                0x0000000020001219        0x1 /home/ch/RIOT/tests/lora_co2_scd30/bin/lora-e5-dev/semtech_loramac_mac/LoRaMac.o
 .bss.IsUpLinkCounterFixed
                0x000000002000121a        0x1 /home/ch/RIOT/tests/lora_co2_scd30/bin/lora-e5-dev/semtech_loramac_mac/LoRaMac.o
 .bss.LastTxChannel
                0x000000002000121b        0x1 /home/ch/RIOT/tests/lora_co2_scd30/bin/lora-e5-dev/semtech_loramac_mac/LoRaMac.o
 .bss.LastTxIsJoinRequest
                0x000000002000121c        0x1 /home/ch/RIOT/tests/lora_co2_scd30/bin/lora-e5-dev/semtech_loramac_mac/LoRaMac.o
 *fill*         0x000000002000121d        0x3 
 .bss.LoRaMacAppEui
                0x0000000020001220        0x4 /home/ch/RIOT/tests/lora_co2_scd30/bin/lora-e5-dev/semtech_loramac_mac/LoRaMac.o
 .bss.LoRaMacAppKey
                0x0000000020001224        0x4 /home/ch/RIOT/tests/lora_co2_scd30/bin/lora-e5-dev/semtech_loramac_mac/LoRaMac.o
 .bss.LoRaMacAppSKey
                0x0000000020001228       0x10 /home/ch/RIOT/tests/lora_co2_scd30/bin/lora-e5-dev/semtech_loramac_mac/LoRaMac.o
 .bss.LoRaMacBuffer
                0x0000000020001238       0xff /home/ch/RIOT/tests/lora_co2_scd30/bin/lora-e5-dev/semtech_loramac_mac/LoRaMac.o
 *fill*         0x0000000020001337        0x1 
 .bss.LoRaMacBufferPktLen
                0x0000000020001338        0x2 /home/ch/RIOT/tests/lora_co2_scd30/bin/lora-e5-dev/semtech_loramac_mac/LoRaMac.o
 *fill*         0x000000002000133a        0x2 
 .bss.LoRaMacCallbacks
                0x000000002000133c        0x4 /home/ch/RIOT/tests/lora_co2_scd30/bin/lora-e5-dev/semtech_loramac_mac/LoRaMac.o
 .bss.LoRaMacDevAddr
                0x0000000020001340        0x4 /home/ch/RIOT/tests/lora_co2_scd30/bin/lora-e5-dev/semtech_loramac_mac/LoRaMac.o
 .bss.LoRaMacDevEui
                0x0000000020001344        0x4 /home/ch/RIOT/tests/lora_co2_scd30/bin/lora-e5-dev/semtech_loramac_mac/LoRaMac.o
 .bss.LoRaMacDevNonce
                0x0000000020001348        0x2 /home/ch/RIOT/tests/lora_co2_scd30/bin/lora-e5-dev/semtech_loramac_mac/LoRaMac.o
 .bss.LoRaMacDeviceClass
                0x000000002000134a        0x1 /home/ch/RIOT/tests/lora_co2_scd30/bin/lora-e5-dev/semtech_loramac_mac/LoRaMac.o
 .bss.LoRaMacFlags
                0x000000002000134b        0x1 /home/ch/RIOT/tests/lora_co2_scd30/bin/lora-e5-dev/semtech_loramac_mac/LoRaMac.o
                0x000000002000134b                LoRaMacFlags
 .bss.LoRaMacInitializationTime
                0x000000002000134c        0x4 /home/ch/RIOT/tests/lora_co2_scd30/bin/lora-e5-dev/semtech_loramac_mac/LoRaMac.o
 .bss.LoRaMacNetID
                0x0000000020001350        0x4 /home/ch/RIOT/tests/lora_co2_scd30/bin/lora-e5-dev/semtech_loramac_mac/LoRaMac.o
 .bss.LoRaMacNwkSKey
                0x0000000020001354       0x10 /home/ch/RIOT/tests/lora_co2_scd30/bin/lora-e5-dev/semtech_loramac_mac/LoRaMac.o
 .bss.LoRaMacParams
                0x0000000020001364       0x38 /home/ch/RIOT/tests/lora_co2_scd30/bin/lora-e5-dev/semtech_loramac_mac/LoRaMac.o
                0x0000000020001364                LoRaMacParams
 .bss.LoRaMacParamsDefaults
                0x000000002000139c       0x38 /home/ch/RIOT/tests/lora_co2_scd30/bin/lora-e5-dev/semtech_loramac_mac/LoRaMac.o
                0x000000002000139c                LoRaMacParamsDefaults
 .bss.LoRaMacPrimitives
                0x00000000200013d4        0x4 /home/ch/RIOT/tests/lora_co2_scd30/bin/lora-e5-dev/semtech_loramac_mac/LoRaMac.o
 .bss.LoRaMacRegion
                0x00000000200013d8        0x1 /home/ch/RIOT/tests/lora_co2_scd30/bin/lora-e5-dev/semtech_loramac_mac/LoRaMac.o
 .bss.LoRaMacRxPayload
                0x00000000200013d9       0xff /home/ch/RIOT/tests/lora_co2_scd30/bin/lora-e5-dev/semtech_loramac_mac/LoRaMac.o
 .bss.LoRaMacState
                0x00000000200014d8        0x4 /home/ch/RIOT/tests/lora_co2_scd30/bin/lora-e5-dev/semtech_loramac_mac/LoRaMac.o
                0x00000000200014d8                LoRaMacState
 .bss.LoRaMacTxPayloadLen
                0x00000000200014dc        0x1 /home/ch/RIOT/tests/lora_co2_scd30/bin/lora-e5-dev/semtech_loramac_mac/LoRaMac.o
 .bss.MacCommandsBuffer
                0x00000000200014dd       0x80 /home/ch/RIOT/tests/lora_co2_scd30/bin/lora-e5-dev/semtech_loramac_mac/LoRaMac.o
 .bss.MacCommandsBufferIndex
                0x000000002000155d        0x1 /home/ch/RIOT/tests/lora_co2_scd30/bin/lora-e5-dev/semtech_loramac_mac/LoRaMac.o
 .bss.MacCommandsBufferToRepeat
                0x000000002000155e       0x80 /home/ch/RIOT/tests/lora_co2_scd30/bin/lora-e5-dev/semtech_loramac_mac/LoRaMac.o
 .bss.MacCommandsBufferToRepeatIndex
                0x00000000200015de        0x1 /home/ch/RIOT/tests/lora_co2_scd30/bin/lora-e5-dev/semtech_loramac_mac/LoRaMac.o
 .bss.MacCommandsInNextTx
                0x00000000200015df        0x1 /home/ch/RIOT/tests/lora_co2_scd30/bin/lora-e5-dev/semtech_loramac_mac/LoRaMac.o
 .bss.MacStateCheckTimer
                0x00000000200015e0       0x24 /home/ch/RIOT/tests/lora_co2_scd30/bin/lora-e5-dev/semtech_loramac_mac/LoRaMac.o
 .bss.MaxDCycle
                0x0000000020001604        0x1 /home/ch/RIOT/tests/lora_co2_scd30/bin/lora-e5-dev/semtech_loramac_mac/LoRaMac.o
 *fill*         0x0000000020001605        0x3 
 .bss.McpsConfirm
                0x0000000020001608       0x14 /home/ch/RIOT/tests/lora_co2_scd30/bin/lora-e5-dev/semtech_loramac_mac/LoRaMac.o
 .bss.McpsIndication
                0x000000002000161c       0x18 /home/ch/RIOT/tests/lora_co2_scd30/bin/lora-e5-dev/semtech_loramac_mac/LoRaMac.o
 .bss.MlmeConfirm
                0x0000000020001634        0xc /home/ch/RIOT/tests/lora_co2_scd30/bin/lora-e5-dev/semtech_loramac_mac/LoRaMac.o
 .bss.MlmeIndication
                0x0000000020001640        0x1 /home/ch/RIOT/tests/lora_co2_scd30/bin/lora-e5-dev/semtech_loramac_mac/LoRaMac.o
 *fill*         0x0000000020001641        0x3 
 .bss.MulticastChannels
                0x0000000020001644        0x4 /home/ch/RIOT/tests/lora_co2_scd30/bin/lora-e5-dev/semtech_loramac_mac/LoRaMac.o
 .bss.NodeAckRequested
                0x0000000020001648        0x1 /home/ch/RIOT/tests/lora_co2_scd30/bin/lora-e5-dev/semtech_loramac_mac/LoRaMac.o
 .bss.PublicNetwork
                0x0000000020001649        0x1 /home/ch/RIOT/tests/lora_co2_scd30/bin/lora-e5-dev/semtech_loramac_mac/LoRaMac.o
 .bss.RepeaterSupport
                0x000000002000164a        0x1 /home/ch/RIOT/tests/lora_co2_scd30/bin/lora-e5-dev/semtech_loramac_mac/LoRaMac.o
 .bss.RxSlot    0x000000002000164b        0x1 /home/ch/RIOT/tests/lora_co2_scd30/bin/lora-e5-dev/semtech_loramac_mac/LoRaMac.o
 .bss.RxWindow1Config
                0x000000002000164c       0x14 /home/ch/RIOT/tests/lora_co2_scd30/bin/lora-e5-dev/semtech_loramac_mac/LoRaMac.o
 .bss.RxWindow1Delay
                0x0000000020001660        0x4 /home/ch/RIOT/tests/lora_co2_scd30/bin/lora-e5-dev/semtech_loramac_mac/LoRaMac.o
 .bss.RxWindow2Config
                0x0000000020001664       0x14 /home/ch/RIOT/tests/lora_co2_scd30/bin/lora-e5-dev/semtech_loramac_mac/LoRaMac.o
 .bss.RxWindow2Delay
                0x0000000020001678        0x4 /home/ch/RIOT/tests/lora_co2_scd30/bin/lora-e5-dev/semtech_loramac_mac/LoRaMac.o
 .bss.RxWindowTimer1
                0x000000002000167c       0x24 /home/ch/RIOT/tests/lora_co2_scd30/bin/lora-e5-dev/semtech_loramac_mac/LoRaMac.o
 .bss.RxWindowTimer2
                0x00000000200016a0       0x24 /home/ch/RIOT/tests/lora_co2_scd30/bin/lora-e5-dev/semtech_loramac_mac/LoRaMac.o
 .bss.SrvAckRequested
                0x00000000200016c4        0x1 /home/ch/RIOT/tests/lora_co2_scd30/bin/lora-e5-dev/semtech_loramac_mac/LoRaMac.o
 *fill*         0x00000000200016c5        0x3 
 .bss.TxDelayedTimer
                0x00000000200016c8       0x24 /home/ch/RIOT/tests/lora_co2_scd30/bin/lora-e5-dev/semtech_loramac_mac/LoRaMac.o
 .bss.TxTimeOnAir
                0x00000000200016ec        0x4 /home/ch/RIOT/tests/lora_co2_scd30/bin/lora-e5-dev/semtech_loramac_mac/LoRaMac.o
                0x00000000200016ec                TxTimeOnAir
 .bss.UpLinkCounter
                0x00000000200016f0        0x4 /home/ch/RIOT/tests/lora_co2_scd30/bin/lora-e5-dev/semtech_loramac_mac/LoRaMac.o
 .bss.Channels  0x00000000200016f4       0xc0 /home/ch/RIOT/tests/lora_co2_scd30/bin/lora-e5-dev/semtech_loramac_mac_region/RegionEU868.o
 .bss.ChannelsDefaultMask
                0x00000000200017b4        0x2 /home/ch/RIOT/tests/lora_co2_scd30/bin/lora-e5-dev/semtech_loramac_mac_region/RegionEU868.o
 .bss.ChannelsMask
                0x00000000200017b6        0x2 /home/ch/RIOT/tests/lora_co2_scd30/bin/lora-e5-dev/semtech_loramac_mac_region/RegionEU868.o
 .bss._dev      0x00000000200017b8        0x4 /home/ch/RIOT/tests/lora_co2_scd30/bin/lora-e5-dev/sx126x/sx126x_netdev.o
 .bss._in_handler
                0x00000000200017bc        0x4 /home/ch/RIOT/tests/lora_co2_scd30/bin/lora-e5-dev/xtimer/xtimer_core.o
 .bss._lltimer_ongoing
                0x00000000200017c0        0x1 /home/ch/RIOT/tests/lora_co2_scd30/bin/lora-e5-dev/xtimer/xtimer_core.o
 *fill*         0x00000000200017c1        0x7 
 .bss._xtimer_current_time
                0x00000000200017c8        0x8 /home/ch/RIOT/tests/lora_co2_scd30/bin/lora-e5-dev/xtimer/xtimer_core.o
                0x00000000200017c8                _xtimer_current_time
 .bss.long_list_head
                0x00000000200017d0        0x4 /home/ch/RIOT/tests/lora_co2_scd30/bin/lora-e5-dev/xtimer/xtimer_core.o
 .bss.timer_list_head
                0x00000000200017d4        0x4 /home/ch/RIOT/tests/lora_co2_scd30/bin/lora-e5-dev/xtimer/xtimer_core.o
 .bss._ztimer_convert_frac_msec
                0x00000000200017d8       0x4c /home/ch/RIOT/tests/lora_co2_scd30/bin/lora-e5-dev/ztimer_core/init.o
 .bss._ztimer_periph_timer_rtt
                0x0000000020001824       0x24 /home/ch/RIOT/tests/lora_co2_scd30/bin/lora-e5-dev/ztimer_core/init.o
 .bss           0x0000000020001848        0x8 /usr/lib/gcc/arm-none-eabi/9.2.1/../../../arm-none-eabi/lib/thumb/v7e-m/nofp/libc_nano.a(lib_a-nano-mallocr.o)
                0x0000000020001848                __malloc_free_list
                0x000000002000184c                __malloc_sbrk_start
 *(COMMON)
                0x0000000020001850                . = ALIGN (0x4)
                0x0000000020001850                _ebss = .
                0x0000000020001850                _ezero = .

.noinit         0x0000000020001850        0x0 load address 0x000000000800e700
                0x0000000020001850                __noinit_start = .
 *(.noinit)
                0x0000000020001850                . = ALIGN (0x4)
                0x0000000020001850                __noinit_end = .
                0x0000000020001850                . = ALIGN (0x4)
                0x0000000020001850                _sheap = .
                0x0000000020010000                _eheap = (ORIGIN (ram) + LENGTH (ram))
                0x0000000020000000                _sram = ORIGIN (ram)
                0x0000000020010000                _eram = (ORIGIN (ram) + LENGTH (ram))
                0x0000000008000000                _srom = ORIGIN (rom)
                0x0000000008040000                _erom = (ORIGIN (rom) + LENGTH (rom))
                0x000000000800e700                _sbackup_data_load = LOADADDR (.backup.data)

.backup.data    0x0000000000000000        0x0 load address 0x000000000800e700
                0x0000000000000000                _sbackup_data = .
 *(.backup.data)
                0x0000000000000000                _ebackup_data = .
                0x0000000000000000                . = ALIGN (0x4)

.backup.bss     0x0000000000000000        0x0 load address 0x000000000800e700
                0x0000000000000000                _sbackup_bss = .
 *(.backup.bss)
                0x0000000000000000                _ebackup_bss = .
                0x0000000000000000                . = ALIGN (0x4)

.heap3          0x0000000000000000        0x0 load address 0x000000000800e700
                0x0000000000000000                _sheap1 = .
                0x0000000000000000                _eheap1 = (ORIGIN (bkup_ram) + LENGTH (bkup_ram))

.end_fw         0x000000000800e700        0x0
                0x000000000800e700                _end_fw = .
OUTPUT(/home/ch/RIOT/tests/lora_co2_scd30/bin/lora-e5-dev/lora_co2_scd30.elf elf32-littlearm)
LOAD linker stubs

.debug_info     0x0000000000000000    0x97759
 .debug_info    0x0000000000000000     0x2ba3 /home/ch/RIOT/tests/lora_co2_scd30/bin/lora-e5-dev/application_lora_co2_scd30/main.o
 .debug_info    0x0000000000002ba3      0xd71 /home/ch/RIOT/tests/lora_co2_scd30/bin/lora-e5-dev/auto_init/auto_init.o
 .debug_info    0x0000000000003914     0x213d /home/ch/RIOT/tests/lora_co2_scd30/bin/lora-e5-dev/board/board.o
 .debug_info    0x0000000000005a51     0x107d /home/ch/RIOT/tests/lora_co2_scd30/bin/lora-e5-dev/cayenne-lpp/cayenne_lpp.o
 .debug_info    0x0000000000006ace      0x158 /home/ch/RIOT/tests/lora_co2_scd30/bin/lora-e5-dev/checksum/crc8.o
 .debug_info    0x0000000000006c26      0xe90 /home/ch/RIOT/tests/lora_co2_scd30/bin/lora-e5-dev/core/init.o
 .debug_info    0x0000000000007ab6     0x2860 /home/ch/RIOT/tests/lora_co2_scd30/bin/lora-e5-dev/core/msg.o
 .debug_info    0x000000000000a316     0x1b99 /home/ch/RIOT/tests/lora_co2_scd30/bin/lora-e5-dev/core/mutex.o
 .debug_info    0x000000000000beaf      0xf0b /home/ch/RIOT/tests/lora_co2_scd30/bin/lora-e5-dev/core/panic.o
 .debug_info    0x000000000000cdba     0x14b1 /home/ch/RIOT/tests/lora_co2_scd30/bin/lora-e5-dev/core/sched.o
 .debug_info    0x000000000000e26b     0x1e7a /home/ch/RIOT/tests/lora_co2_scd30/bin/lora-e5-dev/core/thread.o
 .debug_info    0x00000000000100e5     0x1386 /home/ch/RIOT/tests/lora_co2_scd30/bin/lora-e5-dev/cortexm_common/cortexm_init.o
 .debug_info    0x000000000001146b      0xd6b /home/ch/RIOT/tests/lora_co2_scd30/bin/lora-e5-dev/cortexm_common/panic.o
 .debug_info    0x00000000000121d6     0x12a1 /home/ch/RIOT/tests/lora_co2_scd30/bin/lora-e5-dev/cortexm_common/thread_arch.o
 .debug_info    0x0000000000013477     0x201c /home/ch/RIOT/tests/lora_co2_scd30/bin/lora-e5-dev/cortexm_common/vectors_cortexm.o
 .debug_info    0x0000000000015493     0x18d9 /home/ch/RIOT/tests/lora_co2_scd30/bin/lora-e5-dev/cpu/cpu_common.o
 .debug_info    0x0000000000016d6c     0x1636 /home/ch/RIOT/tests/lora_co2_scd30/bin/lora-e5-dev/cpu/cpu_init.o
 .debug_info    0x00000000000183a2     0x110a /home/ch/RIOT/tests/lora_co2_scd30/bin/lora-e5-dev/crypto/aes.o
 .debug_info    0x00000000000194ac      0xa2f /home/ch/RIOT/tests/lora_co2_scd30/bin/lora-e5-dev/div/div.o
 .debug_info    0x0000000000019edb     0x2fc0 /home/ch/RIOT/tests/lora_co2_scd30/bin/lora-e5-dev/driver_sx126x_hal/driver_sx126x_hal.o
 .debug_info    0x000000000001ce9b     0x42cb /home/ch/RIOT/tests/lora_co2_scd30/bin/lora-e5-dev/driver_sx126x/sx126x.o
 .debug_info    0x0000000000021166     0x20a0 /home/ch/RIOT/tests/lora_co2_scd30/bin/lora-e5-dev/fmt/fmt.o
 .debug_info    0x0000000000023206      0xf73 /home/ch/RIOT/tests/lora_co2_scd30/bin/lora-e5-dev/frac/frac.o
 .debug_info    0x0000000000024179     0x1a7b /home/ch/RIOT/tests/lora_co2_scd30/bin/lora-e5-dev/luid/luid.o
 .debug_info    0x0000000000025bf4     0x10e0 /home/ch/RIOT/tests/lora_co2_scd30/bin/lora-e5-dev/malloc_thread_safe/malloc_wrappers.o
 .debug_info    0x0000000000026cd4     0x271d /home/ch/RIOT/tests/lora_co2_scd30/bin/lora-e5-dev/newlib_syscalls_default/syscalls.o
 .debug_info    0x00000000000293f1      0xcd1 /home/ch/RIOT/tests/lora_co2_scd30/bin/lora-e5-dev/periph_common/cpuid.o
 .debug_info    0x000000000002a0c2     0x15cf /home/ch/RIOT/tests/lora_co2_scd30/bin/lora-e5-dev/periph_common/init.o
 .debug_info    0x000000000002b691     0x16d4 /home/ch/RIOT/tests/lora_co2_scd30/bin/lora-e5-dev/periph_common/timer.o
 .debug_info    0x000000000002cd65     0x26f7 /home/ch/RIOT/tests/lora_co2_scd30/bin/lora-e5-dev/periph/gpio_all.o
 .debug_info    0x000000000002f45c     0x28a1 /home/ch/RIOT/tests/lora_co2_scd30/bin/lora-e5-dev/periph/i2c_1.o
 .debug_info    0x0000000000031cfd     0x11a8 /home/ch/RIOT/tests/lora_co2_scd30/bin/lora-e5-dev/periph/pm.o
 .debug_info    0x0000000000032ea5     0x2346 /home/ch/RIOT/tests/lora_co2_scd30/bin/lora-e5-dev/periph/rtt_all.o
 .debug_info    0x00000000000351eb     0x1fbc /home/ch/RIOT/tests/lora_co2_scd30/bin/lora-e5-dev/periph/spi.o
 .debug_info    0x00000000000371a7     0x1ec4 /home/ch/RIOT/tests/lora_co2_scd30/bin/lora-e5-dev/periph/timer.o
 .debug_info    0x000000000003906b     0x2236 /home/ch/RIOT/tests/lora_co2_scd30/bin/lora-e5-dev/periph/uart.o
 .debug_info    0x000000000003b2a1     0x11b7 /home/ch/RIOT/tests/lora_co2_scd30/bin/lora-e5-dev/pm_layered/pm.o
 .debug_info    0x000000000003c458       0xd5 /home/ch/RIOT/tests/lora_co2_scd30/bin/lora-e5-dev/random/musl_lcg.o
 .debug_info    0x000000000003c52d      0xeb6 /home/ch/RIOT/tests/lora_co2_scd30/bin/lora-e5-dev/random/random.o
 .debug_info    0x000000000003d3e3     0x2911 /home/ch/RIOT/tests/lora_co2_scd30/bin/lora-e5-dev/scd30/scd30.o
 .debug_info    0x000000000003fcf4      0xb93 /home/ch/RIOT/tests/lora_co2_scd30/bin/lora-e5-dev/semtech_loramac_arch/utilities.o
 .debug_info    0x0000000000040887     0x30a0 /home/ch/RIOT/tests/lora_co2_scd30/bin/lora-e5-dev/semtech_loramac_contrib/semtech_loramac_getset.o
 .debug_info    0x0000000000043927     0x388e /home/ch/RIOT/tests/lora_co2_scd30/bin/lora-e5-dev/semtech_loramac_contrib/semtech_loramac.o
 .debug_info    0x00000000000471b5     0x3682 /home/ch/RIOT/tests/lora_co2_scd30/bin/lora-e5-dev/semtech_loramac_contrib/semtech_loramac_radio.o
 .debug_info    0x000000000004a837     0x12df /home/ch/RIOT/tests/lora_co2_scd30/bin/lora-e5-dev/semtech_loramac_contrib/semtech_loramac_timer.o
 .debug_info    0x000000000004bb16      0xe83 /home/ch/RIOT/tests/lora_co2_scd30/bin/lora-e5-dev/semtech_loramac_crypto/cmac.o
 .debug_info    0x000000000004c999     0x1208 /home/ch/RIOT/tests/lora_co2_scd30/bin/lora-e5-dev/semtech_loramac_mac/LoRaMacCrypto.o
 .debug_info    0x000000000004dba1     0x55b0 /home/ch/RIOT/tests/lora_co2_scd30/bin/lora-e5-dev/semtech_loramac_mac/LoRaMac.o
 .debug_info    0x0000000000053151     0x1feb /home/ch/RIOT/tests/lora_co2_scd30/bin/lora-e5-dev/semtech_loramac_mac_region/RegionCommon.o
 .debug_info    0x000000000005513c     0x32a4 /home/ch/RIOT/tests/lora_co2_scd30/bin/lora-e5-dev/semtech_loramac_mac_region/RegionEU868.o
 .debug_info    0x00000000000583e0     0x28f4 /home/ch/RIOT/tests/lora_co2_scd30/bin/lora-e5-dev/semtech_loramac_mac_region/Region.o
 .debug_info    0x000000000005acd4     0x16c6 /home/ch/RIOT/tests/lora_co2_scd30/bin/lora-e5-dev/stdio_uart/stdio_uart.o
 .debug_info    0x000000000005c39a     0x195f /home/ch/RIOT/tests/lora_co2_scd30/bin/lora-e5-dev/stm32_clk/stmclk_common.o
 .debug_info    0x000000000005dcf9     0x19ee /home/ch/RIOT/tests/lora_co2_scd30/bin/lora-e5-dev/stm32_clk/stmclk_l4wx.o
 .debug_info    0x000000000005f6e7      0x2a0 /home/ch/RIOT/tests/lora_co2_scd30/bin/lora-e5-dev/stm32_vectors/STM32WLE5xx.o
 .debug_info    0x000000000005f987     0x341e /home/ch/RIOT/tests/lora_co2_scd30/bin/lora-e5-dev/sx126x/sx126x_netdev.o
 .debug_info    0x0000000000062da5     0x2bef /home/ch/RIOT/tests/lora_co2_scd30/bin/lora-e5-dev/sx126x/sx126x.o
 .debug_info    0x0000000000065994     0x2338 /home/ch/RIOT/tests/lora_co2_scd30/bin/lora-e5-dev/xtimer/xtimer_core.o
 .debug_info    0x0000000000067ccc     0x2d13 /home/ch/RIOT/tests/lora_co2_scd30/bin/lora-e5-dev/xtimer/xtimer.o
 .debug_info    0x000000000006a9df     0x13cf /home/ch/RIOT/tests/lora_co2_scd30/bin/lora-e5-dev/ztimer_core/convert_frac.o
 .debug_info    0x000000000006bdae      0xfc6 /home/ch/RIOT/tests/lora_co2_scd30/bin/lora-e5-dev/ztimer_core/convert.o
 .debug_info    0x000000000006cd74     0x1db7 /home/ch/RIOT/tests/lora_co2_scd30/bin/lora-e5-dev/ztimer_core/core.o
 .debug_info    0x000000000006eb2b     0x19e1 /home/ch/RIOT/tests/lora_co2_scd30/bin/lora-e5-dev/ztimer_core/init.o
 .debug_info    0x000000000007050c     0x19d2 /home/ch/RIOT/tests/lora_co2_scd30/bin/lora-e5-dev/ztimer_core/periph_rtt.o
 .debug_info    0x0000000000071ede     0x1a33 /home/ch/RIOT/tests/lora_co2_scd30/bin/lora-e5-dev/ztimer_core/periph_timer.o
 .debug_info    0x0000000000073911     0x1c80 /home/ch/RIOT/tests/lora_co2_scd30/bin/lora-e5-dev/ztimer_core/util.o
 .debug_info    0x0000000000075591      0xa8a /usr/lib/gcc/arm-none-eabi/9.2.1/../../../arm-none-eabi/lib/thumb/v7e-m/nofp/libm.a(lib_a-s_ceil.o)
 .debug_info    0x000000000007601b      0xa8a /usr/lib/gcc/arm-none-eabi/9.2.1/../../../arm-none-eabi/lib/thumb/v7e-m/nofp/libm.a(lib_a-s_floor.o)
 .debug_info    0x0000000000076aa5       0x26 /usr/lib/gcc/arm-none-eabi/9.2.1/thumb/v7e-m/nofp/libgcc.a(_arm_mulsf3.o)
 .debug_info    0x0000000000076acb       0x26 /usr/lib/gcc/arm-none-eabi/9.2.1/thumb/v7e-m/nofp/libgcc.a(_arm_addsubdf3.o)
 .debug_info    0x0000000000076af1       0x26 /usr/lib/gcc/arm-none-eabi/9.2.1/thumb/v7e-m/nofp/libgcc.a(_arm_muldivdf3.o)
 .debug_info    0x0000000000076b17       0x26 /usr/lib/gcc/arm-none-eabi/9.2.1/thumb/v7e-m/nofp/libgcc.a(_arm_cmpdf2.o)
 .debug_info    0x0000000000076b3d       0x26 /usr/lib/gcc/arm-none-eabi/9.2.1/thumb/v7e-m/nofp/libgcc.a(_arm_fixdfsi.o)
 .debug_info    0x0000000000076b63       0x26 /usr/lib/gcc/arm-none-eabi/9.2.1/thumb/v7e-m/nofp/libgcc.a(_arm_fixunsdfsi.o)
 .debug_info    0x0000000000076b89       0x26 /usr/lib/gcc/arm-none-eabi/9.2.1/thumb/v7e-m/nofp/libgcc.a(_arm_addsubsf3.o)
 .debug_info    0x0000000000076baf       0x26 /usr/lib/gcc/arm-none-eabi/9.2.1/thumb/v7e-m/nofp/libgcc.a(_arm_fixsfsi.o)
 .debug_info    0x0000000000076bd5      0x92a /usr/lib/gcc/arm-none-eabi/9.2.1/../../../arm-none-eabi/lib/thumb/v7e-m/nofp/libc_nano.a(lib_a-impure.o)
 .debug_info    0x00000000000774ff      0x11a /usr/lib/gcc/arm-none-eabi/9.2.1/../../../arm-none-eabi/lib/thumb/v7e-m/nofp/libc_nano.a(lib_a-init.o)
 .debug_info    0x0000000000077619      0x9b6 /usr/lib/gcc/arm-none-eabi/9.2.1/../../../arm-none-eabi/lib/thumb/v7e-m/nofp/libc_nano.a(lib_a-malloc.o)
 .debug_info    0x0000000000077fcf       0x26 /usr/lib/gcc/arm-none-eabi/9.2.1/../../../arm-none-eabi/lib/thumb/v7e-m/nofp/libc_nano.a(lib_a-memcpy.o)
 .debug_info    0x0000000000077ff5      0xf2b /usr/lib/gcc/arm-none-eabi/9.2.1/../../../arm-none-eabi/lib/thumb/v7e-m/nofp/libc_nano.a(lib_a-memmove.o)
 .debug_info    0x0000000000078f20      0xf21 /usr/lib/gcc/arm-none-eabi/9.2.1/../../../arm-none-eabi/lib/thumb/v7e-m/nofp/libc_nano.a(lib_a-memset.o)
 .debug_info    0x0000000000079e41      0xb85 /usr/lib/gcc/arm-none-eabi/9.2.1/../../../arm-none-eabi/lib/thumb/v7e-m/nofp/libc_nano.a(lib_a-nano-freer.o)
 .debug_info    0x000000000007a9c6      0xc5a /usr/lib/gcc/arm-none-eabi/9.2.1/../../../arm-none-eabi/lib/thumb/v7e-m/nofp/libc_nano.a(lib_a-nano-mallocr.o)
 .debug_info    0x000000000007b620     0x1adb /usr/lib/gcc/arm-none-eabi/9.2.1/../../../arm-none-eabi/lib/thumb/v7e-m/nofp/libc_nano.a(lib_a-nano-vfprintf_float.o)
 .debug_info    0x000000000007d0fb     0x1592 /usr/lib/gcc/arm-none-eabi/9.2.1/../../../arm-none-eabi/lib/thumb/v7e-m/nofp/libc_nano.a(lib_a-nano-vfprintf_i.o)
 .debug_info    0x000000000007e68d      0xc67 /usr/lib/gcc/arm-none-eabi/9.2.1/../../../arm-none-eabi/lib/thumb/v7e-m/nofp/libc_nano.a(lib_a-printf.o)
 .debug_info    0x000000000007f2f4      0xd13 /usr/lib/gcc/arm-none-eabi/9.2.1/../../../arm-none-eabi/lib/thumb/v7e-m/nofp/libc_nano.a(lib_a-puts.o)
 .debug_info    0x0000000000080007       0x26 /usr/lib/gcc/arm-none-eabi/9.2.1/../../../arm-none-eabi/lib/thumb/v7e-m/nofp/libc_nano.a(lib_a-strlen.o)
 .debug_info    0x000000000008002d      0x9f9 /usr/lib/gcc/arm-none-eabi/9.2.1/../../../arm-none-eabi/lib/thumb/v7e-m/nofp/libc_nano.a(lib_a-time.o)
 .debug_info    0x0000000000080a26      0xc90 /usr/lib/gcc/arm-none-eabi/9.2.1/../../../arm-none-eabi/lib/thumb/v7e-m/nofp/libc_nano.a(lib_a-wbuf.o)
 .debug_info    0x00000000000816b6      0xbfa /usr/lib/gcc/arm-none-eabi/9.2.1/../../../arm-none-eabi/lib/thumb/v7e-m/nofp/libc_nano.a(lib_a-wsetup.o)
 .debug_info    0x00000000000822b0     0x1b3c /usr/lib/gcc/arm-none-eabi/9.2.1/../../../arm-none-eabi/lib/thumb/v7e-m/nofp/libc_nano.a(lib_a-dtoa.o)
 .debug_info    0x0000000000083dec      0xd73 /usr/lib/gcc/arm-none-eabi/9.2.1/../../../arm-none-eabi/lib/thumb/v7e-m/nofp/libc_nano.a(lib_a-fflush.o)
 .debug_info    0x0000000000084b5f     0x11a8 /usr/lib/gcc/arm-none-eabi/9.2.1/../../../arm-none-eabi/lib/thumb/v7e-m/nofp/libc_nano.a(lib_a-findfp.o)
 .debug_info    0x0000000000085d07      0xa7a /usr/lib/gcc/arm-none-eabi/9.2.1/../../../arm-none-eabi/lib/thumb/v7e-m/nofp/libc_nano.a(lib_a-fprintf.o)
 .debug_info    0x0000000000086781      0xca4 /usr/lib/gcc/arm-none-eabi/9.2.1/../../../arm-none-eabi/lib/thumb/v7e-m/nofp/libc_nano.a(lib_a-fwalk.o)
 .debug_info    0x0000000000087425      0xf49 /usr/lib/gcc/arm-none-eabi/9.2.1/../../../arm-none-eabi/lib/thumb/v7e-m/nofp/libc_nano.a(lib_a-localeconv.o)
 .debug_info    0x000000000008836e      0xf68 /usr/lib/gcc/arm-none-eabi/9.2.1/../../../arm-none-eabi/lib/thumb/v7e-m/nofp/libc_nano.a(lib_a-makebuf.o)
 .debug_info    0x00000000000892d6       0x26 /usr/lib/gcc/arm-none-eabi/9.2.1/../../../arm-none-eabi/lib/thumb/v7e-m/nofp/libc_nano.a(lib_a-memchr.o)
 .debug_info    0x00000000000892fc      0x961 /usr/lib/gcc/arm-none-eabi/9.2.1/../../../arm-none-eabi/lib/thumb/v7e-m/nofp/libc_nano.a(lib_a-mlock.o)
 .debug_info    0x0000000000089c5d     0x240f /usr/lib/gcc/arm-none-eabi/9.2.1/../../../arm-none-eabi/lib/thumb/v7e-m/nofp/libc_nano.a(lib_a-mprec.o)
 .debug_info    0x000000000008c06c      0xafe /usr/lib/gcc/arm-none-eabi/9.2.1/../../../arm-none-eabi/lib/thumb/v7e-m/nofp/libc_nano.a(lib_a-nano-callocr.o)
 .debug_info    0x000000000008cb6a      0xb77 /usr/lib/gcc/arm-none-eabi/9.2.1/../../../arm-none-eabi/lib/thumb/v7e-m/nofp/libc_nano.a(lib_a-nano-reallocr.o)
 .debug_info    0x000000000008d6e1     0x176a /usr/lib/gcc/arm-none-eabi/9.2.1/../../../arm-none-eabi/lib/thumb/v7e-m/nofp/libc_nano.a(lib_a-nano-vfprintf.o)
 .debug_info    0x000000000008ee4b      0xe67 /usr/lib/gcc/arm-none-eabi/9.2.1/../../../arm-none-eabi/lib/thumb/v7e-m/nofp/libc_nano.a(lib_a-stdio.o)
 .debug_info    0x000000000008fcb2      0xa41 /usr/lib/gcc/arm-none-eabi/9.2.1/../../../arm-none-eabi/lib/thumb/v7e-m/nofp/libc_nano.a(lib_a-assert.o)
 .debug_info    0x00000000000906f3      0xeed /usr/lib/gcc/arm-none-eabi/9.2.1/../../../arm-none-eabi/lib/thumb/v7e-m/nofp/libc_nano.a(lib_a-fvwrite.o)
 .debug_info    0x00000000000915e0     0x10ca /usr/lib/gcc/arm-none-eabi/9.2.1/../../../arm-none-eabi/lib/thumb/v7e-m/nofp/libc_nano.a(lib_a-locale.o)
 .debug_info    0x00000000000926aa     0x1044 /usr/lib/gcc/arm-none-eabi/9.2.1/../../../arm-none-eabi/lib/thumb/v7e-m/nofp/libc_nano.a(lib_a-mbtowc_r.o)
 .debug_info    0x00000000000936ee      0xaa6 /usr/lib/gcc/arm-none-eabi/9.2.1/../../../arm-none-eabi/lib/thumb/v7e-m/nofp/libc_nano.a(lib_a-nano-msizer.o)
 .debug_info    0x0000000000094194      0xffd /usr/lib/gcc/arm-none-eabi/9.2.1/../../../arm-none-eabi/lib/thumb/v7e-m/nofp/libc_nano.a(lib_a-wctomb_r.o)
 .debug_info    0x0000000000095191      0x9b5 /usr/lib/gcc/arm-none-eabi/9.2.1/../../../arm-none-eabi/lib/thumb/v7e-m/nofp/libc_nano.a(lib_a-abort.o)
 .debug_info    0x0000000000095b46      0xe91 /usr/lib/gcc/arm-none-eabi/9.2.1/../../../arm-none-eabi/lib/thumb/v7e-m/nofp/libc_nano.a(lib_a-ctype_.o)
 .debug_info    0x00000000000969d7      0xd5c /usr/lib/gcc/arm-none-eabi/9.2.1/../../../arm-none-eabi/lib/thumb/v7e-m/nofp/libc_nano.a(lib_a-signal.o)
 .debug_info    0x0000000000097733       0x26 /usr/lib/gcc/arm-none-eabi/9.2.1/thumb/v7e-m/nofp/libgcc.a(_arm_unorddf2.o)

.debug_abbrev   0x0000000000000000    0x15f17
 .debug_abbrev  0x0000000000000000      0x3ee /home/ch/RIOT/tests/lora_co2_scd30/bin/lora-e5-dev/application_lora_co2_scd30/main.o
 .debug_abbrev  0x00000000000003ee      0x245 /home/ch/RIOT/tests/lora_co2_scd30/bin/lora-e5-dev/auto_init/auto_init.o
 .debug_abbrev  0x0000000000000633      0x32d /home/ch/RIOT/tests/lora_co2_scd30/bin/lora-e5-dev/board/board.o
 .debug_abbrev  0x0000000000000960      0x239 /home/ch/RIOT/tests/lora_co2_scd30/bin/lora-e5-dev/cayenne-lpp/cayenne_lpp.o
 .debug_abbrev  0x0000000000000b99       0xc7 /home/ch/RIOT/tests/lora_co2_scd30/bin/lora-e5-dev/checksum/crc8.o
 .debug_abbrev  0x0000000000000c60      0x32c /home/ch/RIOT/tests/lora_co2_scd30/bin/lora-e5-dev/core/init.o
 .debug_abbrev  0x0000000000000f8c      0x58a /home/ch/RIOT/tests/lora_co2_scd30/bin/lora-e5-dev/core/msg.o
 .debug_abbrev  0x0000000000001516      0x40d /home/ch/RIOT/tests/lora_co2_scd30/bin/lora-e5-dev/core/mutex.o
 .debug_abbrev  0x0000000000001923      0x364 /home/ch/RIOT/tests/lora_co2_scd30/bin/lora-e5-dev/core/panic.o
 .debug_abbrev  0x0000000000001c87      0x4d7 /home/ch/RIOT/tests/lora_co2_scd30/bin/lora-e5-dev/core/sched.o
 .debug_abbrev  0x000000000000215e      0x532 /home/ch/RIOT/tests/lora_co2_scd30/bin/lora-e5-dev/core/thread.o
 .debug_abbrev  0x0000000000002690      0x3b5 /home/ch/RIOT/tests/lora_co2_scd30/bin/lora-e5-dev/cortexm_common/cortexm_init.o
 .debug_abbrev  0x0000000000002a45      0x2fe /home/ch/RIOT/tests/lora_co2_scd30/bin/lora-e5-dev/cortexm_common/panic.o
 .debug_abbrev  0x0000000000002d43      0x48e /home/ch/RIOT/tests/lora_co2_scd30/bin/lora-e5-dev/cortexm_common/thread_arch.o
 .debug_abbrev  0x00000000000031d1      0x4a6 /home/ch/RIOT/tests/lora_co2_scd30/bin/lora-e5-dev/cortexm_common/vectors_cortexm.o
 .debug_abbrev  0x0000000000003677      0x37d /home/ch/RIOT/tests/lora_co2_scd30/bin/lora-e5-dev/cpu/cpu_common.o
 .debug_abbrev  0x00000000000039f4      0x2ee /home/ch/RIOT/tests/lora_co2_scd30/bin/lora-e5-dev/cpu/cpu_init.o
 .debug_abbrev  0x0000000000003ce2      0x333 /home/ch/RIOT/tests/lora_co2_scd30/bin/lora-e5-dev/crypto/aes.o
 .debug_abbrev  0x0000000000004015      0x1d2 /home/ch/RIOT/tests/lora_co2_scd30/bin/lora-e5-dev/div/div.o
 .debug_abbrev  0x00000000000041e7      0x420 /home/ch/RIOT/tests/lora_co2_scd30/bin/lora-e5-dev/driver_sx126x_hal/driver_sx126x_hal.o
 .debug_abbrev  0x0000000000004607      0x40f /home/ch/RIOT/tests/lora_co2_scd30/bin/lora-e5-dev/driver_sx126x/sx126x.o
 .debug_abbrev  0x0000000000004a16      0x50b /home/ch/RIOT/tests/lora_co2_scd30/bin/lora-e5-dev/fmt/fmt.o
 .debug_abbrev  0x0000000000004f21      0x327 /home/ch/RIOT/tests/lora_co2_scd30/bin/lora-e5-dev/frac/frac.o
 .debug_abbrev  0x0000000000005248      0x399 /home/ch/RIOT/tests/lora_co2_scd30/bin/lora-e5-dev/luid/luid.o
 .debug_abbrev  0x00000000000055e1      0x3f1 /home/ch/RIOT/tests/lora_co2_scd30/bin/lora-e5-dev/malloc_thread_safe/malloc_wrappers.o
 .debug_abbrev  0x00000000000059d2      0x58f /home/ch/RIOT/tests/lora_co2_scd30/bin/lora-e5-dev/newlib_syscalls_default/syscalls.o
 .debug_abbrev  0x0000000000005f61      0x2ad /home/ch/RIOT/tests/lora_co2_scd30/bin/lora-e5-dev/periph_common/cpuid.o
 .debug_abbrev  0x000000000000620e      0x2f9 /home/ch/RIOT/tests/lora_co2_scd30/bin/lora-e5-dev/periph_common/init.o
 .debug_abbrev  0x0000000000006507      0x3a8 /home/ch/RIOT/tests/lora_co2_scd30/bin/lora-e5-dev/periph_common/timer.o
 .debug_abbrev  0x00000000000068af      0x502 /home/ch/RIOT/tests/lora_co2_scd30/bin/lora-e5-dev/periph/gpio_all.o
 .debug_abbrev  0x0000000000006db1      0x596 /home/ch/RIOT/tests/lora_co2_scd30/bin/lora-e5-dev/periph/i2c_1.o
 .debug_abbrev  0x0000000000007347      0x3cc /home/ch/RIOT/tests/lora_co2_scd30/bin/lora-e5-dev/periph/pm.o
 .debug_abbrev  0x0000000000007713      0x4a1 /home/ch/RIOT/tests/lora_co2_scd30/bin/lora-e5-dev/periph/rtt_all.o
 .debug_abbrev  0x0000000000007bb4      0x4e9 /home/ch/RIOT/tests/lora_co2_scd30/bin/lora-e5-dev/periph/spi.o
 .debug_abbrev  0x000000000000809d      0x47e /home/ch/RIOT/tests/lora_co2_scd30/bin/lora-e5-dev/periph/timer.o
 .debug_abbrev  0x000000000000851b      0x52b /home/ch/RIOT/tests/lora_co2_scd30/bin/lora-e5-dev/periph/uart.o
 .debug_abbrev  0x0000000000008a46      0x3a1 /home/ch/RIOT/tests/lora_co2_scd30/bin/lora-e5-dev/pm_layered/pm.o
 .debug_abbrev  0x0000000000008de7       0x97 /home/ch/RIOT/tests/lora_co2_scd30/bin/lora-e5-dev/random/musl_lcg.o
 .debug_abbrev  0x0000000000008e7e      0x2c9 /home/ch/RIOT/tests/lora_co2_scd30/bin/lora-e5-dev/random/random.o
 .debug_abbrev  0x0000000000009147      0x523 /home/ch/RIOT/tests/lora_co2_scd30/bin/lora-e5-dev/scd30/scd30.o
 .debug_abbrev  0x000000000000966a      0x257 /home/ch/RIOT/tests/lora_co2_scd30/bin/lora-e5-dev/semtech_loramac_arch/utilities.o
 .debug_abbrev  0x00000000000098c1      0x4eb /home/ch/RIOT/tests/lora_co2_scd30/bin/lora-e5-dev/semtech_loramac_contrib/semtech_loramac_getset.o
 .debug_abbrev  0x0000000000009dac      0x62c /home/ch/RIOT/tests/lora_co2_scd30/bin/lora-e5-dev/semtech_loramac_contrib/semtech_loramac.o
 .debug_abbrev  0x000000000000a3d8      0x5d3 /home/ch/RIOT/tests/lora_co2_scd30/bin/lora-e5-dev/semtech_loramac_contrib/semtech_loramac_radio.o
 .debug_abbrev  0x000000000000a9ab      0x3be /home/ch/RIOT/tests/lora_co2_scd30/bin/lora-e5-dev/semtech_loramac_contrib/semtech_loramac_timer.o
 .debug_abbrev  0x000000000000ad69      0x264 /home/ch/RIOT/tests/lora_co2_scd30/bin/lora-e5-dev/semtech_loramac_crypto/cmac.o
 .debug_abbrev  0x000000000000afcd      0x252 /home/ch/RIOT/tests/lora_co2_scd30/bin/lora-e5-dev/semtech_loramac_mac/LoRaMacCrypto.o
 .debug_abbrev  0x000000000000b21f      0x66d /home/ch/RIOT/tests/lora_co2_scd30/bin/lora-e5-dev/semtech_loramac_mac/LoRaMac.o
 .debug_abbrev  0x000000000000b88c      0x50d /home/ch/RIOT/tests/lora_co2_scd30/bin/lora-e5-dev/semtech_loramac_mac_region/RegionCommon.o
 .debug_abbrev  0x000000000000bd99      0x54c /home/ch/RIOT/tests/lora_co2_scd30/bin/lora-e5-dev/semtech_loramac_mac_region/RegionEU868.o
 .debug_abbrev  0x000000000000c2e5      0x398 /home/ch/RIOT/tests/lora_co2_scd30/bin/lora-e5-dev/semtech_loramac_mac_region/Region.o
 .debug_abbrev  0x000000000000c67d      0x344 /home/ch/RIOT/tests/lora_co2_scd30/bin/lora-e5-dev/stdio_uart/stdio_uart.o
 .debug_abbrev  0x000000000000c9c1      0x2fb /home/ch/RIOT/tests/lora_co2_scd30/bin/lora-e5-dev/stm32_clk/stmclk_common.o
 .debug_abbrev  0x000000000000ccbc      0x39b /home/ch/RIOT/tests/lora_co2_scd30/bin/lora-e5-dev/stm32_clk/stmclk_l4wx.o
 .debug_abbrev  0x000000000000d057       0xf4 /home/ch/RIOT/tests/lora_co2_scd30/bin/lora-e5-dev/stm32_vectors/STM32WLE5xx.o
 .debug_abbrev  0x000000000000d14b      0x5b3 /home/ch/RIOT/tests/lora_co2_scd30/bin/lora-e5-dev/sx126x/sx126x_netdev.o
 .debug_abbrev  0x000000000000d6fe      0x526 /home/ch/RIOT/tests/lora_co2_scd30/bin/lora-e5-dev/sx126x/sx126x.o
 .debug_abbrev  0x000000000000dc24      0x586 /home/ch/RIOT/tests/lora_co2_scd30/bin/lora-e5-dev/xtimer/xtimer_core.o
 .debug_abbrev  0x000000000000e1aa      0x58b /home/ch/RIOT/tests/lora_co2_scd30/bin/lora-e5-dev/xtimer/xtimer.o
 .debug_abbrev  0x000000000000e735      0x41d /home/ch/RIOT/tests/lora_co2_scd30/bin/lora-e5-dev/ztimer_core/convert_frac.o
 .debug_abbrev  0x000000000000eb52      0x2ec /home/ch/RIOT/tests/lora_co2_scd30/bin/lora-e5-dev/ztimer_core/convert.o
 .debug_abbrev  0x000000000000ee3e      0x537 /home/ch/RIOT/tests/lora_co2_scd30/bin/lora-e5-dev/ztimer_core/core.o
 .debug_abbrev  0x000000000000f375      0x2e6 /home/ch/RIOT/tests/lora_co2_scd30/bin/lora-e5-dev/ztimer_core/init.o
 .debug_abbrev  0x000000000000f65b      0x3ef /home/ch/RIOT/tests/lora_co2_scd30/bin/lora-e5-dev/ztimer_core/periph_rtt.o
 .debug_abbrev  0x000000000000fa4a      0x3a9 /home/ch/RIOT/tests/lora_co2_scd30/bin/lora-e5-dev/ztimer_core/periph_timer.o
 .debug_abbrev  0x000000000000fdf3      0x4b6 /home/ch/RIOT/tests/lora_co2_scd30/bin/lora-e5-dev/ztimer_core/util.o
 .debug_abbrev  0x00000000000102a9      0x264 /usr/lib/gcc/arm-none-eabi/9.2.1/../../../arm-none-eabi/lib/thumb/v7e-m/nofp/libm.a(lib_a-s_ceil.o)
 .debug_abbrev  0x000000000001050d      0x264 /usr/lib/gcc/arm-none-eabi/9.2.1/../../../arm-none-eabi/lib/thumb/v7e-m/nofp/libm.a(lib_a-s_floor.o)
 .debug_abbrev  0x0000000000010771       0x14 /usr/lib/gcc/arm-none-eabi/9.2.1/thumb/v7e-m/nofp/libgcc.a(_arm_mulsf3.o)
 .debug_abbrev  0x0000000000010785       0x14 /usr/lib/gcc/arm-none-eabi/9.2.1/thumb/v7e-m/nofp/libgcc.a(_arm_addsubdf3.o)
 .debug_abbrev  0x0000000000010799       0x14 /usr/lib/gcc/arm-none-eabi/9.2.1/thumb/v7e-m/nofp/libgcc.a(_arm_muldivdf3.o)
 .debug_abbrev  0x00000000000107ad       0x14 /usr/lib/gcc/arm-none-eabi/9.2.1/thumb/v7e-m/nofp/libgcc.a(_arm_cmpdf2.o)
 .debug_abbrev  0x00000000000107c1       0x14 /usr/lib/gcc/arm-none-eabi/9.2.1/thumb/v7e-m/nofp/libgcc.a(_arm_fixdfsi.o)
 .debug_abbrev  0x00000000000107d5       0x14 /usr/lib/gcc/arm-none-eabi/9.2.1/thumb/v7e-m/nofp/libgcc.a(_arm_fixunsdfsi.o)
 .debug_abbrev  0x00000000000107e9       0x14 /usr/lib/gcc/arm-none-eabi/9.2.1/thumb/v7e-m/nofp/libgcc.a(_arm_addsubsf3.o)
