Archive member included to satisfy reference by file (symbol)

/usr/lib/gcc/arm-none-eabi/9.2.1/thumb/v7e-m/nofp/libgcc.a(_arm_muldf3.o)
                              /home/ch/RIOT/tests/capteur/bin/p-nucleo-wb55/application_tests_capteur/main.o (__aeabi_dmul)
/usr/lib/gcc/arm-none-eabi/9.2.1/thumb/v7e-m/nofp/libgcc.a(_arm_mulsf3.o)
                              /home/ch/RIOT/tests/capteur/bin/p-nucleo-wb55/application_tests_capteur/main.o (__aeabi_fmul)
/usr/lib/gcc/arm-none-eabi/9.2.1/thumb/v7e-m/nofp/libgcc.a(_arm_addsubdf3.o)
                              /home/ch/RIOT/tests/capteur/bin/p-nucleo-wb55/application_tests_capteur/main.o (__aeabi_dsub)
/usr/lib/gcc/arm-none-eabi/9.2.1/thumb/v7e-m/nofp/libgcc.a(_arm_muldivdf3.o)
                              /home/ch/RIOT/tests/capteur/bin/p-nucleo-wb55/application_tests_capteur/main.o (__aeabi_ddiv)
/usr/lib/gcc/arm-none-eabi/9.2.1/thumb/v7e-m/nofp/libgcc.a(_arm_truncdfsf2.o)
                              /home/ch/RIOT/tests/capteur/bin/p-nucleo-wb55/application_tests_capteur/main.o (__aeabi_d2f)
/usr/lib/gcc/arm-none-eabi/9.2.1/thumb/v7e-m/nofp/libgcc.a(_arm_fixsfsi.o)
                              /home/ch/RIOT/tests/capteur/bin/p-nucleo-wb55/application_tests_capteur/main.o (__aeabi_f2iz)
/usr/lib/gcc/arm-none-eabi/9.2.1/thumb/v7e-m/nofp/libgcc.a(_aeabi_ldivmod.o)
                              /home/ch/RIOT/tests/capteur/bin/p-nucleo-wb55/periph/uart.o (__aeabi_ldivmod)
/usr/lib/gcc/arm-none-eabi/9.2.1/thumb/v7e-m/nofp/libgcc.a(_aeabi_uldivmod.o)
                              /home/ch/RIOT/tests/capteur/bin/p-nucleo-wb55/periph/uart.o (__aeabi_uldivmod)
/usr/lib/gcc/arm-none-eabi/9.2.1/thumb/v7e-m/nofp/libgcc.a(_udivmoddi4.o)
                              /usr/lib/gcc/arm-none-eabi/9.2.1/thumb/v7e-m/nofp/libgcc.a(_aeabi_ldivmod.o) (__udivmoddi4)
/usr/lib/gcc/arm-none-eabi/9.2.1/thumb/v7e-m/nofp/libgcc.a(_dvmd_tls.o)
                              /usr/lib/gcc/arm-none-eabi/9.2.1/thumb/v7e-m/nofp/libgcc.a(_aeabi_ldivmod.o) (__aeabi_ldiv0)
/usr/lib/gcc/arm-none-eabi/9.2.1/../../../arm-none-eabi/lib/thumb/v7e-m/nofp/libc_nano.a(lib_a-errno.o)
                              /home/ch/RIOT/tests/capteur/bin/p-nucleo-wb55/newlib_syscalls_default/syscalls.o (__errno)
/usr/lib/gcc/arm-none-eabi/9.2.1/../../../arm-none-eabi/lib/thumb/v7e-m/nofp/libc_nano.a(lib_a-impure.o)
                              /usr/lib/gcc/arm-none-eabi/9.2.1/../../../arm-none-eabi/lib/thumb/v7e-m/nofp/libc_nano.a(lib_a-errno.o) (_impure_ptr)
/usr/lib/gcc/arm-none-eabi/9.2.1/../../../arm-none-eabi/lib/thumb/v7e-m/nofp/libc_nano.a(lib_a-init.o)
                              /home/ch/RIOT/tests/capteur/bin/p-nucleo-wb55/cortexm_common/vectors_cortexm.o (__libc_init_array)
/usr/lib/gcc/arm-none-eabi/9.2.1/../../../arm-none-eabi/lib/thumb/v7e-m/nofp/libc_nano.a(lib_a-malloc.o)
                              /home/ch/RIOT/tests/capteur/bin/p-nucleo-wb55/malloc_thread_safe/malloc_wrappers.o (malloc)
/usr/lib/gcc/arm-none-eabi/9.2.1/../../../arm-none-eabi/lib/thumb/v7e-m/nofp/libc_nano.a(lib_a-memcmp.o)
                              /home/ch/RIOT/tests/capteur/bin/p-nucleo-wb55/core/atomic_c11.o (memcmp)
/usr/lib/gcc/arm-none-eabi/9.2.1/../../../arm-none-eabi/lib/thumb/v7e-m/nofp/libc_nano.a(lib_a-memcpy.o)
                              /home/ch/RIOT/tests/capteur/bin/p-nucleo-wb55/core/atomic_c11.o (memcpy)
/usr/lib/gcc/arm-none-eabi/9.2.1/../../../arm-none-eabi/lib/thumb/v7e-m/nofp/libc_nano.a(lib_a-memset.o)
                              /home/ch/RIOT/tests/capteur/bin/p-nucleo-wb55/malloc_thread_safe/malloc_wrappers.o (memset)
/usr/lib/gcc/arm-none-eabi/9.2.1/../../../arm-none-eabi/lib/thumb/v7e-m/nofp/libc_nano.a(lib_a-mstats.o)
                              /home/ch/RIOT/tests/capteur/bin/p-nucleo-wb55/newlib_syscalls_default/syscalls.o (mallinfo)
/usr/lib/gcc/arm-none-eabi/9.2.1/../../../arm-none-eabi/lib/thumb/v7e-m/nofp/libc_nano.a(lib_a-nano-freer.o)
                              /usr/lib/gcc/arm-none-eabi/9.2.1/../../../arm-none-eabi/lib/thumb/v7e-m/nofp/libc_nano.a(lib_a-malloc.o) (_free_r)
/usr/lib/gcc/arm-none-eabi/9.2.1/../../../arm-none-eabi/lib/thumb/v7e-m/nofp/libc_nano.a(lib_a-nano-mallinfor.o)
                              /usr/lib/gcc/arm-none-eabi/9.2.1/../../../arm-none-eabi/lib/thumb/v7e-m/nofp/libc_nano.a(lib_a-mstats.o) (_mallinfo_r)
/usr/lib/gcc/arm-none-eabi/9.2.1/../../../arm-none-eabi/lib/thumb/v7e-m/nofp/libc_nano.a(lib_a-nano-mallocr.o)
                              /usr/lib/gcc/arm-none-eabi/9.2.1/../../../arm-none-eabi/lib/thumb/v7e-m/nofp/libc_nano.a(lib_a-malloc.o) (_malloc_r)
/usr/lib/gcc/arm-none-eabi/9.2.1/../../../arm-none-eabi/lib/thumb/v7e-m/nofp/libc_nano.a(lib_a-nano-malloptr.o)
                              /usr/lib/gcc/arm-none-eabi/9.2.1/../../../arm-none-eabi/lib/thumb/v7e-m/nofp/libc_nano.a(lib_a-mstats.o) (_mallopt_r)
/usr/lib/gcc/arm-none-eabi/9.2.1/../../../arm-none-eabi/lib/thumb/v7e-m/nofp/libc_nano.a(lib_a-nano-mallstatsr.o)
                              /usr/lib/gcc/arm-none-eabi/9.2.1/../../../arm-none-eabi/lib/thumb/v7e-m/nofp/libc_nano.a(lib_a-mstats.o) (_malloc_stats_r)
/usr/lib/gcc/arm-none-eabi/9.2.1/../../../arm-none-eabi/lib/thumb/v7e-m/nofp/libc_nano.a(lib_a-printf.o)
                              /home/ch/RIOT/tests/capteur/bin/p-nucleo-wb55/application_tests_capteur/main.o (printf)
/usr/lib/gcc/arm-none-eabi/9.2.1/../../../arm-none-eabi/lib/thumb/v7e-m/nofp/libc_nano.a(lib_a-puts.o)
                              /home/ch/RIOT/tests/capteur/bin/p-nucleo-wb55/application_tests_capteur/main.o (puts)
/usr/lib/gcc/arm-none-eabi/9.2.1/../../../arm-none-eabi/lib/thumb/v7e-m/nofp/libc_nano.a(lib_a-realloc.o)
                              /home/ch/RIOT/tests/capteur/bin/p-nucleo-wb55/malloc_thread_safe/malloc_wrappers.o (realloc)
/usr/lib/gcc/arm-none-eabi/9.2.1/../../../arm-none-eabi/lib/thumb/v7e-m/nofp/libc_nano.a(lib_a-time.o)
                              /home/ch/RIOT/tests/capteur/bin/p-nucleo-wb55/application_tests_capteur/main.o (time)
/usr/lib/gcc/arm-none-eabi/9.2.1/../../../arm-none-eabi/lib/thumb/v7e-m/nofp/libc_nano.a(lib_a-wbuf.o)
                              /usr/lib/gcc/arm-none-eabi/9.2.1/../../../arm-none-eabi/lib/thumb/v7e-m/nofp/libc_nano.a(lib_a-puts.o) (__swbuf_r)
/usr/lib/gcc/arm-none-eabi/9.2.1/../../../arm-none-eabi/lib/thumb/v7e-m/nofp/libc_nano.a(lib_a-wsetup.o)
                              /usr/lib/gcc/arm-none-eabi/9.2.1/../../../arm-none-eabi/lib/thumb/v7e-m/nofp/libc_nano.a(lib_a-puts.o) (__swsetup_r)
/usr/lib/gcc/arm-none-eabi/9.2.1/../../../arm-none-eabi/lib/thumb/v7e-m/nofp/libc_nano.a(lib_a-fflush.o)
                              /usr/lib/gcc/arm-none-eabi/9.2.1/../../../arm-none-eabi/lib/thumb/v7e-m/nofp/libc_nano.a(lib_a-wbuf.o) (_fflush_r)
/usr/lib/gcc/arm-none-eabi/9.2.1/../../../arm-none-eabi/lib/thumb/v7e-m/nofp/libc_nano.a(lib_a-findfp.o)
                              /usr/lib/gcc/arm-none-eabi/9.2.1/../../../arm-none-eabi/lib/thumb/v7e-m/nofp/libc_nano.a(lib_a-mstats.o) (__sinit)
/usr/lib/gcc/arm-none-eabi/9.2.1/../../../arm-none-eabi/lib/thumb/v7e-m/nofp/libc_nano.a(lib_a-fprintf.o)
                              /usr/lib/gcc/arm-none-eabi/9.2.1/../../../arm-none-eabi/lib/thumb/v7e-m/nofp/libc_nano.a(lib_a-mstats.o) (fiprintf)
/usr/lib/gcc/arm-none-eabi/9.2.1/../../../arm-none-eabi/lib/thumb/v7e-m/nofp/libc_nano.a(lib_a-fwalk.o)
                              /usr/lib/gcc/arm-none-eabi/9.2.1/../../../arm-none-eabi/lib/thumb/v7e-m/nofp/libc_nano.a(lib_a-findfp.o) (_fwalk)
/usr/lib/gcc/arm-none-eabi/9.2.1/../../../arm-none-eabi/lib/thumb/v7e-m/nofp/libc_nano.a(lib_a-makebuf.o)
                              /usr/lib/gcc/arm-none-eabi/9.2.1/../../../arm-none-eabi/lib/thumb/v7e-m/nofp/libc_nano.a(lib_a-wsetup.o) (__smakebuf_r)
/usr/lib/gcc/arm-none-eabi/9.2.1/../../../arm-none-eabi/lib/thumb/v7e-m/nofp/libc_nano.a(lib_a-mlock.o)
                              /usr/lib/gcc/arm-none-eabi/9.2.1/../../../arm-none-eabi/lib/thumb/v7e-m/nofp/libc_nano.a(lib_a-nano-freer.o) (__malloc_lock)
/usr/lib/gcc/arm-none-eabi/9.2.1/../../../arm-none-eabi/lib/thumb/v7e-m/nofp/libc_nano.a(lib_a-nano-reallocr.o)
                              /usr/lib/gcc/arm-none-eabi/9.2.1/../../../arm-none-eabi/lib/thumb/v7e-m/nofp/libc_nano.a(lib_a-realloc.o) (_realloc_r)
/usr/lib/gcc/arm-none-eabi/9.2.1/../../../arm-none-eabi/lib/thumb/v7e-m/nofp/libc_nano.a(lib_a-nano-vfprintf.o)
                              /usr/lib/gcc/arm-none-eabi/9.2.1/../../../arm-none-eabi/lib/thumb/v7e-m/nofp/libc_nano.a(lib_a-printf.o) (_vfprintf_r)
/usr/lib/gcc/arm-none-eabi/9.2.1/../../../arm-none-eabi/lib/thumb/v7e-m/nofp/libc_nano.a(lib_a-nano-vfprintf_i.o)
                              /usr/lib/gcc/arm-none-eabi/9.2.1/../../../arm-none-eabi/lib/thumb/v7e-m/nofp/libc_nano.a(lib_a-nano-vfprintf.o) (_printf_i)
/usr/lib/gcc/arm-none-eabi/9.2.1/../../../arm-none-eabi/lib/thumb/v7e-m/nofp/libc_nano.a(lib_a-stdio.o)
                              /usr/lib/gcc/arm-none-eabi/9.2.1/../../../arm-none-eabi/lib/thumb/v7e-m/nofp/libc_nano.a(lib_a-findfp.o) (__sread)
/usr/lib/gcc/arm-none-eabi/9.2.1/../../../arm-none-eabi/lib/thumb/v7e-m/nofp/libc_nano.a(lib_a-fvwrite.o)
                              /usr/lib/gcc/arm-none-eabi/9.2.1/../../../arm-none-eabi/lib/thumb/v7e-m/nofp/libc_nano.a(lib_a-nano-vfprintf.o) (__sfvwrite_r)
/usr/lib/gcc/arm-none-eabi/9.2.1/../../../arm-none-eabi/lib/thumb/v7e-m/nofp/libc_nano.a(lib_a-memchr.o)
                              /usr/lib/gcc/arm-none-eabi/9.2.1/../../../arm-none-eabi/lib/thumb/v7e-m/nofp/libc_nano.a(lib_a-nano-vfprintf.o) (memchr)
/usr/lib/gcc/arm-none-eabi/9.2.1/../../../arm-none-eabi/lib/thumb/v7e-m/nofp/libc_nano.a(lib_a-memmove.o)
                              /usr/lib/gcc/arm-none-eabi/9.2.1/../../../arm-none-eabi/lib/thumb/v7e-m/nofp/libc_nano.a(lib_a-fvwrite.o) (memmove)
/usr/lib/gcc/arm-none-eabi/9.2.1/../../../arm-none-eabi/lib/thumb/v7e-m/nofp/libc_nano.a(lib_a-nano-msizer.o)
                              /usr/lib/gcc/arm-none-eabi/9.2.1/../../../arm-none-eabi/lib/thumb/v7e-m/nofp/libc_nano.a(lib_a-nano-reallocr.o) (_malloc_usable_size_r)

Discarded input sections

 .group         0x0000000000000000        0xc /home/ch/RIOT/tests/capteur/bin/p-nucleo-wb55/application_tests_capteur/main.o
 .group         0x0000000000000000        0xc /home/ch/RIOT/tests/capteur/bin/p-nucleo-wb55/application_tests_capteur/main.o
 .group         0x0000000000000000        0xc /home/ch/RIOT/tests/capteur/bin/p-nucleo-wb55/application_tests_capteur/main.o
 .group         0x0000000000000000        0xc /home/ch/RIOT/tests/capteur/bin/p-nucleo-wb55/application_tests_capteur/main.o
 .group         0x0000000000000000        0xc /home/ch/RIOT/tests/capteur/bin/p-nucleo-wb55/application_tests_capteur/main.o
 .group         0x0000000000000000        0xc /home/ch/RIOT/tests/capteur/bin/p-nucleo-wb55/application_tests_capteur/main.o
 .group         0x0000000000000000        0xc /home/ch/RIOT/tests/capteur/bin/p-nucleo-wb55/application_tests_capteur/main.o
 .group         0x0000000000000000        0xc /home/ch/RIOT/tests/capteur/bin/p-nucleo-wb55/application_tests_capteur/main.o
 .group         0x0000000000000000        0xc /home/ch/RIOT/tests/capteur/bin/p-nucleo-wb55/application_tests_capteur/main.o
 .group         0x0000000000000000        0xc /home/ch/RIOT/tests/capteur/bin/p-nucleo-wb55/application_tests_capteur/main.o
 .group         0x0000000000000000        0xc /home/ch/RIOT/tests/capteur/bin/p-nucleo-wb55/application_tests_capteur/main.o
 .group         0x0000000000000000        0xc /home/ch/RIOT/tests/capteur/bin/p-nucleo-wb55/application_tests_capteur/main.o
 .group         0x0000000000000000        0xc /home/ch/RIOT/tests/capteur/bin/p-nucleo-wb55/application_tests_capteur/main.o
 .group         0x0000000000000000        0xc /home/ch/RIOT/tests/capteur/bin/p-nucleo-wb55/application_tests_capteur/main.o
 .group         0x0000000000000000        0xc /home/ch/RIOT/tests/capteur/bin/p-nucleo-wb55/application_tests_capteur/main.o
 .group         0x0000000000000000        0xc /home/ch/RIOT/tests/capteur/bin/p-nucleo-wb55/application_tests_capteur/main.o
 .group         0x0000000000000000        0xc /home/ch/RIOT/tests/capteur/bin/p-nucleo-wb55/application_tests_capteur/main.o
 .group         0x0000000000000000        0xc /home/ch/RIOT/tests/capteur/bin/p-nucleo-wb55/application_tests_capteur/main.o
Memory Configuration

Name             Origin             Length             Attributes
ccmram           0x0000000010000000 0x0000000000000000
sram4            0x0000000028000000 0x0000000000000000
rom              0x0000000008000000 0x00000000000ca000 xr
ram              0x0000000020000000 0x0000000000030000 w !xr
bkup_ram         0x0000000000000000 0x0000000000000000 w !xr
*default*        0x0000000000000000 0xffffffffffffffff

Linker script and memory map

LOAD /home/ch/RIOT/tests/capteur/bin/p-nucleo-wb55/application_tests_capteur/main.o
LOAD /home/ch/RIOT/tests/capteur/bin/p-nucleo-wb55/auto_init/auto_init.o
LOAD /home/ch/RIOT/tests/capteur/bin/p-nucleo-wb55/boards_common_nucleo/board_common_nucleo_init.o
LOAD /home/ch/RIOT/tests/capteur/bin/p-nucleo-wb55/core/assert.o
LOAD /home/ch/RIOT/tests/capteur/bin/p-nucleo-wb55/core/atomic_c11.o
LOAD /home/ch/RIOT/tests/capteur/bin/p-nucleo-wb55/core/atomic_sync.o
LOAD /home/ch/RIOT/tests/capteur/bin/p-nucleo-wb55/core/bitarithm.o
LOAD /home/ch/RIOT/tests/capteur/bin/p-nucleo-wb55/core/clist.o
LOAD /home/ch/RIOT/tests/capteur/bin/p-nucleo-wb55/core/cond.o
LOAD /home/ch/RIOT/tests/capteur/bin/p-nucleo-wb55/core/init.o
LOAD /home/ch/RIOT/tests/capteur/bin/p-nucleo-wb55/core/msg.o
LOAD /home/ch/RIOT/tests/capteur/bin/p-nucleo-wb55/core/mutex.o
LOAD /home/ch/RIOT/tests/capteur/bin/p-nucleo-wb55/core/panic.o
LOAD /home/ch/RIOT/tests/capteur/bin/p-nucleo-wb55/core/priority_queue.o
LOAD /home/ch/RIOT/tests/capteur/bin/p-nucleo-wb55/core/ringbuffer.o
LOAD /home/ch/RIOT/tests/capteur/bin/p-nucleo-wb55/core/rmutex.o
LOAD /home/ch/RIOT/tests/capteur/bin/p-nucleo-wb55/core/sched.o
LOAD /home/ch/RIOT/tests/capteur/bin/p-nucleo-wb55/core/thread.o
LOAD /home/ch/RIOT/tests/capteur/bin/p-nucleo-wb55/cortexm_common/cortexm_init.o
LOAD /home/ch/RIOT/tests/capteur/bin/p-nucleo-wb55/cortexm_common/mpu.o
LOAD /home/ch/RIOT/tests/capteur/bin/p-nucleo-wb55/cortexm_common/panic.o
LOAD /home/ch/RIOT/tests/capteur/bin/p-nucleo-wb55/cortexm_common_periph/pm.o
LOAD /home/ch/RIOT/tests/capteur/bin/p-nucleo-wb55/cortexm_common/thread_arch.o
LOAD /home/ch/RIOT/tests/capteur/bin/p-nucleo-wb55/cortexm_common/vectors_cortexm.o
LOAD /home/ch/RIOT/tests/capteur/bin/p-nucleo-wb55/cpu/cpu_common.o
LOAD /home/ch/RIOT/tests/capteur/bin/p-nucleo-wb55/cpu/cpu_init.o
LOAD /home/ch/RIOT/tests/capteur/bin/p-nucleo-wb55/div/div.o
LOAD /home/ch/RIOT/tests/capteur/bin/p-nucleo-wb55/malloc_thread_safe/malloc_wrappers.o
LOAD /home/ch/RIOT/tests/capteur/bin/p-nucleo-wb55/newlib_syscalls_default/syscalls.o
LOAD /home/ch/RIOT/tests/capteur/bin/p-nucleo-wb55/periph_common/gpio.o
LOAD /home/ch/RIOT/tests/capteur/bin/p-nucleo-wb55/periph_common/init.o
LOAD /home/ch/RIOT/tests/capteur/bin/p-nucleo-wb55/periph_common/pm.o
LOAD /home/ch/RIOT/tests/capteur/bin/p-nucleo-wb55/periph_common/timer.o
LOAD /home/ch/RIOT/tests/capteur/bin/p-nucleo-wb55/periph/gpio_all.o
LOAD /home/ch/RIOT/tests/capteur/bin/p-nucleo-wb55/periph/pm.o
LOAD /home/ch/RIOT/tests/capteur/bin/p-nucleo-wb55/periph/timer.o
LOAD /home/ch/RIOT/tests/capteur/bin/p-nucleo-wb55/periph/uart.o
LOAD /home/ch/RIOT/tests/capteur/bin/p-nucleo-wb55/pm_layered/pm.o
LOAD /home/ch/RIOT/tests/capteur/bin/p-nucleo-wb55/stdio_uart/stdio_uart.o
LOAD /home/ch/RIOT/tests/capteur/bin/p-nucleo-wb55/stm32_clk/stmclk_common.o
LOAD /home/ch/RIOT/tests/capteur/bin/p-nucleo-wb55/stm32_clk/stmclk_l4wx.o
LOAD /home/ch/RIOT/tests/capteur/bin/p-nucleo-wb55/stm32_vectors/STM32WB55xx.o
LOAD /home/ch/RIOT/tests/capteur/bin/p-nucleo-wb55/xtimer/xtimer_core.o
LOAD /home/ch/RIOT/tests/capteur/bin/p-nucleo-wb55/xtimer/xtimer.o
LOAD /usr/lib/gcc/arm-none-eabi/9.2.1/../../../arm-none-eabi/lib/thumb/v7e-m/nofp/libm.a
LOAD /usr/lib/gcc/arm-none-eabi/9.2.1/thumb/v7e-m/nofp/libgcc.a
                0x0000000008000000                _rom_start_addr = 0x8000000
                0x0000000020000000                _ram_start_addr = 0x20000000
                0x00000000000ca000                _rom_length = 0xca000
                0x0000000000030000                _ram_length = 0x30000
LOAD /usr/lib/gcc/arm-none-eabi/9.2.1/../../../arm-none-eabi/lib/thumb/v7e-m/nofp/libc_nano.a
START GROUP
LOAD /usr/lib/gcc/arm-none-eabi/9.2.1/thumb/v7e-m/nofp/libgcc.a
LOAD /usr/lib/gcc/arm-none-eabi/9.2.1/../../../arm-none-eabi/lib/thumb/v7e-m/nofp/libg_nano.a
LOAD /usr/lib/gcc/arm-none-eabi/9.2.1/../../../arm-none-eabi/lib/thumb/v7e-m/nofp/libc_nano.a
END GROUP
START GROUP
LOAD /usr/lib/gcc/arm-none-eabi/9.2.1/thumb/v7e-m/nofp/libgcc.a
LOAD /usr/lib/gcc/arm-none-eabi/9.2.1/../../../arm-none-eabi/lib/thumb/v7e-m/nofp/libc_nano.a
END GROUP
                0x0000000000000000                ccmram_length = DEFINED (ccmram_len)?ccmram_len:0x0
                0x0000000000000000                sram4_length = DEFINED (sram4_length)?sram4_length:0x0

.heap2          0x0000000000000000        0x0
                0x0000000000000000                _sheap2 = .
                0x0000000028000000                _eheap2 = (ORIGIN (sram4) + LENGTH (sram4))
                0x0000000000000000                _rom_offset = DEFINED (_rom_offset)?_rom_offset:0x0
                0x00000000000ca000                _fw_rom_length = DEFINED (_fw_rom_length)?_fw_rom_length:(_rom_length - _rom_offset)
                0x0000000000000001                ASSERT ((_fw_rom_length <= (_rom_length - _rom_offset)), Specified firmware size does not fit in ROM)
                0x0000000000000000                _backup_ram_start_addr = DEFINED (_backup_ram_start_addr)?_backup_ram_start_addr:0x0
                0x0000000000000000                _backup_ram_len = DEFINED (_backup_ram_len)?_backup_ram_len:0x0

.text           0x0000000008000000     0x3f18
                0x0000000008000000                . = ALIGN (0x4)
                0x0000000008000000                _sfixed = .
                0x0000000008000000                _isr_vectors = DEFINED (_isr_vectors)?_isr_vectors:.
 *(SORT_BY_NAME(.vectors*))
 .vectors.0     0x0000000008000000       0x40 /home/ch/RIOT/tests/capteur/bin/p-nucleo-wb55/cortexm_common/vectors_cortexm.o
                0x0000000008000000                cortex_vector_base
 .vectors.1     0x0000000008000040       0xfc /home/ch/RIOT/tests/capteur/bin/p-nucleo-wb55/stm32_vectors/STM32WB55xx.o
                0x0000000008000040                vector_cpu
 *(.text .text.* .gnu.linkonce.t.*)
 .text.xtimer_now_usec
                0x000000000800013c        0x4 /home/ch/RIOT/tests/capteur/bin/p-nucleo-wb55/application_tests_capteur/main.o
 .text.pulseIn  0x0000000008000140       0x4c /home/ch/RIOT/tests/capteur/bin/p-nucleo-wb55/application_tests_capteur/main.o
                0x0000000008000140                pulseIn
 .text.pow      0x000000000800018c       0x2a /home/ch/RIOT/tests/capteur/bin/p-nucleo-wb55/application_tests_capteur/main.o
                0x000000000800018c                pow
 *fill*         0x00000000080001b6        0x2 
 .text.setup    0x00000000080001b8       0x30 /home/ch/RIOT/tests/capteur/bin/p-nucleo-wb55/application_tests_capteur/main.o
                0x00000000080001b8                setup
 .text.loop     0x00000000080001e8      0x17c /home/ch/RIOT/tests/capteur/bin/p-nucleo-wb55/application_tests_capteur/main.o
                0x00000000080001e8                loop
 .text.startup.main
                0x0000000008000364       0x20 /home/ch/RIOT/tests/capteur/bin/p-nucleo-wb55/application_tests_capteur/main.o
                0x0000000008000364                main
 .text.auto_init
                0x0000000008000384        0x4 /home/ch/RIOT/tests/capteur/bin/p-nucleo-wb55/auto_init/auto_init.o
                0x0000000008000384                auto_init
 .text.board_common_nucleo_init
                0x0000000008000388       0x2c /home/ch/RIOT/tests/capteur/bin/p-nucleo-wb55/boards_common_nucleo/board_common_nucleo_init.o
                0x0000000008000388                board_common_nucleo_init
 .text.board_init
                0x00000000080003b4        0x4 /home/ch/RIOT/tests/capteur/bin/p-nucleo-wb55/boards_common_nucleo/board_common_nucleo_init.o
                0x00000000080003b4                board_init
 .text.main_trampoline
                0x00000000080003b8       0x18 /home/ch/RIOT/tests/capteur/bin/p-nucleo-wb55/core/init.o
 .text.kernel_init
                0x00000000080003d0       0x34 /home/ch/RIOT/tests/capteur/bin/p-nucleo-wb55/core/init.o
                0x00000000080003d0                kernel_init
 .text.panic_app
                0x0000000008000404        0x2 /home/ch/RIOT/tests/capteur/bin/p-nucleo-wb55/core/panic.o
                0x0000000008000404                panic_app
 *fill*         0x0000000008000406        0x2 
 .text.core_panic
                0x0000000008000408       0x50 /home/ch/RIOT/tests/capteur/bin/p-nucleo-wb55/core/panic.o
                0x0000000008000408                core_panic
 .text._unschedule
                0x0000000008000458       0x24 /home/ch/RIOT/tests/capteur/bin/p-nucleo-wb55/core/sched.o
 .text.sched_run
                0x000000000800047c       0x6c /home/ch/RIOT/tests/capteur/bin/p-nucleo-wb55/core/sched.o
                0x000000000800047c                sched_run
 .text.sched_set_status
                0x00000000080004e8       0x84 /home/ch/RIOT/tests/capteur/bin/p-nucleo-wb55/core/sched.o
                0x00000000080004e8                sched_set_status
 .text.sched_switch
                0x000000000800056c       0x3c /home/ch/RIOT/tests/capteur/bin/p-nucleo-wb55/core/sched.o
                0x000000000800056c                sched_switch
 .text.sched_task_exit
                0x00000000080005a8       0x3c /home/ch/RIOT/tests/capteur/bin/p-nucleo-wb55/core/sched.o
                0x00000000080005a8                sched_task_exit
 .text.thread_getname
                0x00000000080005e4       0x1c /home/ch/RIOT/tests/capteur/bin/p-nucleo-wb55/core/thread.o
                0x00000000080005e4                thread_getname
 .text.thread_create
                0x0000000008000600       0xe8 /home/ch/RIOT/tests/capteur/bin/p-nucleo-wb55/core/thread.o
                0x0000000008000600                thread_create
 .text.cortexm_init
                0x00000000080006e8       0x40 /home/ch/RIOT/tests/capteur/bin/p-nucleo-wb55/cortexm_common/cortexm_init.o
                0x00000000080006e8                cortexm_init
 .text.panic_arch
                0x0000000008000728       0x1c /home/ch/RIOT/tests/capteur/bin/p-nucleo-wb55/cortexm_common/panic.o
                0x0000000008000728                panic_arch
 .text.thread_stack_init
                0x0000000008000744       0x68 /home/ch/RIOT/tests/capteur/bin/p-nucleo-wb55/cortexm_common/thread_arch.o
                0x0000000008000744                thread_stack_init
 .text.cpu_switch_context_exit
                0x00000000080007ac       0x18 /home/ch/RIOT/tests/capteur/bin/p-nucleo-wb55/cortexm_common/thread_arch.o
                0x00000000080007ac                cpu_switch_context_exit
 .text.isr_pendsv
                0x00000000080007c4       0x38 /home/ch/RIOT/tests/capteur/bin/p-nucleo-wb55/cortexm_common/thread_arch.o
                0x00000000080007c4                isr_pendsv
 .text.isr_svc  0x00000000080007fc       0x10 /home/ch/RIOT/tests/capteur/bin/p-nucleo-wb55/cortexm_common/thread_arch.o
                0x00000000080007fc                isr_svc
 .text.sched_arch_idle
                0x000000000800080c       0x10 /home/ch/RIOT/tests/capteur/bin/p-nucleo-wb55/cortexm_common/thread_arch.o
                0x000000000800080c                sched_arch_idle
 .text.hard_fault_default
                0x000000000800081c       0x44 /home/ch/RIOT/tests/capteur/bin/p-nucleo-wb55/cortexm_common/vectors_cortexm.o
                0x000000000800081c                hard_fault_default
 .text.nmi_default
                0x0000000008000860       0x10 /home/ch/RIOT/tests/capteur/bin/p-nucleo-wb55/cortexm_common/vectors_cortexm.o
                0x0000000008000860                nmi_default
 .text.mem_manage_default
                0x0000000008000870       0x10 /home/ch/RIOT/tests/capteur/bin/p-nucleo-wb55/cortexm_common/vectors_cortexm.o
                0x0000000008000870                mem_manage_default
 .text.bus_fault_default
                0x0000000008000880       0x10 /home/ch/RIOT/tests/capteur/bin/p-nucleo-wb55/cortexm_common/vectors_cortexm.o
                0x0000000008000880                bus_fault_default
 .text.usage_fault_default
                0x0000000008000890       0x10 /home/ch/RIOT/tests/capteur/bin/p-nucleo-wb55/cortexm_common/vectors_cortexm.o
                0x0000000008000890                usage_fault_default
 .text.debug_mon_default
                0x00000000080008a0       0x10 /home/ch/RIOT/tests/capteur/bin/p-nucleo-wb55/cortexm_common/vectors_cortexm.o
                0x00000000080008a0                debug_mon_default
 .text.dummy_handler_default
                0x00000000080008b0       0x10 /home/ch/RIOT/tests/capteur/bin/p-nucleo-wb55/cortexm_common/vectors_cortexm.o
                0x00000000080008b0                dummy_handler_default
                0x00000000080008b0                isr_systick
 .text.pre_startup
                0x00000000080008c0        0x2 /home/ch/RIOT/tests/capteur/bin/p-nucleo-wb55/cortexm_common/vectors_cortexm.o
                0x00000000080008c0                pre_startup
 .text.post_startup
                0x00000000080008c2        0x2 /home/ch/RIOT/tests/capteur/bin/p-nucleo-wb55/cortexm_common/vectors_cortexm.o
                0x00000000080008c2                post_startup
 .text.reset_handler_default
                0x00000000080008c4       0x70 /home/ch/RIOT/tests/capteur/bin/p-nucleo-wb55/cortexm_common/vectors_cortexm.o
                0x00000000080008c4                reset_handler_default
 .text.hard_fault_handler
                0x0000000008000934      0x1bc /home/ch/RIOT/tests/capteur/bin/p-nucleo-wb55/cortexm_common/vectors_cortexm.o
                0x0000000008000934                hard_fault_handler
 .text.periph_apb_clk
                0x0000000008000af0       0x18 /home/ch/RIOT/tests/capteur/bin/p-nucleo-wb55/cpu/cpu_common.o
                0x0000000008000af0                periph_apb_clk
 .text.periph_timer_clk
                0x0000000008000b08       0x20 /home/ch/RIOT/tests/capteur/bin/p-nucleo-wb55/cpu/cpu_common.o
                0x0000000008000b08                periph_timer_clk
 .text.periph_clk_en
                0x0000000008000b28       0x5a /home/ch/RIOT/tests/capteur/bin/p-nucleo-wb55/cpu/cpu_common.o
                0x0000000008000b28                periph_clk_en
 .text.cpu_init
                0x0000000008000b82       0x16 /home/ch/RIOT/tests/capteur/bin/p-nucleo-wb55/cpu/cpu_init.o
                0x0000000008000b82                cpu_init
 .text._div_mulhi64
                0x0000000008000b98       0x4c /home/ch/RIOT/tests/capteur/bin/p-nucleo-wb55/div/div.o
                0x0000000008000b98                _div_mulhi64
 .text._init    0x0000000008000be4        0x2 /home/ch/RIOT/tests/capteur/bin/p-nucleo-wb55/newlib_syscalls_default/syscalls.o
                0x0000000008000be4                _init
 .text._fini    0x0000000008000be6        0x2 /home/ch/RIOT/tests/capteur/bin/p-nucleo-wb55/newlib_syscalls_default/syscalls.o
                0x0000000008000be6                _fini
 .text._sbrk_r  0x0000000008000be8       0x40 /home/ch/RIOT/tests/capteur/bin/p-nucleo-wb55/newlib_syscalls_default/syscalls.o
                0x0000000008000be8                _sbrk_r
 .text._read_r  0x0000000008000c28        0x8 /home/ch/RIOT/tests/capteur/bin/p-nucleo-wb55/newlib_syscalls_default/syscalls.o
                0x0000000008000c28                _read_r
 .text._write_r
                0x0000000008000c30        0x8 /home/ch/RIOT/tests/capteur/bin/p-nucleo-wb55/newlib_syscalls_default/syscalls.o
                0x0000000008000c30                _write_r
 .text._close_r
                0x0000000008000c38        0xa /home/ch/RIOT/tests/capteur/bin/p-nucleo-wb55/newlib_syscalls_default/syscalls.o
                0x0000000008000c38                _close_r
 .text._lseek_r
                0x0000000008000c42        0xa /home/ch/RIOT/tests/capteur/bin/p-nucleo-wb55/newlib_syscalls_default/syscalls.o
                0x0000000008000c42                _lseek_r
 .text._fstat_r
                0x0000000008000c4c        0xa /home/ch/RIOT/tests/capteur/bin/p-nucleo-wb55/newlib_syscalls_default/syscalls.o
                0x0000000008000c4c                _fstat_r
 .text._isatty_r
                0x0000000008000c56       0x10 /home/ch/RIOT/tests/capteur/bin/p-nucleo-wb55/newlib_syscalls_default/syscalls.o
                0x0000000008000c56                _isatty_r
 *fill*         0x0000000008000c66        0x2 
 .text._gettimeofday_r
                0x0000000008000c68       0x9c /home/ch/RIOT/tests/capteur/bin/p-nucleo-wb55/newlib_syscalls_default/syscalls.o
                0x0000000008000c68                _gettimeofday_r
 .text.periph_init
                0x0000000008000d04        0x2 /home/ch/RIOT/tests/capteur/bin/p-nucleo-wb55/periph_common/init.o
                0x0000000008000d04                periph_init
 .text.gpio_init
                0x0000000008000d06       0x68 /home/ch/RIOT/tests/capteur/bin/p-nucleo-wb55/periph/gpio_all.o
                0x0000000008000d06                gpio_init
 .text.gpio_init_af
                0x0000000008000d6e       0x58 /home/ch/RIOT/tests/capteur/bin/p-nucleo-wb55/periph/gpio_all.o
                0x0000000008000d6e                gpio_init_af
 .text.gpio_read
                0x0000000008000dc6       0x14 /home/ch/RIOT/tests/capteur/bin/p-nucleo-wb55/periph/gpio_all.o
                0x0000000008000dc6                gpio_read
 *fill*         0x0000000008000dda        0x2 
 .text.pm_set   0x0000000008000ddc       0x74 /home/ch/RIOT/tests/capteur/bin/p-nucleo-wb55/periph/pm.o
                0x0000000008000ddc                pm_set
 .text.timer_set_absolute
                0x0000000008000e50       0x38 /home/ch/RIOT/tests/capteur/bin/p-nucleo-wb55/periph/timer.o
                0x0000000008000e50                timer_set_absolute
 .text.timer_read
                0x0000000008000e88       0x10 /home/ch/RIOT/tests/capteur/bin/p-nucleo-wb55/periph/timer.o
                0x0000000008000e88                timer_read
 .text.timer_start
                0x0000000008000e98       0x14 /home/ch/RIOT/tests/capteur/bin/p-nucleo-wb55/periph/timer.o
                0x0000000008000e98                timer_start
 .text.timer_init
                0x0000000008000eac       0x54 /home/ch/RIOT/tests/capteur/bin/p-nucleo-wb55/periph/timer.o
                0x0000000008000eac                timer_init
 .text.isr_tim2
                0x0000000008000f00       0x74 /home/ch/RIOT/tests/capteur/bin/p-nucleo-wb55/periph/timer.o
                0x0000000008000f00                isr_tim2
 .text.irq_handler
                0x0000000008000f74       0x54 /home/ch/RIOT/tests/capteur/bin/p-nucleo-wb55/periph/uart.o
 .text.uart_enable_clock
                0x0000000008000fc8       0x30 /home/ch/RIOT/tests/capteur/bin/p-nucleo-wb55/periph/uart.o
 .text.uart_init
                0x0000000008000ff8      0x120 /home/ch/RIOT/tests/capteur/bin/p-nucleo-wb55/periph/uart.o
                0x0000000008000ff8                uart_init
 .text.uart_write
                0x0000000008001118       0x40 /home/ch/RIOT/tests/capteur/bin/p-nucleo-wb55/periph/uart.o
                0x0000000008001118                uart_write
 .text.isr_usart1
                0x0000000008001158        0x6 /home/ch/RIOT/tests/capteur/bin/p-nucleo-wb55/periph/uart.o
                0x0000000008001158                isr_usart1
 .text.isr_lpuart1
                0x000000000800115e        0x6 /home/ch/RIOT/tests/capteur/bin/p-nucleo-wb55/periph/uart.o
                0x000000000800115e                isr_lpuart1
 .text.pm_set_lowest
                0x0000000008001164       0x3c /home/ch/RIOT/tests/capteur/bin/p-nucleo-wb55/pm_layered/pm.o
                0x0000000008001164                pm_set_lowest
 .text.pm_block
                0x00000000080011a0       0x2c /home/ch/RIOT/tests/capteur/bin/p-nucleo-wb55/pm_layered/pm.o
                0x00000000080011a0                pm_block
 .text.pm_off   0x00000000080011cc       0x10 /home/ch/RIOT/tests/capteur/bin/p-nucleo-wb55/pm_layered/pm.o
                0x00000000080011cc                pm_off
 .text.stdio_init
                0x00000000080011dc        0xe /home/ch/RIOT/tests/capteur/bin/p-nucleo-wb55/stdio_uart/stdio_uart.o
                0x00000000080011dc                stdio_init
 .text.stdio_read
                0x00000000080011ea        0x6 /home/ch/RIOT/tests/capteur/bin/p-nucleo-wb55/stdio_uart/stdio_uart.o
                0x00000000080011ea                stdio_read
 .text.stdio_write
                0x00000000080011f0       0x12 /home/ch/RIOT/tests/capteur/bin/p-nucleo-wb55/stdio_uart/stdio_uart.o
                0x00000000080011f0                stdio_write
 .text.stmclk_enable_hsi
                0x0000000008001202       0x14 /home/ch/RIOT/tests/capteur/bin/p-nucleo-wb55/stm32_clk/stmclk_common.o
                0x0000000008001202                stmclk_enable_hsi
 .text.stmclk_disable_hsi
                0x0000000008001216        0xe /home/ch/RIOT/tests/capteur/bin/p-nucleo-wb55/stm32_clk/stmclk_common.o
                0x0000000008001216                stmclk_disable_hsi
 .text.stmclk_init_sysclk
                0x0000000008001224       0xb4 /home/ch/RIOT/tests/capteur/bin/p-nucleo-wb55/stm32_clk/stmclk_l4wx.o
                0x0000000008001224                stmclk_init_sysclk
 .text.dummy_handler
                0x00000000080012d8        0x4 /home/ch/RIOT/tests/capteur/bin/p-nucleo-wb55/stm32_vectors/STM32WB55xx.o
                0x00000000080012d8                isr_lptim2
                0x00000000080012d8                isr_rtc_wkup
                0x00000000080012d8                isr_tim1_trg_com_tim17
                0x00000000080012d8                isr_hsem
                0x00000000080012d8                isr_aes2
                0x00000000080012d8                isr_exti
                0x00000000080012d8                isr_dma1_channel4
                0x00000000080012d8                isr_tsc
                0x00000000080012d8                isr_dma2_channel7
                0x00000000080012d8                isr_i2c1_ev
                0x00000000080012d8                isr_tim1_brk
                0x00000000080012d8                isr_dma1_channel5
                0x00000000080012d8                isr_dma1_channel2
                0x00000000080012d8                isr_pka
                0x00000000080012d8                isr_dma2_channel6
                0x00000000080012d8                isr_dma1_channel7
                0x00000000080012d8                isr_i2c3_ev
                0x00000000080012d8                isr_c2sev_pwr_c2h
                0x00000000080012d8                isr_tamp_stamp_lsecss
                0x00000000080012d8                isr_dma2_channel4
                0x00000000080012d8                isr_spi2
                0x00000000080012d8                isr_dma1_channel1
                0x00000000080012d8                dummy_handler
                0x00000000080012d8                isr_ipcc_c1_tx
                0x00000000080012d8                isr_tim1_up_tim16
                0x00000000080012d8                isr_usb_hp
                0x00000000080012d8                isr_comp
                0x00000000080012d8                isr_spi1
                0x00000000080012d8                isr_lptim1
                0x00000000080012d8                isr_sai1
                0x00000000080012d8                isr_usb_lp
                0x00000000080012d8                isr_rcc
                0x00000000080012d8                isr_flash
                0x00000000080012d8                isr_dma2_channel5
                0x00000000080012d8                isr_i2c3_er
                0x00000000080012d8                isr_tim1_cc
                0x00000000080012d8                isr_aes1
                0x00000000080012d8                isr_dma2_channel1
                0x00000000080012d8                isr_adc1
                0x00000000080012d8                isr_dma1_channel6
                0x00000000080012d8                isr_pwr_sotf_bleact_802act_rfphase
                0x00000000080012d8                isr_lcd
                0x00000000080012d8                isr_pvd_pvm
                0x00000000080012d8                isr_crs
                0x00000000080012d8                isr_fpu
                0x00000000080012d8                isr_rng
                0x00000000080012d8                isr_dmamux1_ovr
                0x00000000080012d8                isr_dma2_channel2
                0x00000000080012d8                isr_dma2_channel3
                0x00000000080012d8                isr_rtc_alarm
                0x00000000080012d8                isr_ipcc_c1_rx
                0x00000000080012d8                isr_quadspi
                0x00000000080012d8                isr_dma1_channel3
                0x00000000080012d8                isr_i2c1_er
                0x00000000080012d8                isr_wwdg
 .text._add_timer_to_list
                0x00000000080012dc       0x34 /home/ch/RIOT/tests/capteur/bin/p-nucleo-wb55/xtimer/xtimer_core.o
 .text._remove_timer_from_list
                0x0000000008001310       0x18 /home/ch/RIOT/tests/capteur/bin/p-nucleo-wb55/xtimer/xtimer_core.o
 .text._xtimer_now64
                0x0000000008001328       0x38 /home/ch/RIOT/tests/capteur/bin/p-nucleo-wb55/xtimer/xtimer_core.o
 .text._schedule_earliest_lltimer
                0x0000000008001360       0x44 /home/ch/RIOT/tests/capteur/bin/p-nucleo-wb55/xtimer/xtimer_core.o
 .text._xtimer_now
                0x00000000080013a4        0x8 /home/ch/RIOT/tests/capteur/bin/p-nucleo-wb55/xtimer/xtimer_core.o
                0x00000000080013a4                _xtimer_now
 .text.xtimer_init
                0x00000000080013ac       0x30 /home/ch/RIOT/tests/capteur/bin/p-nucleo-wb55/xtimer/xtimer_core.o
                0x00000000080013ac                xtimer_init
 .text._periph_timer_callback
                0x00000000080013dc      0x118 /home/ch/RIOT/tests/capteur/bin/p-nucleo-wb55/xtimer/xtimer_core.o
 .text          0x00000000080014f4      0x168 /usr/lib/gcc/arm-none-eabi/9.2.1/thumb/v7e-m/nofp/libgcc.a(_arm_mulsf3.o)
                0x00000000080014f4                __mulsf3
                0x00000000080014f4                __aeabi_fmul
 .text          0x000000000800165c      0x378 /usr/lib/gcc/arm-none-eabi/9.2.1/thumb/v7e-m/nofp/libgcc.a(_arm_addsubdf3.o)
                0x000000000800165c                __aeabi_drsub
                0x0000000008001664                __aeabi_dsub
                0x0000000008001664                __subdf3
                0x0000000008001668                __adddf3
                0x0000000008001668                __aeabi_dadd
                0x00000000080018e0                __aeabi_ui2d
                0x00000000080018e0                __floatunsidf
                0x0000000008001900                __floatsidf
                0x0000000008001900                __aeabi_i2d
                0x0000000008001924                __extendsfdf2
                0x0000000008001924                __aeabi_f2d
                0x0000000008001968                __aeabi_ul2d
                0x0000000008001968                __floatundidf
                0x0000000008001978                __floatdidf
                0x0000000008001978                __aeabi_l2d
 .text          0x00000000080019d4      0x424 /usr/lib/gcc/arm-none-eabi/9.2.1/thumb/v7e-m/nofp/libgcc.a(_arm_muldivdf3.o)
                0x00000000080019d4                __aeabi_dmul
                0x00000000080019d4                __muldf3
                0x0000000008001c28                __aeabi_ddiv
                0x0000000008001c28                __divdf3
 .text          0x0000000008001df8       0xa0 /usr/lib/gcc/arm-none-eabi/9.2.1/thumb/v7e-m/nofp/libgcc.a(_arm_truncdfsf2.o)
                0x0000000008001df8                __aeabi_d2f
                0x0000000008001df8                __truncdfsf2
 .text          0x0000000008001e98       0x4c /usr/lib/gcc/arm-none-eabi/9.2.1/thumb/v7e-m/nofp/libgcc.a(_arm_fixsfsi.o)
                0x0000000008001e98                __fixsfsi
                0x0000000008001e98                __aeabi_f2iz
 .text          0x0000000008001ee4       0x30 /usr/lib/gcc/arm-none-eabi/9.2.1/thumb/v7e-m/nofp/libgcc.a(_aeabi_uldivmod.o)
                0x0000000008001ee4                __aeabi_uldivmod
 .text          0x0000000008001f14      0x2c0 /usr/lib/gcc/arm-none-eabi/9.2.1/thumb/v7e-m/nofp/libgcc.a(_udivmoddi4.o)
                0x0000000008001f14                __udivmoddi4
 .text          0x00000000080021d4        0x4 /usr/lib/gcc/arm-none-eabi/9.2.1/thumb/v7e-m/nofp/libgcc.a(_dvmd_tls.o)
                0x00000000080021d4                __aeabi_ldiv0
                0x00000000080021d4                __aeabi_idiv0
 .text          0x00000000080021d8       0x48 /usr/lib/gcc/arm-none-eabi/9.2.1/../../../arm-none-eabi/lib/thumb/v7e-m/nofp/libc_nano.a(lib_a-init.o)
                0x00000000080021d8                __libc_init_array
 .text          0x0000000008002220      0x134 /usr/lib/gcc/arm-none-eabi/9.2.1/../../../arm-none-eabi/lib/thumb/v7e-m/nofp/libc_nano.a(lib_a-memcpy.o)
                0x0000000008002220                memcpy
 .text          0x0000000008002354       0xa0 /usr/lib/gcc/arm-none-eabi/9.2.1/../../../arm-none-eabi/lib/thumb/v7e-m/nofp/libc_nano.a(lib_a-memset.o)
                0x0000000008002354                memset
 .text          0x00000000080023f4       0xac /usr/lib/gcc/arm-none-eabi/9.2.1/../../../arm-none-eabi/lib/thumb/v7e-m/nofp/libc_nano.a(lib_a-nano-freer.o)
                0x00000000080023f4                _free_r
 .text          0x00000000080024a0       0xc8 /usr/lib/gcc/arm-none-eabi/9.2.1/../../../arm-none-eabi/lib/thumb/v7e-m/nofp/libc_nano.a(lib_a-nano-mallocr.o)
                0x00000000080024a0                _malloc_r
 .text          0x0000000008002568       0x68 /usr/lib/gcc/arm-none-eabi/9.2.1/../../../arm-none-eabi/lib/thumb/v7e-m/nofp/libc_nano.a(lib_a-printf.o)
                0x0000000008002568                _printf_r
                0x0000000008002568                _iprintf_r
                0x0000000008002598                printf
                0x0000000008002598                iprintf
 .text          0x00000000080025d0       0xe8 /usr/lib/gcc/arm-none-eabi/9.2.1/../../../arm-none-eabi/lib/thumb/v7e-m/nofp/libc_nano.a(lib_a-puts.o)
                0x00000000080025d0                _puts_r
                0x00000000080026a8                puts
 .text          0x00000000080026b8       0x34 /usr/lib/gcc/arm-none-eabi/9.2.1/../../../arm-none-eabi/lib/thumb/v7e-m/nofp/libc_nano.a(lib_a-time.o)
                0x00000000080026b8                time
 .text          0x00000000080026ec       0xc0 /usr/lib/gcc/arm-none-eabi/9.2.1/../../../arm-none-eabi/lib/thumb/v7e-m/nofp/libc_nano.a(lib_a-wbuf.o)
                0x00000000080026ec                __swbuf_r
                0x000000000800279c                __swbuf
 .text          0x00000000080027ac      0x100 /usr/lib/gcc/arm-none-eabi/9.2.1/../../../arm-none-eabi/lib/thumb/v7e-m/nofp/libc_nano.a(lib_a-wsetup.o)
                0x00000000080027ac                __swsetup_r
 .text          0x00000000080028ac      0x1b0 /usr/lib/gcc/arm-none-eabi/9.2.1/../../../arm-none-eabi/lib/thumb/v7e-m/nofp/libc_nano.a(lib_a-fflush.o)
                0x00000000080028ac                __sflush_r
                0x00000000080029d8                _fflush_r
                0x0000000008002a38                fflush
 .text          0x0000000008002a5c      0x210 /usr/lib/gcc/arm-none-eabi/9.2.1/../../../arm-none-eabi/lib/thumb/v7e-m/nofp/libc_nano.a(lib_a-findfp.o)
                0x0000000008002a60                _cleanup_r
                0x0000000008002a70                __sfmoreglue
                0x0000000008002aa0                __sfp
                0x0000000008002c18                _cleanup
                0x0000000008002c2c                __sinit
                0x0000000008002c34                __sfp_lock_acquire
                0x0000000008002c38                __sfp_lock_release
                0x0000000008002c3c                __sinit_lock_acquire
                0x0000000008002c40                __sinit_lock_release
                0x0000000008002c44                __fp_lock_all
                0x0000000008002c58                __fp_unlock_all
 .text          0x0000000008002c6c       0xa0 /usr/lib/gcc/arm-none-eabi/9.2.1/../../../arm-none-eabi/lib/thumb/v7e-m/nofp/libc_nano.a(lib_a-fwalk.o)
                0x0000000008002c6c                _fwalk
                0x0000000008002cb8                _fwalk_reent
 .text          0x0000000008002d0c       0xf0 /usr/lib/gcc/arm-none-eabi/9.2.1/../../../arm-none-eabi/lib/thumb/v7e-m/nofp/libc_nano.a(lib_a-makebuf.o)
                0x0000000008002d0c                __swhatbuf_r
                0x0000000008002d68                __smakebuf_r
 .text          0x0000000008002dfc        0x8 /usr/lib/gcc/arm-none-eabi/9.2.1/../../../arm-none-eabi/lib/thumb/v7e-m/nofp/libc_nano.a(lib_a-mlock.o)
                0x0000000008002dfc                __malloc_lock
                0x0000000008002e00                __malloc_unlock
 .text          0x0000000008002e04       0x4c /usr/lib/gcc/arm-none-eabi/9.2.1/../../../arm-none-eabi/lib/thumb/v7e-m/nofp/libc_nano.a(lib_a-nano-reallocr.o)
                0x0000000008002e04                _realloc_r
 .text          0x0000000008002e50      0x360 /usr/lib/gcc/arm-none-eabi/9.2.1/../../../arm-none-eabi/lib/thumb/v7e-m/nofp/libc_nano.a(lib_a-nano-vfprintf.o)
                0x0000000008002e88                __sfputs_r
                0x0000000008002eb8                __sprint_r
                0x0000000008002ed4                _vfiprintf_r
                0x0000000008002ed4                _vfprintf_r
                0x0000000008003198                vfiprintf
                0x0000000008003198                vfprintf
 .text          0x00000000080031b0      0x3c4 /usr/lib/gcc/arm-none-eabi/9.2.1/../../../arm-none-eabi/lib/thumb/v7e-m/nofp/libc_nano.a(lib_a-nano-vfprintf_i.o)
                0x00000000080031b0                _printf_common
                0x00000000080032dc                _printf_i
 .text          0x0000000008003574       0x90 /usr/lib/gcc/arm-none-eabi/9.2.1/../../../arm-none-eabi/lib/thumb/v7e-m/nofp/libc_nano.a(lib_a-stdio.o)
                0x0000000008003574                __sread
                0x0000000008003598                __seofread
                0x000000000800359c                __swrite
                0x00000000080035dc                __sseek
                0x00000000080035fc                __sclose
 .text          0x0000000008003604      0x308 /usr/lib/gcc/arm-none-eabi/9.2.1/../../../arm-none-eabi/lib/thumb/v7e-m/nofp/libc_nano.a(lib_a-fvwrite.o)
                0x0000000008003604                __sfvwrite_r
 *fill*         0x000000000800390c        0x4 
 .text          0x0000000008003910       0xa0 /usr/lib/gcc/arm-none-eabi/9.2.1/../../../arm-none-eabi/lib/thumb/v7e-m/nofp/libc_nano.a(lib_a-memchr.o)
                0x0000000008003910                memchr
 .text          0x00000000080039b0       0xd0 /usr/lib/gcc/arm-none-eabi/9.2.1/../../../arm-none-eabi/lib/thumb/v7e-m/nofp/libc_nano.a(lib_a-memmove.o)
                0x00000000080039b0                memmove
 .text          0x0000000008003a80       0x10 /usr/lib/gcc/arm-none-eabi/9.2.1/../../../arm-none-eabi/lib/thumb/v7e-m/nofp/libc_nano.a(lib_a-nano-msizer.o)
                0x0000000008003a80                _malloc_usable_size_r
 *(.glue_7t)
 .glue_7t       0x0000000008003a90        0x0 linker stubs
 *(.glue_7)
 .glue_7        0x0000000008003a90        0x0 linker stubs
 *(.rodata .rodata* .gnu.linkonce.r.*)
 .rodata.pulseIn.str1.1
                0x0000000008003a90       0x10 /home/ch/RIOT/tests/capteur/bin/p-nucleo-wb55/application_tests_capteur/main.o
                                         0x14 (size before relaxing)
 .rodata.setup.str1.1
                0x0000000008003aa0       0x10 /home/ch/RIOT/tests/capteur/bin/p-nucleo-wb55/application_tests_capteur/main.o
                                          0x5 (size before relaxing)
 .rodata.loop.str1.1
                0x0000000008003aa0       0x19 /home/ch/RIOT/tests/capteur/bin/p-nucleo-wb55/application_tests_capteur/main.o
 .rodata.main.str1.1
                0x0000000008003ab9       0x1e /home/ch/RIOT/tests/capteur/bin/p-nucleo-wb55/application_tests_capteur/main.o
 .rodata.main_trampoline.str1.1
                0x0000000008003ad7       0x3b /home/ch/RIOT/tests/capteur/bin/p-nucleo-wb55/core/init.o
 .rodata.kernel_init.str1.1
                0x0000000008003b12        0x5 /home/ch/RIOT/tests/capteur/bin/p-nucleo-wb55/core/init.o
 .rodata.core_panic.str1.1
                0x0000000008003b17       0x2e /home/ch/RIOT/tests/capteur/bin/p-nucleo-wb55/core/panic.o
 .rodata.assert_crash_message
                0x0000000008003b45       0x12 /home/ch/RIOT/tests/capteur/bin/p-nucleo-wb55/core/panic.o
                0x0000000008003b45                assert_crash_message
 .rodata._unschedule.str1.1
                0x0000000008003b57       0x2f /home/ch/RIOT/tests/capteur/bin/p-nucleo-wb55/core/sched.o
 .rodata.panic_arch.str1.1
                0x0000000008003b86        0xf /home/ch/RIOT/tests/capteur/bin/p-nucleo-wb55/cortexm_common/panic.o
 .rodata.nmi_default.str1.1
                0x0000000008003b95        0xc /home/ch/RIOT/tests/capteur/bin/p-nucleo-wb55/cortexm_common/vectors_cortexm.o
 .rodata.mem_manage_default.str1.1
                0x0000000008003ba1       0x13 /home/ch/RIOT/tests/capteur/bin/p-nucleo-wb55/cortexm_common/vectors_cortexm.o
 .rodata.bus_fault_default.str1.1
                0x0000000008003bb4       0x12 /home/ch/RIOT/tests/capteur/bin/p-nucleo-wb55/cortexm_common/vectors_cortexm.o
 .rodata.usage_fault_default.str1.1
                0x0000000008003bc6       0x14 /home/ch/RIOT/tests/capteur/bin/p-nucleo-wb55/cortexm_common/vectors_cortexm.o
 .rodata.debug_mon_default.str1.1
                0x0000000008003bda       0x12 /home/ch/RIOT/tests/capteur/bin/p-nucleo-wb55/cortexm_common/vectors_cortexm.o
 .rodata.dummy_handler_default.str1.1
                0x0000000008003bec        0xe /home/ch/RIOT/tests/capteur/bin/p-nucleo-wb55/cortexm_common/vectors_cortexm.o
 .rodata.hard_fault_handler.str1.1
                0x0000000008003bfa      0x233 /home/ch/RIOT/tests/capteur/bin/p-nucleo-wb55/cortexm_common/vectors_cortexm.o
 .rodata.apbmul
                0x0000000008003e2d        0x3 /home/ch/RIOT/tests/capteur/bin/p-nucleo-wb55/cpu/cpu_common.o
 .rodata.timer_config
                0x0000000008003e30       0x10 /home/ch/RIOT/tests/capteur/bin/p-nucleo-wb55/periph/timer.o
 .rodata.uart_config
                0x0000000008003e40       0x38 /home/ch/RIOT/tests/capteur/bin/p-nucleo-wb55/periph/uart.o
 .rodata        0x0000000008003e78        0x4 /usr/lib/gcc/arm-none-eabi/9.2.1/../../../arm-none-eabi/lib/thumb/v7e-m/nofp/libc_nano.a(lib_a-impure.o)
                0x0000000008003e78                _global_impure_ptr
 .rodata        0x0000000008003e7c       0x60 /usr/lib/gcc/arm-none-eabi/9.2.1/../../../arm-none-eabi/lib/thumb/v7e-m/nofp/libc_nano.a(lib_a-findfp.o)
                0x0000000008003e7c                __sf_fake_stderr
                0x0000000008003e9c                __sf_fake_stdout
                0x0000000008003ebc                __sf_fake_stdin
 .rodata.str1.4
                0x0000000008003edc       0x13 /usr/lib/gcc/arm-none-eabi/9.2.1/../../../arm-none-eabi/lib/thumb/v7e-m/nofp/libc_nano.a(lib_a-nano-vfprintf.o)
 *fill*         0x0000000008003eef        0x1 
 .rodata.str1.4
                0x0000000008003ef0       0x25 /usr/lib/gcc/arm-none-eabi/9.2.1/../../../arm-none-eabi/lib/thumb/v7e-m/nofp/libc_nano.a(lib_a-nano-vfprintf_i.o)
 *(SORT_BY_NAME(.roxfa.*))
 *(.ARM.extab* .gnu.linkonce.armextab.*)
                0x0000000008003f18                . = ALIGN (0x4)
 *fill*         0x0000000008003f15        0x3 
 *(.init)
                0x0000000008003f18                . = ALIGN (0x4)
                0x0000000008003f18                __preinit_array_start = .
 *(.preinit_array)
                0x0000000008003f18                __preinit_array_end = .
                0x0000000008003f18                . = ALIGN (0x4)
                0x0000000008003f18                __init_array_start = .
 *(SORT_BY_NAME(.init_array.*))
 *(.init_array)
                0x0000000008003f18                __init_array_end = .
                0x0000000008003f18                . = ALIGN (0x4)
 *crtbegin.o(.ctors)
 *(EXCLUDE_FILE(*crtend.o) .ctors)
 *(SORT_BY_NAME(.ctors.*))
 *crtend.o(.ctors)
                0x0000000008003f18                . = ALIGN (0x4)
 *(.fini)
                0x0000000008003f18                . = ALIGN (0x4)
                0x0000000008003f18                __fini_array_start = .
 *(.fini_array)
 *(SORT_BY_NAME(.fini_array.*))
                0x0000000008003f18                __fini_array_end = .
 *crtbegin.o(.dtors)
 *(EXCLUDE_FILE(*crtend.o) .dtors)
 *(SORT_BY_NAME(.dtors.*))
 *crtend.o(.dtors)
                0x0000000008003f18                . = ALIGN (0x4)
                0x0000000008003f18                _efixed = .

.vfp11_veneer   0x0000000008003f18        0x0
 .vfp11_veneer  0x0000000008003f18        0x0 linker stubs

.v4_bx          0x0000000008003f18        0x0
 .v4_bx         0x0000000008003f18        0x0 linker stubs

.iplt           0x0000000008003f18        0x0
 .iplt          0x0000000008003f18        0x0 /home/ch/RIOT/tests/capteur/bin/p-nucleo-wb55/application_tests_capteur/main.o

.igot.plt       0x0000000008003f18        0x0
 .igot.plt      0x0000000008003f18        0x0 /home/ch/RIOT/tests/capteur/bin/p-nucleo-wb55/application_tests_capteur/main.o

.tdata          0x0000000008003f18        0x0
                0x0000000008003f18                __tdata_start = .
 *(.tdata .tdata.* .gnu.linkonce.td.*)
                0x0000000008003f18                __tdata_end = .
                0x0000000008003f18                __tdata_source = LOADADDR (.tdata)
                0x0000000000000000                __tdata_size = SIZEOF (.tdata)

.tbss           0x0000000008003f18        0x0
 *(.tbss .tbss.* .gnu.linkonce.tb.*)
 *(.tcommon)
                0x0000000008003f18                __tbss_end = .
                0x0000000000000000                __tls_size = (__tbss_end - __tdata_start)
                0x0000000000000000                __tbss_size = (__tls_size - __tdata_size)
                [!provide]                        PROVIDE (__exidx_start = .)

.ARM.exidx      0x0000000008003f18        0x8
 *(.ARM.exidx* .gnu.linkonce.armexidx.*)
 .ARM.exidx     0x0000000008003f18        0x8 /usr/lib/gcc/arm-none-eabi/9.2.1/thumb/v7e-m/nofp/libgcc.a(_udivmoddi4.o)
                [!provide]                        PROVIDE (__exidx_end = .)

.rel.dyn        0x0000000008003f20        0x0
 .rel.iplt      0x0000000008003f20        0x0 /home/ch/RIOT/tests/capteur/bin/p-nucleo-wb55/application_tests_capteur/main.o
                0x0000000008003f20                . = ALIGN (0x4)

.eh_frame
 *(.eh_frame)
                0x0000000008003f20                . = ALIGN (0x4)
                0x0000000008003f20                _etext = .

.stack          0x0000000020000000      0x200
 *(.puf)
                0x0000000020000000                . = ALIGN (0x8)
                0x0000000020000000                _sstack = .
 *(.isr_stack)
 .isr_stack     0x0000000020000000      0x200 /home/ch/RIOT/tests/capteur/bin/p-nucleo-wb55/cortexm_common/vectors_cortexm.o
                0x0000000020000000                isr_stack
                0x0000000020000200                . = ALIGN (0x8)
                0x0000000020000200                _estack = .

.relocate       0x0000000020000200       0x78 load address 0x0000000008003f20
                0x0000000020000200                . = ALIGN (0x4)
                0x0000000020000200                _srelocate = .
 *(.ramfunc .ramfunc.*)
 *(.data .data.*)
 .data.pin      0x0000000020000200        0x4 /home/ch/RIOT/tests/capteur/bin/p-nucleo-wb55/application_tests_capteur/main.o
                0x0000000020000200                pin
 .data.sampletime_ms
                0x0000000020000204        0x4 /home/ch/RIOT/tests/capteur/bin/p-nucleo-wb55/application_tests_capteur/main.o
                0x0000000020000204                sampletime_ms
 .data.heap_top
                0x0000000020000208        0x4 /home/ch/RIOT/tests/capteur/bin/p-nucleo-wb55/newlib_syscalls_default/syscalls.o
 .data.pm_blocker
                0x000000002000020c        0x4 /home/ch/RIOT/tests/capteur/bin/p-nucleo-wb55/pm_layered/pm.o
 .data          0x0000000020000210       0x64 /usr/lib/gcc/arm-none-eabi/9.2.1/../../../arm-none-eabi/lib/thumb/v7e-m/nofp/libc_nano.a(lib_a-impure.o)
                0x0000000020000210                _impure_ptr
 *(SORT_BY_NAME(.xfa.*))
 *(.openocd .openocd.*)
 .openocd       0x0000000020000274        0x2 /home/ch/RIOT/tests/capteur/bin/p-nucleo-wb55/core/sched.o
                0x0000000020000274                _tcb_name_offset
                0x0000000020000275                max_threads
                0x0000000020000278                . = ALIGN (0x4)
 *fill*         0x0000000020000276        0x2 
                0x0000000020000278                _erelocate = .

.bss            0x0000000020000278      0x730 load address 0x0000000008003f98
                0x0000000020000278                . = ALIGN (0x4)
                0x0000000020000278                _sbss = .
                0x0000000020000278                _szero = .
 *(.bss .bss.*)
 .bss.concentration
                0x0000000020000278        0x4 /home/ch/RIOT/tests/capteur/bin/p-nucleo-wb55/application_tests_capteur/main.o
                0x0000000020000278                concentration
 .bss.duration  0x000000002000027c        0x4 /home/ch/RIOT/tests/capteur/bin/p-nucleo-wb55/application_tests_capteur/main.o
                0x000000002000027c                duration
 .bss.lowpulseoccupancy
                0x0000000020000280        0x4 /home/ch/RIOT/tests/capteur/bin/p-nucleo-wb55/application_tests_capteur/main.o
                0x0000000020000280                lowpulseoccupancy
 .bss.ratio     0x0000000020000284        0x4 /home/ch/RIOT/tests/capteur/bin/p-nucleo-wb55/application_tests_capteur/main.o
                0x0000000020000284                ratio
 .bss.starttime
                0x0000000020000288        0x4 /home/ch/RIOT/tests/capteur/bin/p-nucleo-wb55/application_tests_capteur/main.o
                0x0000000020000288                starttime
 .bss.main_stack
                0x000000002000028c      0x600 /home/ch/RIOT/tests/capteur/bin/p-nucleo-wb55/core/init.o
 .bss.crashed   0x000000002000088c        0x4 /home/ch/RIOT/tests/capteur/bin/p-nucleo-wb55/core/panic.o
 .bss.runqueue_bitcache
                0x0000000020000890        0x4 /home/ch/RIOT/tests/capteur/bin/p-nucleo-wb55/core/sched.o
 .bss.sched_active_pid
                0x0000000020000894        0x2 /home/ch/RIOT/tests/capteur/bin/p-nucleo-wb55/core/sched.o
                0x0000000020000894                sched_active_pid
 *fill*         0x0000000020000896        0x2 
 .bss.sched_active_thread
                0x0000000020000898        0x4 /home/ch/RIOT/tests/capteur/bin/p-nucleo-wb55/core/sched.o
                0x0000000020000898                sched_active_thread
 .bss.sched_context_switch_request
                0x000000002000089c        0x4 /home/ch/RIOT/tests/capteur/bin/p-nucleo-wb55/core/sched.o
                0x000000002000089c                sched_context_switch_request
 .bss.sched_num_threads
                0x00000000200008a0        0x4 /home/ch/RIOT/tests/capteur/bin/p-nucleo-wb55/core/sched.o
                0x00000000200008a0                sched_num_threads
 .bss.sched_runqueues
                0x00000000200008a4       0x40 /home/ch/RIOT/tests/capteur/bin/p-nucleo-wb55/core/sched.o
                0x00000000200008a4                sched_runqueues
 .bss.sched_threads
                0x00000000200008e4       0x84 /home/ch/RIOT/tests/capteur/bin/p-nucleo-wb55/core/sched.o
                0x00000000200008e4                sched_threads
 .bss.isr_ctx   0x0000000020000968        0x8 /home/ch/RIOT/tests/capteur/bin/p-nucleo-wb55/periph/timer.o
 .bss.isr_ctx   0x0000000020000970       0x18 /home/ch/RIOT/tests/capteur/bin/p-nucleo-wb55/periph/uart.o
 .bss._in_handler
                0x0000000020000988        0x4 /home/ch/RIOT/tests/capteur/bin/p-nucleo-wb55/xtimer/xtimer_core.o
 .bss._lltimer_ongoing
                0x000000002000098c        0x1 /home/ch/RIOT/tests/capteur/bin/p-nucleo-wb55/xtimer/xtimer_core.o
 *fill*         0x000000002000098d        0x3 
 .bss._xtimer_current_time
                0x0000000020000990        0x8 /home/ch/RIOT/tests/capteur/bin/p-nucleo-wb55/xtimer/xtimer_core.o
                0x0000000020000990                _xtimer_current_time
 .bss.long_list_head
                0x0000000020000998        0x4 /home/ch/RIOT/tests/capteur/bin/p-nucleo-wb55/xtimer/xtimer_core.o
 .bss.timer_list_head
                0x000000002000099c        0x4 /home/ch/RIOT/tests/capteur/bin/p-nucleo-wb55/xtimer/xtimer_core.o
 .bss           0x00000000200009a0        0x8 /usr/lib/gcc/arm-none-eabi/9.2.1/../../../arm-none-eabi/lib/thumb/v7e-m/nofp/libc_nano.a(lib_a-nano-mallocr.o)
                0x00000000200009a0                __malloc_free_list
                0x00000000200009a4                __malloc_sbrk_start
 *(COMMON)
                0x00000000200009a8                . = ALIGN (0x4)
                0x00000000200009a8                _ebss = .
                0x00000000200009a8                _ezero = .

.noinit         0x00000000200009a8        0x0 load address 0x0000000008003f98
                0x00000000200009a8                __noinit_start = .
 *(.noinit)
                0x00000000200009a8                . = ALIGN (0x4)
                0x00000000200009a8                __noinit_end = .
                0x00000000200009a8                . = ALIGN (0x4)
                0x00000000200009a8                _sheap = .
                0x0000000020030000                _eheap = (ORIGIN (ram) + LENGTH (ram))
                0x0000000020000000                _sram = ORIGIN (ram)
                0x0000000020030000                _eram = (ORIGIN (ram) + LENGTH (ram))
                0x0000000008000000                _srom = ORIGIN (rom)
                0x00000000080ca000                _erom = (ORIGIN (rom) + LENGTH (rom))
                0x0000000008003f98                _sbackup_data_load = LOADADDR (.backup.data)

.backup.data    0x0000000000000000        0x0 load address 0x0000000008003f98
                0x0000000000000000                _sbackup_data = .
 *(.backup.data)
                0x0000000000000000                _ebackup_data = .
                0x0000000000000000                . = ALIGN (0x4)

.backup.bss     0x0000000000000000        0x0 load address 0x0000000008003f98
                0x0000000000000000                _sbackup_bss = .
 *(.backup.bss)
                0x0000000000000000                _ebackup_bss = .
                0x0000000000000000                . = ALIGN (0x4)

.heap3          0x0000000000000000        0x0 load address 0x0000000008003f98
                0x0000000000000000                _sheap1 = .
                0x0000000000000000                _eheap1 = (ORIGIN (bkup_ram) + LENGTH (bkup_ram))

.end_fw         0x0000000008003f98        0x0
                0x0000000008003f98                _end_fw = .
OUTPUT(/home/ch/RIOT/tests/capteur/bin/p-nucleo-wb55/tests_capteur.elf elf32-littlearm)
LOAD linker stubs

.debug_info     0x0000000000000000    0x3755b
 .debug_info    0x0000000000000000     0x1a29 /home/ch/RIOT/tests/capteur/bin/p-nucleo-wb55/application_tests_capteur/main.o
 .debug_info    0x0000000000001a29      0xd3f /home/ch/RIOT/tests/capteur/bin/p-nucleo-wb55/auto_init/auto_init.o
 .debug_info    0x0000000000002768     0x15e3 /home/ch/RIOT/tests/capteur/bin/p-nucleo-wb55/boards_common_nucleo/board_common_nucleo_init.o
 .debug_info    0x0000000000003d4b      0xe90 /home/ch/RIOT/tests/capteur/bin/p-nucleo-wb55/core/init.o
 .debug_info    0x0000000000004bdb      0xf0b /home/ch/RIOT/tests/capteur/bin/p-nucleo-wb55/core/panic.o
 .debug_info    0x0000000000005ae6     0x14b1 /home/ch/RIOT/tests/capteur/bin/p-nucleo-wb55/core/sched.o
 .debug_info    0x0000000000006f97     0x1e7a /home/ch/RIOT/tests/capteur/bin/p-nucleo-wb55/core/thread.o
 .debug_info    0x0000000000008e11     0x139e /home/ch/RIOT/tests/capteur/bin/p-nucleo-wb55/cortexm_common/cortexm_init.o
 .debug_info    0x000000000000a1af      0xd6b /home/ch/RIOT/tests/capteur/bin/p-nucleo-wb55/cortexm_common/panic.o
 .debug_info    0x000000000000af1a     0x12a1 /home/ch/RIOT/tests/capteur/bin/p-nucleo-wb55/cortexm_common/thread_arch.o
 .debug_info    0x000000000000c1bb     0x1f87 /home/ch/RIOT/tests/capteur/bin/p-nucleo-wb55/cortexm_common/vectors_cortexm.o
 .debug_info    0x000000000000e142     0x19fd /home/ch/RIOT/tests/capteur/bin/p-nucleo-wb55/cpu/cpu_common.o
 .debug_info    0x000000000000fb3f     0x1602 /home/ch/RIOT/tests/capteur/bin/p-nucleo-wb55/cpu/cpu_init.o
 .debug_info    0x0000000000011141      0xa2f /home/ch/RIOT/tests/capteur/bin/p-nucleo-wb55/div/div.o
 .debug_info    0x0000000000011b70     0x2532 /home/ch/RIOT/tests/capteur/bin/p-nucleo-wb55/newlib_syscalls_default/syscalls.o
 .debug_info    0x00000000000140a2      0xc8e /home/ch/RIOT/tests/capteur/bin/p-nucleo-wb55/periph_common/init.o
 .debug_info    0x0000000000014d30     0x1eac /home/ch/RIOT/tests/capteur/bin/p-nucleo-wb55/periph/gpio_all.o
 .debug_info    0x0000000000016bdc     0x11e0 /home/ch/RIOT/tests/capteur/bin/p-nucleo-wb55/periph/pm.o
 .debug_info    0x0000000000017dbc     0x1ed5 /home/ch/RIOT/tests/capteur/bin/p-nucleo-wb55/periph/timer.o
 .debug_info    0x0000000000019c91     0x268b /home/ch/RIOT/tests/capteur/bin/p-nucleo-wb55/periph/uart.o
 .debug_info    0x000000000001c31c     0x11b7 /home/ch/RIOT/tests/capteur/bin/p-nucleo-wb55/pm_layered/pm.o
 .debug_info    0x000000000001d4d3     0x16b8 /home/ch/RIOT/tests/capteur/bin/p-nucleo-wb55/stdio_uart/stdio_uart.o
 .debug_info    0x000000000001eb8b     0x1abb /home/ch/RIOT/tests/capteur/bin/p-nucleo-wb55/stm32_clk/stmclk_common.o
 .debug_info    0x0000000000020646     0x1bae /home/ch/RIOT/tests/capteur/bin/p-nucleo-wb55/stm32_clk/stmclk_l4wx.o
 .debug_info    0x00000000000221f4      0x2b8 /home/ch/RIOT/tests/capteur/bin/p-nucleo-wb55/stm32_vectors/STM32WB55xx.o
 .debug_info    0x00000000000224ac     0x207c /home/ch/RIOT/tests/capteur/bin/p-nucleo-wb55/xtimer/xtimer_core.o
 .debug_info    0x0000000000024528       0x26 /usr/lib/gcc/arm-none-eabi/9.2.1/thumb/v7e-m/nofp/libgcc.a(_arm_mulsf3.o)
 .debug_info    0x000000000002454e       0x26 /usr/lib/gcc/arm-none-eabi/9.2.1/thumb/v7e-m/nofp/libgcc.a(_arm_addsubdf3.o)
 .debug_info    0x0000000000024574       0x26 /usr/lib/gcc/arm-none-eabi/9.2.1/thumb/v7e-m/nofp/libgcc.a(_arm_muldivdf3.o)
 .debug_info    0x000000000002459a       0x26 /usr/lib/gcc/arm-none-eabi/9.2.1/thumb/v7e-m/nofp/libgcc.a(_arm_truncdfsf2.o)
 .debug_info    0x00000000000245c0       0x26 /usr/lib/gcc/arm-none-eabi/9.2.1/thumb/v7e-m/nofp/libgcc.a(_arm_fixsfsi.o)
 .debug_info    0x00000000000245e6       0x26 /usr/lib/gcc/arm-none-eabi/9.2.1/thumb/v7e-m/nofp/libgcc.a(_aeabi_uldivmod.o)
 .debug_info    0x000000000002460c      0xd7c /usr/lib/gcc/arm-none-eabi/9.2.1/thumb/v7e-m/nofp/libgcc.a(_udivmoddi4.o)
 .debug_info    0x0000000000025388       0x26 /usr/lib/gcc/arm-none-eabi/9.2.1/thumb/v7e-m/nofp/libgcc.a(_dvmd_tls.o)
 .debug_info    0x00000000000253ae      0x92a /usr/lib/gcc/arm-none-eabi/9.2.1/../../../arm-none-eabi/lib/thumb/v7e-m/nofp/libc_nano.a(lib_a-impure.o)
 .debug_info    0x0000000000025cd8      0x11a /usr/lib/gcc/arm-none-eabi/9.2.1/../../../arm-none-eabi/lib/thumb/v7e-m/nofp/libc_nano.a(lib_a-init.o)
 .debug_info    0x0000000000025df2       0x26 /usr/lib/gcc/arm-none-eabi/9.2.1/../../../arm-none-eabi/lib/thumb/v7e-m/nofp/libc_nano.a(lib_a-memcpy.o)
 .debug_info    0x0000000000025e18      0xf21 /usr/lib/gcc/arm-none-eabi/9.2.1/../../../arm-none-eabi/lib/thumb/v7e-m/nofp/libc_nano.a(lib_a-memset.o)
 .debug_info    0x0000000000026d39      0xb85 /usr/lib/gcc/arm-none-eabi/9.2.1/../../../arm-none-eabi/lib/thumb/v7e-m/nofp/libc_nano.a(lib_a-nano-freer.o)
 .debug_info    0x00000000000278be      0xc5a /usr/lib/gcc/arm-none-eabi/9.2.1/../../../arm-none-eabi/lib/thumb/v7e-m/nofp/libc_nano.a(lib_a-nano-mallocr.o)
 .debug_info    0x0000000000028518      0xc67 /usr/lib/gcc/arm-none-eabi/9.2.1/../../../arm-none-eabi/lib/thumb/v7e-m/nofp/libc_nano.a(lib_a-printf.o)
 .debug_info    0x000000000002917f      0xd13 /usr/lib/gcc/arm-none-eabi/9.2.1/../../../arm-none-eabi/lib/thumb/v7e-m/nofp/libc_nano.a(lib_a-puts.o)
 .debug_info    0x0000000000029e92      0x9f9 /usr/lib/gcc/arm-none-eabi/9.2.1/../../../arm-none-eabi/lib/thumb/v7e-m/nofp/libc_nano.a(lib_a-time.o)
 .debug_info    0x000000000002a88b      0xc90 /usr/lib/gcc/arm-none-eabi/9.2.1/../../../arm-none-eabi/lib/thumb/v7e-m/nofp/libc_nano.a(lib_a-wbuf.o)
 .debug_info    0x000000000002b51b      0xbfa /usr/lib/gcc/arm-none-eabi/9.2.1/../../../arm-none-eabi/lib/thumb/v7e-m/nofp/libc_nano.a(lib_a-wsetup.o)
 .debug_info    0x000000000002c115      0xd73 /usr/lib/gcc/arm-none-eabi/9.2.1/../../../arm-none-eabi/lib/thumb/v7e-m/nofp/libc_nano.a(lib_a-fflush.o)
 .debug_info    0x000000000002ce88     0x11a8 /usr/lib/gcc/arm-none-eabi/9.2.1/../../../arm-none-eabi/lib/thumb/v7e-m/nofp/libc_nano.a(lib_a-findfp.o)
 .debug_info    0x000000000002e030      0xca4 /usr/lib/gcc/arm-none-eabi/9.2.1/../../../arm-none-eabi/lib/thumb/v7e-m/nofp/libc_nano.a(lib_a-fwalk.o)
 .debug_info    0x000000000002ecd4      0xf68 /usr/lib/gcc/arm-none-eabi/9.2.1/../../../arm-none-eabi/lib/thumb/v7e-m/nofp/libc_nano.a(lib_a-makebuf.o)
 .debug_info    0x000000000002fc3c      0x961 /usr/lib/gcc/arm-none-eabi/9.2.1/../../../arm-none-eabi/lib/thumb/v7e-m/nofp/libc_nano.a(lib_a-mlock.o)
 .debug_info    0x000000000003059d      0xb77 /usr/lib/gcc/arm-none-eabi/9.2.1/../../../arm-none-eabi/lib/thumb/v7e-m/nofp/libc_nano.a(lib_a-nano-reallocr.o)
 .debug_info    0x0000000000031114     0x176a /usr/lib/gcc/arm-none-eabi/9.2.1/../../../arm-none-eabi/lib/thumb/v7e-m/nofp/libc_nano.a(lib_a-nano-vfprintf.o)
 .debug_info    0x000000000003287e     0x1592 /usr/lib/gcc/arm-none-eabi/9.2.1/../../../arm-none-eabi/lib/thumb/v7e-m/nofp/libc_nano.a(lib_a-nano-vfprintf_i.o)
 .debug_info    0x0000000000033e10      0xe67 /usr/lib/gcc/arm-none-eabi/9.2.1/../../../arm-none-eabi/lib/thumb/v7e-m/nofp/libc_nano.a(lib_a-stdio.o)
 .debug_info    0x0000000000034c77      0xeed /usr/lib/gcc/arm-none-eabi/9.2.1/../../../arm-none-eabi/lib/thumb/v7e-m/nofp/libc_nano.a(lib_a-fvwrite.o)
 .debug_info    0x0000000000035b64       0x26 /usr/lib/gcc/arm-none-eabi/9.2.1/../../../arm-none-eabi/lib/thumb/v7e-m/nofp/libc_nano.a(lib_a-memchr.o)
 .debug_info    0x0000000000035b8a      0xf2b /usr/lib/gcc/arm-none-eabi/9.2.1/../../../arm-none-eabi/lib/thumb/v7e-m/nofp/libc_nano.a(lib_a-memmove.o)
 .debug_info    0x0000000000036ab5      0xaa6 /usr/lib/gcc/arm-none-eabi/9.2.1/../../../arm-none-eabi/lib/thumb/v7e-m/nofp/libc_nano.a(lib_a-nano-msizer.o)

.debug_abbrev   0x0000000000000000     0x9500
 .debug_abbrev  0x0000000000000000      0x3ed /home/ch/RIOT/tests/capteur/bin/p-nucleo-wb55/application_tests_capteur/main.o
 .debug_abbrev  0x00000000000003ed      0x231 /home/ch/RIOT/tests/capteur/bin/p-nucleo-wb55/auto_init/auto_init.o
 .debug_abbrev  0x000000000000061e      0x2d4 /home/ch/RIOT/tests/capteur/bin/p-nucleo-wb55/boards_common_nucleo/board_common_nucleo_init.o
 .debug_abbrev  0x00000000000008f2      0x32c /home/ch/RIOT/tests/capteur/bin/p-nucleo-wb55/core/init.o
 .debug_abbrev  0x0000000000000c1e      0x364 /home/ch/RIOT/tests/capteur/bin/p-nucleo-wb55/core/panic.o
 .debug_abbrev  0x0000000000000f82      0x4d7 /home/ch/RIOT/tests/capteur/bin/p-nucleo-wb55/core/sched.o
 .debug_abbrev  0x0000000000001459      0x532 /home/ch/RIOT/tests/capteur/bin/p-nucleo-wb55/core/thread.o
 .debug_abbrev  0x000000000000198b      0x3b5 /home/ch/RIOT/tests/capteur/bin/p-nucleo-wb55/cortexm_common/cortexm_init.o
 .debug_abbrev  0x0000000000001d40      0x2fe /home/ch/RIOT/tests/capteur/bin/p-nucleo-wb55/cortexm_common/panic.o
 .debug_abbrev  0x000000000000203e      0x48e /home/ch/RIOT/tests/capteur/bin/p-nucleo-wb55/cortexm_common/thread_arch.o
 .debug_abbrev  0x00000000000024cc      0x4a6 /home/ch/RIOT/tests/capteur/bin/p-nucleo-wb55/cortexm_common/vectors_cortexm.o
 .debug_abbrev  0x0000000000002972      0x37d /home/ch/RIOT/tests/capteur/bin/p-nucleo-wb55/cpu/cpu_common.o
 .debug_abbrev  0x0000000000002cef      0x2ee /home/ch/RIOT/tests/capteur/bin/p-nucleo-wb55/cpu/cpu_init.o
 .debug_abbrev  0x0000000000002fdd      0x1d2 /home/ch/RIOT/tests/capteur/bin/p-nucleo-wb55/div/div.o
 .debug_abbrev  0x00000000000031af      0x55e /home/ch/RIOT/tests/capteur/bin/p-nucleo-wb55/newlib_syscalls_default/syscalls.o
 .debug_abbrev  0x000000000000370d      0x26a /home/ch/RIOT/tests/capteur/bin/p-nucleo-wb55/periph_common/init.o
 .debug_abbrev  0x0000000000003977      0x3ee /home/ch/RIOT/tests/capteur/bin/p-nucleo-wb55/periph/gpio_all.o
 .debug_abbrev  0x0000000000003d65      0x3cc /home/ch/RIOT/tests/capteur/bin/p-nucleo-wb55/periph/pm.o
 .debug_abbrev  0x0000000000004131      0x47e /home/ch/RIOT/tests/capteur/bin/p-nucleo-wb55/periph/timer.o
 .debug_abbrev  0x00000000000045af      0x52b /home/ch/RIOT/tests/capteur/bin/p-nucleo-wb55/periph/uart.o
 .debug_abbrev  0x0000000000004ada      0x3a1 /home/ch/RIOT/tests/capteur/bin/p-nucleo-wb55/pm_layered/pm.o
 .debug_abbrev  0x0000000000004e7b      0x344 /home/ch/RIOT/tests/capteur/bin/p-nucleo-wb55/stdio_uart/stdio_uart.o
 .debug_abbrev  0x00000000000051bf      0x2fb /home/ch/RIOT/tests/capteur/bin/p-nucleo-wb55/stm32_clk/stmclk_common.o
 .debug_abbrev  0x00000000000054ba      0x39b /home/ch/RIOT/tests/capteur/bin/p-nucleo-wb55/stm32_clk/stmclk_l4wx.o
 .debug_abbrev  0x0000000000005855       0xf4 /home/ch/RIOT/tests/capteur/bin/p-nucleo-wb55/stm32_vectors/STM32WB55xx.o
 .debug_abbrev  0x0000000000005949      0x541 /home/ch/RIOT/tests/capteur/bin/p-nucleo-wb55/xtimer/xtimer_core.o
 .debug_abbrev  0x0000000000005e8a       0x14 /usr/lib/gcc/arm-none-eabi/9.2.1/thumb/v7e-m/nofp/libgcc.a(_arm_mulsf3.o)
 .debug_abbrev  0x0000000000005e9e       0x14 /usr/lib/gcc/arm-none-eabi/9.2.1/thumb/v7e-m/nofp/libgcc.a(_arm_addsubdf3.o)
 .debug_abbrev  0x0000000000005eb2       0x14 /usr/lib/gcc/arm-none-eabi/9.2.1/thumb/v7e-m/nofp/libgcc.a(_arm_muldivdf3.o)
 .debug_abbrev  0x0000000000005ec6       0x14 /usr/lib/gcc/arm-none-eabi/9.2.1/thumb/v7e-m/nofp/libgcc.a(_arm_truncdfsf2.o)
 .debug_abbrev  0x0000000000005eda       0x14 /usr/lib/gcc/arm-none-eabi/9.2.1/thumb/v7e-m/nofp/libgcc.a(_arm_fixsfsi.o)
 .debug_abbrev  0x0000000000005eee       0x14 /usr/lib/gcc/arm-none-eabi/9.2.1/thumb/v7e-m/nofp/libgcc.a(_aeabi_uldivmod.o)
 .debug_abbrev  0x0000000000005f02      0x1c2 /usr/lib/gcc/arm-none-eabi/9.2.1/thumb/v7e-m/nofp/libgcc.a(_udivmoddi4.o)
 .debug_abbrev  0x00000000000060c4       0x14 /usr/lib/gcc/arm-none-eabi/9.2.1/thumb/v7e-m/nofp/libgcc.a(_dvmd_tls.o)
 .debug_abbrev  0x00000000000060d8      0x17a /usr/lib/gcc/arm-none-eabi/9.2.1/../../../arm-none-eabi/lib/thumb/v7e-m/nofp/libc_nano.a(lib_a-impure.o)
 .debug_abbrev  0x0000000000006252       0xcc /usr/lib/gcc/arm-none-eabi/9.2.1/../../../arm-none-eabi/lib/thumb/v7e-m/nofp/libc_nano.a(lib_a-init.o)
 .debug_abbrev  0x000000000000631e       0x14 /usr/lib/gcc/arm-none-eabi/9.2.1/../../../arm-none-eabi/lib/thumb/v7e-m/nofp/libc_nano.a(lib_a-memcpy.o)
 .debug_abbrev  0x0000000000006332      0x1d9 /usr/lib/gcc/arm-none-eabi/9.2.1/../../../arm-none-eabi/lib/thumb/v7e-m/nofp/libc_nano.a(lib_a-memset.o)
 .debug_abbrev  0x000000000000650b      0x286 /usr/lib/gcc/arm-none-eabi/9.2.1/../../../arm-none-eabi/lib/thumb/v7e-m/nofp/libc_nano.a(lib_a-nano-freer.o)
 .debug_abbrev  0x0000000000006791      0x2d1 /usr/lib/gcc/arm-none-eabi/9.2.1/../../../arm-none-eabi/lib/thumb/v7e-m/nofp/libc_nano.a(lib_a-nano-mallocr.o)
 .debug_abbrev  0x0000000000006a62      0x29f /usr/lib/gcc/arm-none-eabi/9.2.1/../../../arm-none-eabi/lib/thumb/v7e-m/nofp/libc_nano.a(lib_a-printf.o)
 .debug_abbrev  0x0000000000006d01      0x2de /usr/lib/gcc/arm-none-eabi/9.2.1/../../../arm-none-eabi/lib/thumb/v7e-m/nofp/libc_nano.a(lib_a-puts.o)
 .debug_abbrev  0x0000000000006fdf      0x1e4 /usr/lib/gcc/arm-none-eabi/9.2.1/../../../arm-none-eabi/lib/thumb/v7e-m/nofp/libc_nano.a(lib_a-time.o)
 .debug_abbrev  0x00000000000071c3      0x285 /usr/lib/gcc/arm-none-eabi/9.2.1/../../../arm-none-eabi/lib/thumb/v7e-m/nofp/libc_nano.a(lib_a-wbuf.o)
 .debug_abbrev  0x0000000000007448      0x23a /usr/lib/gcc/arm-none-eabi/9.2.1/../../../arm-none-eabi/lib/thumb/v7e-m/nofp/libc_nano.a(lib_a-wsetup.o)
 .debug_abbrev  0x0000000000007682      0x2e4 /usr/lib/gcc/arm-none-eabi/9.2.1/../../../arm-none-eabi/lib/thumb/v7e-m/nofp/libc_nano.a(lib_a-fflush.o)
 .debug_abbrev  0x0000000000007966      0x3dc /usr/lib/gcc/arm-none-eabi/9.2.1/../../../arm-none-eabi/lib/thumb/v7e-m/nofp/libc_nano.a(lib_a-findfp.o)
 .debug_abbrev  0x0000000000007d42      0x210 /usr/lib/gcc/arm-none-eabi/9.2.1/../../../arm-none-eabi/lib/thumb/v7e-m/nofp/libc_nano.a(lib_a-fwalk.o)
 .debug_abbrev  0x0000000000007f52      0x2f6 /usr/lib/gcc/arm-none-eabi/9.2.1/../../../arm-none-eabi/lib/thumb/v7e-m/nofp/libc_nano.a(lib_a-makebuf.o)
 .debug_abbrev  0x0000000000008248      0x1c5 /usr/lib/gcc/arm-none-eabi/9.2.1/../../../arm-none-eabi/lib/thumb/v7e-m/nofp/libc_nano.a(lib_a-mlock.o)
 .debug_abbrev  0x000000000000840d      0x22a /usr/lib/gcc/arm-none-eabi/9.2.1/../../../arm-none-eabi/lib/thumb/v7e-m/nofp/libc_nano.a(lib_a-nano-reallocr.o)
 .debug_abbrev  0x0000000000008637      0x337 /usr/lib/gcc/arm-none-eabi/9.2.1/../../../arm-none-eabi/lib/thumb/v7e-m/nofp/libc_nano.a(lib_a-nano-vfprintf.o)
 .debug_abbrev  0x000000000000896e      0x2dc /usr/lib/gcc/arm-none-eabi/9.2.1/../../../arm-none-eabi/lib/thumb/v7e-m/nofp/libc_nano.a(lib_a-nano-vfprintf_i.o)
 .debug_abbrev  0x0000000000008c4a      0x26f /usr/lib/gcc/arm-none-eabi/9.2.1/../../../arm-none-eabi/lib/thumb/v7e-m/nofp/libc_nano.a(lib_a-stdio.o)
 .debug_abbrev  0x0000000000008eb9      0x270 /usr/lib/gcc/arm-none-eabi/9.2.1/../../../arm-none-eabi/lib/thumb/v7e-m/nofp/libc_nano.a(lib_a-fvwrite.o)
 .debug_abbrev  0x0000000000009129       0x14 /usr/lib/gcc/arm-none-eabi/9.2.1/../../../arm-none-eabi/lib/thumb/v7e-m/nofp/libc_nano.a(lib_a-memchr.o)
 .debug_abbrev  0x000000000000913d      0x1de /usr/lib/gcc/arm-none-eabi/9.2.1/../../../arm-none-eabi/lib/thumb/v7e-m/nofp/libc_nano.a(lib_a-memmove.o)
 .debug_abbrev  0x000000000000931b      0x1e5 /usr/lib/gcc/arm-none-eabi/9.2.1/../../../arm-none-eabi/lib/thumb/v7e-m/nofp/libc_nano.a(lib_a-nano-msizer.o)

.debug_loc      0x0000000000000000     0x862d
 .debug_loc     0x0000000000000000      0x19c /home/ch/RIOT/tests/capteur/bin/p-nucleo-wb55/application_tests_capteur/main.o
 .debug_loc     0x000000000000019c       0x2a /home/ch/RIOT/tests/capteur/bin/p-nucleo-wb55/boards_common_nucleo/board_common_nucleo_init.o
 .debug_loc     0x00000000000001c6       0x4f /home/ch/RIOT/tests/capteur/bin/p-nucleo-wb55/core/init.o
 .debug_loc     0x0000000000000215       0x86 /home/ch/RIOT/tests/capteur/bin/p-nucleo-wb55/core/panic.o
 .debug_loc     0x000000000000029b      0x2ca /home/ch/RIOT/tests/capteur/bin/p-nucleo-wb55/core/sched.o
 .debug_loc     0x0000000000000565      0xb20 /home/ch/RIOT/tests/capteur/bin/p-nucleo-wb55/core/thread.o
 .debug_loc     0x0000000000001085      0x194 /home/ch/RIOT/tests/capteur/bin/p-nucleo-wb55/cortexm_common/cortexm_init.o
 .debug_loc     0x0000000000001219       0x63 /home/ch/RIOT/tests/capteur/bin/p-nucleo-wb55/cortexm_common/panic.o
 .debug_loc     0x000000000000127c      0x243 /home/ch/RIOT/tests/capteur/bin/p-nucleo-wb55/cortexm_common/thread_arch.o
 .debug_loc     0x00000000000014bf      0x443 /home/ch/RIOT/tests/capteur/bin/p-nucleo-wb55/cortexm_common/vectors_cortexm.o
 .debug_loc     0x0000000000001902      0x1f5 /home/ch/RIOT/tests/capteur/bin/p-nucleo-wb55/cpu/cpu_common.o
 .debug_loc     0x0000000000001af7       0x2a /home/ch/RIOT/tests/capteur/bin/p-nucleo-wb55/cpu/cpu_init.o
 .debug_loc     0x0000000000001b21       0xed /home/ch/RIOT/tests/capteur/bin/p-nucleo-wb55/div/div.o
 .debug_loc     0x0000000000001c0e      0x6af /home/ch/RIOT/tests/capteur/bin/p-nucleo-wb55/newlib_syscalls_default/syscalls.o
 .debug_loc     0x00000000000022bd       0x2a /home/ch/RIOT/tests/capteur/bin/p-nucleo-wb55/periph_common/init.o
 .debug_loc     0x00000000000022e7      0x504 /home/ch/RIOT/tests/capteur/bin/p-nucleo-wb55/periph/gpio_all.o
 .debug_loc     0x00000000000027eb      0x143 /home/ch/RIOT/tests/capteur/bin/p-nucleo-wb55/periph/pm.o
 .debug_loc     0x000000000000292e      0x432 /home/ch/RIOT/tests/capteur/bin/p-nucleo-wb55/periph/timer.o
 .debug_loc     0x0000000000002d60      0x5f0 /home/ch/RIOT/tests/capteur/bin/p-nucleo-wb55/periph/uart.o
 .debug_loc     0x0000000000003350      0x26c /home/ch/RIOT/tests/capteur/bin/p-nucleo-wb55/pm_layered/pm.o
 .debug_loc     0x00000000000035bc       0xb0 /home/ch/RIOT/tests/capteur/bin/p-nucleo-wb55/stdio_uart/stdio_uart.o
 .debug_loc     0x000000000000366c       0x2a /home/ch/RIOT/tests/capteur/bin/p-nucleo-wb55/stm32_clk/stmclk_common.o
 .debug_loc     0x0000000000003696       0x93 /home/ch/RIOT/tests/capteur/bin/p-nucleo-wb55/stm32_clk/stmclk_l4wx.o
 .debug_loc     0x0000000000003729      0x713 /home/ch/RIOT/tests/capteur/bin/p-nucleo-wb55/xtimer/xtimer_core.o
 .debug_loc     0x0000000000003e3c      0xf8a /usr/lib/gcc/arm-none-eabi/9.2.1/thumb/v7e-m/nofp/libgcc.a(_udivmoddi4.o)
 .debug_loc     0x0000000000004dc6       0xba /usr/lib/gcc/arm-none-eabi/9.2.1/../../../arm-none-eabi/lib/thumb/v7e-m/nofp/libc_nano.a(lib_a-init.o)
 .debug_loc     0x0000000000004e80      0x231 /usr/lib/gcc/arm-none-eabi/9.2.1/../../../arm-none-eabi/lib/thumb/v7e-m/nofp/libc_nano.a(lib_a-memset.o)
 .debug_loc     0x00000000000050b1      0x211 /usr/lib/gcc/arm-none-eabi/9.2.1/../../../arm-none-eabi/lib/thumb/v7e-m/nofp/libc_nano.a(lib_a-nano-freer.o)
 .debug_loc     0x00000000000052c2      0x437 /usr/lib/gcc/arm-none-eabi/9.2.1/../../../arm-none-eabi/lib/thumb/v7e-m/nofp/libc_nano.a(lib_a-nano-mallocr.o)
 .debug_loc     0x00000000000056f9       0x98 /usr/lib/gcc/arm-none-eabi/9.2.1/../../../arm-none-eabi/lib/thumb/v7e-m/nofp/libc_nano.a(lib_a-printf.o)
 .debug_loc     0x0000000000005791      0x32d /usr/lib/gcc/arm-none-eabi/9.2.1/../../../arm-none-eabi/lib/thumb/v7e-m/nofp/libc_nano.a(lib_a-puts.o)
 .debug_loc     0x0000000000005abe       0x22 /usr/lib/gcc/arm-none-eabi/9.2.1/../../../arm-none-eabi/lib/thumb/v7e-m/nofp/libc_nano.a(lib_a-time.o)
 .debug_loc     0x0000000000005ae0      0x193 /usr/lib/gcc/arm-none-eabi/9.2.1/../../../arm-none-eabi/lib/thumb/v7e-m/nofp/libc_nano.a(lib_a-wbuf.o)
 .debug_loc     0x0000000000005c73       0xb7 /usr/lib/gcc/arm-none-eabi/9.2.1/../../../arm-none-eabi/lib/thumb/v7e-m/nofp/libc_nano.a(lib_a-wsetup.o)
 .debug_loc     0x0000000000005d2a      0x3f5 /usr/lib/gcc/arm-none-eabi/9.2.1/../../../arm-none-eabi/lib/thumb/v7e-m/nofp/libc_nano.a(lib_a-fflush.o)
 .debug_loc     0x000000000000611f      0x339 /usr/lib/gcc/arm-none-eabi/9.2.1/../../../arm-none-eabi/lib/thumb/v7e-m/nofp/libc_nano.a(lib_a-findfp.o)
 .debug_loc     0x0000000000006458      0x24f /usr/lib/gcc/arm-none-eabi/9.2.1/../../../arm-none-eabi/lib/thumb/v7e-m/nofp/libc_nano.a(lib_a-fwalk.o)
 .debug_loc     0x00000000000066a7      0x192 /usr/lib/gcc/arm-none-eabi/9.2.1/../../../arm-none-eabi/lib/thumb/v7e-m/nofp/libc_nano.a(lib_a-makebuf.o)
 .debug_loc     0x0000000000006839      0x133 /usr/lib/gcc/arm-none-eabi/9.2.1/../../../arm-none-eabi/lib/thumb/v7e-m/nofp/libc_nano.a(lib_a-nano-reallocr.o)
 .debug_loc     0x000000000000696c      0x7a3 /usr/lib/gcc/arm-none-eabi/9.2.1/../../../arm-none-eabi/lib/thumb/v7e-m/nofp/libc_nano.a(lib_a-nano-vfprintf.o)
 .debug_loc     0x000000000000710f      0x7ab /usr/lib/gcc/arm-none-eabi/9.2.1/../../../arm-none-eabi/lib/thumb/v7e-m/nofp/libc_nano.a(lib_a-nano-vfprintf_i.o)
 .debug_loc     0x00000000000078ba      0x393 /usr/lib/gcc/arm-none-eabi/9.2.1/../../../arm-none-eabi/lib/thumb/v7e-m/nofp/libc_nano.a(lib_a-stdio.o)
 .debug_loc     0x0000000000007c4d      0x669 /usr/lib/gcc/arm-none-eabi/9.2.1/../../../arm-none-eabi/lib/thumb/v7e-m/nofp/libc_nano.a(lib_a-fvwrite.o)
 .debug_loc     0x00000000000082b6      0x2f1 /usr/lib/gcc/arm-none-eabi/9.2.1/../../../arm-none-eabi/lib/thumb/v7e-m/nofp/libc_nano.a(lib_a-memmove.o)
 .debug_loc     0x00000000000085a7       0x86 /usr/lib/gcc/arm-none-eabi/9.2.1/../../../arm-none-eabi/lib/thumb/v7e-m/nofp/libc_nano.a(lib_a-nano-msizer.o)

.debug_aranges  0x0000000000000000      0xb68
 .debug_aranges
                0x0000000000000000       0x50 /home/ch/RIOT/tests/capteur/bin/p-nucleo-wb55/application_tests_capteur/main.o
 .debug_aranges
                0x0000000000000050       0x20 /home/ch/RIOT/tests/capteur/bin/p-nucleo-wb55/auto_init/auto_init.o
 .debug_aranges
                0x0000000000000070       0x30 /home/ch/RIOT/tests/capteur/bin/p-nucleo-wb55/boards_common_nucleo/board_common_nucleo_init.o
 .debug_aranges
                0x00000000000000a0       0x30 /home/ch/RIOT/tests/capteur/bin/p-nucleo-wb55/core/init.o
 .debug_aranges
                0x00000000000000d0       0x38 /home/ch/RIOT/tests/capteur/bin/p-nucleo-wb55/core/panic.o
 .debug_aranges
                0x0000000000000108       0x48 /home/ch/RIOT/tests/capteur/bin/p-nucleo-wb55/core/sched.o
 .debug_aranges
                0x0000000000000150       0x78 /home/ch/RIOT/tests/capteur/bin/p-nucleo-wb55/core/thread.o
 .debug_aranges
                0x00000000000001c8       0x30 /home/ch/RIOT/tests/capteur/bin/p-nucleo-wb55/cortexm_common/cortexm_init.o
 .debug_aranges
                0x00000000000001f8       0x28 /home/ch/RIOT/tests/capteur/bin/p-nucleo-wb55/cortexm_common/panic.o
 .debug_aranges
                0x0000000000000220       0x68 /home/ch/RIOT/tests/capteur/bin/p-nucleo-wb55/cortexm_common/thread_arch.o
 .debug_aranges
                0x0000000000000288       0x70 /home/ch/RIOT/tests/capteur/bin/p-nucleo-wb55/cortexm_common/vectors_cortexm.o
 .debug_aranges
                0x00000000000002f8       0x40 /home/ch/RIOT/tests/capteur/bin/p-nucleo-wb55/cpu/cpu_common.o
 .debug_aranges
                0x0000000000000338       0x40 /home/ch/RIOT/tests/capteur/bin/p-nucleo-wb55/cpu/cpu_init.o
 .debug_aranges
                0x0000000000000378       0x20 /home/ch/RIOT/tests/capteur/bin/p-nucleo-wb55/div/div.o
 .debug_aranges
                0x0000000000000398       0xc8 /home/ch/RIOT/tests/capteur/bin/p-nucleo-wb55/newlib_syscalls_default/syscalls.o
 .debug_aranges
                0x0000000000000460       0x28 /home/ch/RIOT/tests/capteur/bin/p-nucleo-wb55/periph_common/init.o
 .debug_aranges
                0x0000000000000488       0x70 /home/ch/RIOT/tests/capteur/bin/p-nucleo-wb55/periph/gpio_all.o
 .debug_aranges
                0x00000000000004f8       0x38 /home/ch/RIOT/tests/capteur/bin/p-nucleo-wb55/periph/pm.o
 .debug_aranges
                0x0000000000000530       0x58 /home/ch/RIOT/tests/capteur/bin/p-nucleo-wb55/periph/timer.o
 .debug_aranges
                0x0000000000000588       0x60 /home/ch/RIOT/tests/capteur/bin/p-nucleo-wb55/periph/uart.o
 .debug_aranges
                0x00000000000005e8       0x48 /home/ch/RIOT/tests/capteur/bin/p-nucleo-wb55/pm_layered/pm.o
 .debug_aranges
                0x0000000000000630       0x38 /home/ch/RIOT/tests/capteur/bin/p-nucleo-wb55/stdio_uart/stdio_uart.o
 .debug_aranges
                0x0000000000000668       0x58 /home/ch/RIOT/tests/capteur/bin/p-nucleo-wb55/stm32_clk/stmclk_common.o
 .debug_aranges
                0x00000000000006c0       0x28 /home/ch/RIOT/tests/capteur/bin/p-nucleo-wb55/stm32_clk/stmclk_l4wx.o
 .debug_aranges
                0x00000000000006e8       0x20 /home/ch/RIOT/tests/capteur/bin/p-nucleo-wb55/stm32_vectors/STM32WB55xx.o
 .debug_aranges
                0x0000000000000708       0x68 /home/ch/RIOT/tests/capteur/bin/p-nucleo-wb55/xtimer/xtimer_core.o
 .debug_aranges
                0x0000000000000770       0x20 /usr/lib/gcc/arm-none-eabi/9.2.1/thumb/v7e-m/nofp/libgcc.a(_arm_mulsf3.o)
 .debug_aranges
                0x0000000000000790       0x20 /usr/lib/gcc/arm-none-eabi/9.2.1/thumb/v7e-m/nofp/libgcc.a(_arm_addsubdf3.o)
 .debug_aranges
                0x00000000000007b0       0x20 /usr/lib/gcc/arm-none-eabi/9.2.1/thumb/v7e-m/nofp/libgcc.a(_arm_muldivdf3.o)
 .debug_aranges
                0x00000000000007d0       0x20 /usr/lib/gcc/arm-none-eabi/9.2.1/thumb/v7e-m/nofp/libgcc.a(_arm_truncdfsf2.o)
 .debug_aranges
                0x00000000000007f0       0x20 /usr/lib/gcc/arm-none-eabi/9.2.1/thumb/v7e-m/nofp/libgcc.a(_arm_fixsfsi.o)
 .debug_aranges
                0x0000000000000810       0x20 /usr/lib/gcc/arm-none-eabi/9.2.1/thumb/v7e-m/nofp/libgcc.a(_aeabi_uldivmod.o)
 .debug_aranges
                0x0000000000000830       0x20 /usr/lib/gcc/arm-none-eabi/9.2.1/thumb/v7e-m/nofp/libgcc.a(_udivmoddi4.o)
 .debug_aranges
                0x0000000000000850       0x20 /usr/lib/gcc/arm-none-eabi/9.2.1/thumb/v7e-m/nofp/libgcc.a(_dvmd_tls.o)
 .debug_aranges
                0x0000000000000870       0x18 /usr/lib/gcc/arm-none-eabi/9.2.1/../../../arm-none-eabi/lib/thumb/v7e-m/nofp/libc_nano.a(lib_a-impure.o)
 .debug_aranges
                0x0000000000000888       0x20 /usr/lib/gcc/arm-none-eabi/9.2.1/../../../arm-none-eabi/lib/thumb/v7e-m/nofp/libc_nano.a(lib_a-init.o)
 .debug_aranges
                0x00000000000008a8       0x20 /usr/lib/gcc/arm-none-eabi/9.2.1/../../../arm-none-eabi/lib/thumb/v7e-m/nofp/libc_nano.a(lib_a-memcpy.o)
 .debug_aranges
                0x00000000000008c8       0x20 /usr/lib/gcc/arm-none-eabi/9.2.1/../../../arm-none-eabi/lib/thumb/v7e-m/nofp/libc_nano.a(lib_a-memset.o)
 .debug_aranges
                0x00000000000008e8       0x20 /usr/lib/gcc/arm-none-eabi/9.2.1/../../../arm-none-eabi/lib/thumb/v7e-m/nofp/libc_nano.a(lib_a-nano-freer.o)
 .debug_aranges
                0x0000000000000908       0x20 /usr/lib/gcc/arm-none-eabi/9.2.1/../../../arm-none-eabi/lib/thumb/v7e-m/nofp/libc_nano.a(lib_a-nano-mallocr.o)
 .debug_aranges
                0x0000000000000928       0x20 /usr/lib/gcc/arm-none-eabi/9.2.1/../../../arm-none-eabi/lib/thumb/v7e-m/nofp/libc_nano.a(lib_a-printf.o)
 .debug_aranges
                0x0000000000000948       0x20 /usr/lib/gcc/arm-none-eabi/9.2.1/../../../arm-none-eabi/lib/thumb/v7e-m/nofp/libc_nano.a(lib_a-puts.o)
 .debug_aranges
                0x0000000000000968       0x20 /usr/lib/gcc/arm-none-eabi/9.2.1/../../../arm-none-eabi/lib/thumb/v7e-m/nofp/libc_nano.a(lib_a-time.o)
 .debug_aranges
                0x0000000000000988       0x20 /usr/lib/gcc/arm-none-eabi/9.2.1/../../../arm-none-eabi/lib/thumb/v7e-m/nofp/libc_nano.a(lib_a-wbuf.o)
 .debug_aranges
                0x00000000000009a8       0x20 /usr/lib/gcc/arm-none-eabi/9.2.1/../../../arm-none-eabi/lib/thumb/v7e-m/nofp/libc_nano.a(lib_a-wsetup.o)
 .debug_aranges
                0x00000000000009c8       0x20 /usr/lib/gcc/arm-none-eabi/9.2.1/../../../arm-none-eabi/lib/thumb/v7e-m/nofp/libc_nano.a(lib_a-fflush.o)
 .debug_aranges
                0x00000000000009e8       0x20 /usr/lib/gcc/arm-none-eabi/9.2.1/../../../arm-none-eabi/lib/thumb/v7e-m/nofp/libc_nano.a(lib_a-findfp.o)
 .debug_aranges
                0x0000000000000a08       0x20 /usr/lib/gcc/arm-none-eabi/9.2.1/../../../arm-none-eabi/lib/thumb/v7e-m/nofp/libc_nano.a(lib_a-fwalk.o)
 .debug_aranges
                0x0000000000000a28       0x20 /usr/lib/gcc/arm-none-eabi/9.2.1/../../../arm-none-eabi/lib/thumb/v7e-m/nofp/libc_nano.a(lib_a-makebuf.o)
 .debug_aranges
                0x0000000000000a48       0x20 /usr/lib/gcc/arm-none-eabi/9.2.1/../../../arm-none-eabi/lib/thumb/v7e-m/nofp/libc_nano.a(lib_a-mlock.o)
 .debug_aranges
                0x0000000000000a68       0x20 /usr/lib/gcc/arm-none-eabi/9.2.1/../../../arm-none-eabi/lib/thumb/v7e-m/nofp/libc_nano.a(lib_a-nano-reallocr.o)
 .debug_aranges
                0x0000000000000a88       0x20 /usr/lib/gcc/arm-none-eabi/9.2.1/../../../arm-none-eabi/lib/thumb/v7e-m/nofp/libc_nano.a(lib_a-nano-vfprintf.o)
 .debug_aranges
                0x0000000000000aa8       0x20 /usr/lib/gcc/arm-none-eabi/9.2.1/../../../arm-none-eabi/lib/thumb/v7e-m/nofp/libc_nano.a(lib_a-nano-vfprintf_i.o)
 .debug_aranges
                0x0000000000000ac8       0x20 /usr/lib/gcc/arm-none-eabi/9.2.1/../../../arm-none-eabi/lib/thumb/v7e-m/nofp/libc_nano.a(lib_a-stdio.o)
 .debug_aranges
                0x0000000000000ae8       0x20 /usr/lib/gcc/arm-none-eabi/9.2.1/../../../arm-none-eabi/lib/thumb/v7e-m/nofp/libc_nano.a(lib_a-fvwrite.o)
 .debug_aranges
                0x0000000000000b08       0x20 /usr/lib/gcc/arm-none-eabi/9.2.1/../../../arm-none-eabi/lib/thumb/v7e-m/nofp/libc_nano.a(lib_a-memchr.o)
 .debug_aranges
                0x0000000000000b28       0x20 /usr/lib/gcc/arm-none-eabi/9.2.1/../../../arm-none-eabi/lib/thumb/v7e-m/nofp/libc_nano.a(lib_a-memmove.o)
 .debug_aranges
                0x0000000000000b48       0x20 /usr/lib/gcc/arm-none-eabi/9.2.1/../../../arm-none-eabi/lib/thumb/v7e-m/nofp/libc_nano.a(lib_a-nano-msizer.o)

.debug_ranges   0x0000000000000000     0x1500
 .debug_ranges  0x0000000000000000       0x40 /home/ch/RIOT/tests/capteur/bin/p-nucleo-wb55/application_tests_capteur/main.o
 .debug_ranges  0x0000000000000040       0x10 /home/ch/RIOT/tests/capteur/bin/p-nucleo-wb55/auto_init/auto_init.o
 .debug_ranges  0x0000000000000050       0x20 /home/ch/RIOT/tests/capteur/bin/p-nucleo-wb55/boards_common_nucleo/board_common_nucleo_init.o
 .debug_ranges  0x0000000000000070       0x50 /home/ch/RIOT/tests/capteur/bin/p-nucleo-wb55/core/init.o
 .debug_ranges  0x00000000000000c0       0x28 /home/ch/RIOT/tests/capteur/bin/p-nucleo-wb55/core/panic.o
 .debug_ranges  0x00000000000000e8      0x118 /home/ch/RIOT/tests/capteur/bin/p-nucleo-wb55/core/sched.o
 .debug_ranges  0x0000000000000200      0x298 /home/ch/RIOT/tests/capteur/bin/p-nucleo-wb55/core/thread.o
 .debug_ranges  0x0000000000000498       0xb8 /home/ch/RIOT/tests/capteur/bin/p-nucleo-wb55/cortexm_common/cortexm_init.o
 .debug_ranges  0x0000000000000550       0x48 /home/ch/RIOT/tests/capteur/bin/p-nucleo-wb55/cortexm_common/panic.o
 .debug_ranges  0x0000000000000598       0x88 /home/ch/RIOT/tests/capteur/bin/p-nucleo-wb55/cortexm_common/thread_arch.o
 .debug_ranges  0x0000000000000620       0x78 /home/ch/RIOT/tests/capteur/bin/p-nucleo-wb55/cortexm_common/vectors_cortexm.o
 .debug_ranges  0x0000000000000698       0x30 /home/ch/RIOT/tests/capteur/bin/p-nucleo-wb55/cpu/cpu_common.o
 .debug_ranges  0x00000000000006c8       0x30 /home/ch/RIOT/tests/capteur/bin/p-nucleo-wb55/cpu/cpu_init.o
 .debug_ranges  0x00000000000006f8       0x10 /home/ch/RIOT/tests/capteur/bin/p-nucleo-wb55/div/div.o
 .debug_ranges  0x0000000000000708      0x1d8 /home/ch/RIOT/tests/capteur/bin/p-nucleo-wb55/newlib_syscalls_default/syscalls.o
 .debug_ranges  0x00000000000008e0       0x18 /home/ch/RIOT/tests/capteur/bin/p-nucleo-wb55/periph_common/init.o
 .debug_ranges  0x00000000000008f8      0x190 /home/ch/RIOT/tests/capteur/bin/p-nucleo-wb55/periph/gpio_all.o
 .debug_ranges  0x0000000000000a88       0x70 /home/ch/RIOT/tests/capteur/bin/p-nucleo-wb55/periph/pm.o
 .debug_ranges  0x0000000000000af8      0x138 /home/ch/RIOT/tests/capteur/bin/p-nucleo-wb55/periph/timer.o
 .debug_ranges  0x0000000000000c30      0x130 /home/ch/RIOT/tests/capteur/bin/p-nucleo-wb55/periph/uart.o
 .debug_ranges  0x0000000000000d60       0xc8 /home/ch/RIOT/tests/capteur/bin/p-nucleo-wb55/pm_layered/pm.o
 .debug_ranges  0x0000000000000e28       0x28 /home/ch/RIOT/tests/capteur/bin/p-nucleo-wb55/stdio_uart/stdio_uart.o
 .debug_ranges  0x0000000000000e50       0x48 /home/ch/RIOT/tests/capteur/bin/p-nucleo-wb55/stm32_clk/stmclk_common.o
 .debug_ranges  0x0000000000000e98       0x60 /home/ch/RIOT/tests/capteur/bin/p-nucleo-wb55/stm32_clk/stmclk_l4wx.o
 .debug_ranges  0x0000000000000ef8       0x10 /home/ch/RIOT/tests/capteur/bin/p-nucleo-wb55/stm32_vectors/STM32WB55xx.o
 .debug_ranges  0x0000000000000f08      0x1d8 /home/ch/RIOT/tests/capteur/bin/p-nucleo-wb55/xtimer/xtimer_core.o
 .debug_ranges  0x00000000000010e0       0xc8 /usr/lib/gcc/arm-none-eabi/9.2.1/thumb/v7e-m/nofp/libgcc.a(_udivmoddi4.o)
 .debug_ranges  0x00000000000011a8       0x18 /usr/lib/gcc/arm-none-eabi/9.2.1/../../../arm-none-eabi/lib/thumb/v7e-m/nofp/libc_nano.a(lib_a-nano-freer.o)
 .debug_ranges  0x00000000000011c0       0x38 /usr/lib/gcc/arm-none-eabi/9.2.1/../../../arm-none-eabi/lib/thumb/v7e-m/nofp/libc_nano.a(lib_a-nano-mallocr.o)
 .debug_ranges  0x00000000000011f8       0x68 /usr/lib/gcc/arm-none-eabi/9.2.1/../../../arm-none-eabi/lib/thumb/v7e-m/nofp/libc_nano.a(lib_a-puts.o)
 .debug_ranges  0x0000000000001260       0x20 /usr/lib/gcc/arm-none-eabi/9.2.1/../../../arm-none-eabi/lib/thumb/v7e-m/nofp/libc_nano.a(lib_a-wbuf.o)
 .debug_ranges  0x0000000000001280       0x30 /usr/lib/gcc/arm-none-eabi/9.2.1/../../../arm-none-eabi/lib/thumb/v7e-m/nofp/libc_nano.a(lib_a-wsetup.o)
 .debug_ranges  0x00000000000012b0       0x68 /usr/lib/gcc/arm-none-eabi/9.2.1/../../../arm-none-eabi/lib/thumb/v7e-m/nofp/libc_nano.a(lib_a-fflush.o)
 .debug_ranges  0x0000000000001318       0xe8 /usr/lib/gcc/arm-none-eabi/9.2.1/../../../arm-none-eabi/lib/thumb/v7e-m/nofp/libc_nano.a(lib_a-findfp.o)
 .debug_ranges  0x0000000000001400       0x28 /usr/lib/gcc/arm-none-eabi/9.2.1/../../../arm-none-eabi/lib/thumb/v7e-m/nofp/libc_nano.a(lib_a-makebuf.o)
 .debug_ranges  0x0000000000001428       0x28 /usr/lib/gcc/arm-none-eabi/9.2.1/../../../arm-none-eabi/lib/thumb/v7e-m/nofp/libc_nano.a(lib_a-nano-vfprintf.o)
 .debug_ranges  0x0000000000001450       0x98 /usr/lib/gcc/arm-none-eabi/9.2.1/../../../arm-none-eabi/lib/thumb/v7e-m/nofp/libc_nano.a(lib_a-nano-vfprintf_i.o)
 .debug_ranges  0x00000000000014e8       0x18 /usr/lib/gcc/arm-none-eabi/9.2.1/../../../arm-none-eabi/lib/thumb/v7e-m/nofp/libc_nano.a(lib_a-fvwrite.o)

.debug_macro    0x0000000000000000    0x2ee3e
 .debug_macro   0x0000000000000000      0x500 /home/ch/RIOT/tests/capteur/bin/p-nucleo-wb55/application_tests_capteur/main.o
 .debug_macro   0x0000000000000500      0xaf6 /home/ch/RIOT/tests/capteur/bin/p-nucleo-wb55/application_tests_capteur/main.o
 .debug_macro   0x0000000000000ff6      0x13c /home/ch/RIOT/tests/capteur/bin/p-nucleo-wb55/application_tests_capteur/main.o
 .debug_macro   0x0000000000001132       0x22 /home/ch/RIOT/tests/capteur/bin/p-nucleo-wb55/application_tests_capteur/main.o
 .debug_macro   0x0000000000001154       0x46 /home/ch/RIOT/tests/capteur/bin/p-nucleo-wb55/application_tests_capteur/main.o
 .debug_macro   0x000000000000119a       0x18 /home/ch/RIOT/tests/capteur/bin/p-nucleo-wb55/application_tests_capteur/main.o
 .debug_macro   0x00000000000011b2       0x5c /home/ch/RIOT/tests/capteur/bin/p-nucleo-wb55/application_tests_capteur/main.o
 .debug_macro   0x000000000000120e       0x3c /home/ch/RIOT/tests/capteur/bin/p-nucleo-wb55/application_tests_capteur/main.o
 .debug_macro   0x000000000000124a       0x34 /home/ch/RIOT/tests/capteur/bin/p-nucleo-wb55/application_tests_capteur/main.o
 .debug_macro   0x000000000000127e       0x57 /home/ch/RIOT/tests/capteur/bin/p-nucleo-wb55/application_tests_capteur/main.o
 .debug_macro   0x00000000000012d5      0x174 /home/ch/RIOT/tests/capteur/bin/p-nucleo-wb55/application_tests_capteur/main.o
 .debug_macro   0x0000000000001449      0x339 /home/ch/RIOT/tests/capteur/bin/p-nucleo-wb55/application_tests_capteur/main.o
 .debug_macro   0x0000000000001782       0x16 /home/ch/RIOT/tests/capteur/bin/p-nucleo-wb55/application_tests_capteur/main.o
 .debug_macro   0x0000000000001798       0x43 /home/ch/RIOT/tests/capteur/bin/p-nucleo-wb55/application_tests_capteur/main.o
 .debug_macro   0x00000000000017db       0x34 /home/ch/RIOT/tests/capteur/bin/p-nucleo-wb55/application_tests_capteur/main.o
 .debug_macro   0x000000000000180f       0x10 /home/ch/RIOT/tests/capteur/bin/p-nucleo-wb55/application_tests_capteur/main.o
 .debug_macro   0x000000000000181f       0x52 /home/ch/RIOT/tests/capteur/bin/p-nucleo-wb55/application_tests_capteur/main.o
 .debug_macro   0x0000000000001871       0x71 /home/ch/RIOT/tests/capteur/bin/p-nucleo-wb55/application_tests_capteur/main.o
 .debug_macro   0x00000000000018e2      0x34e /home/ch/RIOT/tests/capteur/bin/p-nucleo-wb55/application_tests_capteur/main.o
 .debug_macro   0x0000000000001c30       0x75 /home/ch/RIOT/tests/capteur/bin/p-nucleo-wb55/application_tests_capteur/main.o
 .debug_macro   0x0000000000001ca5       0x10 /home/ch/RIOT/tests/capteur/bin/p-nucleo-wb55/application_tests_capteur/main.o
 .debug_macro   0x0000000000001cb5      0x12a /home/ch/RIOT/tests/capteur/bin/p-nucleo-wb55/application_tests_capteur/main.o
 .debug_macro   0x0000000000001ddf       0x10 /home/ch/RIOT/tests/capteur/bin/p-nucleo-wb55/application_tests_capteur/main.o
 .debug_macro   0x0000000000001def       0x35 /home/ch/RIOT/tests/capteur/bin/p-nucleo-wb55/application_tests_capteur/main.o
 .debug_macro   0x0000000000001e24       0x10 /home/ch/RIOT/tests/capteur/bin/p-nucleo-wb55/application_tests_capteur/main.o
 .debug_macro   0x0000000000001e34       0x10 /home/ch/RIOT/tests/capteur/bin/p-nucleo-wb55/application_tests_capteur/main.o
 .debug_macro   0x0000000000001e44       0x10 /home/ch/RIOT/tests/capteur/bin/p-nucleo-wb55/application_tests_capteur/main.o
 .debug_macro   0x0000000000001e54       0x6a /home/ch/RIOT/tests/capteur/bin/p-nucleo-wb55/application_tests_capteur/main.o
 .debug_macro   0x0000000000001ebe       0xb2 /home/ch/RIOT/tests/capteur/bin/p-nucleo-wb55/application_tests_capteur/main.o
 .debug_macro   0x0000000000001f70       0x2e /home/ch/RIOT/tests/capteur/bin/p-nucleo-wb55/application_tests_capteur/main.o
 .debug_macro   0x0000000000001f9e       0x1c /home/ch/RIOT/tests/capteur/bin/p-nucleo-wb55/application_tests_capteur/main.o
 .debug_macro   0x0000000000001fba       0x10 /home/ch/RIOT/tests/capteur/bin/p-nucleo-wb55/application_tests_capteur/main.o
 .debug_macro   0x0000000000001fca       0x16 /home/ch/RIOT/tests/capteur/bin/p-nucleo-wb55/application_tests_capteur/main.o
 .debug_macro   0x0000000000001fe0      0x114 /home/ch/RIOT/tests/capteur/bin/p-nucleo-wb55/application_tests_capteur/main.o
 .debug_macro   0x00000000000020f4       0x16 /home/ch/RIOT/tests/capteur/bin/p-nucleo-wb55/application_tests_capteur/main.o
 .debug_macro   0x000000000000210a       0x22 /home/ch/RIOT/tests/capteur/bin/p-nucleo-wb55/application_tests_capteur/main.o
 .debug_macro   0x000000000000212c       0x22 /home/ch/RIOT/tests/capteur/bin/p-nucleo-wb55/application_tests_capteur/main.o
 .debug_macro   0x000000000000214e      0x103 /home/ch/RIOT/tests/capteur/bin/p-nucleo-wb55/application_tests_capteur/main.o
 .debug_macro   0x0000000000002251      0x3c6 /home/ch/RIOT/tests/capteur/bin/p-nucleo-wb55/application_tests_capteur/main.o
 .debug_macro   0x0000000000002617       0x40 /home/ch/RIOT/tests/capteur/bin/p-nucleo-wb55/application_tests_capteur/main.o
 .debug_macro   0x0000000000002657       0x3d /home/ch/RIOT/tests/capteur/bin/p-nucleo-wb55/application_tests_capteur/main.o
 .debug_macro   0x0000000000002694       0x49 /home/ch/RIOT/tests/capteur/bin/p-nucleo-wb55/application_tests_capteur/main.o
 .debug_macro   0x00000000000026dd       0x2e /home/ch/RIOT/tests/capteur/bin/p-nucleo-wb55/application_tests_capteur/main.o
 .debug_macro   0x000000000000270b       0x2e /home/ch/RIOT/tests/capteur/bin/p-nucleo-wb55/application_tests_capteur/main.o
 .debug_macro   0x0000000000002739       0x1c /home/ch/RIOT/tests/capteur/bin/p-nucleo-wb55/application_tests_capteur/main.o
 .debug_macro   0x0000000000002755       0x22 /home/ch/RIOT/tests/capteur/bin/p-nucleo-wb55/application_tests_capteur/main.o
 .debug_macro   0x0000000000002777       0xd9 /home/ch/RIOT/tests/capteur/bin/p-nucleo-wb55/application_tests_capteur/main.o
 .debug_macro   0x0000000000002850     0x102d /home/ch/RIOT/tests/capteur/bin/p-nucleo-wb55/application_tests_capteur/main.o
 .debug_macro   0x000000000000387d      0x11f /home/ch/RIOT/tests/capteur/bin/p-nucleo-wb55/application_tests_capteur/main.o
 .debug_macro   0x000000000000399c    0x12ae9 /home/ch/RIOT/tests/capteur/bin/p-nucleo-wb55/application_tests_capteur/main.o
 .debug_macro   0x0000000000016485       0x6c /home/ch/RIOT/tests/capteur/bin/p-nucleo-wb55/application_tests_capteur/main.o
 .debug_macro   0x00000000000164f1       0x10 /home/ch/RIOT/tests/capteur/bin/p-nucleo-wb55/application_tests_capteur/main.o
 .debug_macro   0x0000000000016501       0x2b /home/ch/RIOT/tests/capteur/bin/p-nucleo-wb55/application_tests_capteur/main.o
 .debug_macro   0x000000000001652c       0x42 /home/ch/RIOT/tests/capteur/bin/p-nucleo-wb55/application_tests_capteur/main.o
 .debug_macro   0x000000000001656e       0x10 /home/ch/RIOT/tests/capteur/bin/p-nucleo-wb55/application_tests_capteur/main.o
 .debug_macro   0x000000000001657e       0x2e /home/ch/RIOT/tests/capteur/bin/p-nucleo-wb55/application_tests_capteur/main.o
 .debug_macro   0x00000000000165ac       0x10 /home/ch/RIOT/tests/capteur/bin/p-nucleo-wb55/application_tests_capteur/main.o
 .debug_macro   0x00000000000165bc       0x19 /home/ch/RIOT/tests/capteur/bin/p-nucleo-wb55/application_tests_capteur/main.o
 .debug_macro   0x00000000000165d5      0x118 /home/ch/RIOT/tests/capteur/bin/p-nucleo-wb55/application_tests_capteur/main.o
 .debug_macro   0x00000000000166ed       0x16 /home/ch/RIOT/tests/capteur/bin/p-nucleo-wb55/application_tests_capteur/main.o
 .debug_macro   0x0000000000016703       0x28 /home/ch/RIOT/tests/capteur/bin/p-nucleo-wb55/application_tests_capteur/main.o
 .debug_macro   0x000000000001672b       0xe8 /home/ch/RIOT/tests/capteur/bin/p-nucleo-wb55/application_tests_capteur/main.o
 .debug_macro   0x0000000000016813       0x2e /home/ch/RIOT/tests/capteur/bin/p-nucleo-wb55/application_tests_capteur/main.o
 .debug_macro   0x0000000000016841       0x10 /home/ch/RIOT/tests/capteur/bin/p-nucleo-wb55/application_tests_capteur/main.o
 .debug_macro   0x0000000000016851       0x10 /home/ch/RIOT/tests/capteur/bin/p-nucleo-wb55/application_tests_capteur/main.o
 .debug_macro   0x0000000000016861       0x1c /home/ch/RIOT/tests/capteur/bin/p-nucleo-wb55/application_tests_capteur/main.o
 .debug_macro   0x000000000001687d       0x40 /home/ch/RIOT/tests/capteur/bin/p-nucleo-wb55/application_tests_capteur/main.o
 .debug_macro   0x00000000000168bd       0x31 /home/ch/RIOT/tests/capteur/bin/p-nucleo-wb55/application_tests_capteur/main.o
 .debug_macro   0x00000000000168ee       0x84 /home/ch/RIOT/tests/capteur/bin/p-nucleo-wb55/application_tests_capteur/main.o
 .debug_macro   0x0000000000016972       0x22 /home/ch/RIOT/tests/capteur/bin/p-nucleo-wb55/application_tests_capteur/main.o
 .debug_macro   0x0000000000016994       0x22 /home/ch/RIOT/tests/capteur/bin/p-nucleo-wb55/application_tests_capteur/main.o
 .debug_macro   0x00000000000169b6       0x16 /home/ch/RIOT/tests/capteur/bin/p-nucleo-wb55/application_tests_capteur/main.o
 .debug_macro   0x00000000000169cc       0x10 /home/ch/RIOT/tests/capteur/bin/p-nucleo-wb55/application_tests_capteur/main.o
 .debug_macro   0x00000000000169dc       0x34 /home/ch/RIOT/tests/capteur/bin/p-nucleo-wb55/application_tests_capteur/main.o
 .debug_macro   0x0000000000016a10       0x28 /home/ch/RIOT/tests/capteur/bin/p-nucleo-wb55/application_tests_capteur/main.o
 .debug_macro   0x0000000000016a38       0x16 /home/ch/RIOT/tests/capteur/bin/p-nucleo-wb55/application_tests_capteur/main.o
 .debug_macro   0x0000000000016a4e       0x1c /home/ch/RIOT/tests/capteur/bin/p-nucleo-wb55/application_tests_capteur/main.o
 .debug_macro   0x0000000000016a6a       0x16 /home/ch/RIOT/tests/capteur/bin/p-nucleo-wb55/application_tests_capteur/main.o
 .debug_macro   0x0000000000016a80       0x1c /home/ch/RIOT/tests/capteur/bin/p-nucleo-wb55/application_tests_capteur/main.o
 .debug_macro   0x0000000000016a9c       0x6b /home/ch/RIOT/tests/capteur/bin/p-nucleo-wb55/application_tests_capteur/main.o
 .debug_macro   0x0000000000016b07       0x16 /home/ch/RIOT/tests/capteur/bin/p-nucleo-wb55/application_tests_capteur/main.o
 .debug_macro   0x0000000000016b1d       0x28 /home/ch/RIOT/tests/capteur/bin/p-nucleo-wb55/application_tests_capteur/main.o
 .debug_macro   0x0000000000016b45       0x16 /home/ch/RIOT/tests/capteur/bin/p-nucleo-wb55/application_tests_capteur/main.o
 .debug_macro   0x0000000000016b5b       0x29 /home/ch/RIOT/tests/capteur/bin/p-nucleo-wb55/application_tests_capteur/main.o
 .debug_macro   0x0000000000016b84       0x9a /home/ch/RIOT/tests/capteur/bin/p-nucleo-wb55/application_tests_capteur/main.o
 .debug_macro   0x0000000000016c1e       0x43 /home/ch/RIOT/tests/capteur/bin/p-nucleo-wb55/application_tests_capteur/main.o
 .debug_macro   0x0000000000016c61       0x1c /home/ch/RIOT/tests/capteur/bin/p-nucleo-wb55/application_tests_capteur/main.o
 .debug_macro   0x0000000000016c7d       0x22 /home/ch/RIOT/tests/capteur/bin/p-nucleo-wb55/application_tests_capteur/main.o
 .debug_macro   0x0000000000016c9f       0x10 /home/ch/RIOT/tests/capteur/bin/p-nucleo-wb55/application_tests_capteur/main.o
 .debug_macro   0x0000000000016caf      0x1e9 /home/ch/RIOT/tests/capteur/bin/p-nucleo-wb55/auto_init/auto_init.o
 .debug_macro   0x0000000000016e98      0xaf6 /home/ch/RIOT/tests/capteur/bin/p-nucleo-wb55/auto_init/auto_init.o
 .debug_macro   0x000000000001798e       0x16 /home/ch/RIOT/tests/capteur/bin/p-nucleo-wb55/auto_init/auto_init.o
 .debug_macro   0x00000000000179a4       0x97 /home/ch/RIOT/tests/capteur/bin/p-nucleo-wb55/auto_init/auto_init.o
 .debug_macro   0x0000000000017a3b       0xfd /home/ch/RIOT/tests/capteur/bin/p-nucleo-wb55/auto_init/auto_init.o
 .debug_macro   0x0000000000017b38       0x34 /home/ch/RIOT/tests/capteur/bin/p-nucleo-wb55/auto_init/auto_init.o
 .debug_macro   0x0000000000017b6c      0x427 /home/ch/RIOT/tests/capteur/bin/p-nucleo-wb55/boards_common_nucleo/board_common_nucleo_init.o
 .debug_macro   0x0000000000017f93      0xaf6 /home/ch/RIOT/tests/capteur/bin/p-nucleo-wb55/boards_common_nucleo/board_common_nucleo_init.o
 .debug_macro   0x0000000000018a89      0x428 /home/ch/RIOT/tests/capteur/bin/p-nucleo-wb55/core/init.o
 .debug_macro   0x0000000000018eb1      0xaf6 /home/ch/RIOT/tests/capteur/bin/p-nucleo-wb55/core/init.o
 .debug_macro   0x00000000000199a7       0x10 /home/ch/RIOT/tests/capteur/bin/p-nucleo-wb55/core/init.o
 .debug_macro   0x00000000000199b7      0x23b /home/ch/RIOT/tests/capteur/bin/p-nucleo-wb55/core/init.o
 .debug_macro   0x0000000000019bf2       0x2e /home/ch/RIOT/tests/capteur/bin/p-nucleo-wb55/core/init.o
 .debug_macro   0x0000000000019c20       0x10 /home/ch/RIOT/tests/capteur/bin/p-nucleo-wb55/core/init.o
 .debug_macro   0x0000000000019c30      0x3f6 /home/ch/RIOT/tests/capteur/bin/p-nucleo-wb55/core/panic.o
 .debug_macro   0x000000000001a026      0xaf6 /home/ch/RIOT/tests/capteur/bin/p-nucleo-wb55/core/panic.o
 .debug_macro   0x000000000001ab1c       0x10 /home/ch/RIOT/tests/capteur/bin/p-nucleo-wb55/core/panic.o
 .debug_macro   0x000000000001ab2c      0x2ec /home/ch/RIOT/tests/capteur/bin/p-nucleo-wb55/core/sched.o
 .debug_macro   0x000000000001ae18      0xaf6 /home/ch/RIOT/tests/capteur/bin/p-nucleo-wb55/core/sched.o
 .debug_macro   0x000000000001b90e      0x301 /home/ch/RIOT/tests/capteur/bin/p-nucleo-wb55/core/thread.o
 .debug_macro   0x000000000001bc0f      0xaf6 /home/ch/RIOT/tests/capteur/bin/p-nucleo-wb55/core/thread.o
 .debug_macro   0x000000000001c705       0x22 /home/ch/RIOT/tests/capteur/bin/p-nucleo-wb55/core/thread.o
 .debug_macro   0x000000000001c727       0xdc /home/ch/RIOT/tests/capteur/bin/p-nucleo-wb55/core/thread.o
 .debug_macro   0x000000000001c803      0x2d3 /home/ch/RIOT/tests/capteur/bin/p-nucleo-wb55/cortexm_common/cortexm_init.o
 .debug_macro   0x000000000001cad6      0xaf6 /home/ch/RIOT/tests/capteur/bin/p-nucleo-wb55/cortexm_common/cortexm_init.o
 .debug_macro   0x000000000001d5cc      0x2d6 /home/ch/RIOT/tests/capteur/bin/p-nucleo-wb55/cortexm_common/panic.o
 .debug_macro   0x000000000001d8a2      0xaf6 /home/ch/RIOT/tests/capteur/bin/p-nucleo-wb55/cortexm_common/panic.o
 .debug_macro   0x000000000001e398      0x2f3 /home/ch/RIOT/tests/capteur/bin/p-nucleo-wb55/cortexm_common/thread_arch.o
 .debug_macro   0x000000000001e68b      0xaf6 /home/ch/RIOT/tests/capteur/bin/p-nucleo-wb55/cortexm_common/thread_arch.o
 .debug_macro   0x000000000001f181       0x1c /home/ch/RIOT/tests/capteur/bin/p-nucleo-wb55/cortexm_common/thread_arch.o
 .debug_macro   0x000000000001f19d      0x451 /home/ch/RIOT/tests/capteur/bin/p-nucleo-wb55/cortexm_common/vectors_cortexm.o
 .debug_macro   0x000000000001f5ee      0xaf6 /home/ch/RIOT/tests/capteur/bin/p-nucleo-wb55/cortexm_common/vectors_cortexm.o
 .debug_macro   0x00000000000200e4       0x1c /home/ch/RIOT/tests/capteur/bin/p-nucleo-wb55/cortexm_common/vectors_cortexm.o
 .debug_macro   0x0000000000020100      0x41d /home/ch/RIOT/tests/capteur/bin/p-nucleo-wb55/cpu/cpu_common.o
 .debug_macro   0x000000000002051d      0xaf6 /home/ch/RIOT/tests/capteur/bin/p-nucleo-wb55/cpu/cpu_common.o
 .debug_macro   0x0000000000021013      0x47c /home/ch/RIOT/tests/capteur/bin/p-nucleo-wb55/cpu/cpu_init.o
 .debug_macro   0x000000000002148f      0xaf6 /home/ch/RIOT/tests/capteur/bin/p-nucleo-wb55/cpu/cpu_init.o
 .debug_macro   0x0000000000021f85       0x16 /home/ch/RIOT/tests/capteur/bin/p-nucleo-wb55/cpu/cpu_init.o
 .debug_macro   0x0000000000021f9b      0x4fe /home/ch/RIOT/tests/capteur/bin/p-nucleo-wb55/cpu/cpu_init.o
 .debug_macro   0x0000000000022499      0x176 /home/ch/RIOT/tests/capteur/bin/p-nucleo-wb55/div/div.o
 .debug_macro   0x000000000002260f      0xaf6 /home/ch/RIOT/tests/capteur/bin/p-nucleo-wb55/div/div.o
 .debug_macro   0x0000000000023105      0x5ee /home/ch/RIOT/tests/capteur/bin/p-nucleo-wb55/newlib_syscalls_default/syscalls.o
 .debug_macro   0x00000000000236f3      0xaf6 /home/ch/RIOT/tests/capteur/bin/p-nucleo-wb55/newlib_syscalls_default/syscalls.o
 .debug_macro   0x00000000000241e9       0x10 /home/ch/RIOT/tests/capteur/bin/p-nucleo-wb55/newlib_syscalls_default/syscalls.o
 .debug_macro   0x00000000000241f9       0xcf /home/ch/RIOT/tests/capteur/bin/p-nucleo-wb55/newlib_syscalls_default/syscalls.o
 .debug_macro   0x00000000000242c8       0x20 /home/ch/RIOT/tests/capteur/bin/p-nucleo-wb55/newlib_syscalls_default/syscalls.o
 .debug_macro   0x00000000000242e8       0xbe /home/ch/RIOT/tests/capteur/bin/p-nucleo-wb55/newlib_syscalls_default/syscalls.o
 .debug_macro   0x00000000000243a6       0x10 /home/ch/RIOT/tests/capteur/bin/p-nucleo-wb55/newlib_syscalls_default/syscalls.o
 .debug_macro   0x00000000000243b6      0x241 /home/ch/RIOT/tests/capteur/bin/p-nucleo-wb55/newlib_syscalls_default/syscalls.o
 .debug_macro   0x00000000000245f7       0x10 /home/ch/RIOT/tests/capteur/bin/p-nucleo-wb55/newlib_syscalls_default/syscalls.o
 .debug_macro   0x0000000000024607       0x3c /home/ch/RIOT/tests/capteur/bin/p-nucleo-wb55/newlib_syscalls_default/syscalls.o
 .debug_macro   0x0000000000024643       0xff /home/ch/RIOT/tests/capteur/bin/p-nucleo-wb55/newlib_syscalls_default/syscalls.o
 .debug_macro   0x0000000000024742       0x16 /home/ch/RIOT/tests/capteur/bin/p-nucleo-wb55/newlib_syscalls_default/syscalls.o
 .debug_macro   0x0000000000024758      0x102 /home/ch/RIOT/tests/capteur/bin/p-nucleo-wb55/newlib_syscalls_default/syscalls.o
 .debug_macro   0x000000000002485a       0x10 /home/ch/RIOT/tests/capteur/bin/p-nucleo-wb55/newlib_syscalls_default/syscalls.o
 .debug_macro   0x000000000002486a       0x43 /home/ch/RIOT/tests/capteur/bin/p-nucleo-wb55/newlib_syscalls_default/syscalls.o
 .debug_macro   0x00000000000248ad      0x3c1 /home/ch/RIOT/tests/capteur/bin/p-nucleo-wb55/periph_common/init.o
 .debug_macro   0x0000000000024c6e      0xaf6 /home/ch/RIOT/tests/capteur/bin/p-nucleo-wb55/periph_common/init.o
 .debug_macro   0x0000000000025764      0x42f /home/ch/RIOT/tests/capteur/bin/p-nucleo-wb55/periph/gpio_all.o
 .debug_macro   0x0000000000025b93      0xaf6 /home/ch/RIOT/tests/capteur/bin/p-nucleo-wb55/periph/gpio_all.o
 .debug_macro   0x0000000000026689      0x413 /home/ch/RIOT/tests/capteur/bin/p-nucleo-wb55/periph/pm.o
 .debug_macro   0x0000000000026a9c      0xaf6 /home/ch/RIOT/tests/capteur/bin/p-nucleo-wb55/periph/pm.o
 .debug_macro   0x0000000000027592      0x413 /home/ch/RIOT/tests/capteur/bin/p-nucleo-wb55/periph/timer.o
 .debug_macro   0x00000000000279a5      0xaf6 /home/ch/RIOT/tests/capteur/bin/p-nucleo-wb55/periph/timer.o
 .debug_macro   0x000000000002849b      0x466 /home/ch/RIOT/tests/capteur/bin/p-nucleo-wb55/periph/uart.o
 .debug_macro   0x0000000000028901      0xaf6 /home/ch/RIOT/tests/capteur/bin/p-nucleo-wb55/periph/uart.o
 .debug_macro   0x00000000000293f7       0x10 /home/ch/RIOT/tests/capteur/bin/p-nucleo-wb55/periph/uart.o
 .debug_macro   0x0000000000029407      0x412 /home/ch/RIOT/tests/capteur/bin/p-nucleo-wb55/pm_layered/pm.o
 .debug_macro   0x0000000000029819      0xaf6 /home/ch/RIOT/tests/capteur/bin/p-nucleo-wb55/pm_layered/pm.o
 .debug_macro   0x000000000002a30f       0x28 /home/ch/RIOT/tests/capteur/bin/p-nucleo-wb55/pm_layered/pm.o
 .debug_macro   0x000000000002a337       0x27 /home/ch/RIOT/tests/capteur/bin/p-nucleo-wb55/pm_layered/pm.o
 .debug_macro   0x000000000002a35e      0x4d0 /home/ch/RIOT/tests/capteur/bin/p-nucleo-wb55/stdio_uart/stdio_uart.o
 .debug_macro   0x000000000002a82e      0xaf6 /home/ch/RIOT/tests/capteur/bin/p-nucleo-wb55/stdio_uart/stdio_uart.o
 .debug_macro   0x000000000002b324       0x16 /home/ch/RIOT/tests/capteur/bin/p-nucleo-wb55/stdio_uart/stdio_uart.o
 .debug_macro   0x000000000002b33a      0x43e /home/ch/RIOT/tests/capteur/bin/p-nucleo-wb55/stm32_clk/stmclk_common.o
 .debug_macro   0x000000000002b778      0xaf6 /home/ch/RIOT/tests/capteur/bin/p-nucleo-wb55/stm32_clk/stmclk_common.o
 .debug_macro   0x000000000002c26e      0x558 /home/ch/RIOT/tests/capteur/bin/p-nucleo-wb55/stm32_clk/stmclk_l4wx.o
 .debug_macro   0x000000000002c7c6      0xaf6 /home/ch/RIOT/tests/capteur/bin/p-nucleo-wb55/stm32_clk/stmclk_l4wx.o
 .debug_macro   0x000000000002d2bc       0xb7 /home/ch/RIOT/tests/capteur/bin/p-nucleo-wb55/stm32_vectors/STM32WB55xx.o
 .debug_macro   0x000000000002d373      0xaf6 /home/ch/RIOT/tests/capteur/bin/p-nucleo-wb55/stm32_vectors/STM32WB55xx.o
 .debug_macro   0x000000000002de69       0x16 /home/ch/RIOT/tests/capteur/bin/p-nucleo-wb55/stm32_vectors/STM32WB55xx.o
 .debug_macro   0x000000000002de7f      0x4b3 /home/ch/RIOT/tests/capteur/bin/p-nucleo-wb55/xtimer/xtimer_core.o
 .debug_macro   0x000000000002e332      0xaf6 /home/ch/RIOT/tests/capteur/bin/p-nucleo-wb55/xtimer/xtimer_core.o
 .debug_macro   0x000000000002ee28       0x16 /home/ch/RIOT/tests/capteur/bin/p-nucleo-wb55/xtimer/xtimer_core.o

.debug_line     0x0000000000000000    0x140a6
 .debug_line    0x0000000000000000      0xb5d /home/ch/RIOT/tests/capteur/bin/p-nucleo-wb55/application_tests_capteur/main.o
 .debug_line    0x0000000000000b5d      0x316 /home/ch/RIOT/tests/capteur/bin/p-nucleo-wb55/auto_init/auto_init.o
 .debug_line    0x0000000000000e73      0x8d3 /home/ch/RIOT/tests/capteur/bin/p-nucleo-wb55/boards_common_nucleo/board_common_nucleo_init.o
 .debug_line    0x0000000000001746      0x7e0 /home/ch/RIOT/tests/capteur/bin/p-nucleo-wb55/core/init.o
 .debug_line    0x0000000000001f26      0x837 /home/ch/RIOT/tests/capteur/bin/p-nucleo-wb55/core/panic.o
 .debug_line    0x000000000000275d      0x93e /home/ch/RIOT/tests/capteur/bin/p-nucleo-wb55/core/sched.o
 .debug_line    0x000000000000309b      0xe73 /home/ch/RIOT/tests/capteur/bin/p-nucleo-wb55/core/thread.o
 .debug_line    0x0000000000003f0e      0x654 /home/ch/RIOT/tests/capteur/bin/p-nucleo-wb55/cortexm_common/cortexm_init.o
 .debug_line    0x0000000000004562      0x55d /home/ch/RIOT/tests/capteur/bin/p-nucleo-wb55/cortexm_common/panic.o
 .debug_line    0x0000000000004abf      0x83c /home/ch/RIOT/tests/capteur/bin/p-nucleo-wb55/cortexm_common/thread_arch.o
 .debug_line    0x00000000000052fb      0xb67 /home/ch/RIOT/tests/capteur/bin/p-nucleo-wb55/cortexm_common/vectors_cortexm.o
 .debug_line    0x0000000000005e62      0x932 /home/ch/RIOT/tests/capteur/bin/p-nucleo-wb55/cpu/cpu_common.o
 .debug_line    0x0000000000006794      0x941 /home/ch/RIOT/tests/capteur/bin/p-nucleo-wb55/cpu/cpu_init.o
 .debug_line    0x00000000000070d5      0x2e0 /home/ch/RIOT/tests/capteur/bin/p-nucleo-wb55/div/div.o
 .debug_line    0x00000000000073b5      0xf3c /home/ch/RIOT/tests/capteur/bin/p-nucleo-wb55/newlib_syscalls_default/syscalls.o
 .debug_line    0x00000000000082f1      0x6ea /home/ch/RIOT/tests/capteur/bin/p-nucleo-wb55/periph_common/init.o
 .debug_line    0x00000000000089db      0xc1f /home/ch/RIOT/tests/capteur/bin/p-nucleo-wb55/periph/gpio_all.o
 .debug_line    0x00000000000095fa      0x874 /home/ch/RIOT/tests/capteur/bin/p-nucleo-wb55/periph/pm.o
 .debug_line    0x0000000000009e6e      0xb9e /home/ch/RIOT/tests/capteur/bin/p-nucleo-wb55/periph/timer.o
 .debug_line    0x000000000000aa0c      0xcb2 /home/ch/RIOT/tests/capteur/bin/p-nucleo-wb55/periph/uart.o
 .debug_line    0x000000000000b6be      0x9fc /home/ch/RIOT/tests/capteur/bin/p-nucleo-wb55/pm_layered/pm.o
 .debug_line    0x000000000000c0ba      0x960 /home/ch/RIOT/tests/capteur/bin/p-nucleo-wb55/stdio_uart/stdio_uart.o
 .debug_line    0x000000000000ca1a      0x983 /home/ch/RIOT/tests/capteur/bin/p-nucleo-wb55/stm32_clk/stmclk_common.o
 .debug_line    0x000000000000d39d      0xa32 /home/ch/RIOT/tests/capteur/bin/p-nucleo-wb55/stm32_clk/stmclk_l4wx.o
 .debug_line    0x000000000000ddcf      0x275 /home/ch/RIOT/tests/capteur/bin/p-nucleo-wb55/stm32_vectors/STM32WB55xx.o
 .debug_line    0x000000000000e044      0xf72 /home/ch/RIOT/tests/capteur/bin/p-nucleo-wb55/xtimer/xtimer_core.o
 .debug_line    0x000000000000efb6       0xd4 /usr/lib/gcc/arm-none-eabi/9.2.1/thumb/v7e-m/nofp/libgcc.a(_arm_mulsf3.o)
 .debug_line    0x000000000000f08a      0x186 /usr/lib/gcc/arm-none-eabi/9.2.1/thumb/v7e-m/nofp/libgcc.a(_arm_addsubdf3.o)
 .debug_line    0x000000000000f210      0x19b /usr/lib/gcc/arm-none-eabi/9.2.1/thumb/v7e-m/nofp/libgcc.a(_arm_muldivdf3.o)
 .debug_line    0x000000000000f3ab       0x8d /usr/lib/gcc/arm-none-eabi/9.2.1/thumb/v7e-m/nofp/libgcc.a(_arm_truncdfsf2.o)
 .debug_line    0x000000000000f438       0x79 /usr/lib/gcc/arm-none-eabi/9.2.1/thumb/v7e-m/nofp/libgcc.a(_arm_fixsfsi.o)
 .debug_line    0x000000000000f4b1       0x60 /usr/lib/gcc/arm-none-eabi/9.2.1/thumb/v7e-m/nofp/libgcc.a(_aeabi_uldivmod.o)
 .debug_line    0x000000000000f511      0x610 /usr/lib/gcc/arm-none-eabi/9.2.1/thumb/v7e-m/nofp/libgcc.a(_udivmoddi4.o)
 .debug_line    0x000000000000fb21       0x60 /usr/lib/gcc/arm-none-eabi/9.2.1/thumb/v7e-m/nofp/libgcc.a(_dvmd_tls.o)
 .debug_line    0x000000000000fb81       0xe3 /usr/lib/gcc/arm-none-eabi/9.2.1/../../../arm-none-eabi/lib/thumb/v7e-m/nofp/libc_nano.a(lib_a-impure.o)
 .debug_line    0x000000000000fc64      0x10d /usr/lib/gcc/arm-none-eabi/9.2.1/../../../arm-none-eabi/lib/thumb/v7e-m/nofp/libc_nano.a(lib_a-init.o)
 .debug_line    0x000000000000fd71       0xbe /usr/lib/gcc/arm-none-eabi/9.2.1/../../../arm-none-eabi/lib/thumb/v7e-m/nofp/libc_nano.a(lib_a-memcpy.o)
 .debug_line    0x000000000000fe2f      0x26b /usr/lib/gcc/arm-none-eabi/9.2.1/../../../arm-none-eabi/lib/thumb/v7e-m/nofp/libc_nano.a(lib_a-memset.o)
 .debug_line    0x000000000001009a      0x2af /usr/lib/gcc/arm-none-eabi/9.2.1/../../../arm-none-eabi/lib/thumb/v7e-m/nofp/libc_nano.a(lib_a-nano-freer.o)
 .debug_line    0x0000000000010349      0x2f2 /usr/lib/gcc/arm-none-eabi/9.2.1/../../../arm-none-eabi/lib/thumb/v7e-m/nofp/libc_nano.a(lib_a-nano-mallocr.o)
 .debug_line    0x000000000001063b      0x1fc /usr/lib/gcc/arm-none-eabi/9.2.1/../../../arm-none-eabi/lib/thumb/v7e-m/nofp/libc_nano.a(lib_a-printf.o)
 .debug_line    0x0000000000010837      0x316 /usr/lib/gcc/arm-none-eabi/9.2.1/../../../arm-none-eabi/lib/thumb/v7e-m/nofp/libc_nano.a(lib_a-puts.o)
 .debug_line    0x0000000000010b4d      0x1cb /usr/lib/gcc/arm-none-eabi/9.2.1/../../../arm-none-eabi/lib/thumb/v7e-m/nofp/libc_nano.a(lib_a-time.o)
 .debug_line    0x0000000000010d18      0x27c /usr/lib/gcc/arm-none-eabi/9.2.1/../../../arm-none-eabi/lib/thumb/v7e-m/nofp/libc_nano.a(lib_a-wbuf.o)
 .debug_line    0x0000000000010f94      0x311 /usr/lib/gcc/arm-none-eabi/9.2.1/../../../arm-none-eabi/lib/thumb/v7e-m/nofp/libc_nano.a(lib_a-wsetup.o)
 .debug_line    0x00000000000112a5      0x418 /usr/lib/gcc/arm-none-eabi/9.2.1/../../../arm-none-eabi/lib/thumb/v7e-m/nofp/libc_nano.a(lib_a-fflush.o)
 .debug_line    0x00000000000116bd      0x561 /usr/lib/gcc/arm-none-eabi/9.2.1/../../../arm-none-eabi/lib/thumb/v7e-m/nofp/libc_nano.a(lib_a-findfp.o)
 .debug_line    0x0000000000011c1e      0x289 /usr/lib/gcc/arm-none-eabi/9.2.1/../../../arm-none-eabi/lib/thumb/v7e-m/nofp/libc_nano.a(lib_a-fwalk.o)
 .debug_line    0x0000000000011ea7      0x36f /usr/lib/gcc/arm-none-eabi/9.2.1/../../../arm-none-eabi/lib/thumb/v7e-m/nofp/libc_nano.a(lib_a-makebuf.o)
 .debug_line    0x0000000000012216      0x13d /usr/lib/gcc/arm-none-eabi/9.2.1/../../../arm-none-eabi/lib/thumb/v7e-m/nofp/libc_nano.a(lib_a-mlock.o)
 .debug_line    0x0000000000012353      0x1c5 /usr/lib/gcc/arm-none-eabi/9.2.1/../../../arm-none-eabi/lib/thumb/v7e-m/nofp/libc_nano.a(lib_a-nano-reallocr.o)
 .debug_line    0x0000000000012518      0x726 /usr/lib/gcc/arm-none-eabi/9.2.1/../../../arm-none-eabi/lib/thumb/v7e-m/nofp/libc_nano.a(lib_a-nano-vfprintf.o)
 .debug_line    0x0000000000012c3e      0x790 /usr/lib/gcc/arm-none-eabi/9.2.1/../../../arm-none-eabi/lib/thumb/v7e-m/nofp/libc_nano.a(lib_a-nano-vfprintf_i.o)
 .debug_line    0x00000000000133ce      0x25f /usr/lib/gcc/arm-none-eabi/9.2.1/../../../arm-none-eabi/lib/thumb/v7e-m/nofp/libc_nano.a(lib_a-stdio.o)
 .debug_line    0x000000000001362d      0x5e8 /usr/lib/gcc/arm-none-eabi/9.2.1/../../../arm-none-eabi/lib/thumb/v7e-m/nofp/libc_nano.a(lib_a-fvwrite.o)
 .debug_line    0x0000000000013c15       0xa4 /usr/lib/gcc/arm-none-eabi/9.2.1/../../../arm-none-eabi/lib/thumb/v7e-m/nofp/libc_nano.a(lib_a-memchr.o)
 .debug_line    0x0000000000013cb9      0x287 /usr/lib/gcc/arm-none-eabi/9.2.1/../../../arm-none-eabi/lib/thumb/v7e-m/nofp/libc_nano.a(lib_a-memmove.o)
 .debug_line    0x0000000000013f40      0x166 /usr/lib/gcc/arm-none-eabi/9.2.1/../../../arm-none-eabi/lib/thumb/v7e-m/nofp/libc_nano.a(lib_a-nano-msizer.o)

.debug_str      0x0000000000000000    0x873df
 .debug_str     0x0000000000000000    0x7f50d /home/ch/RIOT/tests/capteur/bin/p-nucleo-wb55/application_tests_capteur/main.o
                                      0x7fa1e (size before relaxing)
 .debug_str     0x000000000007f50d      0x5c2 /home/ch/RIOT/tests/capteur/bin/p-nucleo-wb55/auto_init/auto_init.o
                                       0x9744 (size before relaxing)
 .debug_str     0x000000000007facf      0x122 /home/ch/RIOT/tests/capteur/bin/p-nucleo-wb55/boards_common_nucleo/board_common_nucleo_init.o
                                      0x7e5c9 (size before relaxing)
 .debug_str     0x000000000007fbf1      0x79f /home/ch/RIOT/tests/capteur/bin/p-nucleo-wb55/core/init.o
                                      0x7e246 (size before relaxing)
 .debug_str     0x0000000000080390      0x1bd /home/ch/RIOT/tests/capteur/bin/p-nucleo-wb55/core/panic.o
                                      0x7dca2 (size before relaxing)
 .debug_str     0x000000000008054d      0x581 /home/ch/RIOT/tests/capteur/bin/p-nucleo-wb55/core/sched.o
                                      0x7d39a (size before relaxing)
 .debug_str     0x0000000000080ace      0x284 /home/ch/RIOT/tests/capteur/bin/p-nucleo-wb55/core/thread.o
                                      0x7d90c (size before relaxing)
 .debug_str     0x0000000000080d52      0x5e0 /home/ch/RIOT/tests/capteur/bin/p-nucleo-wb55/cortexm_common/cortexm_init.o
                                      0x7d246 (size before relaxing)
 .debug_str     0x0000000000081332       0x64 /home/ch/RIOT/tests/capteur/bin/p-nucleo-wb55/cortexm_common/panic.o
                                      0x7ce18 (size before relaxing)
 .debug_str     0x0000000000081396      0x1a8 /home/ch/RIOT/tests/capteur/bin/p-nucleo-wb55/cortexm_common/thread_arch.o
                                      0x7d097 (size before relaxing)
 .debug_str     0x000000000008153e      0x41c /home/ch/RIOT/tests/capteur/bin/p-nucleo-wb55/cortexm_common/vectors_cortexm.o
                                      0x7ea7c (size before relaxing)
 .debug_str     0x000000000008195a      0x26f /home/ch/RIOT/tests/capteur/bin/p-nucleo-wb55/cpu/cpu_common.o
                                      0x7e639 (size before relaxing)
 .debug_str     0x0000000000081bc9     0x10fd /home/ch/RIOT/tests/capteur/bin/p-nucleo-wb55/cpu/cpu_init.o
                                      0x7f5ba (size before relaxing)
 .debug_str     0x0000000000082cc6       0xbd /home/ch/RIOT/tests/capteur/bin/p-nucleo-wb55/div/div.o
                                       0x8159 (size before relaxing)
 .debug_str     0x0000000000082d83      0x93a /home/ch/RIOT/tests/capteur/bin/p-nucleo-wb55/newlib_syscalls_default/syscalls.o
                                      0x818ef (size before relaxing)
 .debug_str     0x00000000000836bd       0x9e /home/ch/RIOT/tests/capteur/bin/p-nucleo-wb55/periph_common/init.o
                                      0x7d9ba (size before relaxing)
 .debug_str     0x000000000008375b      0x22b /home/ch/RIOT/tests/capteur/bin/p-nucleo-wb55/periph/gpio_all.o
                                      0x7e706 (size before relaxing)
 .debug_str     0x0000000000083986      0x1ca /home/ch/RIOT/tests/capteur/bin/p-nucleo-wb55/periph/pm.o
                                      0x7ddab (size before relaxing)
 .debug_str     0x0000000000083b50      0x121 /home/ch/RIOT/tests/capteur/bin/p-nucleo-wb55/periph/timer.o
                                      0x7e87d (size before relaxing)
 .debug_str     0x0000000000083c71      0x27e /home/ch/RIOT/tests/capteur/bin/p-nucleo-wb55/periph/uart.o
                                      0x7f1a6 (size before relaxing)
 .debug_str     0x0000000000083eef      0x41a /home/ch/RIOT/tests/capteur/bin/p-nucleo-wb55/pm_layered/pm.o
                                      0x7e096 (size before relaxing)
 .debug_str     0x0000000000084309      0x185 /home/ch/RIOT/tests/capteur/bin/p-nucleo-wb55/stdio_uart/stdio_uart.o
                                      0x7fce4 (size before relaxing)
 .debug_str     0x000000000008448e      0x1dd /home/ch/RIOT/tests/capteur/bin/p-nucleo-wb55/stm32_clk/stmclk_common.o
                                      0x7e5dc (size before relaxing)
 .debug_str     0x000000000008466b      0x7c3 /home/ch/RIOT/tests/capteur/bin/p-nucleo-wb55/stm32_clk/stmclk_l4wx.o
                                      0x7ec54 (size before relaxing)
 .debug_str     0x0000000000084e2e       0xbd /home/ch/RIOT/tests/capteur/bin/p-nucleo-wb55/stm32_vectors/STM32WB55xx.o
                                      0x7770a (size before relaxing)
 .debug_str     0x0000000000084eeb      0x20d /home/ch/RIOT/tests/capteur/bin/p-nucleo-wb55/xtimer/xtimer_core.o
                                      0x7fc87 (size before relaxing)
 .debug_str     0x00000000000850f8       0xa5 /usr/lib/gcc/arm-none-eabi/9.2.1/thumb/v7e-m/nofp/libgcc.a(_arm_mulsf3.o)
 .debug_str     0x000000000008519d       0x31 /usr/lib/gcc/arm-none-eabi/9.2.1/thumb/v7e-m/nofp/libgcc.a(_arm_addsubdf3.o)
                                         0xa5 (size before relaxing)
 .debug_str     0x00000000000851ce       0xa5 /usr/lib/gcc/arm-none-eabi/9.2.1/thumb/v7e-m/nofp/libgcc.a(_arm_muldivdf3.o)
 .debug_str     0x00000000000851ce       0xa5 /usr/lib/gcc/arm-none-eabi/9.2.1/thumb/v7e-m/nofp/libgcc.a(_arm_truncdfsf2.o)
 .debug_str     0x00000000000851ce       0xa5 /usr/lib/gcc/arm-none-eabi/9.2.1/thumb/v7e-m/nofp/libgcc.a(_arm_fixsfsi.o)
 .debug_str     0x00000000000851ce       0x2c /usr/lib/gcc/arm-none-eabi/9.2.1/thumb/v7e-m/nofp/libgcc.a(_aeabi_uldivmod.o)
                                         0xa0 (size before relaxing)
 .debug_str     0x00000000000851fa     0x10d9 /usr/lib/gcc/arm-none-eabi/9.2.1/thumb/v7e-m/nofp/libgcc.a(_udivmoddi4.o)
                                       0x11e0 (size before relaxing)
 .debug_str     0x00000000000862d3       0x30 /usr/lib/gcc/arm-none-eabi/9.2.1/thumb/v7e-m/nofp/libgcc.a(_dvmd_tls.o)
                                         0xa4 (size before relaxing)
 .debug_str     0x0000000000086303      0x12b /usr/lib/gcc/arm-none-eabi/9.2.1/../../../arm-none-eabi/lib/thumb/v7e-m/nofp/libc_nano.a(lib_a-impure.o)
                                        0x5dc (size before relaxing)
 .debug_str     0x000000000008642e       0xdb /usr/lib/gcc/arm-none-eabi/9.2.1/../../../arm-none-eabi/lib/thumb/v7e-m/nofp/libc_nano.a(lib_a-init.o)
                                        0x223 (size before relaxing)
 .debug_str     0x0000000000086509       0xa7 /usr/lib/gcc/arm-none-eabi/9.2.1/../../../arm-none-eabi/lib/thumb/v7e-m/nofp/libc_nano.a(lib_a-memcpy.o)
                                         0xb3 (size before relaxing)
 .debug_str     0x00000000000865b0      0x314 /usr/lib/gcc/arm-none-eabi/9.2.1/../../../arm-none-eabi/lib/thumb/v7e-m/nofp/libc_nano.a(lib_a-memset.o)
                                        0x909 (size before relaxing)
 .debug_str     0x00000000000868c4      0x149 /usr/lib/gcc/arm-none-eabi/9.2.1/../../../arm-none-eabi/lib/thumb/v7e-m/nofp/libc_nano.a(lib_a-nano-freer.o)
                                        0x70c (size before relaxing)
 .debug_str     0x0000000000086a0d       0x34 /usr/lib/gcc/arm-none-eabi/9.2.1/../../../arm-none-eabi/lib/thumb/v7e-m/nofp/libc_nano.a(lib_a-nano-mallocr.o)
                                        0x723 (size before relaxing)
 .debug_str     0x0000000000086a41      0x1ae /usr/lib/gcc/arm-none-eabi/9.2.1/../../../arm-none-eabi/lib/thumb/v7e-m/nofp/libc_nano.a(lib_a-printf.o)
                                        0x756 (size before relaxing)
 .debug_str     0x0000000000086bef       0x69 /usr/lib/gcc/arm-none-eabi/9.2.1/../../../arm-none-eabi/lib/thumb/v7e-m/nofp/libc_nano.a(lib_a-puts.o)
                                        0x75f (size before relaxing)
 .debug_str     0x0000000000086c58       0xa9 /usr/lib/gcc/arm-none-eabi/9.2.1/../../../arm-none-eabi/lib/thumb/v7e-m/nofp/libc_nano.a(lib_a-time.o)
                                        0x645 (size before relaxing)
 .debug_str     0x0000000000086d01       0x43 /usr/lib/gcc/arm-none-eabi/9.2.1/../../../arm-none-eabi/lib/thumb/v7e-m/nofp/libc_nano.a(lib_a-wbuf.o)
                                        0x765 (size before relaxing)
 .debug_str     0x0000000000086d44       0x40 /usr/lib/gcc/arm-none-eabi/9.2.1/../../../arm-none-eabi/lib/thumb/v7e-m/nofp/libc_nano.a(lib_a-wsetup.o)
                                        0x760 (size before relaxing)
 .debug_str     0x0000000000086d84       0x63 /usr/lib/gcc/arm-none-eabi/9.2.1/../../../arm-none-eabi/lib/thumb/v7e-m/nofp/libc_nano.a(lib_a-fflush.o)
                                        0x78e (size before relaxing)
 .debug_str     0x0000000000086de7      0x14f /usr/lib/gcc/arm-none-eabi/9.2.1/../../../arm-none-eabi/lib/thumb/v7e-m/nofp/libc_nano.a(lib_a-findfp.o)
                                        0x89e (size before relaxing)
 .debug_str     0x0000000000086f36       0x41 /usr/lib/gcc/arm-none-eabi/9.2.1/../../../arm-none-eabi/lib/thumb/v7e-m/nofp/libc_nano.a(lib_a-fwalk.o)
                                        0x752 (size before relaxing)
 .debug_str     0x0000000000086f77       0x59 /usr/lib/gcc/arm-none-eabi/9.2.1/../../../arm-none-eabi/lib/thumb/v7e-m/nofp/libc_nano.a(lib_a-makebuf.o)
                                        0x8d3 (size before relaxing)
 .debug_str     0x0000000000086fd0       0x4c /usr/lib/gcc/arm-none-eabi/9.2.1/../../../arm-none-eabi/lib/thumb/v7e-m/nofp/libc_nano.a(lib_a-mlock.o)
                                        0x608 (size before relaxing)
 .debug_str     0x000000000008701c       0x35 /usr/lib/gcc/arm-none-eabi/9.2.1/../../../arm-none-eabi/lib/thumb/v7e-m/nofp/libc_nano.a(lib_a-nano-reallocr.o)
                                        0x709 (size before relaxing)
 .debug_str     0x0000000000087051      0x189 /usr/lib/gcc/arm-none-eabi/9.2.1/../../../arm-none-eabi/lib/thumb/v7e-m/nofp/libc_nano.a(lib_a-nano-vfprintf.o)
                                        0xc28 (size before relaxing)
 .debug_str     0x00000000000871da       0x94 /usr/lib/gcc/arm-none-eabi/9.2.1/../../../arm-none-eabi/lib/thumb/v7e-m/nofp/libc_nano.a(lib_a-nano-vfprintf_i.o)
                                        0xba6 (size before relaxing)
 .debug_str     0x000000000008726e       0x66 /usr/lib/gcc/arm-none-eabi/9.2.1/../../../arm-none-eabi/lib/thumb/v7e-m/nofp/libc_nano.a(lib_a-stdio.o)
                                        0x7a6 (size before relaxing)
 .debug_str     0x00000000000872d4       0x5a /usr/lib/gcc/arm-none-eabi/9.2.1/../../../arm-none-eabi/lib/thumb/v7e-m/nofp/libc_nano.a(lib_a-fvwrite.o)
                                        0x7df (size before relaxing)
 .debug_str     0x000000000008732e       0x3c /usr/lib/gcc/arm-none-eabi/9.2.1/../../../arm-none-eabi/lib/thumb/v7e-m/nofp/libc_nano.a(lib_a-memchr.o)
                                         0xac (size before relaxing)
 .debug_str     0x000000000008736a       0x66 /usr/lib/gcc/arm-none-eabi/9.2.1/../../../arm-none-eabi/lib/thumb/v7e-m/nofp/libc_nano.a(lib_a-memmove.o)
                                        0x928 (size before relaxing)
 .debug_str     0x00000000000873d0        0xf /usr/lib/gcc/arm-none-eabi/9.2.1/../../../arm-none-eabi/lib/thumb/v7e-m/nofp/libc_nano.a(lib_a-nano-msizer.o)
                                        0x6e7 (size before relaxing)

.comment        0x0000000000000000       0xa7
 .comment       0x0000000000000000       0x59 /home/ch/RIOT/tests/capteur/bin/p-nucleo-wb55/application_tests_capteur/main.o
                                         0x5a (size before relaxing)
 .comment       0x0000000000000059       0x5a /home/ch/RIOT/tests/capteur/bin/p-nucleo-wb55/auto_init/auto_init.o
 .comment       0x0000000000000059       0x5a /home/ch/RIOT/tests/capteur/bin/p-nucleo-wb55/boards_common_nucleo/board_common_nucleo_init.o
 .comment       0x0000000000000059       0x5a /home/ch/RIOT/tests/capteur/bin/p-nucleo-wb55/core/init.o
 .comment       0x0000000000000059       0x5a /home/ch/RIOT/tests/capteur/bin/p-nucleo-wb55/core/panic.o
 .comment       0x0000000000000059       0x5a /home/ch/RIOT/tests/capteur/bin/p-nucleo-wb55/core/sched.o
 .comment       0x0000000000000059       0x5a /home/ch/RIOT/tests/capteur/bin/p-nucleo-wb55/core/thread.o
 .comment       0x0000000000000059       0x5a /home/ch/RIOT/tests/capteur/bin/p-nucleo-wb55/cortexm_common/cortexm_init.o
 .comment       0x0000000000000059       0x5a /home/ch/RIOT/tests/capteur/bin/p-nucleo-wb55/cortexm_common/panic.o
 .comment       0x0000000000000059       0x5a /home/ch/RIOT/tests/capteur/bin/p-nucleo-wb55/cortexm_common/thread_arch.o
 .comment       0x0000000000000059       0x5a /home/ch/RIOT/tests/capteur/bin/p-nucleo-wb55/cortexm_common/vectors_cortexm.o
 .comment       0x0000000000000059       0x5a /home/ch/RIOT/tests/capteur/bin/p-nucleo-wb55/cpu/cpu_common.o
 .comment       0x0000000000000059       0x5a /home/ch/RIOT/tests/capteur/bin/p-nucleo-wb55/cpu/cpu_init.o
 .comment       0x0000000000000059       0x5a /home/ch/RIOT/tests/capteur/bin/p-nucleo-wb55/div/div.o
 .comment       0x0000000000000059       0x5a /home/ch/RIOT/tests/capteur/bin/p-nucleo-wb55/newlib_syscalls_default/syscalls.o
 .comment       0x0000000000000059       0x5a /home/ch/RIOT/tests/capteur/bin/p-nucleo-wb55/periph_common/init.o
 .comment       0x0000000000000059       0x5a /home/ch/RIOT/tests/capteur/bin/p-nucleo-wb55/periph/gpio_all.o
 .comment       0x0000000000000059       0x5a /home/ch/RIOT/tests/capteur/bin/p-nucleo-wb55/periph/pm.o
 .comment       0x0000000000000059       0x5a /home/ch/RIOT/tests/capteur/bin/p-nucleo-wb55/periph/timer.o
 .comment       0x0000000000000059       0x5a /home/ch/RIOT/tests/capteur/bin/p-nucleo-wb55/periph/uart.o
 .comment       0x0000000000000059       0x5a /home/ch/RIOT/tests/capteur/bin/p-nucleo-wb55/pm_layered/pm.o
 .comment       0x0000000000000059       0x5a /home/ch/RIOT/tests/capteur/bin/p-nucleo-wb55/stdio_uart/stdio_uart.o
 .comment       0x0000000000000059       0x5a /home/ch/RIOT/tests/capteur/bin/p-nucleo-wb55/stm32_clk/stmclk_common.o
 .comment       0x0000000000000059       0x5a /home/ch/RIOT/tests/capteur/bin/p-nucleo-wb55/stm32_clk/stmclk_l4wx.o
 .comment       0x0000000000000059       0x5a /home/ch/RIOT/tests/capteur/bin/p-nucleo-wb55/stm32_vectors/STM32WB55xx.o
 .comment       0x0000000000000059       0x5a /home/ch/RIOT/tests/capteur/bin/p-nucleo-wb55/xtimer/xtimer_core.o
 .comment       0x0000000000000059       0x5a /usr/lib/gcc/arm-none-eabi/9.2.1/thumb/v7e-m/nofp/libgcc.a(_udivmoddi4.o)
 .comment       0x0000000000000059       0x4e /usr/lib/gcc/arm-none-eabi/9.2.1/../../../arm-none-eabi/lib/thumb/v7e-m/nofp/libc_nano.a(lib_a-impure.o)
                                         0x4f (size before relaxing)
 .comment       0x00000000000000a7       0x4f /usr/lib/gcc/arm-none-eabi/9.2.1/../../../arm-none-eabi/lib/thumb/v7e-m/nofp/libc_nano.a(lib_a-init.o)
 .comment       0x00000000000000a7       0x4f /usr/lib/gcc/arm-none-eabi/9.2.1/../../../arm-none-eabi/lib/thumb/v7e-m/nofp/libc_nano.a(lib_a-memset.o)
 .comment       0x00000000000000a7       0x4f /usr/lib/gcc/arm-none-eabi/9.2.1/../../../arm-none-eabi/lib/thumb/v7e-m/nofp/libc_nano.a(lib_a-nano-freer.o)
 .comment       0x00000000000000a7       0x4f /usr/lib/gcc/arm-none-eabi/9.2.1/../../../arm-none-eabi/lib/thumb/v7e-m/nofp/libc_nano.a(lib_a-nano-mallocr.o)
 .comment       0x00000000000000a7       0x4f /usr/lib/gcc/arm-none-eabi/9.2.1/../../../arm-none-eabi/lib/thumb/v7e-m/nofp/libc_nano.a(lib_a-printf.o)
 .comment       0x00000000000000a7       0x4f /usr/lib/gcc/arm-none-eabi/9.2.1/../../../arm-none-eabi/lib/thumb/v7e-m/nofp/libc_nano.a(lib_a-puts.o)
 .comment       0x00000000000000a7       0x4f /usr/lib/gcc/arm-none-eabi/9.2.1/../../../arm-none-eabi/lib/thumb/v7e-m/nofp/libc_nano.a(lib_a-time.o)
 .comment       0x00000000000000a7       0x4f /usr/lib/gcc/arm-none-eabi/9.2.1/../../../arm-none-eabi/lib/thumb/v7e-m/nofp/libc_nano.a(lib_a-wbuf.o)
 .comment       0x00000000000000a7       0x4f /usr/lib/gcc/arm-none-eabi/9.2.1/../../../arm-none-eabi/lib/thumb/v7e-m/nofp/libc_nano.a(lib_a-wsetup.o)
 .comment       0x00000000000000a7       0x4f /usr/lib/gcc/arm-none-eabi/9.2.1/../../../arm-none-eabi/lib/thumb/v7e-m/nofp/libc_nano.a(lib_a-fflush.o)
 .comment       0x00000000000000a7       0x4f /usr/lib/gcc/arm-none-eabi/9.2.1/../../../arm-none-eabi/lib/thumb/v7e-m/nofp/libc_nano.a(lib_a-findfp.o)
 .comment       0x00000000000000a7       0x4f /usr/lib/gcc/arm-none-eabi/9.2.1/../../../arm-none-eabi/lib/thumb/v7e-m/nofp/libc_nano.a(lib_a-fwalk.o)
 .comment       0x00000000000000a7       0x4f /usr/lib/gcc/arm-none-eabi/9.2.1/../../../arm-none-eabi/lib/thumb/v7e-m/nofp/libc_nano.a(lib_a-makebuf.o)
 .comment       0x00000000000000a7       0x4f /usr/lib/gcc/arm-none-eabi/9.2.1/../../../arm-none-eabi/lib/thumb/v7e-m/nofp/libc_nano.a(lib_a-mlock.o)
 .comment       0x00000000000000a7       0x4f /usr/lib/gcc/arm-none-eabi/9.2.1/../../../arm-none-eabi/lib/thumb/v7e-m/nofp/libc_nano.a(lib_a-nano-reallocr.o)
 .comment       0x00000000000000a7       0x4f /usr/lib/gcc/arm-none-eabi/9.2.1/../../../arm-none-eabi/lib/thumb/v7e-m/nofp/libc_nano.a(lib_a-nano-vfprintf.o)
 .comment       0x00000000000000a7       0x4f /usr/lib/gcc/arm-none-eabi/9.2.1/../../../arm-none-eabi/lib/thumb/v7e-m/nofp/libc_nano.a(lib_a-nano-vfprintf_i.o)
 .comment       0x00000000000000a7       0x4f /usr/lib/gcc/arm-none-eabi/9.2.1/../../../arm-none-eabi/lib/thumb/v7e-m/nofp/libc_nano.a(lib_a-stdio.o)
 .comment       0x00000000000000a7       0x4f /usr/lib/gcc/arm-none-eabi/9.2.1/../../../arm-none-eabi/lib/thumb/v7e-m/nofp/libc_nano.a(lib_a-fvwrite.o)
 .comment       0x00000000000000a7       0x4f /usr/lib/gcc/arm-none-eabi/9.2.1/../../../arm-none-eabi/lib/thumb/v7e-m/nofp/libc_nano.a(lib_a-memmove.o)
 .comment       0x00000000000000a7       0x4f /usr/lib/gcc/arm-none-eabi/9.2.1/../../../arm-none-eabi/lib/thumb/v7e-m/nofp/libc_nano.a(lib_a-nano-msizer.o)

.ARM.attributes
                0x0000000000000000       0x2c
 .ARM.attributes
                0x0000000000000000       0x2e /home/ch/RIOT/tests/capteur/bin/p-nucleo-wb55/application_tests_capteur/main.o
 .ARM.attributes
                0x000000000000002e       0x2e /home/ch/RIOT/tests/capteur/bin/p-nucleo-wb55/auto_init/auto_init.o
 .ARM.attributes
                0x000000000000005c       0x2e /home/ch/RIOT/tests/capteur/bin/p-nucleo-wb55/boards_common_nucleo/board_common_nucleo_init.o
 .ARM.attributes
                0x000000000000008a       0x2e /home/ch/RIOT/tests/capteur/bin/p-nucleo-wb55/core/init.o
 .ARM.attributes
                0x00000000000000b8       0x2e /home/ch/RIOT/tests/capteur/bin/p-nucleo-wb55/core/panic.o
 .ARM.attributes
                0x00000000000000e6       0x2e /home/ch/RIOT/tests/capteur/bin/p-nucleo-wb55/core/sched.o
 .ARM.attributes
                0x0000000000000114       0x2e /home/ch/RIOT/tests/capteur/bin/p-nucleo-wb55/core/thread.o
 .ARM.attributes
                0x0000000000000142       0x2e /home/ch/RIOT/tests/capteur/bin/p-nucleo-wb55/cortexm_common/cortexm_init.o
 .ARM.attributes
                0x0000000000000170       0x2e /home/ch/RIOT/tests/capteur/bin/p-nucleo-wb55/cortexm_common/panic.o
 .ARM.attributes
                0x000000000000019e       0x2e /home/ch/RIOT/tests/capteur/bin/p-nucleo-wb55/cortexm_common/thread_arch.o
 .ARM.attributes
                0x00000000000001cc       0x2e /home/ch/RIOT/tests/capteur/bin/p-nucleo-wb55/cortexm_common/vectors_cortexm.o
 .ARM.attributes
                0x00000000000001fa       0x2e /home/ch/RIOT/tests/capteur/bin/p-nucleo-wb55/cpu/cpu_common.o
 .ARM.attributes
                0x0000000000000228       0x2e /home/ch/RIOT/tests/capteur/bin/p-nucleo-wb55/cpu/cpu_init.o
 .ARM.attributes
                0x0000000000000256       0x2e /home/ch/RIOT/tests/capteur/bin/p-nucleo-wb55/div/div.o
 .ARM.attributes
                0x0000000000000284       0x2e /home/ch/RIOT/tests/capteur/bin/p-nucleo-wb55/newlib_syscalls_default/syscalls.o
 .ARM.attributes
                0x00000000000002b2       0x2e /home/ch/RIOT/tests/capteur/bin/p-nucleo-wb55/periph_common/init.o
 .ARM.attributes
                0x00000000000002e0       0x2e /home/ch/RIOT/tests/capteur/bin/p-nucleo-wb55/periph/gpio_all.o
 .ARM.attributes
                0x000000000000030e       0x2e /home/ch/RIOT/tests/capteur/bin/p-nucleo-wb55/periph/pm.o
 .ARM.attributes
                0x000000000000033c       0x2e /home/ch/RIOT/tests/capteur/bin/p-nucleo-wb55/periph/timer.o
 .ARM.attributes
                0x000000000000036a       0x2e /home/ch/RIOT/tests/capteur/bin/p-nucleo-wb55/periph/uart.o
 .ARM.attributes
                0x0000000000000398       0x2e /home/ch/RIOT/tests/capteur/bin/p-nucleo-wb55/pm_layered/pm.o
 .ARM.attributes
                0x00000000000003c6       0x2e /home/ch/RIOT/tests/capteur/bin/p-nucleo-wb55/stdio_uart/stdio_uart.o
 .ARM.attributes
                0x00000000000003f4       0x2e /home/ch/RIOT/tests/capteur/bin/p-nucleo-wb55/stm32_clk/stmclk_common.o
 .ARM.attributes
                0x0000000000000422       0x2e /home/ch/RIOT/tests/capteur/bin/p-nucleo-wb55/stm32_clk/stmclk_l4wx.o
 .ARM.attributes
                0x0000000000000450       0x2e /home/ch/RIOT/tests/capteur/bin/p-nucleo-wb55/stm32_vectors/STM32WB55xx.o
 .ARM.attributes
                0x000000000000047e       0x2e /home/ch/RIOT/tests/capteur/bin/p-nucleo-wb55/xtimer/xtimer_core.o
 .ARM.attributes
                0x00000000000004ac       0x1e /usr/lib/gcc/arm-none-eabi/9.2.1/thumb/v7e-m/nofp/libgcc.a(_arm_mulsf3.o)
 .ARM.attributes
                0x00000000000004ca       0x1e /usr/lib/gcc/arm-none-eabi/9.2.1/thumb/v7e-m/nofp/libgcc.a(_arm_addsubdf3.o)
 .ARM.attributes
                0x00000000000004e8       0x1e /usr/lib/gcc/arm-none-eabi/9.2.1/thumb/v7e-m/nofp/libgcc.a(_arm_muldivdf3.o)
 .ARM.attributes
                0x0000000000000506       0x1e /usr/lib/gcc/arm-none-eabi/9.2.1/thumb/v7e-m/nofp/libgcc.a(_arm_truncdfsf2.o)
 .ARM.attributes
                0x0000000000000524       0x1e /usr/lib/gcc/arm-none-eabi/9.2.1/thumb/v7e-m/nofp/libgcc.a(_arm_fixsfsi.o)
 .ARM.attributes
                0x0000000000000542       0x1e /usr/lib/gcc/arm-none-eabi/9.2.1/thumb/v7e-m/nofp/libgcc.a(_aeabi_uldivmod.o)
 .ARM.attributes
                0x0000000000000560       0x2e /usr/lib/gcc/arm-none-eabi/9.2.1/thumb/v7e-m/nofp/libgcc.a(_udivmoddi4.o)
 .ARM.attributes
                0x000000000000058e       0x1e /usr/lib/gcc/arm-none-eabi/9.2.1/thumb/v7e-m/nofp/libgcc.a(_dvmd_tls.o)
 .ARM.attributes
                0x00000000000005ac       0x2e /usr/lib/gcc/arm-none-eabi/9.2.1/../../../arm-none-eabi/lib/thumb/v7e-m/nofp/libc_nano.a(lib_a-impure.o)
 .ARM.attributes
                0x00000000000005da       0x2e /usr/lib/gcc/arm-none-eabi/9.2.1/../../../arm-none-eabi/lib/thumb/v7e-m/nofp/libc_nano.a(lib_a-init.o)
 .ARM.attributes
                0x0000000000000608       0x1c /usr/lib/gcc/arm-none-eabi/9.2.1/../../../arm-none-eabi/lib/thumb/v7e-m/nofp/libc_nano.a(lib_a-memcpy.o)
 .ARM.attributes
                0x0000000000000624       0x2e /usr/lib/gcc/arm-none-eabi/9.2.1/../../../arm-none-eabi/lib/thumb/v7e-m/nofp/libc_nano.a(lib_a-memset.o)
 .ARM.attributes
                0x0000000000000652       0x2e /usr/lib/gcc/arm-none-eabi/9.2.1/../../../arm-none-eabi/lib/thumb/v7e-m/nofp/libc_nano.a(lib_a-nano-freer.o)
 .ARM.attributes
                0x0000000000000680       0x2e /usr/lib/gcc/arm-none-eabi/9.2.1/../../../arm-none-eabi/lib/thumb/v7e-m/nofp/libc_nano.a(lib_a-nano-mallocr.o)
 .ARM.attributes
                0x00000000000006ae       0x2e /usr/lib/gcc/arm-none-eabi/9.2.1/../../../arm-none-eabi/lib/thumb/v7e-m/nofp/libc_nano.a(lib_a-printf.o)
 .ARM.attributes
                0x00000000000006dc       0x2e /usr/lib/gcc/arm-none-eabi/9.2.1/../../../arm-none-eabi/lib/thumb/v7e-m/nofp/libc_nano.a(lib_a-puts.o)
 .ARM.attributes
                0x000000000000070a       0x2e /usr/lib/gcc/arm-none-eabi/9.2.1/../../../arm-none-eabi/lib/thumb/v7e-m/nofp/libc_nano.a(lib_a-time.o)
 .ARM.attributes
                0x0000000000000738       0x2e /usr/lib/gcc/arm-none-eabi/9.2.1/../../../arm-none-eabi/lib/thumb/v7e-m/nofp/libc_nano.a(lib_a-wbuf.o)
 .ARM.attributes
                0x0000000000000766       0x2e /usr/lib/gcc/arm-none-eabi/9.2.1/../../../arm-none-eabi/lib/thumb/v7e-m/nofp/libc_nano.a(lib_a-wsetup.o)
 .ARM.attributes
                0x0000000000000794       0x2e /usr/lib/gcc/arm-none-eabi/9.2.1/../../../arm-none-eabi/lib/thumb/v7e-m/nofp/libc_nano.a(lib_a-fflush.o)
 .ARM.attributes
                0x00000000000007c2       0x2e /usr/lib/gcc/arm-none-eabi/9.2.1/../../../arm-none-eabi/lib/thumb/v7e-m/nofp/libc_nano.a(lib_a-findfp.o)
 .ARM.attributes
                0x00000000000007f0       0x2e /usr/lib/gcc/arm-none-eabi/9.2.1/../../../arm-none-eabi/lib/thumb/v7e-m/nofp/libc_nano.a(lib_a-fwalk.o)
 .ARM.attributes
                0x000000000000081e       0x2e /usr/lib/gcc/arm-none-eabi/9.2.1/../../../arm-none-eabi/lib/thumb/v7e-m/nofp/libc_nano.a(lib_a-makebuf.o)
 .ARM.attributes
                0x000000000000084c       0x2e /usr/lib/gcc/arm-none-eabi/9.2.1/../../../arm-none-eabi/lib/thumb/v7e-m/nofp/libc_nano.a(lib_a-mlock.o)
 .ARM.attributes
                0x000000000000087a       0x2e /usr/lib/gcc/arm-none-eabi/9.2.1/../../../arm-none-eabi/lib/thumb/v7e-m/nofp/libc_nano.a(lib_a-nano-reallocr.o)
 .ARM.attributes
                0x00000000000008a8       0x2e /usr/lib/gcc/arm-none-eabi/9.2.1/../../../arm-none-eabi/lib/thumb/v7e-m/nofp/libc_nano.a(lib_a-nano-vfprintf.o)
 .ARM.attributes
                0x00000000000008d6       0x2e /usr/lib/gcc/arm-none-eabi/9.2.1/../../../arm-none-eabi/lib/thumb/v7e-m/nofp/libc_nano.a(lib_a-nano-vfprintf_i.o)
 .ARM.attributes
                0x0000000000000904       0x2e /usr/lib/gcc/arm-none-eabi/9.2.1/../../../arm-none-eabi/lib/thumb/v7e-m/nofp/libc_nano.a(lib_a-stdio.o)
 .ARM.attributes
                0x0000000000000932       0x2e /usr/lib/gcc/arm-none-eabi/9.2.1/../../../arm-none-eabi/lib/thumb/v7e-m/nofp/libc_nano.a(lib_a-fvwrite.o)
 .ARM.attributes
                0x0000000000000960       0x1c /usr/lib/gcc/arm-none-eabi/9.2.1/../../../arm-none-eabi/lib/thumb/v7e-m/nofp/libc_nano.a(lib_a-memchr.o)
 .ARM.attributes
                0x000000000000097c       0x2e /usr/lib/gcc/arm-none-eabi/9.2.1/../../../arm-none-eabi/lib/thumb/v7e-m/nofp/libc_nano.a(lib_a-memmove.o)
 .ARM.attributes
                0x00000000000009aa       0x2e /usr/lib/gcc/arm-none-eabi/9.2.1/../../../arm-none-eabi/lib/thumb/v7e-m/nofp/libc_nano.a(lib_a-nano-msizer.o)

.debug_frame    0x0000000000000000     0x1834
 .debug_frame   0x0000000000000000       0xc0 /home/ch/RIOT/tests/capteur/bin/p-nucleo-wb55/application_tests_capteur/main.o
 .debug_frame   0x00000000000000c0       0x20 /home/ch/RIOT/tests/capteur/bin/p-nucleo-wb55/auto_init/auto_init.o
 .debug_frame   0x00000000000000e0       0x4c /home/ch/RIOT/tests/capteur/bin/p-nucleo-wb55/boards_common_nucleo/board_common_nucleo_init.o
 .debug_frame   0x000000000000012c       0x50 /home/ch/RIOT/tests/capteur/bin/p-nucleo-wb55/core/init.o
 .debug_frame   0x000000000000017c       0x58 /home/ch/RIOT/tests/capteur/bin/p-nucleo-wb55/core/panic.o
 .debug_frame   0x00000000000001d4       0x90 /home/ch/RIOT/tests/capteur/bin/p-nucleo-wb55/core/sched.o
 .debug_frame   0x0000000000000264      0x124 /home/ch/RIOT/tests/capteur/bin/p-nucleo-wb55/core/thread.o
 .debug_frame   0x0000000000000388       0x48 /home/ch/RIOT/tests/capteur/bin/p-nucleo-wb55/cortexm_common/cortexm_init.o
 .debug_frame   0x00000000000003d0       0x38 /home/ch/RIOT/tests/capteur/bin/p-nucleo-wb55/cortexm_common/panic.o
 .debug_frame   0x0000000000000408       0xd4 /home/ch/RIOT/tests/capteur/bin/p-nucleo-wb55/cortexm_common/thread_arch.o
 .debug_frame   0x00000000000004dc      0x128 /home/ch/RIOT/tests/capteur/bin/p-nucleo-wb55/cortexm_common/vectors_cortexm.o
 .debug_frame   0x0000000000000604       0x60 /home/ch/RIOT/tests/capteur/bin/p-nucleo-wb55/cpu/cpu_common.o
 .debug_frame   0x0000000000000664       0x6c /home/ch/RIOT/tests/capteur/bin/p-nucleo-wb55/cpu/cpu_init.o
 .debug_frame   0x00000000000006d0       0x38 /home/ch/RIOT/tests/capteur/bin/p-nucleo-wb55/div/div.o
 .debug_frame   0x0000000000000708      0x1b0 /home/ch/RIOT/tests/capteur/bin/p-nucleo-wb55/newlib_syscalls_default/syscalls.o
 .debug_frame   0x00000000000008b8       0x30 /home/ch/RIOT/tests/capteur/bin/p-nucleo-wb55/periph_common/init.o
 .debug_frame   0x00000000000008e8       0xfc /home/ch/RIOT/tests/capteur/bin/p-nucleo-wb55/periph/gpio_all.o
 .debug_frame   0x00000000000009e4       0x60 /home/ch/RIOT/tests/capteur/bin/p-nucleo-wb55/periph/pm.o
 .debug_frame   0x0000000000000a44       0xb8 /home/ch/RIOT/tests/capteur/bin/p-nucleo-wb55/periph/timer.o
 .debug_frame   0x0000000000000afc       0xec /home/ch/RIOT/tests/capteur/bin/p-nucleo-wb55/periph/uart.o
 .debug_frame   0x0000000000000be8       0x90 /home/ch/RIOT/tests/capteur/bin/p-nucleo-wb55/pm_layered/pm.o
 .debug_frame   0x0000000000000c78       0x58 /home/ch/RIOT/tests/capteur/bin/p-nucleo-wb55/stdio_uart/stdio_uart.o
 .debug_frame   0x0000000000000cd0       0xa8 /home/ch/RIOT/tests/capteur/bin/p-nucleo-wb55/stm32_clk/stmclk_common.o
 .debug_frame   0x0000000000000d78       0x3c /home/ch/RIOT/tests/capteur/bin/p-nucleo-wb55/stm32_clk/stmclk_l4wx.o
 .debug_frame   0x0000000000000db4       0x20 /home/ch/RIOT/tests/capteur/bin/p-nucleo-wb55/stm32_vectors/STM32WB55xx.o
 .debug_frame   0x0000000000000dd4      0x130 /home/ch/RIOT/tests/capteur/bin/p-nucleo-wb55/xtimer/xtimer_core.o
 .debug_frame   0x0000000000000f04       0x24 /usr/lib/gcc/arm-none-eabi/9.2.1/thumb/v7e-m/nofp/libgcc.a(_arm_mulsf3.o)
 .debug_frame   0x0000000000000f28       0xac /usr/lib/gcc/arm-none-eabi/9.2.1/thumb/v7e-m/nofp/libgcc.a(_arm_addsubdf3.o)
 .debug_frame   0x0000000000000fd4       0x50 /usr/lib/gcc/arm-none-eabi/9.2.1/thumb/v7e-m/nofp/libgcc.a(_arm_muldivdf3.o)
 .debug_frame   0x0000000000001024       0x24 /usr/lib/gcc/arm-none-eabi/9.2.1/thumb/v7e-m/nofp/libgcc.a(_arm_truncdfsf2.o)
 .debug_frame   0x0000000000001048       0x24 /usr/lib/gcc/arm-none-eabi/9.2.1/thumb/v7e-m/nofp/libgcc.a(_arm_fixsfsi.o)
 .debug_frame   0x000000000000106c       0x2c /usr/lib/gcc/arm-none-eabi/9.2.1/thumb/v7e-m/nofp/libgcc.a(_aeabi_uldivmod.o)
 .debug_frame   0x0000000000001098       0x34 /usr/lib/gcc/arm-none-eabi/9.2.1/thumb/v7e-m/nofp/libgcc.a(_udivmoddi4.o)
 .debug_frame   0x00000000000010cc       0x2c /usr/lib/gcc/arm-none-eabi/9.2.1/../../../arm-none-eabi/lib/thumb/v7e-m/nofp/libc_nano.a(lib_a-init.o)
 .debug_frame   0x00000000000010f8       0x38 /usr/lib/gcc/arm-none-eabi/9.2.1/../../../arm-none-eabi/lib/thumb/v7e-m/nofp/libc_nano.a(lib_a-memset.o)
 .debug_frame   0x0000000000001130       0x58 /usr/lib/gcc/arm-none-eabi/9.2.1/../../../arm-none-eabi/lib/thumb/v7e-m/nofp/libc_nano.a(lib_a-nano-freer.o)
 .debug_frame   0x0000000000001188       0x30 /usr/lib/gcc/arm-none-eabi/9.2.1/../../../arm-none-eabi/lib/thumb/v7e-m/nofp/libc_nano.a(lib_a-nano-mallocr.o)
 .debug_frame   0x00000000000011b8       0x7c /usr/lib/gcc/arm-none-eabi/9.2.1/../../../arm-none-eabi/lib/thumb/v7e-m/nofp/libc_nano.a(lib_a-printf.o)
 .debug_frame   0x0000000000001234       0x40 /usr/lib/gcc/arm-none-eabi/9.2.1/../../../arm-none-eabi/lib/thumb/v7e-m/nofp/libc_nano.a(lib_a-puts.o)
 .debug_frame   0x0000000000001274       0x30 /usr/lib/gcc/arm-none-eabi/9.2.1/../../../arm-none-eabi/lib/thumb/v7e-m/nofp/libc_nano.a(lib_a-time.o)
 .debug_frame   0x00000000000012a4       0x40 /usr/lib/gcc/arm-none-eabi/9.2.1/../../../arm-none-eabi/lib/thumb/v7e-m/nofp/libc_nano.a(lib_a-wbuf.o)
 .debug_frame   0x00000000000012e4       0x2c /usr/lib/gcc/arm-none-eabi/9.2.1/../../../arm-none-eabi/lib/thumb/v7e-m/nofp/libc_nano.a(lib_a-wsetup.o)
 .debug_frame   0x0000000000001310       0x70 /usr/lib/gcc/arm-none-eabi/9.2.1/../../../arm-none-eabi/lib/thumb/v7e-m/nofp/libc_nano.a(lib_a-fflush.o)
 .debug_frame   0x0000000000001380      0x120 /usr/lib/gcc/arm-none-eabi/9.2.1/../../../arm-none-eabi/lib/thumb/v7e-m/nofp/libc_nano.a(lib_a-findfp.o)
 .debug_frame   0x00000000000014a0       0x54 /usr/lib/gcc/arm-none-eabi/9.2.1/../../../arm-none-eabi/lib/thumb/v7e-m/nofp/libc_nano.a(lib_a-fwalk.o)
 .debug_frame   0x00000000000014f4       0x64 /usr/lib/gcc/arm-none-eabi/9.2.1/../../../arm-none-eabi/lib/thumb/v7e-m/nofp/libc_nano.a(lib_a-makebuf.o)
 .debug_frame   0x0000000000001558       0x30 /usr/lib/gcc/arm-none-eabi/9.2.1/../../../arm-none-eabi/lib/thumb/v7e-m/nofp/libc_nano.a(lib_a-mlock.o)
 .debug_frame   0x0000000000001588       0x38 /usr/lib/gcc/arm-none-eabi/9.2.1/../../../arm-none-eabi/lib/thumb/v7e-m/nofp/libc_nano.a(lib_a-nano-reallocr.o)
 .debug_frame   0x00000000000015c0       0xbc /usr/lib/gcc/arm-none-eabi/9.2.1/../../../arm-none-eabi/lib/thumb/v7e-m/nofp/libc_nano.a(lib_a-nano-vfprintf.o)
 .debug_frame   0x000000000000167c       0x68 /usr/lib/gcc/arm-none-eabi/9.2.1/../../../arm-none-eabi/lib/thumb/v7e-m/nofp/libc_nano.a(lib_a-nano-vfprintf_i.o)
 .debug_frame   0x00000000000016e4       0x8c /usr/lib/gcc/arm-none-eabi/9.2.1/../../../arm-none-eabi/lib/thumb/v7e-m/nofp/libc_nano.a(lib_a-stdio.o)
 .debug_frame   0x0000000000001770       0x64 /usr/lib/gcc/arm-none-eabi/9.2.1/../../../arm-none-eabi/lib/thumb/v7e-m/nofp/libc_nano.a(lib_a-fvwrite.o)
 .debug_frame   0x00000000000017d4       0x40 /usr/lib/gcc/arm-none-eabi/9.2.1/../../../arm-none-eabi/lib/thumb/v7e-m/nofp/libc_nano.a(lib_a-memmove.o)
 .debug_frame   0x0000000000001814       0x20 /usr/lib/gcc/arm-none-eabi/9.2.1/../../../arm-none-eabi/lib/thumb/v7e-m/nofp/libc_nano.a(lib_a-nano-msizer.o)
