Archive member included to satisfy reference by file (symbol)

/usr/lib/gcc/arm-none-eabi/9.2.1/thumb/v7e-m/nofp/libgcc.a(_arm_addsubdf3.o)
                              /home/ch/RIOT/tests/driver_scd30/bin/p-nucleo-wb55/application_tests_driver_scd30/main.o (__aeabi_f2d)
/usr/lib/gcc/arm-none-eabi/9.2.1/thumb/v7e-m/nofp/libgcc.a(_aeabi_ldivmod.o)
                              /home/ch/RIOT/tests/driver_scd30/bin/p-nucleo-wb55/periph/uart.o (__aeabi_ldivmod)
/usr/lib/gcc/arm-none-eabi/9.2.1/thumb/v7e-m/nofp/libgcc.a(_aeabi_uldivmod.o)
                              /home/ch/RIOT/tests/driver_scd30/bin/p-nucleo-wb55/periph/uart.o (__aeabi_uldivmod)
/usr/lib/gcc/arm-none-eabi/9.2.1/thumb/v7e-m/nofp/libgcc.a(_udivmoddi4.o)
                              /usr/lib/gcc/arm-none-eabi/9.2.1/thumb/v7e-m/nofp/libgcc.a(_aeabi_ldivmod.o) (__udivmoddi4)
/usr/lib/gcc/arm-none-eabi/9.2.1/thumb/v7e-m/nofp/libgcc.a(_dvmd_tls.o)
                              /usr/lib/gcc/arm-none-eabi/9.2.1/thumb/v7e-m/nofp/libgcc.a(_aeabi_ldivmod.o) (__aeabi_ldiv0)
/usr/lib/gcc/arm-none-eabi/9.2.1/../../../arm-none-eabi/lib/thumb/v7e-m/nofp/libc_nano.a(lib_a-errno.o)
                              /home/ch/RIOT/tests/driver_scd30/bin/p-nucleo-wb55/newlib_syscalls_default/syscalls.o (__errno)
/usr/lib/gcc/arm-none-eabi/9.2.1/../../../arm-none-eabi/lib/thumb/v7e-m/nofp/libc_nano.a(lib_a-impure.o)
                              /usr/lib/gcc/arm-none-eabi/9.2.1/../../../arm-none-eabi/lib/thumb/v7e-m/nofp/libc_nano.a(lib_a-errno.o) (_impure_ptr)
/usr/lib/gcc/arm-none-eabi/9.2.1/../../../arm-none-eabi/lib/thumb/v7e-m/nofp/libc_nano.a(lib_a-init.o)
                              /home/ch/RIOT/tests/driver_scd30/bin/p-nucleo-wb55/cortexm_common/vectors_cortexm.o (__libc_init_array)
/usr/lib/gcc/arm-none-eabi/9.2.1/../../../arm-none-eabi/lib/thumb/v7e-m/nofp/libc_nano.a(lib_a-malloc.o)
                              /home/ch/RIOT/tests/driver_scd30/bin/p-nucleo-wb55/malloc_thread_safe/malloc_wrappers.o (malloc)
/usr/lib/gcc/arm-none-eabi/9.2.1/../../../arm-none-eabi/lib/thumb/v7e-m/nofp/libc_nano.a(lib_a-memcmp.o)
                              /home/ch/RIOT/tests/driver_scd30/bin/p-nucleo-wb55/core/atomic_c11.o (memcmp)
/usr/lib/gcc/arm-none-eabi/9.2.1/../../../arm-none-eabi/lib/thumb/v7e-m/nofp/libc_nano.a(lib_a-memcpy.o)
                              /home/ch/RIOT/tests/driver_scd30/bin/p-nucleo-wb55/core/atomic_c11.o (memcpy)
/usr/lib/gcc/arm-none-eabi/9.2.1/../../../arm-none-eabi/lib/thumb/v7e-m/nofp/libc_nano.a(lib_a-memset.o)
                              /home/ch/RIOT/tests/driver_scd30/bin/p-nucleo-wb55/malloc_thread_safe/malloc_wrappers.o (memset)
/usr/lib/gcc/arm-none-eabi/9.2.1/../../../arm-none-eabi/lib/thumb/v7e-m/nofp/libc_nano.a(lib_a-mstats.o)
                              /home/ch/RIOT/tests/driver_scd30/bin/p-nucleo-wb55/newlib_syscalls_default/syscalls.o (mallinfo)
/usr/lib/gcc/arm-none-eabi/9.2.1/../../../arm-none-eabi/lib/thumb/v7e-m/nofp/libc_nano.a(lib_a-nano-freer.o)
                              /usr/lib/gcc/arm-none-eabi/9.2.1/../../../arm-none-eabi/lib/thumb/v7e-m/nofp/libc_nano.a(lib_a-malloc.o) (_free_r)
/usr/lib/gcc/arm-none-eabi/9.2.1/../../../arm-none-eabi/lib/thumb/v7e-m/nofp/libc_nano.a(lib_a-nano-mallinfor.o)
                              /usr/lib/gcc/arm-none-eabi/9.2.1/../../../arm-none-eabi/lib/thumb/v7e-m/nofp/libc_nano.a(lib_a-mstats.o) (_mallinfo_r)
/usr/lib/gcc/arm-none-eabi/9.2.1/../../../arm-none-eabi/lib/thumb/v7e-m/nofp/libc_nano.a(lib_a-nano-mallocr.o)
                              /usr/lib/gcc/arm-none-eabi/9.2.1/../../../arm-none-eabi/lib/thumb/v7e-m/nofp/libc_nano.a(lib_a-malloc.o) (_malloc_r)
/usr/lib/gcc/arm-none-eabi/9.2.1/../../../arm-none-eabi/lib/thumb/v7e-m/nofp/libc_nano.a(lib_a-nano-malloptr.o)
                              /usr/lib/gcc/arm-none-eabi/9.2.1/../../../arm-none-eabi/lib/thumb/v7e-m/nofp/libc_nano.a(lib_a-mstats.o) (_mallopt_r)
/usr/lib/gcc/arm-none-eabi/9.2.1/../../../arm-none-eabi/lib/thumb/v7e-m/nofp/libc_nano.a(lib_a-nano-mallstatsr.o)
                              /usr/lib/gcc/arm-none-eabi/9.2.1/../../../arm-none-eabi/lib/thumb/v7e-m/nofp/libc_nano.a(lib_a-mstats.o) (_malloc_stats_r)
/usr/lib/gcc/arm-none-eabi/9.2.1/../../../arm-none-eabi/lib/thumb/v7e-m/nofp/libc_nano.a(lib_a-nano-vfprintf_float.o)
                              (_printf_float)
/usr/lib/gcc/arm-none-eabi/9.2.1/../../../arm-none-eabi/lib/thumb/v7e-m/nofp/libc_nano.a(lib_a-nano-vfprintf_i.o)
                              /usr/lib/gcc/arm-none-eabi/9.2.1/../../../arm-none-eabi/lib/thumb/v7e-m/nofp/libc_nano.a(lib_a-nano-vfprintf_float.o) (_printf_common)
/usr/lib/gcc/arm-none-eabi/9.2.1/../../../arm-none-eabi/lib/thumb/v7e-m/nofp/libc_nano.a(lib_a-printf.o)
                              /home/ch/RIOT/tests/driver_scd30/bin/p-nucleo-wb55/application_tests_driver_scd30/main.o (printf)
/usr/lib/gcc/arm-none-eabi/9.2.1/../../../arm-none-eabi/lib/thumb/v7e-m/nofp/libc_nano.a(lib_a-puts.o)
                              /home/ch/RIOT/tests/driver_scd30/bin/p-nucleo-wb55/cortexm_common/vectors_cortexm.o (puts)
/usr/lib/gcc/arm-none-eabi/9.2.1/../../../arm-none-eabi/lib/thumb/v7e-m/nofp/libc_nano.a(lib_a-realloc.o)
                              /home/ch/RIOT/tests/driver_scd30/bin/p-nucleo-wb55/malloc_thread_safe/malloc_wrappers.o (realloc)
/usr/lib/gcc/arm-none-eabi/9.2.1/../../../arm-none-eabi/lib/thumb/v7e-m/nofp/libc_nano.a(lib_a-strlen.o)
                              /usr/lib/gcc/arm-none-eabi/9.2.1/../../../arm-none-eabi/lib/thumb/v7e-m/nofp/libc_nano.a(lib_a-nano-vfprintf_float.o) (strlen)
/usr/lib/gcc/arm-none-eabi/9.2.1/../../../arm-none-eabi/lib/thumb/v7e-m/nofp/libc_nano.a(lib_a-wbuf.o)
                              /usr/lib/gcc/arm-none-eabi/9.2.1/../../../arm-none-eabi/lib/thumb/v7e-m/nofp/libc_nano.a(lib_a-puts.o) (__swbuf_r)
/usr/lib/gcc/arm-none-eabi/9.2.1/../../../arm-none-eabi/lib/thumb/v7e-m/nofp/libc_nano.a(lib_a-wsetup.o)
                              /usr/lib/gcc/arm-none-eabi/9.2.1/../../../arm-none-eabi/lib/thumb/v7e-m/nofp/libc_nano.a(lib_a-puts.o) (__swsetup_r)
/usr/lib/gcc/arm-none-eabi/9.2.1/../../../arm-none-eabi/lib/thumb/v7e-m/nofp/libc_nano.a(lib_a-dtoa.o)
                              /usr/lib/gcc/arm-none-eabi/9.2.1/../../../arm-none-eabi/lib/thumb/v7e-m/nofp/libc_nano.a(lib_a-nano-vfprintf_float.o) (_dtoa_r)
/usr/lib/gcc/arm-none-eabi/9.2.1/../../../arm-none-eabi/lib/thumb/v7e-m/nofp/libc_nano.a(lib_a-fflush.o)
                              /usr/lib/gcc/arm-none-eabi/9.2.1/../../../arm-none-eabi/lib/thumb/v7e-m/nofp/libc_nano.a(lib_a-wbuf.o) (_fflush_r)
/usr/lib/gcc/arm-none-eabi/9.2.1/../../../arm-none-eabi/lib/thumb/v7e-m/nofp/libc_nano.a(lib_a-findfp.o)
                              /usr/lib/gcc/arm-none-eabi/9.2.1/../../../arm-none-eabi/lib/thumb/v7e-m/nofp/libc_nano.a(lib_a-mstats.o) (__sinit)
/usr/lib/gcc/arm-none-eabi/9.2.1/../../../arm-none-eabi/lib/thumb/v7e-m/nofp/libc_nano.a(lib_a-fprintf.o)
                              /usr/lib/gcc/arm-none-eabi/9.2.1/../../../arm-none-eabi/lib/thumb/v7e-m/nofp/libc_nano.a(lib_a-mstats.o) (fiprintf)
/usr/lib/gcc/arm-none-eabi/9.2.1/../../../arm-none-eabi/lib/thumb/v7e-m/nofp/libc_nano.a(lib_a-fwalk.o)
                              /usr/lib/gcc/arm-none-eabi/9.2.1/../../../arm-none-eabi/lib/thumb/v7e-m/nofp/libc_nano.a(lib_a-findfp.o) (_fwalk)
/usr/lib/gcc/arm-none-eabi/9.2.1/../../../arm-none-eabi/lib/thumb/v7e-m/nofp/libc_nano.a(lib_a-localeconv.o)
                              /usr/lib/gcc/arm-none-eabi/9.2.1/../../../arm-none-eabi/lib/thumb/v7e-m/nofp/libc_nano.a(lib_a-nano-vfprintf_float.o) (_localeconv_r)
/usr/lib/gcc/arm-none-eabi/9.2.1/../../../arm-none-eabi/lib/thumb/v7e-m/nofp/libc_nano.a(lib_a-makebuf.o)
                              /usr/lib/gcc/arm-none-eabi/9.2.1/../../../arm-none-eabi/lib/thumb/v7e-m/nofp/libc_nano.a(lib_a-wsetup.o) (__smakebuf_r)
/usr/lib/gcc/arm-none-eabi/9.2.1/../../../arm-none-eabi/lib/thumb/v7e-m/nofp/libc_nano.a(lib_a-memchr.o)
                              /usr/lib/gcc/arm-none-eabi/9.2.1/../../../arm-none-eabi/lib/thumb/v7e-m/nofp/libc_nano.a(lib_a-nano-vfprintf_i.o) (memchr)
/usr/lib/gcc/arm-none-eabi/9.2.1/../../../arm-none-eabi/lib/thumb/v7e-m/nofp/libc_nano.a(lib_a-mlock.o)
                              /usr/lib/gcc/arm-none-eabi/9.2.1/../../../arm-none-eabi/lib/thumb/v7e-m/nofp/libc_nano.a(lib_a-nano-freer.o) (__malloc_lock)
/usr/lib/gcc/arm-none-eabi/9.2.1/../../../arm-none-eabi/lib/thumb/v7e-m/nofp/libc_nano.a(lib_a-mprec.o)
                              /usr/lib/gcc/arm-none-eabi/9.2.1/../../../arm-none-eabi/lib/thumb/v7e-m/nofp/libc_nano.a(lib_a-dtoa.o) (_Balloc)
/usr/lib/gcc/arm-none-eabi/9.2.1/../../../arm-none-eabi/lib/thumb/v7e-m/nofp/libc_nano.a(lib_a-nano-callocr.o)
                              /usr/lib/gcc/arm-none-eabi/9.2.1/../../../arm-none-eabi/lib/thumb/v7e-m/nofp/libc_nano.a(lib_a-mprec.o) (_calloc_r)
/usr/lib/gcc/arm-none-eabi/9.2.1/../../../arm-none-eabi/lib/thumb/v7e-m/nofp/libc_nano.a(lib_a-nano-reallocr.o)
                              /usr/lib/gcc/arm-none-eabi/9.2.1/../../../arm-none-eabi/lib/thumb/v7e-m/nofp/libc_nano.a(lib_a-realloc.o) (_realloc_r)
/usr/lib/gcc/arm-none-eabi/9.2.1/../../../arm-none-eabi/lib/thumb/v7e-m/nofp/libc_nano.a(lib_a-nano-vfprintf.o)
                              /usr/lib/gcc/arm-none-eabi/9.2.1/../../../arm-none-eabi/lib/thumb/v7e-m/nofp/libc_nano.a(lib_a-printf.o) (_vfprintf_r)
/usr/lib/gcc/arm-none-eabi/9.2.1/../../../arm-none-eabi/lib/thumb/v7e-m/nofp/libc_nano.a(lib_a-stdio.o)
                              /usr/lib/gcc/arm-none-eabi/9.2.1/../../../arm-none-eabi/lib/thumb/v7e-m/nofp/libc_nano.a(lib_a-findfp.o) (__sread)
/usr/lib/gcc/arm-none-eabi/9.2.1/../../../arm-none-eabi/lib/thumb/v7e-m/nofp/libc_nano.a(lib_a-assert.o)
                              /usr/lib/gcc/arm-none-eabi/9.2.1/../../../arm-none-eabi/lib/thumb/v7e-m/nofp/libc_nano.a(lib_a-dtoa.o) (__assert_func)
/usr/lib/gcc/arm-none-eabi/9.2.1/../../../arm-none-eabi/lib/thumb/v7e-m/nofp/libc_nano.a(lib_a-fvwrite.o)
                              /usr/lib/gcc/arm-none-eabi/9.2.1/../../../arm-none-eabi/lib/thumb/v7e-m/nofp/libc_nano.a(lib_a-nano-vfprintf.o) (__sfvwrite_r)
/usr/lib/gcc/arm-none-eabi/9.2.1/../../../arm-none-eabi/lib/thumb/v7e-m/nofp/libc_nano.a(lib_a-locale.o)
                              /usr/lib/gcc/arm-none-eabi/9.2.1/../../../arm-none-eabi/lib/thumb/v7e-m/nofp/libc_nano.a(lib_a-localeconv.o) (__global_locale)
/usr/lib/gcc/arm-none-eabi/9.2.1/../../../arm-none-eabi/lib/thumb/v7e-m/nofp/libc_nano.a(lib_a-mbtowc_r.o)
                              /usr/lib/gcc/arm-none-eabi/9.2.1/../../../arm-none-eabi/lib/thumb/v7e-m/nofp/libc_nano.a(lib_a-locale.o) (__ascii_mbtowc)
/usr/lib/gcc/arm-none-eabi/9.2.1/../../../arm-none-eabi/lib/thumb/v7e-m/nofp/libc_nano.a(lib_a-memmove.o)
                              /usr/lib/gcc/arm-none-eabi/9.2.1/../../../arm-none-eabi/lib/thumb/v7e-m/nofp/libc_nano.a(lib_a-fvwrite.o) (memmove)
/usr/lib/gcc/arm-none-eabi/9.2.1/../../../arm-none-eabi/lib/thumb/v7e-m/nofp/libc_nano.a(lib_a-nano-msizer.o)
                              /usr/lib/gcc/arm-none-eabi/9.2.1/../../../arm-none-eabi/lib/thumb/v7e-m/nofp/libc_nano.a(lib_a-nano-reallocr.o) (_malloc_usable_size_r)
/usr/lib/gcc/arm-none-eabi/9.2.1/../../../arm-none-eabi/lib/thumb/v7e-m/nofp/libc_nano.a(lib_a-strcmp.o)
                              /usr/lib/gcc/arm-none-eabi/9.2.1/../../../arm-none-eabi/lib/thumb/v7e-m/nofp/libc_nano.a(lib_a-locale.o) (strcmp)
/usr/lib/gcc/arm-none-eabi/9.2.1/../../../arm-none-eabi/lib/thumb/v7e-m/nofp/libc_nano.a(lib_a-wctomb_r.o)
                              /usr/lib/gcc/arm-none-eabi/9.2.1/../../../arm-none-eabi/lib/thumb/v7e-m/nofp/libc_nano.a(lib_a-locale.o) (__ascii_wctomb)
/usr/lib/gcc/arm-none-eabi/9.2.1/../../../arm-none-eabi/lib/thumb/v7e-m/nofp/libc_nano.a(lib_a-abort.o)
                              /usr/lib/gcc/arm-none-eabi/9.2.1/../../../arm-none-eabi/lib/thumb/v7e-m/nofp/libc_nano.a(lib_a-assert.o) (abort)
/usr/lib/gcc/arm-none-eabi/9.2.1/../../../arm-none-eabi/lib/thumb/v7e-m/nofp/libc_nano.a(lib_a-ctype_.o)
                              /usr/lib/gcc/arm-none-eabi/9.2.1/../../../arm-none-eabi/lib/thumb/v7e-m/nofp/libc_nano.a(lib_a-locale.o) (_ctype_)
/usr/lib/gcc/arm-none-eabi/9.2.1/../../../arm-none-eabi/lib/thumb/v7e-m/nofp/libc_nano.a(lib_a-signal.o)
                              /usr/lib/gcc/arm-none-eabi/9.2.1/../../../arm-none-eabi/lib/thumb/v7e-m/nofp/libc_nano.a(lib_a-abort.o) (raise)
/usr/lib/gcc/arm-none-eabi/9.2.1/thumb/v7e-m/nofp/libgcc.a(_arm_muldf3.o)
                              /usr/lib/gcc/arm-none-eabi/9.2.1/../../../arm-none-eabi/lib/thumb/v7e-m/nofp/libc_nano.a(lib_a-dtoa.o) (__aeabi_dmul)
/usr/lib/gcc/arm-none-eabi/9.2.1/thumb/v7e-m/nofp/libgcc.a(_arm_muldivdf3.o)
                              /usr/lib/gcc/arm-none-eabi/9.2.1/../../../arm-none-eabi/lib/thumb/v7e-m/nofp/libc_nano.a(lib_a-dtoa.o) (__aeabi_ddiv)
/usr/lib/gcc/arm-none-eabi/9.2.1/thumb/v7e-m/nofp/libgcc.a(_arm_cmpdf2.o)
                              /usr/lib/gcc/arm-none-eabi/9.2.1/../../../arm-none-eabi/lib/thumb/v7e-m/nofp/libc_nano.a(lib_a-nano-vfprintf_float.o) (__aeabi_dcmpeq)
/usr/lib/gcc/arm-none-eabi/9.2.1/thumb/v7e-m/nofp/libgcc.a(_arm_unorddf2.o)
                              /usr/lib/gcc/arm-none-eabi/9.2.1/../../../arm-none-eabi/lib/thumb/v7e-m/nofp/libc_nano.a(lib_a-nano-vfprintf_float.o) (__aeabi_dcmpun)
/usr/lib/gcc/arm-none-eabi/9.2.1/thumb/v7e-m/nofp/libgcc.a(_arm_fixdfsi.o)
                              /usr/lib/gcc/arm-none-eabi/9.2.1/../../../arm-none-eabi/lib/thumb/v7e-m/nofp/libc_nano.a(lib_a-dtoa.o) (__aeabi_d2iz)

Discarded input sections

 .group         0x0000000000000000        0xc /home/ch/RIOT/tests/driver_scd30/bin/p-nucleo-wb55/application_tests_driver_scd30/main.o
 .group         0x0000000000000000        0xc /home/ch/RIOT/tests/driver_scd30/bin/p-nucleo-wb55/application_tests_driver_scd30/main.o
 .group         0x0000000000000000        0xc /home/ch/RIOT/tests/driver_scd30/bin/p-nucleo-wb55/application_tests_driver_scd30/main.o
 .group         0x0000000000000000        0xc /home/ch/RIOT/tests/driver_scd30/bin/p-nucleo-wb55/application_tests_driver_scd30/main.o
 .group         0x0000000000000000        0xc /home/ch/RIOT/tests/driver_scd30/bin/p-nucleo-wb55/application_tests_driver_scd30/main.o
 .group         0x0000000000000000        0xc /home/ch/RIOT/tests/driver_scd30/bin/p-nucleo-wb55/application_tests_driver_scd30/main.o
 .group         0x0000000000000000        0xc /home/ch/RIOT/tests/driver_scd30/bin/p-nucleo-wb55/application_tests_driver_scd30/main.o
 .group         0x0000000000000000        0xc /home/ch/RIOT/tests/driver_scd30/bin/p-nucleo-wb55/application_tests_driver_scd30/main.o
 .group         0x0000000000000000        0xc /home/ch/RIOT/tests/driver_scd30/bin/p-nucleo-wb55/application_tests_driver_scd30/main.o
 .group         0x0000000000000000        0xc /home/ch/RIOT/tests/driver_scd30/bin/p-nucleo-wb55/application_tests_driver_scd30/main.o
 .group         0x0000000000000000        0xc /home/ch/RIOT/tests/driver_scd30/bin/p-nucleo-wb55/application_tests_driver_scd30/main.o
 .group         0x0000000000000000        0xc /home/ch/RIOT/tests/driver_scd30/bin/p-nucleo-wb55/application_tests_driver_scd30/main.o
 .group         0x0000000000000000        0xc /home/ch/RIOT/tests/driver_scd30/bin/p-nucleo-wb55/application_tests_driver_scd30/main.o
 .group         0x0000000000000000        0xc /home/ch/RIOT/tests/driver_scd30/bin/p-nucleo-wb55/application_tests_driver_scd30/main.o
 .group         0x0000000000000000        0xc /home/ch/RIOT/tests/driver_scd30/bin/p-nucleo-wb55/application_tests_driver_scd30/main.o
 .group         0x0000000000000000        0xc /home/ch/RIOT/tests/driver_scd30/bin/p-nucleo-wb55/application_tests_driver_scd30/main.o
 .group         0x0000000000000000        0xc /home/ch/RIOT/tests/driver_scd30/bin/p-nucleo-wb55/application_tests_driver_scd30/main.o
 .group         0x0000000000000000        0xc /home/ch/RIOT/tests/driver_scd30/bin/p-nucleo-wb55/application_tests_driver_scd30/main.o
Memory Configuration

Name             Origin             Length             Attributes
ccmram           0x0000000010000000 0x0000000000000000
sram4            0x0000000028000000 0x0000000000000000
rom              0x0000000008000000 0x00000000000ca000 xr
ram              0x0000000020000000 0x0000000000030000 w !xr
bkup_ram         0x0000000000000000 0x0000000000000000 w !xr
*default*        0x0000000000000000 0xffffffffffffffff

Linker script and memory map

LOAD /home/ch/RIOT/tests/driver_scd30/bin/p-nucleo-wb55/application_tests_driver_scd30/main.o
LOAD /home/ch/RIOT/tests/driver_scd30/bin/p-nucleo-wb55/auto_init/auto_init.o
LOAD /home/ch/RIOT/tests/driver_scd30/bin/p-nucleo-wb55/boards_common_nucleo/board_common_nucleo_init.o
LOAD /home/ch/RIOT/tests/driver_scd30/bin/p-nucleo-wb55/checksum/crc16_ccitt.o
LOAD /home/ch/RIOT/tests/driver_scd30/bin/p-nucleo-wb55/checksum/crc8.o
LOAD /home/ch/RIOT/tests/driver_scd30/bin/p-nucleo-wb55/checksum/fletcher16.o
LOAD /home/ch/RIOT/tests/driver_scd30/bin/p-nucleo-wb55/checksum/fletcher32.o
LOAD /home/ch/RIOT/tests/driver_scd30/bin/p-nucleo-wb55/checksum/ucrc16.o
LOAD /home/ch/RIOT/tests/driver_scd30/bin/p-nucleo-wb55/core/assert.o
LOAD /home/ch/RIOT/tests/driver_scd30/bin/p-nucleo-wb55/core/atomic_c11.o
LOAD /home/ch/RIOT/tests/driver_scd30/bin/p-nucleo-wb55/core/atomic_sync.o
LOAD /home/ch/RIOT/tests/driver_scd30/bin/p-nucleo-wb55/core/bitarithm.o
LOAD /home/ch/RIOT/tests/driver_scd30/bin/p-nucleo-wb55/core/clist.o
LOAD /home/ch/RIOT/tests/driver_scd30/bin/p-nucleo-wb55/core/cond.o
LOAD /home/ch/RIOT/tests/driver_scd30/bin/p-nucleo-wb55/core/init.o
LOAD /home/ch/RIOT/tests/driver_scd30/bin/p-nucleo-wb55/core/msg.o
LOAD /home/ch/RIOT/tests/driver_scd30/bin/p-nucleo-wb55/core/mutex.o
LOAD /home/ch/RIOT/tests/driver_scd30/bin/p-nucleo-wb55/core/panic.o
LOAD /home/ch/RIOT/tests/driver_scd30/bin/p-nucleo-wb55/core/priority_queue.o
LOAD /home/ch/RIOT/tests/driver_scd30/bin/p-nucleo-wb55/core/ringbuffer.o
LOAD /home/ch/RIOT/tests/driver_scd30/bin/p-nucleo-wb55/core/rmutex.o
LOAD /home/ch/RIOT/tests/driver_scd30/bin/p-nucleo-wb55/core/sched.o
LOAD /home/ch/RIOT/tests/driver_scd30/bin/p-nucleo-wb55/core/thread.o
LOAD /home/ch/RIOT/tests/driver_scd30/bin/p-nucleo-wb55/cortexm_common/cortexm_init.o
LOAD /home/ch/RIOT/tests/driver_scd30/bin/p-nucleo-wb55/cortexm_common/mpu.o
LOAD /home/ch/RIOT/tests/driver_scd30/bin/p-nucleo-wb55/cortexm_common/panic.o
LOAD /home/ch/RIOT/tests/driver_scd30/bin/p-nucleo-wb55/cortexm_common_periph/pm.o
LOAD /home/ch/RIOT/tests/driver_scd30/bin/p-nucleo-wb55/cortexm_common/thread_arch.o
LOAD /home/ch/RIOT/tests/driver_scd30/bin/p-nucleo-wb55/cortexm_common/vectors_cortexm.o
LOAD /home/ch/RIOT/tests/driver_scd30/bin/p-nucleo-wb55/cpu/cpu_common.o
LOAD /home/ch/RIOT/tests/driver_scd30/bin/p-nucleo-wb55/cpu/cpu_init.o
LOAD /home/ch/RIOT/tests/driver_scd30/bin/p-nucleo-wb55/div/div.o
LOAD /home/ch/RIOT/tests/driver_scd30/bin/p-nucleo-wb55/malloc_thread_safe/malloc_wrappers.o
LOAD /home/ch/RIOT/tests/driver_scd30/bin/p-nucleo-wb55/newlib_syscalls_default/syscalls.o
LOAD /home/ch/RIOT/tests/driver_scd30/bin/p-nucleo-wb55/periph_common/gpio.o
LOAD /home/ch/RIOT/tests/driver_scd30/bin/p-nucleo-wb55/periph_common/i2c.o
LOAD /home/ch/RIOT/tests/driver_scd30/bin/p-nucleo-wb55/periph_common/init.o
LOAD /home/ch/RIOT/tests/driver_scd30/bin/p-nucleo-wb55/periph_common/pm.o
LOAD /home/ch/RIOT/tests/driver_scd30/bin/p-nucleo-wb55/periph_common/timer.o
LOAD /home/ch/RIOT/tests/driver_scd30/bin/p-nucleo-wb55/periph/gpio_all.o
LOAD /home/ch/RIOT/tests/driver_scd30/bin/p-nucleo-wb55/periph/i2c_1.o
LOAD /home/ch/RIOT/tests/driver_scd30/bin/p-nucleo-wb55/periph/pm.o
LOAD /home/ch/RIOT/tests/driver_scd30/bin/p-nucleo-wb55/periph/timer.o
LOAD /home/ch/RIOT/tests/driver_scd30/bin/p-nucleo-wb55/periph/uart.o
LOAD /home/ch/RIOT/tests/driver_scd30/bin/p-nucleo-wb55/pm_layered/pm.o
LOAD /home/ch/RIOT/tests/driver_scd30/bin/p-nucleo-wb55/scd30/scd30.o
LOAD /home/ch/RIOT/tests/driver_scd30/bin/p-nucleo-wb55/stdio_uart/stdio_uart.o
LOAD /home/ch/RIOT/tests/driver_scd30/bin/p-nucleo-wb55/stm32_clk/stmclk_common.o
LOAD /home/ch/RIOT/tests/driver_scd30/bin/p-nucleo-wb55/stm32_clk/stmclk_l4wx.o
LOAD /home/ch/RIOT/tests/driver_scd30/bin/p-nucleo-wb55/stm32_vectors/STM32WB55xx.o
LOAD /home/ch/RIOT/tests/driver_scd30/bin/p-nucleo-wb55/xtimer/xtimer_core.o
LOAD /home/ch/RIOT/tests/driver_scd30/bin/p-nucleo-wb55/xtimer/xtimer.o
LOAD /usr/lib/gcc/arm-none-eabi/9.2.1/../../../arm-none-eabi/lib/thumb/v7e-m/nofp/libm.a
LOAD /usr/lib/gcc/arm-none-eabi/9.2.1/thumb/v7e-m/nofp/libgcc.a
                0x0000000008000000                _rom_start_addr = 0x8000000
                0x0000000020000000                _ram_start_addr = 0x20000000
                0x00000000000ca000                _rom_length = 0xca000
                0x0000000000030000                _ram_length = 0x30000
LOAD /usr/lib/gcc/arm-none-eabi/9.2.1/../../../arm-none-eabi/lib/thumb/v7e-m/nofp/libc_nano.a
START GROUP
LOAD /usr/lib/gcc/arm-none-eabi/9.2.1/thumb/v7e-m/nofp/libgcc.a
LOAD /usr/lib/gcc/arm-none-eabi/9.2.1/../../../arm-none-eabi/lib/thumb/v7e-m/nofp/libg_nano.a
LOAD /usr/lib/gcc/arm-none-eabi/9.2.1/../../../arm-none-eabi/lib/thumb/v7e-m/nofp/libc_nano.a
END GROUP
START GROUP
LOAD /usr/lib/gcc/arm-none-eabi/9.2.1/thumb/v7e-m/nofp/libgcc.a
LOAD /usr/lib/gcc/arm-none-eabi/9.2.1/../../../arm-none-eabi/lib/thumb/v7e-m/nofp/libc_nano.a
END GROUP
                0x0000000000000000                ccmram_length = DEFINED (ccmram_len)?ccmram_len:0x0
                0x0000000000000000                sram4_length = DEFINED (sram4_length)?sram4_length:0x0

.heap2          0x0000000000000000        0x0
                0x0000000000000000                _sheap2 = .
                0x0000000028000000                _eheap2 = (ORIGIN (sram4) + LENGTH (sram4))
                0x0000000000000000                _rom_offset = DEFINED (_rom_offset)?_rom_offset:0x0
                0x00000000000ca000                _fw_rom_length = DEFINED (_fw_rom_length)?_fw_rom_length:(_rom_length - _rom_offset)
                0x0000000000000001                ASSERT ((_fw_rom_length <= (_rom_length - _rom_offset)), Specified firmware size does not fit in ROM)
                0x0000000000000000                _backup_ram_start_addr = DEFINED (_backup_ram_start_addr)?_backup_ram_start_addr:0x0
                0x0000000000000000                _backup_ram_len = DEFINED (_backup_ram_len)?_backup_ram_len:0x0

.text           0x0000000008000000     0x6fdc
                0x0000000008000000                . = ALIGN (0x4)
                0x0000000008000000                _sfixed = .
                0x0000000008000000                _isr_vectors = DEFINED (_isr_vectors)?_isr_vectors:.
 *(SORT_BY_NAME(.vectors*))
 .vectors.0     0x0000000008000000       0x40 /home/ch/RIOT/tests/driver_scd30/bin/p-nucleo-wb55/cortexm_common/vectors_cortexm.o
                0x0000000008000000                cortex_vector_base
 .vectors.1     0x0000000008000040       0xfc /home/ch/RIOT/tests/driver_scd30/bin/p-nucleo-wb55/stm32_vectors/STM32WB55xx.o
                0x0000000008000040                vector_cpu
 *(.text .text.* .gnu.linkonce.t.*)
 .text.startup.main
                0x000000000800013c      0x1ac /home/ch/RIOT/tests/driver_scd30/bin/p-nucleo-wb55/application_tests_driver_scd30/main.o
                0x000000000800013c                main
 .text.auto_init
                0x00000000080002e8        0x4 /home/ch/RIOT/tests/driver_scd30/bin/p-nucleo-wb55/auto_init/auto_init.o
                0x00000000080002e8                auto_init
 .text.board_common_nucleo_init
                0x00000000080002ec       0x2c /home/ch/RIOT/tests/driver_scd30/bin/p-nucleo-wb55/boards_common_nucleo/board_common_nucleo_init.o
                0x00000000080002ec                board_common_nucleo_init
 .text.board_init
                0x0000000008000318        0x4 /home/ch/RIOT/tests/driver_scd30/bin/p-nucleo-wb55/boards_common_nucleo/board_common_nucleo_init.o
                0x0000000008000318                board_init
 .text.crc8     0x000000000800031c       0x28 /home/ch/RIOT/tests/driver_scd30/bin/p-nucleo-wb55/checksum/crc8.o
                0x000000000800031c                crc8
 .text.main_trampoline
                0x0000000008000344       0x18 /home/ch/RIOT/tests/driver_scd30/bin/p-nucleo-wb55/core/init.o
 .text.kernel_init
                0x000000000800035c       0x34 /home/ch/RIOT/tests/driver_scd30/bin/p-nucleo-wb55/core/init.o
                0x000000000800035c                kernel_init
 .text.mutex_lock
                0x0000000008000390       0x68 /home/ch/RIOT/tests/driver_scd30/bin/p-nucleo-wb55/core/mutex.o
                0x0000000008000390                mutex_lock
 .text.mutex_unlock
                0x00000000080003f8       0x44 /home/ch/RIOT/tests/driver_scd30/bin/p-nucleo-wb55/core/mutex.o
                0x00000000080003f8                mutex_unlock
 .text.panic_app
                0x000000000800043c        0x2 /home/ch/RIOT/tests/driver_scd30/bin/p-nucleo-wb55/core/panic.o
                0x000000000800043c                panic_app
 *fill*         0x000000000800043e        0x2 
 .text.core_panic
                0x0000000008000440       0x50 /home/ch/RIOT/tests/driver_scd30/bin/p-nucleo-wb55/core/panic.o
                0x0000000008000440                core_panic
 .text._unschedule
                0x0000000008000490       0x24 /home/ch/RIOT/tests/driver_scd30/bin/p-nucleo-wb55/core/sched.o
 .text.sched_run
                0x00000000080004b4       0x6c /home/ch/RIOT/tests/driver_scd30/bin/p-nucleo-wb55/core/sched.o
                0x00000000080004b4                sched_run
 .text.sched_set_status
                0x0000000008000520       0x84 /home/ch/RIOT/tests/driver_scd30/bin/p-nucleo-wb55/core/sched.o
                0x0000000008000520                sched_set_status
 .text.sched_switch
                0x00000000080005a4       0x3c /home/ch/RIOT/tests/driver_scd30/bin/p-nucleo-wb55/core/sched.o
                0x00000000080005a4                sched_switch
 .text.sched_task_exit
                0x00000000080005e0       0x3c /home/ch/RIOT/tests/driver_scd30/bin/p-nucleo-wb55/core/sched.o
                0x00000000080005e0                sched_task_exit
 .text.thread_getname
                0x000000000800061c       0x1c /home/ch/RIOT/tests/driver_scd30/bin/p-nucleo-wb55/core/thread.o
                0x000000000800061c                thread_getname
 .text.thread_add_to_list
                0x0000000008000638       0x30 /home/ch/RIOT/tests/driver_scd30/bin/p-nucleo-wb55/core/thread.o
                0x0000000008000638                thread_add_to_list
 .text.thread_create
                0x0000000008000668       0xe8 /home/ch/RIOT/tests/driver_scd30/bin/p-nucleo-wb55/core/thread.o
                0x0000000008000668                thread_create
 .text.cortexm_init
                0x0000000008000750       0x40 /home/ch/RIOT/tests/driver_scd30/bin/p-nucleo-wb55/cortexm_common/cortexm_init.o
                0x0000000008000750                cortexm_init
 .text.panic_arch
                0x0000000008000790       0x1c /home/ch/RIOT/tests/driver_scd30/bin/p-nucleo-wb55/cortexm_common/panic.o
                0x0000000008000790                panic_arch
 .text.thread_stack_init
                0x00000000080007ac       0x68 /home/ch/RIOT/tests/driver_scd30/bin/p-nucleo-wb55/cortexm_common/thread_arch.o
                0x00000000080007ac                thread_stack_init
 .text.cpu_switch_context_exit
                0x0000000008000814       0x18 /home/ch/RIOT/tests/driver_scd30/bin/p-nucleo-wb55/cortexm_common/thread_arch.o
                0x0000000008000814                cpu_switch_context_exit
 .text.isr_pendsv
                0x000000000800082c       0x38 /home/ch/RIOT/tests/driver_scd30/bin/p-nucleo-wb55/cortexm_common/thread_arch.o
                0x000000000800082c                isr_pendsv
 .text.isr_svc  0x0000000008000864       0x10 /home/ch/RIOT/tests/driver_scd30/bin/p-nucleo-wb55/cortexm_common/thread_arch.o
                0x0000000008000864                isr_svc
 .text.sched_arch_idle
                0x0000000008000874       0x10 /home/ch/RIOT/tests/driver_scd30/bin/p-nucleo-wb55/cortexm_common/thread_arch.o
                0x0000000008000874                sched_arch_idle
 .text.hard_fault_default
                0x0000000008000884       0x44 /home/ch/RIOT/tests/driver_scd30/bin/p-nucleo-wb55/cortexm_common/vectors_cortexm.o
                0x0000000008000884                hard_fault_default
 .text.nmi_default
                0x00000000080008c8       0x10 /home/ch/RIOT/tests/driver_scd30/bin/p-nucleo-wb55/cortexm_common/vectors_cortexm.o
                0x00000000080008c8                nmi_default
 .text.mem_manage_default
                0x00000000080008d8       0x10 /home/ch/RIOT/tests/driver_scd30/bin/p-nucleo-wb55/cortexm_common/vectors_cortexm.o
                0x00000000080008d8                mem_manage_default
 .text.bus_fault_default
                0x00000000080008e8       0x10 /home/ch/RIOT/tests/driver_scd30/bin/p-nucleo-wb55/cortexm_common/vectors_cortexm.o
                0x00000000080008e8                bus_fault_default
 .text.usage_fault_default
                0x00000000080008f8       0x10 /home/ch/RIOT/tests/driver_scd30/bin/p-nucleo-wb55/cortexm_common/vectors_cortexm.o
                0x00000000080008f8                usage_fault_default
 .text.debug_mon_default
                0x0000000008000908       0x10 /home/ch/RIOT/tests/driver_scd30/bin/p-nucleo-wb55/cortexm_common/vectors_cortexm.o
                0x0000000008000908                debug_mon_default
 .text.dummy_handler_default
                0x0000000008000918       0x10 /home/ch/RIOT/tests/driver_scd30/bin/p-nucleo-wb55/cortexm_common/vectors_cortexm.o
                0x0000000008000918                dummy_handler_default
                0x0000000008000918                isr_systick
 .text.pre_startup
                0x0000000008000928        0x2 /home/ch/RIOT/tests/driver_scd30/bin/p-nucleo-wb55/cortexm_common/vectors_cortexm.o
                0x0000000008000928                pre_startup
 .text.post_startup
                0x000000000800092a        0x2 /home/ch/RIOT/tests/driver_scd30/bin/p-nucleo-wb55/cortexm_common/vectors_cortexm.o
                0x000000000800092a                post_startup
 .text.reset_handler_default
                0x000000000800092c       0x70 /home/ch/RIOT/tests/driver_scd30/bin/p-nucleo-wb55/cortexm_common/vectors_cortexm.o
                0x000000000800092c                reset_handler_default
 .text.hard_fault_handler
                0x000000000800099c      0x1bc /home/ch/RIOT/tests/driver_scd30/bin/p-nucleo-wb55/cortexm_common/vectors_cortexm.o
                0x000000000800099c                hard_fault_handler
 .text.periph_apb_clk
                0x0000000008000b58       0x18 /home/ch/RIOT/tests/driver_scd30/bin/p-nucleo-wb55/cpu/cpu_common.o
                0x0000000008000b58                periph_apb_clk
 .text.periph_timer_clk
                0x0000000008000b70       0x20 /home/ch/RIOT/tests/driver_scd30/bin/p-nucleo-wb55/cpu/cpu_common.o
                0x0000000008000b70                periph_timer_clk
 .text.periph_clk_en
                0x0000000008000b90       0x5a /home/ch/RIOT/tests/driver_scd30/bin/p-nucleo-wb55/cpu/cpu_common.o
                0x0000000008000b90                periph_clk_en
 .text.periph_clk_dis
                0x0000000008000bea       0x64 /home/ch/RIOT/tests/driver_scd30/bin/p-nucleo-wb55/cpu/cpu_common.o
                0x0000000008000bea                periph_clk_dis
 .text.cpu_init
                0x0000000008000c4e       0x16 /home/ch/RIOT/tests/driver_scd30/bin/p-nucleo-wb55/cpu/cpu_init.o
                0x0000000008000c4e                cpu_init
 .text.__wrap_malloc
                0x0000000008000c64       0x38 /home/ch/RIOT/tests/driver_scd30/bin/p-nucleo-wb55/malloc_thread_safe/malloc_wrappers.o
                0x0000000008000c64                __wrap_malloc
 .text._init    0x0000000008000c9c        0x2 /home/ch/RIOT/tests/driver_scd30/bin/p-nucleo-wb55/newlib_syscalls_default/syscalls.o
                0x0000000008000c9c                _init
 .text._fini    0x0000000008000c9e        0x2 /home/ch/RIOT/tests/driver_scd30/bin/p-nucleo-wb55/newlib_syscalls_default/syscalls.o
                0x0000000008000c9e                _fini
 .text._exit    0x0000000008000ca0       0x14 /home/ch/RIOT/tests/driver_scd30/bin/p-nucleo-wb55/newlib_syscalls_default/syscalls.o
                0x0000000008000ca0                _exit
 .text._sbrk_r  0x0000000008000cb4       0x40 /home/ch/RIOT/tests/driver_scd30/bin/p-nucleo-wb55/newlib_syscalls_default/syscalls.o
                0x0000000008000cb4                _sbrk_r
 .text._getpid_r
                0x0000000008000cf4        0xc /home/ch/RIOT/tests/driver_scd30/bin/p-nucleo-wb55/newlib_syscalls_default/syscalls.o
                0x0000000008000cf4                _getpid_r
 .text._kill_r  0x0000000008000d00        0xa /home/ch/RIOT/tests/driver_scd30/bin/p-nucleo-wb55/newlib_syscalls_default/syscalls.o
                0x0000000008000d00                _kill_r
 .text._read_r  0x0000000008000d0a        0x8 /home/ch/RIOT/tests/driver_scd30/bin/p-nucleo-wb55/newlib_syscalls_default/syscalls.o
                0x0000000008000d0a                _read_r
 .text._write_r
                0x0000000008000d12        0x8 /home/ch/RIOT/tests/driver_scd30/bin/p-nucleo-wb55/newlib_syscalls_default/syscalls.o
                0x0000000008000d12                _write_r
 .text._close_r
                0x0000000008000d1a        0xa /home/ch/RIOT/tests/driver_scd30/bin/p-nucleo-wb55/newlib_syscalls_default/syscalls.o
                0x0000000008000d1a                _close_r
 .text._lseek_r
                0x0000000008000d24        0xa /home/ch/RIOT/tests/driver_scd30/bin/p-nucleo-wb55/newlib_syscalls_default/syscalls.o
                0x0000000008000d24                _lseek_r
 .text._fstat_r
                0x0000000008000d2e        0xa /home/ch/RIOT/tests/driver_scd30/bin/p-nucleo-wb55/newlib_syscalls_default/syscalls.o
                0x0000000008000d2e                _fstat_r
 .text._isatty_r
                0x0000000008000d38       0x10 /home/ch/RIOT/tests/driver_scd30/bin/p-nucleo-wb55/newlib_syscalls_default/syscalls.o
                0x0000000008000d38                _isatty_r
 .text.periph_init
                0x0000000008000d48        0x6 /home/ch/RIOT/tests/driver_scd30/bin/p-nucleo-wb55/periph_common/init.o
                0x0000000008000d48                periph_init
 .text.gpio_init
                0x0000000008000d4e       0x68 /home/ch/RIOT/tests/driver_scd30/bin/p-nucleo-wb55/periph/gpio_all.o
                0x0000000008000d4e                gpio_init
 .text.gpio_init_af
                0x0000000008000db6       0x58 /home/ch/RIOT/tests/driver_scd30/bin/p-nucleo-wb55/periph/gpio_all.o
                0x0000000008000db6                gpio_init_af
 .text._wait_for_bus
                0x0000000008000e0e       0x2c /home/ch/RIOT/tests/driver_scd30/bin/p-nucleo-wb55/periph/i2c_1.o
 .text._stop    0x0000000008000e3a       0x34 /home/ch/RIOT/tests/driver_scd30/bin/p-nucleo-wb55/periph/i2c_1.o
 .text._wait_isr_set
                0x0000000008000e6e       0x54 /home/ch/RIOT/tests/driver_scd30/bin/p-nucleo-wb55/periph/i2c_1.o
 *fill*         0x0000000008000ec2        0x2 
 .text._start   0x0000000008000ec4       0x84 /home/ch/RIOT/tests/driver_scd30/bin/p-nucleo-wb55/periph/i2c_1.o
 .text._write   0x0000000008000f48       0x94 /home/ch/RIOT/tests/driver_scd30/bin/p-nucleo-wb55/periph/i2c_1.o
 .text.i2c_init
                0x0000000008000fdc       0x9c /home/ch/RIOT/tests/driver_scd30/bin/p-nucleo-wb55/periph/i2c_1.o
                0x0000000008000fdc                i2c_init
 .text.i2c_acquire
                0x0000000008001078       0x38 /home/ch/RIOT/tests/driver_scd30/bin/p-nucleo-wb55/periph/i2c_1.o
                0x0000000008001078                i2c_acquire
 .text.i2c_release
                0x00000000080010b0       0x3c /home/ch/RIOT/tests/driver_scd30/bin/p-nucleo-wb55/periph/i2c_1.o
                0x00000000080010b0                i2c_release
 .text.i2c_read_bytes
                0x00000000080010ec       0x90 /home/ch/RIOT/tests/driver_scd30/bin/p-nucleo-wb55/periph/i2c_1.o
                0x00000000080010ec                i2c_read_bytes
 .text.i2c_write_bytes
                0x000000000800117c       0x28 /home/ch/RIOT/tests/driver_scd30/bin/p-nucleo-wb55/periph/i2c_1.o
                0x000000000800117c                i2c_write_bytes
 .text.isr_i2c1_er
                0x00000000080011a4       0x18 /home/ch/RIOT/tests/driver_scd30/bin/p-nucleo-wb55/periph/i2c_1.o
                0x00000000080011a4                isr_i2c1_er
 .text.pm_set   0x00000000080011bc       0x74 /home/ch/RIOT/tests/driver_scd30/bin/p-nucleo-wb55/periph/pm.o
                0x00000000080011bc                pm_set
 .text.timer_set_absolute
                0x0000000008001230       0x38 /home/ch/RIOT/tests/driver_scd30/bin/p-nucleo-wb55/periph/timer.o
                0x0000000008001230                timer_set_absolute
 .text.timer_read
                0x0000000008001268       0x10 /home/ch/RIOT/tests/driver_scd30/bin/p-nucleo-wb55/periph/timer.o
                0x0000000008001268                timer_read
 .text.timer_start
                0x0000000008001278       0x14 /home/ch/RIOT/tests/driver_scd30/bin/p-nucleo-wb55/periph/timer.o
                0x0000000008001278                timer_start
 .text.timer_init
                0x000000000800128c       0x54 /home/ch/RIOT/tests/driver_scd30/bin/p-nucleo-wb55/periph/timer.o
                0x000000000800128c                timer_init
 .text.isr_tim2
                0x00000000080012e0       0x74 /home/ch/RIOT/tests/driver_scd30/bin/p-nucleo-wb55/periph/timer.o
                0x00000000080012e0                isr_tim2
 .text.irq_handler
                0x0000000008001354       0x54 /home/ch/RIOT/tests/driver_scd30/bin/p-nucleo-wb55/periph/uart.o
 .text.uart_enable_clock
                0x00000000080013a8       0x30 /home/ch/RIOT/tests/driver_scd30/bin/p-nucleo-wb55/periph/uart.o
 .text.uart_init
                0x00000000080013d8      0x120 /home/ch/RIOT/tests/driver_scd30/bin/p-nucleo-wb55/periph/uart.o
                0x00000000080013d8                uart_init
 .text.uart_write
                0x00000000080014f8       0x40 /home/ch/RIOT/tests/driver_scd30/bin/p-nucleo-wb55/periph/uart.o
                0x00000000080014f8                uart_write
 .text.isr_usart1
                0x0000000008001538        0x6 /home/ch/RIOT/tests/driver_scd30/bin/p-nucleo-wb55/periph/uart.o
                0x0000000008001538                isr_usart1
 .text.isr_lpuart1
                0x000000000800153e        0x6 /home/ch/RIOT/tests/driver_scd30/bin/p-nucleo-wb55/periph/uart.o
                0x000000000800153e                isr_lpuart1
 .text.pm_set_lowest
                0x0000000008001544       0x3c /home/ch/RIOT/tests/driver_scd30/bin/p-nucleo-wb55/pm_layered/pm.o
                0x0000000008001544                pm_set_lowest
 .text.pm_block
                0x0000000008001580       0x2c /home/ch/RIOT/tests/driver_scd30/bin/p-nucleo-wb55/pm_layered/pm.o
                0x0000000008001580                pm_block
 .text.pm_off   0x00000000080015ac       0x10 /home/ch/RIOT/tests/driver_scd30/bin/p-nucleo-wb55/pm_layered/pm.o
                0x00000000080015ac                pm_off
 .text.byteorder_bebuftohl
                0x00000000080015bc        0x6 /home/ch/RIOT/tests/driver_scd30/bin/p-nucleo-wb55/scd30/scd30.o
 .text._scd30_crc_check.constprop.0
                0x00000000080015c2       0x18 /home/ch/RIOT/tests/driver_scd30/bin/p-nucleo-wb55/scd30/scd30.o
 .text._scd30_read_data
                0x00000000080015da       0xb6 /home/ch/RIOT/tests/driver_scd30/bin/p-nucleo-wb55/scd30/scd30.o
 .text.scd30_set_param
                0x0000000008001690       0x5a /home/ch/RIOT/tests/driver_scd30/bin/p-nucleo-wb55/scd30/scd30.o
                0x0000000008001690                scd30_set_param
 .text.scd30_get_param
                0x00000000080016ea       0x7e /home/ch/RIOT/tests/driver_scd30/bin/p-nucleo-wb55/scd30/scd30.o
                0x00000000080016ea                scd30_get_param
 .text.scd30_read_triggered
                0x0000000008001768       0xa0 /home/ch/RIOT/tests/driver_scd30/bin/p-nucleo-wb55/scd30/scd30.o
                0x0000000008001768                scd30_read_triggered
 .text.scd30_read_periodic
                0x0000000008001808       0x68 /home/ch/RIOT/tests/driver_scd30/bin/p-nucleo-wb55/scd30/scd30.o
                0x0000000008001808                scd30_read_periodic
 .text.scd30_start_periodic_measurement
                0x0000000008001870       0x40 /home/ch/RIOT/tests/driver_scd30/bin/p-nucleo-wb55/scd30/scd30.o
                0x0000000008001870                scd30_start_periodic_measurement
 .text.scd30_stop_measurements
                0x00000000080018b0       0x32 /home/ch/RIOT/tests/driver_scd30/bin/p-nucleo-wb55/scd30/scd30.o
                0x00000000080018b0                scd30_stop_measurements
 .text.scd30_reset
                0x00000000080018e2       0x44 /home/ch/RIOT/tests/driver_scd30/bin/p-nucleo-wb55/scd30/scd30.o
                0x00000000080018e2                scd30_reset
 .text.scd30_init
                0x0000000008001926       0x2c /home/ch/RIOT/tests/driver_scd30/bin/p-nucleo-wb55/scd30/scd30.o
                0x0000000008001926                scd30_init
 .text.stdio_init
                0x0000000008001952        0xe /home/ch/RIOT/tests/driver_scd30/bin/p-nucleo-wb55/stdio_uart/stdio_uart.o
                0x0000000008001952                stdio_init
 .text.stdio_read
                0x0000000008001960        0x6 /home/ch/RIOT/tests/driver_scd30/bin/p-nucleo-wb55/stdio_uart/stdio_uart.o
                0x0000000008001960                stdio_read
 .text.stdio_write
                0x0000000008001966       0x12 /home/ch/RIOT/tests/driver_scd30/bin/p-nucleo-wb55/stdio_uart/stdio_uart.o
                0x0000000008001966                stdio_write
 .text.stmclk_enable_hsi
                0x0000000008001978       0x14 /home/ch/RIOT/tests/driver_scd30/bin/p-nucleo-wb55/stm32_clk/stmclk_common.o
                0x0000000008001978                stmclk_enable_hsi
 .text.stmclk_disable_hsi
                0x000000000800198c        0xe /home/ch/RIOT/tests/driver_scd30/bin/p-nucleo-wb55/stm32_clk/stmclk_common.o
                0x000000000800198c                stmclk_disable_hsi
 *fill*         0x000000000800199a        0x2 
 .text.stmclk_init_sysclk
                0x000000000800199c       0xb4 /home/ch/RIOT/tests/driver_scd30/bin/p-nucleo-wb55/stm32_clk/stmclk_l4wx.o
                0x000000000800199c                stmclk_init_sysclk
 .text.dummy_handler
                0x0000000008001a50        0x4 /home/ch/RIOT/tests/driver_scd30/bin/p-nucleo-wb55/stm32_vectors/STM32WB55xx.o
                0x0000000008001a50                isr_lptim2
                0x0000000008001a50                isr_rtc_wkup
                0x0000000008001a50                isr_tim1_trg_com_tim17
                0x0000000008001a50                isr_hsem
                0x0000000008001a50                isr_aes2
                0x0000000008001a50                isr_exti
                0x0000000008001a50                isr_dma1_channel4
                0x0000000008001a50                isr_tsc
                0x0000000008001a50                isr_dma2_channel7
                0x0000000008001a50                isr_i2c1_ev
                0x0000000008001a50                isr_tim1_brk
                0x0000000008001a50                isr_dma1_channel5
                0x0000000008001a50                isr_dma1_channel2
                0x0000000008001a50                isr_pka
                0x0000000008001a50                isr_dma2_channel6
                0x0000000008001a50                isr_dma1_channel7
                0x0000000008001a50                isr_i2c3_ev
                0x0000000008001a50                isr_c2sev_pwr_c2h
                0x0000000008001a50                isr_tamp_stamp_lsecss
                0x0000000008001a50                isr_dma2_channel4
                0x0000000008001a50                isr_spi2
                0x0000000008001a50                isr_dma1_channel1
                0x0000000008001a50                dummy_handler
                0x0000000008001a50                isr_ipcc_c1_tx
                0x0000000008001a50                isr_tim1_up_tim16
                0x0000000008001a50                isr_usb_hp
                0x0000000008001a50                isr_comp
                0x0000000008001a50                isr_spi1
                0x0000000008001a50                isr_lptim1
                0x0000000008001a50                isr_sai1
                0x0000000008001a50                isr_usb_lp
                0x0000000008001a50                isr_rcc
                0x0000000008001a50                isr_flash
                0x0000000008001a50                isr_dma2_channel5
                0x0000000008001a50                isr_i2c3_er
                0x0000000008001a50                isr_tim1_cc
                0x0000000008001a50                isr_aes1
                0x0000000008001a50                isr_dma2_channel1
                0x0000000008001a50                isr_adc1
                0x0000000008001a50                isr_dma1_channel6
                0x0000000008001a50                isr_pwr_sotf_bleact_802act_rfphase
                0x0000000008001a50                isr_lcd
                0x0000000008001a50                isr_pvd_pvm
                0x0000000008001a50                isr_crs
                0x0000000008001a50                isr_fpu
                0x0000000008001a50                isr_rng
                0x0000000008001a50                isr_dmamux1_ovr
                0x0000000008001a50                isr_dma2_channel2
                0x0000000008001a50                isr_dma2_channel3
                0x0000000008001a50                isr_rtc_alarm
                0x0000000008001a50                isr_ipcc_c1_rx
                0x0000000008001a50                isr_quadspi
                0x0000000008001a50                isr_dma1_channel3
                0x0000000008001a50                isr_wwdg
 .text._add_timer_to_list
                0x0000000008001a54       0x34 /home/ch/RIOT/tests/driver_scd30/bin/p-nucleo-wb55/xtimer/xtimer_core.o
 .text._remove_timer_from_list
                0x0000000008001a88       0x18 /home/ch/RIOT/tests/driver_scd30/bin/p-nucleo-wb55/xtimer/xtimer_core.o
 .text._xtimer_now64
                0x0000000008001aa0       0x38 /home/ch/RIOT/tests/driver_scd30/bin/p-nucleo-wb55/xtimer/xtimer_core.o
 .text._schedule_earliest_lltimer
                0x0000000008001ad8       0x44 /home/ch/RIOT/tests/driver_scd30/bin/p-nucleo-wb55/xtimer/xtimer_core.o
 .text._xtimer_now
                0x0000000008001b1c        0x8 /home/ch/RIOT/tests/driver_scd30/bin/p-nucleo-wb55/xtimer/xtimer_core.o
                0x0000000008001b1c                _xtimer_now
 .text.xtimer_init
                0x0000000008001b24       0x30 /home/ch/RIOT/tests/driver_scd30/bin/p-nucleo-wb55/xtimer/xtimer_core.o
                0x0000000008001b24                xtimer_init
 .text._periph_timer_callback
                0x0000000008001b54      0x118 /home/ch/RIOT/tests/driver_scd30/bin/p-nucleo-wb55/xtimer/xtimer_core.o
 .text.xtimer_remove
                0x0000000008001c6c       0x30 /home/ch/RIOT/tests/driver_scd30/bin/p-nucleo-wb55/xtimer/xtimer_core.o
                0x0000000008001c6c                xtimer_remove
 .text._xtimer_set64
                0x0000000008001c9c       0x7c /home/ch/RIOT/tests/driver_scd30/bin/p-nucleo-wb55/xtimer/xtimer_core.o
                0x0000000008001c9c                _xtimer_set64
 .text._callback_unlock_mutex
                0x0000000008001d18        0x4 /home/ch/RIOT/tests/driver_scd30/bin/p-nucleo-wb55/xtimer/xtimer.o
 .text._xtimer_tsleep
                0x0000000008001d1c       0x60 /home/ch/RIOT/tests/driver_scd30/bin/p-nucleo-wb55/xtimer/xtimer.o
                0x0000000008001d1c                _xtimer_tsleep
 .text          0x0000000008001d7c      0x378 /usr/lib/gcc/arm-none-eabi/9.2.1/thumb/v7e-m/nofp/libgcc.a(_arm_addsubdf3.o)
                0x0000000008001d7c                __aeabi_drsub
                0x0000000008001d84                __aeabi_dsub
                0x0000000008001d84                __subdf3
                0x0000000008001d88                __adddf3
                0x0000000008001d88                __aeabi_dadd
                0x0000000008002000                __aeabi_ui2d
                0x0000000008002000                __floatunsidf
                0x0000000008002020                __floatsidf
                0x0000000008002020                __aeabi_i2d
                0x0000000008002044                __extendsfdf2
                0x0000000008002044                __aeabi_f2d
                0x0000000008002088                __aeabi_ul2d
                0x0000000008002088                __floatundidf
                0x0000000008002098                __floatdidf
                0x0000000008002098                __aeabi_l2d
 .text          0x00000000080020f4       0x30 /usr/lib/gcc/arm-none-eabi/9.2.1/thumb/v7e-m/nofp/libgcc.a(_aeabi_uldivmod.o)
                0x00000000080020f4                __aeabi_uldivmod
 .text          0x0000000008002124      0x2c0 /usr/lib/gcc/arm-none-eabi/9.2.1/thumb/v7e-m/nofp/libgcc.a(_udivmoddi4.o)
                0x0000000008002124                __udivmoddi4
 .text          0x00000000080023e4        0x4 /usr/lib/gcc/arm-none-eabi/9.2.1/thumb/v7e-m/nofp/libgcc.a(_dvmd_tls.o)
                0x00000000080023e4                __aeabi_ldiv0
                0x00000000080023e4                __aeabi_idiv0
 .text          0x00000000080023e8       0x48 /usr/lib/gcc/arm-none-eabi/9.2.1/../../../arm-none-eabi/lib/thumb/v7e-m/nofp/libc_nano.a(lib_a-init.o)
                0x00000000080023e8                __libc_init_array
 .text          0x0000000008002430       0x20 /usr/lib/gcc/arm-none-eabi/9.2.1/../../../arm-none-eabi/lib/thumb/v7e-m/nofp/libc_nano.a(lib_a-malloc.o)
                0x0000000008002430                malloc
                0x0000000008002440                free
 .text          0x0000000008002450      0x134 /usr/lib/gcc/arm-none-eabi/9.2.1/../../../arm-none-eabi/lib/thumb/v7e-m/nofp/libc_nano.a(lib_a-memcpy.o)
                0x0000000008002450                memcpy
 .text          0x0000000008002584       0xa0 /usr/lib/gcc/arm-none-eabi/9.2.1/../../../arm-none-eabi/lib/thumb/v7e-m/nofp/libc_nano.a(lib_a-memset.o)
                0x0000000008002584                memset
 .text          0x0000000008002624       0xac /usr/lib/gcc/arm-none-eabi/9.2.1/../../../arm-none-eabi/lib/thumb/v7e-m/nofp/libc_nano.a(lib_a-nano-freer.o)
                0x0000000008002624                _free_r
 .text          0x00000000080026d0       0xc8 /usr/lib/gcc/arm-none-eabi/9.2.1/../../../arm-none-eabi/lib/thumb/v7e-m/nofp/libc_nano.a(lib_a-nano-mallocr.o)
                0x00000000080026d0                _malloc_r
 .text          0x0000000008002798      0x6c0 /usr/lib/gcc/arm-none-eabi/9.2.1/../../../arm-none-eabi/lib/thumb/v7e-m/nofp/libc_nano.a(lib_a-nano-vfprintf_float.o)
                0x0000000008002798                __cvt
                0x000000000800288c                __exponent
                0x0000000008002918                _printf_float
 .text          0x0000000008002e58      0x3c4 /usr/lib/gcc/arm-none-eabi/9.2.1/../../../arm-none-eabi/lib/thumb/v7e-m/nofp/libc_nano.a(lib_a-nano-vfprintf_i.o)
                0x0000000008002e58                _printf_common
                0x0000000008002f84                _printf_i
 .text          0x000000000800321c       0x68 /usr/lib/gcc/arm-none-eabi/9.2.1/../../../arm-none-eabi/lib/thumb/v7e-m/nofp/libc_nano.a(lib_a-printf.o)
                0x000000000800321c                _printf_r
                0x000000000800321c                _iprintf_r
                0x000000000800324c                printf
                0x000000000800324c                iprintf
 .text          0x0000000008003284       0xe8 /usr/lib/gcc/arm-none-eabi/9.2.1/../../../arm-none-eabi/lib/thumb/v7e-m/nofp/libc_nano.a(lib_a-puts.o)
                0x0000000008003284                _puts_r
                0x000000000800335c                puts
 *fill*         0x000000000800336c       0x14 
 .text          0x0000000008003380       0xdc /usr/lib/gcc/arm-none-eabi/9.2.1/../../../arm-none-eabi/lib/thumb/v7e-m/nofp/libc_nano.a(lib_a-strlen.o)
                0x0000000008003380                strlen
 .text          0x000000000800345c       0xc0 /usr/lib/gcc/arm-none-eabi/9.2.1/../../../arm-none-eabi/lib/thumb/v7e-m/nofp/libc_nano.a(lib_a-wbuf.o)
                0x000000000800345c                __swbuf_r
                0x000000000800350c                __swbuf
 .text          0x000000000800351c      0x100 /usr/lib/gcc/arm-none-eabi/9.2.1/../../../arm-none-eabi/lib/thumb/v7e-m/nofp/libc_nano.a(lib_a-wsetup.o)
                0x000000000800351c                __swsetup_r
 *fill*         0x000000000800361c        0x4 
 .text          0x0000000008003620     0x104c /usr/lib/gcc/arm-none-eabi/9.2.1/../../../arm-none-eabi/lib/thumb/v7e-m/nofp/libc_nano.a(lib_a-dtoa.o)
                0x0000000008003744                _dtoa_r
 .text          0x000000000800466c      0x1b0 /usr/lib/gcc/arm-none-eabi/9.2.1/../../../arm-none-eabi/lib/thumb/v7e-m/nofp/libc_nano.a(lib_a-fflush.o)
                0x000000000800466c                __sflush_r
                0x0000000008004798                _fflush_r
                0x00000000080047f8                fflush
 .text          0x000000000800481c      0x210 /usr/lib/gcc/arm-none-eabi/9.2.1/../../../arm-none-eabi/lib/thumb/v7e-m/nofp/libc_nano.a(lib_a-findfp.o)
                0x0000000008004820                _cleanup_r
                0x0000000008004830                __sfmoreglue
                0x0000000008004860                __sfp
                0x00000000080049d8                _cleanup
                0x00000000080049ec                __sinit
                0x00000000080049f4                __sfp_lock_acquire
                0x00000000080049f8                __sfp_lock_release
                0x00000000080049fc                __sinit_lock_acquire
                0x0000000008004a00                __sinit_lock_release
                0x0000000008004a04                __fp_lock_all
                0x0000000008004a18                __fp_unlock_all
 .text          0x0000000008004a2c       0x44 /usr/lib/gcc/arm-none-eabi/9.2.1/../../../arm-none-eabi/lib/thumb/v7e-m/nofp/libc_nano.a(lib_a-fprintf.o)
                0x0000000008004a2c                _fprintf_r
                0x0000000008004a2c                _fiprintf_r
                0x0000000008004a48                fprintf
                0x0000000008004a48                fiprintf
 .text          0x0000000008004a70       0xa0 /usr/lib/gcc/arm-none-eabi/9.2.1/../../../arm-none-eabi/lib/thumb/v7e-m/nofp/libc_nano.a(lib_a-fwalk.o)
                0x0000000008004a70                _fwalk
                0x0000000008004abc                _fwalk_reent
 .text          0x0000000008004b10       0x14 /usr/lib/gcc/arm-none-eabi/9.2.1/../../../arm-none-eabi/lib/thumb/v7e-m/nofp/libc_nano.a(lib_a-localeconv.o)
                0x0000000008004b10                __localeconv_l
                0x0000000008004b14                _localeconv_r
                0x0000000008004b1c                localeconv
 .text          0x0000000008004b24       0xf0 /usr/lib/gcc/arm-none-eabi/9.2.1/../../../arm-none-eabi/lib/thumb/v7e-m/nofp/libc_nano.a(lib_a-makebuf.o)
                0x0000000008004b24                __swhatbuf_r
                0x0000000008004b80                __smakebuf_r
 *fill*         0x0000000008004c14        0xc 
 .text          0x0000000008004c20       0xa0 /usr/lib/gcc/arm-none-eabi/9.2.1/../../../arm-none-eabi/lib/thumb/v7e-m/nofp/libc_nano.a(lib_a-memchr.o)
                0x0000000008004c20                memchr
 .text          0x0000000008004cc0        0x8 /usr/lib/gcc/arm-none-eabi/9.2.1/../../../arm-none-eabi/lib/thumb/v7e-m/nofp/libc_nano.a(lib_a-mlock.o)
                0x0000000008004cc0                __malloc_lock
                0x0000000008004cc4                __malloc_unlock
 .text          0x0000000008004cc8      0xa08 /usr/lib/gcc/arm-none-eabi/9.2.1/../../../arm-none-eabi/lib/thumb/v7e-m/nofp/libc_nano.a(lib_a-mprec.o)
                0x0000000008004cc8                _Balloc
                0x0000000008004d48                _Bfree
                0x0000000008004d94                __multadd
                0x0000000008004e34                __s2b
                0x0000000008004ee0                __hi0bits
                0x0000000008004f20                __lo0bits
                0x0000000008004f80                __i2b
                0x0000000008004fac                __multiply
                0x00000000080050f8                __pow5mult
                0x00000000080051bc                __lshift
                0x0000000008005284                __mcmp
                0x00000000080052bc                __mdiff
                0x00000000080053e4                __ulp
                0x0000000008005424                __b2d
                0x00000000080054dc                __d2b
                0x00000000080055a0                __ratio
                0x00000000080055fc                _mprec_log10
                0x0000000008005634                __copybits
                0x000000000800567c                __any_on
 .text          0x00000000080056d0       0x1c /usr/lib/gcc/arm-none-eabi/9.2.1/../../../arm-none-eabi/lib/thumb/v7e-m/nofp/libc_nano.a(lib_a-nano-callocr.o)
                0x00000000080056d0                _calloc_r
 .text          0x00000000080056ec       0x4c /usr/lib/gcc/arm-none-eabi/9.2.1/../../../arm-none-eabi/lib/thumb/v7e-m/nofp/libc_nano.a(lib_a-nano-reallocr.o)
                0x00000000080056ec                _realloc_r
 .text          0x0000000008005738      0x360 /usr/lib/gcc/arm-none-eabi/9.2.1/../../../arm-none-eabi/lib/thumb/v7e-m/nofp/libc_nano.a(lib_a-nano-vfprintf.o)
                0x0000000008005770                __sfputs_r
                0x00000000080057a0                __sprint_r
                0x00000000080057bc                _vfiprintf_r
                0x00000000080057bc                _vfprintf_r
                0x0000000008005a80                vfiprintf
                0x0000000008005a80                vfprintf
 .text          0x0000000008005a98       0x90 /usr/lib/gcc/arm-none-eabi/9.2.1/../../../arm-none-eabi/lib/thumb/v7e-m/nofp/libc_nano.a(lib_a-stdio.o)
                0x0000000008005a98                __sread
                0x0000000008005abc                __seofread
                0x0000000008005ac0                __swrite
                0x0000000008005b00                __sseek
                0x0000000008005b20                __sclose
 .text          0x0000000008005b28       0x48 /usr/lib/gcc/arm-none-eabi/9.2.1/../../../arm-none-eabi/lib/thumb/v7e-m/nofp/libc_nano.a(lib_a-assert.o)
                0x0000000008005b28                __assert_func
                0x0000000008005b64                __assert
 .text          0x0000000008005b70      0x308 /usr/lib/gcc/arm-none-eabi/9.2.1/../../../arm-none-eabi/lib/thumb/v7e-m/nofp/libc_nano.a(lib_a-fvwrite.o)
                0x0000000008005b70                __sfvwrite_r
 .text          0x0000000008005e78       0x40 /usr/lib/gcc/arm-none-eabi/9.2.1/../../../arm-none-eabi/lib/thumb/v7e-m/nofp/libc_nano.a(lib_a-mbtowc_r.o)
                0x0000000008005e78                _mbtowc_r
                0x0000000008005e8c                __ascii_mbtowc
 .text          0x0000000008005eb8       0xd0 /usr/lib/gcc/arm-none-eabi/9.2.1/../../../arm-none-eabi/lib/thumb/v7e-m/nofp/libc_nano.a(lib_a-memmove.o)
                0x0000000008005eb8                memmove
 .text          0x0000000008005f88       0x10 /usr/lib/gcc/arm-none-eabi/9.2.1/../../../arm-none-eabi/lib/thumb/v7e-m/nofp/libc_nano.a(lib_a-nano-msizer.o)
                0x0000000008005f88                _malloc_usable_size_r
 .text          0x0000000008005f98       0x30 /usr/lib/gcc/arm-none-eabi/9.2.1/../../../arm-none-eabi/lib/thumb/v7e-m/nofp/libc_nano.a(lib_a-wctomb_r.o)
                0x0000000008005f98                _wctomb_r
                0x0000000008005fac                __ascii_wctomb
 .text          0x0000000008005fc8       0x10 /usr/lib/gcc/arm-none-eabi/9.2.1/../../../arm-none-eabi/lib/thumb/v7e-m/nofp/libc_nano.a(lib_a-abort.o)
                0x0000000008005fc8                abort
 .text          0x0000000008005fd8      0x150 /usr/lib/gcc/arm-none-eabi/9.2.1/../../../arm-none-eabi/lib/thumb/v7e-m/nofp/libc_nano.a(lib_a-signal.o)
                0x0000000008006000                _init_signal_r
                0x000000000800600c                _signal_r
                0x0000000008006040                _raise_r
                0x0000000008006094                __sigtramp_r
                0x00000000080060e4                raise
                0x00000000080060f4                signal
                0x0000000008006104                _init_signal
                0x0000000008006118                __sigtramp
 .text          0x0000000008006128      0x424 /usr/lib/gcc/arm-none-eabi/9.2.1/thumb/v7e-m/nofp/libgcc.a(_arm_muldivdf3.o)
                0x0000000008006128                __aeabi_dmul
                0x0000000008006128                __muldf3
                0x000000000800637c                __aeabi_ddiv
                0x000000000800637c                __divdf3
 .text          0x000000000800654c      0x110 /usr/lib/gcc/arm-none-eabi/9.2.1/thumb/v7e-m/nofp/libgcc.a(_arm_cmpdf2.o)
                0x000000000800654c                __gtdf2
                0x000000000800654c                __gedf2
                0x0000000008006554                __ltdf2
                0x0000000008006554                __ledf2
                0x000000000800655c                __cmpdf2
                0x000000000800655c                __eqdf2
                0x000000000800655c                __nedf2
                0x00000000080065d8                __aeabi_cdrcmple
                0x00000000080065e8                __aeabi_cdcmple
                0x00000000080065e8                __aeabi_cdcmpeq
                0x00000000080065f8                __aeabi_dcmpeq
                0x000000000800660c                __aeabi_dcmplt
                0x0000000008006620                __aeabi_dcmple
                0x0000000008006634                __aeabi_dcmpge
                0x0000000008006648                __aeabi_dcmpgt
 .text          0x000000000800665c       0x2c /usr/lib/gcc/arm-none-eabi/9.2.1/thumb/v7e-m/nofp/libgcc.a(_arm_unorddf2.o)
                0x000000000800665c                __aeabi_dcmpun
                0x000000000800665c                __unorddf2
 .text          0x0000000008006688       0x50 /usr/lib/gcc/arm-none-eabi/9.2.1/thumb/v7e-m/nofp/libgcc.a(_arm_fixdfsi.o)
                0x0000000008006688                __fixdfsi
                0x0000000008006688                __aeabi_d2iz
 *(.glue_7t)
 .glue_7t       0x00000000080066d8        0x0 linker stubs
 *(.glue_7)
 .glue_7        0x00000000080066d8        0x0 linker stubs
 *(.rodata .rodata* .gnu.linkonce.r.*)
 .rodata.main.str1.1
                0x00000000080066d8      0x167 /home/ch/RIOT/tests/driver_scd30/bin/p-nucleo-wb55/application_tests_driver_scd30/main.o
 .rodata.main_trampoline.str1.1
                0x000000000800683f       0x3b /home/ch/RIOT/tests/driver_scd30/bin/p-nucleo-wb55/core/init.o
 .rodata.kernel_init.str1.1
                0x000000000800687a        0x5 /home/ch/RIOT/tests/driver_scd30/bin/p-nucleo-wb55/core/init.o
 .rodata.core_panic.str1.1
                0x000000000800687f       0x2e /home/ch/RIOT/tests/driver_scd30/bin/p-nucleo-wb55/core/panic.o
 .rodata.assert_crash_message
                0x00000000080068ad       0x12 /home/ch/RIOT/tests/driver_scd30/bin/p-nucleo-wb55/core/panic.o
                0x00000000080068ad                assert_crash_message
 .rodata._unschedule.str1.1
                0x00000000080068bf       0x2f /home/ch/RIOT/tests/driver_scd30/bin/p-nucleo-wb55/core/sched.o
 .rodata.panic_arch.str1.1
                0x00000000080068ee        0xf /home/ch/RIOT/tests/driver_scd30/bin/p-nucleo-wb55/cortexm_common/panic.o
 .rodata.nmi_default.str1.1
                0x00000000080068fd        0xc /home/ch/RIOT/tests/driver_scd30/bin/p-nucleo-wb55/cortexm_common/vectors_cortexm.o
 .rodata.mem_manage_default.str1.1
                0x0000000008006909       0x13 /home/ch/RIOT/tests/driver_scd30/bin/p-nucleo-wb55/cortexm_common/vectors_cortexm.o
 .rodata.bus_fault_default.str1.1
                0x000000000800691c       0x12 /home/ch/RIOT/tests/driver_scd30/bin/p-nucleo-wb55/cortexm_common/vectors_cortexm.o
 .rodata.usage_fault_default.str1.1
                0x000000000800692e       0x14 /home/ch/RIOT/tests/driver_scd30/bin/p-nucleo-wb55/cortexm_common/vectors_cortexm.o
 .rodata.debug_mon_default.str1.1
                0x0000000008006942       0x12 /home/ch/RIOT/tests/driver_scd30/bin/p-nucleo-wb55/cortexm_common/vectors_cortexm.o
 .rodata.dummy_handler_default.str1.1
                0x0000000008006954        0xe /home/ch/RIOT/tests/driver_scd30/bin/p-nucleo-wb55/cortexm_common/vectors_cortexm.o
 .rodata.hard_fault_handler.str1.1
                0x0000000008006962      0x233 /home/ch/RIOT/tests/driver_scd30/bin/p-nucleo-wb55/cortexm_common/vectors_cortexm.o
 .rodata.apbmul
                0x0000000008006b95        0x3 /home/ch/RIOT/tests/driver_scd30/bin/p-nucleo-wb55/cpu/cpu_common.o
 .rodata._exit.str1.1
                0x0000000008006b98       0x1a /home/ch/RIOT/tests/driver_scd30/bin/p-nucleo-wb55/newlib_syscalls_default/syscalls.o
 .rodata.isr_i2c1_er.str1.1
                0x0000000008006bb2        0xa /home/ch/RIOT/tests/driver_scd30/bin/p-nucleo-wb55/periph/i2c_1.o
 .rodata.timer_config
                0x0000000008006bbc       0x10 /home/ch/RIOT/tests/driver_scd30/bin/p-nucleo-wb55/periph/timer.o
 .rodata.uart_config
                0x0000000008006bcc       0x38 /home/ch/RIOT/tests/driver_scd30/bin/p-nucleo-wb55/periph/uart.o
 .rodata        0x0000000008006c04        0x4 /usr/lib/gcc/arm-none-eabi/9.2.1/../../../arm-none-eabi/lib/thumb/v7e-m/nofp/libc_nano.a(lib_a-impure.o)
                0x0000000008006c04                _global_impure_ptr
 .rodata.str1.4
                0x0000000008006c08       0x12 /usr/lib/gcc/arm-none-eabi/9.2.1/../../../arm-none-eabi/lib/thumb/v7e-m/nofp/libc_nano.a(lib_a-nano-vfprintf_float.o)
 *fill*         0x0000000008006c1a        0x2 
 .rodata.str1.4
                0x0000000008006c1c       0x25 /usr/lib/gcc/arm-none-eabi/9.2.1/../../../arm-none-eabi/lib/thumb/v7e-m/nofp/libc_nano.a(lib_a-nano-vfprintf_i.o)
 *fill*         0x0000000008006c41        0x3 
 .rodata.str1.4
                0x0000000008006c44       0x6d /usr/lib/gcc/arm-none-eabi/9.2.1/../../../arm-none-eabi/lib/thumb/v7e-m/nofp/libc_nano.a(lib_a-dtoa.o)
                                         0x71 (size before relaxing)
 *fill*         0x0000000008006cb1        0x3 
 .rodata        0x0000000008006cb4       0x60 /usr/lib/gcc/arm-none-eabi/9.2.1/../../../arm-none-eabi/lib/thumb/v7e-m/nofp/libc_nano.a(lib_a-findfp.o)
                0x0000000008006cb4                __sf_fake_stderr
                0x0000000008006cd4                __sf_fake_stdout
                0x0000000008006cf4                __sf_fake_stdin
 *fill*         0x0000000008006d14        0x4 
 .rodata        0x0000000008006d18      0x128 /usr/lib/gcc/arm-none-eabi/9.2.1/../../../arm-none-eabi/lib/thumb/v7e-m/nofp/libc_nano.a(lib_a-mprec.o)
                0x0000000008006d28                __mprec_tens
                0x0000000008006df0                __mprec_tinytens
                0x0000000008006e18                __mprec_bigtens
 .rodata.str1.4
                0x0000000008006e40       0x33 /usr/lib/gcc/arm-none-eabi/9.2.1/../../../arm-none-eabi/lib/thumb/v7e-m/nofp/libc_nano.a(lib_a-mprec.o)
                                         0x5d (size before relaxing)
 *fill*         0x0000000008006e73        0x1 
 .rodata.str1.4
                0x0000000008006e74       0x13 /usr/lib/gcc/arm-none-eabi/9.2.1/../../../arm-none-eabi/lib/thumb/v7e-m/nofp/libc_nano.a(lib_a-nano-vfprintf.o)
 *fill*         0x0000000008006e87        0x1 
 .rodata.str1.4
                0x0000000008006e88       0x3f /usr/lib/gcc/arm-none-eabi/9.2.1/../../../arm-none-eabi/lib/thumb/v7e-m/nofp/libc_nano.a(lib_a-assert.o)
                                         0x43 (size before relaxing)
 *fill*         0x0000000008006ec7        0x1 
 .rodata.str1.4
                0x0000000008006ec8        0xe /usr/lib/gcc/arm-none-eabi/9.2.1/../../../arm-none-eabi/lib/thumb/v7e-m/nofp/libc_nano.a(lib_a-locale.o)
                                         0x12 (size before relaxing)
 *fill*         0x0000000008006ed6        0x2 
 .rodata        0x0000000008006ed8      0x101 /usr/lib/gcc/arm-none-eabi/9.2.1/../../../arm-none-eabi/lib/thumb/v7e-m/nofp/libc_nano.a(lib_a-ctype_.o)
                0x0000000008006ed8                _ctype_
 *(SORT_BY_NAME(.roxfa.*))
 *(.ARM.extab* .gnu.linkonce.armextab.*)
                0x0000000008006fdc                . = ALIGN (0x4)
 *fill*         0x0000000008006fd9        0x3 
 *(.init)
                0x0000000008006fdc                . = ALIGN (0x4)
                0x0000000008006fdc                __preinit_array_start = .
 *(.preinit_array)
                0x0000000008006fdc                __preinit_array_end = .
                0x0000000008006fdc                . = ALIGN (0x4)
                0x0000000008006fdc                __init_array_start = .
 *(SORT_BY_NAME(.init_array.*))
 *(.init_array)
                0x0000000008006fdc                __init_array_end = .
                0x0000000008006fdc                . = ALIGN (0x4)
 *crtbegin.o(.ctors)
 *(EXCLUDE_FILE(*crtend.o) .ctors)
 *(SORT_BY_NAME(.ctors.*))
 *crtend.o(.ctors)
                0x0000000008006fdc                . = ALIGN (0x4)
 *(.fini)
                0x0000000008006fdc                . = ALIGN (0x4)
                0x0000000008006fdc                __fini_array_start = .
 *(.fini_array)
 *(SORT_BY_NAME(.fini_array.*))
                0x0000000008006fdc                __fini_array_end = .
 *crtbegin.o(.dtors)
 *(EXCLUDE_FILE(*crtend.o) .dtors)
 *(SORT_BY_NAME(.dtors.*))
 *crtend.o(.dtors)
                0x0000000008006fdc                . = ALIGN (0x4)
                0x0000000008006fdc                _efixed = .

.vfp11_veneer   0x0000000008006fdc        0x0
 .vfp11_veneer  0x0000000008006fdc        0x0 linker stubs

.v4_bx          0x0000000008006fdc        0x0
 .v4_bx         0x0000000008006fdc        0x0 linker stubs

.iplt           0x0000000008006fdc        0x0
 .iplt          0x0000000008006fdc        0x0 /home/ch/RIOT/tests/driver_scd30/bin/p-nucleo-wb55/application_tests_driver_scd30/main.o

.igot.plt       0x0000000008006fdc        0x0
 .igot.plt      0x0000000008006fdc        0x0 /home/ch/RIOT/tests/driver_scd30/bin/p-nucleo-wb55/application_tests_driver_scd30/main.o

.tdata          0x0000000008006fdc        0x0
                0x0000000008006fdc                __tdata_start = .
 *(.tdata .tdata.* .gnu.linkonce.td.*)
                0x0000000008006fdc                __tdata_end = .
                0x0000000008006fdc                __tdata_source = LOADADDR (.tdata)
                0x0000000000000000                __tdata_size = SIZEOF (.tdata)

.tbss           0x0000000008006fdc        0x0
 *(.tbss .tbss.* .gnu.linkonce.tb.*)
 *(.tcommon)
                0x0000000008006fdc                __tbss_end = .
                0x0000000000000000                __tls_size = (__tbss_end - __tdata_start)
                0x0000000000000000                __tbss_size = (__tls_size - __tdata_size)
                [!provide]                        PROVIDE (__exidx_start = .)

.ARM.exidx      0x0000000008006fdc        0x8
 *(.ARM.exidx* .gnu.linkonce.armexidx.*)
 .ARM.exidx     0x0000000008006fdc        0x8 /usr/lib/gcc/arm-none-eabi/9.2.1/thumb/v7e-m/nofp/libgcc.a(_udivmoddi4.o)
                [!provide]                        PROVIDE (__exidx_end = .)

.rel.dyn        0x0000000008006fe4        0x0
 .rel.iplt      0x0000000008006fe4        0x0 /home/ch/RIOT/tests/driver_scd30/bin/p-nucleo-wb55/application_tests_driver_scd30/main.o
                0x0000000008006fe4                . = ALIGN (0x4)

.eh_frame
 *(.eh_frame)
                0x0000000008006fe4                . = ALIGN (0x4)
                0x0000000008006fe4                _etext = .

.stack          0x0000000020000000      0x200
 *(.puf)
                0x0000000020000000                . = ALIGN (0x8)
                0x0000000020000000                _sstack = .
 *(.isr_stack)
 .isr_stack     0x0000000020000000      0x200 /home/ch/RIOT/tests/driver_scd30/bin/p-nucleo-wb55/cortexm_common/vectors_cortexm.o
                0x0000000020000000                isr_stack
                0x0000000020000200                . = ALIGN (0x8)
                0x0000000020000200                _estack = .

.relocate       0x0000000020000200      0x1e4 load address 0x0000000008006fe4
                0x0000000020000200                . = ALIGN (0x4)
                0x0000000020000200                _srelocate = .
 *(.ramfunc .ramfunc.*)
 *(.data .data.*)
 .data.params   0x0000000020000200        0x8 /home/ch/RIOT/tests/driver_scd30/bin/p-nucleo-wb55/application_tests_driver_scd30/main.o
                0x0000000020000200                params
 .data.heap_top
                0x0000000020000208        0x4 /home/ch/RIOT/tests/driver_scd30/bin/p-nucleo-wb55/newlib_syscalls_default/syscalls.o
 .data.pm_blocker
                0x000000002000020c        0x4 /home/ch/RIOT/tests/driver_scd30/bin/p-nucleo-wb55/pm_layered/pm.o
 .data          0x0000000020000210       0x64 /usr/lib/gcc/arm-none-eabi/9.2.1/../../../arm-none-eabi/lib/thumb/v7e-m/nofp/libc_nano.a(lib_a-impure.o)
                0x0000000020000210                _impure_ptr
 .data          0x0000000020000274      0x16c /usr/lib/gcc/arm-none-eabi/9.2.1/../../../arm-none-eabi/lib/thumb/v7e-m/nofp/libc_nano.a(lib_a-locale.o)
                0x0000000020000274                __global_locale
 *(SORT_BY_NAME(.xfa.*))
 *(.openocd .openocd.*)
 .openocd       0x00000000200003e0        0x2 /home/ch/RIOT/tests/driver_scd30/bin/p-nucleo-wb55/core/sched.o
                0x00000000200003e0                _tcb_name_offset
                0x00000000200003e1                max_threads
                0x00000000200003e4                . = ALIGN (0x4)
 *fill*         0x00000000200003e2        0x2 
                0x00000000200003e4                _erelocate = .

.bss            0x00000000200003e8      0x738 load address 0x00000000080071c8
                0x00000000200003e8                . = ALIGN (0x4)
                0x00000000200003e8                _sbss = .
                0x00000000200003e8                _szero = .
 *(.bss .bss.*)
 .bss.result    0x00000000200003e8        0xc /home/ch/RIOT/tests/driver_scd30/bin/p-nucleo-wb55/application_tests_driver_scd30/main.o
                0x00000000200003e8                result
 .bss.scd30_dev
                0x00000000200003f4        0x8 /home/ch/RIOT/tests/driver_scd30/bin/p-nucleo-wb55/application_tests_driver_scd30/main.o
                0x00000000200003f4                scd30_dev
 .bss.main_stack
                0x00000000200003fc      0x600 /home/ch/RIOT/tests/driver_scd30/bin/p-nucleo-wb55/core/init.o
 .bss.crashed   0x00000000200009fc        0x4 /home/ch/RIOT/tests/driver_scd30/bin/p-nucleo-wb55/core/panic.o
 .bss.runqueue_bitcache
                0x0000000020000a00        0x4 /home/ch/RIOT/tests/driver_scd30/bin/p-nucleo-wb55/core/sched.o
 .bss.sched_active_pid
                0x0000000020000a04        0x2 /home/ch/RIOT/tests/driver_scd30/bin/p-nucleo-wb55/core/sched.o
                0x0000000020000a04                sched_active_pid
 *fill*         0x0000000020000a06        0x2 
 .bss.sched_active_thread
                0x0000000020000a08        0x4 /home/ch/RIOT/tests/driver_scd30/bin/p-nucleo-wb55/core/sched.o
                0x0000000020000a08                sched_active_thread
 .bss.sched_context_switch_request
                0x0000000020000a0c        0x4 /home/ch/RIOT/tests/driver_scd30/bin/p-nucleo-wb55/core/sched.o
                0x0000000020000a0c                sched_context_switch_request
 .bss.sched_num_threads
                0x0000000020000a10        0x4 /home/ch/RIOT/tests/driver_scd30/bin/p-nucleo-wb55/core/sched.o
                0x0000000020000a10                sched_num_threads
 .bss.sched_runqueues
                0x0000000020000a14       0x40 /home/ch/RIOT/tests/driver_scd30/bin/p-nucleo-wb55/core/sched.o
                0x0000000020000a14                sched_runqueues
 .bss.sched_threads
                0x0000000020000a54       0x84 /home/ch/RIOT/tests/driver_scd30/bin/p-nucleo-wb55/core/sched.o
                0x0000000020000a54                sched_threads
 .bss._lock     0x0000000020000ad8        0x4 /home/ch/RIOT/tests/driver_scd30/bin/p-nucleo-wb55/malloc_thread_safe/malloc_wrappers.o
 .bss.locks     0x0000000020000adc        0x4 /home/ch/RIOT/tests/driver_scd30/bin/p-nucleo-wb55/periph/i2c_1.o
 .bss.isr_ctx   0x0000000020000ae0        0x8 /home/ch/RIOT/tests/driver_scd30/bin/p-nucleo-wb55/periph/timer.o
 .bss.isr_ctx   0x0000000020000ae8       0x18 /home/ch/RIOT/tests/driver_scd30/bin/p-nucleo-wb55/periph/uart.o
 .bss._in_handler
                0x0000000020000b00        0x4 /home/ch/RIOT/tests/driver_scd30/bin/p-nucleo-wb55/xtimer/xtimer_core.o
 .bss._lltimer_ongoing
                0x0000000020000b04        0x1 /home/ch/RIOT/tests/driver_scd30/bin/p-nucleo-wb55/xtimer/xtimer_core.o
 *fill*         0x0000000020000b05        0x3 
 .bss._xtimer_current_time
                0x0000000020000b08        0x8 /home/ch/RIOT/tests/driver_scd30/bin/p-nucleo-wb55/xtimer/xtimer_core.o
                0x0000000020000b08                _xtimer_current_time
 .bss.long_list_head
                0x0000000020000b10        0x4 /home/ch/RIOT/tests/driver_scd30/bin/p-nucleo-wb55/xtimer/xtimer_core.o
 .bss.timer_list_head
                0x0000000020000b14        0x4 /home/ch/RIOT/tests/driver_scd30/bin/p-nucleo-wb55/xtimer/xtimer_core.o
 .bss           0x0000000020000b18        0x8 /usr/lib/gcc/arm-none-eabi/9.2.1/../../../arm-none-eabi/lib/thumb/v7e-m/nofp/libc_nano.a(lib_a-nano-mallocr.o)
                0x0000000020000b18                __malloc_free_list
                0x0000000020000b1c                __malloc_sbrk_start
 *(COMMON)
                0x0000000020000b20                . = ALIGN (0x4)
                0x0000000020000b20                _ebss = .
                0x0000000020000b20                _ezero = .

.noinit         0x0000000020000b20        0x0 load address 0x00000000080071c8
                0x0000000020000b20                __noinit_start = .
 *(.noinit)
                0x0000000020000b20                . = ALIGN (0x4)
                0x0000000020000b20                __noinit_end = .
                0x0000000020000b20                . = ALIGN (0x4)
                0x0000000020000b20                _sheap = .
                0x0000000020030000                _eheap = (ORIGIN (ram) + LENGTH (ram))
                0x0000000020000000                _sram = ORIGIN (ram)
                0x0000000020030000                _eram = (ORIGIN (ram) + LENGTH (ram))
                0x0000000008000000                _srom = ORIGIN (rom)
                0x00000000080ca000                _erom = (ORIGIN (rom) + LENGTH (rom))
                0x00000000080071c8                _sbackup_data_load = LOADADDR (.backup.data)

.backup.data    0x0000000000000000        0x0 load address 0x00000000080071c8
                0x0000000000000000                _sbackup_data = .
 *(.backup.data)
                0x0000000000000000                _ebackup_data = .
                0x0000000000000000                . = ALIGN (0x4)

.backup.bss     0x0000000000000000        0x0 load address 0x00000000080071c8
                0x0000000000000000                _sbackup_bss = .
 *(.backup.bss)
                0x0000000000000000                _ebackup_bss = .
                0x0000000000000000                . = ALIGN (0x4)

.heap3          0x0000000000000000        0x0 load address 0x00000000080071c8
                0x0000000000000000                _sheap1 = .
                0x0000000000000000                _eheap1 = (ORIGIN (bkup_ram) + LENGTH (bkup_ram))

.end_fw         0x00000000080071c8        0x0
                0x00000000080071c8                _end_fw = .
OUTPUT(/home/ch/RIOT/tests/driver_scd30/bin/p-nucleo-wb55/tests_driver_scd30.elf elf32-littlearm)
LOAD linker stubs

.debug_info     0x0000000000000000    0x4fd79
 .debug_info    0x0000000000000000     0x1bf3 /home/ch/RIOT/tests/driver_scd30/bin/p-nucleo-wb55/application_tests_driver_scd30/main.o
 .debug_info    0x0000000000001bf3      0xd3f /home/ch/RIOT/tests/driver_scd30/bin/p-nucleo-wb55/auto_init/auto_init.o
 .debug_info    0x0000000000002932     0x15e3 /home/ch/RIOT/tests/driver_scd30/bin/p-nucleo-wb55/boards_common_nucleo/board_common_nucleo_init.o
 .debug_info    0x0000000000003f15      0x158 /home/ch/RIOT/tests/driver_scd30/bin/p-nucleo-wb55/checksum/crc8.o
 .debug_info    0x000000000000406d      0xe90 /home/ch/RIOT/tests/driver_scd30/bin/p-nucleo-wb55/core/init.o
 .debug_info    0x0000000000004efd     0x1b99 /home/ch/RIOT/tests/driver_scd30/bin/p-nucleo-wb55/core/mutex.o
 .debug_info    0x0000000000006a96      0xf0b /home/ch/RIOT/tests/driver_scd30/bin/p-nucleo-wb55/core/panic.o
 .debug_info    0x00000000000079a1     0x14b1 /home/ch/RIOT/tests/driver_scd30/bin/p-nucleo-wb55/core/sched.o
 .debug_info    0x0000000000008e52     0x1e7a /home/ch/RIOT/tests/driver_scd30/bin/p-nucleo-wb55/core/thread.o
 .debug_info    0x000000000000accc     0x139e /home/ch/RIOT/tests/driver_scd30/bin/p-nucleo-wb55/cortexm_common/cortexm_init.o
 .debug_info    0x000000000000c06a      0xd6b /home/ch/RIOT/tests/driver_scd30/bin/p-nucleo-wb55/cortexm_common/panic.o
 .debug_info    0x000000000000cdd5     0x12a1 /home/ch/RIOT/tests/driver_scd30/bin/p-nucleo-wb55/cortexm_common/thread_arch.o
 .debug_info    0x000000000000e076     0x1f87 /home/ch/RIOT/tests/driver_scd30/bin/p-nucleo-wb55/cortexm_common/vectors_cortexm.o
 .debug_info    0x000000000000fffd     0x19fd /home/ch/RIOT/tests/driver_scd30/bin/p-nucleo-wb55/cpu/cpu_common.o
 .debug_info    0x00000000000119fa     0x1602 /home/ch/RIOT/tests/driver_scd30/bin/p-nucleo-wb55/cpu/cpu_init.o
 .debug_info    0x0000000000012ffc     0x10e0 /home/ch/RIOT/tests/driver_scd30/bin/p-nucleo-wb55/malloc_thread_safe/malloc_wrappers.o
 .debug_info    0x00000000000140dc     0x2532 /home/ch/RIOT/tests/driver_scd30/bin/p-nucleo-wb55/newlib_syscalls_default/syscalls.o
 .debug_info    0x000000000001660e     0x1531 /home/ch/RIOT/tests/driver_scd30/bin/p-nucleo-wb55/periph_common/init.o
 .debug_info    0x0000000000017b3f     0x1eac /home/ch/RIOT/tests/driver_scd30/bin/p-nucleo-wb55/periph/gpio_all.o
 .debug_info    0x00000000000199eb     0x28cd /home/ch/RIOT/tests/driver_scd30/bin/p-nucleo-wb55/periph/i2c_1.o
 .debug_info    0x000000000001c2b8     0x11e0 /home/ch/RIOT/tests/driver_scd30/bin/p-nucleo-wb55/periph/pm.o
 .debug_info    0x000000000001d498     0x1ed5 /home/ch/RIOT/tests/driver_scd30/bin/p-nucleo-wb55/periph/timer.o
 .debug_info    0x000000000001f36d     0x268b /home/ch/RIOT/tests/driver_scd30/bin/p-nucleo-wb55/periph/uart.o
 .debug_info    0x00000000000219f8     0x11b7 /home/ch/RIOT/tests/driver_scd30/bin/p-nucleo-wb55/pm_layered/pm.o
 .debug_info    0x0000000000022baf     0x2702 /home/ch/RIOT/tests/driver_scd30/bin/p-nucleo-wb55/scd30/scd30.o
 .debug_info    0x00000000000252b1     0x16b8 /home/ch/RIOT/tests/driver_scd30/bin/p-nucleo-wb55/stdio_uart/stdio_uart.o
 .debug_info    0x0000000000026969     0x1abb /home/ch/RIOT/tests/driver_scd30/bin/p-nucleo-wb55/stm32_clk/stmclk_common.o
 .debug_info    0x0000000000028424     0x1bae /home/ch/RIOT/tests/driver_scd30/bin/p-nucleo-wb55/stm32_clk/stmclk_l4wx.o
 .debug_info    0x0000000000029fd2      0x2b8 /home/ch/RIOT/tests/driver_scd30/bin/p-nucleo-wb55/stm32_vectors/STM32WB55xx.o
 .debug_info    0x000000000002a28a     0x207c /home/ch/RIOT/tests/driver_scd30/bin/p-nucleo-wb55/xtimer/xtimer_core.o
 .debug_info    0x000000000002c306     0x2a88 /home/ch/RIOT/tests/driver_scd30/bin/p-nucleo-wb55/xtimer/xtimer.o
 .debug_info    0x000000000002ed8e       0x26 /usr/lib/gcc/arm-none-eabi/9.2.1/thumb/v7e-m/nofp/libgcc.a(_arm_addsubdf3.o)
 .debug_info    0x000000000002edb4       0x26 /usr/lib/gcc/arm-none-eabi/9.2.1/thumb/v7e-m/nofp/libgcc.a(_aeabi_uldivmod.o)
 .debug_info    0x000000000002edda      0xd7c /usr/lib/gcc/arm-none-eabi/9.2.1/thumb/v7e-m/nofp/libgcc.a(_udivmoddi4.o)
 .debug_info    0x000000000002fb56       0x26 /usr/lib/gcc/arm-none-eabi/9.2.1/thumb/v7e-m/nofp/libgcc.a(_dvmd_tls.o)
 .debug_info    0x000000000002fb7c      0x92a /usr/lib/gcc/arm-none-eabi/9.2.1/../../../arm-none-eabi/lib/thumb/v7e-m/nofp/libc_nano.a(lib_a-impure.o)
 .debug_info    0x00000000000304a6      0x11a /usr/lib/gcc/arm-none-eabi/9.2.1/../../../arm-none-eabi/lib/thumb/v7e-m/nofp/libc_nano.a(lib_a-init.o)
 .debug_info    0x00000000000305c0      0x9b6 /usr/lib/gcc/arm-none-eabi/9.2.1/../../../arm-none-eabi/lib/thumb/v7e-m/nofp/libc_nano.a(lib_a-malloc.o)
 .debug_info    0x0000000000030f76       0x26 /usr/lib/gcc/arm-none-eabi/9.2.1/../../../arm-none-eabi/lib/thumb/v7e-m/nofp/libc_nano.a(lib_a-memcpy.o)
 .debug_info    0x0000000000030f9c      0xf21 /usr/lib/gcc/arm-none-eabi/9.2.1/../../../arm-none-eabi/lib/thumb/v7e-m/nofp/libc_nano.a(lib_a-memset.o)
 .debug_info    0x0000000000031ebd      0xb85 /usr/lib/gcc/arm-none-eabi/9.2.1/../../../arm-none-eabi/lib/thumb/v7e-m/nofp/libc_nano.a(lib_a-nano-freer.o)
 .debug_info    0x0000000000032a42      0xc5a /usr/lib/gcc/arm-none-eabi/9.2.1/../../../arm-none-eabi/lib/thumb/v7e-m/nofp/libc_nano.a(lib_a-nano-mallocr.o)
 .debug_info    0x000000000003369c     0x1adb /usr/lib/gcc/arm-none-eabi/9.2.1/../../../arm-none-eabi/lib/thumb/v7e-m/nofp/libc_nano.a(lib_a-nano-vfprintf_float.o)
 .debug_info    0x0000000000035177     0x1592 /usr/lib/gcc/arm-none-eabi/9.2.1/../../../arm-none-eabi/lib/thumb/v7e-m/nofp/libc_nano.a(lib_a-nano-vfprintf_i.o)
 .debug_info    0x0000000000036709      0xc67 /usr/lib/gcc/arm-none-eabi/9.2.1/../../../arm-none-eabi/lib/thumb/v7e-m/nofp/libc_nano.a(lib_a-printf.o)
 .debug_info    0x0000000000037370      0xd13 /usr/lib/gcc/arm-none-eabi/9.2.1/../../../arm-none-eabi/lib/thumb/v7e-m/nofp/libc_nano.a(lib_a-puts.o)
 .debug_info    0x0000000000038083       0x26 /usr/lib/gcc/arm-none-eabi/9.2.1/../../../arm-none-eabi/lib/thumb/v7e-m/nofp/libc_nano.a(lib_a-strlen.o)
 .debug_info    0x00000000000380a9      0xc90 /usr/lib/gcc/arm-none-eabi/9.2.1/../../../arm-none-eabi/lib/thumb/v7e-m/nofp/libc_nano.a(lib_a-wbuf.o)
 .debug_info    0x0000000000038d39      0xbfa /usr/lib/gcc/arm-none-eabi/9.2.1/../../../arm-none-eabi/lib/thumb/v7e-m/nofp/libc_nano.a(lib_a-wsetup.o)
 .debug_info    0x0000000000039933     0x1b3c /usr/lib/gcc/arm-none-eabi/9.2.1/../../../arm-none-eabi/lib/thumb/v7e-m/nofp/libc_nano.a(lib_a-dtoa.o)
 .debug_info    0x000000000003b46f      0xd73 /usr/lib/gcc/arm-none-eabi/9.2.1/../../../arm-none-eabi/lib/thumb/v7e-m/nofp/libc_nano.a(lib_a-fflush.o)
 .debug_info    0x000000000003c1e2     0x11a8 /usr/lib/gcc/arm-none-eabi/9.2.1/../../../arm-none-eabi/lib/thumb/v7e-m/nofp/libc_nano.a(lib_a-findfp.o)
 .debug_info    0x000000000003d38a      0xa7a /usr/lib/gcc/arm-none-eabi/9.2.1/../../../arm-none-eabi/lib/thumb/v7e-m/nofp/libc_nano.a(lib_a-fprintf.o)
 .debug_info    0x000000000003de04      0xca4 /usr/lib/gcc/arm-none-eabi/9.2.1/../../../arm-none-eabi/lib/thumb/v7e-m/nofp/libc_nano.a(lib_a-fwalk.o)
 .debug_info    0x000000000003eaa8      0xf49 /usr/lib/gcc/arm-none-eabi/9.2.1/../../../arm-none-eabi/lib/thumb/v7e-m/nofp/libc_nano.a(lib_a-localeconv.o)
 .debug_info    0x000000000003f9f1      0xf68 /usr/lib/gcc/arm-none-eabi/9.2.1/../../../arm-none-eabi/lib/thumb/v7e-m/nofp/libc_nano.a(lib_a-makebuf.o)
 .debug_info    0x0000000000040959       0x26 /usr/lib/gcc/arm-none-eabi/9.2.1/../../../arm-none-eabi/lib/thumb/v7e-m/nofp/libc_nano.a(lib_a-memchr.o)
 .debug_info    0x000000000004097f      0x961 /usr/lib/gcc/arm-none-eabi/9.2.1/../../../arm-none-eabi/lib/thumb/v7e-m/nofp/libc_nano.a(lib_a-mlock.o)
 .debug_info    0x00000000000412e0     0x240f /usr/lib/gcc/arm-none-eabi/9.2.1/../../../arm-none-eabi/lib/thumb/v7e-m/nofp/libc_nano.a(lib_a-mprec.o)
 .debug_info    0x00000000000436ef      0xafe /usr/lib/gcc/arm-none-eabi/9.2.1/../../../arm-none-eabi/lib/thumb/v7e-m/nofp/libc_nano.a(lib_a-nano-callocr.o)
 .debug_info    0x00000000000441ed      0xb77 /usr/lib/gcc/arm-none-eabi/9.2.1/../../../arm-none-eabi/lib/thumb/v7e-m/nofp/libc_nano.a(lib_a-nano-reallocr.o)
 .debug_info    0x0000000000044d64     0x176a /usr/lib/gcc/arm-none-eabi/9.2.1/../../../arm-none-eabi/lib/thumb/v7e-m/nofp/libc_nano.a(lib_a-nano-vfprintf.o)
 .debug_info    0x00000000000464ce      0xe67 /usr/lib/gcc/arm-none-eabi/9.2.1/../../../arm-none-eabi/lib/thumb/v7e-m/nofp/libc_nano.a(lib_a-stdio.o)
 .debug_info    0x0000000000047335      0xa41 /usr/lib/gcc/arm-none-eabi/9.2.1/../../../arm-none-eabi/lib/thumb/v7e-m/nofp/libc_nano.a(lib_a-assert.o)
 .debug_info    0x0000000000047d76      0xeed /usr/lib/gcc/arm-none-eabi/9.2.1/../../../arm-none-eabi/lib/thumb/v7e-m/nofp/libc_nano.a(lib_a-fvwrite.o)
 .debug_info    0x0000000000048c63     0x10ca /usr/lib/gcc/arm-none-eabi/9.2.1/../../../arm-none-eabi/lib/thumb/v7e-m/nofp/libc_nano.a(lib_a-locale.o)
 .debug_info    0x0000000000049d2d     0x1044 /usr/lib/gcc/arm-none-eabi/9.2.1/../../../arm-none-eabi/lib/thumb/v7e-m/nofp/libc_nano.a(lib_a-mbtowc_r.o)
 .debug_info    0x000000000004ad71      0xf2b /usr/lib/gcc/arm-none-eabi/9.2.1/../../../arm-none-eabi/lib/thumb/v7e-m/nofp/libc_nano.a(lib_a-memmove.o)
 .debug_info    0x000000000004bc9c      0xaa6 /usr/lib/gcc/arm-none-eabi/9.2.1/../../../arm-none-eabi/lib/thumb/v7e-m/nofp/libc_nano.a(lib_a-nano-msizer.o)
 .debug_info    0x000000000004c742      0xffd /usr/lib/gcc/arm-none-eabi/9.2.1/../../../arm-none-eabi/lib/thumb/v7e-m/nofp/libc_nano.a(lib_a-wctomb_r.o)
 .debug_info    0x000000000004d73f      0x9b5 /usr/lib/gcc/arm-none-eabi/9.2.1/../../../arm-none-eabi/lib/thumb/v7e-m/nofp/libc_nano.a(lib_a-abort.o)
 .debug_info    0x000000000004e0f4      0xe91 /usr/lib/gcc/arm-none-eabi/9.2.1/../../../arm-none-eabi/lib/thumb/v7e-m/nofp/libc_nano.a(lib_a-ctype_.o)
 .debug_info    0x000000000004ef85      0xd5c /usr/lib/gcc/arm-none-eabi/9.2.1/../../../arm-none-eabi/lib/thumb/v7e-m/nofp/libc_nano.a(lib_a-signal.o)
 .debug_info    0x000000000004fce1       0x26 /usr/lib/gcc/arm-none-eabi/9.2.1/thumb/v7e-m/nofp/libgcc.a(_arm_muldivdf3.o)
 .debug_info    0x000000000004fd07       0x26 /usr/lib/gcc/arm-none-eabi/9.2.1/thumb/v7e-m/nofp/libgcc.a(_arm_cmpdf2.o)
 .debug_info    0x000000000004fd2d       0x26 /usr/lib/gcc/arm-none-eabi/9.2.1/thumb/v7e-m/nofp/libgcc.a(_arm_unorddf2.o)
 .debug_info    0x000000000004fd53       0x26 /usr/lib/gcc/arm-none-eabi/9.2.1/thumb/v7e-m/nofp/libgcc.a(_arm_fixdfsi.o)

.debug_abbrev   0x0000000000000000     0xccf1
 .debug_abbrev  0x0000000000000000      0x37e /home/ch/RIOT/tests/driver_scd30/bin/p-nucleo-wb55/application_tests_driver_scd30/main.o
 .debug_abbrev  0x000000000000037e      0x231 /home/ch/RIOT/tests/driver_scd30/bin/p-nucleo-wb55/auto_init/auto_init.o
 .debug_abbrev  0x00000000000005af      0x2d4 /home/ch/RIOT/tests/driver_scd30/bin/p-nucleo-wb55/boards_common_nucleo/board_common_nucleo_init.o
 .debug_abbrev  0x0000000000000883       0xc7 /home/ch/RIOT/tests/driver_scd30/bin/p-nucleo-wb55/checksum/crc8.o
 .debug_abbrev  0x000000000000094a      0x32c /home/ch/RIOT/tests/driver_scd30/bin/p-nucleo-wb55/core/init.o
 .debug_abbrev  0x0000000000000c76      0x40d /home/ch/RIOT/tests/driver_scd30/bin/p-nucleo-wb55/core/mutex.o
 .debug_abbrev  0x0000000000001083      0x364 /home/ch/RIOT/tests/driver_scd30/bin/p-nucleo-wb55/core/panic.o
 .debug_abbrev  0x00000000000013e7      0x4d7 /home/ch/RIOT/tests/driver_scd30/bin/p-nucleo-wb55/core/sched.o
 .debug_abbrev  0x00000000000018be      0x532 /home/ch/RIOT/tests/driver_scd30/bin/p-nucleo-wb55/core/thread.o
 .debug_abbrev  0x0000000000001df0      0x3b5 /home/ch/RIOT/tests/driver_scd30/bin/p-nucleo-wb55/cortexm_common/cortexm_init.o
 .debug_abbrev  0x00000000000021a5      0x2fe /home/ch/RIOT/tests/driver_scd30/bin/p-nucleo-wb55/cortexm_common/panic.o
 .debug_abbrev  0x00000000000024a3      0x48e /home/ch/RIOT/tests/driver_scd30/bin/p-nucleo-wb55/cortexm_common/thread_arch.o
 .debug_abbrev  0x0000000000002931      0x4a6 /home/ch/RIOT/tests/driver_scd30/bin/p-nucleo-wb55/cortexm_common/vectors_cortexm.o
 .debug_abbrev  0x0000000000002dd7      0x37d /home/ch/RIOT/tests/driver_scd30/bin/p-nucleo-wb55/cpu/cpu_common.o
 .debug_abbrev  0x0000000000003154      0x2ee /home/ch/RIOT/tests/driver_scd30/bin/p-nucleo-wb55/cpu/cpu_init.o
 .debug_abbrev  0x0000000000003442      0x3f1 /home/ch/RIOT/tests/driver_scd30/bin/p-nucleo-wb55/malloc_thread_safe/malloc_wrappers.o
 .debug_abbrev  0x0000000000003833      0x55e /home/ch/RIOT/tests/driver_scd30/bin/p-nucleo-wb55/newlib_syscalls_default/syscalls.o
 .debug_abbrev  0x0000000000003d91      0x2d3 /home/ch/RIOT/tests/driver_scd30/bin/p-nucleo-wb55/periph_common/init.o
 .debug_abbrev  0x0000000000004064      0x3ee /home/ch/RIOT/tests/driver_scd30/bin/p-nucleo-wb55/periph/gpio_all.o
 .debug_abbrev  0x0000000000004452      0x5a8 /home/ch/RIOT/tests/driver_scd30/bin/p-nucleo-wb55/periph/i2c_1.o
 .debug_abbrev  0x00000000000049fa      0x3cc /home/ch/RIOT/tests/driver_scd30/bin/p-nucleo-wb55/periph/pm.o
 .debug_abbrev  0x0000000000004dc6      0x47e /home/ch/RIOT/tests/driver_scd30/bin/p-nucleo-wb55/periph/timer.o
 .debug_abbrev  0x0000000000005244      0x52b /home/ch/RIOT/tests/driver_scd30/bin/p-nucleo-wb55/periph/uart.o
 .debug_abbrev  0x000000000000576f      0x3a1 /home/ch/RIOT/tests/driver_scd30/bin/p-nucleo-wb55/pm_layered/pm.o
 .debug_abbrev  0x0000000000005b10      0x523 /home/ch/RIOT/tests/driver_scd30/bin/p-nucleo-wb55/scd30/scd30.o
 .debug_abbrev  0x0000000000006033      0x344 /home/ch/RIOT/tests/driver_scd30/bin/p-nucleo-wb55/stdio_uart/stdio_uart.o
 .debug_abbrev  0x0000000000006377      0x2fb /home/ch/RIOT/tests/driver_scd30/bin/p-nucleo-wb55/stm32_clk/stmclk_common.o
 .debug_abbrev  0x0000000000006672      0x39b /home/ch/RIOT/tests/driver_scd30/bin/p-nucleo-wb55/stm32_clk/stmclk_l4wx.o
 .debug_abbrev  0x0000000000006a0d       0xf4 /home/ch/RIOT/tests/driver_scd30/bin/p-nucleo-wb55/stm32_vectors/STM32WB55xx.o
 .debug_abbrev  0x0000000000006b01      0x541 /home/ch/RIOT/tests/driver_scd30/bin/p-nucleo-wb55/xtimer/xtimer_core.o
 .debug_abbrev  0x0000000000007042      0x553 /home/ch/RIOT/tests/driver_scd30/bin/p-nucleo-wb55/xtimer/xtimer.o
 .debug_abbrev  0x0000000000007595       0x14 /usr/lib/gcc/arm-none-eabi/9.2.1/thumb/v7e-m/nofp/libgcc.a(_arm_addsubdf3.o)
 .debug_abbrev  0x00000000000075a9       0x14 /usr/lib/gcc/arm-none-eabi/9.2.1/thumb/v7e-m/nofp/libgcc.a(_aeabi_uldivmod.o)
 .debug_abbrev  0x00000000000075bd      0x1c2 /usr/lib/gcc/arm-none-eabi/9.2.1/thumb/v7e-m/nofp/libgcc.a(_udivmoddi4.o)
 .debug_abbrev  0x000000000000777f       0x14 /usr/lib/gcc/arm-none-eabi/9.2.1/thumb/v7e-m/nofp/libgcc.a(_dvmd_tls.o)
 .debug_abbrev  0x0000000000007793      0x17a /usr/lib/gcc/arm-none-eabi/9.2.1/../../../arm-none-eabi/lib/thumb/v7e-m/nofp/libc_nano.a(lib_a-impure.o)
 .debug_abbrev  0x000000000000790d       0xcc /usr/lib/gcc/arm-none-eabi/9.2.1/../../../arm-none-eabi/lib/thumb/v7e-m/nofp/libc_nano.a(lib_a-init.o)
 .debug_abbrev  0x00000000000079d9      0x1f2 /usr/lib/gcc/arm-none-eabi/9.2.1/../../../arm-none-eabi/lib/thumb/v7e-m/nofp/libc_nano.a(lib_a-malloc.o)
 .debug_abbrev  0x0000000000007bcb       0x14 /usr/lib/gcc/arm-none-eabi/9.2.1/../../../arm-none-eabi/lib/thumb/v7e-m/nofp/libc_nano.a(lib_a-memcpy.o)
 .debug_abbrev  0x0000000000007bdf      0x1d9 /usr/lib/gcc/arm-none-eabi/9.2.1/../../../arm-none-eabi/lib/thumb/v7e-m/nofp/libc_nano.a(lib_a-memset.o)
 .debug_abbrev  0x0000000000007db8      0x286 /usr/lib/gcc/arm-none-eabi/9.2.1/../../../arm-none-eabi/lib/thumb/v7e-m/nofp/libc_nano.a(lib_a-nano-freer.o)
 .debug_abbrev  0x000000000000803e      0x2d1 /usr/lib/gcc/arm-none-eabi/9.2.1/../../../arm-none-eabi/lib/thumb/v7e-m/nofp/libc_nano.a(lib_a-nano-mallocr.o)
 .debug_abbrev  0x000000000000830f      0x351 /usr/lib/gcc/arm-none-eabi/9.2.1/../../../arm-none-eabi/lib/thumb/v7e-m/nofp/libc_nano.a(lib_a-nano-vfprintf_float.o)
 .debug_abbrev  0x0000000000008660      0x2dc /usr/lib/gcc/arm-none-eabi/9.2.1/../../../arm-none-eabi/lib/thumb/v7e-m/nofp/libc_nano.a(lib_a-nano-vfprintf_i.o)
 .debug_abbrev  0x000000000000893c      0x29f /usr/lib/gcc/arm-none-eabi/9.2.1/../../../arm-none-eabi/lib/thumb/v7e-m/nofp/libc_nano.a(lib_a-printf.o)
 .debug_abbrev  0x0000000000008bdb      0x2de /usr/lib/gcc/arm-none-eabi/9.2.1/../../../arm-none-eabi/lib/thumb/v7e-m/nofp/libc_nano.a(lib_a-puts.o)
 .debug_abbrev  0x0000000000008eb9       0x14 /usr/lib/gcc/arm-none-eabi/9.2.1/../../../arm-none-eabi/lib/thumb/v7e-m/nofp/libc_nano.a(lib_a-strlen.o)
 .debug_abbrev  0x0000000000008ecd      0x285 /usr/lib/gcc/arm-none-eabi/9.2.1/../../../arm-none-eabi/lib/thumb/v7e-m/nofp/libc_nano.a(lib_a-wbuf.o)
 .debug_abbrev  0x0000000000009152      0x23a /usr/lib/gcc/arm-none-eabi/9.2.1/../../../arm-none-eabi/lib/thumb/v7e-m/nofp/libc_nano.a(lib_a-wsetup.o)
 .debug_abbrev  0x000000000000938c      0x310 /usr/lib/gcc/arm-none-eabi/9.2.1/../../../arm-none-eabi/lib/thumb/v7e-m/nofp/libc_nano.a(lib_a-dtoa.o)
 .debug_abbrev  0x000000000000969c      0x2e4 /usr/lib/gcc/arm-none-eabi/9.2.1/../../../arm-none-eabi/lib/thumb/v7e-m/nofp/libc_nano.a(lib_a-fflush.o)
 .debug_abbrev  0x0000000000009980      0x3dc /usr/lib/gcc/arm-none-eabi/9.2.1/../../../arm-none-eabi/lib/thumb/v7e-m/nofp/libc_nano.a(lib_a-findfp.o)
 .debug_abbrev  0x0000000000009d5c      0x23c /usr/lib/gcc/arm-none-eabi/9.2.1/../../../arm-none-eabi/lib/thumb/v7e-m/nofp/libc_nano.a(lib_a-fprintf.o)
 .debug_abbrev  0x0000000000009f98      0x210 /usr/lib/gcc/arm-none-eabi/9.2.1/../../../arm-none-eabi/lib/thumb/v7e-m/nofp/libc_nano.a(lib_a-fwalk.o)
 .debug_abbrev  0x000000000000a1a8      0x23f /usr/lib/gcc/arm-none-eabi/9.2.1/../../../arm-none-eabi/lib/thumb/v7e-m/nofp/libc_nano.a(lib_a-localeconv.o)
 .debug_abbrev  0x000000000000a3e7      0x2f6 /usr/lib/gcc/arm-none-eabi/9.2.1/../../../arm-none-eabi/lib/thumb/v7e-m/nofp/libc_nano.a(lib_a-makebuf.o)
 .debug_abbrev  0x000000000000a6dd       0x14 /usr/lib/gcc/arm-none-eabi/9.2.1/../../../arm-none-eabi/lib/thumb/v7e-m/nofp/libc_nano.a(lib_a-memchr.o)
 .debug_abbrev  0x000000000000a6f1      0x1c5 /usr/lib/gcc/arm-none-eabi/9.2.1/../../../arm-none-eabi/lib/thumb/v7e-m/nofp/libc_nano.a(lib_a-mlock.o)
 .debug_abbrev  0x000000000000a8b6      0x474 /usr/lib/gcc/arm-none-eabi/9.2.1/../../../arm-none-eabi/lib/thumb/v7e-m/nofp/libc_nano.a(lib_a-mprec.o)
 .debug_abbrev  0x000000000000ad2a      0x20d /usr/lib/gcc/arm-none-eabi/9.2.1/../../../arm-none-eabi/lib/thumb/v7e-m/nofp/libc_nano.a(lib_a-nano-callocr.o)
 .debug_abbrev  0x000000000000af37      0x22a /usr/lib/gcc/arm-none-eabi/9.2.1/../../../arm-none-eabi/lib/thumb/v7e-m/nofp/libc_nano.a(lib_a-nano-reallocr.o)
 .debug_abbrev  0x000000000000b161      0x337 /usr/lib/gcc/arm-none-eabi/9.2.1/../../../arm-none-eabi/lib/thumb/v7e-m/nofp/libc_nano.a(lib_a-nano-vfprintf.o)
 .debug_abbrev  0x000000000000b498      0x26f /usr/lib/gcc/arm-none-eabi/9.2.1/../../../arm-none-eabi/lib/thumb/v7e-m/nofp/libc_nano.a(lib_a-stdio.o)
 .debug_abbrev  0x000000000000b707      0x1ff /usr/lib/gcc/arm-none-eabi/9.2.1/../../../arm-none-eabi/lib/thumb/v7e-m/nofp/libc_nano.a(lib_a-assert.o)
 .debug_abbrev  0x000000000000b906      0x270 /usr/lib/gcc/arm-none-eabi/9.2.1/../../../arm-none-eabi/lib/thumb/v7e-m/nofp/libc_nano.a(lib_a-fvwrite.o)
 .debug_abbrev  0x000000000000bb76      0x2aa /usr/lib/gcc/arm-none-eabi/9.2.1/../../../arm-none-eabi/lib/thumb/v7e-m/nofp/libc_nano.a(lib_a-locale.o)
 .debug_abbrev  0x000000000000be20      0x221 /usr/lib/gcc/arm-none-eabi/9.2.1/../../../arm-none-eabi/lib/thumb/v7e-m/nofp/libc_nano.a(lib_a-mbtowc_r.o)
 .debug_abbrev  0x000000000000c041      0x1de /usr/lib/gcc/arm-none-eabi/9.2.1/../../../arm-none-eabi/lib/thumb/v7e-m/nofp/libc_nano.a(lib_a-memmove.o)
 .debug_abbrev  0x000000000000c21f      0x1e5 /usr/lib/gcc/arm-none-eabi/9.2.1/../../../arm-none-eabi/lib/thumb/v7e-m/nofp/libc_nano.a(lib_a-nano-msizer.o)
 .debug_abbrev  0x000000000000c404      0x22b /usr/lib/gcc/arm-none-eabi/9.2.1/../../../arm-none-eabi/lib/thumb/v7e-m/nofp/libc_nano.a(lib_a-wctomb_r.o)
 .debug_abbrev  0x000000000000c62f      0x1cd /usr/lib/gcc/arm-none-eabi/9.2.1/../../../arm-none-eabi/lib/thumb/v7e-m/nofp/libc_nano.a(lib_a-abort.o)
 .debug_abbrev  0x000000000000c7fc      0x178 /usr/lib/gcc/arm-none-eabi/9.2.1/../../../arm-none-eabi/lib/thumb/v7e-m/nofp/libc_nano.a(lib_a-ctype_.o)
 .debug_abbrev  0x000000000000c974      0x32d /usr/lib/gcc/arm-none-eabi/9.2.1/../../../arm-none-eabi/lib/thumb/v7e-m/nofp/libc_nano.a(lib_a-signal.o)
 .debug_abbrev  0x000000000000cca1       0x14 /usr/lib/gcc/arm-none-eabi/9.2.1/thumb/v7e-m/nofp/libgcc.a(_arm_muldivdf3.o)
 .debug_abbrev  0x000000000000ccb5       0x14 /usr/lib/gcc/arm-none-eabi/9.2.1/thumb/v7e-m/nofp/libgcc.a(_arm_cmpdf2.o)
 .debug_abbrev  0x000000000000ccc9       0x14 /usr/lib/gcc/arm-none-eabi/9.2.1/thumb/v7e-m/nofp/libgcc.a(_arm_unorddf2.o)
 .debug_abbrev  0x000000000000ccdd       0x14 /usr/lib/gcc/arm-none-eabi/9.2.1/thumb/v7e-m/nofp/libgcc.a(_arm_fixdfsi.o)

.debug_loc      0x0000000000000000    0x12394
 .debug_loc     0x0000000000000000      0x122 /home/ch/RIOT/tests/driver_scd30/bin/p-nucleo-wb55/application_tests_driver_scd30/main.o
 .debug_loc     0x0000000000000122       0x2a /home/ch/RIOT/tests/driver_scd30/bin/p-nucleo-wb55/boards_common_nucleo/board_common_nucleo_init.o
 .debug_loc     0x000000000000014c      0x10d /home/ch/RIOT/tests/driver_scd30/bin/p-nucleo-wb55/checksum/crc8.o
 .debug_loc     0x0000000000000259       0x4f /home/ch/RIOT/tests/driver_scd30/bin/p-nucleo-wb55/core/init.o
 .debug_loc     0x00000000000002a8      0x7d2 /home/ch/RIOT/tests/driver_scd30/bin/p-nucleo-wb55/core/mutex.o
 .debug_loc     0x0000000000000a7a       0x86 /home/ch/RIOT/tests/driver_scd30/bin/p-nucleo-wb55/core/panic.o
 .debug_loc     0x0000000000000b00      0x2ca /home/ch/RIOT/tests/driver_scd30/bin/p-nucleo-wb55/core/sched.o
 .debug_loc     0x0000000000000dca      0xb20 /home/ch/RIOT/tests/driver_scd30/bin/p-nucleo-wb55/core/thread.o
 .debug_loc     0x00000000000018ea      0x194 /home/ch/RIOT/tests/driver_scd30/bin/p-nucleo-wb55/cortexm_common/cortexm_init.o
 .debug_loc     0x0000000000001a7e       0x63 /home/ch/RIOT/tests/driver_scd30/bin/p-nucleo-wb55/cortexm_common/panic.o
 .debug_loc     0x0000000000001ae1      0x243 /home/ch/RIOT/tests/driver_scd30/bin/p-nucleo-wb55/cortexm_common/thread_arch.o
 .debug_loc     0x0000000000001d24      0x443 /home/ch/RIOT/tests/driver_scd30/bin/p-nucleo-wb55/cortexm_common/vectors_cortexm.o
 .debug_loc     0x0000000000002167      0x1f5 /home/ch/RIOT/tests/driver_scd30/bin/p-nucleo-wb55/cpu/cpu_common.o
 .debug_loc     0x000000000000235c       0x2a /home/ch/RIOT/tests/driver_scd30/bin/p-nucleo-wb55/cpu/cpu_init.o
 .debug_loc     0x0000000000002386      0x2cc /home/ch/RIOT/tests/driver_scd30/bin/p-nucleo-wb55/malloc_thread_safe/malloc_wrappers.o
 .debug_loc     0x0000000000002652      0x6af /home/ch/RIOT/tests/driver_scd30/bin/p-nucleo-wb55/newlib_syscalls_default/syscalls.o
 .debug_loc     0x0000000000002d01       0x2a /home/ch/RIOT/tests/driver_scd30/bin/p-nucleo-wb55/periph_common/init.o
 .debug_loc     0x0000000000002d2b      0x504 /home/ch/RIOT/tests/driver_scd30/bin/p-nucleo-wb55/periph/gpio_all.o
 .debug_loc     0x000000000000322f      0xf04 /home/ch/RIOT/tests/driver_scd30/bin/p-nucleo-wb55/periph/i2c_1.o
 .debug_loc     0x0000000000004133      0x143 /home/ch/RIOT/tests/driver_scd30/bin/p-nucleo-wb55/periph/pm.o
 .debug_loc     0x0000000000004276      0x432 /home/ch/RIOT/tests/driver_scd30/bin/p-nucleo-wb55/periph/timer.o
 .debug_loc     0x00000000000046a8      0x5f0 /home/ch/RIOT/tests/driver_scd30/bin/p-nucleo-wb55/periph/uart.o
 .debug_loc     0x0000000000004c98      0x26c /home/ch/RIOT/tests/driver_scd30/bin/p-nucleo-wb55/pm_layered/pm.o
 .debug_loc     0x0000000000004f04      0x814 /home/ch/RIOT/tests/driver_scd30/bin/p-nucleo-wb55/scd30/scd30.o
 .debug_loc     0x0000000000005718       0xb0 /home/ch/RIOT/tests/driver_scd30/bin/p-nucleo-wb55/stdio_uart/stdio_uart.o
 .debug_loc     0x00000000000057c8       0x2a /home/ch/RIOT/tests/driver_scd30/bin/p-nucleo-wb55/stm32_clk/stmclk_common.o
 .debug_loc     0x00000000000057f2       0x93 /home/ch/RIOT/tests/driver_scd30/bin/p-nucleo-wb55/stm32_clk/stmclk_l4wx.o
 .debug_loc     0x0000000000005885      0x713 /home/ch/RIOT/tests/driver_scd30/bin/p-nucleo-wb55/xtimer/xtimer_core.o
 .debug_loc     0x0000000000005f98      0xddc /home/ch/RIOT/tests/driver_scd30/bin/p-nucleo-wb55/xtimer/xtimer.o
 .debug_loc     0x0000000000006d74      0xf8a /usr/lib/gcc/arm-none-eabi/9.2.1/thumb/v7e-m/nofp/libgcc.a(_udivmoddi4.o)
 .debug_loc     0x0000000000007cfe       0xba /usr/lib/gcc/arm-none-eabi/9.2.1/../../../arm-none-eabi/lib/thumb/v7e-m/nofp/libc_nano.a(lib_a-init.o)
 .debug_loc     0x0000000000007db8       0x64 /usr/lib/gcc/arm-none-eabi/9.2.1/../../../arm-none-eabi/lib/thumb/v7e-m/nofp/libc_nano.a(lib_a-malloc.o)
 .debug_loc     0x0000000000007e1c      0x231 /usr/lib/gcc/arm-none-eabi/9.2.1/../../../arm-none-eabi/lib/thumb/v7e-m/nofp/libc_nano.a(lib_a-memset.o)
 .debug_loc     0x000000000000804d      0x211 /usr/lib/gcc/arm-none-eabi/9.2.1/../../../arm-none-eabi/lib/thumb/v7e-m/nofp/libc_nano.a(lib_a-nano-freer.o)
 .debug_loc     0x000000000000825e      0x437 /usr/lib/gcc/arm-none-eabi/9.2.1/../../../arm-none-eabi/lib/thumb/v7e-m/nofp/libc_nano.a(lib_a-nano-mallocr.o)
 .debug_loc     0x0000000000008695      0x9f0 /usr/lib/gcc/arm-none-eabi/9.2.1/../../../arm-none-eabi/lib/thumb/v7e-m/nofp/libc_nano.a(lib_a-nano-vfprintf_float.o)
 .debug_loc     0x0000000000009085      0x7ab /usr/lib/gcc/arm-none-eabi/9.2.1/../../../arm-none-eabi/lib/thumb/v7e-m/nofp/libc_nano.a(lib_a-nano-vfprintf_i.o)
 .debug_loc     0x0000000000009830       0x98 /usr/lib/gcc/arm-none-eabi/9.2.1/../../../arm-none-eabi/lib/thumb/v7e-m/nofp/libc_nano.a(lib_a-printf.o)
 .debug_loc     0x00000000000098c8      0x32d /usr/lib/gcc/arm-none-eabi/9.2.1/../../../arm-none-eabi/lib/thumb/v7e-m/nofp/libc_nano.a(lib_a-puts.o)
 .debug_loc     0x0000000000009bf5      0x193 /usr/lib/gcc/arm-none-eabi/9.2.1/../../../arm-none-eabi/lib/thumb/v7e-m/nofp/libc_nano.a(lib_a-wbuf.o)
 .debug_loc     0x0000000000009d88       0xb7 /usr/lib/gcc/arm-none-eabi/9.2.1/../../../arm-none-eabi/lib/thumb/v7e-m/nofp/libc_nano.a(lib_a-wsetup.o)
 .debug_loc     0x0000000000009e3f     0x32ee /usr/lib/gcc/arm-none-eabi/9.2.1/../../../arm-none-eabi/lib/thumb/v7e-m/nofp/libc_nano.a(lib_a-dtoa.o)
 .debug_loc     0x000000000000d12d      0x3f5 /usr/lib/gcc/arm-none-eabi/9.2.1/../../../arm-none-eabi/lib/thumb/v7e-m/nofp/libc_nano.a(lib_a-fflush.o)
 .debug_loc     0x000000000000d522      0x339 /usr/lib/gcc/arm-none-eabi/9.2.1/../../../arm-none-eabi/lib/thumb/v7e-m/nofp/libc_nano.a(lib_a-findfp.o)
 .debug_loc     0x000000000000d85b       0xa6 /usr/lib/gcc/arm-none-eabi/9.2.1/../../../arm-none-eabi/lib/thumb/v7e-m/nofp/libc_nano.a(lib_a-fprintf.o)
 .debug_loc     0x000000000000d901      0x24f /usr/lib/gcc/arm-none-eabi/9.2.1/../../../arm-none-eabi/lib/thumb/v7e-m/nofp/libc_nano.a(lib_a-fwalk.o)
 .debug_loc     0x000000000000db50       0x6f /usr/lib/gcc/arm-none-eabi/9.2.1/../../../arm-none-eabi/lib/thumb/v7e-m/nofp/libc_nano.a(lib_a-localeconv.o)
 .debug_loc     0x000000000000dbbf      0x192 /usr/lib/gcc/arm-none-eabi/9.2.1/../../../arm-none-eabi/lib/thumb/v7e-m/nofp/libc_nano.a(lib_a-makebuf.o)
 .debug_loc     0x000000000000dd51     0x23cd /usr/lib/gcc/arm-none-eabi/9.2.1/../../../arm-none-eabi/lib/thumb/v7e-m/nofp/libc_nano.a(lib_a-mprec.o)
 .debug_loc     0x000000000001011e       0x91 /usr/lib/gcc/arm-none-eabi/9.2.1/../../../arm-none-eabi/lib/thumb/v7e-m/nofp/libc_nano.a(lib_a-nano-callocr.o)
 .debug_loc     0x00000000000101af      0x133 /usr/lib/gcc/arm-none-eabi/9.2.1/../../../arm-none-eabi/lib/thumb/v7e-m/nofp/libc_nano.a(lib_a-nano-reallocr.o)
 .debug_loc     0x00000000000102e2      0x7a3 /usr/lib/gcc/arm-none-eabi/9.2.1/../../../arm-none-eabi/lib/thumb/v7e-m/nofp/libc_nano.a(lib_a-nano-vfprintf.o)
 .debug_loc     0x0000000000010a85      0x393 /usr/lib/gcc/arm-none-eabi/9.2.1/../../../arm-none-eabi/lib/thumb/v7e-m/nofp/libc_nano.a(lib_a-stdio.o)
 .debug_loc     0x0000000000010e18      0x15c /usr/lib/gcc/arm-none-eabi/9.2.1/../../../arm-none-eabi/lib/thumb/v7e-m/nofp/libc_nano.a(lib_a-assert.o)
 .debug_loc     0x0000000000010f74      0x669 /usr/lib/gcc/arm-none-eabi/9.2.1/../../../arm-none-eabi/lib/thumb/v7e-m/nofp/libc_nano.a(lib_a-fvwrite.o)
 .debug_loc     0x00000000000115dd      0x189 /usr/lib/gcc/arm-none-eabi/9.2.1/../../../arm-none-eabi/lib/thumb/v7e-m/nofp/libc_nano.a(lib_a-locale.o)
 .debug_loc     0x0000000000011766      0x21d /usr/lib/gcc/arm-none-eabi/9.2.1/../../../arm-none-eabi/lib/thumb/v7e-m/nofp/libc_nano.a(lib_a-mbtowc_r.o)
 .debug_loc     0x0000000000011983      0x2f1 /usr/lib/gcc/arm-none-eabi/9.2.1/../../../arm-none-eabi/lib/thumb/v7e-m/nofp/libc_nano.a(lib_a-memmove.o)
 .debug_loc     0x0000000000011c74       0x86 /usr/lib/gcc/arm-none-eabi/9.2.1/../../../arm-none-eabi/lib/thumb/v7e-m/nofp/libc_nano.a(lib_a-nano-msizer.o)
 .debug_loc     0x0000000000011cfa      0x13a /usr/lib/gcc/arm-none-eabi/9.2.1/../../../arm-none-eabi/lib/thumb/v7e-m/nofp/libc_nano.a(lib_a-wctomb_r.o)
 .debug_loc     0x0000000000011e34      0x560 /usr/lib/gcc/arm-none-eabi/9.2.1/../../../arm-none-eabi/lib/thumb/v7e-m/nofp/libc_nano.a(lib_a-signal.o)

.debug_aranges  0x0000000000000000      0xf28
 .debug_aranges
                0x0000000000000000       0x28 /home/ch/RIOT/tests/driver_scd30/bin/p-nucleo-wb55/application_tests_driver_scd30/main.o
 .debug_aranges
                0x0000000000000028       0x20 /home/ch/RIOT/tests/driver_scd30/bin/p-nucleo-wb55/auto_init/auto_init.o
 .debug_aranges
                0x0000000000000048       0x30 /home/ch/RIOT/tests/driver_scd30/bin/p-nucleo-wb55/boards_common_nucleo/board_common_nucleo_init.o
 .debug_aranges
                0x0000000000000078       0x20 /home/ch/RIOT/tests/driver_scd30/bin/p-nucleo-wb55/checksum/crc8.o
 .debug_aranges
                0x0000000000000098       0x30 /home/ch/RIOT/tests/driver_scd30/bin/p-nucleo-wb55/core/init.o
 .debug_aranges
                0x00000000000000c8       0x50 /home/ch/RIOT/tests/driver_scd30/bin/p-nucleo-wb55/core/mutex.o
 .debug_aranges
                0x0000000000000118       0x38 /home/ch/RIOT/tests/driver_scd30/bin/p-nucleo-wb55/core/panic.o
 .debug_aranges
                0x0000000000000150       0x48 /home/ch/RIOT/tests/driver_scd30/bin/p-nucleo-wb55/core/sched.o
 .debug_aranges
                0x0000000000000198       0x78 /home/ch/RIOT/tests/driver_scd30/bin/p-nucleo-wb55/core/thread.o
 .debug_aranges
                0x0000000000000210       0x30 /home/ch/RIOT/tests/driver_scd30/bin/p-nucleo-wb55/cortexm_common/cortexm_init.o
 .debug_aranges
                0x0000000000000240       0x28 /home/ch/RIOT/tests/driver_scd30/bin/p-nucleo-wb55/cortexm_common/panic.o
 .debug_aranges
                0x0000000000000268       0x68 /home/ch/RIOT/tests/driver_scd30/bin/p-nucleo-wb55/cortexm_common/thread_arch.o
 .debug_aranges
                0x00000000000002d0       0x70 /home/ch/RIOT/tests/driver_scd30/bin/p-nucleo-wb55/cortexm_common/vectors_cortexm.o
 .debug_aranges
                0x0000000000000340       0x40 /home/ch/RIOT/tests/driver_scd30/bin/p-nucleo-wb55/cpu/cpu_common.o
 .debug_aranges
                0x0000000000000380       0x40 /home/ch/RIOT/tests/driver_scd30/bin/p-nucleo-wb55/cpu/cpu_init.o
 .debug_aranges
                0x00000000000003c0       0x40 /home/ch/RIOT/tests/driver_scd30/bin/p-nucleo-wb55/malloc_thread_safe/malloc_wrappers.o
 .debug_aranges
                0x0000000000000400       0xc8 /home/ch/RIOT/tests/driver_scd30/bin/p-nucleo-wb55/newlib_syscalls_default/syscalls.o
 .debug_aranges
                0x00000000000004c8       0x28 /home/ch/RIOT/tests/driver_scd30/bin/p-nucleo-wb55/periph_common/init.o
 .debug_aranges
                0x00000000000004f0       0x70 /home/ch/RIOT/tests/driver_scd30/bin/p-nucleo-wb55/periph/gpio_all.o
 .debug_aranges
                0x0000000000000560       0x80 /home/ch/RIOT/tests/driver_scd30/bin/p-nucleo-wb55/periph/i2c_1.o
 .debug_aranges
                0x00000000000005e0       0x38 /home/ch/RIOT/tests/driver_scd30/bin/p-nucleo-wb55/periph/pm.o
 .debug_aranges
                0x0000000000000618       0x58 /home/ch/RIOT/tests/driver_scd30/bin/p-nucleo-wb55/periph/timer.o
 .debug_aranges
                0x0000000000000670       0x60 /home/ch/RIOT/tests/driver_scd30/bin/p-nucleo-wb55/periph/uart.o
 .debug_aranges
                0x00000000000006d0       0x48 /home/ch/RIOT/tests/driver_scd30/bin/p-nucleo-wb55/pm_layered/pm.o
 .debug_aranges
                0x0000000000000718       0x78 /home/ch/RIOT/tests/driver_scd30/bin/p-nucleo-wb55/scd30/scd30.o
 .debug_aranges
                0x0000000000000790       0x38 /home/ch/RIOT/tests/driver_scd30/bin/p-nucleo-wb55/stdio_uart/stdio_uart.o
 .debug_aranges
                0x00000000000007c8       0x58 /home/ch/RIOT/tests/driver_scd30/bin/p-nucleo-wb55/stm32_clk/stmclk_common.o
 .debug_aranges
                0x0000000000000820       0x28 /home/ch/RIOT/tests/driver_scd30/bin/p-nucleo-wb55/stm32_clk/stmclk_l4wx.o
 .debug_aranges
                0x0000000000000848       0x20 /home/ch/RIOT/tests/driver_scd30/bin/p-nucleo-wb55/stm32_vectors/STM32WB55xx.o
 .debug_aranges
                0x0000000000000868       0x68 /home/ch/RIOT/tests/driver_scd30/bin/p-nucleo-wb55/xtimer/xtimer_core.o
 .debug_aranges
                0x00000000000008d0       0xa8 /home/ch/RIOT/tests/driver_scd30/bin/p-nucleo-wb55/xtimer/xtimer.o
 .debug_aranges
                0x0000000000000978       0x20 /usr/lib/gcc/arm-none-eabi/9.2.1/thumb/v7e-m/nofp/libgcc.a(_arm_addsubdf3.o)
 .debug_aranges
                0x0000000000000998       0x20 /usr/lib/gcc/arm-none-eabi/9.2.1/thumb/v7e-m/nofp/libgcc.a(_aeabi_uldivmod.o)
 .debug_aranges
                0x00000000000009b8       0x20 /usr/lib/gcc/arm-none-eabi/9.2.1/thumb/v7e-m/nofp/libgcc.a(_udivmoddi4.o)
 .debug_aranges
                0x00000000000009d8       0x20 /usr/lib/gcc/arm-none-eabi/9.2.1/thumb/v7e-m/nofp/libgcc.a(_dvmd_tls.o)
 .debug_aranges
                0x00000000000009f8       0x18 /usr/lib/gcc/arm-none-eabi/9.2.1/../../../arm-none-eabi/lib/thumb/v7e-m/nofp/libc_nano.a(lib_a-impure.o)
 .debug_aranges
                0x0000000000000a10       0x20 /usr/lib/gcc/arm-none-eabi/9.2.1/../../../arm-none-eabi/lib/thumb/v7e-m/nofp/libc_nano.a(lib_a-init.o)
 .debug_aranges
                0x0000000000000a30       0x20 /usr/lib/gcc/arm-none-eabi/9.2.1/../../../arm-none-eabi/lib/thumb/v7e-m/nofp/libc_nano.a(lib_a-malloc.o)
 .debug_aranges
                0x0000000000000a50       0x20 /usr/lib/gcc/arm-none-eabi/9.2.1/../../../arm-none-eabi/lib/thumb/v7e-m/nofp/libc_nano.a(lib_a-memcpy.o)
 .debug_aranges
                0x0000000000000a70       0x20 /usr/lib/gcc/arm-none-eabi/9.2.1/../../../arm-none-eabi/lib/thumb/v7e-m/nofp/libc_nano.a(lib_a-memset.o)
 .debug_aranges
                0x0000000000000a90       0x20 /usr/lib/gcc/arm-none-eabi/9.2.1/../../../arm-none-eabi/lib/thumb/v7e-m/nofp/libc_nano.a(lib_a-nano-freer.o)
 .debug_aranges
                0x0000000000000ab0       0x20 /usr/lib/gcc/arm-none-eabi/9.2.1/../../../arm-none-eabi/lib/thumb/v7e-m/nofp/libc_nano.a(lib_a-nano-mallocr.o)
 .debug_aranges
                0x0000000000000ad0       0x20 /usr/lib/gcc/arm-none-eabi/9.2.1/../../../arm-none-eabi/lib/thumb/v7e-m/nofp/libc_nano.a(lib_a-nano-vfprintf_float.o)
 .debug_aranges
                0x0000000000000af0       0x20 /usr/lib/gcc/arm-none-eabi/9.2.1/../../../arm-none-eabi/lib/thumb/v7e-m/nofp/libc_nano.a(lib_a-nano-vfprintf_i.o)
 .debug_aranges
                0x0000000000000b10       0x20 /usr/lib/gcc/arm-none-eabi/9.2.1/../../../arm-none-eabi/lib/thumb/v7e-m/nofp/libc_nano.a(lib_a-printf.o)
 .debug_aranges
                0x0000000000000b30       0x20 /usr/lib/gcc/arm-none-eabi/9.2.1/../../../arm-none-eabi/lib/thumb/v7e-m/nofp/libc_nano.a(lib_a-puts.o)
 .debug_aranges
                0x0000000000000b50       0x20 /usr/lib/gcc/arm-none-eabi/9.2.1/../../../arm-none-eabi/lib/thumb/v7e-m/nofp/libc_nano.a(lib_a-strlen.o)
 .debug_aranges
                0x0000000000000b70       0x20 /usr/lib/gcc/arm-none-eabi/9.2.1/../../../arm-none-eabi/lib/thumb/v7e-m/nofp/libc_nano.a(lib_a-wbuf.o)
 .debug_aranges
                0x0000000000000b90       0x20 /usr/lib/gcc/arm-none-eabi/9.2.1/../../../arm-none-eabi/lib/thumb/v7e-m/nofp/libc_nano.a(lib_a-wsetup.o)
 .debug_aranges
                0x0000000000000bb0       0x20 /usr/lib/gcc/arm-none-eabi/9.2.1/../../../arm-none-eabi/lib/thumb/v7e-m/nofp/libc_nano.a(lib_a-dtoa.o)
 .debug_aranges
                0x0000000000000bd0       0x20 /usr/lib/gcc/arm-none-eabi/9.2.1/../../../arm-none-eabi/lib/thumb/v7e-m/nofp/libc_nano.a(lib_a-fflush.o)
 .debug_aranges
                0x0000000000000bf0       0x20 /usr/lib/gcc/arm-none-eabi/9.2.1/../../../arm-none-eabi/lib/thumb/v7e-m/nofp/libc_nano.a(lib_a-findfp.o)
 .debug_aranges
                0x0000000000000c10       0x20 /usr/lib/gcc/arm-none-eabi/9.2.1/../../../arm-none-eabi/lib/thumb/v7e-m/nofp/libc_nano.a(lib_a-fprintf.o)
 .debug_aranges
                0x0000000000000c30       0x20 /usr/lib/gcc/arm-none-eabi/9.2.1/../../../arm-none-eabi/lib/thumb/v7e-m/nofp/libc_nano.a(lib_a-fwalk.o)
 .debug_aranges
                0x0000000000000c50       0x20 /usr/lib/gcc/arm-none-eabi/9.2.1/../../../arm-none-eabi/lib/thumb/v7e-m/nofp/libc_nano.a(lib_a-localeconv.o)
 .debug_aranges
                0x0000000000000c70       0x20 /usr/lib/gcc/arm-none-eabi/9.2.1/../../../arm-none-eabi/lib/thumb/v7e-m/nofp/libc_nano.a(lib_a-makebuf.o)
 .debug_aranges
                0x0000000000000c90       0x20 /usr/lib/gcc/arm-none-eabi/9.2.1/../../../arm-none-eabi/lib/thumb/v7e-m/nofp/libc_nano.a(lib_a-memchr.o)
 .debug_aranges
                0x0000000000000cb0       0x20 /usr/lib/gcc/arm-none-eabi/9.2.1/../../../arm-none-eabi/lib/thumb/v7e-m/nofp/libc_nano.a(lib_a-mlock.o)
 .debug_aranges
                0x0000000000000cd0       0x20 /usr/lib/gcc/arm-none-eabi/9.2.1/../../../arm-none-eabi/lib/thumb/v7e-m/nofp/libc_nano.a(lib_a-mprec.o)
 .debug_aranges
                0x0000000000000cf0       0x20 /usr/lib/gcc/arm-none-eabi/9.2.1/../../../arm-none-eabi/lib/thumb/v7e-m/nofp/libc_nano.a(lib_a-nano-callocr.o)
 .debug_aranges
                0x0000000000000d10       0x20 /usr/lib/gcc/arm-none-eabi/9.2.1/../../../arm-none-eabi/lib/thumb/v7e-m/nofp/libc_nano.a(lib_a-nano-reallocr.o)
 .debug_aranges
                0x0000000000000d30       0x20 /usr/lib/gcc/arm-none-eabi/9.2.1/../../../arm-none-eabi/lib/thumb/v7e-m/nofp/libc_nano.a(lib_a-nano-vfprintf.o)
 .debug_aranges
                0x0000000000000d50       0x20 /usr/lib/gcc/arm-none-eabi/9.2.1/../../../arm-none-eabi/lib/thumb/v7e-m/nofp/libc_nano.a(lib_a-stdio.o)
 .debug_aranges
                0x0000000000000d70       0x20 /usr/lib/gcc/arm-none-eabi/9.2.1/../../../arm-none-eabi/lib/thumb/v7e-m/nofp/libc_nano.a(lib_a-assert.o)
 .debug_aranges
                0x0000000000000d90       0x20 /usr/lib/gcc/arm-none-eabi/9.2.1/../../../arm-none-eabi/lib/thumb/v7e-m/nofp/libc_nano.a(lib_a-fvwrite.o)
 .debug_aranges
                0x0000000000000db0       0x20 /usr/lib/gcc/arm-none-eabi/9.2.1/../../../arm-none-eabi/lib/thumb/v7e-m/nofp/libc_nano.a(lib_a-locale.o)
 .debug_aranges
                0x0000000000000dd0       0x20 /usr/lib/gcc/arm-none-eabi/9.2.1/../../../arm-none-eabi/lib/thumb/v7e-m/nofp/libc_nano.a(lib_a-mbtowc_r.o)
 .debug_aranges
                0x0000000000000df0       0x20 /usr/lib/gcc/arm-none-eabi/9.2.1/../../../arm-none-eabi/lib/thumb/v7e-m/nofp/libc_nano.a(lib_a-memmove.o)
 .debug_aranges
                0x0000000000000e10       0x20 /usr/lib/gcc/arm-none-eabi/9.2.1/../../../arm-none-eabi/lib/thumb/v7e-m/nofp/libc_nano.a(lib_a-nano-msizer.o)
 .debug_aranges
                0x0000000000000e30       0x20 /usr/lib/gcc/arm-none-eabi/9.2.1/../../../arm-none-eabi/lib/thumb/v7e-m/nofp/libc_nano.a(lib_a-wctomb_r.o)
 .debug_aranges
                0x0000000000000e50       0x20 /usr/lib/gcc/arm-none-eabi/9.2.1/../../../arm-none-eabi/lib/thumb/v7e-m/nofp/libc_nano.a(lib_a-abort.o)
 .debug_aranges
                0x0000000000000e70       0x18 /usr/lib/gcc/arm-none-eabi/9.2.1/../../../arm-none-eabi/lib/thumb/v7e-m/nofp/libc_nano.a(lib_a-ctype_.o)
 .debug_aranges
                0x0000000000000e88       0x20 /usr/lib/gcc/arm-none-eabi/9.2.1/../../../arm-none-eabi/lib/thumb/v7e-m/nofp/libc_nano.a(lib_a-signal.o)
 .debug_aranges
                0x0000000000000ea8       0x20 /usr/lib/gcc/arm-none-eabi/9.2.1/thumb/v7e-m/nofp/libgcc.a(_arm_muldivdf3.o)
 .debug_aranges
                0x0000000000000ec8       0x20 /usr/lib/gcc/arm-none-eabi/9.2.1/thumb/v7e-m/nofp/libgcc.a(_arm_cmpdf2.o)
 .debug_aranges
                0x0000000000000ee8       0x20 /usr/lib/gcc/arm-none-eabi/9.2.1/thumb/v7e-m/nofp/libgcc.a(_arm_unorddf2.o)
 .debug_aranges
                0x0000000000000f08       0x20 /usr/lib/gcc/arm-none-eabi/9.2.1/thumb/v7e-m/nofp/libgcc.a(_arm_fixdfsi.o)

.debug_ranges   0x0000000000000000     0x21e8
 .debug_ranges  0x0000000000000000       0x88 /home/ch/RIOT/tests/driver_scd30/bin/p-nucleo-wb55/application_tests_driver_scd30/main.o
 .debug_ranges  0x0000000000000088       0x10 /home/ch/RIOT/tests/driver_scd30/bin/p-nucleo-wb55/auto_init/auto_init.o
 .debug_ranges  0x0000000000000098       0x20 /home/ch/RIOT/tests/driver_scd30/bin/p-nucleo-wb55/boards_common_nucleo/board_common_nucleo_init.o
 .debug_ranges  0x00000000000000b8       0x30 /home/ch/RIOT/tests/driver_scd30/bin/p-nucleo-wb55/checksum/crc8.o
 .debug_ranges  0x00000000000000e8       0x50 /home/ch/RIOT/tests/driver_scd30/bin/p-nucleo-wb55/core/init.o
 .debug_ranges  0x0000000000000138      0x280 /home/ch/RIOT/tests/driver_scd30/bin/p-nucleo-wb55/core/mutex.o
 .debug_ranges  0x00000000000003b8       0x28 /home/ch/RIOT/tests/driver_scd30/bin/p-nucleo-wb55/core/panic.o
 .debug_ranges  0x00000000000003e0      0x118 /home/ch/RIOT/tests/driver_scd30/bin/p-nucleo-wb55/core/sched.o
 .debug_ranges  0x00000000000004f8      0x298 /home/ch/RIOT/tests/driver_scd30/bin/p-nucleo-wb55/core/thread.o
 .debug_ranges  0x0000000000000790       0xb8 /home/ch/RIOT/tests/driver_scd30/bin/p-nucleo-wb55/cortexm_common/cortexm_init.o
 .debug_ranges  0x0000000000000848       0x48 /home/ch/RIOT/tests/driver_scd30/bin/p-nucleo-wb55/cortexm_common/panic.o
 .debug_ranges  0x0000000000000890       0x88 /home/ch/RIOT/tests/driver_scd30/bin/p-nucleo-wb55/cortexm_common/thread_arch.o
 .debug_ranges  0x0000000000000918       0x78 /home/ch/RIOT/tests/driver_scd30/bin/p-nucleo-wb55/cortexm_common/vectors_cortexm.o
 .debug_ranges  0x0000000000000990       0x30 /home/ch/RIOT/tests/driver_scd30/bin/p-nucleo-wb55/cpu/cpu_common.o
 .debug_ranges  0x00000000000009c0       0x30 /home/ch/RIOT/tests/driver_scd30/bin/p-nucleo-wb55/cpu/cpu_init.o
 .debug_ranges  0x00000000000009f0      0x108 /home/ch/RIOT/tests/driver_scd30/bin/p-nucleo-wb55/malloc_thread_safe/malloc_wrappers.o
 .debug_ranges  0x0000000000000af8      0x1d8 /home/ch/RIOT/tests/driver_scd30/bin/p-nucleo-wb55/newlib_syscalls_default/syscalls.o
 .debug_ranges  0x0000000000000cd0       0x18 /home/ch/RIOT/tests/driver_scd30/bin/p-nucleo-wb55/periph_common/init.o
 .debug_ranges  0x0000000000000ce8      0x190 /home/ch/RIOT/tests/driver_scd30/bin/p-nucleo-wb55/periph/gpio_all.o
 .debug_ranges  0x0000000000000e78      0x140 /home/ch/RIOT/tests/driver_scd30/bin/p-nucleo-wb55/periph/i2c_1.o
 .debug_ranges  0x0000000000000fb8       0x70 /home/ch/RIOT/tests/driver_scd30/bin/p-nucleo-wb55/periph/pm.o
 .debug_ranges  0x0000000000001028      0x138 /home/ch/RIOT/tests/driver_scd30/bin/p-nucleo-wb55/periph/timer.o
 .debug_ranges  0x0000000000001160      0x130 /home/ch/RIOT/tests/driver_scd30/bin/p-nucleo-wb55/periph/uart.o
 .debug_ranges  0x0000000000001290       0xc8 /home/ch/RIOT/tests/driver_scd30/bin/p-nucleo-wb55/pm_layered/pm.o
 .debug_ranges  0x0000000000001358      0x1a8 /home/ch/RIOT/tests/driver_scd30/bin/p-nucleo-wb55/scd30/scd30.o
 .debug_ranges  0x0000000000001500       0x28 /home/ch/RIOT/tests/driver_scd30/bin/p-nucleo-wb55/stdio_uart/stdio_uart.o
 .debug_ranges  0x0000000000001528       0x48 /home/ch/RIOT/tests/driver_scd30/bin/p-nucleo-wb55/stm32_clk/stmclk_common.o
 .debug_ranges  0x0000000000001570       0x60 /home/ch/RIOT/tests/driver_scd30/bin/p-nucleo-wb55/stm32_clk/stmclk_l4wx.o
 .debug_ranges  0x00000000000015d0       0x10 /home/ch/RIOT/tests/driver_scd30/bin/p-nucleo-wb55/stm32_vectors/STM32WB55xx.o
 .debug_ranges  0x00000000000015e0      0x1d8 /home/ch/RIOT/tests/driver_scd30/bin/p-nucleo-wb55/xtimer/xtimer_core.o
 .debug_ranges  0x00000000000017b8      0x3f0 /home/ch/RIOT/tests/driver_scd30/bin/p-nucleo-wb55/xtimer/xtimer.o
 .debug_ranges  0x0000000000001ba8       0xc8 /usr/lib/gcc/arm-none-eabi/9.2.1/thumb/v7e-m/nofp/libgcc.a(_udivmoddi4.o)
 .debug_ranges  0x0000000000001c70       0x18 /usr/lib/gcc/arm-none-eabi/9.2.1/../../../arm-none-eabi/lib/thumb/v7e-m/nofp/libc_nano.a(lib_a-nano-freer.o)
 .debug_ranges  0x0000000000001c88       0x38 /usr/lib/gcc/arm-none-eabi/9.2.1/../../../arm-none-eabi/lib/thumb/v7e-m/nofp/libc_nano.a(lib_a-nano-mallocr.o)
 .debug_ranges  0x0000000000001cc0       0x30 /usr/lib/gcc/arm-none-eabi/9.2.1/../../../arm-none-eabi/lib/thumb/v7e-m/nofp/libc_nano.a(lib_a-nano-vfprintf_float.o)
 .debug_ranges  0x0000000000001cf0       0x98 /usr/lib/gcc/arm-none-eabi/9.2.1/../../../arm-none-eabi/lib/thumb/v7e-m/nofp/libc_nano.a(lib_a-nano-vfprintf_i.o)
 .debug_ranges  0x0000000000001d88       0x68 /usr/lib/gcc/arm-none-eabi/9.2.1/../../../arm-none-eabi/lib/thumb/v7e-m/nofp/libc_nano.a(lib_a-puts.o)
 .debug_ranges  0x0000000000001df0       0x20 /usr/lib/gcc/arm-none-eabi/9.2.1/../../../arm-none-eabi/lib/thumb/v7e-m/nofp/libc_nano.a(lib_a-wbuf.o)
 .debug_ranges  0x0000000000001e10       0x30 /usr/lib/gcc/arm-none-eabi/9.2.1/../../../arm-none-eabi/lib/thumb/v7e-m/nofp/libc_nano.a(lib_a-wsetup.o)
 .debug_ranges  0x0000000000001e40       0x60 /usr/lib/gcc/arm-none-eabi/9.2.1/../../../arm-none-eabi/lib/thumb/v7e-m/nofp/libc_nano.a(lib_a-dtoa.o)
 .debug_ranges  0x0000000000001ea0       0x68 /usr/lib/gcc/arm-none-eabi/9.2.1/../../../arm-none-eabi/lib/thumb/v7e-m/nofp/libc_nano.a(lib_a-fflush.o)
 .debug_ranges  0x0000000000001f08       0xe8 /usr/lib/gcc/arm-none-eabi/9.2.1/../../../arm-none-eabi/lib/thumb/v7e-m/nofp/libc_nano.a(lib_a-findfp.o)
 .debug_ranges  0x0000000000001ff0       0x28 /usr/lib/gcc/arm-none-eabi/9.2.1/../../../arm-none-eabi/lib/thumb/v7e-m/nofp/libc_nano.a(lib_a-makebuf.o)
 .debug_ranges  0x0000000000002018      0x160 /usr/lib/gcc/arm-none-eabi/9.2.1/../../../arm-none-eabi/lib/thumb/v7e-m/nofp/libc_nano.a(lib_a-mprec.o)
 .debug_ranges  0x0000000000002178       0x28 /usr/lib/gcc/arm-none-eabi/9.2.1/../../../arm-none-eabi/lib/thumb/v7e-m/nofp/libc_nano.a(lib_a-nano-vfprintf.o)
 .debug_ranges  0x00000000000021a0       0x18 /usr/lib/gcc/arm-none-eabi/9.2.1/../../../arm-none-eabi/lib/thumb/v7e-m/nofp/libc_nano.a(lib_a-fvwrite.o)
 .debug_ranges  0x00000000000021b8       0x30 /usr/lib/gcc/arm-none-eabi/9.2.1/../../../arm-none-eabi/lib/thumb/v7e-m/nofp/libc_nano.a(lib_a-signal.o)

.debug_macro    0x0000000000000000    0x33d97
 .debug_macro   0x0000000000000000      0x528 /home/ch/RIOT/tests/driver_scd30/bin/p-nucleo-wb55/application_tests_driver_scd30/main.o
 .debug_macro   0x0000000000000528      0xafc /home/ch/RIOT/tests/driver_scd30/bin/p-nucleo-wb55/application_tests_driver_scd30/main.o
 .debug_macro   0x0000000000001024      0x160 /home/ch/RIOT/tests/driver_scd30/bin/p-nucleo-wb55/application_tests_driver_scd30/main.o
 .debug_macro   0x0000000000001184       0x22 /home/ch/RIOT/tests/driver_scd30/bin/p-nucleo-wb55/application_tests_driver_scd30/main.o
 .debug_macro   0x00000000000011a6       0x46 /home/ch/RIOT/tests/driver_scd30/bin/p-nucleo-wb55/application_tests_driver_scd30/main.o
 .debug_macro   0x00000000000011ec       0x18 /home/ch/RIOT/tests/driver_scd30/bin/p-nucleo-wb55/application_tests_driver_scd30/main.o
 .debug_macro   0x0000000000001204       0x5c /home/ch/RIOT/tests/driver_scd30/bin/p-nucleo-wb55/application_tests_driver_scd30/main.o
 .debug_macro   0x0000000000001260       0x3c /home/ch/RIOT/tests/driver_scd30/bin/p-nucleo-wb55/application_tests_driver_scd30/main.o
 .debug_macro   0x000000000000129c       0x34 /home/ch/RIOT/tests/driver_scd30/bin/p-nucleo-wb55/application_tests_driver_scd30/main.o
 .debug_macro   0x00000000000012d0       0x16 /home/ch/RIOT/tests/driver_scd30/bin/p-nucleo-wb55/application_tests_driver_scd30/main.o
 .debug_macro   0x00000000000012e6       0x57 /home/ch/RIOT/tests/driver_scd30/bin/p-nucleo-wb55/application_tests_driver_scd30/main.o
 .debug_macro   0x000000000000133d       0x97 /home/ch/RIOT/tests/driver_scd30/bin/p-nucleo-wb55/application_tests_driver_scd30/main.o
 .debug_macro   0x00000000000013d4      0x339 /home/ch/RIOT/tests/driver_scd30/bin/p-nucleo-wb55/application_tests_driver_scd30/main.o
 .debug_macro   0x000000000000170d       0xfd /home/ch/RIOT/tests/driver_scd30/bin/p-nucleo-wb55/application_tests_driver_scd30/main.o
 .debug_macro   0x000000000000180a       0x10 /home/ch/RIOT/tests/driver_scd30/bin/p-nucleo-wb55/application_tests_driver_scd30/main.o
 .debug_macro   0x000000000000181a       0x16 /home/ch/RIOT/tests/driver_scd30/bin/p-nucleo-wb55/application_tests_driver_scd30/main.o
 .debug_macro   0x0000000000001830       0x43 /home/ch/RIOT/tests/driver_scd30/bin/p-nucleo-wb55/application_tests_driver_scd30/main.o
 .debug_macro   0x0000000000001873       0x34 /home/ch/RIOT/tests/driver_scd30/bin/p-nucleo-wb55/application_tests_driver_scd30/main.o
 .debug_macro   0x00000000000018a7       0x10 /home/ch/RIOT/tests/driver_scd30/bin/p-nucleo-wb55/application_tests_driver_scd30/main.o
 .debug_macro   0x00000000000018b7       0x52 /home/ch/RIOT/tests/driver_scd30/bin/p-nucleo-wb55/application_tests_driver_scd30/main.o
 .debug_macro   0x0000000000001909       0x71 /home/ch/RIOT/tests/driver_scd30/bin/p-nucleo-wb55/application_tests_driver_scd30/main.o
 .debug_macro   0x000000000000197a      0x34e /home/ch/RIOT/tests/driver_scd30/bin/p-nucleo-wb55/application_tests_driver_scd30/main.o
 .debug_macro   0x0000000000001cc8       0x75 /home/ch/RIOT/tests/driver_scd30/bin/p-nucleo-wb55/application_tests_driver_scd30/main.o
 .debug_macro   0x0000000000001d3d       0x10 /home/ch/RIOT/tests/driver_scd30/bin/p-nucleo-wb55/application_tests_driver_scd30/main.o
 .debug_macro   0x0000000000001d4d      0x12a /home/ch/RIOT/tests/driver_scd30/bin/p-nucleo-wb55/application_tests_driver_scd30/main.o
 .debug_macro   0x0000000000001e77       0x10 /home/ch/RIOT/tests/driver_scd30/bin/p-nucleo-wb55/application_tests_driver_scd30/main.o
 .debug_macro   0x0000000000001e87       0x6a /home/ch/RIOT/tests/driver_scd30/bin/p-nucleo-wb55/application_tests_driver_scd30/main.o
 .debug_macro   0x0000000000001ef1       0xb2 /home/ch/RIOT/tests/driver_scd30/bin/p-nucleo-wb55/application_tests_driver_scd30/main.o
 .debug_macro   0x0000000000001fa3       0x16 /home/ch/RIOT/tests/driver_scd30/bin/p-nucleo-wb55/application_tests_driver_scd30/main.o
 .debug_macro   0x0000000000001fb9      0x114 /home/ch/RIOT/tests/driver_scd30/bin/p-nucleo-wb55/application_tests_driver_scd30/main.o
 .debug_macro   0x00000000000020cd       0xe8 /home/ch/RIOT/tests/driver_scd30/bin/p-nucleo-wb55/application_tests_driver_scd30/main.o
 .debug_macro   0x00000000000021b5       0x22 /home/ch/RIOT/tests/driver_scd30/bin/p-nucleo-wb55/application_tests_driver_scd30/main.o
 .debug_macro   0x00000000000021d7       0x49 /home/ch/RIOT/tests/driver_scd30/bin/p-nucleo-wb55/application_tests_driver_scd30/main.o
 .debug_macro   0x0000000000002220       0x2e /home/ch/RIOT/tests/driver_scd30/bin/p-nucleo-wb55/application_tests_driver_scd30/main.o
 .debug_macro   0x000000000000224e       0x2e /home/ch/RIOT/tests/driver_scd30/bin/p-nucleo-wb55/application_tests_driver_scd30/main.o
 .debug_macro   0x000000000000227c       0x1c /home/ch/RIOT/tests/driver_scd30/bin/p-nucleo-wb55/application_tests_driver_scd30/main.o
 .debug_macro   0x0000000000002298       0x22 /home/ch/RIOT/tests/driver_scd30/bin/p-nucleo-wb55/application_tests_driver_scd30/main.o
 .debug_macro   0x00000000000022ba       0xd9 /home/ch/RIOT/tests/driver_scd30/bin/p-nucleo-wb55/application_tests_driver_scd30/main.o
 .debug_macro   0x0000000000002393     0x102d /home/ch/RIOT/tests/driver_scd30/bin/p-nucleo-wb55/application_tests_driver_scd30/main.o
 .debug_macro   0x00000000000033c0      0x11f /home/ch/RIOT/tests/driver_scd30/bin/p-nucleo-wb55/application_tests_driver_scd30/main.o
 .debug_macro   0x00000000000034df    0x12ae9 /home/ch/RIOT/tests/driver_scd30/bin/p-nucleo-wb55/application_tests_driver_scd30/main.o
 .debug_macro   0x0000000000015fc8       0x6c /home/ch/RIOT/tests/driver_scd30/bin/p-nucleo-wb55/application_tests_driver_scd30/main.o
 .debug_macro   0x0000000000016034       0x10 /home/ch/RIOT/tests/driver_scd30/bin/p-nucleo-wb55/application_tests_driver_scd30/main.o
 .debug_macro   0x0000000000016044       0x2b /home/ch/RIOT/tests/driver_scd30/bin/p-nucleo-wb55/application_tests_driver_scd30/main.o
 .debug_macro   0x000000000001606f      0x103 /home/ch/RIOT/tests/driver_scd30/bin/p-nucleo-wb55/application_tests_driver_scd30/main.o
 .debug_macro   0x0000000000016172       0x35 /home/ch/RIOT/tests/driver_scd30/bin/p-nucleo-wb55/application_tests_driver_scd30/main.o
 .debug_macro   0x00000000000161a7      0x3c6 /home/ch/RIOT/tests/driver_scd30/bin/p-nucleo-wb55/application_tests_driver_scd30/main.o
 .debug_macro   0x000000000001656d       0x3d /home/ch/RIOT/tests/driver_scd30/bin/p-nucleo-wb55/application_tests_driver_scd30/main.o
 .debug_macro   0x00000000000165aa       0x42 /home/ch/RIOT/tests/driver_scd30/bin/p-nucleo-wb55/application_tests_driver_scd30/main.o
 .debug_macro   0x00000000000165ec       0x10 /home/ch/RIOT/tests/driver_scd30/bin/p-nucleo-wb55/application_tests_driver_scd30/main.o
 .debug_macro   0x00000000000165fc       0x2e /home/ch/RIOT/tests/driver_scd30/bin/p-nucleo-wb55/application_tests_driver_scd30/main.o
 .debug_macro   0x000000000001662a       0x16 /home/ch/RIOT/tests/driver_scd30/bin/p-nucleo-wb55/application_tests_driver_scd30/main.o
 .debug_macro   0x0000000000016640       0x2e /home/ch/RIOT/tests/driver_scd30/bin/p-nucleo-wb55/application_tests_driver_scd30/main.o
 .debug_macro   0x000000000001666e       0x10 /home/ch/RIOT/tests/driver_scd30/bin/p-nucleo-wb55/application_tests_driver_scd30/main.o
 .debug_macro   0x000000000001667e       0x10 /home/ch/RIOT/tests/driver_scd30/bin/p-nucleo-wb55/application_tests_driver_scd30/main.o
 .debug_macro   0x000000000001668e       0x1c /home/ch/RIOT/tests/driver_scd30/bin/p-nucleo-wb55/application_tests_driver_scd30/main.o
 .debug_macro   0x00000000000166aa       0x40 /home/ch/RIOT/tests/driver_scd30/bin/p-nucleo-wb55/application_tests_driver_scd30/main.o
 .debug_macro   0x00000000000166ea       0x31 /home/ch/RIOT/tests/driver_scd30/bin/p-nucleo-wb55/application_tests_driver_scd30/main.o
 .debug_macro   0x000000000001671b       0x84 /home/ch/RIOT/tests/driver_scd30/bin/p-nucleo-wb55/application_tests_driver_scd30/main.o
 .debug_macro   0x000000000001679f       0x22 /home/ch/RIOT/tests/driver_scd30/bin/p-nucleo-wb55/application_tests_driver_scd30/main.o
 .debug_macro   0x00000000000167c1       0x22 /home/ch/RIOT/tests/driver_scd30/bin/p-nucleo-wb55/application_tests_driver_scd30/main.o
 .debug_macro   0x00000000000167e3       0x16 /home/ch/RIOT/tests/driver_scd30/bin/p-nucleo-wb55/application_tests_driver_scd30/main.o
 .debug_macro   0x00000000000167f9       0x10 /home/ch/RIOT/tests/driver_scd30/bin/p-nucleo-wb55/application_tests_driver_scd30/main.o
 .debug_macro   0x0000000000016809       0x34 /home/ch/RIOT/tests/driver_scd30/bin/p-nucleo-wb55/application_tests_driver_scd30/main.o
 .debug_macro   0x000000000001683d       0x28 /home/ch/RIOT/tests/driver_scd30/bin/p-nucleo-wb55/application_tests_driver_scd30/main.o
 .debug_macro   0x0000000000016865       0x16 /home/ch/RIOT/tests/driver_scd30/bin/p-nucleo-wb55/application_tests_driver_scd30/main.o
 .debug_macro   0x000000000001687b       0x40 /home/ch/RIOT/tests/driver_scd30/bin/p-nucleo-wb55/application_tests_driver_scd30/main.o
 .debug_macro   0x00000000000168bb       0x1c /home/ch/RIOT/tests/driver_scd30/bin/p-nucleo-wb55/application_tests_driver_scd30/main.o
 .debug_macro   0x00000000000168d7       0x16 /home/ch/RIOT/tests/driver_scd30/bin/p-nucleo-wb55/application_tests_driver_scd30/main.o
 .debug_macro   0x00000000000168ed       0x28 /home/ch/RIOT/tests/driver_scd30/bin/p-nucleo-wb55/application_tests_driver_scd30/main.o
 .debug_macro   0x0000000000016915       0x1c /home/ch/RIOT/tests/driver_scd30/bin/p-nucleo-wb55/application_tests_driver_scd30/main.o
 .debug_macro   0x0000000000016931       0x6b /home/ch/RIOT/tests/driver_scd30/bin/p-nucleo-wb55/application_tests_driver_scd30/main.o
 .debug_macro   0x000000000001699c       0x16 /home/ch/RIOT/tests/driver_scd30/bin/p-nucleo-wb55/application_tests_driver_scd30/main.o
 .debug_macro   0x00000000000169b2       0x28 /home/ch/RIOT/tests/driver_scd30/bin/p-nucleo-wb55/application_tests_driver_scd30/main.o
 .debug_macro   0x00000000000169da       0x16 /home/ch/RIOT/tests/driver_scd30/bin/p-nucleo-wb55/application_tests_driver_scd30/main.o
 .debug_macro   0x00000000000169f0       0x29 /home/ch/RIOT/tests/driver_scd30/bin/p-nucleo-wb55/application_tests_driver_scd30/main.o
 .debug_macro   0x0000000000016a19       0x19 /home/ch/RIOT/tests/driver_scd30/bin/p-nucleo-wb55/application_tests_driver_scd30/main.o
 .debug_macro   0x0000000000016a32      0x118 /home/ch/RIOT/tests/driver_scd30/bin/p-nucleo-wb55/application_tests_driver_scd30/main.o
 .debug_macro   0x0000000000016b4a       0x9a /home/ch/RIOT/tests/driver_scd30/bin/p-nucleo-wb55/application_tests_driver_scd30/main.o
 .debug_macro   0x0000000000016be4       0x43 /home/ch/RIOT/tests/driver_scd30/bin/p-nucleo-wb55/application_tests_driver_scd30/main.o
 .debug_macro   0x0000000000016c27       0x1c /home/ch/RIOT/tests/driver_scd30/bin/p-nucleo-wb55/application_tests_driver_scd30/main.o
 .debug_macro   0x0000000000016c43       0x22 /home/ch/RIOT/tests/driver_scd30/bin/p-nucleo-wb55/application_tests_driver_scd30/main.o
 .debug_macro   0x0000000000016c65       0x10 /home/ch/RIOT/tests/driver_scd30/bin/p-nucleo-wb55/application_tests_driver_scd30/main.o
 .debug_macro   0x0000000000016c75       0x20 /home/ch/RIOT/tests/driver_scd30/bin/p-nucleo-wb55/application_tests_driver_scd30/main.o
 .debug_macro   0x0000000000016c95       0x10 /home/ch/RIOT/tests/driver_scd30/bin/p-nucleo-wb55/application_tests_driver_scd30/main.o
 .debug_macro   0x0000000000016ca5      0x241 /home/ch/RIOT/tests/driver_scd30/bin/p-nucleo-wb55/application_tests_driver_scd30/main.o
 .debug_macro   0x0000000000016ee6       0x1e /home/ch/RIOT/tests/driver_scd30/bin/p-nucleo-wb55/application_tests_driver_scd30/main.o
 .debug_macro   0x0000000000016f04       0x46 /home/ch/RIOT/tests/driver_scd30/bin/p-nucleo-wb55/application_tests_driver_scd30/main.o
 .debug_macro   0x0000000000016f4a       0x28 /home/ch/RIOT/tests/driver_scd30/bin/p-nucleo-wb55/application_tests_driver_scd30/main.o
 .debug_macro   0x0000000000016f72       0x46 /home/ch/RIOT/tests/driver_scd30/bin/p-nucleo-wb55/application_tests_driver_scd30/main.o
 .debug_macro   0x0000000000016fb8      0x1e9 /home/ch/RIOT/tests/driver_scd30/bin/p-nucleo-wb55/auto_init/auto_init.o
 .debug_macro   0x00000000000171a1      0xafc /home/ch/RIOT/tests/driver_scd30/bin/p-nucleo-wb55/auto_init/auto_init.o
 .debug_macro   0x0000000000017c9d       0x34 /home/ch/RIOT/tests/driver_scd30/bin/p-nucleo-wb55/auto_init/auto_init.o
 .debug_macro   0x0000000000017cd1      0x427 /home/ch/RIOT/tests/driver_scd30/bin/p-nucleo-wb55/boards_common_nucleo/board_common_nucleo_init.o
 .debug_macro   0x00000000000180f8      0xafc /home/ch/RIOT/tests/driver_scd30/bin/p-nucleo-wb55/boards_common_nucleo/board_common_nucleo_init.o
 .debug_macro   0x0000000000018bf4       0x3f /home/ch/RIOT/tests/driver_scd30/bin/p-nucleo-wb55/checksum/crc8.o
 .debug_macro   0x0000000000018c33      0xafc /home/ch/RIOT/tests/driver_scd30/bin/p-nucleo-wb55/checksum/crc8.o
 .debug_macro   0x000000000001972f      0x174 /home/ch/RIOT/tests/driver_scd30/bin/p-nucleo-wb55/checksum/crc8.o
 .debug_macro   0x00000000000198a3      0x428 /home/ch/RIOT/tests/driver_scd30/bin/p-nucleo-wb55/core/init.o
 .debug_macro   0x0000000000019ccb      0xafc /home/ch/RIOT/tests/driver_scd30/bin/p-nucleo-wb55/core/init.o
 .debug_macro   0x000000000001a7c7      0x23b /home/ch/RIOT/tests/driver_scd30/bin/p-nucleo-wb55/core/init.o
 .debug_macro   0x000000000001aa02       0x2e /home/ch/RIOT/tests/driver_scd30/bin/p-nucleo-wb55/core/init.o
 .debug_macro   0x000000000001aa30       0x10 /home/ch/RIOT/tests/driver_scd30/bin/p-nucleo-wb55/core/init.o
 .debug_macro   0x000000000001aa40      0x2f7 /home/ch/RIOT/tests/driver_scd30/bin/p-nucleo-wb55/core/mutex.o
 .debug_macro   0x000000000001ad37      0xafc /home/ch/RIOT/tests/driver_scd30/bin/p-nucleo-wb55/core/mutex.o
 .debug_macro   0x000000000001b833      0x379 /home/ch/RIOT/tests/driver_scd30/bin/p-nucleo-wb55/core/mutex.o
 .debug_macro   0x000000000001bbac       0x28 /home/ch/RIOT/tests/driver_scd30/bin/p-nucleo-wb55/core/mutex.o
 .debug_macro   0x000000000001bbd4      0x3f6 /home/ch/RIOT/tests/driver_scd30/bin/p-nucleo-wb55/core/panic.o
 .debug_macro   0x000000000001bfca      0xafc /home/ch/RIOT/tests/driver_scd30/bin/p-nucleo-wb55/core/panic.o
 .debug_macro   0x000000000001cac6       0x10 /home/ch/RIOT/tests/driver_scd30/bin/p-nucleo-wb55/core/panic.o
 .debug_macro   0x000000000001cad6      0x2ec /home/ch/RIOT/tests/driver_scd30/bin/p-nucleo-wb55/core/sched.o
 .debug_macro   0x000000000001cdc2      0xafc /home/ch/RIOT/tests/driver_scd30/bin/p-nucleo-wb55/core/sched.o
 .debug_macro   0x000000000001d8be      0x301 /home/ch/RIOT/tests/driver_scd30/bin/p-nucleo-wb55/core/thread.o
 .debug_macro   0x000000000001dbbf      0xafc /home/ch/RIOT/tests/driver_scd30/bin/p-nucleo-wb55/core/thread.o
 .debug_macro   0x000000000001e6bb       0x22 /home/ch/RIOT/tests/driver_scd30/bin/p-nucleo-wb55/core/thread.o
 .debug_macro   0x000000000001e6dd       0xdc /home/ch/RIOT/tests/driver_scd30/bin/p-nucleo-wb55/core/thread.o
 .debug_macro   0x000000000001e7b9      0x2d3 /home/ch/RIOT/tests/driver_scd30/bin/p-nucleo-wb55/cortexm_common/cortexm_init.o
 .debug_macro   0x000000000001ea8c      0xafc /home/ch/RIOT/tests/driver_scd30/bin/p-nucleo-wb55/cortexm_common/cortexm_init.o
 .debug_macro   0x000000000001f588      0x2d6 /home/ch/RIOT/tests/driver_scd30/bin/p-nucleo-wb55/cortexm_common/panic.o
 .debug_macro   0x000000000001f85e      0xafc /home/ch/RIOT/tests/driver_scd30/bin/p-nucleo-wb55/cortexm_common/panic.o
 .debug_macro   0x000000000002035a      0x2f3 /home/ch/RIOT/tests/driver_scd30/bin/p-nucleo-wb55/cortexm_common/thread_arch.o
 .debug_macro   0x000000000002064d      0xafc /home/ch/RIOT/tests/driver_scd30/bin/p-nucleo-wb55/cortexm_common/thread_arch.o
 .debug_macro   0x0000000000021149       0x1c /home/ch/RIOT/tests/driver_scd30/bin/p-nucleo-wb55/cortexm_common/thread_arch.o
 .debug_macro   0x0000000000021165      0x451 /home/ch/RIOT/tests/driver_scd30/bin/p-nucleo-wb55/cortexm_common/vectors_cortexm.o
 .debug_macro   0x00000000000215b6      0xafc /home/ch/RIOT/tests/driver_scd30/bin/p-nucleo-wb55/cortexm_common/vectors_cortexm.o
 .debug_macro   0x00000000000220b2       0x1c /home/ch/RIOT/tests/driver_scd30/bin/p-nucleo-wb55/cortexm_common/vectors_cortexm.o
 .debug_macro   0x00000000000220ce      0x41d /home/ch/RIOT/tests/driver_scd30/bin/p-nucleo-wb55/cpu/cpu_common.o
 .debug_macro   0x00000000000224eb      0xafc /home/ch/RIOT/tests/driver_scd30/bin/p-nucleo-wb55/cpu/cpu_common.o
 .debug_macro   0x0000000000022fe7      0x47c /home/ch/RIOT/tests/driver_scd30/bin/p-nucleo-wb55/cpu/cpu_init.o
 .debug_macro   0x0000000000023463      0xafc /home/ch/RIOT/tests/driver_scd30/bin/p-nucleo-wb55/cpu/cpu_init.o
 .debug_macro   0x0000000000023f5f       0x16 /home/ch/RIOT/tests/driver_scd30/bin/p-nucleo-wb55/cpu/cpu_init.o
 .debug_macro   0x0000000000023f75      0x4fe /home/ch/RIOT/tests/driver_scd30/bin/p-nucleo-wb55/cpu/cpu_init.o
 .debug_macro   0x0000000000024473      0x285 /home/ch/RIOT/tests/driver_scd30/bin/p-nucleo-wb55/malloc_thread_safe/malloc_wrappers.o
 .debug_macro   0x00000000000246f8      0xafc /home/ch/RIOT/tests/driver_scd30/bin/p-nucleo-wb55/malloc_thread_safe/malloc_wrappers.o
 .debug_macro   0x00000000000251f4      0x5ee /home/ch/RIOT/tests/driver_scd30/bin/p-nucleo-wb55/newlib_syscalls_default/syscalls.o
 .debug_macro   0x00000000000257e2      0xafc /home/ch/RIOT/tests/driver_scd30/bin/p-nucleo-wb55/newlib_syscalls_default/syscalls.o
 .debug_macro   0x00000000000262de       0x10 /home/ch/RIOT/tests/driver_scd30/bin/p-nucleo-wb55/newlib_syscalls_default/syscalls.o
 .debug_macro   0x00000000000262ee       0xcf /home/ch/RIOT/tests/driver_scd30/bin/p-nucleo-wb55/newlib_syscalls_default/syscalls.o
 .debug_macro   0x00000000000263bd       0x20 /home/ch/RIOT/tests/driver_scd30/bin/p-nucleo-wb55/newlib_syscalls_default/syscalls.o
 .debug_macro   0x00000000000263dd       0xbe /home/ch/RIOT/tests/driver_scd30/bin/p-nucleo-wb55/newlib_syscalls_default/syscalls.o
 .debug_macro   0x000000000002649b       0x10 /home/ch/RIOT/tests/driver_scd30/bin/p-nucleo-wb55/newlib_syscalls_default/syscalls.o
 .debug_macro   0x00000000000264ab       0x10 /home/ch/RIOT/tests/driver_scd30/bin/p-nucleo-wb55/newlib_syscalls_default/syscalls.o
 .debug_macro   0x00000000000264bb       0x3c /home/ch/RIOT/tests/driver_scd30/bin/p-nucleo-wb55/newlib_syscalls_default/syscalls.o
 .debug_macro   0x00000000000264f7       0xff /home/ch/RIOT/tests/driver_scd30/bin/p-nucleo-wb55/newlib_syscalls_default/syscalls.o
 .debug_macro   0x00000000000265f6       0x16 /home/ch/RIOT/tests/driver_scd30/bin/p-nucleo-wb55/newlib_syscalls_default/syscalls.o
 .debug_macro   0x000000000002660c       0x10 /home/ch/RIOT/tests/driver_scd30/bin/p-nucleo-wb55/newlib_syscalls_default/syscalls.o
 .debug_macro   0x000000000002661c       0x10 /home/ch/RIOT/tests/driver_scd30/bin/p-nucleo-wb55/newlib_syscalls_default/syscalls.o
 .debug_macro   0x000000000002662c       0x2e /home/ch/RIOT/tests/driver_scd30/bin/p-nucleo-wb55/newlib_syscalls_default/syscalls.o
 .debug_macro   0x000000000002665a      0x102 /home/ch/RIOT/tests/driver_scd30/bin/p-nucleo-wb55/newlib_syscalls_default/syscalls.o
 .debug_macro   0x000000000002675c       0x10 /home/ch/RIOT/tests/driver_scd30/bin/p-nucleo-wb55/newlib_syscalls_default/syscalls.o
 .debug_macro   0x000000000002676c       0x43 /home/ch/RIOT/tests/driver_scd30/bin/p-nucleo-wb55/newlib_syscalls_default/syscalls.o
 .debug_macro   0x00000000000267af      0x41d /home/ch/RIOT/tests/driver_scd30/bin/p-nucleo-wb55/periph_common/init.o
 .debug_macro   0x0000000000026bcc      0xafc /home/ch/RIOT/tests/driver_scd30/bin/p-nucleo-wb55/periph_common/init.o
 .debug_macro   0x00000000000276c8      0x42f /home/ch/RIOT/tests/driver_scd30/bin/p-nucleo-wb55/periph/gpio_all.o
 .debug_macro   0x0000000000027af7      0xafc /home/ch/RIOT/tests/driver_scd30/bin/p-nucleo-wb55/periph/gpio_all.o
 .debug_macro   0x00000000000285f3      0x4bf /home/ch/RIOT/tests/driver_scd30/bin/p-nucleo-wb55/periph/i2c_1.o
 .debug_macro   0x0000000000028ab2      0xafc /home/ch/RIOT/tests/driver_scd30/bin/p-nucleo-wb55/periph/i2c_1.o
 .debug_macro   0x00000000000295ae      0x413 /home/ch/RIOT/tests/driver_scd30/bin/p-nucleo-wb55/periph/pm.o
 .debug_macro   0x00000000000299c1      0xafc /home/ch/RIOT/tests/driver_scd30/bin/p-nucleo-wb55/periph/pm.o
 .debug_macro   0x000000000002a4bd      0x413 /home/ch/RIOT/tests/driver_scd30/bin/p-nucleo-wb55/periph/timer.o
 .debug_macro   0x000000000002a8d0      0xafc /home/ch/RIOT/tests/driver_scd30/bin/p-nucleo-wb55/periph/timer.o
 .debug_macro   0x000000000002b3cc      0x466 /home/ch/RIOT/tests/driver_scd30/bin/p-nucleo-wb55/periph/uart.o
 .debug_macro   0x000000000002b832      0xafc /home/ch/RIOT/tests/driver_scd30/bin/p-nucleo-wb55/periph/uart.o
 .debug_macro   0x000000000002c32e       0x10 /home/ch/RIOT/tests/driver_scd30/bin/p-nucleo-wb55/periph/uart.o
 .debug_macro   0x000000000002c33e      0x412 /home/ch/RIOT/tests/driver_scd30/bin/p-nucleo-wb55/pm_layered/pm.o
 .debug_macro   0x000000000002c750      0xafc /home/ch/RIOT/tests/driver_scd30/bin/p-nucleo-wb55/pm_layered/pm.o
 .debug_macro   0x000000000002d24c       0x28 /home/ch/RIOT/tests/driver_scd30/bin/p-nucleo-wb55/pm_layered/pm.o
 .debug_macro   0x000000000002d274       0x27 /home/ch/RIOT/tests/driver_scd30/bin/p-nucleo-wb55/pm_layered/pm.o
 .debug_macro   0x000000000002d29b      0x550 /home/ch/RIOT/tests/driver_scd30/bin/p-nucleo-wb55/scd30/scd30.o
 .debug_macro   0x000000000002d7eb      0xafc /home/ch/RIOT/tests/driver_scd30/bin/p-nucleo-wb55/scd30/scd30.o
 .debug_macro   0x000000000002e2e7      0x4d0 /home/ch/RIOT/tests/driver_scd30/bin/p-nucleo-wb55/stdio_uart/stdio_uart.o
 .debug_macro   0x000000000002e7b7      0xafc /home/ch/RIOT/tests/driver_scd30/bin/p-nucleo-wb55/stdio_uart/stdio_uart.o
 .debug_macro   0x000000000002f2b3       0x16 /home/ch/RIOT/tests/driver_scd30/bin/p-nucleo-wb55/stdio_uart/stdio_uart.o
 .debug_macro   0x000000000002f2c9      0x43e /home/ch/RIOT/tests/driver_scd30/bin/p-nucleo-wb55/stm32_clk/stmclk_common.o
 .debug_macro   0x000000000002f707      0xafc /home/ch/RIOT/tests/driver_scd30/bin/p-nucleo-wb55/stm32_clk/stmclk_common.o
 .debug_macro   0x0000000000030203      0x558 /home/ch/RIOT/tests/driver_scd30/bin/p-nucleo-wb55/stm32_clk/stmclk_l4wx.o
 .debug_macro   0x000000000003075b      0xafc /home/ch/RIOT/tests/driver_scd30/bin/p-nucleo-wb55/stm32_clk/stmclk_l4wx.o
 .debug_macro   0x0000000000031257       0xb7 /home/ch/RIOT/tests/driver_scd30/bin/p-nucleo-wb55/stm32_vectors/STM32WB55xx.o
 .debug_macro   0x000000000003130e      0xafc /home/ch/RIOT/tests/driver_scd30/bin/p-nucleo-wb55/stm32_vectors/STM32WB55xx.o
 .debug_macro   0x0000000000031e0a       0x16 /home/ch/RIOT/tests/driver_scd30/bin/p-nucleo-wb55/stm32_vectors/STM32WB55xx.o
 .debug_macro   0x0000000000031e20      0x4b3 /home/ch/RIOT/tests/driver_scd30/bin/p-nucleo-wb55/xtimer/xtimer_core.o
 .debug_macro   0x00000000000322d3      0xafc /home/ch/RIOT/tests/driver_scd30/bin/p-nucleo-wb55/xtimer/xtimer_core.o
 .debug_macro   0x0000000000032dcf       0x16 /home/ch/RIOT/tests/driver_scd30/bin/p-nucleo-wb55/xtimer/xtimer_core.o
 .debug_macro   0x0000000000032de5      0x4b6 /home/ch/RIOT/tests/driver_scd30/bin/p-nucleo-wb55/xtimer/xtimer.o
 .debug_macro   0x000000000003329b      0xafc /home/ch/RIOT/tests/driver_scd30/bin/p-nucleo-wb55/xtimer/xtimer.o

.debug_line     0x0000000000000000    0x1ccb9
 .debug_line    0x0000000000000000      0xacc /home/ch/RIOT/tests/driver_scd30/bin/p-nucleo-wb55/application_tests_driver_scd30/main.o
 .debug_line    0x0000000000000acc      0x31b /home/ch/RIOT/tests/driver_scd30/bin/p-nucleo-wb55/auto_init/auto_init.o
 .debug_line    0x0000000000000de7      0x8d8 /home/ch/RIOT/tests/driver_scd30/bin/p-nucleo-wb55/boards_common_nucleo/board_common_nucleo_init.o
 .debug_line    0x00000000000016bf      0x174 /home/ch/RIOT/tests/driver_scd30/bin/p-nucleo-wb55/checksum/crc8.o
 .debug_line    0x0000000000001833      0x7e5 /home/ch/RIOT/tests/driver_scd30/bin/p-nucleo-wb55/core/init.o
 .debug_line    0x0000000000002018      0xc50 /home/ch/RIOT/tests/driver_scd30/bin/p-nucleo-wb55/core/mutex.o
 .debug_line    0x0000000000002c68      0x83c /home/ch/RIOT/tests/driver_scd30/bin/p-nucleo-wb55/core/panic.o
 .debug_line    0x00000000000034a4      0x943 /home/ch/RIOT/tests/driver_scd30/bin/p-nucleo-wb55/core/sched.o
 .debug_line    0x0000000000003de7      0xe78 /home/ch/RIOT/tests/driver_scd30/bin/p-nucleo-wb55/core/thread.o
 .debug_line    0x0000000000004c5f      0x659 /home/ch/RIOT/tests/driver_scd30/bin/p-nucleo-wb55/cortexm_common/cortexm_init.o
 .debug_line    0x00000000000052b8      0x562 /home/ch/RIOT/tests/driver_scd30/bin/p-nucleo-wb55/cortexm_common/panic.o
 .debug_line    0x000000000000581a      0x841 /home/ch/RIOT/tests/driver_scd30/bin/p-nucleo-wb55/cortexm_common/thread_arch.o
 .debug_line    0x000000000000605b      0xb6c /home/ch/RIOT/tests/driver_scd30/bin/p-nucleo-wb55/cortexm_common/vectors_cortexm.o
 .debug_line    0x0000000000006bc7      0x937 /home/ch/RIOT/tests/driver_scd30/bin/p-nucleo-wb55/cpu/cpu_common.o
 .debug_line    0x00000000000074fe      0x946 /home/ch/RIOT/tests/driver_scd30/bin/p-nucleo-wb55/cpu/cpu_init.o
 .debug_line    0x0000000000007e44      0x640 /home/ch/RIOT/tests/driver_scd30/bin/p-nucleo-wb55/malloc_thread_safe/malloc_wrappers.o
 .debug_line    0x0000000000008484      0xf41 /home/ch/RIOT/tests/driver_scd30/bin/p-nucleo-wb55/newlib_syscalls_default/syscalls.o
 .debug_line    0x00000000000093c5      0x85e /home/ch/RIOT/tests/driver_scd30/bin/p-nucleo-wb55/periph_common/init.o
 .debug_line    0x0000000000009c23      0xc24 /home/ch/RIOT/tests/driver_scd30/bin/p-nucleo-wb55/periph/gpio_all.o
 .debug_line    0x000000000000a847     0x1155 /home/ch/RIOT/tests/driver_scd30/bin/p-nucleo-wb55/periph/i2c_1.o
 .debug_line    0x000000000000b99c      0x879 /home/ch/RIOT/tests/driver_scd30/bin/p-nucleo-wb55/periph/pm.o
 .debug_line    0x000000000000c215      0xba3 /home/ch/RIOT/tests/driver_scd30/bin/p-nucleo-wb55/periph/timer.o
 .debug_line    0x000000000000cdb8      0xcb7 /home/ch/RIOT/tests/driver_scd30/bin/p-nucleo-wb55/periph/uart.o
 .debug_line    0x000000000000da6f      0xa01 /home/ch/RIOT/tests/driver_scd30/bin/p-nucleo-wb55/pm_layered/pm.o
 .debug_line    0x000000000000e470     0x1126 /home/ch/RIOT/tests/driver_scd30/bin/p-nucleo-wb55/scd30/scd30.o
 .debug_line    0x000000000000f596      0x965 /home/ch/RIOT/tests/driver_scd30/bin/p-nucleo-wb55/stdio_uart/stdio_uart.o
 .debug_line    0x000000000000fefb      0x988 /home/ch/RIOT/tests/driver_scd30/bin/p-nucleo-wb55/stm32_clk/stmclk_common.o
 .debug_line    0x0000000000010883      0xa37 /home/ch/RIOT/tests/driver_scd30/bin/p-nucleo-wb55/stm32_clk/stmclk_l4wx.o
 .debug_line    0x00000000000112ba      0x27a /home/ch/RIOT/tests/driver_scd30/bin/p-nucleo-wb55/stm32_vectors/STM32WB55xx.o
 .debug_line    0x0000000000011534      0xf77 /home/ch/RIOT/tests/driver_scd30/bin/p-nucleo-wb55/xtimer/xtimer_core.o
 .debug_line    0x00000000000124ab     0x118f /home/ch/RIOT/tests/driver_scd30/bin/p-nucleo-wb55/xtimer/xtimer.o
 .debug_line    0x000000000001363a      0x186 /usr/lib/gcc/arm-none-eabi/9.2.1/thumb/v7e-m/nofp/libgcc.a(_arm_addsubdf3.o)
 .debug_line    0x00000000000137c0       0x60 /usr/lib/gcc/arm-none-eabi/9.2.1/thumb/v7e-m/nofp/libgcc.a(_aeabi_uldivmod.o)
 .debug_line    0x0000000000013820      0x610 /usr/lib/gcc/arm-none-eabi/9.2.1/thumb/v7e-m/nofp/libgcc.a(_udivmoddi4.o)
 .debug_line    0x0000000000013e30       0x60 /usr/lib/gcc/arm-none-eabi/9.2.1/thumb/v7e-m/nofp/libgcc.a(_dvmd_tls.o)
 .debug_line    0x0000000000013e90       0xe3 /usr/lib/gcc/arm-none-eabi/9.2.1/../../../arm-none-eabi/lib/thumb/v7e-m/nofp/libc_nano.a(lib_a-impure.o)
 .debug_line    0x0000000000013f73      0x10d /usr/lib/gcc/arm-none-eabi/9.2.1/../../../arm-none-eabi/lib/thumb/v7e-m/nofp/libc_nano.a(lib_a-init.o)
 .debug_line    0x0000000000014080      0x15e /usr/lib/gcc/arm-none-eabi/9.2.1/../../../arm-none-eabi/lib/thumb/v7e-m/nofp/libc_nano.a(lib_a-malloc.o)
 .debug_line    0x00000000000141de       0xbe /usr/lib/gcc/arm-none-eabi/9.2.1/../../../arm-none-eabi/lib/thumb/v7e-m/nofp/libc_nano.a(lib_a-memcpy.o)
 .debug_line    0x000000000001429c      0x26b /usr/lib/gcc/arm-none-eabi/9.2.1/../../../arm-none-eabi/lib/thumb/v7e-m/nofp/libc_nano.a(lib_a-memset.o)
 .debug_line    0x0000000000014507      0x2af /usr/lib/gcc/arm-none-eabi/9.2.1/../../../arm-none-eabi/lib/thumb/v7e-m/nofp/libc_nano.a(lib_a-nano-freer.o)
 .debug_line    0x00000000000147b6      0x2f2 /usr/lib/gcc/arm-none-eabi/9.2.1/../../../arm-none-eabi/lib/thumb/v7e-m/nofp/libc_nano.a(lib_a-nano-mallocr.o)
 .debug_line    0x0000000000014aa8      0x9b2 /usr/lib/gcc/arm-none-eabi/9.2.1/../../../arm-none-eabi/lib/thumb/v7e-m/nofp/libc_nano.a(lib_a-nano-vfprintf_float.o)
 .debug_line    0x000000000001545a      0x790 /usr/lib/gcc/arm-none-eabi/9.2.1/../../../arm-none-eabi/lib/thumb/v7e-m/nofp/libc_nano.a(lib_a-nano-vfprintf_i.o)
 .debug_line    0x0000000000015bea      0x1fc /usr/lib/gcc/arm-none-eabi/9.2.1/../../../arm-none-eabi/lib/thumb/v7e-m/nofp/libc_nano.a(lib_a-printf.o)
 .debug_line    0x0000000000015de6      0x316 /usr/lib/gcc/arm-none-eabi/9.2.1/../../../arm-none-eabi/lib/thumb/v7e-m/nofp/libc_nano.a(lib_a-puts.o)
 .debug_line    0x00000000000160fc       0xaf /usr/lib/gcc/arm-none-eabi/9.2.1/../../../arm-none-eabi/lib/thumb/v7e-m/nofp/libc_nano.a(lib_a-strlen.o)
 .debug_line    0x00000000000161ab      0x27c /usr/lib/gcc/arm-none-eabi/9.2.1/../../../arm-none-eabi/lib/thumb/v7e-m/nofp/libc_nano.a(lib_a-wbuf.o)
 .debug_line    0x0000000000016427      0x311 /usr/lib/gcc/arm-none-eabi/9.2.1/../../../arm-none-eabi/lib/thumb/v7e-m/nofp/libc_nano.a(lib_a-wsetup.o)
 .debug_line    0x0000000000016738     0x140a /usr/lib/gcc/arm-none-eabi/9.2.1/../../../arm-none-eabi/lib/thumb/v7e-m/nofp/libc_nano.a(lib_a-dtoa.o)
 .debug_line    0x0000000000017b42      0x418 /usr/lib/gcc/arm-none-eabi/9.2.1/../../../arm-none-eabi/lib/thumb/v7e-m/nofp/libc_nano.a(lib_a-fflush.o)
 .debug_line    0x0000000000017f5a      0x561 /usr/lib/gcc/arm-none-eabi/9.2.1/../../../arm-none-eabi/lib/thumb/v7e-m/nofp/libc_nano.a(lib_a-findfp.o)
 .debug_line    0x00000000000184bb      0x19a /usr/lib/gcc/arm-none-eabi/9.2.1/../../../arm-none-eabi/lib/thumb/v7e-m/nofp/libc_nano.a(lib_a-fprintf.o)
 .debug_line    0x0000000000018655      0x289 /usr/lib/gcc/arm-none-eabi/9.2.1/../../../arm-none-eabi/lib/thumb/v7e-m/nofp/libc_nano.a(lib_a-fwalk.o)
 .debug_line    0x00000000000188de      0x1ca /usr/lib/gcc/arm-none-eabi/9.2.1/../../../arm-none-eabi/lib/thumb/v7e-m/nofp/libc_nano.a(lib_a-localeconv.o)
 .debug_line    0x0000000000018aa8      0x36f /usr/lib/gcc/arm-none-eabi/9.2.1/../../../arm-none-eabi/lib/thumb/v7e-m/nofp/libc_nano.a(lib_a-makebuf.o)
 .debug_line    0x0000000000018e17       0xa4 /usr/lib/gcc/arm-none-eabi/9.2.1/../../../arm-none-eabi/lib/thumb/v7e-m/nofp/libc_nano.a(lib_a-memchr.o)
 .debug_line    0x0000000000018ebb      0x13d /usr/lib/gcc/arm-none-eabi/9.2.1/../../../arm-none-eabi/lib/thumb/v7e-m/nofp/libc_nano.a(lib_a-mlock.o)
 .debug_line    0x0000000000018ff8     0x1451 /usr/lib/gcc/arm-none-eabi/9.2.1/../../../arm-none-eabi/lib/thumb/v7e-m/nofp/libc_nano.a(lib_a-mprec.o)
 .debug_line    0x000000000001a449      0x17a /usr/lib/gcc/arm-none-eabi/9.2.1/../../../arm-none-eabi/lib/thumb/v7e-m/nofp/libc_nano.a(lib_a-nano-callocr.o)
 .debug_line    0x000000000001a5c3      0x1c5 /usr/lib/gcc/arm-none-eabi/9.2.1/../../../arm-none-eabi/lib/thumb/v7e-m/nofp/libc_nano.a(lib_a-nano-reallocr.o)
 .debug_line    0x000000000001a788      0x726 /usr/lib/gcc/arm-none-eabi/9.2.1/../../../arm-none-eabi/lib/thumb/v7e-m/nofp/libc_nano.a(lib_a-nano-vfprintf.o)
 .debug_line    0x000000000001aeae      0x25f /usr/lib/gcc/arm-none-eabi/9.2.1/../../../arm-none-eabi/lib/thumb/v7e-m/nofp/libc_nano.a(lib_a-stdio.o)
 .debug_line    0x000000000001b10d      0x18d /usr/lib/gcc/arm-none-eabi/9.2.1/../../../arm-none-eabi/lib/thumb/v7e-m/nofp/libc_nano.a(lib_a-assert.o)
 .debug_line    0x000000000001b29a      0x5e8 /usr/lib/gcc/arm-none-eabi/9.2.1/../../../arm-none-eabi/lib/thumb/v7e-m/nofp/libc_nano.a(lib_a-fvwrite.o)
 .debug_line    0x000000000001b882      0x252 /usr/lib/gcc/arm-none-eabi/9.2.1/../../../arm-none-eabi/lib/thumb/v7e-m/nofp/libc_nano.a(lib_a-locale.o)
 .debug_line    0x000000000001bad4      0x228 /usr/lib/gcc/arm-none-eabi/9.2.1/../../../arm-none-eabi/lib/thumb/v7e-m/nofp/libc_nano.a(lib_a-mbtowc_r.o)
 .debug_line    0x000000000001bcfc      0x287 /usr/lib/gcc/arm-none-eabi/9.2.1/../../../arm-none-eabi/lib/thumb/v7e-m/nofp/libc_nano.a(lib_a-memmove.o)
 .debug_line    0x000000000001bf83      0x166 /usr/lib/gcc/arm-none-eabi/9.2.1/../../../arm-none-eabi/lib/thumb/v7e-m/nofp/libc_nano.a(lib_a-nano-msizer.o)
 .debug_line    0x000000000001c0e9      0x212 /usr/lib/gcc/arm-none-eabi/9.2.1/../../../arm-none-eabi/lib/thumb/v7e-m/nofp/libc_nano.a(lib_a-wctomb_r.o)
 .debug_line    0x000000000001c2fb      0x15f /usr/lib/gcc/arm-none-eabi/9.2.1/../../../arm-none-eabi/lib/thumb/v7e-m/nofp/libc_nano.a(lib_a-abort.o)
 .debug_line    0x000000000001c45a      0x154 /usr/lib/gcc/arm-none-eabi/9.2.1/../../../arm-none-eabi/lib/thumb/v7e-m/nofp/libc_nano.a(lib_a-ctype_.o)
 .debug_line    0x000000000001c5ae      0x3cc /usr/lib/gcc/arm-none-eabi/9.2.1/../../../arm-none-eabi/lib/thumb/v7e-m/nofp/libc_nano.a(lib_a-signal.o)
 .debug_line    0x000000000001c97a      0x19b /usr/lib/gcc/arm-none-eabi/9.2.1/thumb/v7e-m/nofp/libgcc.a(_arm_muldivdf3.o)
 .debug_line    0x000000000001cb15       0xbd /usr/lib/gcc/arm-none-eabi/9.2.1/thumb/v7e-m/nofp/libgcc.a(_arm_cmpdf2.o)
 .debug_line    0x000000000001cbd2       0x6e /usr/lib/gcc/arm-none-eabi/9.2.1/thumb/v7e-m/nofp/libgcc.a(_arm_unorddf2.o)
 .debug_line    0x000000000001cc40       0x79 /usr/lib/gcc/arm-none-eabi/9.2.1/thumb/v7e-m/nofp/libgcc.a(_arm_fixdfsi.o)

.debug_str      0x0000000000000000    0x88ba1
 .debug_str     0x0000000000000000    0x7fd9e /home/ch/RIOT/tests/driver_scd30/bin/p-nucleo-wb55/application_tests_driver_scd30/main.o
                                      0x802b2 (size before relaxing)
 .debug_str     0x000000000007fd9e      0x5c2 /home/ch/RIOT/tests/driver_scd30/bin/p-nucleo-wb55/auto_init/auto_init.o
                                       0x97c0 (size before relaxing)
 .debug_str     0x0000000000080360      0x15b /home/ch/RIOT/tests/driver_scd30/bin/p-nucleo-wb55/boards_common_nucleo/board_common_nucleo_init.o
                                      0x7e645 (size before relaxing)
 .debug_str     0x00000000000804bb       0xa0 /home/ch/RIOT/tests/driver_scd30/bin/p-nucleo-wb55/checksum/crc8.o
                                       0x418f (size before relaxing)
 .debug_str     0x000000000008055b      0x321 /home/ch/RIOT/tests/driver_scd30/bin/p-nucleo-wb55/core/init.o
                                      0x7e2c2 (size before relaxing)
 .debug_str     0x000000000008087c      0x322 /home/ch/RIOT/tests/driver_scd30/bin/p-nucleo-wb55/core/mutex.o
                                      0x7d568 (size before relaxing)
 .debug_str     0x0000000000080b9e       0xc2 /home/ch/RIOT/tests/driver_scd30/bin/p-nucleo-wb55/core/panic.o
                                      0x7dd1e (size before relaxing)
 .debug_str     0x0000000000080c60      0x4bd /home/ch/RIOT/tests/driver_scd30/bin/p-nucleo-wb55/core/sched.o
                                      0x7d416 (size before relaxing)
 .debug_str     0x000000000008111d      0x24f /home/ch/RIOT/tests/driver_scd30/bin/p-nucleo-wb55/core/thread.o
                                      0x7d988 (size before relaxing)
 .debug_str     0x000000000008136c      0x5e0 /home/ch/RIOT/tests/driver_scd30/bin/p-nucleo-wb55/cortexm_common/cortexm_init.o
                                      0x7d2c2 (size before relaxing)
 .debug_str     0x000000000008194c       0x64 /home/ch/RIOT/tests/driver_scd30/bin/p-nucleo-wb55/cortexm_common/panic.o
                                      0x7ce94 (size before relaxing)
 .debug_str     0x00000000000819b0      0x1a8 /home/ch/RIOT/tests/driver_scd30/bin/p-nucleo-wb55/cortexm_common/thread_arch.o
                                      0x7d113 (size before relaxing)
 .debug_str     0x0000000000081b58      0x421 /home/ch/RIOT/tests/driver_scd30/bin/p-nucleo-wb55/cortexm_common/vectors_cortexm.o
                                      0x7eaf8 (size before relaxing)
 .debug_str     0x0000000000081f79      0x26f /home/ch/RIOT/tests/driver_scd30/bin/p-nucleo-wb55/cpu/cpu_common.o
                                      0x7e6b5 (size before relaxing)
 .debug_str     0x00000000000821e8     0x10fd /home/ch/RIOT/tests/driver_scd30/bin/p-nucleo-wb55/cpu/cpu_init.o
                                      0x7f636 (size before relaxing)
 .debug_str     0x00000000000832e5      0x130 /home/ch/RIOT/tests/driver_scd30/bin/p-nucleo-wb55/malloc_thread_safe/malloc_wrappers.o
                                      0x7c608 (size before relaxing)
 .debug_str     0x0000000000083415      0xabf /home/ch/RIOT/tests/driver_scd30/bin/p-nucleo-wb55/newlib_syscalls_default/syscalls.o
                                      0x8196b (size before relaxing)
 .debug_str     0x0000000000083ed4       0x9e /home/ch/RIOT/tests/driver_scd30/bin/p-nucleo-wb55/periph_common/init.o
                                      0x7e303 (size before relaxing)
 .debug_str     0x0000000000083f72      0x235 /home/ch/RIOT/tests/driver_scd30/bin/p-nucleo-wb55/periph/gpio_all.o
                                      0x7e782 (size before relaxing)
 .debug_str     0x00000000000841a7      0x309 /home/ch/RIOT/tests/driver_scd30/bin/p-nucleo-wb55/periph/i2c_1.o
                                      0x7f36b (size before relaxing)
 .debug_str     0x00000000000844b0      0x1ca /home/ch/RIOT/tests/driver_scd30/bin/p-nucleo-wb55/periph/pm.o
                                      0x7de27 (size before relaxing)
 .debug_str     0x000000000008467a      0x108 /home/ch/RIOT/tests/driver_scd30/bin/p-nucleo-wb55/periph/timer.o
                                      0x7e8f9 (size before relaxing)
 .debug_str     0x0000000000084782      0x27e /home/ch/RIOT/tests/driver_scd30/bin/p-nucleo-wb55/periph/uart.o
                                      0x7f222 (size before relaxing)
 .debug_str     0x0000000000084a00      0x41a /home/ch/RIOT/tests/driver_scd30/bin/p-nucleo-wb55/pm_layered/pm.o
                                      0x7e112 (size before relaxing)
 .debug_str     0x0000000000084e1a      0x28d /home/ch/RIOT/tests/driver_scd30/bin/p-nucleo-wb55/scd30/scd30.o
                                      0x805c6 (size before relaxing)
 .debug_str     0x00000000000850a7      0x185 /home/ch/RIOT/tests/driver_scd30/bin/p-nucleo-wb55/stdio_uart/stdio_uart.o
                                      0x7fd60 (size before relaxing)
 .debug_str     0x000000000008522c      0x1dd /home/ch/RIOT/tests/driver_scd30/bin/p-nucleo-wb55/stm32_clk/stmclk_common.o
                                      0x7e658 (size before relaxing)
 .debug_str     0x0000000000085409      0x7c3 /home/ch/RIOT/tests/driver_scd30/bin/p-nucleo-wb55/stm32_clk/stmclk_l4wx.o
                                      0x7ecd0 (size before relaxing)
 .debug_str     0x0000000000085bcc       0xbd /home/ch/RIOT/tests/driver_scd30/bin/p-nucleo-wb55/stm32_vectors/STM32WB55xx.o
                                      0x77786 (size before relaxing)
 .debug_str     0x0000000000085c89      0x20d /home/ch/RIOT/tests/driver_scd30/bin/p-nucleo-wb55/xtimer/xtimer_core.o
                                      0x7fd03 (size before relaxing)
 .debug_str     0x0000000000085e96      0x330 /home/ch/RIOT/tests/driver_scd30/bin/p-nucleo-wb55/xtimer/xtimer.o
                                      0x7ff90 (size before relaxing)
 .debug_str     0x00000000000861c6       0xa5 /usr/lib/gcc/arm-none-eabi/9.2.1/thumb/v7e-m/nofp/libgcc.a(_arm_addsubdf3.o)
 .debug_str     0x000000000008626b       0x2c /usr/lib/gcc/arm-none-eabi/9.2.1/thumb/v7e-m/nofp/libgcc.a(_aeabi_uldivmod.o)
                                         0xa0 (size before relaxing)
 .debug_str     0x0000000000086297     0x10de /usr/lib/gcc/arm-none-eabi/9.2.1/thumb/v7e-m/nofp/libgcc.a(_udivmoddi4.o)
                                       0x11e0 (size before relaxing)
 .debug_str     0x0000000000087375       0x30 /usr/lib/gcc/arm-none-eabi/9.2.1/thumb/v7e-m/nofp/libgcc.a(_dvmd_tls.o)
                                         0xa4 (size before relaxing)
 .debug_str     0x00000000000873a5      0x12b /usr/lib/gcc/arm-none-eabi/9.2.1/../../../arm-none-eabi/lib/thumb/v7e-m/nofp/libc_nano.a(lib_a-impure.o)
                                        0x5dc (size before relaxing)
 .debug_str     0x00000000000874d0       0xdb /usr/lib/gcc/arm-none-eabi/9.2.1/../../../arm-none-eabi/lib/thumb/v7e-m/nofp/libc_nano.a(lib_a-init.o)
                                        0x223 (size before relaxing)
 .debug_str     0x00000000000875ab       0xbb /usr/lib/gcc/arm-none-eabi/9.2.1/../../../arm-none-eabi/lib/thumb/v7e-m/nofp/libc_nano.a(lib_a-malloc.o)
                                        0x60d (size before relaxing)
 .debug_str     0x0000000000087666       0xa7 /usr/lib/gcc/arm-none-eabi/9.2.1/../../../arm-none-eabi/lib/thumb/v7e-m/nofp/libc_nano.a(lib_a-memcpy.o)
                                         0xb3 (size before relaxing)
 .debug_str     0x000000000008770d      0x2ea /usr/lib/gcc/arm-none-eabi/9.2.1/../../../arm-none-eabi/lib/thumb/v7e-m/nofp/libc_nano.a(lib_a-memset.o)
                                        0x909 (size before relaxing)
 .debug_str     0x00000000000879f7       0xe2 /usr/lib/gcc/arm-none-eabi/9.2.1/../../../arm-none-eabi/lib/thumb/v7e-m/nofp/libc_nano.a(lib_a-nano-freer.o)
                                        0x70c (size before relaxing)
 .debug_str     0x0000000000087ad9       0x2a /usr/lib/gcc/arm-none-eabi/9.2.1/../../../arm-none-eabi/lib/thumb/v7e-m/nofp/libc_nano.a(lib_a-nano-mallocr.o)
                                        0x723 (size before relaxing)
 .debug_str     0x0000000000087b03      0x2f9 /usr/lib/gcc/arm-none-eabi/9.2.1/../../../arm-none-eabi/lib/thumb/v7e-m/nofp/libc_nano.a(lib_a-nano-vfprintf_float.o)
                                        0xc29 (size before relaxing)
 .debug_str     0x0000000000087dfc       0x82 /usr/lib/gcc/arm-none-eabi/9.2.1/../../../arm-none-eabi/lib/thumb/v7e-m/nofp/libc_nano.a(lib_a-nano-vfprintf_i.o)
                                        0xba6 (size before relaxing)
 .debug_str     0x0000000000087e7e       0x51 /usr/lib/gcc/arm-none-eabi/9.2.1/../../../arm-none-eabi/lib/thumb/v7e-m/nofp/libc_nano.a(lib_a-printf.o)
                                        0x756 (size before relaxing)
 .debug_str     0x0000000000087ecf       0x69 /usr/lib/gcc/arm-none-eabi/9.2.1/../../../arm-none-eabi/lib/thumb/v7e-m/nofp/libc_nano.a(lib_a-puts.o)
                                        0x75f (size before relaxing)
 .debug_str     0x0000000000087f38       0x42 /usr/lib/gcc/arm-none-eabi/9.2.1/../../../arm-none-eabi/lib/thumb/v7e-m/nofp/libc_nano.a(lib_a-strlen.o)
                                         0xb2 (size before relaxing)
 .debug_str     0x0000000000087f7a       0x43 /usr/lib/gcc/arm-none-eabi/9.2.1/../../../arm-none-eabi/lib/thumb/v7e-m/nofp/libc_nano.a(lib_a-wbuf.o)
                                        0x765 (size before relaxing)
 .debug_str     0x0000000000087fbd       0x40 /usr/lib/gcc/arm-none-eabi/9.2.1/../../../arm-none-eabi/lib/thumb/v7e-m/nofp/libc_nano.a(lib_a-wsetup.o)
                                        0x760 (size before relaxing)
 .debug_str     0x0000000000087ffd      0x185 /usr/lib/gcc/arm-none-eabi/9.2.1/../../../arm-none-eabi/lib/thumb/v7e-m/nofp/libc_nano.a(lib_a-dtoa.o)
                                        0xae0 (size before relaxing)
 .debug_str     0x0000000000088182       0x63 /usr/lib/gcc/arm-none-eabi/9.2.1/../../../arm-none-eabi/lib/thumb/v7e-m/nofp/libc_nano.a(lib_a-fflush.o)
                                        0x78e (size before relaxing)
 .debug_str     0x00000000000881e5      0x16b /usr/lib/gcc/arm-none-eabi/9.2.1/../../../arm-none-eabi/lib/thumb/v7e-m/nofp/libc_nano.a(lib_a-findfp.o)
                                        0x89e (size before relaxing)
 .debug_str     0x0000000000088350       0x3f /usr/lib/gcc/arm-none-eabi/9.2.1/../../../arm-none-eabi/lib/thumb/v7e-m/nofp/libc_nano.a(lib_a-fprintf.o)
                                        0x61b (size before relaxing)
 .debug_str     0x000000000008838f       0x41 /usr/lib/gcc/arm-none-eabi/9.2.1/../../../arm-none-eabi/lib/thumb/v7e-m/nofp/libc_nano.a(lib_a-fwalk.o)
                                        0x752 (size before relaxing)
 .debug_str     0x00000000000883d0       0xf9 /usr/lib/gcc/arm-none-eabi/9.2.1/../../../arm-none-eabi/lib/thumb/v7e-m/nofp/libc_nano.a(lib_a-localeconv.o)
                                        0x96e (size before relaxing)
 .debug_str     0x00000000000884c9       0x59 /usr/lib/gcc/arm-none-eabi/9.2.1/../../../arm-none-eabi/lib/thumb/v7e-m/nofp/libc_nano.a(lib_a-makebuf.o)
                                        0x8d3 (size before relaxing)
 .debug_str     0x0000000000088522       0x3c /usr/lib/gcc/arm-none-eabi/9.2.1/../../../arm-none-eabi/lib/thumb/v7e-m/nofp/libc_nano.a(lib_a-memchr.o)
                                         0xac (size before relaxing)
 .debug_str     0x000000000008855e       0x4c /usr/lib/gcc/arm-none-eabi/9.2.1/../../../arm-none-eabi/lib/thumb/v7e-m/nofp/libc_nano.a(lib_a-mlock.o)
                                        0x608 (size before relaxing)
 .debug_str     0x00000000000885aa       0x8d /usr/lib/gcc/arm-none-eabi/9.2.1/../../../arm-none-eabi/lib/thumb/v7e-m/nofp/libc_nano.a(lib_a-mprec.o)
                                        0xa89 (size before relaxing)
 .debug_str     0x0000000000088637        0x5 /usr/lib/gcc/arm-none-eabi/9.2.1/../../../arm-none-eabi/lib/thumb/v7e-m/nofp/libc_nano.a(lib_a-nano-callocr.o)
                                        0x6e2 (size before relaxing)
 .debug_str     0x000000000008863c       0x2e /usr/lib/gcc/arm-none-eabi/9.2.1/../../../arm-none-eabi/lib/thumb/v7e-m/nofp/libc_nano.a(lib_a-nano-reallocr.o)
                                        0x709 (size before relaxing)
 .debug_str     0x000000000008866a       0xd3 /usr/lib/gcc/arm-none-eabi/9.2.1/../../../arm-none-eabi/lib/thumb/v7e-m/nofp/libc_nano.a(lib_a-nano-vfprintf.o)
                                        0xc28 (size before relaxing)
 .debug_str     0x000000000008873d       0x66 /usr/lib/gcc/arm-none-eabi/9.2.1/../../../arm-none-eabi/lib/thumb/v7e-m/nofp/libc_nano.a(lib_a-stdio.o)
                                        0x7a6 (size before relaxing)
 .debug_str     0x00000000000887a3       0x57 /usr/lib/gcc/arm-none-eabi/9.2.1/../../../arm-none-eabi/lib/thumb/v7e-m/nofp/libc_nano.a(lib_a-assert.o)
                                        0x61c (size before relaxing)
 .debug_str     0x00000000000887fa       0x5a /usr/lib/gcc/arm-none-eabi/9.2.1/../../../arm-none-eabi/lib/thumb/v7e-m/nofp/libc_nano.a(lib_a-fvwrite.o)
                                        0x7df (size before relaxing)
 .debug_str     0x0000000000088854       0x83 /usr/lib/gcc/arm-none-eabi/9.2.1/../../../arm-none-eabi/lib/thumb/v7e-m/nofp/libc_nano.a(lib_a-locale.o)
                                        0x9ae (size before relaxing)
 .debug_str     0x00000000000888d7       0x55 /usr/lib/gcc/arm-none-eabi/9.2.1/../../../arm-none-eabi/lib/thumb/v7e-m/nofp/libc_nano.a(lib_a-mbtowc_r.o)
                                        0x97f (size before relaxing)
 .debug_str     0x000000000008892c       0x5f /usr/lib/gcc/arm-none-eabi/9.2.1/../../../arm-none-eabi/lib/thumb/v7e-m/nofp/libc_nano.a(lib_a-memmove.o)
                                        0x928 (size before relaxing)
 .debug_str     0x000000000008898b        0xf /usr/lib/gcc/arm-none-eabi/9.2.1/../../../arm-none-eabi/lib/thumb/v7e-m/nofp/libc_nano.a(lib_a-nano-msizer.o)
                                        0x6e7 (size before relaxing)
 .debug_str     0x000000000008899a       0x56 /usr/lib/gcc/arm-none-eabi/9.2.1/../../../arm-none-eabi/lib/thumb/v7e-m/nofp/libc_nano.a(lib_a-wctomb_r.o)
                                        0x986 (size before relaxing)
 .debug_str     0x00000000000889f0       0x39 /usr/lib/gcc/arm-none-eabi/9.2.1/../../../arm-none-eabi/lib/thumb/v7e-m/nofp/libc_nano.a(lib_a-abort.o)
                                        0x61a (size before relaxing)
 .debug_str     0x0000000000088a29       0x91 /usr/lib/gcc/arm-none-eabi/9.2.1/../../../arm-none-eabi/lib/thumb/v7e-m/nofp/libc_nano.a(lib_a-ctype_.o)
                                        0x8f4 (size before relaxing)
 .debug_str     0x0000000000088aba       0xe7 /usr/lib/gcc/arm-none-eabi/9.2.1/../../../arm-none-eabi/lib/thumb/v7e-m/nofp/libc_nano.a(lib_a-signal.o)
                                        0x67f (size before relaxing)
 .debug_str     0x0000000000088ba1       0xa5 /usr/lib/gcc/arm-none-eabi/9.2.1/thumb/v7e-m/nofp/libgcc.a(_arm_muldivdf3.o)
 .debug_str     0x0000000000088ba1       0xa5 /usr/lib/gcc/arm-none-eabi/9.2.1/thumb/v7e-m/nofp/libgcc.a(_arm_cmpdf2.o)
 .debug_str     0x0000000000088ba1       0xa5 /usr/lib/gcc/arm-none-eabi/9.2.1/thumb/v7e-m/nofp/libgcc.a(_arm_unorddf2.o)
 .debug_str     0x0000000000088ba1       0xa5 /usr/lib/gcc/arm-none-eabi/9.2.1/thumb/v7e-m/nofp/libgcc.a(_arm_fixdfsi.o)

.comment        0x0000000000000000       0xa7
 .comment       0x0000000000000000       0x59 /home/ch/RIOT/tests/driver_scd30/bin/p-nucleo-wb55/application_tests_driver_scd30/main.o
                                         0x5a (size before relaxing)
 .comment       0x0000000000000059       0x5a /home/ch/RIOT/tests/driver_scd30/bin/p-nucleo-wb55/auto_init/auto_init.o
 .comment       0x0000000000000059       0x5a /home/ch/RIOT/tests/driver_scd30/bin/p-nucleo-wb55/boards_common_nucleo/board_common_nucleo_init.o
 .comment       0x0000000000000059       0x5a /home/ch/RIOT/tests/driver_scd30/bin/p-nucleo-wb55/checksum/crc8.o
 .comment       0x0000000000000059       0x5a /home/ch/RIOT/tests/driver_scd30/bin/p-nucleo-wb55/core/init.o
 .comment       0x0000000000000059       0x5a /home/ch/RIOT/tests/driver_scd30/bin/p-nucleo-wb55/core/mutex.o
 .comment       0x0000000000000059       0x5a /home/ch/RIOT/tests/driver_scd30/bin/p-nucleo-wb55/core/panic.o
 .comment       0x0000000000000059       0x5a /home/ch/RIOT/tests/driver_scd30/bin/p-nucleo-wb55/core/sched.o
 .comment       0x0000000000000059       0x5a /home/ch/RIOT/tests/driver_scd30/bin/p-nucleo-wb55/core/thread.o
 .comment       0x0000000000000059       0x5a /home/ch/RIOT/tests/driver_scd30/bin/p-nucleo-wb55/cortexm_common/cortexm_init.o
 .comment       0x0000000000000059       0x5a /home/ch/RIOT/tests/driver_scd30/bin/p-nucleo-wb55/cortexm_common/panic.o
 .comment       0x0000000000000059       0x5a /home/ch/RIOT/tests/driver_scd30/bin/p-nucleo-wb55/cortexm_common/thread_arch.o
 .comment       0x0000000000000059       0x5a /home/ch/RIOT/tests/driver_scd30/bin/p-nucleo-wb55/cortexm_common/vectors_cortexm.o
 .comment       0x0000000000000059       0x5a /home/ch/RIOT/tests/driver_scd30/bin/p-nucleo-wb55/cpu/cpu_common.o
 .comment       0x0000000000000059       0x5a /home/ch/RIOT/tests/driver_scd30/bin/p-nucleo-wb55/cpu/cpu_init.o
 .comment       0x0000000000000059       0x5a /home/ch/RIOT/tests/driver_scd30/bin/p-nucleo-wb55/malloc_thread_safe/malloc_wrappers.o
 .comment       0x0000000000000059       0x5a /home/ch/RIOT/tests/driver_scd30/bin/p-nucleo-wb55/newlib_syscalls_default/syscalls.o
 .comment       0x0000000000000059       0x5a /home/ch/RIOT/tests/driver_scd30/bin/p-nucleo-wb55/periph_common/init.o
 .comment       0x0000000000000059       0x5a /home/ch/RIOT/tests/driver_scd30/bin/p-nucleo-wb55/periph/gpio_all.o
 .comment       0x0000000000000059       0x5a /home/ch/RIOT/tests/driver_scd30/bin/p-nucleo-wb55/periph/i2c_1.o
 .comment       0x0000000000000059       0x5a /home/ch/RIOT/tests/driver_scd30/bin/p-nucleo-wb55/periph/pm.o
 .comment       0x0000000000000059       0x5a /home/ch/RIOT/tests/driver_scd30/bin/p-nucleo-wb55/periph/timer.o
 .comment       0x0000000000000059       0x5a /home/ch/RIOT/tests/driver_scd30/bin/p-nucleo-wb55/periph/uart.o
 .comment       0x0000000000000059       0x5a /home/ch/RIOT/tests/driver_scd30/bin/p-nucleo-wb55/pm_layered/pm.o
 .comment       0x0000000000000059       0x5a /home/ch/RIOT/tests/driver_scd30/bin/p-nucleo-wb55/scd30/scd30.o
 .comment       0x0000000000000059       0x5a /home/ch/RIOT/tests/driver_scd30/bin/p-nucleo-wb55/stdio_uart/stdio_uart.o
 .comment       0x0000000000000059       0x5a /home/ch/RIOT/tests/driver_scd30/bin/p-nucleo-wb55/stm32_clk/stmclk_common.o
 .comment       0x0000000000000059       0x5a /home/ch/RIOT/tests/driver_scd30/bin/p-nucleo-wb55/stm32_clk/stmclk_l4wx.o
 .comment       0x0000000000000059       0x5a /home/ch/RIOT/tests/driver_scd30/bin/p-nucleo-wb55/stm32_vectors/STM32WB55xx.o
 .comment       0x0000000000000059       0x5a /home/ch/RIOT/tests/driver_scd30/bin/p-nucleo-wb55/xtimer/xtimer_core.o
 .comment       0x0000000000000059       0x5a /home/ch/RIOT/tests/driver_scd30/bin/p-nucleo-wb55/xtimer/xtimer.o
 .comment       0x0000000000000059       0x5a /usr/lib/gcc/arm-none-eabi/9.2.1/thumb/v7e-m/nofp/libgcc.a(_udivmoddi4.o)
 .comment       0x0000000000000059       0x4e /usr/lib/gcc/arm-none-eabi/9.2.1/../../../arm-none-eabi/lib/thumb/v7e-m/nofp/libc_nano.a(lib_a-impure.o)
                                         0x4f (size before relaxing)
 .comment       0x00000000000000a7       0x4f /usr/lib/gcc/arm-none-eabi/9.2.1/../../../arm-none-eabi/lib/thumb/v7e-m/nofp/libc_nano.a(lib_a-init.o)
 .comment       0x00000000000000a7       0x4f /usr/lib/gcc/arm-none-eabi/9.2.1/../../../arm-none-eabi/lib/thumb/v7e-m/nofp/libc_nano.a(lib_a-malloc.o)
 .comment       0x00000000000000a7       0x4f /usr/lib/gcc/arm-none-eabi/9.2.1/../../../arm-none-eabi/lib/thumb/v7e-m/nofp/libc_nano.a(lib_a-memset.o)
 .comment       0x00000000000000a7       0x4f /usr/lib/gcc/arm-none-eabi/9.2.1/../../../arm-none-eabi/lib/thumb/v7e-m/nofp/libc_nano.a(lib_a-nano-freer.o)
 .comment       0x00000000000000a7       0x4f /usr/lib/gcc/arm-none-eabi/9.2.1/../../../arm-none-eabi/lib/thumb/v7e-m/nofp/libc_nano.a(lib_a-nano-mallocr.o)
 .comment       0x00000000000000a7       0x4f /usr/lib/gcc/arm-none-eabi/9.2.1/../../../arm-none-eabi/lib/thumb/v7e-m/nofp/libc_nano.a(lib_a-nano-vfprintf_float.o)
 .comment       0x00000000000000a7       0x4f /usr/lib/gcc/arm-none-eabi/9.2.1/../../../arm-none-eabi/lib/thumb/v7e-m/nofp/libc_nano.a(lib_a-nano-vfprintf_i.o)
 .comment       0x00000000000000a7       0x4f /usr/lib/gcc/arm-none-eabi/9.2.1/../../../arm-none-eabi/lib/thumb/v7e-m/nofp/libc_nano.a(lib_a-printf.o)
 .comment       0x00000000000000a7       0x4f /usr/lib/gcc/arm-none-eabi/9.2.1/../../../arm-none-eabi/lib/thumb/v7e-m/nofp/libc_nano.a(lib_a-puts.o)
 .comment       0x00000000000000a7       0x4f /usr/lib/gcc/arm-none-eabi/9.2.1/../../../arm-none-eabi/lib/thumb/v7e-m/nofp/libc_nano.a(lib_a-wbuf.o)
 .comment       0x00000000000000a7       0x4f /usr/lib/gcc/arm-none-eabi/9.2.1/../../../arm-none-eabi/lib/thumb/v7e-m/nofp/libc_nano.a(lib_a-wsetup.o)
 .comment       0x00000000000000a7       0x4f /usr/lib/gcc/arm-none-eabi/9.2.1/../../../arm-none-eabi/lib/thumb/v7e-m/nofp/libc_nano.a(lib_a-dtoa.o)
 .comment       0x00000000000000a7       0x4f /usr/lib/gcc/arm-none-eabi/9.2.1/../../../arm-none-eabi/lib/thumb/v7e-m/nofp/libc_nano.a(lib_a-fflush.o)
 .comment       0x00000000000000a7       0x4f /usr/lib/gcc/arm-none-eabi/9.2.1/../../../arm-none-eabi/lib/thumb/v7e-m/nofp/libc_nano.a(lib_a-findfp.o)
 .comment       0x00000000000000a7       0x4f /usr/lib/gcc/arm-none-eabi/9.2.1/../../../arm-none-eabi/lib/thumb/v7e-m/nofp/libc_nano.a(lib_a-fprintf.o)
 .comment       0x00000000000000a7       0x4f /usr/lib/gcc/arm-none-eabi/9.2.1/../../../arm-none-eabi/lib/thumb/v7e-m/nofp/libc_nano.a(lib_a-fwalk.o)
 .comment       0x00000000000000a7       0x4f /usr/lib/gcc/arm-none-eabi/9.2.1/../../../arm-none-eabi/lib/thumb/v7e-m/nofp/libc_nano.a(lib_a-localeconv.o)
 .comment       0x00000000000000a7       0x4f /usr/lib/gcc/arm-none-eabi/9.2.1/../../../arm-none-eabi/lib/thumb/v7e-m/nofp/libc_nano.a(lib_a-makebuf.o)
 .comment       0x00000000000000a7       0x4f /usr/lib/gcc/arm-none-eabi/9.2.1/../../../arm-none-eabi/lib/thumb/v7e-m/nofp/libc_nano.a(lib_a-mlock.o)
 .comment       0x00000000000000a7       0x4f /usr/lib/gcc/arm-none-eabi/9.2.1/../../../arm-none-eabi/lib/thumb/v7e-m/nofp/libc_nano.a(lib_a-mprec.o)
 .comment       0x00000000000000a7       0x4f /usr/lib/gcc/arm-none-eabi/9.2.1/../../../arm-none-eabi/lib/thumb/v7e-m/nofp/libc_nano.a(lib_a-nano-callocr.o)
 .comment       0x00000000000000a7       0x4f /usr/lib/gcc/arm-none-eabi/9.2.1/../../../arm-none-eabi/lib/thumb/v7e-m/nofp/libc_nano.a(lib_a-nano-reallocr.o)
 .comment       0x00000000000000a7       0x4f /usr/lib/gcc/arm-none-eabi/9.2.1/../../../arm-none-eabi/lib/thumb/v7e-m/nofp/libc_nano.a(lib_a-nano-vfprintf.o)
 .comment       0x00000000000000a7       0x4f /usr/lib/gcc/arm-none-eabi/9.2.1/../../../arm-none-eabi/lib/thumb/v7e-m/nofp/libc_nano.a(lib_a-stdio.o)
 .comment       0x00000000000000a7       0x4f /usr/lib/gcc/arm-none-eabi/9.2.1/../../../arm-none-eabi/lib/thumb/v7e-m/nofp/libc_nano.a(lib_a-assert.o)
 .comment       0x00000000000000a7       0x4f /usr/lib/gcc/arm-none-eabi/9.2.1/../../../arm-none-eabi/lib/thumb/v7e-m/nofp/libc_nano.a(lib_a-fvwrite.o)
 .comment       0x00000000000000a7       0x4f /usr/lib/gcc/arm-none-eabi/9.2.1/../../../arm-none-eabi/lib/thumb/v7e-m/nofp/libc_nano.a(lib_a-locale.o)
 .comment       0x00000000000000a7       0x4f /usr/lib/gcc/arm-none-eabi/9.2.1/../../../arm-none-eabi/lib/thumb/v7e-m/nofp/libc_nano.a(lib_a-mbtowc_r.o)
 .comment       0x00000000000000a7       0x4f /usr/lib/gcc/arm-none-eabi/9.2.1/../../../arm-none-eabi/lib/thumb/v7e-m/nofp/libc_nano.a(lib_a-memmove.o)
 .comment       0x00000000000000a7       0x4f /usr/lib/gcc/arm-none-eabi/9.2.1/../../../arm-none-eabi/lib/thumb/v7e-m/nofp/libc_nano.a(lib_a-nano-msizer.o)
 .comment       0x00000000000000a7       0x4f /usr/lib/gcc/arm-none-eabi/9.2.1/../../../arm-none-eabi/lib/thumb/v7e-m/nofp/libc_nano.a(lib_a-wctomb_r.o)
 .comment       0x00000000000000a7       0x4f /usr/lib/gcc/arm-none-eabi/9.2.1/../../../arm-none-eabi/lib/thumb/v7e-m/nofp/libc_nano.a(lib_a-abort.o)
 .comment       0x00000000000000a7       0x4f /usr/lib/gcc/arm-none-eabi/9.2.1/../../../arm-none-eabi/lib/thumb/v7e-m/nofp/libc_nano.a(lib_a-ctype_.o)
 .comment       0x00000000000000a7       0x4f /usr/lib/gcc/arm-none-eabi/9.2.1/../../../arm-none-eabi/lib/thumb/v7e-m/nofp/libc_nano.a(lib_a-signal.o)

.ARM.attributes
                0x0000000000000000       0x2c
 .ARM.attributes
                0x0000000000000000       0x2e /home/ch/RIOT/tests/driver_scd30/bin/p-nucleo-wb55/application_tests_driver_scd30/main.o
 .ARM.attributes
                0x000000000000002e       0x2e /home/ch/RIOT/tests/driver_scd30/bin/p-nucleo-wb55/auto_init/auto_init.o
 .ARM.attributes
                0x000000000000005c       0x2e /home/ch/RIOT/tests/driver_scd30/bin/p-nucleo-wb55/boards_common_nucleo/board_common_nucleo_init.o
 .ARM.attributes
                0x000000000000008a       0x2e /home/ch/RIOT/tests/driver_scd30/bin/p-nucleo-wb55/checksum/crc8.o
 .ARM.attributes
                0x00000000000000b8       0x2e /home/ch/RIOT/tests/driver_scd30/bin/p-nucleo-wb55/core/init.o
 .ARM.attributes
                0x00000000000000e6       0x2e /home/ch/RIOT/tests/driver_scd30/bin/p-nucleo-wb55/core/mutex.o
 .ARM.attributes
                0x0000000000000114       0x2e /home/ch/RIOT/tests/driver_scd30/bin/p-nucleo-wb55/core/panic.o
 .ARM.attributes
                0x0000000000000142       0x2e /home/ch/RIOT/tests/driver_scd30/bin/p-nucleo-wb55/core/sched.o
 .ARM.attributes
                0x0000000000000170       0x2e /home/ch/RIOT/tests/driver_scd30/bin/p-nucleo-wb55/core/thread.o
 .ARM.attributes
                0x000000000000019e       0x2e /home/ch/RIOT/tests/driver_scd30/bin/p-nucleo-wb55/cortexm_common/cortexm_init.o
 .ARM.attributes
                0x00000000000001cc       0x2e /home/ch/RIOT/tests/driver_scd30/bin/p-nucleo-wb55/cortexm_common/panic.o
 .ARM.attributes
                0x00000000000001fa       0x2e /home/ch/RIOT/tests/driver_scd30/bin/p-nucleo-wb55/cortexm_common/thread_arch.o
 .ARM.attributes
                0x0000000000000228       0x2e /home/ch/RIOT/tests/driver_scd30/bin/p-nucleo-wb55/cortexm_common/vectors_cortexm.o
 .ARM.attributes
                0x0000000000000256       0x2e /home/ch/RIOT/tests/driver_scd30/bin/p-nucleo-wb55/cpu/cpu_common.o
 .ARM.attributes
                0x0000000000000284       0x2e /home/ch/RIOT/tests/driver_scd30/bin/p-nucleo-wb55/cpu/cpu_init.o
 .ARM.attributes
                0x00000000000002b2       0x2e /home/ch/RIOT/tests/driver_scd30/bin/p-nucleo-wb55/malloc_thread_safe/malloc_wrappers.o
 .ARM.attributes
                0x00000000000002e0       0x2e /home/ch/RIOT/tests/driver_scd30/bin/p-nucleo-wb55/newlib_syscalls_default/syscalls.o
 .ARM.attributes
                0x000000000000030e       0x2e /home/ch/RIOT/tests/driver_scd30/bin/p-nucleo-wb55/periph_common/init.o
 .ARM.attributes
                0x000000000000033c       0x2e /home/ch/RIOT/tests/driver_scd30/bin/p-nucleo-wb55/periph/gpio_all.o
 .ARM.attributes
                0x000000000000036a       0x2e /home/ch/RIOT/tests/driver_scd30/bin/p-nucleo-wb55/periph/i2c_1.o
 .ARM.attributes
                0x0000000000000398       0x2e /home/ch/RIOT/tests/driver_scd30/bin/p-nucleo-wb55/periph/pm.o
 .ARM.attributes
                0x00000000000003c6       0x2e /home/ch/RIOT/tests/driver_scd30/bin/p-nucleo-wb55/periph/timer.o
 .ARM.attributes
                0x00000000000003f4       0x2e /home/ch/RIOT/tests/driver_scd30/bin/p-nucleo-wb55/periph/uart.o
 .ARM.attributes
                0x0000000000000422       0x2e /home/ch/RIOT/tests/driver_scd30/bin/p-nucleo-wb55/pm_layered/pm.o
 .ARM.attributes
                0x0000000000000450       0x2e /home/ch/RIOT/tests/driver_scd30/bin/p-nucleo-wb55/scd30/scd30.o
 .ARM.attributes
                0x000000000000047e       0x2e /home/ch/RIOT/tests/driver_scd30/bin/p-nucleo-wb55/stdio_uart/stdio_uart.o
 .ARM.attributes
                0x00000000000004ac       0x2e /home/ch/RIOT/tests/driver_scd30/bin/p-nucleo-wb55/stm32_clk/stmclk_common.o
 .ARM.attributes
                0x00000000000004da       0x2e /home/ch/RIOT/tests/driver_scd30/bin/p-nucleo-wb55/stm32_clk/stmclk_l4wx.o
 .ARM.attributes
                0x0000000000000508       0x2e /home/ch/RIOT/tests/driver_scd30/bin/p-nucleo-wb55/stm32_vectors/STM32WB55xx.o
 .ARM.attributes
                0x0000000000000536       0x2e /home/ch/RIOT/tests/driver_scd30/bin/p-nucleo-wb55/xtimer/xtimer_core.o
 .ARM.attributes
                0x0000000000000564       0x2e /home/ch/RIOT/tests/driver_scd30/bin/p-nucleo-wb55/xtimer/xtimer.o
 .ARM.attributes
                0x0000000000000592       0x1e /usr/lib/gcc/arm-none-eabi/9.2.1/thumb/v7e-m/nofp/libgcc.a(_arm_addsubdf3.o)
 .ARM.attributes
                0x00000000000005b0       0x1e /usr/lib/gcc/arm-none-eabi/9.2.1/thumb/v7e-m/nofp/libgcc.a(_aeabi_uldivmod.o)
 .ARM.attributes
                0x00000000000005ce       0x2e /usr/lib/gcc/arm-none-eabi/9.2.1/thumb/v7e-m/nofp/libgcc.a(_udivmoddi4.o)
 .ARM.attributes
                0x00000000000005fc       0x1e /usr/lib/gcc/arm-none-eabi/9.2.1/thumb/v7e-m/nofp/libgcc.a(_dvmd_tls.o)
 .ARM.attributes
                0x000000000000061a       0x2e /usr/lib/gcc/arm-none-eabi/9.2.1/../../../arm-none-eabi/lib/thumb/v7e-m/nofp/libc_nano.a(lib_a-impure.o)
 .ARM.attributes
                0x0000000000000648       0x2e /usr/lib/gcc/arm-none-eabi/9.2.1/../../../arm-none-eabi/lib/thumb/v7e-m/nofp/libc_nano.a(lib_a-init.o)
 .ARM.attributes
                0x0000000000000676       0x2e /usr/lib/gcc/arm-none-eabi/9.2.1/../../../arm-none-eabi/lib/thumb/v7e-m/nofp/libc_nano.a(lib_a-malloc.o)
 .ARM.attributes
                0x00000000000006a4       0x1c /usr/lib/gcc/arm-none-eabi/9.2.1/../../../arm-none-eabi/lib/thumb/v7e-m/nofp/libc_nano.a(lib_a-memcpy.o)
 .ARM.attributes
                0x00000000000006c0       0x2e /usr/lib/gcc/arm-none-eabi/9.2.1/../../../arm-none-eabi/lib/thumb/v7e-m/nofp/libc_nano.a(lib_a-memset.o)
 .ARM.attributes
                0x00000000000006ee       0x2e /usr/lib/gcc/arm-none-eabi/9.2.1/../../../arm-none-eabi/lib/thumb/v7e-m/nofp/libc_nano.a(lib_a-nano-freer.o)
 .ARM.attributes
                0x000000000000071c       0x2e /usr/lib/gcc/arm-none-eabi/9.2.1/../../../arm-none-eabi/lib/thumb/v7e-m/nofp/libc_nano.a(lib_a-nano-mallocr.o)
 .ARM.attributes
                0x000000000000074a       0x2e /usr/lib/gcc/arm-none-eabi/9.2.1/../../../arm-none-eabi/lib/thumb/v7e-m/nofp/libc_nano.a(lib_a-nano-vfprintf_float.o)
 .ARM.attributes
                0x0000000000000778       0x2e /usr/lib/gcc/arm-none-eabi/9.2.1/../../../arm-none-eabi/lib/thumb/v7e-m/nofp/libc_nano.a(lib_a-nano-vfprintf_i.o)
 .ARM.attributes
                0x00000000000007a6       0x2e /usr/lib/gcc/arm-none-eabi/9.2.1/../../../arm-none-eabi/lib/thumb/v7e-m/nofp/libc_nano.a(lib_a-printf.o)
 .ARM.attributes
                0x00000000000007d4       0x2e /usr/lib/gcc/arm-none-eabi/9.2.1/../../../arm-none-eabi/lib/thumb/v7e-m/nofp/libc_nano.a(lib_a-puts.o)
 .ARM.attributes
                0x0000000000000802       0x1c /usr/lib/gcc/arm-none-eabi/9.2.1/../../../arm-none-eabi/lib/thumb/v7e-m/nofp/libc_nano.a(lib_a-strlen.o)
 .ARM.attributes
                0x000000000000081e       0x2e /usr/lib/gcc/arm-none-eabi/9.2.1/../../../arm-none-eabi/lib/thumb/v7e-m/nofp/libc_nano.a(lib_a-wbuf.o)
 .ARM.attributes
                0x000000000000084c       0x2e /usr/lib/gcc/arm-none-eabi/9.2.1/../../../arm-none-eabi/lib/thumb/v7e-m/nofp/libc_nano.a(lib_a-wsetup.o)
 .ARM.attributes
                0x000000000000087a       0x2e /usr/lib/gcc/arm-none-eabi/9.2.1/../../../arm-none-eabi/lib/thumb/v7e-m/nofp/libc_nano.a(lib_a-dtoa.o)
 .ARM.attributes
                0x00000000000008a8       0x2e /usr/lib/gcc/arm-none-eabi/9.2.1/../../../arm-none-eabi/lib/thumb/v7e-m/nofp/libc_nano.a(lib_a-fflush.o)
 .ARM.attributes
                0x00000000000008d6       0x2e /usr/lib/gcc/arm-none-eabi/9.2.1/../../../arm-none-eabi/lib/thumb/v7e-m/nofp/libc_nano.a(lib_a-findfp.o)
 .ARM.attributes
                0x0000000000000904       0x2e /usr/lib/gcc/arm-none-eabi/9.2.1/../../../arm-none-eabi/lib/thumb/v7e-m/nofp/libc_nano.a(lib_a-fprintf.o)
 .ARM.attributes
                0x0000000000000932       0x2e /usr/lib/gcc/arm-none-eabi/9.2.1/../../../arm-none-eabi/lib/thumb/v7e-m/nofp/libc_nano.a(lib_a-fwalk.o)
 .ARM.attributes
                0x0000000000000960       0x2e /usr/lib/gcc/arm-none-eabi/9.2.1/../../../arm-none-eabi/lib/thumb/v7e-m/nofp/libc_nano.a(lib_a-localeconv.o)
 .ARM.attributes
                0x000000000000098e       0x2e /usr/lib/gcc/arm-none-eabi/9.2.1/../../../arm-none-eabi/lib/thumb/v7e-m/nofp/libc_nano.a(lib_a-makebuf.o)
 .ARM.attributes
                0x00000000000009bc       0x1c /usr/lib/gcc/arm-none-eabi/9.2.1/../../../arm-none-eabi/lib/thumb/v7e-m/nofp/libc_nano.a(lib_a-memchr.o)
 .ARM.attributes
                0x00000000000009d8       0x2e /usr/lib/gcc/arm-none-eabi/9.2.1/../../../arm-none-eabi/lib/thumb/v7e-m/nofp/libc_nano.a(lib_a-mlock.o)
 .ARM.attributes
                0x0000000000000a06       0x2e /usr/lib/gcc/arm-none-eabi/9.2.1/../../../arm-none-eabi/lib/thumb/v7e-m/nofp/libc_nano.a(lib_a-mprec.o)
 .ARM.attributes
                0x0000000000000a34       0x2e /usr/lib/gcc/arm-none-eabi/9.2.1/../../../arm-none-eabi/lib/thumb/v7e-m/nofp/libc_nano.a(lib_a-nano-callocr.o)
 .ARM.attributes
                0x0000000000000a62       0x2e /usr/lib/gcc/arm-none-eabi/9.2.1/../../../arm-none-eabi/lib/thumb/v7e-m/nofp/libc_nano.a(lib_a-nano-reallocr.o)
 .ARM.attributes
                0x0000000000000a90       0x2e /usr/lib/gcc/arm-none-eabi/9.2.1/../../../arm-none-eabi/lib/thumb/v7e-m/nofp/libc_nano.a(lib_a-nano-vfprintf.o)
 .ARM.attributes
                0x0000000000000abe       0x2e /usr/lib/gcc/arm-none-eabi/9.2.1/../../../arm-none-eabi/lib/thumb/v7e-m/nofp/libc_nano.a(lib_a-stdio.o)
 .ARM.attributes
                0x0000000000000aec       0x2e /usr/lib/gcc/arm-none-eabi/9.2.1/../../../arm-none-eabi/lib/thumb/v7e-m/nofp/libc_nano.a(lib_a-assert.o)
 .ARM.attributes
                0x0000000000000b1a       0x2e /usr/lib/gcc/arm-none-eabi/9.2.1/../../../arm-none-eabi/lib/thumb/v7e-m/nofp/libc_nano.a(lib_a-fvwrite.o)
 .ARM.attributes
                0x0000000000000b48       0x2e /usr/lib/gcc/arm-none-eabi/9.2.1/../../../arm-none-eabi/lib/thumb/v7e-m/nofp/libc_nano.a(lib_a-locale.o)
 .ARM.attributes
                0x0000000000000b76       0x2e /usr/lib/gcc/arm-none-eabi/9.2.1/../../../arm-none-eabi/lib/thumb/v7e-m/nofp/libc_nano.a(lib_a-mbtowc_r.o)
 .ARM.attributes
                0x0000000000000ba4       0x2e /usr/lib/gcc/arm-none-eabi/9.2.1/../../../arm-none-eabi/lib/thumb/v7e-m/nofp/libc_nano.a(lib_a-memmove.o)
 .ARM.attributes
                0x0000000000000bd2       0x2e /usr/lib/gcc/arm-none-eabi/9.2.1/../../../arm-none-eabi/lib/thumb/v7e-m/nofp/libc_nano.a(lib_a-nano-msizer.o)
 .ARM.attributes
                0x0000000000000c00       0x2e /usr/lib/gcc/arm-none-eabi/9.2.1/../../../arm-none-eabi/lib/thumb/v7e-m/nofp/libc_nano.a(lib_a-wctomb_r.o)
 .ARM.attributes
                0x0000000000000c2e       0x2e /usr/lib/gcc/arm-none-eabi/9.2.1/../../../arm-none-eabi/lib/thumb/v7e-m/nofp/libc_nano.a(lib_a-abort.o)
 .ARM.attributes
                0x0000000000000c5c       0x2e /usr/lib/gcc/arm-none-eabi/9.2.1/../../../arm-none-eabi/lib/thumb/v7e-m/nofp/libc_nano.a(lib_a-ctype_.o)
 .ARM.attributes
                0x0000000000000c8a       0x2e /usr/lib/gcc/arm-none-eabi/9.2.1/../../../arm-none-eabi/lib/thumb/v7e-m/nofp/libc_nano.a(lib_a-signal.o)
 .ARM.attributes
                0x0000000000000cb8       0x1e /usr/lib/gcc/arm-none-eabi/9.2.1/thumb/v7e-m/nofp/libgcc.a(_arm_muldivdf3.o)
 .ARM.attributes
                0x0000000000000cd6       0x1e /usr/lib/gcc/arm-none-eabi/9.2.1/thumb/v7e-m/nofp/libgcc.a(_arm_cmpdf2.o)
 .ARM.attributes
                0x0000000000000cf4       0x1e /usr/lib/gcc/arm-none-eabi/9.2.1/thumb/v7e-m/nofp/libgcc.a(_arm_unorddf2.o)
 .ARM.attributes
                0x0000000000000d12       0x1e /usr/lib/gcc/arm-none-eabi/9.2.1/thumb/v7e-m/nofp/libgcc.a(_arm_fixdfsi.o)

.debug_frame    0x0000000000000000     0x2584
 .debug_frame   0x0000000000000000       0x4c /home/ch/RIOT/tests/driver_scd30/bin/p-nucleo-wb55/application_tests_driver_scd30/main.o
 .debug_frame   0x000000000000004c       0x20 /home/ch/RIOT/tests/driver_scd30/bin/p-nucleo-wb55/auto_init/auto_init.o
 .debug_frame   0x000000000000006c       0x4c /home/ch/RIOT/tests/driver_scd30/bin/p-nucleo-wb55/boards_common_nucleo/board_common_nucleo_init.o
 .debug_frame   0x00000000000000b8       0x2c /home/ch/RIOT/tests/driver_scd30/bin/p-nucleo-wb55/checksum/crc8.o
 .debug_frame   0x00000000000000e4       0x50 /home/ch/RIOT/tests/driver_scd30/bin/p-nucleo-wb55/core/init.o
