Archive member included to satisfy reference by file (symbol)

/usr/lib/gcc/arm-none-eabi/9.2.1/thumb/v7e-m/nofp/libgcc.a(_arm_addsubdf3.o)
                              /home/ch/RIOT/tests/driver_scd30/bin/lora-e5-dev/application_tests_driver_scd30/main.o (__aeabi_f2d)
/usr/lib/gcc/arm-none-eabi/9.2.1/../../../arm-none-eabi/lib/thumb/v7e-m/nofp/libc_nano.a(lib_a-errno.o)
                              /home/ch/RIOT/tests/driver_scd30/bin/lora-e5-dev/newlib_syscalls_default/syscalls.o (__errno)
/usr/lib/gcc/arm-none-eabi/9.2.1/../../../arm-none-eabi/lib/thumb/v7e-m/nofp/libc_nano.a(lib_a-impure.o)
                              /usr/lib/gcc/arm-none-eabi/9.2.1/../../../arm-none-eabi/lib/thumb/v7e-m/nofp/libc_nano.a(lib_a-errno.o) (_impure_ptr)
/usr/lib/gcc/arm-none-eabi/9.2.1/../../../arm-none-eabi/lib/thumb/v7e-m/nofp/libc_nano.a(lib_a-init.o)
                              /home/ch/RIOT/tests/driver_scd30/bin/lora-e5-dev/cortexm_common/vectors_cortexm.o (__libc_init_array)
/usr/lib/gcc/arm-none-eabi/9.2.1/../../../arm-none-eabi/lib/thumb/v7e-m/nofp/libc_nano.a(lib_a-malloc.o)
                              /home/ch/RIOT/tests/driver_scd30/bin/lora-e5-dev/malloc_thread_safe/malloc_wrappers.o (malloc)
/usr/lib/gcc/arm-none-eabi/9.2.1/../../../arm-none-eabi/lib/thumb/v7e-m/nofp/libc_nano.a(lib_a-memcmp.o)
                              /home/ch/RIOT/tests/driver_scd30/bin/lora-e5-dev/core/atomic_c11.o (memcmp)
/usr/lib/gcc/arm-none-eabi/9.2.1/../../../arm-none-eabi/lib/thumb/v7e-m/nofp/libc_nano.a(lib_a-memcpy.o)
                              /home/ch/RIOT/tests/driver_scd30/bin/lora-e5-dev/core/atomic_c11.o (memcpy)
/usr/lib/gcc/arm-none-eabi/9.2.1/../../../arm-none-eabi/lib/thumb/v7e-m/nofp/libc_nano.a(lib_a-memset.o)
                              /home/ch/RIOT/tests/driver_scd30/bin/lora-e5-dev/malloc_thread_safe/malloc_wrappers.o (memset)
/usr/lib/gcc/arm-none-eabi/9.2.1/../../../arm-none-eabi/lib/thumb/v7e-m/nofp/libc_nano.a(lib_a-mstats.o)
                              /home/ch/RIOT/tests/driver_scd30/bin/lora-e5-dev/newlib_syscalls_default/syscalls.o (mallinfo)
/usr/lib/gcc/arm-none-eabi/9.2.1/../../../arm-none-eabi/lib/thumb/v7e-m/nofp/libc_nano.a(lib_a-nano-freer.o)
                              /usr/lib/gcc/arm-none-eabi/9.2.1/../../../arm-none-eabi/lib/thumb/v7e-m/nofp/libc_nano.a(lib_a-malloc.o) (_free_r)
/usr/lib/gcc/arm-none-eabi/9.2.1/../../../arm-none-eabi/lib/thumb/v7e-m/nofp/libc_nano.a(lib_a-nano-mallinfor.o)
                              /usr/lib/gcc/arm-none-eabi/9.2.1/../../../arm-none-eabi/lib/thumb/v7e-m/nofp/libc_nano.a(lib_a-mstats.o) (_mallinfo_r)
/usr/lib/gcc/arm-none-eabi/9.2.1/../../../arm-none-eabi/lib/thumb/v7e-m/nofp/libc_nano.a(lib_a-nano-mallocr.o)
                              /usr/lib/gcc/arm-none-eabi/9.2.1/../../../arm-none-eabi/lib/thumb/v7e-m/nofp/libc_nano.a(lib_a-malloc.o) (_malloc_r)
/usr/lib/gcc/arm-none-eabi/9.2.1/../../../arm-none-eabi/lib/thumb/v7e-m/nofp/libc_nano.a(lib_a-nano-malloptr.o)
                              /usr/lib/gcc/arm-none-eabi/9.2.1/../../../arm-none-eabi/lib/thumb/v7e-m/nofp/libc_nano.a(lib_a-mstats.o) (_mallopt_r)
/usr/lib/gcc/arm-none-eabi/9.2.1/../../../arm-none-eabi/lib/thumb/v7e-m/nofp/libc_nano.a(lib_a-nano-mallstatsr.o)
                              /usr/lib/gcc/arm-none-eabi/9.2.1/../../../arm-none-eabi/lib/thumb/v7e-m/nofp/libc_nano.a(lib_a-mstats.o) (_malloc_stats_r)
/usr/lib/gcc/arm-none-eabi/9.2.1/../../../arm-none-eabi/lib/thumb/v7e-m/nofp/libc_nano.a(lib_a-nano-vfprintf_float.o)
                              (_printf_float)
/usr/lib/gcc/arm-none-eabi/9.2.1/../../../arm-none-eabi/lib/thumb/v7e-m/nofp/libc_nano.a(lib_a-nano-vfprintf_i.o)
                              /usr/lib/gcc/arm-none-eabi/9.2.1/../../../arm-none-eabi/lib/thumb/v7e-m/nofp/libc_nano.a(lib_a-nano-vfprintf_float.o) (_printf_common)
/usr/lib/gcc/arm-none-eabi/9.2.1/../../../arm-none-eabi/lib/thumb/v7e-m/nofp/libc_nano.a(lib_a-printf.o)
                              /home/ch/RIOT/tests/driver_scd30/bin/lora-e5-dev/application_tests_driver_scd30/main.o (printf)
/usr/lib/gcc/arm-none-eabi/9.2.1/../../../arm-none-eabi/lib/thumb/v7e-m/nofp/libc_nano.a(lib_a-puts.o)
                              /home/ch/RIOT/tests/driver_scd30/bin/lora-e5-dev/cortexm_common/vectors_cortexm.o (puts)
/usr/lib/gcc/arm-none-eabi/9.2.1/../../../arm-none-eabi/lib/thumb/v7e-m/nofp/libc_nano.a(lib_a-realloc.o)
                              /home/ch/RIOT/tests/driver_scd30/bin/lora-e5-dev/malloc_thread_safe/malloc_wrappers.o (realloc)
/usr/lib/gcc/arm-none-eabi/9.2.1/../../../arm-none-eabi/lib/thumb/v7e-m/nofp/libc_nano.a(lib_a-strlen.o)
                              /usr/lib/gcc/arm-none-eabi/9.2.1/../../../arm-none-eabi/lib/thumb/v7e-m/nofp/libc_nano.a(lib_a-nano-vfprintf_float.o) (strlen)
/usr/lib/gcc/arm-none-eabi/9.2.1/../../../arm-none-eabi/lib/thumb/v7e-m/nofp/libc_nano.a(lib_a-wbuf.o)
                              /usr/lib/gcc/arm-none-eabi/9.2.1/../../../arm-none-eabi/lib/thumb/v7e-m/nofp/libc_nano.a(lib_a-puts.o) (__swbuf_r)
/usr/lib/gcc/arm-none-eabi/9.2.1/../../../arm-none-eabi/lib/thumb/v7e-m/nofp/libc_nano.a(lib_a-wsetup.o)
                              /usr/lib/gcc/arm-none-eabi/9.2.1/../../../arm-none-eabi/lib/thumb/v7e-m/nofp/libc_nano.a(lib_a-puts.o) (__swsetup_r)
/usr/lib/gcc/arm-none-eabi/9.2.1/../../../arm-none-eabi/lib/thumb/v7e-m/nofp/libc_nano.a(lib_a-dtoa.o)
                              /usr/lib/gcc/arm-none-eabi/9.2.1/../../../arm-none-eabi/lib/thumb/v7e-m/nofp/libc_nano.a(lib_a-nano-vfprintf_float.o) (_dtoa_r)
/usr/lib/gcc/arm-none-eabi/9.2.1/../../../arm-none-eabi/lib/thumb/v7e-m/nofp/libc_nano.a(lib_a-fflush.o)
                              /usr/lib/gcc/arm-none-eabi/9.2.1/../../../arm-none-eabi/lib/thumb/v7e-m/nofp/libc_nano.a(lib_a-wbuf.o) (_fflush_r)
/usr/lib/gcc/arm-none-eabi/9.2.1/../../../arm-none-eabi/lib/thumb/v7e-m/nofp/libc_nano.a(lib_a-findfp.o)
                              /usr/lib/gcc/arm-none-eabi/9.2.1/../../../arm-none-eabi/lib/thumb/v7e-m/nofp/libc_nano.a(lib_a-mstats.o) (__sinit)
/usr/lib/gcc/arm-none-eabi/9.2.1/../../../arm-none-eabi/lib/thumb/v7e-m/nofp/libc_nano.a(lib_a-fprintf.o)
                              /usr/lib/gcc/arm-none-eabi/9.2.1/../../../arm-none-eabi/lib/thumb/v7e-m/nofp/libc_nano.a(lib_a-mstats.o) (fiprintf)
/usr/lib/gcc/arm-none-eabi/9.2.1/../../../arm-none-eabi/lib/thumb/v7e-m/nofp/libc_nano.a(lib_a-fwalk.o)
                              /usr/lib/gcc/arm-none-eabi/9.2.1/../../../arm-none-eabi/lib/thumb/v7e-m/nofp/libc_nano.a(lib_a-findfp.o) (_fwalk)
/usr/lib/gcc/arm-none-eabi/9.2.1/../../../arm-none-eabi/lib/thumb/v7e-m/nofp/libc_nano.a(lib_a-localeconv.o)
                              /usr/lib/gcc/arm-none-eabi/9.2.1/../../../arm-none-eabi/lib/thumb/v7e-m/nofp/libc_nano.a(lib_a-nano-vfprintf_float.o) (_localeconv_r)
/usr/lib/gcc/arm-none-eabi/9.2.1/../../../arm-none-eabi/lib/thumb/v7e-m/nofp/libc_nano.a(lib_a-makebuf.o)
                              /usr/lib/gcc/arm-none-eabi/9.2.1/../../../arm-none-eabi/lib/thumb/v7e-m/nofp/libc_nano.a(lib_a-wsetup.o) (__smakebuf_r)
/usr/lib/gcc/arm-none-eabi/9.2.1/../../../arm-none-eabi/lib/thumb/v7e-m/nofp/libc_nano.a(lib_a-memchr.o)
                              /usr/lib/gcc/arm-none-eabi/9.2.1/../../../arm-none-eabi/lib/thumb/v7e-m/nofp/libc_nano.a(lib_a-nano-vfprintf_i.o) (memchr)
/usr/lib/gcc/arm-none-eabi/9.2.1/../../../arm-none-eabi/lib/thumb/v7e-m/nofp/libc_nano.a(lib_a-mlock.o)
                              /usr/lib/gcc/arm-none-eabi/9.2.1/../../../arm-none-eabi/lib/thumb/v7e-m/nofp/libc_nano.a(lib_a-nano-freer.o) (__malloc_lock)
/usr/lib/gcc/arm-none-eabi/9.2.1/../../../arm-none-eabi/lib/thumb/v7e-m/nofp/libc_nano.a(lib_a-mprec.o)
                              /usr/lib/gcc/arm-none-eabi/9.2.1/../../../arm-none-eabi/lib/thumb/v7e-m/nofp/libc_nano.a(lib_a-dtoa.o) (_Balloc)
/usr/lib/gcc/arm-none-eabi/9.2.1/../../../arm-none-eabi/lib/thumb/v7e-m/nofp/libc_nano.a(lib_a-nano-callocr.o)
                              /usr/lib/gcc/arm-none-eabi/9.2.1/../../../arm-none-eabi/lib/thumb/v7e-m/nofp/libc_nano.a(lib_a-mprec.o) (_calloc_r)
/usr/lib/gcc/arm-none-eabi/9.2.1/../../../arm-none-eabi/lib/thumb/v7e-m/nofp/libc_nano.a(lib_a-nano-reallocr.o)
                              /usr/lib/gcc/arm-none-eabi/9.2.1/../../../arm-none-eabi/lib/thumb/v7e-m/nofp/libc_nano.a(lib_a-realloc.o) (_realloc_r)
/usr/lib/gcc/arm-none-eabi/9.2.1/../../../arm-none-eabi/lib/thumb/v7e-m/nofp/libc_nano.a(lib_a-nano-vfprintf.o)
                              /usr/lib/gcc/arm-none-eabi/9.2.1/../../../arm-none-eabi/lib/thumb/v7e-m/nofp/libc_nano.a(lib_a-printf.o) (_vfprintf_r)
/usr/lib/gcc/arm-none-eabi/9.2.1/../../../arm-none-eabi/lib/thumb/v7e-m/nofp/libc_nano.a(lib_a-stdio.o)
                              /usr/lib/gcc/arm-none-eabi/9.2.1/../../../arm-none-eabi/lib/thumb/v7e-m/nofp/libc_nano.a(lib_a-findfp.o) (__sread)
/usr/lib/gcc/arm-none-eabi/9.2.1/../../../arm-none-eabi/lib/thumb/v7e-m/nofp/libc_nano.a(lib_a-assert.o)
                              /usr/lib/gcc/arm-none-eabi/9.2.1/../../../arm-none-eabi/lib/thumb/v7e-m/nofp/libc_nano.a(lib_a-dtoa.o) (__assert_func)
/usr/lib/gcc/arm-none-eabi/9.2.1/../../../arm-none-eabi/lib/thumb/v7e-m/nofp/libc_nano.a(lib_a-fvwrite.o)
                              /usr/lib/gcc/arm-none-eabi/9.2.1/../../../arm-none-eabi/lib/thumb/v7e-m/nofp/libc_nano.a(lib_a-nano-vfprintf.o) (__sfvwrite_r)
/usr/lib/gcc/arm-none-eabi/9.2.1/../../../arm-none-eabi/lib/thumb/v7e-m/nofp/libc_nano.a(lib_a-locale.o)
                              /usr/lib/gcc/arm-none-eabi/9.2.1/../../../arm-none-eabi/lib/thumb/v7e-m/nofp/libc_nano.a(lib_a-localeconv.o) (__global_locale)
/usr/lib/gcc/arm-none-eabi/9.2.1/../../../arm-none-eabi/lib/thumb/v7e-m/nofp/libc_nano.a(lib_a-mbtowc_r.o)
                              /usr/lib/gcc/arm-none-eabi/9.2.1/../../../arm-none-eabi/lib/thumb/v7e-m/nofp/libc_nano.a(lib_a-locale.o) (__ascii_mbtowc)
/usr/lib/gcc/arm-none-eabi/9.2.1/../../../arm-none-eabi/lib/thumb/v7e-m/nofp/libc_nano.a(lib_a-memmove.o)
                              /usr/lib/gcc/arm-none-eabi/9.2.1/../../../arm-none-eabi/lib/thumb/v7e-m/nofp/libc_nano.a(lib_a-fvwrite.o) (memmove)
/usr/lib/gcc/arm-none-eabi/9.2.1/../../../arm-none-eabi/lib/thumb/v7e-m/nofp/libc_nano.a(lib_a-nano-msizer.o)
                              /usr/lib/gcc/arm-none-eabi/9.2.1/../../../arm-none-eabi/lib/thumb/v7e-m/nofp/libc_nano.a(lib_a-nano-reallocr.o) (_malloc_usable_size_r)
/usr/lib/gcc/arm-none-eabi/9.2.1/../../../arm-none-eabi/lib/thumb/v7e-m/nofp/libc_nano.a(lib_a-strcmp.o)
                              /usr/lib/gcc/arm-none-eabi/9.2.1/../../../arm-none-eabi/lib/thumb/v7e-m/nofp/libc_nano.a(lib_a-locale.o) (strcmp)
/usr/lib/gcc/arm-none-eabi/9.2.1/../../../arm-none-eabi/lib/thumb/v7e-m/nofp/libc_nano.a(lib_a-wctomb_r.o)
                              /usr/lib/gcc/arm-none-eabi/9.2.1/../../../arm-none-eabi/lib/thumb/v7e-m/nofp/libc_nano.a(lib_a-locale.o) (__ascii_wctomb)
/usr/lib/gcc/arm-none-eabi/9.2.1/../../../arm-none-eabi/lib/thumb/v7e-m/nofp/libc_nano.a(lib_a-abort.o)
                              /usr/lib/gcc/arm-none-eabi/9.2.1/../../../arm-none-eabi/lib/thumb/v7e-m/nofp/libc_nano.a(lib_a-assert.o) (abort)
/usr/lib/gcc/arm-none-eabi/9.2.1/../../../arm-none-eabi/lib/thumb/v7e-m/nofp/libc_nano.a(lib_a-ctype_.o)
                              /usr/lib/gcc/arm-none-eabi/9.2.1/../../../arm-none-eabi/lib/thumb/v7e-m/nofp/libc_nano.a(lib_a-locale.o) (_ctype_)
/usr/lib/gcc/arm-none-eabi/9.2.1/../../../arm-none-eabi/lib/thumb/v7e-m/nofp/libc_nano.a(lib_a-signal.o)
                              /usr/lib/gcc/arm-none-eabi/9.2.1/../../../arm-none-eabi/lib/thumb/v7e-m/nofp/libc_nano.a(lib_a-abort.o) (raise)
/usr/lib/gcc/arm-none-eabi/9.2.1/thumb/v7e-m/nofp/libgcc.a(_arm_muldf3.o)
                              /usr/lib/gcc/arm-none-eabi/9.2.1/../../../arm-none-eabi/lib/thumb/v7e-m/nofp/libc_nano.a(lib_a-dtoa.o) (__aeabi_dmul)
/usr/lib/gcc/arm-none-eabi/9.2.1/thumb/v7e-m/nofp/libgcc.a(_arm_muldivdf3.o)
                              /usr/lib/gcc/arm-none-eabi/9.2.1/../../../arm-none-eabi/lib/thumb/v7e-m/nofp/libc_nano.a(lib_a-dtoa.o) (__aeabi_ddiv)
/usr/lib/gcc/arm-none-eabi/9.2.1/thumb/v7e-m/nofp/libgcc.a(_arm_cmpdf2.o)
                              /usr/lib/gcc/arm-none-eabi/9.2.1/../../../arm-none-eabi/lib/thumb/v7e-m/nofp/libc_nano.a(lib_a-nano-vfprintf_float.o) (__aeabi_dcmpeq)
/usr/lib/gcc/arm-none-eabi/9.2.1/thumb/v7e-m/nofp/libgcc.a(_arm_unorddf2.o)
                              /usr/lib/gcc/arm-none-eabi/9.2.1/../../../arm-none-eabi/lib/thumb/v7e-m/nofp/libc_nano.a(lib_a-nano-vfprintf_float.o) (__aeabi_dcmpun)
/usr/lib/gcc/arm-none-eabi/9.2.1/thumb/v7e-m/nofp/libgcc.a(_arm_fixdfsi.o)
                              /usr/lib/gcc/arm-none-eabi/9.2.1/../../../arm-none-eabi/lib/thumb/v7e-m/nofp/libc_nano.a(lib_a-dtoa.o) (__aeabi_d2iz)

Discarded input sections

 .group         0x0000000000000000        0xc /home/ch/RIOT/tests/driver_scd30/bin/lora-e5-dev/application_tests_driver_scd30/main.o
 .group         0x0000000000000000        0xc /home/ch/RIOT/tests/driver_scd30/bin/lora-e5-dev/application_tests_driver_scd30/main.o
 .group         0x0000000000000000        0xc /home/ch/RIOT/tests/driver_scd30/bin/lora-e5-dev/application_tests_driver_scd30/main.o
 .group         0x0000000000000000        0xc /home/ch/RIOT/tests/driver_scd30/bin/lora-e5-dev/application_tests_driver_scd30/main.o
 .group         0x0000000000000000        0xc /home/ch/RIOT/tests/driver_scd30/bin/lora-e5-dev/application_tests_driver_scd30/main.o
 .group         0x0000000000000000        0xc /home/ch/RIOT/tests/driver_scd30/bin/lora-e5-dev/application_tests_driver_scd30/main.o
 .group         0x0000000000000000        0xc /home/ch/RIOT/tests/driver_scd30/bin/lora-e5-dev/application_tests_driver_scd30/main.o
 .group         0x0000000000000000        0xc /home/ch/RIOT/tests/driver_scd30/bin/lora-e5-dev/application_tests_driver_scd30/main.o
 .group         0x0000000000000000        0xc /home/ch/RIOT/tests/driver_scd30/bin/lora-e5-dev/application_tests_driver_scd30/main.o
 .group         0x0000000000000000        0xc /home/ch/RIOT/tests/driver_scd30/bin/lora-e5-dev/application_tests_driver_scd30/main.o
 .group         0x0000000000000000        0xc /home/ch/RIOT/tests/driver_scd30/bin/lora-e5-dev/application_tests_driver_scd30/main.o
 .group         0x0000000000000000        0xc /home/ch/RIOT/tests/driver_scd30/bin/lora-e5-dev/application_tests_driver_scd30/main.o
 .group         0x0000000000000000        0xc /home/ch/RIOT/tests/driver_scd30/bin/lora-e5-dev/application_tests_driver_scd30/main.o
 .group         0x0000000000000000        0xc /home/ch/RIOT/tests/driver_scd30/bin/lora-e5-dev/application_tests_driver_scd30/main.o
 .group         0x0000000000000000        0xc /home/ch/RIOT/tests/driver_scd30/bin/lora-e5-dev/application_tests_driver_scd30/main.o
 .group         0x0000000000000000        0xc /home/ch/RIOT/tests/driver_scd30/bin/lora-e5-dev/application_tests_driver_scd30/main.o
 .group         0x0000000000000000        0xc /home/ch/RIOT/tests/driver_scd30/bin/lora-e5-dev/application_tests_driver_scd30/main.o
 .group         0x0000000000000000        0xc /home/ch/RIOT/tests/driver_scd30/bin/lora-e5-dev/application_tests_driver_scd30/main.o
Memory Configuration

Name             Origin             Length             Attributes
ccmram           0x0000000010000000 0x0000000000000000
sram4            0x0000000028000000 0x0000000000000000
rom              0x0000000008000000 0x0000000000040000 xr
ram              0x0000000020000000 0x0000000000010000 w !xr
bkup_ram         0x0000000000000000 0x0000000000000000 w !xr
*default*        0x0000000000000000 0xffffffffffffffff

Linker script and memory map

LOAD /home/ch/RIOT/tests/driver_scd30/bin/lora-e5-dev/application_tests_driver_scd30/main.o
LOAD /home/ch/RIOT/tests/driver_scd30/bin/lora-e5-dev/auto_init/auto_init.o
LOAD /home/ch/RIOT/tests/driver_scd30/bin/lora-e5-dev/board/board.o
LOAD /home/ch/RIOT/tests/driver_scd30/bin/lora-e5-dev/checksum/crc16_ccitt.o
LOAD /home/ch/RIOT/tests/driver_scd30/bin/lora-e5-dev/checksum/crc8.o
LOAD /home/ch/RIOT/tests/driver_scd30/bin/lora-e5-dev/checksum/fletcher16.o
LOAD /home/ch/RIOT/tests/driver_scd30/bin/lora-e5-dev/checksum/fletcher32.o
LOAD /home/ch/RIOT/tests/driver_scd30/bin/lora-e5-dev/checksum/ucrc16.o
LOAD /home/ch/RIOT/tests/driver_scd30/bin/lora-e5-dev/core/assert.o
LOAD /home/ch/RIOT/tests/driver_scd30/bin/lora-e5-dev/core/atomic_c11.o
LOAD /home/ch/RIOT/tests/driver_scd30/bin/lora-e5-dev/core/atomic_sync.o
LOAD /home/ch/RIOT/tests/driver_scd30/bin/lora-e5-dev/core/bitarithm.o
LOAD /home/ch/RIOT/tests/driver_scd30/bin/lora-e5-dev/core/clist.o
LOAD /home/ch/RIOT/tests/driver_scd30/bin/lora-e5-dev/core/cond.o
LOAD /home/ch/RIOT/tests/driver_scd30/bin/lora-e5-dev/core/init.o
LOAD /home/ch/RIOT/tests/driver_scd30/bin/lora-e5-dev/core/msg.o
LOAD /home/ch/RIOT/tests/driver_scd30/bin/lora-e5-dev/core/mutex.o
LOAD /home/ch/RIOT/tests/driver_scd30/bin/lora-e5-dev/core/panic.o
LOAD /home/ch/RIOT/tests/driver_scd30/bin/lora-e5-dev/core/priority_queue.o
LOAD /home/ch/RIOT/tests/driver_scd30/bin/lora-e5-dev/core/ringbuffer.o
LOAD /home/ch/RIOT/tests/driver_scd30/bin/lora-e5-dev/core/rmutex.o
LOAD /home/ch/RIOT/tests/driver_scd30/bin/lora-e5-dev/core/sched.o
LOAD /home/ch/RIOT/tests/driver_scd30/bin/lora-e5-dev/core/thread.o
LOAD /home/ch/RIOT/tests/driver_scd30/bin/lora-e5-dev/cortexm_common/cortexm_init.o
LOAD /home/ch/RIOT/tests/driver_scd30/bin/lora-e5-dev/cortexm_common/mpu.o
LOAD /home/ch/RIOT/tests/driver_scd30/bin/lora-e5-dev/cortexm_common/panic.o
LOAD /home/ch/RIOT/tests/driver_scd30/bin/lora-e5-dev/cortexm_common_periph/pm.o
LOAD /home/ch/RIOT/tests/driver_scd30/bin/lora-e5-dev/cortexm_common/thread_arch.o
LOAD /home/ch/RIOT/tests/driver_scd30/bin/lora-e5-dev/cortexm_common/vectors_cortexm.o
LOAD /home/ch/RIOT/tests/driver_scd30/bin/lora-e5-dev/cpu/cpu_common.o
LOAD /home/ch/RIOT/tests/driver_scd30/bin/lora-e5-dev/cpu/cpu_init.o
LOAD /home/ch/RIOT/tests/driver_scd30/bin/lora-e5-dev/div/div.o
LOAD /home/ch/RIOT/tests/driver_scd30/bin/lora-e5-dev/malloc_thread_safe/malloc_wrappers.o
LOAD /home/ch/RIOT/tests/driver_scd30/bin/lora-e5-dev/newlib_syscalls_default/syscalls.o
LOAD /home/ch/RIOT/tests/driver_scd30/bin/lora-e5-dev/periph_common/gpio.o
LOAD /home/ch/RIOT/tests/driver_scd30/bin/lora-e5-dev/periph_common/i2c.o
LOAD /home/ch/RIOT/tests/driver_scd30/bin/lora-e5-dev/periph_common/init.o
LOAD /home/ch/RIOT/tests/driver_scd30/bin/lora-e5-dev/periph_common/pm.o
LOAD /home/ch/RIOT/tests/driver_scd30/bin/lora-e5-dev/periph_common/timer.o
LOAD /home/ch/RIOT/tests/driver_scd30/bin/lora-e5-dev/periph/gpio_all.o
LOAD /home/ch/RIOT/tests/driver_scd30/bin/lora-e5-dev/periph/i2c_1.o
LOAD /home/ch/RIOT/tests/driver_scd30/bin/lora-e5-dev/periph/pm.o
LOAD /home/ch/RIOT/tests/driver_scd30/bin/lora-e5-dev/periph/timer.o
LOAD /home/ch/RIOT/tests/driver_scd30/bin/lora-e5-dev/periph/uart.o
LOAD /home/ch/RIOT/tests/driver_scd30/bin/lora-e5-dev/pm_layered/pm.o
LOAD /home/ch/RIOT/tests/driver_scd30/bin/lora-e5-dev/scd30/scd30.o
LOAD /home/ch/RIOT/tests/driver_scd30/bin/lora-e5-dev/stdio_uart/stdio_uart.o
LOAD /home/ch/RIOT/tests/driver_scd30/bin/lora-e5-dev/stm32_clk/stmclk_common.o
LOAD /home/ch/RIOT/tests/driver_scd30/bin/lora-e5-dev/stm32_clk/stmclk_l4wx.o
LOAD /home/ch/RIOT/tests/driver_scd30/bin/lora-e5-dev/stm32_vectors/STM32WLE5xx.o
LOAD /home/ch/RIOT/tests/driver_scd30/bin/lora-e5-dev/xtimer/xtimer_core.o
LOAD /home/ch/RIOT/tests/driver_scd30/bin/lora-e5-dev/xtimer/xtimer.o
LOAD /usr/lib/gcc/arm-none-eabi/9.2.1/../../../arm-none-eabi/lib/thumb/v7e-m/nofp/libm.a
LOAD /usr/lib/gcc/arm-none-eabi/9.2.1/thumb/v7e-m/nofp/libgcc.a
                0x0000000008000000                _rom_start_addr = 0x8000000
                0x0000000020000000                _ram_start_addr = 0x20000000
                0x0000000000040000                _rom_length = 0x40000
                0x0000000000010000                _ram_length = 0x10000
LOAD /usr/lib/gcc/arm-none-eabi/9.2.1/../../../arm-none-eabi/lib/thumb/v7e-m/nofp/libc_nano.a
START GROUP
LOAD /usr/lib/gcc/arm-none-eabi/9.2.1/thumb/v7e-m/nofp/libgcc.a
LOAD /usr/lib/gcc/arm-none-eabi/9.2.1/../../../arm-none-eabi/lib/thumb/v7e-m/nofp/libg_nano.a
LOAD /usr/lib/gcc/arm-none-eabi/9.2.1/../../../arm-none-eabi/lib/thumb/v7e-m/nofp/libc_nano.a
END GROUP
START GROUP
LOAD /usr/lib/gcc/arm-none-eabi/9.2.1/thumb/v7e-m/nofp/libgcc.a
LOAD /usr/lib/gcc/arm-none-eabi/9.2.1/../../../arm-none-eabi/lib/thumb/v7e-m/nofp/libc_nano.a
END GROUP
                0x0000000000000000                ccmram_length = DEFINED (ccmram_len)?ccmram_len:0x0
                0x0000000000000000                sram4_length = DEFINED (sram4_length)?sram4_length:0x0

.heap2          0x0000000000000000        0x0
                0x0000000000000000                _sheap2 = .
                0x0000000028000000                _eheap2 = (ORIGIN (sram4) + LENGTH (sram4))
                0x0000000000000000                _rom_offset = DEFINED (_rom_offset)?_rom_offset:0x0
                0x0000000000040000                _fw_rom_length = DEFINED (_fw_rom_length)?_fw_rom_length:(_rom_length - _rom_offset)
                0x0000000000000001                ASSERT ((_fw_rom_length <= (_rom_length - _rom_offset)), Specified firmware size does not fit in ROM)
                0x0000000000000000                _backup_ram_start_addr = DEFINED (_backup_ram_start_addr)?_backup_ram_start_addr:0x0
                0x0000000000000000                _backup_ram_len = DEFINED (_backup_ram_len)?_backup_ram_len:0x0

.text           0x0000000008000000     0x6cac
                0x0000000008000000                . = ALIGN (0x4)
                0x0000000008000000                _sfixed = .
                0x0000000008000000                _isr_vectors = DEFINED (_isr_vectors)?_isr_vectors:.
 *(SORT_BY_NAME(.vectors*))
 .vectors.0     0x0000000008000000       0x40 /home/ch/RIOT/tests/driver_scd30/bin/lora-e5-dev/cortexm_common/vectors_cortexm.o
                0x0000000008000000                cortex_vector_base
 .vectors.1     0x0000000008000040       0xf8 /home/ch/RIOT/tests/driver_scd30/bin/lora-e5-dev/stm32_vectors/STM32WLE5xx.o
                0x0000000008000040                vector_cpu
 *(.text .text.* .gnu.linkonce.t.*)
 .text.startup.main
                0x0000000008000138      0x1ac /home/ch/RIOT/tests/driver_scd30/bin/lora-e5-dev/application_tests_driver_scd30/main.o
                0x0000000008000138                main
 .text.auto_init
                0x00000000080002e4        0x4 /home/ch/RIOT/tests/driver_scd30/bin/lora-e5-dev/auto_init/auto_init.o
                0x00000000080002e4                auto_init
 .text.board_init
                0x00000000080002e8       0x44 /home/ch/RIOT/tests/driver_scd30/bin/lora-e5-dev/board/board.o
                0x00000000080002e8                board_init
 .text.crc8     0x000000000800032c       0x28 /home/ch/RIOT/tests/driver_scd30/bin/lora-e5-dev/checksum/crc8.o
                0x000000000800032c                crc8
 .text.main_trampoline
                0x0000000008000354       0x18 /home/ch/RIOT/tests/driver_scd30/bin/lora-e5-dev/core/init.o
 .text.kernel_init
                0x000000000800036c       0x34 /home/ch/RIOT/tests/driver_scd30/bin/lora-e5-dev/core/init.o
                0x000000000800036c                kernel_init
 .text.mutex_lock
                0x00000000080003a0       0x68 /home/ch/RIOT/tests/driver_scd30/bin/lora-e5-dev/core/mutex.o
                0x00000000080003a0                mutex_lock
 .text.mutex_unlock
                0x0000000008000408       0x44 /home/ch/RIOT/tests/driver_scd30/bin/lora-e5-dev/core/mutex.o
                0x0000000008000408                mutex_unlock
 .text.panic_app
                0x000000000800044c        0x2 /home/ch/RIOT/tests/driver_scd30/bin/lora-e5-dev/core/panic.o
                0x000000000800044c                panic_app
 *fill*         0x000000000800044e        0x2 
 .text.core_panic
                0x0000000008000450       0x50 /home/ch/RIOT/tests/driver_scd30/bin/lora-e5-dev/core/panic.o
                0x0000000008000450                core_panic
 .text._unschedule
                0x00000000080004a0       0x24 /home/ch/RIOT/tests/driver_scd30/bin/lora-e5-dev/core/sched.o
 .text.sched_run
                0x00000000080004c4       0x6c /home/ch/RIOT/tests/driver_scd30/bin/lora-e5-dev/core/sched.o
                0x00000000080004c4                sched_run
 .text.sched_set_status
                0x0000000008000530       0x84 /home/ch/RIOT/tests/driver_scd30/bin/lora-e5-dev/core/sched.o
                0x0000000008000530                sched_set_status
 .text.sched_switch
                0x00000000080005b4       0x3c /home/ch/RIOT/tests/driver_scd30/bin/lora-e5-dev/core/sched.o
                0x00000000080005b4                sched_switch
 .text.sched_task_exit
                0x00000000080005f0       0x3c /home/ch/RIOT/tests/driver_scd30/bin/lora-e5-dev/core/sched.o
                0x00000000080005f0                sched_task_exit
 .text.thread_getname
                0x000000000800062c       0x1c /home/ch/RIOT/tests/driver_scd30/bin/lora-e5-dev/core/thread.o
                0x000000000800062c                thread_getname
 .text.thread_add_to_list
                0x0000000008000648       0x30 /home/ch/RIOT/tests/driver_scd30/bin/lora-e5-dev/core/thread.o
                0x0000000008000648                thread_add_to_list
 .text.thread_create
                0x0000000008000678       0xe8 /home/ch/RIOT/tests/driver_scd30/bin/lora-e5-dev/core/thread.o
                0x0000000008000678                thread_create
 .text.cortexm_init
                0x0000000008000760       0x40 /home/ch/RIOT/tests/driver_scd30/bin/lora-e5-dev/cortexm_common/cortexm_init.o
                0x0000000008000760                cortexm_init
 .text.panic_arch
                0x00000000080007a0       0x1c /home/ch/RIOT/tests/driver_scd30/bin/lora-e5-dev/cortexm_common/panic.o
                0x00000000080007a0                panic_arch
 .text.thread_stack_init
                0x00000000080007bc       0x68 /home/ch/RIOT/tests/driver_scd30/bin/lora-e5-dev/cortexm_common/thread_arch.o
                0x00000000080007bc                thread_stack_init
 .text.cpu_switch_context_exit
                0x0000000008000824       0x18 /home/ch/RIOT/tests/driver_scd30/bin/lora-e5-dev/cortexm_common/thread_arch.o
                0x0000000008000824                cpu_switch_context_exit
 .text.isr_pendsv
                0x000000000800083c       0x38 /home/ch/RIOT/tests/driver_scd30/bin/lora-e5-dev/cortexm_common/thread_arch.o
                0x000000000800083c                isr_pendsv
 .text.isr_svc  0x0000000008000874       0x10 /home/ch/RIOT/tests/driver_scd30/bin/lora-e5-dev/cortexm_common/thread_arch.o
                0x0000000008000874                isr_svc
 .text.sched_arch_idle
                0x0000000008000884       0x10 /home/ch/RIOT/tests/driver_scd30/bin/lora-e5-dev/cortexm_common/thread_arch.o
                0x0000000008000884                sched_arch_idle
 .text.hard_fault_default
                0x0000000008000894       0x44 /home/ch/RIOT/tests/driver_scd30/bin/lora-e5-dev/cortexm_common/vectors_cortexm.o
                0x0000000008000894                hard_fault_default
 .text.nmi_default
                0x00000000080008d8       0x10 /home/ch/RIOT/tests/driver_scd30/bin/lora-e5-dev/cortexm_common/vectors_cortexm.o
                0x00000000080008d8                nmi_default
 .text.mem_manage_default
                0x00000000080008e8       0x10 /home/ch/RIOT/tests/driver_scd30/bin/lora-e5-dev/cortexm_common/vectors_cortexm.o
                0x00000000080008e8                mem_manage_default
 .text.bus_fault_default
                0x00000000080008f8       0x10 /home/ch/RIOT/tests/driver_scd30/bin/lora-e5-dev/cortexm_common/vectors_cortexm.o
                0x00000000080008f8                bus_fault_default
 .text.usage_fault_default
                0x0000000008000908       0x10 /home/ch/RIOT/tests/driver_scd30/bin/lora-e5-dev/cortexm_common/vectors_cortexm.o
                0x0000000008000908                usage_fault_default
 .text.debug_mon_default
                0x0000000008000918       0x10 /home/ch/RIOT/tests/driver_scd30/bin/lora-e5-dev/cortexm_common/vectors_cortexm.o
                0x0000000008000918                debug_mon_default
 .text.dummy_handler_default
                0x0000000008000928       0x10 /home/ch/RIOT/tests/driver_scd30/bin/lora-e5-dev/cortexm_common/vectors_cortexm.o
                0x0000000008000928                dummy_handler_default
                0x0000000008000928                isr_systick
 .text.pre_startup
                0x0000000008000938        0x2 /home/ch/RIOT/tests/driver_scd30/bin/lora-e5-dev/cortexm_common/vectors_cortexm.o
                0x0000000008000938                pre_startup
 .text.post_startup
                0x000000000800093a        0x2 /home/ch/RIOT/tests/driver_scd30/bin/lora-e5-dev/cortexm_common/vectors_cortexm.o
                0x000000000800093a                post_startup
 .text.reset_handler_default
                0x000000000800093c       0x70 /home/ch/RIOT/tests/driver_scd30/bin/lora-e5-dev/cortexm_common/vectors_cortexm.o
                0x000000000800093c                reset_handler_default
 .text.hard_fault_handler
                0x00000000080009ac      0x1bc /home/ch/RIOT/tests/driver_scd30/bin/lora-e5-dev/cortexm_common/vectors_cortexm.o
                0x00000000080009ac                hard_fault_handler
 .text.periph_apb_clk
                0x0000000008000b68       0x18 /home/ch/RIOT/tests/driver_scd30/bin/lora-e5-dev/cpu/cpu_common.o
                0x0000000008000b68                periph_apb_clk
 .text.periph_timer_clk
                0x0000000008000b80       0x20 /home/ch/RIOT/tests/driver_scd30/bin/lora-e5-dev/cpu/cpu_common.o
                0x0000000008000b80                periph_timer_clk
 .text.periph_clk_en
                0x0000000008000ba0       0x68 /home/ch/RIOT/tests/driver_scd30/bin/lora-e5-dev/cpu/cpu_common.o
                0x0000000008000ba0                periph_clk_en
 .text.periph_clk_dis
                0x0000000008000c08       0x72 /home/ch/RIOT/tests/driver_scd30/bin/lora-e5-dev/cpu/cpu_common.o
                0x0000000008000c08                periph_clk_dis
 .text.cpu_init
                0x0000000008000c7a       0x16 /home/ch/RIOT/tests/driver_scd30/bin/lora-e5-dev/cpu/cpu_init.o
                0x0000000008000c7a                cpu_init
 .text.__wrap_malloc
                0x0000000008000c90       0x38 /home/ch/RIOT/tests/driver_scd30/bin/lora-e5-dev/malloc_thread_safe/malloc_wrappers.o
                0x0000000008000c90                __wrap_malloc
 .text._init    0x0000000008000cc8        0x2 /home/ch/RIOT/tests/driver_scd30/bin/lora-e5-dev/newlib_syscalls_default/syscalls.o
                0x0000000008000cc8                _init
 .text._fini    0x0000000008000cca        0x2 /home/ch/RIOT/tests/driver_scd30/bin/lora-e5-dev/newlib_syscalls_default/syscalls.o
                0x0000000008000cca                _fini
 .text._exit    0x0000000008000ccc       0x14 /home/ch/RIOT/tests/driver_scd30/bin/lora-e5-dev/newlib_syscalls_default/syscalls.o
                0x0000000008000ccc                _exit
 .text._sbrk_r  0x0000000008000ce0       0x40 /home/ch/RIOT/tests/driver_scd30/bin/lora-e5-dev/newlib_syscalls_default/syscalls.o
                0x0000000008000ce0                _sbrk_r
 .text._getpid_r
                0x0000000008000d20        0xc /home/ch/RIOT/tests/driver_scd30/bin/lora-e5-dev/newlib_syscalls_default/syscalls.o
                0x0000000008000d20                _getpid_r
 .text._kill_r  0x0000000008000d2c        0xa /home/ch/RIOT/tests/driver_scd30/bin/lora-e5-dev/newlib_syscalls_default/syscalls.o
                0x0000000008000d2c                _kill_r
 .text._read_r  0x0000000008000d36        0x8 /home/ch/RIOT/tests/driver_scd30/bin/lora-e5-dev/newlib_syscalls_default/syscalls.o
                0x0000000008000d36                _read_r
 .text._write_r
                0x0000000008000d3e        0x8 /home/ch/RIOT/tests/driver_scd30/bin/lora-e5-dev/newlib_syscalls_default/syscalls.o
                0x0000000008000d3e                _write_r
 .text._close_r
                0x0000000008000d46        0xa /home/ch/RIOT/tests/driver_scd30/bin/lora-e5-dev/newlib_syscalls_default/syscalls.o
                0x0000000008000d46                _close_r
 .text._lseek_r
                0x0000000008000d50        0xa /home/ch/RIOT/tests/driver_scd30/bin/lora-e5-dev/newlib_syscalls_default/syscalls.o
                0x0000000008000d50                _lseek_r
 .text._fstat_r
                0x0000000008000d5a        0xa /home/ch/RIOT/tests/driver_scd30/bin/lora-e5-dev/newlib_syscalls_default/syscalls.o
                0x0000000008000d5a                _fstat_r
 .text._isatty_r
                0x0000000008000d64       0x10 /home/ch/RIOT/tests/driver_scd30/bin/lora-e5-dev/newlib_syscalls_default/syscalls.o
                0x0000000008000d64                _isatty_r
 .text.periph_init
                0x0000000008000d74        0x6 /home/ch/RIOT/tests/driver_scd30/bin/lora-e5-dev/periph_common/init.o
                0x0000000008000d74                periph_init
 .text.gpio_init
                0x0000000008000d7a       0x68 /home/ch/RIOT/tests/driver_scd30/bin/lora-e5-dev/periph/gpio_all.o
                0x0000000008000d7a                gpio_init
 .text.gpio_init_af
                0x0000000008000de2       0x58 /home/ch/RIOT/tests/driver_scd30/bin/lora-e5-dev/periph/gpio_all.o
                0x0000000008000de2                gpio_init_af
 .text.gpio_set
                0x0000000008000e3a       0x12 /home/ch/RIOT/tests/driver_scd30/bin/lora-e5-dev/periph/gpio_all.o
                0x0000000008000e3a                gpio_set
 .text._wait_for_bus
                0x0000000008000e4c       0x2c /home/ch/RIOT/tests/driver_scd30/bin/lora-e5-dev/periph/i2c_1.o
 .text._stop    0x0000000008000e78       0x34 /home/ch/RIOT/tests/driver_scd30/bin/lora-e5-dev/periph/i2c_1.o
 .text._wait_isr_set
                0x0000000008000eac       0x54 /home/ch/RIOT/tests/driver_scd30/bin/lora-e5-dev/periph/i2c_1.o
 .text._start   0x0000000008000f00       0x84 /home/ch/RIOT/tests/driver_scd30/bin/lora-e5-dev/periph/i2c_1.o
 .text._write   0x0000000008000f84       0x94 /home/ch/RIOT/tests/driver_scd30/bin/lora-e5-dev/periph/i2c_1.o
 .text.i2c_init
                0x0000000008001018       0x98 /home/ch/RIOT/tests/driver_scd30/bin/lora-e5-dev/periph/i2c_1.o
                0x0000000008001018                i2c_init
 .text.i2c_acquire
                0x00000000080010b0       0x38 /home/ch/RIOT/tests/driver_scd30/bin/lora-e5-dev/periph/i2c_1.o
                0x00000000080010b0                i2c_acquire
 .text.i2c_release
                0x00000000080010e8       0x3c /home/ch/RIOT/tests/driver_scd30/bin/lora-e5-dev/periph/i2c_1.o
                0x00000000080010e8                i2c_release
 .text.i2c_read_bytes
                0x0000000008001124       0x90 /home/ch/RIOT/tests/driver_scd30/bin/lora-e5-dev/periph/i2c_1.o
                0x0000000008001124                i2c_read_bytes
 .text.i2c_write_bytes
                0x00000000080011b4       0x28 /home/ch/RIOT/tests/driver_scd30/bin/lora-e5-dev/periph/i2c_1.o
                0x00000000080011b4                i2c_write_bytes
 .text.isr_i2c2_er
                0x00000000080011dc       0x10 /home/ch/RIOT/tests/driver_scd30/bin/lora-e5-dev/periph/i2c_1.o
                0x00000000080011dc                isr_i2c2_er
 .text.pm_set   0x00000000080011ec       0x74 /home/ch/RIOT/tests/driver_scd30/bin/lora-e5-dev/periph/pm.o
                0x00000000080011ec                pm_set
 .text.timer_set_absolute
                0x0000000008001260       0x38 /home/ch/RIOT/tests/driver_scd30/bin/lora-e5-dev/periph/timer.o
                0x0000000008001260                timer_set_absolute
 .text.timer_read
                0x0000000008001298       0x10 /home/ch/RIOT/tests/driver_scd30/bin/lora-e5-dev/periph/timer.o
                0x0000000008001298                timer_read
 .text.timer_start
                0x00000000080012a8       0x14 /home/ch/RIOT/tests/driver_scd30/bin/lora-e5-dev/periph/timer.o
                0x00000000080012a8                timer_start
 .text.timer_init
                0x00000000080012bc       0x54 /home/ch/RIOT/tests/driver_scd30/bin/lora-e5-dev/periph/timer.o
                0x00000000080012bc                timer_init
 .text.isr_tim2
                0x0000000008001310       0x74 /home/ch/RIOT/tests/driver_scd30/bin/lora-e5-dev/periph/timer.o
                0x0000000008001310                isr_tim2
 .text.irq_handler
                0x0000000008001384       0x54 /home/ch/RIOT/tests/driver_scd30/bin/lora-e5-dev/periph/uart.o
 .text.uart_enable_clock
                0x00000000080013d8       0x30 /home/ch/RIOT/tests/driver_scd30/bin/lora-e5-dev/periph/uart.o
 .text.uart_init
                0x0000000008001408       0xa8 /home/ch/RIOT/tests/driver_scd30/bin/lora-e5-dev/periph/uart.o
                0x0000000008001408                uart_init
 .text.uart_write
                0x00000000080014b0       0x40 /home/ch/RIOT/tests/driver_scd30/bin/lora-e5-dev/periph/uart.o
                0x00000000080014b0                uart_write
 .text.isr_usart1
                0x00000000080014f0        0x6 /home/ch/RIOT/tests/driver_scd30/bin/lora-e5-dev/periph/uart.o
                0x00000000080014f0                isr_usart1
 .text.isr_usart2
                0x00000000080014f6        0x6 /home/ch/RIOT/tests/driver_scd30/bin/lora-e5-dev/periph/uart.o
                0x00000000080014f6                isr_usart2
 .text.isr_lpuart1
                0x00000000080014fc        0x6 /home/ch/RIOT/tests/driver_scd30/bin/lora-e5-dev/periph/uart.o
                0x00000000080014fc                isr_lpuart1
 *fill*         0x0000000008001502        0x2 
 .text.pm_set_lowest
                0x0000000008001504       0x3c /home/ch/RIOT/tests/driver_scd30/bin/lora-e5-dev/pm_layered/pm.o
                0x0000000008001504                pm_set_lowest
 .text.pm_block
                0x0000000008001540       0x2c /home/ch/RIOT/tests/driver_scd30/bin/lora-e5-dev/pm_layered/pm.o
                0x0000000008001540                pm_block
 .text.pm_off   0x000000000800156c       0x10 /home/ch/RIOT/tests/driver_scd30/bin/lora-e5-dev/pm_layered/pm.o
                0x000000000800156c                pm_off
 .text.byteorder_bebuftohl
                0x000000000800157c        0x6 /home/ch/RIOT/tests/driver_scd30/bin/lora-e5-dev/scd30/scd30.o
 .text._scd30_crc_check.constprop.0
                0x0000000008001582       0x18 /home/ch/RIOT/tests/driver_scd30/bin/lora-e5-dev/scd30/scd30.o
 .text._scd30_read_data
                0x000000000800159a       0xb6 /home/ch/RIOT/tests/driver_scd30/bin/lora-e5-dev/scd30/scd30.o
 .text.scd30_set_param
                0x0000000008001650       0x5a /home/ch/RIOT/tests/driver_scd30/bin/lora-e5-dev/scd30/scd30.o
                0x0000000008001650                scd30_set_param
 .text.scd30_get_param
                0x00000000080016aa       0x7e /home/ch/RIOT/tests/driver_scd30/bin/lora-e5-dev/scd30/scd30.o
                0x00000000080016aa                scd30_get_param
 .text.scd30_read_triggered
                0x0000000008001728       0xa0 /home/ch/RIOT/tests/driver_scd30/bin/lora-e5-dev/scd30/scd30.o
                0x0000000008001728                scd30_read_triggered
 .text.scd30_read_periodic
                0x00000000080017c8       0x68 /home/ch/RIOT/tests/driver_scd30/bin/lora-e5-dev/scd30/scd30.o
                0x00000000080017c8                scd30_read_periodic
 .text.scd30_start_periodic_measurement
                0x0000000008001830       0x40 /home/ch/RIOT/tests/driver_scd30/bin/lora-e5-dev/scd30/scd30.o
                0x0000000008001830                scd30_start_periodic_measurement
 .text.scd30_stop_measurements
                0x0000000008001870       0x32 /home/ch/RIOT/tests/driver_scd30/bin/lora-e5-dev/scd30/scd30.o
                0x0000000008001870                scd30_stop_measurements
 .text.scd30_reset
                0x00000000080018a2       0x44 /home/ch/RIOT/tests/driver_scd30/bin/lora-e5-dev/scd30/scd30.o
                0x00000000080018a2                scd30_reset
 .text.scd30_init
                0x00000000080018e6       0x2c /home/ch/RIOT/tests/driver_scd30/bin/lora-e5-dev/scd30/scd30.o
                0x00000000080018e6                scd30_init
 .text.stdio_init
                0x0000000008001912        0xe /home/ch/RIOT/tests/driver_scd30/bin/lora-e5-dev/stdio_uart/stdio_uart.o
                0x0000000008001912                stdio_init
 .text.stdio_read
                0x0000000008001920        0x6 /home/ch/RIOT/tests/driver_scd30/bin/lora-e5-dev/stdio_uart/stdio_uart.o
                0x0000000008001920                stdio_read
 .text.stdio_write
                0x0000000008001926       0x12 /home/ch/RIOT/tests/driver_scd30/bin/lora-e5-dev/stdio_uart/stdio_uart.o
                0x0000000008001926                stdio_write
 .text.stmclk_enable_hsi
                0x0000000008001938       0x14 /home/ch/RIOT/tests/driver_scd30/bin/lora-e5-dev/stm32_clk/stmclk_common.o
                0x0000000008001938                stmclk_enable_hsi
 .text.stmclk_disable_hsi
                0x000000000800194c        0xe /home/ch/RIOT/tests/driver_scd30/bin/lora-e5-dev/stm32_clk/stmclk_common.o
                0x000000000800194c                stmclk_disable_hsi
 *fill*         0x000000000800195a        0x2 
 .text.stmclk_init_sysclk
                0x000000000800195c       0x9c /home/ch/RIOT/tests/driver_scd30/bin/lora-e5-dev/stm32_clk/stmclk_l4wx.o
                0x000000000800195c                stmclk_init_sysclk
 .text.dummy_handler
                0x00000000080019f8        0x4 /home/ch/RIOT/tests/driver_scd30/bin/lora-e5-dev/stm32_vectors/STM32WLE5xx.o
                0x00000000080019f8                isr_lptim2
                0x00000000080019f8                isr_rtc_wkup
                0x00000000080019f8                isr_hsem
                0x00000000080019f8                isr_dac
                0x00000000080019f8                isr_tim16
                0x00000000080019f8                isr_exti
                0x00000000080019f8                isr_dma1_channel4
                0x00000000080019f8                isr_dma2_channel7
                0x00000000080019f8                isr_i2c1_ev
                0x00000000080019f8                isr_subghz_radio
                0x00000000080019f8                isr_tim1_brk
                0x00000000080019f8                isr_dma1_channel5
                0x00000000080019f8                isr_dma1_channel2
                0x00000000080019f8                isr_pka
                0x00000000080019f8                isr_dma2_channel6
                0x00000000080019f8                isr_dma1_channel7
                0x00000000080019f8                isr_i2c3_ev
                0x00000000080019f8                isr_tim1_up
                0x00000000080019f8                isr_dma2_channel4
                0x00000000080019f8                isr_spi2
                0x00000000080019f8                isr_tim1_trg_com
                0x00000000080019f8                isr_dma1_channel1
                0x00000000080019f8                dummy_handler
                0x00000000080019f8                isr_adc
                0x00000000080019f8                isr_aes
                0x00000000080019f8                isr_comp
                0x00000000080019f8                isr_spi1
                0x00000000080019f8                isr_lptim1
                0x00000000080019f8                isr_rcc
                0x00000000080019f8                isr_tamp_stamp_lsecss_ssru
                0x00000000080019f8                isr_flash
                0x00000000080019f8                isr_dma2_channel5
                0x00000000080019f8                isr_i2c3_er
                0x00000000080019f8                isr_tim1_cc
                0x00000000080019f8                isr_lptim3
                0x00000000080019f8                isr_subghzspi
                0x00000000080019f8                isr_dma2_channel1
                0x00000000080019f8                isr_tim17
                0x00000000080019f8                isr_dma1_channel6
                0x00000000080019f8                isr_pvd_pvm
                0x00000000080019f8                isr_rng
                0x00000000080019f8                isr_dmamux1_ovr
                0x00000000080019f8                isr_i2c2_ev
                0x00000000080019f8                isr_dma2_channel2
                0x00000000080019f8                isr_dma2_channel3
                0x00000000080019f8                isr_rtc_alarm
                0x00000000080019f8                isr_dma1_channel3
                0x00000000080019f8                isr_i2c1_er
                0x00000000080019f8                isr_wwdg
 .text._add_timer_to_list
                0x00000000080019fc       0x34 /home/ch/RIOT/tests/driver_scd30/bin/lora-e5-dev/xtimer/xtimer_core.o
 .text._remove_timer_from_list
                0x0000000008001a30       0x18 /home/ch/RIOT/tests/driver_scd30/bin/lora-e5-dev/xtimer/xtimer_core.o
 .text._xtimer_now64
                0x0000000008001a48       0x38 /home/ch/RIOT/tests/driver_scd30/bin/lora-e5-dev/xtimer/xtimer_core.o
 .text._schedule_earliest_lltimer
                0x0000000008001a80       0x44 /home/ch/RIOT/tests/driver_scd30/bin/lora-e5-dev/xtimer/xtimer_core.o
 .text._xtimer_now
                0x0000000008001ac4        0x8 /home/ch/RIOT/tests/driver_scd30/bin/lora-e5-dev/xtimer/xtimer_core.o
                0x0000000008001ac4                _xtimer_now
 .text.xtimer_init
                0x0000000008001acc       0x30 /home/ch/RIOT/tests/driver_scd30/bin/lora-e5-dev/xtimer/xtimer_core.o
                0x0000000008001acc                xtimer_init
 .text._periph_timer_callback
                0x0000000008001afc      0x118 /home/ch/RIOT/tests/driver_scd30/bin/lora-e5-dev/xtimer/xtimer_core.o
 .text.xtimer_remove
                0x0000000008001c14       0x30 /home/ch/RIOT/tests/driver_scd30/bin/lora-e5-dev/xtimer/xtimer_core.o
                0x0000000008001c14                xtimer_remove
 .text._xtimer_set64
                0x0000000008001c44       0x7c /home/ch/RIOT/tests/driver_scd30/bin/lora-e5-dev/xtimer/xtimer_core.o
                0x0000000008001c44                _xtimer_set64
 .text._callback_unlock_mutex
                0x0000000008001cc0        0x4 /home/ch/RIOT/tests/driver_scd30/bin/lora-e5-dev/xtimer/xtimer.o
 .text._xtimer_tsleep
                0x0000000008001cc4       0x60 /home/ch/RIOT/tests/driver_scd30/bin/lora-e5-dev/xtimer/xtimer.o
                0x0000000008001cc4                _xtimer_tsleep
 .text          0x0000000008001d24      0x378 /usr/lib/gcc/arm-none-eabi/9.2.1/thumb/v7e-m/nofp/libgcc.a(_arm_addsubdf3.o)
                0x0000000008001d24                __aeabi_drsub
                0x0000000008001d2c                __aeabi_dsub
                0x0000000008001d2c                __subdf3
                0x0000000008001d30                __adddf3
                0x0000000008001d30                __aeabi_dadd
                0x0000000008001fa8                __aeabi_ui2d
                0x0000000008001fa8                __floatunsidf
                0x0000000008001fc8                __floatsidf
                0x0000000008001fc8                __aeabi_i2d
                0x0000000008001fec                __extendsfdf2
                0x0000000008001fec                __aeabi_f2d
                0x0000000008002030                __aeabi_ul2d
                0x0000000008002030                __floatundidf
                0x0000000008002040                __floatdidf
                0x0000000008002040                __aeabi_l2d
 .text          0x000000000800209c       0x48 /usr/lib/gcc/arm-none-eabi/9.2.1/../../../arm-none-eabi/lib/thumb/v7e-m/nofp/libc_nano.a(lib_a-init.o)
                0x000000000800209c                __libc_init_array
 .text          0x00000000080020e4       0x20 /usr/lib/gcc/arm-none-eabi/9.2.1/../../../arm-none-eabi/lib/thumb/v7e-m/nofp/libc_nano.a(lib_a-malloc.o)
                0x00000000080020e4                malloc
                0x00000000080020f4                free
 .text          0x0000000008002104      0x134 /usr/lib/gcc/arm-none-eabi/9.2.1/../../../arm-none-eabi/lib/thumb/v7e-m/nofp/libc_nano.a(lib_a-memcpy.o)
                0x0000000008002104                memcpy
 .text          0x0000000008002238       0xa0 /usr/lib/gcc/arm-none-eabi/9.2.1/../../../arm-none-eabi/lib/thumb/v7e-m/nofp/libc_nano.a(lib_a-memset.o)
                0x0000000008002238                memset
 .text          0x00000000080022d8       0xac /usr/lib/gcc/arm-none-eabi/9.2.1/../../../arm-none-eabi/lib/thumb/v7e-m/nofp/libc_nano.a(lib_a-nano-freer.o)
                0x00000000080022d8                _free_r
 .text          0x0000000008002384       0xc8 /usr/lib/gcc/arm-none-eabi/9.2.1/../../../arm-none-eabi/lib/thumb/v7e-m/nofp/libc_nano.a(lib_a-nano-mallocr.o)
                0x0000000008002384                _malloc_r
 .text          0x000000000800244c      0x6c0 /usr/lib/gcc/arm-none-eabi/9.2.1/../../../arm-none-eabi/lib/thumb/v7e-m/nofp/libc_nano.a(lib_a-nano-vfprintf_float.o)
                0x000000000800244c                __cvt
                0x0000000008002540                __exponent
                0x00000000080025cc                _printf_float
 .text          0x0000000008002b0c      0x3c4 /usr/lib/gcc/arm-none-eabi/9.2.1/../../../arm-none-eabi/lib/thumb/v7e-m/nofp/libc_nano.a(lib_a-nano-vfprintf_i.o)
                0x0000000008002b0c                _printf_common
                0x0000000008002c38                _printf_i
 .text          0x0000000008002ed0       0x68 /usr/lib/gcc/arm-none-eabi/9.2.1/../../../arm-none-eabi/lib/thumb/v7e-m/nofp/libc_nano.a(lib_a-printf.o)
                0x0000000008002ed0                _printf_r
                0x0000000008002ed0                _iprintf_r
                0x0000000008002f00                printf
                0x0000000008002f00                iprintf
 .text          0x0000000008002f38       0xe8 /usr/lib/gcc/arm-none-eabi/9.2.1/../../../arm-none-eabi/lib/thumb/v7e-m/nofp/libc_nano.a(lib_a-puts.o)
                0x0000000008002f38                _puts_r
                0x0000000008003010                puts
 *fill*         0x0000000008003020       0x20 
 .text          0x0000000008003040       0xdc /usr/lib/gcc/arm-none-eabi/9.2.1/../../../arm-none-eabi/lib/thumb/v7e-m/nofp/libc_nano.a(lib_a-strlen.o)
                0x0000000008003040                strlen
 .text          0x000000000800311c       0xc0 /usr/lib/gcc/arm-none-eabi/9.2.1/../../../arm-none-eabi/lib/thumb/v7e-m/nofp/libc_nano.a(lib_a-wbuf.o)
                0x000000000800311c                __swbuf_r
                0x00000000080031cc                __swbuf
 .text          0x00000000080031dc      0x100 /usr/lib/gcc/arm-none-eabi/9.2.1/../../../arm-none-eabi/lib/thumb/v7e-m/nofp/libc_nano.a(lib_a-wsetup.o)
                0x00000000080031dc                __swsetup_r
 *fill*         0x00000000080032dc        0x4 
 .text          0x00000000080032e0     0x104c /usr/lib/gcc/arm-none-eabi/9.2.1/../../../arm-none-eabi/lib/thumb/v7e-m/nofp/libc_nano.a(lib_a-dtoa.o)
                0x0000000008003404                _dtoa_r
 .text          0x000000000800432c      0x1b0 /usr/lib/gcc/arm-none-eabi/9.2.1/../../../arm-none-eabi/lib/thumb/v7e-m/nofp/libc_nano.a(lib_a-fflush.o)
                0x000000000800432c                __sflush_r
                0x0000000008004458                _fflush_r
                0x00000000080044b8                fflush
 .text          0x00000000080044dc      0x210 /usr/lib/gcc/arm-none-eabi/9.2.1/../../../arm-none-eabi/lib/thumb/v7e-m/nofp/libc_nano.a(lib_a-findfp.o)
                0x00000000080044e0                _cleanup_r
                0x00000000080044f0                __sfmoreglue
                0x0000000008004520                __sfp
                0x0000000008004698                _cleanup
                0x00000000080046ac                __sinit
                0x00000000080046b4                __sfp_lock_acquire
                0x00000000080046b8                __sfp_lock_release
                0x00000000080046bc                __sinit_lock_acquire
                0x00000000080046c0                __sinit_lock_release
                0x00000000080046c4                __fp_lock_all
                0x00000000080046d8                __fp_unlock_all
 .text          0x00000000080046ec       0x44 /usr/lib/gcc/arm-none-eabi/9.2.1/../../../arm-none-eabi/lib/thumb/v7e-m/nofp/libc_nano.a(lib_a-fprintf.o)
                0x00000000080046ec                _fprintf_r
                0x00000000080046ec                _fiprintf_r
                0x0000000008004708                fprintf
                0x0000000008004708                fiprintf
 .text          0x0000000008004730       0xa0 /usr/lib/gcc/arm-none-eabi/9.2.1/../../../arm-none-eabi/lib/thumb/v7e-m/nofp/libc_nano.a(lib_a-fwalk.o)
                0x0000000008004730                _fwalk
                0x000000000800477c                _fwalk_reent
 .text          0x00000000080047d0       0x14 /usr/lib/gcc/arm-none-eabi/9.2.1/../../../arm-none-eabi/lib/thumb/v7e-m/nofp/libc_nano.a(lib_a-localeconv.o)
                0x00000000080047d0                __localeconv_l
                0x00000000080047d4                _localeconv_r
                0x00000000080047dc                localeconv
 .text          0x00000000080047e4       0xf0 /usr/lib/gcc/arm-none-eabi/9.2.1/../../../arm-none-eabi/lib/thumb/v7e-m/nofp/libc_nano.a(lib_a-makebuf.o)
                0x00000000080047e4                __swhatbuf_r
                0x0000000008004840                __smakebuf_r
 *fill*         0x00000000080048d4        0xc 
 .text          0x00000000080048e0       0xa0 /usr/lib/gcc/arm-none-eabi/9.2.1/../../../arm-none-eabi/lib/thumb/v7e-m/nofp/libc_nano.a(lib_a-memchr.o)
                0x00000000080048e0                memchr
 .text          0x0000000008004980        0x8 /usr/lib/gcc/arm-none-eabi/9.2.1/../../../arm-none-eabi/lib/thumb/v7e-m/nofp/libc_nano.a(lib_a-mlock.o)
                0x0000000008004980                __malloc_lock
                0x0000000008004984                __malloc_unlock
 .text          0x0000000008004988      0xa08 /usr/lib/gcc/arm-none-eabi/9.2.1/../../../arm-none-eabi/lib/thumb/v7e-m/nofp/libc_nano.a(lib_a-mprec.o)
                0x0000000008004988                _Balloc
                0x0000000008004a08                _Bfree
                0x0000000008004a54                __multadd
                0x0000000008004af4                __s2b
                0x0000000008004ba0                __hi0bits
                0x0000000008004be0                __lo0bits
                0x0000000008004c40                __i2b
                0x0000000008004c6c                __multiply
                0x0000000008004db8                __pow5mult
                0x0000000008004e7c                __lshift
                0x0000000008004f44                __mcmp
                0x0000000008004f7c                __mdiff
                0x00000000080050a4                __ulp
                0x00000000080050e4                __b2d
                0x000000000800519c                __d2b
                0x0000000008005260                __ratio
                0x00000000080052bc                _mprec_log10
                0x00000000080052f4                __copybits
                0x000000000800533c                __any_on
 .text          0x0000000008005390       0x1c /usr/lib/gcc/arm-none-eabi/9.2.1/../../../arm-none-eabi/lib/thumb/v7e-m/nofp/libc_nano.a(lib_a-nano-callocr.o)
                0x0000000008005390                _calloc_r
 .text          0x00000000080053ac       0x4c /usr/lib/gcc/arm-none-eabi/9.2.1/../../../arm-none-eabi/lib/thumb/v7e-m/nofp/libc_nano.a(lib_a-nano-reallocr.o)
                0x00000000080053ac                _realloc_r
 .text          0x00000000080053f8      0x360 /usr/lib/gcc/arm-none-eabi/9.2.1/../../../arm-none-eabi/lib/thumb/v7e-m/nofp/libc_nano.a(lib_a-nano-vfprintf.o)
                0x0000000008005430                __sfputs_r
                0x0000000008005460                __sprint_r
                0x000000000800547c                _vfiprintf_r
                0x000000000800547c                _vfprintf_r
                0x0000000008005740                vfiprintf
                0x0000000008005740                vfprintf
 .text          0x0000000008005758       0x90 /usr/lib/gcc/arm-none-eabi/9.2.1/../../../arm-none-eabi/lib/thumb/v7e-m/nofp/libc_nano.a(lib_a-stdio.o)
                0x0000000008005758                __sread
                0x000000000800577c                __seofread
                0x0000000008005780                __swrite
                0x00000000080057c0                __sseek
                0x00000000080057e0                __sclose
 .text          0x00000000080057e8       0x48 /usr/lib/gcc/arm-none-eabi/9.2.1/../../../arm-none-eabi/lib/thumb/v7e-m/nofp/libc_nano.a(lib_a-assert.o)
                0x00000000080057e8                __assert_func
                0x0000000008005824                __assert
 .text          0x0000000008005830      0x308 /usr/lib/gcc/arm-none-eabi/9.2.1/../../../arm-none-eabi/lib/thumb/v7e-m/nofp/libc_nano.a(lib_a-fvwrite.o)
                0x0000000008005830                __sfvwrite_r
 .text          0x0000000008005b38       0x40 /usr/lib/gcc/arm-none-eabi/9.2.1/../../../arm-none-eabi/lib/thumb/v7e-m/nofp/libc_nano.a(lib_a-mbtowc_r.o)
                0x0000000008005b38                _mbtowc_r
                0x0000000008005b4c                __ascii_mbtowc
 .text          0x0000000008005b78       0xd0 /usr/lib/gcc/arm-none-eabi/9.2.1/../../../arm-none-eabi/lib/thumb/v7e-m/nofp/libc_nano.a(lib_a-memmove.o)
                0x0000000008005b78                memmove
 .text          0x0000000008005c48       0x10 /usr/lib/gcc/arm-none-eabi/9.2.1/../../../arm-none-eabi/lib/thumb/v7e-m/nofp/libc_nano.a(lib_a-nano-msizer.o)
                0x0000000008005c48                _malloc_usable_size_r
 .text          0x0000000008005c58       0x30 /usr/lib/gcc/arm-none-eabi/9.2.1/../../../arm-none-eabi/lib/thumb/v7e-m/nofp/libc_nano.a(lib_a-wctomb_r.o)
                0x0000000008005c58                _wctomb_r
                0x0000000008005c6c                __ascii_wctomb
 .text          0x0000000008005c88       0x10 /usr/lib/gcc/arm-none-eabi/9.2.1/../../../arm-none-eabi/lib/thumb/v7e-m/nofp/libc_nano.a(lib_a-abort.o)
                0x0000000008005c88                abort
 .text          0x0000000008005c98      0x150 /usr/lib/gcc/arm-none-eabi/9.2.1/../../../arm-none-eabi/lib/thumb/v7e-m/nofp/libc_nano.a(lib_a-signal.o)
                0x0000000008005cc0                _init_signal_r
                0x0000000008005ccc                _signal_r
                0x0000000008005d00                _raise_r
                0x0000000008005d54                __sigtramp_r
                0x0000000008005da4                raise
                0x0000000008005db4                signal
                0x0000000008005dc4                _init_signal
                0x0000000008005dd8                __sigtramp
 .text          0x0000000008005de8      0x424 /usr/lib/gcc/arm-none-eabi/9.2.1/thumb/v7e-m/nofp/libgcc.a(_arm_muldivdf3.o)
                0x0000000008005de8                __aeabi_dmul
                0x0000000008005de8                __muldf3
                0x000000000800603c                __aeabi_ddiv
                0x000000000800603c                __divdf3
 .text          0x000000000800620c      0x110 /usr/lib/gcc/arm-none-eabi/9.2.1/thumb/v7e-m/nofp/libgcc.a(_arm_cmpdf2.o)
                0x000000000800620c                __gtdf2
                0x000000000800620c                __gedf2
                0x0000000008006214                __ltdf2
                0x0000000008006214                __ledf2
                0x000000000800621c                __cmpdf2
                0x000000000800621c                __eqdf2
                0x000000000800621c                __nedf2
                0x0000000008006298                __aeabi_cdrcmple
                0x00000000080062a8                __aeabi_cdcmple
                0x00000000080062a8                __aeabi_cdcmpeq
                0x00000000080062b8                __aeabi_dcmpeq
                0x00000000080062cc                __aeabi_dcmplt
                0x00000000080062e0                __aeabi_dcmple
                0x00000000080062f4                __aeabi_dcmpge
                0x0000000008006308                __aeabi_dcmpgt
 .text          0x000000000800631c       0x2c /usr/lib/gcc/arm-none-eabi/9.2.1/thumb/v7e-m/nofp/libgcc.a(_arm_unorddf2.o)
                0x000000000800631c                __aeabi_dcmpun
                0x000000000800631c                __unorddf2
 .text          0x0000000008006348       0x50 /usr/lib/gcc/arm-none-eabi/9.2.1/thumb/v7e-m/nofp/libgcc.a(_arm_fixdfsi.o)
                0x0000000008006348                __fixdfsi
                0x0000000008006348                __aeabi_d2iz
 *(.glue_7t)
 .glue_7t       0x0000000008006398        0x0 linker stubs
 *(.glue_7)
 .glue_7        0x0000000008006398        0x0 linker stubs
 *(.rodata .rodata* .gnu.linkonce.r.*)
 .rodata.main.str1.1
                0x0000000008006398      0x167 /home/ch/RIOT/tests/driver_scd30/bin/lora-e5-dev/application_tests_driver_scd30/main.o
 .rodata.main_trampoline.str1.1
                0x00000000080064ff       0x3b /home/ch/RIOT/tests/driver_scd30/bin/lora-e5-dev/core/init.o
 .rodata.kernel_init.str1.1
                0x000000000800653a        0x5 /home/ch/RIOT/tests/driver_scd30/bin/lora-e5-dev/core/init.o
 .rodata.core_panic.str1.1
                0x000000000800653f       0x2e /home/ch/RIOT/tests/driver_scd30/bin/lora-e5-dev/core/panic.o
 .rodata.assert_crash_message
                0x000000000800656d       0x12 /home/ch/RIOT/tests/driver_scd30/bin/lora-e5-dev/core/panic.o
                0x000000000800656d                assert_crash_message
 .rodata._unschedule.str1.1
                0x000000000800657f       0x2f /home/ch/RIOT/tests/driver_scd30/bin/lora-e5-dev/core/sched.o
 .rodata.panic_arch.str1.1
                0x00000000080065ae        0xf /home/ch/RIOT/tests/driver_scd30/bin/lora-e5-dev/cortexm_common/panic.o
 .rodata.nmi_default.str1.1
                0x00000000080065bd        0xc /home/ch/RIOT/tests/driver_scd30/bin/lora-e5-dev/cortexm_common/vectors_cortexm.o
 .rodata.mem_manage_default.str1.1
                0x00000000080065c9       0x13 /home/ch/RIOT/tests/driver_scd30/bin/lora-e5-dev/cortexm_common/vectors_cortexm.o
 .rodata.bus_fault_default.str1.1
                0x00000000080065dc       0x12 /home/ch/RIOT/tests/driver_scd30/bin/lora-e5-dev/cortexm_common/vectors_cortexm.o
 .rodata.usage_fault_default.str1.1
                0x00000000080065ee       0x14 /home/ch/RIOT/tests/driver_scd30/bin/lora-e5-dev/cortexm_common/vectors_cortexm.o
 .rodata.debug_mon_default.str1.1
                0x0000000008006602       0x12 /home/ch/RIOT/tests/driver_scd30/bin/lora-e5-dev/cortexm_common/vectors_cortexm.o
 .rodata.dummy_handler_default.str1.1
                0x0000000008006614        0xe /home/ch/RIOT/tests/driver_scd30/bin/lora-e5-dev/cortexm_common/vectors_cortexm.o
 .rodata.hard_fault_handler.str1.1
                0x0000000008006622      0x233 /home/ch/RIOT/tests/driver_scd30/bin/lora-e5-dev/cortexm_common/vectors_cortexm.o
 .rodata.apbmul
                0x0000000008006855        0x4 /home/ch/RIOT/tests/driver_scd30/bin/lora-e5-dev/cpu/cpu_common.o
 .rodata._exit.str1.1
                0x0000000008006859       0x1a /home/ch/RIOT/tests/driver_scd30/bin/lora-e5-dev/newlib_syscalls_default/syscalls.o
 *fill*         0x0000000008006873        0x1 
 .rodata.timer_config
                0x0000000008006874       0x10 /home/ch/RIOT/tests/driver_scd30/bin/lora-e5-dev/periph/timer.o
 .rodata.uart_config
                0x0000000008006884       0x54 /home/ch/RIOT/tests/driver_scd30/bin/lora-e5-dev/periph/uart.o
 .rodata        0x00000000080068d8        0x4 /usr/lib/gcc/arm-none-eabi/9.2.1/../../../arm-none-eabi/lib/thumb/v7e-m/nofp/libc_nano.a(lib_a-impure.o)
                0x00000000080068d8                _global_impure_ptr
 .rodata.str1.4
                0x00000000080068dc       0x12 /usr/lib/gcc/arm-none-eabi/9.2.1/../../../arm-none-eabi/lib/thumb/v7e-m/nofp/libc_nano.a(lib_a-nano-vfprintf_float.o)
 *fill*         0x00000000080068ee        0x2 
 .rodata.str1.4
                0x00000000080068f0       0x25 /usr/lib/gcc/arm-none-eabi/9.2.1/../../../arm-none-eabi/lib/thumb/v7e-m/nofp/libc_nano.a(lib_a-nano-vfprintf_i.o)
 *fill*         0x0000000008006915        0x3 
 .rodata.str1.4
                0x0000000008006918       0x6d /usr/lib/gcc/arm-none-eabi/9.2.1/../../../arm-none-eabi/lib/thumb/v7e-m/nofp/libc_nano.a(lib_a-dtoa.o)
                                         0x71 (size before relaxing)
 *fill*         0x0000000008006985        0x3 
 .rodata        0x0000000008006988       0x60 /usr/lib/gcc/arm-none-eabi/9.2.1/../../../arm-none-eabi/lib/thumb/v7e-m/nofp/libc_nano.a(lib_a-findfp.o)
                0x0000000008006988                __sf_fake_stderr
                0x00000000080069a8                __sf_fake_stdout
                0x00000000080069c8                __sf_fake_stdin
 .rodata        0x00000000080069e8      0x128 /usr/lib/gcc/arm-none-eabi/9.2.1/../../../arm-none-eabi/lib/thumb/v7e-m/nofp/libc_nano.a(lib_a-mprec.o)
                0x00000000080069f8                __mprec_tens
                0x0000000008006ac0                __mprec_tinytens
                0x0000000008006ae8                __mprec_bigtens
 .rodata.str1.4
                0x0000000008006b10       0x33 /usr/lib/gcc/arm-none-eabi/9.2.1/../../../arm-none-eabi/lib/thumb/v7e-m/nofp/libc_nano.a(lib_a-mprec.o)
                                         0x5d (size before relaxing)
 *fill*         0x0000000008006b43        0x1 
 .rodata.str1.4
                0x0000000008006b44       0x13 /usr/lib/gcc/arm-none-eabi/9.2.1/../../../arm-none-eabi/lib/thumb/v7e-m/nofp/libc_nano.a(lib_a-nano-vfprintf.o)
 *fill*         0x0000000008006b57        0x1 
 .rodata.str1.4
                0x0000000008006b58       0x3f /usr/lib/gcc/arm-none-eabi/9.2.1/../../../arm-none-eabi/lib/thumb/v7e-m/nofp/libc_nano.a(lib_a-assert.o)
                                         0x43 (size before relaxing)
 *fill*         0x0000000008006b97        0x1 
 .rodata.str1.4
                0x0000000008006b98        0xe /usr/lib/gcc/arm-none-eabi/9.2.1/../../../arm-none-eabi/lib/thumb/v7e-m/nofp/libc_nano.a(lib_a-locale.o)
                                         0x12 (size before relaxing)
 *fill*         0x0000000008006ba6        0x2 
 .rodata        0x0000000008006ba8      0x101 /usr/lib/gcc/arm-none-eabi/9.2.1/../../../arm-none-eabi/lib/thumb/v7e-m/nofp/libc_nano.a(lib_a-ctype_.o)
                0x0000000008006ba8                _ctype_
 *(SORT_BY_NAME(.roxfa.*))
 *(.ARM.extab* .gnu.linkonce.armextab.*)
                0x0000000008006cac                . = ALIGN (0x4)
 *fill*         0x0000000008006ca9        0x3 
 *(.init)
                0x0000000008006cac                . = ALIGN (0x4)
                0x0000000008006cac                __preinit_array_start = .
 *(.preinit_array)
                0x0000000008006cac                __preinit_array_end = .
                0x0000000008006cac                . = ALIGN (0x4)
                0x0000000008006cac                __init_array_start = .
 *(SORT_BY_NAME(.init_array.*))
 *(.init_array)
                0x0000000008006cac                __init_array_end = .
                0x0000000008006cac                . = ALIGN (0x4)
 *crtbegin.o(.ctors)
 *(EXCLUDE_FILE(*crtend.o) .ctors)
 *(SORT_BY_NAME(.ctors.*))
 *crtend.o(.ctors)
                0x0000000008006cac                . = ALIGN (0x4)
 *(.fini)
                0x0000000008006cac                . = ALIGN (0x4)
                0x0000000008006cac                __fini_array_start = .
 *(.fini_array)
 *(SORT_BY_NAME(.fini_array.*))
                0x0000000008006cac                __fini_array_end = .
 *crtbegin.o(.dtors)
 *(EXCLUDE_FILE(*crtend.o) .dtors)
 *(SORT_BY_NAME(.dtors.*))
 *crtend.o(.dtors)
                0x0000000008006cac                . = ALIGN (0x4)
                0x0000000008006cac                _efixed = .

.vfp11_veneer   0x0000000008006cac        0x0
 .vfp11_veneer  0x0000000008006cac        0x0 linker stubs

.v4_bx          0x0000000008006cac        0x0
 .v4_bx         0x0000000008006cac        0x0 linker stubs

.iplt           0x0000000008006cac        0x0
 .iplt          0x0000000008006cac        0x0 /home/ch/RIOT/tests/driver_scd30/bin/lora-e5-dev/application_tests_driver_scd30/main.o

.igot.plt       0x0000000008006cac        0x0
 .igot.plt      0x0000000008006cac        0x0 /home/ch/RIOT/tests/driver_scd30/bin/lora-e5-dev/application_tests_driver_scd30/main.o

.rel.dyn        0x0000000008006cac        0x0
 .rel.iplt      0x0000000008006cac        0x0 /home/ch/RIOT/tests/driver_scd30/bin/lora-e5-dev/application_tests_driver_scd30/main.o

.tdata          0x0000000008006cac        0x0
                0x0000000008006cac                __tdata_start = .
 *(.tdata .tdata.* .gnu.linkonce.td.*)
                0x0000000008006cac                __tdata_end = .
                0x0000000008006cac                __tdata_source = LOADADDR (.tdata)
                0x0000000000000000                __tdata_size = SIZEOF (.tdata)

.tbss           0x0000000008006cac        0x0
 *(.tbss .tbss.* .gnu.linkonce.tb.*)
 *(.tcommon)
                0x0000000008006cac                __tbss_end = .
                0x0000000000000000                __tls_size = (__tbss_end - __tdata_start)
                0x0000000000000000                __tbss_size = (__tls_size - __tdata_size)
                [!provide]                        PROVIDE (__exidx_start = .)

.ARM.exidx
 *(.ARM.exidx* .gnu.linkonce.armexidx.*)
                [!provide]                        PROVIDE (__exidx_end = .)
                0x0000000008006cac                . = ALIGN (0x4)

.eh_frame
 *(.eh_frame)
                0x0000000008006cac                . = ALIGN (0x4)
                0x0000000008006cac                _etext = .

.stack          0x0000000020000000      0x200
 *(.puf)
                0x0000000020000000                . = ALIGN (0x8)
                0x0000000020000000                _sstack = .
 *(.isr_stack)
 .isr_stack     0x0000000020000000      0x200 /home/ch/RIOT/tests/driver_scd30/bin/lora-e5-dev/cortexm_common/vectors_cortexm.o
                0x0000000020000000                isr_stack
                0x0000000020000200                . = ALIGN (0x8)
                0x0000000020000200                _estack = .

.relocate       0x0000000020000200      0x1e4 load address 0x0000000008006cac
                0x0000000020000200                . = ALIGN (0x4)
                0x0000000020000200                _srelocate = .
 *(.ramfunc .ramfunc.*)
 *(.data .data.*)
 .data.params   0x0000000020000200        0x8 /home/ch/RIOT/tests/driver_scd30/bin/lora-e5-dev/application_tests_driver_scd30/main.o
                0x0000000020000200                params
 .data.heap_top
                0x0000000020000208        0x4 /home/ch/RIOT/tests/driver_scd30/bin/lora-e5-dev/newlib_syscalls_default/syscalls.o
 .data.pm_blocker
                0x000000002000020c        0x4 /home/ch/RIOT/tests/driver_scd30/bin/lora-e5-dev/pm_layered/pm.o
 .data          0x0000000020000210       0x64 /usr/lib/gcc/arm-none-eabi/9.2.1/../../../arm-none-eabi/lib/thumb/v7e-m/nofp/libc_nano.a(lib_a-impure.o)
                0x0000000020000210                _impure_ptr
 .data          0x0000000020000274      0x16c /usr/lib/gcc/arm-none-eabi/9.2.1/../../../arm-none-eabi/lib/thumb/v7e-m/nofp/libc_nano.a(lib_a-locale.o)
                0x0000000020000274                __global_locale
 *(SORT_BY_NAME(.xfa.*))
 *(.openocd .openocd.*)
 .openocd       0x00000000200003e0        0x2 /home/ch/RIOT/tests/driver_scd30/bin/lora-e5-dev/core/sched.o
                0x00000000200003e0                _tcb_name_offset
                0x00000000200003e1                max_threads
                0x00000000200003e4                . = ALIGN (0x4)
 *fill*         0x00000000200003e2        0x2 
                0x00000000200003e4                _erelocate = .

.bss            0x00000000200003e8      0x748 load address 0x0000000008006e90
                0x00000000200003e8                . = ALIGN (0x4)
                0x00000000200003e8                _sbss = .
                0x00000000200003e8                _szero = .
 *(.bss .bss.*)
 .bss.result    0x00000000200003e8        0xc /home/ch/RIOT/tests/driver_scd30/bin/lora-e5-dev/application_tests_driver_scd30/main.o
                0x00000000200003e8                result
 .bss.scd30_dev
                0x00000000200003f4        0x8 /home/ch/RIOT/tests/driver_scd30/bin/lora-e5-dev/application_tests_driver_scd30/main.o
                0x00000000200003f4                scd30_dev
 .bss.main_stack
                0x00000000200003fc      0x600 /home/ch/RIOT/tests/driver_scd30/bin/lora-e5-dev/core/init.o
 .bss.crashed   0x00000000200009fc        0x4 /home/ch/RIOT/tests/driver_scd30/bin/lora-e5-dev/core/panic.o
 .bss.runqueue_bitcache
                0x0000000020000a00        0x4 /home/ch/RIOT/tests/driver_scd30/bin/lora-e5-dev/core/sched.o
 .bss.sched_active_pid
                0x0000000020000a04        0x2 /home/ch/RIOT/tests/driver_scd30/bin/lora-e5-dev/core/sched.o
                0x0000000020000a04                sched_active_pid
 *fill*         0x0000000020000a06        0x2 
 .bss.sched_active_thread
                0x0000000020000a08        0x4 /home/ch/RIOT/tests/driver_scd30/bin/lora-e5-dev/core/sched.o
                0x0000000020000a08                sched_active_thread
 .bss.sched_context_switch_request
                0x0000000020000a0c        0x4 /home/ch/RIOT/tests/driver_scd30/bin/lora-e5-dev/core/sched.o
                0x0000000020000a0c                sched_context_switch_request
 .bss.sched_num_threads
                0x0000000020000a10        0x4 /home/ch/RIOT/tests/driver_scd30/bin/lora-e5-dev/core/sched.o
                0x0000000020000a10                sched_num_threads
 .bss.sched_runqueues
                0x0000000020000a14       0x40 /home/ch/RIOT/tests/driver_scd30/bin/lora-e5-dev/core/sched.o
                0x0000000020000a14                sched_runqueues
 .bss.sched_threads
                0x0000000020000a54       0x84 /home/ch/RIOT/tests/driver_scd30/bin/lora-e5-dev/core/sched.o
                0x0000000020000a54                sched_threads
 .bss._lock     0x0000000020000ad8        0x4 /home/ch/RIOT/tests/driver_scd30/bin/lora-e5-dev/malloc_thread_safe/malloc_wrappers.o
 .bss.locks     0x0000000020000adc        0x4 /home/ch/RIOT/tests/driver_scd30/bin/lora-e5-dev/periph/i2c_1.o
 .bss.isr_ctx   0x0000000020000ae0        0x8 /home/ch/RIOT/tests/driver_scd30/bin/lora-e5-dev/periph/timer.o
 .bss.isr_ctx   0x0000000020000ae8       0x24 /home/ch/RIOT/tests/driver_scd30/bin/lora-e5-dev/periph/uart.o
 .bss._in_handler
                0x0000000020000b0c        0x4 /home/ch/RIOT/tests/driver_scd30/bin/lora-e5-dev/xtimer/xtimer_core.o
 .bss._lltimer_ongoing
                0x0000000020000b10        0x1 /home/ch/RIOT/tests/driver_scd30/bin/lora-e5-dev/xtimer/xtimer_core.o
 *fill*         0x0000000020000b11        0x7 
 .bss._xtimer_current_time
                0x0000000020000b18        0x8 /home/ch/RIOT/tests/driver_scd30/bin/lora-e5-dev/xtimer/xtimer_core.o
                0x0000000020000b18                _xtimer_current_time
 .bss.long_list_head
                0x0000000020000b20        0x4 /home/ch/RIOT/tests/driver_scd30/bin/lora-e5-dev/xtimer/xtimer_core.o
 .bss.timer_list_head
                0x0000000020000b24        0x4 /home/ch/RIOT/tests/driver_scd30/bin/lora-e5-dev/xtimer/xtimer_core.o
 .bss           0x0000000020000b28        0x8 /usr/lib/gcc/arm-none-eabi/9.2.1/../../../arm-none-eabi/lib/thumb/v7e-m/nofp/libc_nano.a(lib_a-nano-mallocr.o)
                0x0000000020000b28                __malloc_free_list
                0x0000000020000b2c                __malloc_sbrk_start
 *(COMMON)
                0x0000000020000b30                . = ALIGN (0x4)
                0x0000000020000b30                _ebss = .
                0x0000000020000b30                _ezero = .

.noinit         0x0000000020000b30        0x0 load address 0x0000000008006e90
                0x0000000020000b30                __noinit_start = .
 *(.noinit)
                0x0000000020000b30                . = ALIGN (0x4)
                0x0000000020000b30                __noinit_end = .
                0x0000000020000b30                . = ALIGN (0x4)
                0x0000000020000b30                _sheap = .
                0x0000000020010000                _eheap = (ORIGIN (ram) + LENGTH (ram))
                0x0000000020000000                _sram = ORIGIN (ram)
                0x0000000020010000                _eram = (ORIGIN (ram) + LENGTH (ram))
                0x0000000008000000                _srom = ORIGIN (rom)
                0x0000000008040000                _erom = (ORIGIN (rom) + LENGTH (rom))
                0x0000000008006e90                _sbackup_data_load = LOADADDR (.backup.data)

.backup.data    0x0000000000000000        0x0 load address 0x0000000008006e90
                0x0000000000000000                _sbackup_data = .
 *(.backup.data)
                0x0000000000000000                _ebackup_data = .
                0x0000000000000000                . = ALIGN (0x4)

.backup.bss     0x0000000000000000        0x0 load address 0x0000000008006e90
                0x0000000000000000                _sbackup_bss = .
 *(.backup.bss)
                0x0000000000000000                _ebackup_bss = .
                0x0000000000000000                . = ALIGN (0x4)

.heap3          0x0000000000000000        0x0 load address 0x0000000008006e90
                0x0000000000000000                _sheap1 = .
                0x0000000000000000                _eheap1 = (ORIGIN (bkup_ram) + LENGTH (bkup_ram))

.end_fw         0x0000000008006e90        0x0
                0x0000000008006e90                _end_fw = .
OUTPUT(/home/ch/RIOT/tests/driver_scd30/bin/lora-e5-dev/tests_driver_scd30.elf elf32-littlearm)
LOAD linker stubs

.debug_info     0x0000000000000000    0x4deac
 .debug_info    0x0000000000000000     0x1bfa /home/ch/RIOT/tests/driver_scd30/bin/lora-e5-dev/application_tests_driver_scd30/main.o
 .debug_info    0x0000000000001bfa      0xd3f /home/ch/RIOT/tests/driver_scd30/bin/lora-e5-dev/auto_init/auto_init.o
 .debug_info    0x0000000000002939     0x16ab /home/ch/RIOT/tests/driver_scd30/bin/lora-e5-dev/board/board.o
 .debug_info    0x0000000000003fe4      0x158 /home/ch/RIOT/tests/driver_scd30/bin/lora-e5-dev/checksum/crc8.o
 .debug_info    0x000000000000413c      0xe90 /home/ch/RIOT/tests/driver_scd30/bin/lora-e5-dev/core/init.o
 .debug_info    0x0000000000004fcc     0x1b99 /home/ch/RIOT/tests/driver_scd30/bin/lora-e5-dev/core/mutex.o
 .debug_info    0x0000000000006b65      0xf0b /home/ch/RIOT/tests/driver_scd30/bin/lora-e5-dev/core/panic.o
 .debug_info    0x0000000000007a70     0x14b1 /home/ch/RIOT/tests/driver_scd30/bin/lora-e5-dev/core/sched.o
 .debug_info    0x0000000000008f21     0x1e7a /home/ch/RIOT/tests/driver_scd30/bin/lora-e5-dev/core/thread.o
 .debug_info    0x000000000000ad9b     0x1386 /home/ch/RIOT/tests/driver_scd30/bin/lora-e5-dev/cortexm_common/cortexm_init.o
 .debug_info    0x000000000000c121      0xd6b /home/ch/RIOT/tests/driver_scd30/bin/lora-e5-dev/cortexm_common/panic.o
 .debug_info    0x000000000000ce8c     0x12a1 /home/ch/RIOT/tests/driver_scd30/bin/lora-e5-dev/cortexm_common/thread_arch.o
 .debug_info    0x000000000000e12d     0x172a /home/ch/RIOT/tests/driver_scd30/bin/lora-e5-dev/cortexm_common/vectors_cortexm.o
 .debug_info    0x000000000000f857     0x18d9 /home/ch/RIOT/tests/driver_scd30/bin/lora-e5-dev/cpu/cpu_common.o
 .debug_info    0x0000000000011130     0x1609 /home/ch/RIOT/tests/driver_scd30/bin/lora-e5-dev/cpu/cpu_init.o
 .debug_info    0x0000000000012739     0x10e0 /home/ch/RIOT/tests/driver_scd30/bin/lora-e5-dev/malloc_thread_safe/malloc_wrappers.o
 .debug_info    0x0000000000013819     0x252d /home/ch/RIOT/tests/driver_scd30/bin/lora-e5-dev/newlib_syscalls_default/syscalls.o
 .debug_info    0x0000000000015d46     0x1538 /home/ch/RIOT/tests/driver_scd30/bin/lora-e5-dev/periph_common/init.o
 .debug_info    0x000000000001727e     0x1e4a /home/ch/RIOT/tests/driver_scd30/bin/lora-e5-dev/periph/gpio_all.o
 .debug_info    0x00000000000190c8     0x28a1 /home/ch/RIOT/tests/driver_scd30/bin/lora-e5-dev/periph/i2c_1.o
 .debug_info    0x000000000001b969     0x11a8 /home/ch/RIOT/tests/driver_scd30/bin/lora-e5-dev/periph/pm.o
 .debug_info    0x000000000001cb11     0x1ec4 /home/ch/RIOT/tests/driver_scd30/bin/lora-e5-dev/periph/timer.o
 .debug_info    0x000000000001e9d5     0x2236 /home/ch/RIOT/tests/driver_scd30/bin/lora-e5-dev/periph/uart.o
 .debug_info    0x0000000000020c0b     0x11b7 /home/ch/RIOT/tests/driver_scd30/bin/lora-e5-dev/pm_layered/pm.o
 .debug_info    0x0000000000021dc2     0x2709 /home/ch/RIOT/tests/driver_scd30/bin/lora-e5-dev/scd30/scd30.o
 .debug_info    0x00000000000244cb     0x16bf /home/ch/RIOT/tests/driver_scd30/bin/lora-e5-dev/stdio_uart/stdio_uart.o
 .debug_info    0x0000000000025b8a     0x195f /home/ch/RIOT/tests/driver_scd30/bin/lora-e5-dev/stm32_clk/stmclk_common.o
 .debug_info    0x00000000000274e9     0x19ee /home/ch/RIOT/tests/driver_scd30/bin/lora-e5-dev/stm32_clk/stmclk_l4wx.o
 .debug_info    0x0000000000028ed7      0x2a0 /home/ch/RIOT/tests/driver_scd30/bin/lora-e5-dev/stm32_vectors/STM32WLE5xx.o
 .debug_info    0x0000000000029177     0x2083 /home/ch/RIOT/tests/driver_scd30/bin/lora-e5-dev/xtimer/xtimer_core.o
 .debug_info    0x000000000002b1fa     0x2a8f /home/ch/RIOT/tests/driver_scd30/bin/lora-e5-dev/xtimer/xtimer.o
 .debug_info    0x000000000002dc89       0x26 /usr/lib/gcc/arm-none-eabi/9.2.1/thumb/v7e-m/nofp/libgcc.a(_arm_addsubdf3.o)
 .debug_info    0x000000000002dcaf      0x92a /usr/lib/gcc/arm-none-eabi/9.2.1/../../../arm-none-eabi/lib/thumb/v7e-m/nofp/libc_nano.a(lib_a-impure.o)
 .debug_info    0x000000000002e5d9      0x11a /usr/lib/gcc/arm-none-eabi/9.2.1/../../../arm-none-eabi/lib/thumb/v7e-m/nofp/libc_nano.a(lib_a-init.o)
 .debug_info    0x000000000002e6f3      0x9b6 /usr/lib/gcc/arm-none-eabi/9.2.1/../../../arm-none-eabi/lib/thumb/v7e-m/nofp/libc_nano.a(lib_a-malloc.o)
 .debug_info    0x000000000002f0a9       0x26 /usr/lib/gcc/arm-none-eabi/9.2.1/../../../arm-none-eabi/lib/thumb/v7e-m/nofp/libc_nano.a(lib_a-memcpy.o)
 .debug_info    0x000000000002f0cf      0xf21 /usr/lib/gcc/arm-none-eabi/9.2.1/../../../arm-none-eabi/lib/thumb/v7e-m/nofp/libc_nano.a(lib_a-memset.o)
 .debug_info    0x000000000002fff0      0xb85 /usr/lib/gcc/arm-none-eabi/9.2.1/../../../arm-none-eabi/lib/thumb/v7e-m/nofp/libc_nano.a(lib_a-nano-freer.o)
 .debug_info    0x0000000000030b75      0xc5a /usr/lib/gcc/arm-none-eabi/9.2.1/../../../arm-none-eabi/lib/thumb/v7e-m/nofp/libc_nano.a(lib_a-nano-mallocr.o)
 .debug_info    0x00000000000317cf     0x1adb /usr/lib/gcc/arm-none-eabi/9.2.1/../../../arm-none-eabi/lib/thumb/v7e-m/nofp/libc_nano.a(lib_a-nano-vfprintf_float.o)
 .debug_info    0x00000000000332aa     0x1592 /usr/lib/gcc/arm-none-eabi/9.2.1/../../../arm-none-eabi/lib/thumb/v7e-m/nofp/libc_nano.a(lib_a-nano-vfprintf_i.o)
 .debug_info    0x000000000003483c      0xc67 /usr/lib/gcc/arm-none-eabi/9.2.1/../../../arm-none-eabi/lib/thumb/v7e-m/nofp/libc_nano.a(lib_a-printf.o)
 .debug_info    0x00000000000354a3      0xd13 /usr/lib/gcc/arm-none-eabi/9.2.1/../../../arm-none-eabi/lib/thumb/v7e-m/nofp/libc_nano.a(lib_a-puts.o)
 .debug_info    0x00000000000361b6       0x26 /usr/lib/gcc/arm-none-eabi/9.2.1/../../../arm-none-eabi/lib/thumb/v7e-m/nofp/libc_nano.a(lib_a-strlen.o)
 .debug_info    0x00000000000361dc      0xc90 /usr/lib/gcc/arm-none-eabi/9.2.1/../../../arm-none-eabi/lib/thumb/v7e-m/nofp/libc_nano.a(lib_a-wbuf.o)
 .debug_info    0x0000000000036e6c      0xbfa /usr/lib/gcc/arm-none-eabi/9.2.1/../../../arm-none-eabi/lib/thumb/v7e-m/nofp/libc_nano.a(lib_a-wsetup.o)
 .debug_info    0x0000000000037a66     0x1b3c /usr/lib/gcc/arm-none-eabi/9.2.1/../../../arm-none-eabi/lib/thumb/v7e-m/nofp/libc_nano.a(lib_a-dtoa.o)
 .debug_info    0x00000000000395a2      0xd73 /usr/lib/gcc/arm-none-eabi/9.2.1/../../../arm-none-eabi/lib/thumb/v7e-m/nofp/libc_nano.a(lib_a-fflush.o)
 .debug_info    0x000000000003a315     0x11a8 /usr/lib/gcc/arm-none-eabi/9.2.1/../../../arm-none-eabi/lib/thumb/v7e-m/nofp/libc_nano.a(lib_a-findfp.o)
 .debug_info    0x000000000003b4bd      0xa7a /usr/lib/gcc/arm-none-eabi/9.2.1/../../../arm-none-eabi/lib/thumb/v7e-m/nofp/libc_nano.a(lib_a-fprintf.o)
 .debug_info    0x000000000003bf37      0xca4 /usr/lib/gcc/arm-none-eabi/9.2.1/../../../arm-none-eabi/lib/thumb/v7e-m/nofp/libc_nano.a(lib_a-fwalk.o)
 .debug_info    0x000000000003cbdb      0xf49 /usr/lib/gcc/arm-none-eabi/9.2.1/../../../arm-none-eabi/lib/thumb/v7e-m/nofp/libc_nano.a(lib_a-localeconv.o)
 .debug_info    0x000000000003db24      0xf68 /usr/lib/gcc/arm-none-eabi/9.2.1/../../../arm-none-eabi/lib/thumb/v7e-m/nofp/libc_nano.a(lib_a-makebuf.o)
 .debug_info    0x000000000003ea8c       0x26 /usr/lib/gcc/arm-none-eabi/9.2.1/../../../arm-none-eabi/lib/thumb/v7e-m/nofp/libc_nano.a(lib_a-memchr.o)
 .debug_info    0x000000000003eab2      0x961 /usr/lib/gcc/arm-none-eabi/9.2.1/../../../arm-none-eabi/lib/thumb/v7e-m/nofp/libc_nano.a(lib_a-mlock.o)
 .debug_info    0x000000000003f413     0x240f /usr/lib/gcc/arm-none-eabi/9.2.1/../../../arm-none-eabi/lib/thumb/v7e-m/nofp/libc_nano.a(lib_a-mprec.o)
 .debug_info    0x0000000000041822      0xafe /usr/lib/gcc/arm-none-eabi/9.2.1/../../../arm-none-eabi/lib/thumb/v7e-m/nofp/libc_nano.a(lib_a-nano-callocr.o)
 .debug_info    0x0000000000042320      0xb77 /usr/lib/gcc/arm-none-eabi/9.2.1/../../../arm-none-eabi/lib/thumb/v7e-m/nofp/libc_nano.a(lib_a-nano-reallocr.o)
 .debug_info    0x0000000000042e97     0x176a /usr/lib/gcc/arm-none-eabi/9.2.1/../../../arm-none-eabi/lib/thumb/v7e-m/nofp/libc_nano.a(lib_a-nano-vfprintf.o)
 .debug_info    0x0000000000044601      0xe67 /usr/lib/gcc/arm-none-eabi/9.2.1/../../../arm-none-eabi/lib/thumb/v7e-m/nofp/libc_nano.a(lib_a-stdio.o)
 .debug_info    0x0000000000045468      0xa41 /usr/lib/gcc/arm-none-eabi/9.2.1/../../../arm-none-eabi/lib/thumb/v7e-m/nofp/libc_nano.a(lib_a-assert.o)
 .debug_info    0x0000000000045ea9      0xeed /usr/lib/gcc/arm-none-eabi/9.2.1/../../../arm-none-eabi/lib/thumb/v7e-m/nofp/libc_nano.a(lib_a-fvwrite.o)
 .debug_info    0x0000000000046d96     0x10ca /usr/lib/gcc/arm-none-eabi/9.2.1/../../../arm-none-eabi/lib/thumb/v7e-m/nofp/libc_nano.a(lib_a-locale.o)
 .debug_info    0x0000000000047e60     0x1044 /usr/lib/gcc/arm-none-eabi/9.2.1/../../../arm-none-eabi/lib/thumb/v7e-m/nofp/libc_nano.a(lib_a-mbtowc_r.o)
 .debug_info    0x0000000000048ea4      0xf2b /usr/lib/gcc/arm-none-eabi/9.2.1/../../../arm-none-eabi/lib/thumb/v7e-m/nofp/libc_nano.a(lib_a-memmove.o)
 .debug_info    0x0000000000049dcf      0xaa6 /usr/lib/gcc/arm-none-eabi/9.2.1/../../../arm-none-eabi/lib/thumb/v7e-m/nofp/libc_nano.a(lib_a-nano-msizer.o)
 .debug_info    0x000000000004a875      0xffd /usr/lib/gcc/arm-none-eabi/9.2.1/../../../arm-none-eabi/lib/thumb/v7e-m/nofp/libc_nano.a(lib_a-wctomb_r.o)
 .debug_info    0x000000000004b872      0x9b5 /usr/lib/gcc/arm-none-eabi/9.2.1/../../../arm-none-eabi/lib/thumb/v7e-m/nofp/libc_nano.a(lib_a-abort.o)
 .debug_info    0x000000000004c227      0xe91 /usr/lib/gcc/arm-none-eabi/9.2.1/../../../arm-none-eabi/lib/thumb/v7e-m/nofp/libc_nano.a(lib_a-ctype_.o)
 .debug_info    0x000000000004d0b8      0xd5c /usr/lib/gcc/arm-none-eabi/9.2.1/../../../arm-none-eabi/lib/thumb/v7e-m/nofp/libc_nano.a(lib_a-signal.o)
 .debug_info    0x000000000004de14       0x26 /usr/lib/gcc/arm-none-eabi/9.2.1/thumb/v7e-m/nofp/libgcc.a(_arm_muldivdf3.o)
 .debug_info    0x000000000004de3a       0x26 /usr/lib/gcc/arm-none-eabi/9.2.1/thumb/v7e-m/nofp/libgcc.a(_arm_cmpdf2.o)
 .debug_info    0x000000000004de60       0x26 /usr/lib/gcc/arm-none-eabi/9.2.1/thumb/v7e-m/nofp/libgcc.a(_arm_unorddf2.o)
 .debug_info    0x000000000004de86       0x26 /usr/lib/gcc/arm-none-eabi/9.2.1/thumb/v7e-m/nofp/libgcc.a(_arm_fixdfsi.o)

.debug_abbrev   0x0000000000000000     0xcad6
 .debug_abbrev  0x0000000000000000      0x37e /home/ch/RIOT/tests/driver_scd30/bin/lora-e5-dev/application_tests_driver_scd30/main.o
 .debug_abbrev  0x000000000000037e      0x231 /home/ch/RIOT/tests/driver_scd30/bin/lora-e5-dev/auto_init/auto_init.o
 .debug_abbrev  0x00000000000005af      0x2c6 /home/ch/RIOT/tests/driver_scd30/bin/lora-e5-dev/board/board.o
 .debug_abbrev  0x0000000000000875       0xc7 /home/ch/RIOT/tests/driver_scd30/bin/lora-e5-dev/checksum/crc8.o
 .debug_abbrev  0x000000000000093c      0x32c /home/ch/RIOT/tests/driver_scd30/bin/lora-e5-dev/core/init.o
 .debug_abbrev  0x0000000000000c68      0x40d /home/ch/RIOT/tests/driver_scd30/bin/lora-e5-dev/core/mutex.o
 .debug_abbrev  0x0000000000001075      0x364 /home/ch/RIOT/tests/driver_scd30/bin/lora-e5-dev/core/panic.o
 .debug_abbrev  0x00000000000013d9      0x4d7 /home/ch/RIOT/tests/driver_scd30/bin/lora-e5-dev/core/sched.o
 .debug_abbrev  0x00000000000018b0      0x532 /home/ch/RIOT/tests/driver_scd30/bin/lora-e5-dev/core/thread.o
 .debug_abbrev  0x0000000000001de2      0x3b5 /home/ch/RIOT/tests/driver_scd30/bin/lora-e5-dev/cortexm_common/cortexm_init.o
 .debug_abbrev  0x0000000000002197      0x2fe /home/ch/RIOT/tests/driver_scd30/bin/lora-e5-dev/cortexm_common/panic.o
 .debug_abbrev  0x0000000000002495      0x48e /home/ch/RIOT/tests/driver_scd30/bin/lora-e5-dev/cortexm_common/thread_arch.o
 .debug_abbrev  0x0000000000002923      0x495 /home/ch/RIOT/tests/driver_scd30/bin/lora-e5-dev/cortexm_common/vectors_cortexm.o
 .debug_abbrev  0x0000000000002db8      0x37d /home/ch/RIOT/tests/driver_scd30/bin/lora-e5-dev/cpu/cpu_common.o
 .debug_abbrev  0x0000000000003135      0x2ee /home/ch/RIOT/tests/driver_scd30/bin/lora-e5-dev/cpu/cpu_init.o
 .debug_abbrev  0x0000000000003423      0x3f1 /home/ch/RIOT/tests/driver_scd30/bin/lora-e5-dev/malloc_thread_safe/malloc_wrappers.o
 .debug_abbrev  0x0000000000003814      0x55e /home/ch/RIOT/tests/driver_scd30/bin/lora-e5-dev/newlib_syscalls_default/syscalls.o
 .debug_abbrev  0x0000000000003d72      0x2d3 /home/ch/RIOT/tests/driver_scd30/bin/lora-e5-dev/periph_common/init.o
 .debug_abbrev  0x0000000000004045      0x3ee /home/ch/RIOT/tests/driver_scd30/bin/lora-e5-dev/periph/gpio_all.o
 .debug_abbrev  0x0000000000004433      0x596 /home/ch/RIOT/tests/driver_scd30/bin/lora-e5-dev/periph/i2c_1.o
 .debug_abbrev  0x00000000000049c9      0x3cc /home/ch/RIOT/tests/driver_scd30/bin/lora-e5-dev/periph/pm.o
 .debug_abbrev  0x0000000000004d95      0x47e /home/ch/RIOT/tests/driver_scd30/bin/lora-e5-dev/periph/timer.o
 .debug_abbrev  0x0000000000005213      0x52b /home/ch/RIOT/tests/driver_scd30/bin/lora-e5-dev/periph/uart.o
 .debug_abbrev  0x000000000000573e      0x3a1 /home/ch/RIOT/tests/driver_scd30/bin/lora-e5-dev/pm_layered/pm.o
 .debug_abbrev  0x0000000000005adf      0x523 /home/ch/RIOT/tests/driver_scd30/bin/lora-e5-dev/scd30/scd30.o
 .debug_abbrev  0x0000000000006002      0x344 /home/ch/RIOT/tests/driver_scd30/bin/lora-e5-dev/stdio_uart/stdio_uart.o
 .debug_abbrev  0x0000000000006346      0x2fb /home/ch/RIOT/tests/driver_scd30/bin/lora-e5-dev/stm32_clk/stmclk_common.o
 .debug_abbrev  0x0000000000006641      0x39b /home/ch/RIOT/tests/driver_scd30/bin/lora-e5-dev/stm32_clk/stmclk_l4wx.o
 .debug_abbrev  0x00000000000069dc       0xf4 /home/ch/RIOT/tests/driver_scd30/bin/lora-e5-dev/stm32_vectors/STM32WLE5xx.o
 .debug_abbrev  0x0000000000006ad0      0x541 /home/ch/RIOT/tests/driver_scd30/bin/lora-e5-dev/xtimer/xtimer_core.o
 .debug_abbrev  0x0000000000007011      0x553 /home/ch/RIOT/tests/driver_scd30/bin/lora-e5-dev/xtimer/xtimer.o
 .debug_abbrev  0x0000000000007564       0x14 /usr/lib/gcc/arm-none-eabi/9.2.1/thumb/v7e-m/nofp/libgcc.a(_arm_addsubdf3.o)
 .debug_abbrev  0x0000000000007578      0x17a /usr/lib/gcc/arm-none-eabi/9.2.1/../../../arm-none-eabi/lib/thumb/v7e-m/nofp/libc_nano.a(lib_a-impure.o)
 .debug_abbrev  0x00000000000076f2       0xcc /usr/lib/gcc/arm-none-eabi/9.2.1/../../../arm-none-eabi/lib/thumb/v7e-m/nofp/libc_nano.a(lib_a-init.o)
 .debug_abbrev  0x00000000000077be      0x1f2 /usr/lib/gcc/arm-none-eabi/9.2.1/../../../arm-none-eabi/lib/thumb/v7e-m/nofp/libc_nano.a(lib_a-malloc.o)
 .debug_abbrev  0x00000000000079b0       0x14 /usr/lib/gcc/arm-none-eabi/9.2.1/../../../arm-none-eabi/lib/thumb/v7e-m/nofp/libc_nano.a(lib_a-memcpy.o)
 .debug_abbrev  0x00000000000079c4      0x1d9 /usr/lib/gcc/arm-none-eabi/9.2.1/../../../arm-none-eabi/lib/thumb/v7e-m/nofp/libc_nano.a(lib_a-memset.o)
 .debug_abbrev  0x0000000000007b9d      0x286 /usr/lib/gcc/arm-none-eabi/9.2.1/../../../arm-none-eabi/lib/thumb/v7e-m/nofp/libc_nano.a(lib_a-nano-freer.o)
 .debug_abbrev  0x0000000000007e23      0x2d1 /usr/lib/gcc/arm-none-eabi/9.2.1/../../../arm-none-eabi/lib/thumb/v7e-m/nofp/libc_nano.a(lib_a-nano-mallocr.o)
 .debug_abbrev  0x00000000000080f4      0x351 /usr/lib/gcc/arm-none-eabi/9.2.1/../../../arm-none-eabi/lib/thumb/v7e-m/nofp/libc_nano.a(lib_a-nano-vfprintf_float.o)
 .debug_abbrev  0x0000000000008445      0x2dc /usr/lib/gcc/arm-none-eabi/9.2.1/../../../arm-none-eabi/lib/thumb/v7e-m/nofp/libc_nano.a(lib_a-nano-vfprintf_i.o)
 .debug_abbrev  0x0000000000008721      0x29f /usr/lib/gcc/arm-none-eabi/9.2.1/../../../arm-none-eabi/lib/thumb/v7e-m/nofp/libc_nano.a(lib_a-printf.o)
 .debug_abbrev  0x00000000000089c0      0x2de /usr/lib/gcc/arm-none-eabi/9.2.1/../../../arm-none-eabi/lib/thumb/v7e-m/nofp/libc_nano.a(lib_a-puts.o)
 .debug_abbrev  0x0000000000008c9e       0x14 /usr/lib/gcc/arm-none-eabi/9.2.1/../../../arm-none-eabi/lib/thumb/v7e-m/nofp/libc_nano.a(lib_a-strlen.o)
 .debug_abbrev  0x0000000000008cb2      0x285 /usr/lib/gcc/arm-none-eabi/9.2.1/../../../arm-none-eabi/lib/thumb/v7e-m/nofp/libc_nano.a(lib_a-wbuf.o)
 .debug_abbrev  0x0000000000008f37      0x23a /usr/lib/gcc/arm-none-eabi/9.2.1/../../../arm-none-eabi/lib/thumb/v7e-m/nofp/libc_nano.a(lib_a-wsetup.o)
 .debug_abbrev  0x0000000000009171      0x310 /usr/lib/gcc/arm-none-eabi/9.2.1/../../../arm-none-eabi/lib/thumb/v7e-m/nofp/libc_nano.a(lib_a-dtoa.o)
 .debug_abbrev  0x0000000000009481      0x2e4 /usr/lib/gcc/arm-none-eabi/9.2.1/../../../arm-none-eabi/lib/thumb/v7e-m/nofp/libc_nano.a(lib_a-fflush.o)
 .debug_abbrev  0x0000000000009765      0x3dc /usr/lib/gcc/arm-none-eabi/9.2.1/../../../arm-none-eabi/lib/thumb/v7e-m/nofp/libc_nano.a(lib_a-findfp.o)
 .debug_abbrev  0x0000000000009b41      0x23c /usr/lib/gcc/arm-none-eabi/9.2.1/../../../arm-none-eabi/lib/thumb/v7e-m/nofp/libc_nano.a(lib_a-fprintf.o)
 .debug_abbrev  0x0000000000009d7d      0x210 /usr/lib/gcc/arm-none-eabi/9.2.1/../../../arm-none-eabi/lib/thumb/v7e-m/nofp/libc_nano.a(lib_a-fwalk.o)
 .debug_abbrev  0x0000000000009f8d      0x23f /usr/lib/gcc/arm-none-eabi/9.2.1/../../../arm-none-eabi/lib/thumb/v7e-m/nofp/libc_nano.a(lib_a-localeconv.o)
 .debug_abbrev  0x000000000000a1cc      0x2f6 /usr/lib/gcc/arm-none-eabi/9.2.1/../../../arm-none-eabi/lib/thumb/v7e-m/nofp/libc_nano.a(lib_a-makebuf.o)
 .debug_abbrev  0x000000000000a4c2       0x14 /usr/lib/gcc/arm-none-eabi/9.2.1/../../../arm-none-eabi/lib/thumb/v7e-m/nofp/libc_nano.a(lib_a-memchr.o)
 .debug_abbrev  0x000000000000a4d6      0x1c5 /usr/lib/gcc/arm-none-eabi/9.2.1/../../../arm-none-eabi/lib/thumb/v7e-m/nofp/libc_nano.a(lib_a-mlock.o)
 .debug_abbrev  0x000000000000a69b      0x474 /usr/lib/gcc/arm-none-eabi/9.2.1/../../../arm-none-eabi/lib/thumb/v7e-m/nofp/libc_nano.a(lib_a-mprec.o)
 .debug_abbrev  0x000000000000ab0f      0x20d /usr/lib/gcc/arm-none-eabi/9.2.1/../../../arm-none-eabi/lib/thumb/v7e-m/nofp/libc_nano.a(lib_a-nano-callocr.o)
 .debug_abbrev  0x000000000000ad1c      0x22a /usr/lib/gcc/arm-none-eabi/9.2.1/../../../arm-none-eabi/lib/thumb/v7e-m/nofp/libc_nano.a(lib_a-nano-reallocr.o)
 .debug_abbrev  0x000000000000af46      0x337 /usr/lib/gcc/arm-none-eabi/9.2.1/../../../arm-none-eabi/lib/thumb/v7e-m/nofp/libc_nano.a(lib_a-nano-vfprintf.o)
 .debug_abbrev  0x000000000000b27d      0x26f /usr/lib/gcc/arm-none-eabi/9.2.1/../../../arm-none-eabi/lib/thumb/v7e-m/nofp/libc_nano.a(lib_a-stdio.o)
 .debug_abbrev  0x000000000000b4ec      0x1ff /usr/lib/gcc/arm-none-eabi/9.2.1/../../../arm-none-eabi/lib/thumb/v7e-m/nofp/libc_nano.a(lib_a-assert.o)
 .debug_abbrev  0x000000000000b6eb      0x270 /usr/lib/gcc/arm-none-eabi/9.2.1/../../../arm-none-eabi/lib/thumb/v7e-m/nofp/libc_nano.a(lib_a-fvwrite.o)
 .debug_abbrev  0x000000000000b95b      0x2aa /usr/lib/gcc/arm-none-eabi/9.2.1/../../../arm-none-eabi/lib/thumb/v7e-m/nofp/libc_nano.a(lib_a-locale.o)
 .debug_abbrev  0x000000000000bc05      0x221 /usr/lib/gcc/arm-none-eabi/9.2.1/../../../arm-none-eabi/lib/thumb/v7e-m/nofp/libc_nano.a(lib_a-mbtowc_r.o)
 .debug_abbrev  0x000000000000be26      0x1de /usr/lib/gcc/arm-none-eabi/9.2.1/../../../arm-none-eabi/lib/thumb/v7e-m/nofp/libc_nano.a(lib_a-memmove.o)
 .debug_abbrev  0x000000000000c004      0x1e5 /usr/lib/gcc/arm-none-eabi/9.2.1/../../../arm-none-eabi/lib/thumb/v7e-m/nofp/libc_nano.a(lib_a-nano-msizer.o)
 .debug_abbrev  0x000000000000c1e9      0x22b /usr/lib/gcc/arm-none-eabi/9.2.1/../../../arm-none-eabi/lib/thumb/v7e-m/nofp/libc_nano.a(lib_a-wctomb_r.o)
 .debug_abbrev  0x000000000000c414      0x1cd /usr/lib/gcc/arm-none-eabi/9.2.1/../../../arm-none-eabi/lib/thumb/v7e-m/nofp/libc_nano.a(lib_a-abort.o)
 .debug_abbrev  0x000000000000c5e1      0x178 /usr/lib/gcc/arm-none-eabi/9.2.1/../../../arm-none-eabi/lib/thumb/v7e-m/nofp/libc_nano.a(lib_a-ctype_.o)
 .debug_abbrev  0x000000000000c759      0x32d /usr/lib/gcc/arm-none-eabi/9.2.1/../../../arm-none-eabi/lib/thumb/v7e-m/nofp/libc_nano.a(lib_a-signal.o)
 .debug_abbrev  0x000000000000ca86       0x14 /usr/lib/gcc/arm-none-eabi/9.2.1/thumb/v7e-m/nofp/libgcc.a(_arm_muldivdf3.o)
 .debug_abbrev  0x000000000000ca9a       0x14 /usr/lib/gcc/arm-none-eabi/9.2.1/thumb/v7e-m/nofp/libgcc.a(_arm_cmpdf2.o)
 .debug_abbrev  0x000000000000caae       0x14 /usr/lib/gcc/arm-none-eabi/9.2.1/thumb/v7e-m/nofp/libgcc.a(_arm_unorddf2.o)
 .debug_abbrev  0x000000000000cac2       0x14 /usr/lib/gcc/arm-none-eabi/9.2.1/thumb/v7e-m/nofp/libgcc.a(_arm_fixdfsi.o)

.debug_loc      0x0000000000000000    0x11384
 .debug_loc     0x0000000000000000      0x122 /home/ch/RIOT/tests/driver_scd30/bin/lora-e5-dev/application_tests_driver_scd30/main.o
 .debug_loc     0x0000000000000122       0x2a /home/ch/RIOT/tests/driver_scd30/bin/lora-e5-dev/board/board.o
 .debug_loc     0x000000000000014c      0x10d /home/ch/RIOT/tests/driver_scd30/bin/lora-e5-dev/checksum/crc8.o
 .debug_loc     0x0000000000000259       0x4f /home/ch/RIOT/tests/driver_scd30/bin/lora-e5-dev/core/init.o
 .debug_loc     0x00000000000002a8      0x7d2 /home/ch/RIOT/tests/driver_scd30/bin/lora-e5-dev/core/mutex.o
 .debug_loc     0x0000000000000a7a       0x86 /home/ch/RIOT/tests/driver_scd30/bin/lora-e5-dev/core/panic.o
 .debug_loc     0x0000000000000b00      0x2ca /home/ch/RIOT/tests/driver_scd30/bin/lora-e5-dev/core/sched.o
 .debug_loc     0x0000000000000dca      0xb20 /home/ch/RIOT/tests/driver_scd30/bin/lora-e5-dev/core/thread.o
 .debug_loc     0x00000000000018ea      0x194 /home/ch/RIOT/tests/driver_scd30/bin/lora-e5-dev/cortexm_common/cortexm_init.o
 .debug_loc     0x0000000000001a7e       0x63 /home/ch/RIOT/tests/driver_scd30/bin/lora-e5-dev/cortexm_common/panic.o
 .debug_loc     0x0000000000001ae1      0x243 /home/ch/RIOT/tests/driver_scd30/bin/lora-e5-dev/cortexm_common/thread_arch.o
 .debug_loc     0x0000000000001d24      0x443 /home/ch/RIOT/tests/driver_scd30/bin/lora-e5-dev/cortexm_common/vectors_cortexm.o
 .debug_loc     0x0000000000002167      0x22f /home/ch/RIOT/tests/driver_scd30/bin/lora-e5-dev/cpu/cpu_common.o
 .debug_loc     0x0000000000002396       0x2a /home/ch/RIOT/tests/driver_scd30/bin/lora-e5-dev/cpu/cpu_init.o
 .debug_loc     0x00000000000023c0      0x2cc /home/ch/RIOT/tests/driver_scd30/bin/lora-e5-dev/malloc_thread_safe/malloc_wrappers.o
 .debug_loc     0x000000000000268c      0x6af /home/ch/RIOT/tests/driver_scd30/bin/lora-e5-dev/newlib_syscalls_default/syscalls.o
 .debug_loc     0x0000000000002d3b       0x2a /home/ch/RIOT/tests/driver_scd30/bin/lora-e5-dev/periph_common/init.o
 .debug_loc     0x0000000000002d65      0x504 /home/ch/RIOT/tests/driver_scd30/bin/lora-e5-dev/periph/gpio_all.o
 .debug_loc     0x0000000000003269      0xf06 /home/ch/RIOT/tests/driver_scd30/bin/lora-e5-dev/periph/i2c_1.o
 .debug_loc     0x000000000000416f      0x143 /home/ch/RIOT/tests/driver_scd30/bin/lora-e5-dev/periph/pm.o
 .debug_loc     0x00000000000042b2      0x432 /home/ch/RIOT/tests/driver_scd30/bin/lora-e5-dev/periph/timer.o
 .debug_loc     0x00000000000046e4      0x52e /home/ch/RIOT/tests/driver_scd30/bin/lora-e5-dev/periph/uart.o
 .debug_loc     0x0000000000004c12      0x26c /home/ch/RIOT/tests/driver_scd30/bin/lora-e5-dev/pm_layered/pm.o
 .debug_loc     0x0000000000004e7e      0x814 /home/ch/RIOT/tests/driver_scd30/bin/lora-e5-dev/scd30/scd30.o
 .debug_loc     0x0000000000005692       0xb0 /home/ch/RIOT/tests/driver_scd30/bin/lora-e5-dev/stdio_uart/stdio_uart.o
 .debug_loc     0x0000000000005742       0x2a /home/ch/RIOT/tests/driver_scd30/bin/lora-e5-dev/stm32_clk/stmclk_common.o
 .debug_loc     0x000000000000576c       0x93 /home/ch/RIOT/tests/driver_scd30/bin/lora-e5-dev/stm32_clk/stmclk_l4wx.o
 .debug_loc     0x00000000000057ff      0x713 /home/ch/RIOT/tests/driver_scd30/bin/lora-e5-dev/xtimer/xtimer_core.o
 .debug_loc     0x0000000000005f12      0xddc /home/ch/RIOT/tests/driver_scd30/bin/lora-e5-dev/xtimer/xtimer.o
 .debug_loc     0x0000000000006cee       0xba /usr/lib/gcc/arm-none-eabi/9.2.1/../../../arm-none-eabi/lib/thumb/v7e-m/nofp/libc_nano.a(lib_a-init.o)
 .debug_loc     0x0000000000006da8       0x64 /usr/lib/gcc/arm-none-eabi/9.2.1/../../../arm-none-eabi/lib/thumb/v7e-m/nofp/libc_nano.a(lib_a-malloc.o)
 .debug_loc     0x0000000000006e0c      0x231 /usr/lib/gcc/arm-none-eabi/9.2.1/../../../arm-none-eabi/lib/thumb/v7e-m/nofp/libc_nano.a(lib_a-memset.o)
 .debug_loc     0x000000000000703d      0x211 /usr/lib/gcc/arm-none-eabi/9.2.1/../../../arm-none-eabi/lib/thumb/v7e-m/nofp/libc_nano.a(lib_a-nano-freer.o)
 .debug_loc     0x000000000000724e      0x437 /usr/lib/gcc/arm-none-eabi/9.2.1/../../../arm-none-eabi/lib/thumb/v7e-m/nofp/libc_nano.a(lib_a-nano-mallocr.o)
 .debug_loc     0x0000000000007685      0x9f0 /usr/lib/gcc/arm-none-eabi/9.2.1/../../../arm-none-eabi/lib/thumb/v7e-m/nofp/libc_nano.a(lib_a-nano-vfprintf_float.o)
 .debug_loc     0x0000000000008075      0x7ab /usr/lib/gcc/arm-none-eabi/9.2.1/../../../arm-none-eabi/lib/thumb/v7e-m/nofp/libc_nano.a(lib_a-nano-vfprintf_i.o)
 .debug_loc     0x0000000000008820       0x98 /usr/lib/gcc/arm-none-eabi/9.2.1/../../../arm-none-eabi/lib/thumb/v7e-m/nofp/libc_nano.a(lib_a-printf.o)
 .debug_loc     0x00000000000088b8      0x32d /usr/lib/gcc/arm-none-eabi/9.2.1/../../../arm-none-eabi/lib/thumb/v7e-m/nofp/libc_nano.a(lib_a-puts.o)
 .debug_loc     0x0000000000008be5      0x193 /usr/lib/gcc/arm-none-eabi/9.2.1/../../../arm-none-eabi/lib/thumb/v7e-m/nofp/libc_nano.a(lib_a-wbuf.o)
 .debug_loc     0x0000000000008d78       0xb7 /usr/lib/gcc/arm-none-eabi/9.2.1/../../../arm-none-eabi/lib/thumb/v7e-m/nofp/libc_nano.a(lib_a-wsetup.o)
 .debug_loc     0x0000000000008e2f     0x32ee /usr/lib/gcc/arm-none-eabi/9.2.1/../../../arm-none-eabi/lib/thumb/v7e-m/nofp/libc_nano.a(lib_a-dtoa.o)
 .debug_loc     0x000000000000c11d      0x3f5 /usr/lib/gcc/arm-none-eabi/9.2.1/../../../arm-none-eabi/lib/thumb/v7e-m/nofp/libc_nano.a(lib_a-fflush.o)
 .debug_loc     0x000000000000c512      0x339 /usr/lib/gcc/arm-none-eabi/9.2.1/../../../arm-none-eabi/lib/thumb/v7e-m/nofp/libc_nano.a(lib_a-findfp.o)
 .debug_loc     0x000000000000c84b       0xa6 /usr/lib/gcc/arm-none-eabi/9.2.1/../../../arm-none-eabi/lib/thumb/v7e-m/nofp/libc_nano.a(lib_a-fprintf.o)
 .debug_loc     0x000000000000c8f1      0x24f /usr/lib/gcc/arm-none-eabi/9.2.1/../../../arm-none-eabi/lib/thumb/v7e-m/nofp/libc_nano.a(lib_a-fwalk.o)
 .debug_loc     0x000000000000cb40       0x6f /usr/lib/gcc/arm-none-eabi/9.2.1/../../../arm-none-eabi/lib/thumb/v7e-m/nofp/libc_nano.a(lib_a-localeconv.o)
 .debug_loc     0x000000000000cbaf      0x192 /usr/lib/gcc/arm-none-eabi/9.2.1/../../../arm-none-eabi/lib/thumb/v7e-m/nofp/libc_nano.a(lib_a-makebuf.o)
 .debug_loc     0x000000000000cd41     0x23cd /usr/lib/gcc/arm-none-eabi/9.2.1/../../../arm-none-eabi/lib/thumb/v7e-m/nofp/libc_nano.a(lib_a-mprec.o)
 .debug_loc     0x000000000000f10e       0x91 /usr/lib/gcc/arm-none-eabi/9.2.1/../../../arm-none-eabi/lib/thumb/v7e-m/nofp/libc_nano.a(lib_a-nano-callocr.o)
 .debug_loc     0x000000000000f19f      0x133 /usr/lib/gcc/arm-none-eabi/9.2.1/../../../arm-none-eabi/lib/thumb/v7e-m/nofp/libc_nano.a(lib_a-nano-reallocr.o)
 .debug_loc     0x000000000000f2d2      0x7a3 /usr/lib/gcc/arm-none-eabi/9.2.1/../../../arm-none-eabi/lib/thumb/v7e-m/nofp/libc_nano.a(lib_a-nano-vfprintf.o)
 .debug_loc     0x000000000000fa75      0x393 /usr/lib/gcc/arm-none-eabi/9.2.1/../../../arm-none-eabi/lib/thumb/v7e-m/nofp/libc_nano.a(lib_a-stdio.o)
 .debug_loc     0x000000000000fe08      0x15c /usr/lib/gcc/arm-none-eabi/9.2.1/../../../arm-none-eabi/lib/thumb/v7e-m/nofp/libc_nano.a(lib_a-assert.o)
 .debug_loc     0x000000000000ff64      0x669 /usr/lib/gcc/arm-none-eabi/9.2.1/../../../arm-none-eabi/lib/thumb/v7e-m/nofp/libc_nano.a(lib_a-fvwrite.o)
 .debug_loc     0x00000000000105cd      0x189 /usr/lib/gcc/arm-none-eabi/9.2.1/../../../arm-none-eabi/lib/thumb/v7e-m/nofp/libc_nano.a(lib_a-locale.o)
 .debug_loc     0x0000000000010756      0x21d /usr/lib/gcc/arm-none-eabi/9.2.1/../../../arm-none-eabi/lib/thumb/v7e-m/nofp/libc_nano.a(lib_a-mbtowc_r.o)
 .debug_loc     0x0000000000010973      0x2f1 /usr/lib/gcc/arm-none-eabi/9.2.1/../../../arm-none-eabi/lib/thumb/v7e-m/nofp/libc_nano.a(lib_a-memmove.o)
 .debug_loc     0x0000000000010c64       0x86 /usr/lib/gcc/arm-none-eabi/9.2.1/../../../arm-none-eabi/lib/thumb/v7e-m/nofp/libc_nano.a(lib_a-nano-msizer.o)
 .debug_loc     0x0000000000010cea      0x13a /usr/lib/gcc/arm-none-eabi/9.2.1/../../../arm-none-eabi/lib/thumb/v7e-m/nofp/libc_nano.a(lib_a-wctomb_r.o)
 .debug_loc     0x0000000000010e24      0x560 /usr/lib/gcc/arm-none-eabi/9.2.1/../../../arm-none-eabi/lib/thumb/v7e-m/nofp/libc_nano.a(lib_a-signal.o)

.debug_aranges  0x0000000000000000      0xec8
 .debug_aranges
                0x0000000000000000       0x28 /home/ch/RIOT/tests/driver_scd30/bin/lora-e5-dev/application_tests_driver_scd30/main.o
 .debug_aranges
                0x0000000000000028       0x20 /home/ch/RIOT/tests/driver_scd30/bin/lora-e5-dev/auto_init/auto_init.o
 .debug_aranges
                0x0000000000000048       0x28 /home/ch/RIOT/tests/driver_scd30/bin/lora-e5-dev/board/board.o
 .debug_aranges
                0x0000000000000070       0x20 /home/ch/RIOT/tests/driver_scd30/bin/lora-e5-dev/checksum/crc8.o
 .debug_aranges
                0x0000000000000090       0x30 /home/ch/RIOT/tests/driver_scd30/bin/lora-e5-dev/core/init.o
 .debug_aranges
                0x00000000000000c0       0x50 /home/ch/RIOT/tests/driver_scd30/bin/lora-e5-dev/core/mutex.o
 .debug_aranges
                0x0000000000000110       0x38 /home/ch/RIOT/tests/driver_scd30/bin/lora-e5-dev/core/panic.o
 .debug_aranges
                0x0000000000000148       0x48 /home/ch/RIOT/tests/driver_scd30/bin/lora-e5-dev/core/sched.o
 .debug_aranges
                0x0000000000000190       0x78 /home/ch/RIOT/tests/driver_scd30/bin/lora-e5-dev/core/thread.o
 .debug_aranges
                0x0000000000000208       0x30 /home/ch/RIOT/tests/driver_scd30/bin/lora-e5-dev/cortexm_common/cortexm_init.o
 .debug_aranges
                0x0000000000000238       0x28 /home/ch/RIOT/tests/driver_scd30/bin/lora-e5-dev/cortexm_common/panic.o
 .debug_aranges
                0x0000000000000260       0x68 /home/ch/RIOT/tests/driver_scd30/bin/lora-e5-dev/cortexm_common/thread_arch.o
 .debug_aranges
                0x00000000000002c8       0x70 /home/ch/RIOT/tests/driver_scd30/bin/lora-e5-dev/cortexm_common/vectors_cortexm.o
 .debug_aranges
                0x0000000000000338       0x40 /home/ch/RIOT/tests/driver_scd30/bin/lora-e5-dev/cpu/cpu_common.o
 .debug_aranges
                0x0000000000000378       0x40 /home/ch/RIOT/tests/driver_scd30/bin/lora-e5-dev/cpu/cpu_init.o
 .debug_aranges
                0x00000000000003b8       0x40 /home/ch/RIOT/tests/driver_scd30/bin/lora-e5-dev/malloc_thread_safe/malloc_wrappers.o
 .debug_aranges
                0x00000000000003f8       0xc8 /home/ch/RIOT/tests/driver_scd30/bin/lora-e5-dev/newlib_syscalls_default/syscalls.o
 .debug_aranges
                0x00000000000004c0       0x28 /home/ch/RIOT/tests/driver_scd30/bin/lora-e5-dev/periph_common/init.o
 .debug_aranges
                0x00000000000004e8       0x70 /home/ch/RIOT/tests/driver_scd30/bin/lora-e5-dev/periph/gpio_all.o
 .debug_aranges
                0x0000000000000558       0x80 /home/ch/RIOT/tests/driver_scd30/bin/lora-e5-dev/periph/i2c_1.o
 .debug_aranges
                0x00000000000005d8       0x38 /home/ch/RIOT/tests/driver_scd30/bin/lora-e5-dev/periph/pm.o
 .debug_aranges
                0x0000000000000610       0x58 /home/ch/RIOT/tests/driver_scd30/bin/lora-e5-dev/periph/timer.o
 .debug_aranges
                0x0000000000000668       0x68 /home/ch/RIOT/tests/driver_scd30/bin/lora-e5-dev/periph/uart.o
 .debug_aranges
                0x00000000000006d0       0x48 /home/ch/RIOT/tests/driver_scd30/bin/lora-e5-dev/pm_layered/pm.o
 .debug_aranges
                0x0000000000000718       0x78 /home/ch/RIOT/tests/driver_scd30/bin/lora-e5-dev/scd30/scd30.o
 .debug_aranges
                0x0000000000000790       0x38 /home/ch/RIOT/tests/driver_scd30/bin/lora-e5-dev/stdio_uart/stdio_uart.o
 .debug_aranges
                0x00000000000007c8       0x58 /home/ch/RIOT/tests/driver_scd30/bin/lora-e5-dev/stm32_clk/stmclk_common.o
 .debug_aranges
                0x0000000000000820       0x28 /home/ch/RIOT/tests/driver_scd30/bin/lora-e5-dev/stm32_clk/stmclk_l4wx.o
 .debug_aranges
                0x0000000000000848       0x20 /home/ch/RIOT/tests/driver_scd30/bin/lora-e5-dev/stm32_vectors/STM32WLE5xx.o
 .debug_aranges
                0x0000000000000868       0x68 /home/ch/RIOT/tests/driver_scd30/bin/lora-e5-dev/xtimer/xtimer_core.o
 .debug_aranges
                0x00000000000008d0       0xa8 /home/ch/RIOT/tests/driver_scd30/bin/lora-e5-dev/xtimer/xtimer.o
 .debug_aranges
                0x0000000000000978       0x20 /usr/lib/gcc/arm-none-eabi/9.2.1/thumb/v7e-m/nofp/libgcc.a(_arm_addsubdf3.o)
 .debug_aranges
                0x0000000000000998       0x18 /usr/lib/gcc/arm-none-eabi/9.2.1/../../../arm-none-eabi/lib/thumb/v7e-m/nofp/libc_nano.a(lib_a-impure.o)
 .debug_aranges
                0x00000000000009b0       0x20 /usr/lib/gcc/arm-none-eabi/9.2.1/../../../arm-none-eabi/lib/thumb/v7e-m/nofp/libc_nano.a(lib_a-init.o)
 .debug_aranges
                0x00000000000009d0       0x20 /usr/lib/gcc/arm-none-eabi/9.2.1/../../../arm-none-eabi/lib/thumb/v7e-m/nofp/libc_nano.a(lib_a-malloc.o)
 .debug_aranges
                0x00000000000009f0       0x20 /usr/lib/gcc/arm-none-eabi/9.2.1/../../../arm-none-eabi/lib/thumb/v7e-m/nofp/libc_nano.a(lib_a-memcpy.o)
 .debug_aranges
                0x0000000000000a10       0x20 /usr/lib/gcc/arm-none-eabi/9.2.1/../../../arm-none-eabi/lib/thumb/v7e-m/nofp/libc_nano.a(lib_a-memset.o)
 .debug_aranges
                0x0000000000000a30       0x20 /usr/lib/gcc/arm-none-eabi/9.2.1/../../../arm-none-eabi/lib/thumb/v7e-m/nofp/libc_nano.a(lib_a-nano-freer.o)
 .debug_aranges
                0x0000000000000a50       0x20 /usr/lib/gcc/arm-none-eabi/9.2.1/../../../arm-none-eabi/lib/thumb/v7e-m/nofp/libc_nano.a(lib_a-nano-mallocr.o)
 .debug_aranges
                0x0000000000000a70       0x20 /usr/lib/gcc/arm-none-eabi/9.2.1/../../../arm-none-eabi/lib/thumb/v7e-m/nofp/libc_nano.a(lib_a-nano-vfprintf_float.o)
 .debug_aranges
                0x0000000000000a90       0x20 /usr/lib/gcc/arm-none-eabi/9.2.1/../../../arm-none-eabi/lib/thumb/v7e-m/nofp/libc_nano.a(lib_a-nano-vfprintf_i.o)
 .debug_aranges
                0x0000000000000ab0       0x20 /usr/lib/gcc/arm-none-eabi/9.2.1/../../../arm-none-eabi/lib/thumb/v7e-m/nofp/libc_nano.a(lib_a-printf.o)
 .debug_aranges
                0x0000000000000ad0       0x20 /usr/lib/gcc/arm-none-eabi/9.2.1/../../../arm-none-eabi/lib/thumb/v7e-m/nofp/libc_nano.a(lib_a-puts.o)
 .debug_aranges
                0x0000000000000af0       0x20 /usr/lib/gcc/arm-none-eabi/9.2.1/../../../arm-none-eabi/lib/thumb/v7e-m/nofp/libc_nano.a(lib_a-strlen.o)
 .debug_aranges
                0x0000000000000b10       0x20 /usr/lib/gcc/arm-none-eabi/9.2.1/../../../arm-none-eabi/lib/thumb/v7e-m/nofp/libc_nano.a(lib_a-wbuf.o)
 .debug_aranges
                0x0000000000000b30       0x20 /usr/lib/gcc/arm-none-eabi/9.2.1/../../../arm-none-eabi/lib/thumb/v7e-m/nofp/libc_nano.a(lib_a-wsetup.o)
 .debug_aranges
                0x0000000000000b50       0x20 /usr/lib/gcc/arm-none-eabi/9.2.1/../../../arm-none-eabi/lib/thumb/v7e-m/nofp/libc_nano.a(lib_a-dtoa.o)
 .debug_aranges
                0x0000000000000b70       0x20 /usr/lib/gcc/arm-none-eabi/9.2.1/../../../arm-none-eabi/lib/thumb/v7e-m/nofp/libc_nano.a(lib_a-fflush.o)
 .debug_aranges
                0x0000000000000b90       0x20 /usr/lib/gcc/arm-none-eabi/9.2.1/../../../arm-none-eabi/lib/thumb/v7e-m/nofp/libc_nano.a(lib_a-findfp.o)
 .debug_aranges
                0x0000000000000bb0       0x20 /usr/lib/gcc/arm-none-eabi/9.2.1/../../../arm-none-eabi/lib/thumb/v7e-m/nofp/libc_nano.a(lib_a-fprintf.o)
 .debug_aranges
                0x0000000000000bd0       0x20 /usr/lib/gcc/arm-none-eabi/9.2.1/../../../arm-none-eabi/lib/thumb/v7e-m/nofp/libc_nano.a(lib_a-fwalk.o)
 .debug_aranges
                0x0000000000000bf0       0x20 /usr/lib/gcc/arm-none-eabi/9.2.1/../../../arm-none-eabi/lib/thumb/v7e-m/nofp/libc_nano.a(lib_a-localeconv.o)
 .debug_aranges
                0x0000000000000c10       0x20 /usr/lib/gcc/arm-none-eabi/9.2.1/../../../arm-none-eabi/lib/thumb/v7e-m/nofp/libc_nano.a(lib_a-makebuf.o)
 .debug_aranges
                0x0000000000000c30       0x20 /usr/lib/gcc/arm-none-eabi/9.2.1/../../../arm-none-eabi/lib/thumb/v7e-m/nofp/libc_nano.a(lib_a-memchr.o)
 .debug_aranges
                0x0000000000000c50       0x20 /usr/lib/gcc/arm-none-eabi/9.2.1/../../../arm-none-eabi/lib/thumb/v7e-m/nofp/libc_nano.a(lib_a-mlock.o)
 .debug_aranges
                0x0000000000000c70       0x20 /usr/lib/gcc/arm-none-eabi/9.2.1/../../../arm-none-eabi/lib/thumb/v7e-m/nofp/libc_nano.a(lib_a-mprec.o)
 .debug_aranges
                0x0000000000000c90       0x20 /usr/lib/gcc/arm-none-eabi/9.2.1/../../../arm-none-eabi/lib/thumb/v7e-m/nofp/libc_nano.a(lib_a-nano-callocr.o)
 .debug_aranges
                0x0000000000000cb0       0x20 /usr/lib/gcc/arm-none-eabi/9.2.1/../../../arm-none-eabi/lib/thumb/v7e-m/nofp/libc_nano.a(lib_a-nano-reallocr.o)
 .debug_aranges
                0x0000000000000cd0       0x20 /usr/lib/gcc/arm-none-eabi/9.2.1/../../../arm-none-eabi/lib/thumb/v7e-m/nofp/libc_nano.a(lib_a-nano-vfprintf.o)
 .debug_aranges
                0x0000000000000cf0       0x20 /usr/lib/gcc/arm-none-eabi/9.2.1/../../../arm-none-eabi/lib/thumb/v7e-m/nofp/libc_nano.a(lib_a-stdio.o)
 .debug_aranges
                0x0000000000000d10       0x20 /usr/lib/gcc/arm-none-eabi/9.2.1/../../../arm-none-eabi/lib/thumb/v7e-m/nofp/libc_nano.a(lib_a-assert.o)
 .debug_aranges
                0x0000000000000d30       0x20 /usr/lib/gcc/arm-none-eabi/9.2.1/../../../arm-none-eabi/lib/thumb/v7e-m/nofp/libc_nano.a(lib_a-fvwrite.o)
 .debug_aranges
                0x0000000000000d50       0x20 /usr/lib/gcc/arm-none-eabi/9.2.1/../../../arm-none-eabi/lib/thumb/v7e-m/nofp/libc_nano.a(lib_a-locale.o)
 .debug_aranges
                0x0000000000000d70       0x20 /usr/lib/gcc/arm-none-eabi/9.2.1/../../../arm-none-eabi/lib/thumb/v7e-m/nofp/libc_nano.a(lib_a-mbtowc_r.o)
 .debug_aranges
                0x0000000000000d90       0x20 /usr/lib/gcc/arm-none-eabi/9.2.1/../../../arm-none-eabi/lib/thumb/v7e-m/nofp/libc_nano.a(lib_a-memmove.o)
 .debug_aranges
                0x0000000000000db0       0x20 /usr/lib/gcc/arm-none-eabi/9.2.1/../../../arm-none-eabi/lib/thumb/v7e-m/nofp/libc_nano.a(lib_a-nano-msizer.o)
 .debug_aranges
                0x0000000000000dd0       0x20 /usr/lib/gcc/arm-none-eabi/9.2.1/../../../arm-none-eabi/lib/thumb/v7e-m/nofp/libc_nano.a(lib_a-wctomb_r.o)
 .debug_aranges
                0x0000000000000df0       0x20 /usr/lib/gcc/arm-none-eabi/9.2.1/../../../arm-none-eabi/lib/thumb/v7e-m/nofp/libc_nano.a(lib_a-abort.o)
 .debug_aranges
                0x0000000000000e10       0x18 /usr/lib/gcc/arm-none-eabi/9.2.1/../../../arm-none-eabi/lib/thumb/v7e-m/nofp/libc_nano.a(lib_a-ctype_.o)
 .debug_aranges
                0x0000000000000e28       0x20 /usr/lib/gcc/arm-none-eabi/9.2.1/../../../arm-none-eabi/lib/thumb/v7e-m/nofp/libc_nano.a(lib_a-signal.o)
 .debug_aranges
                0x0000000000000e48       0x20 /usr/lib/gcc/arm-none-eabi/9.2.1/thumb/v7e-m/nofp/libgcc.a(_arm_muldivdf3.o)
 .debug_aranges
                0x0000000000000e68       0x20 /usr/lib/gcc/arm-none-eabi/9.2.1/thumb/v7e-m/nofp/libgcc.a(_arm_cmpdf2.o)
 .debug_aranges
                0x0000000000000e88       0x20 /usr/lib/gcc/arm-none-eabi/9.2.1/thumb/v7e-m/nofp/libgcc.a(_arm_unorddf2.o)
 .debug_aranges
                0x0000000000000ea8       0x20 /usr/lib/gcc/arm-none-eabi/9.2.1/thumb/v7e-m/nofp/libgcc.a(_arm_fixdfsi.o)

.debug_ranges   0x0000000000000000     0x2108
 .debug_ranges  0x0000000000000000       0x88 /home/ch/RIOT/tests/driver_scd30/bin/lora-e5-dev/application_tests_driver_scd30/main.o
 .debug_ranges  0x0000000000000088       0x10 /home/ch/RIOT/tests/driver_scd30/bin/lora-e5-dev/auto_init/auto_init.o
 .debug_ranges  0x0000000000000098       0x18 /home/ch/RIOT/tests/driver_scd30/bin/lora-e5-dev/board/board.o
 .debug_ranges  0x00000000000000b0       0x30 /home/ch/RIOT/tests/driver_scd30/bin/lora-e5-dev/checksum/crc8.o
 .debug_ranges  0x00000000000000e0       0x50 /home/ch/RIOT/tests/driver_scd30/bin/lora-e5-dev/core/init.o
 .debug_ranges  0x0000000000000130      0x280 /home/ch/RIOT/tests/driver_scd30/bin/lora-e5-dev/core/mutex.o
 .debug_ranges  0x00000000000003b0       0x28 /home/ch/RIOT/tests/driver_scd30/bin/lora-e5-dev/core/panic.o
 .debug_ranges  0x00000000000003d8      0x118 /home/ch/RIOT/tests/driver_scd30/bin/lora-e5-dev/core/sched.o
 .debug_ranges  0x00000000000004f0      0x298 /home/ch/RIOT/tests/driver_scd30/bin/lora-e5-dev/core/thread.o
 .debug_ranges  0x0000000000000788       0xb8 /home/ch/RIOT/tests/driver_scd30/bin/lora-e5-dev/cortexm_common/cortexm_init.o
 .debug_ranges  0x0000000000000840       0x48 /home/ch/RIOT/tests/driver_scd30/bin/lora-e5-dev/cortexm_common/panic.o
 .debug_ranges  0x0000000000000888       0x88 /home/ch/RIOT/tests/driver_scd30/bin/lora-e5-dev/cortexm_common/thread_arch.o
 .debug_ranges  0x0000000000000910       0x78 /home/ch/RIOT/tests/driver_scd30/bin/lora-e5-dev/cortexm_common/vectors_cortexm.o
 .debug_ranges  0x0000000000000988       0x30 /home/ch/RIOT/tests/driver_scd30/bin/lora-e5-dev/cpu/cpu_common.o
 .debug_ranges  0x00000000000009b8       0x30 /home/ch/RIOT/tests/driver_scd30/bin/lora-e5-dev/cpu/cpu_init.o
 .debug_ranges  0x00000000000009e8      0x108 /home/ch/RIOT/tests/driver_scd30/bin/lora-e5-dev/malloc_thread_safe/malloc_wrappers.o
 .debug_ranges  0x0000000000000af0      0x1d8 /home/ch/RIOT/tests/driver_scd30/bin/lora-e5-dev/newlib_syscalls_default/syscalls.o
 .debug_ranges  0x0000000000000cc8       0x18 /home/ch/RIOT/tests/driver_scd30/bin/lora-e5-dev/periph_common/init.o
 .debug_ranges  0x0000000000000ce0      0x190 /home/ch/RIOT/tests/driver_scd30/bin/lora-e5-dev/periph/gpio_all.o
 .debug_ranges  0x0000000000000e70      0x140 /home/ch/RIOT/tests/driver_scd30/bin/lora-e5-dev/periph/i2c_1.o
 .debug_ranges  0x0000000000000fb0       0x70 /home/ch/RIOT/tests/driver_scd30/bin/lora-e5-dev/periph/pm.o
 .debug_ranges  0x0000000000001020      0x138 /home/ch/RIOT/tests/driver_scd30/bin/lora-e5-dev/periph/timer.o
 .debug_ranges  0x0000000000001158      0x120 /home/ch/RIOT/tests/driver_scd30/bin/lora-e5-dev/periph/uart.o
 .debug_ranges  0x0000000000001278       0xc8 /home/ch/RIOT/tests/driver_scd30/bin/lora-e5-dev/pm_layered/pm.o
 .debug_ranges  0x0000000000001340      0x1a8 /home/ch/RIOT/tests/driver_scd30/bin/lora-e5-dev/scd30/scd30.o
 .debug_ranges  0x00000000000014e8       0x28 /home/ch/RIOT/tests/driver_scd30/bin/lora-e5-dev/stdio_uart/stdio_uart.o
 .debug_ranges  0x0000000000001510       0x48 /home/ch/RIOT/tests/driver_scd30/bin/lora-e5-dev/stm32_clk/stmclk_common.o
 .debug_ranges  0x0000000000001558       0x60 /home/ch/RIOT/tests/driver_scd30/bin/lora-e5-dev/stm32_clk/stmclk_l4wx.o
 .debug_ranges  0x00000000000015b8       0x10 /home/ch/RIOT/tests/driver_scd30/bin/lora-e5-dev/stm32_vectors/STM32WLE5xx.o
 .debug_ranges  0x00000000000015c8      0x1d8 /home/ch/RIOT/tests/driver_scd30/bin/lora-e5-dev/xtimer/xtimer_core.o
 .debug_ranges  0x00000000000017a0      0x3f0 /home/ch/RIOT/tests/driver_scd30/bin/lora-e5-dev/xtimer/xtimer.o
 .debug_ranges  0x0000000000001b90       0x18 /usr/lib/gcc/arm-none-eabi/9.2.1/../../../arm-none-eabi/lib/thumb/v7e-m/nofp/libc_nano.a(lib_a-nano-freer.o)
 .debug_ranges  0x0000000000001ba8       0x38 /usr/lib/gcc/arm-none-eabi/9.2.1/../../../arm-none-eabi/lib/thumb/v7e-m/nofp/libc_nano.a(lib_a-nano-mallocr.o)
 .debug_ranges  0x0000000000001be0       0x30 /usr/lib/gcc/arm-none-eabi/9.2.1/../../../arm-none-eabi/lib/thumb/v7e-m/nofp/libc_nano.a(lib_a-nano-vfprintf_float.o)
 .debug_ranges  0x0000000000001c10       0x98 /usr/lib/gcc/arm-none-eabi/9.2.1/../../../arm-none-eabi/lib/thumb/v7e-m/nofp/libc_nano.a(lib_a-nano-vfprintf_i.o)
 .debug_ranges  0x0000000000001ca8       0x68 /usr/lib/gcc/arm-none-eabi/9.2.1/../../../arm-none-eabi/lib/thumb/v7e-m/nofp/libc_nano.a(lib_a-puts.o)
 .debug_ranges  0x0000000000001d10       0x20 /usr/lib/gcc/arm-none-eabi/9.2.1/../../../arm-none-eabi/lib/thumb/v7e-m/nofp/libc_nano.a(lib_a-wbuf.o)
 .debug_ranges  0x0000000000001d30       0x30 /usr/lib/gcc/arm-none-eabi/9.2.1/../../../arm-none-eabi/lib/thumb/v7e-m/nofp/libc_nano.a(lib_a-wsetup.o)
 .debug_ranges  0x0000000000001d60       0x60 /usr/lib/gcc/arm-none-eabi/9.2.1/../../../arm-none-eabi/lib/thumb/v7e-m/nofp/libc_nano.a(lib_a-dtoa.o)
 .debug_ranges  0x0000000000001dc0       0x68 /usr/lib/gcc/arm-none-eabi/9.2.1/../../../arm-none-eabi/lib/thumb/v7e-m/nofp/libc_nano.a(lib_a-fflush.o)
 .debug_ranges  0x0000000000001e28       0xe8 /usr/lib/gcc/arm-none-eabi/9.2.1/../../../arm-none-eabi/lib/thumb/v7e-m/nofp/libc_nano.a(lib_a-findfp.o)
 .debug_ranges  0x0000000000001f10       0x28 /usr/lib/gcc/arm-none-eabi/9.2.1/../../../arm-none-eabi/lib/thumb/v7e-m/nofp/libc_nano.a(lib_a-makebuf.o)
 .debug_ranges  0x0000000000001f38      0x160 /usr/lib/gcc/arm-none-eabi/9.2.1/../../../arm-none-eabi/lib/thumb/v7e-m/nofp/libc_nano.a(lib_a-mprec.o)
 .debug_ranges  0x0000000000002098       0x28 /usr/lib/gcc/arm-none-eabi/9.2.1/../../../arm-none-eabi/lib/thumb/v7e-m/nofp/libc_nano.a(lib_a-nano-vfprintf.o)
 .debug_ranges  0x00000000000020c0       0x18 /usr/lib/gcc/arm-none-eabi/9.2.1/../../../arm-none-eabi/lib/thumb/v7e-m/nofp/libc_nano.a(lib_a-fvwrite.o)
 .debug_ranges  0x00000000000020d8       0x30 /usr/lib/gcc/arm-none-eabi/9.2.1/../../../arm-none-eabi/lib/thumb/v7e-m/nofp/libc_nano.a(lib_a-signal.o)

.debug_macro    0x0000000000000000    0x2dfd6
 .debug_macro   0x0000000000000000      0x50f /home/ch/RIOT/tests/driver_scd30/bin/lora-e5-dev/application_tests_driver_scd30/main.o
 .debug_macro   0x000000000000050f      0xafc /home/ch/RIOT/tests/driver_scd30/bin/lora-e5-dev/application_tests_driver_scd30/main.o
 .debug_macro   0x000000000000100b      0x14e /home/ch/RIOT/tests/driver_scd30/bin/lora-e5-dev/application_tests_driver_scd30/main.o
 .debug_macro   0x0000000000001159       0x22 /home/ch/RIOT/tests/driver_scd30/bin/lora-e5-dev/application_tests_driver_scd30/main.o
 .debug_macro   0x000000000000117b       0x46 /home/ch/RIOT/tests/driver_scd30/bin/lora-e5-dev/application_tests_driver_scd30/main.o
 .debug_macro   0x00000000000011c1       0x18 /home/ch/RIOT/tests/driver_scd30/bin/lora-e5-dev/application_tests_driver_scd30/main.o
 .debug_macro   0x00000000000011d9       0x5c /home/ch/RIOT/tests/driver_scd30/bin/lora-e5-dev/application_tests_driver_scd30/main.o
 .debug_macro   0x0000000000001235       0x3c /home/ch/RIOT/tests/driver_scd30/bin/lora-e5-dev/application_tests_driver_scd30/main.o
 .debug_macro   0x0000000000001271       0x34 /home/ch/RIOT/tests/driver_scd30/bin/lora-e5-dev/application_tests_driver_scd30/main.o
 .debug_macro   0x00000000000012a5       0x16 /home/ch/RIOT/tests/driver_scd30/bin/lora-e5-dev/application_tests_driver_scd30/main.o
 .debug_macro   0x00000000000012bb       0x57 /home/ch/RIOT/tests/driver_scd30/bin/lora-e5-dev/application_tests_driver_scd30/main.o
 .debug_macro   0x0000000000001312       0x97 /home/ch/RIOT/tests/driver_scd30/bin/lora-e5-dev/application_tests_driver_scd30/main.o
 .debug_macro   0x00000000000013a9      0x339 /home/ch/RIOT/tests/driver_scd30/bin/lora-e5-dev/application_tests_driver_scd30/main.o
 .debug_macro   0x00000000000016e2       0xfd /home/ch/RIOT/tests/driver_scd30/bin/lora-e5-dev/application_tests_driver_scd30/main.o
 .debug_macro   0x00000000000017df       0x10 /home/ch/RIOT/tests/driver_scd30/bin/lora-e5-dev/application_tests_driver_scd30/main.o
 .debug_macro   0x00000000000017ef       0x16 /home/ch/RIOT/tests/driver_scd30/bin/lora-e5-dev/application_tests_driver_scd30/main.o
 .debug_macro   0x0000000000001805       0x43 /home/ch/RIOT/tests/driver_scd30/bin/lora-e5-dev/application_tests_driver_scd30/main.o
 .debug_macro   0x0000000000001848       0x34 /home/ch/RIOT/tests/driver_scd30/bin/lora-e5-dev/application_tests_driver_scd30/main.o
 .debug_macro   0x000000000000187c       0x10 /home/ch/RIOT/tests/driver_scd30/bin/lora-e5-dev/application_tests_driver_scd30/main.o
 .debug_macro   0x000000000000188c       0x52 /home/ch/RIOT/tests/driver_scd30/bin/lora-e5-dev/application_tests_driver_scd30/main.o
 .debug_macro   0x00000000000018de       0x71 /home/ch/RIOT/tests/driver_scd30/bin/lora-e5-dev/application_tests_driver_scd30/main.o
 .debug_macro   0x000000000000194f      0x34e /home/ch/RIOT/tests/driver_scd30/bin/lora-e5-dev/application_tests_driver_scd30/main.o
 .debug_macro   0x0000000000001c9d       0x75 /home/ch/RIOT/tests/driver_scd30/bin/lora-e5-dev/application_tests_driver_scd30/main.o
 .debug_macro   0x0000000000001d12       0x10 /home/ch/RIOT/tests/driver_scd30/bin/lora-e5-dev/application_tests_driver_scd30/main.o
 .debug_macro   0x0000000000001d22      0x12a /home/ch/RIOT/tests/driver_scd30/bin/lora-e5-dev/application_tests_driver_scd30/main.o
 .debug_macro   0x0000000000001e4c       0x10 /home/ch/RIOT/tests/driver_scd30/bin/lora-e5-dev/application_tests_driver_scd30/main.o
 .debug_macro   0x0000000000001e5c       0x6a /home/ch/RIOT/tests/driver_scd30/bin/lora-e5-dev/application_tests_driver_scd30/main.o
 .debug_macro   0x0000000000001ec6       0xb2 /home/ch/RIOT/tests/driver_scd30/bin/lora-e5-dev/application_tests_driver_scd30/main.o
 .debug_macro   0x0000000000001f78       0x16 /home/ch/RIOT/tests/driver_scd30/bin/lora-e5-dev/application_tests_driver_scd30/main.o
 .debug_macro   0x0000000000001f8e      0x114 /home/ch/RIOT/tests/driver_scd30/bin/lora-e5-dev/application_tests_driver_scd30/main.o
 .debug_macro   0x00000000000020a2       0xe8 /home/ch/RIOT/tests/driver_scd30/bin/lora-e5-dev/application_tests_driver_scd30/main.o
 .debug_macro   0x000000000000218a       0x22 /home/ch/RIOT/tests/driver_scd30/bin/lora-e5-dev/application_tests_driver_scd30/main.o
 .debug_macro   0x00000000000021ac       0x49 /home/ch/RIOT/tests/driver_scd30/bin/lora-e5-dev/application_tests_driver_scd30/main.o
 .debug_macro   0x00000000000021f5       0x2e /home/ch/RIOT/tests/driver_scd30/bin/lora-e5-dev/application_tests_driver_scd30/main.o
 .debug_macro   0x0000000000002223       0x34 /home/ch/RIOT/tests/driver_scd30/bin/lora-e5-dev/application_tests_driver_scd30/main.o
 .debug_macro   0x0000000000002257       0x1c /home/ch/RIOT/tests/driver_scd30/bin/lora-e5-dev/application_tests_driver_scd30/main.o
 .debug_macro   0x0000000000002273       0x22 /home/ch/RIOT/tests/driver_scd30/bin/lora-e5-dev/application_tests_driver_scd30/main.o
 .debug_macro   0x0000000000002295       0xd9 /home/ch/RIOT/tests/driver_scd30/bin/lora-e5-dev/application_tests_driver_scd30/main.o
 .debug_macro   0x000000000000236e     0x102d /home/ch/RIOT/tests/driver_scd30/bin/lora-e5-dev/application_tests_driver_scd30/main.o
 .debug_macro   0x000000000000339b      0x11f /home/ch/RIOT/tests/driver_scd30/bin/lora-e5-dev/application_tests_driver_scd30/main.o
 .debug_macro   0x00000000000034ba     0xcc1c /home/ch/RIOT/tests/driver_scd30/bin/lora-e5-dev/application_tests_driver_scd30/main.o
 .debug_macro   0x00000000000100d6       0x6d /home/ch/RIOT/tests/driver_scd30/bin/lora-e5-dev/application_tests_driver_scd30/main.o
 .debug_macro   0x0000000000010143       0x10 /home/ch/RIOT/tests/driver_scd30/bin/lora-e5-dev/application_tests_driver_scd30/main.o
 .debug_macro   0x0000000000010153       0x2b /home/ch/RIOT/tests/driver_scd30/bin/lora-e5-dev/application_tests_driver_scd30/main.o
 .debug_macro   0x000000000001017e      0x103 /home/ch/RIOT/tests/driver_scd30/bin/lora-e5-dev/application_tests_driver_scd30/main.o
 .debug_macro   0x0000000000010281       0x35 /home/ch/RIOT/tests/driver_scd30/bin/lora-e5-dev/application_tests_driver_scd30/main.o
 .debug_macro   0x00000000000102b6      0x3c6 /home/ch/RIOT/tests/driver_scd30/bin/lora-e5-dev/application_tests_driver_scd30/main.o
 .debug_macro   0x000000000001067c       0x3d /home/ch/RIOT/tests/driver_scd30/bin/lora-e5-dev/application_tests_driver_scd30/main.o
 .debug_macro   0x00000000000106b9       0x42 /home/ch/RIOT/tests/driver_scd30/bin/lora-e5-dev/application_tests_driver_scd30/main.o
 .debug_macro   0x00000000000106fb       0x10 /home/ch/RIOT/tests/driver_scd30/bin/lora-e5-dev/application_tests_driver_scd30/main.o
 .debug_macro   0x000000000001070b       0x2e /home/ch/RIOT/tests/driver_scd30/bin/lora-e5-dev/application_tests_driver_scd30/main.o
 .debug_macro   0x0000000000010739       0x16 /home/ch/RIOT/tests/driver_scd30/bin/lora-e5-dev/application_tests_driver_scd30/main.o
 .debug_macro   0x000000000001074f       0x2e /home/ch/RIOT/tests/driver_scd30/bin/lora-e5-dev/application_tests_driver_scd30/main.o
 .debug_macro   0x000000000001077d       0x90 /home/ch/RIOT/tests/driver_scd30/bin/lora-e5-dev/application_tests_driver_scd30/main.o
 .debug_macro   0x000000000001080d       0x10 /home/ch/RIOT/tests/driver_scd30/bin/lora-e5-dev/application_tests_driver_scd30/main.o
 .debug_macro   0x000000000001081d       0x1c /home/ch/RIOT/tests/driver_scd30/bin/lora-e5-dev/application_tests_driver_scd30/main.o
 .debug_macro   0x0000000000010839       0x40 /home/ch/RIOT/tests/driver_scd30/bin/lora-e5-dev/application_tests_driver_scd30/main.o
 .debug_macro   0x0000000000010879       0x31 /home/ch/RIOT/tests/driver_scd30/bin/lora-e5-dev/application_tests_driver_scd30/main.o
 .debug_macro   0x00000000000108aa       0x84 /home/ch/RIOT/tests/driver_scd30/bin/lora-e5-dev/application_tests_driver_scd30/main.o
 .debug_macro   0x000000000001092e       0x22 /home/ch/RIOT/tests/driver_scd30/bin/lora-e5-dev/application_tests_driver_scd30/main.o
 .debug_macro   0x0000000000010950       0x22 /home/ch/RIOT/tests/driver_scd30/bin/lora-e5-dev/application_tests_driver_scd30/main.o
 .debug_macro   0x0000000000010972       0x16 /home/ch/RIOT/tests/driver_scd30/bin/lora-e5-dev/application_tests_driver_scd30/main.o
 .debug_macro   0x0000000000010988       0x10 /home/ch/RIOT/tests/driver_scd30/bin/lora-e5-dev/application_tests_driver_scd30/main.o
 .debug_macro   0x0000000000010998       0x34 /home/ch/RIOT/tests/driver_scd30/bin/lora-e5-dev/application_tests_driver_scd30/main.o
 .debug_macro   0x00000000000109cc       0x28 /home/ch/RIOT/tests/driver_scd30/bin/lora-e5-dev/application_tests_driver_scd30/main.o
 .debug_macro   0x00000000000109f4       0x16 /home/ch/RIOT/tests/driver_scd30/bin/lora-e5-dev/application_tests_driver_scd30/main.o
 .debug_macro   0x0000000000010a0a       0x40 /home/ch/RIOT/tests/driver_scd30/bin/lora-e5-dev/application_tests_driver_scd30/main.o
 .debug_macro   0x0000000000010a4a       0x1c /home/ch/RIOT/tests/driver_scd30/bin/lora-e5-dev/application_tests_driver_scd30/main.o
 .debug_macro   0x0000000000010a66       0x16 /home/ch/RIOT/tests/driver_scd30/bin/lora-e5-dev/application_tests_driver_scd30/main.o
 .debug_macro   0x0000000000010a7c       0x1c /home/ch/RIOT/tests/driver_scd30/bin/lora-e5-dev/application_tests_driver_scd30/main.o
 .debug_macro   0x0000000000010a98       0x1c /home/ch/RIOT/tests/driver_scd30/bin/lora-e5-dev/application_tests_driver_scd30/main.o
 .debug_macro   0x0000000000010ab4       0x6b /home/ch/RIOT/tests/driver_scd30/bin/lora-e5-dev/application_tests_driver_scd30/main.o
 .debug_macro   0x0000000000010b1f       0x28 /home/ch/RIOT/tests/driver_scd30/bin/lora-e5-dev/application_tests_driver_scd30/main.o
 .debug_macro   0x0000000000010b47       0x16 /home/ch/RIOT/tests/driver_scd30/bin/lora-e5-dev/application_tests_driver_scd30/main.o
 .debug_macro   0x0000000000010b5d       0x38 /home/ch/RIOT/tests/driver_scd30/bin/lora-e5-dev/application_tests_driver_scd30/main.o
 .debug_macro   0x0000000000010b95       0x19 /home/ch/RIOT/tests/driver_scd30/bin/lora-e5-dev/application_tests_driver_scd30/main.o
 .debug_macro   0x0000000000010bae      0x118 /home/ch/RIOT/tests/driver_scd30/bin/lora-e5-dev/application_tests_driver_scd30/main.o
 .debug_macro   0x0000000000010cc6       0x7c /home/ch/RIOT/tests/driver_scd30/bin/lora-e5-dev/application_tests_driver_scd30/main.o
 .debug_macro   0x0000000000010d42       0x43 /home/ch/RIOT/tests/driver_scd30/bin/lora-e5-dev/application_tests_driver_scd30/main.o
 .debug_macro   0x0000000000010d85       0x1c /home/ch/RIOT/tests/driver_scd30/bin/lora-e5-dev/application_tests_driver_scd30/main.o
 .debug_macro   0x0000000000010da1       0x22 /home/ch/RIOT/tests/driver_scd30/bin/lora-e5-dev/application_tests_driver_scd30/main.o
 .debug_macro   0x0000000000010dc3       0x10 /home/ch/RIOT/tests/driver_scd30/bin/lora-e5-dev/application_tests_driver_scd30/main.o
 .debug_macro   0x0000000000010dd3       0x20 /home/ch/RIOT/tests/driver_scd30/bin/lora-e5-dev/application_tests_driver_scd30/main.o
 .debug_macro   0x0000000000010df3       0x10 /home/ch/RIOT/tests/driver_scd30/bin/lora-e5-dev/application_tests_driver_scd30/main.o
 .debug_macro   0x0000000000010e03      0x241 /home/ch/RIOT/tests/driver_scd30/bin/lora-e5-dev/application_tests_driver_scd30/main.o
 .debug_macro   0x0000000000011044       0x1e /home/ch/RIOT/tests/driver_scd30/bin/lora-e5-dev/application_tests_driver_scd30/main.o
 .debug_macro   0x0000000000011062       0x46 /home/ch/RIOT/tests/driver_scd30/bin/lora-e5-dev/application_tests_driver_scd30/main.o
 .debug_macro   0x00000000000110a8       0x28 /home/ch/RIOT/tests/driver_scd30/bin/lora-e5-dev/application_tests_driver_scd30/main.o
 .debug_macro   0x00000000000110d0       0x46 /home/ch/RIOT/tests/driver_scd30/bin/lora-e5-dev/application_tests_driver_scd30/main.o
 .debug_macro   0x0000000000011116      0x1e9 /home/ch/RIOT/tests/driver_scd30/bin/lora-e5-dev/auto_init/auto_init.o
 .debug_macro   0x00000000000112ff      0xafc /home/ch/RIOT/tests/driver_scd30/bin/lora-e5-dev/auto_init/auto_init.o
 .debug_macro   0x0000000000011dfb       0x34 /home/ch/RIOT/tests/driver_scd30/bin/lora-e5-dev/auto_init/auto_init.o
 .debug_macro   0x0000000000011e2f      0x408 /home/ch/RIOT/tests/driver_scd30/bin/lora-e5-dev/board/board.o
 .debug_macro   0x0000000000012237      0xafc /home/ch/RIOT/tests/driver_scd30/bin/lora-e5-dev/board/board.o
 .debug_macro   0x0000000000012d33      0x174 /home/ch/RIOT/tests/driver_scd30/bin/lora-e5-dev/board/board.o
 .debug_macro   0x0000000000012ea7      0x197 /home/ch/RIOT/tests/driver_scd30/bin/lora-e5-dev/board/board.o
 .debug_macro   0x000000000001303e       0x3f /home/ch/RIOT/tests/driver_scd30/bin/lora-e5-dev/checksum/crc8.o
 .debug_macro   0x000000000001307d      0xafc /home/ch/RIOT/tests/driver_scd30/bin/lora-e5-dev/checksum/crc8.o
 .debug_macro   0x0000000000013b79      0x428 /home/ch/RIOT/tests/driver_scd30/bin/lora-e5-dev/core/init.o
 .debug_macro   0x0000000000013fa1      0xafc /home/ch/RIOT/tests/driver_scd30/bin/lora-e5-dev/core/init.o
 .debug_macro   0x0000000000014a9d      0x23b /home/ch/RIOT/tests/driver_scd30/bin/lora-e5-dev/core/init.o
 .debug_macro   0x0000000000014cd8       0x2e /home/ch/RIOT/tests/driver_scd30/bin/lora-e5-dev/core/init.o
 .debug_macro   0x0000000000014d06       0x10 /home/ch/RIOT/tests/driver_scd30/bin/lora-e5-dev/core/init.o
 .debug_macro   0x0000000000014d16      0x2f7 /home/ch/RIOT/tests/driver_scd30/bin/lora-e5-dev/core/mutex.o
 .debug_macro   0x000000000001500d      0xafc /home/ch/RIOT/tests/driver_scd30/bin/lora-e5-dev/core/mutex.o
 .debug_macro   0x0000000000015b09      0x379 /home/ch/RIOT/tests/driver_scd30/bin/lora-e5-dev/core/mutex.o
 .debug_macro   0x0000000000015e82       0x28 /home/ch/RIOT/tests/driver_scd30/bin/lora-e5-dev/core/mutex.o
 .debug_macro   0x0000000000015eaa      0x3f6 /home/ch/RIOT/tests/driver_scd30/bin/lora-e5-dev/core/panic.o
 .debug_macro   0x00000000000162a0      0xafc /home/ch/RIOT/tests/driver_scd30/bin/lora-e5-dev/core/panic.o
 .debug_macro   0x0000000000016d9c       0x10 /home/ch/RIOT/tests/driver_scd30/bin/lora-e5-dev/core/panic.o
 .debug_macro   0x0000000000016dac      0x2ec /home/ch/RIOT/tests/driver_scd30/bin/lora-e5-dev/core/sched.o
 .debug_macro   0x0000000000017098      0xafc /home/ch/RIOT/tests/driver_scd30/bin/lora-e5-dev/core/sched.o
 .debug_macro   0x0000000000017b94      0x301 /home/ch/RIOT/tests/driver_scd30/bin/lora-e5-dev/core/thread.o
 .debug_macro   0x0000000000017e95      0xafc /home/ch/RIOT/tests/driver_scd30/bin/lora-e5-dev/core/thread.o
 .debug_macro   0x0000000000018991       0x22 /home/ch/RIOT/tests/driver_scd30/bin/lora-e5-dev/core/thread.o
 .debug_macro   0x00000000000189b3       0xdc /home/ch/RIOT/tests/driver_scd30/bin/lora-e5-dev/core/thread.o
 .debug_macro   0x0000000000018a8f      0x2d3 /home/ch/RIOT/tests/driver_scd30/bin/lora-e5-dev/cortexm_common/cortexm_init.o
 .debug_macro   0x0000000000018d62      0xafc /home/ch/RIOT/tests/driver_scd30/bin/lora-e5-dev/cortexm_common/cortexm_init.o
 .debug_macro   0x000000000001985e      0x2d6 /home/ch/RIOT/tests/driver_scd30/bin/lora-e5-dev/cortexm_common/panic.o
 .debug_macro   0x0000000000019b34      0xafc /home/ch/RIOT/tests/driver_scd30/bin/lora-e5-dev/cortexm_common/panic.o
 .debug_macro   0x000000000001a630      0x2f3 /home/ch/RIOT/tests/driver_scd30/bin/lora-e5-dev/cortexm_common/thread_arch.o
 .debug_macro   0x000000000001a923      0xafc /home/ch/RIOT/tests/driver_scd30/bin/lora-e5-dev/cortexm_common/thread_arch.o
 .debug_macro   0x000000000001b41f       0x1c /home/ch/RIOT/tests/driver_scd30/bin/lora-e5-dev/cortexm_common/thread_arch.o
 .debug_macro   0x000000000001b43b      0x408 /home/ch/RIOT/tests/driver_scd30/bin/lora-e5-dev/cortexm_common/vectors_cortexm.o
 .debug_macro   0x000000000001b843      0xafc /home/ch/RIOT/tests/driver_scd30/bin/lora-e5-dev/cortexm_common/vectors_cortexm.o
 .debug_macro   0x000000000001c33f       0x76 /home/ch/RIOT/tests/driver_scd30/bin/lora-e5-dev/cortexm_common/vectors_cortexm.o
 .debug_macro   0x000000000001c3b5       0x1c /home/ch/RIOT/tests/driver_scd30/bin/lora-e5-dev/cortexm_common/vectors_cortexm.o
 .debug_macro   0x000000000001c3d1      0x414 /home/ch/RIOT/tests/driver_scd30/bin/lora-e5-dev/cpu/cpu_common.o
 .debug_macro   0x000000000001c7e5      0xafc /home/ch/RIOT/tests/driver_scd30/bin/lora-e5-dev/cpu/cpu_common.o
 .debug_macro   0x000000000001d2e1      0x463 /home/ch/RIOT/tests/driver_scd30/bin/lora-e5-dev/cpu/cpu_init.o
 .debug_macro   0x000000000001d744      0xafc /home/ch/RIOT/tests/driver_scd30/bin/lora-e5-dev/cpu/cpu_init.o
 .debug_macro   0x000000000001e240       0x16 /home/ch/RIOT/tests/driver_scd30/bin/lora-e5-dev/cpu/cpu_init.o
 .debug_macro   0x000000000001e256      0x4fe /home/ch/RIOT/tests/driver_scd30/bin/lora-e5-dev/cpu/cpu_init.o
 .debug_macro   0x000000000001e754      0x285 /home/ch/RIOT/tests/driver_scd30/bin/lora-e5-dev/malloc_thread_safe/malloc_wrappers.o
 .debug_macro   0x000000000001e9d9      0xafc /home/ch/RIOT/tests/driver_scd30/bin/lora-e5-dev/malloc_thread_safe/malloc_wrappers.o
 .debug_macro   0x000000000001f4d5      0x5db /home/ch/RIOT/tests/driver_scd30/bin/lora-e5-dev/newlib_syscalls_default/syscalls.o
 .debug_macro   0x000000000001fab0      0xafc /home/ch/RIOT/tests/driver_scd30/bin/lora-e5-dev/newlib_syscalls_default/syscalls.o
 .debug_macro   0x00000000000205ac       0x10 /home/ch/RIOT/tests/driver_scd30/bin/lora-e5-dev/newlib_syscalls_default/syscalls.o
 .debug_macro   0x00000000000205bc       0xcf /home/ch/RIOT/tests/driver_scd30/bin/lora-e5-dev/newlib_syscalls_default/syscalls.o
 .debug_macro   0x000000000002068b       0x20 /home/ch/RIOT/tests/driver_scd30/bin/lora-e5-dev/newlib_syscalls_default/syscalls.o
 .debug_macro   0x00000000000206ab       0xbe /home/ch/RIOT/tests/driver_scd30/bin/lora-e5-dev/newlib_syscalls_default/syscalls.o
 .debug_macro   0x0000000000020769       0x10 /home/ch/RIOT/tests/driver_scd30/bin/lora-e5-dev/newlib_syscalls_default/syscalls.o
 .debug_macro   0x0000000000020779       0x10 /home/ch/RIOT/tests/driver_scd30/bin/lora-e5-dev/newlib_syscalls_default/syscalls.o
 .debug_macro   0x0000000000020789       0x3c /home/ch/RIOT/tests/driver_scd30/bin/lora-e5-dev/newlib_syscalls_default/syscalls.o
 .debug_macro   0x00000000000207c5       0xff /home/ch/RIOT/tests/driver_scd30/bin/lora-e5-dev/newlib_syscalls_default/syscalls.o
 .debug_macro   0x00000000000208c4       0x16 /home/ch/RIOT/tests/driver_scd30/bin/lora-e5-dev/newlib_syscalls_default/syscalls.o
 .debug_macro   0x00000000000208da       0x10 /home/ch/RIOT/tests/driver_scd30/bin/lora-e5-dev/newlib_syscalls_default/syscalls.o
 .debug_macro   0x00000000000208ea       0x10 /home/ch/RIOT/tests/driver_scd30/bin/lora-e5-dev/newlib_syscalls_default/syscalls.o
 .debug_macro   0x00000000000208fa       0x2e /home/ch/RIOT/tests/driver_scd30/bin/lora-e5-dev/newlib_syscalls_default/syscalls.o
 .debug_macro   0x0000000000020928      0x102 /home/ch/RIOT/tests/driver_scd30/bin/lora-e5-dev/newlib_syscalls_default/syscalls.o
 .debug_macro   0x0000000000020a2a       0x10 /home/ch/RIOT/tests/driver_scd30/bin/lora-e5-dev/newlib_syscalls_default/syscalls.o
 .debug_macro   0x0000000000020a3a       0x43 /home/ch/RIOT/tests/driver_scd30/bin/lora-e5-dev/newlib_syscalls_default/syscalls.o
 .debug_macro   0x0000000000020a7d      0x414 /home/ch/RIOT/tests/driver_scd30/bin/lora-e5-dev/periph_common/init.o
 .debug_macro   0x0000000000020e91      0xafc /home/ch/RIOT/tests/driver_scd30/bin/lora-e5-dev/periph_common/init.o
 .debug_macro   0x000000000002198d      0x426 /home/ch/RIOT/tests/driver_scd30/bin/lora-e5-dev/periph/gpio_all.o
 .debug_macro   0x0000000000021db3      0xafc /home/ch/RIOT/tests/driver_scd30/bin/lora-e5-dev/periph/gpio_all.o
 .debug_macro   0x00000000000228af      0x4b6 /home/ch/RIOT/tests/driver_scd30/bin/lora-e5-dev/periph/i2c_1.o
 .debug_macro   0x0000000000022d65      0xafc /home/ch/RIOT/tests/driver_scd30/bin/lora-e5-dev/periph/i2c_1.o
 .debug_macro   0x0000000000023861      0x413 /home/ch/RIOT/tests/driver_scd30/bin/lora-e5-dev/periph/pm.o
 .debug_macro   0x0000000000023c74      0xafc /home/ch/RIOT/tests/driver_scd30/bin/lora-e5-dev/periph/pm.o
 .debug_macro   0x0000000000024770      0x40a /home/ch/RIOT/tests/driver_scd30/bin/lora-e5-dev/periph/timer.o
 .debug_macro   0x0000000000024b7a      0xafc /home/ch/RIOT/tests/driver_scd30/bin/lora-e5-dev/periph/timer.o
 .debug_macro   0x0000000000025676      0x45d /home/ch/RIOT/tests/driver_scd30/bin/lora-e5-dev/periph/uart.o
 .debug_macro   0x0000000000025ad3      0xafc /home/ch/RIOT/tests/driver_scd30/bin/lora-e5-dev/periph/uart.o
 .debug_macro   0x00000000000265cf       0x10 /home/ch/RIOT/tests/driver_scd30/bin/lora-e5-dev/periph/uart.o
 .debug_macro   0x00000000000265df      0x412 /home/ch/RIOT/tests/driver_scd30/bin/lora-e5-dev/pm_layered/pm.o
 .debug_macro   0x00000000000269f1      0xafc /home/ch/RIOT/tests/driver_scd30/bin/lora-e5-dev/pm_layered/pm.o
 .debug_macro   0x00000000000274ed       0x28 /home/ch/RIOT/tests/driver_scd30/bin/lora-e5-dev/pm_layered/pm.o
 .debug_macro   0x0000000000027515       0x27 /home/ch/RIOT/tests/driver_scd30/bin/lora-e5-dev/pm_layered/pm.o
 .debug_macro   0x000000000002753c      0x537 /home/ch/RIOT/tests/driver_scd30/bin/lora-e5-dev/scd30/scd30.o
 .debug_macro   0x0000000000027a73      0xafc /home/ch/RIOT/tests/driver_scd30/bin/lora-e5-dev/scd30/scd30.o
 .debug_macro   0x000000000002856f      0x4bd /home/ch/RIOT/tests/driver_scd30/bin/lora-e5-dev/stdio_uart/stdio_uart.o
 .debug_macro   0x0000000000028a2c      0xafc /home/ch/RIOT/tests/driver_scd30/bin/lora-e5-dev/stdio_uart/stdio_uart.o
 .debug_macro   0x0000000000029528       0x16 /home/ch/RIOT/tests/driver_scd30/bin/lora-e5-dev/stdio_uart/stdio_uart.o
 .debug_macro   0x000000000002953e      0x423 /home/ch/RIOT/tests/driver_scd30/bin/lora-e5-dev/stm32_clk/stmclk_common.o
 .debug_macro   0x0000000000029961      0xafc /home/ch/RIOT/tests/driver_scd30/bin/lora-e5-dev/stm32_clk/stmclk_common.o
 .debug_macro   0x000000000002a45d      0x55d /home/ch/RIOT/tests/driver_scd30/bin/lora-e5-dev/stm32_clk/stmclk_l4wx.o
 .debug_macro   0x000000000002a9ba      0xafc /home/ch/RIOT/tests/driver_scd30/bin/lora-e5-dev/stm32_clk/stmclk_l4wx.o
 .debug_macro   0x000000000002b4b6       0xb7 /home/ch/RIOT/tests/driver_scd30/bin/lora-e5-dev/stm32_vectors/STM32WLE5xx.o
 .debug_macro   0x000000000002b56d      0xafc /home/ch/RIOT/tests/driver_scd30/bin/lora-e5-dev/stm32_vectors/STM32WLE5xx.o
 .debug_macro   0x000000000002c069       0x16 /home/ch/RIOT/tests/driver_scd30/bin/lora-e5-dev/stm32_vectors/STM32WLE5xx.o
 .debug_macro   0x000000000002c07f      0x4a6 /home/ch/RIOT/tests/driver_scd30/bin/lora-e5-dev/xtimer/xtimer_core.o
 .debug_macro   0x000000000002c525      0xafc /home/ch/RIOT/tests/driver_scd30/bin/lora-e5-dev/xtimer/xtimer_core.o
 .debug_macro   0x000000000002d021       0x16 /home/ch/RIOT/tests/driver_scd30/bin/lora-e5-dev/xtimer/xtimer_core.o
 .debug_macro   0x000000000002d037      0x4a3 /home/ch/RIOT/tests/driver_scd30/bin/lora-e5-dev/xtimer/xtimer.o
 .debug_macro   0x000000000002d4da      0xafc /home/ch/RIOT/tests/driver_scd30/bin/lora-e5-dev/xtimer/xtimer.o

.debug_line     0x0000000000000000    0x1c062
 .debug_line    0x0000000000000000      0xa75 /home/ch/RIOT/tests/driver_scd30/bin/lora-e5-dev/application_tests_driver_scd30/main.o
 .debug_line    0x0000000000000a75      0x319 /home/ch/RIOT/tests/driver_scd30/bin/lora-e5-dev/auto_init/auto_init.o
 .debug_line    0x0000000000000d8e      0x86d /home/ch/RIOT/tests/driver_scd30/bin/lora-e5-dev/board/board.o
 .debug_line    0x00000000000015fb      0x172 /home/ch/RIOT/tests/driver_scd30/bin/lora-e5-dev/checksum/crc8.o
 .debug_line    0x000000000000176d      0x7e3 /home/ch/RIOT/tests/driver_scd30/bin/lora-e5-dev/core/init.o
 .debug_line    0x0000000000001f50      0xc4e /home/ch/RIOT/tests/driver_scd30/bin/lora-e5-dev/core/mutex.o
 .debug_line    0x0000000000002b9e      0x83a /home/ch/RIOT/tests/driver_scd30/bin/lora-e5-dev/core/panic.o
 .debug_line    0x00000000000033d8      0x941 /home/ch/RIOT/tests/driver_scd30/bin/lora-e5-dev/core/sched.o
 .debug_line    0x0000000000003d19      0xe76 /home/ch/RIOT/tests/driver_scd30/bin/lora-e5-dev/core/thread.o
 .debug_line    0x0000000000004b8f      0x657 /home/ch/RIOT/tests/driver_scd30/bin/lora-e5-dev/cortexm_common/cortexm_init.o
 .debug_line    0x00000000000051e6      0x560 /home/ch/RIOT/tests/driver_scd30/bin/lora-e5-dev/cortexm_common/panic.o
 .debug_line    0x0000000000005746      0x83f /home/ch/RIOT/tests/driver_scd30/bin/lora-e5-dev/cortexm_common/thread_arch.o
 .debug_line    0x0000000000005f85      0xa1e /home/ch/RIOT/tests/driver_scd30/bin/lora-e5-dev/cortexm_common/vectors_cortexm.o
 .debug_line    0x00000000000069a3      0x92d /home/ch/RIOT/tests/driver_scd30/bin/lora-e5-dev/cpu/cpu_common.o
 .debug_line    0x00000000000072d0      0x8ef /home/ch/RIOT/tests/driver_scd30/bin/lora-e5-dev/cpu/cpu_init.o
 .debug_line    0x0000000000007bbf      0x63e /home/ch/RIOT/tests/driver_scd30/bin/lora-e5-dev/malloc_thread_safe/malloc_wrappers.o
 .debug_line    0x00000000000081fd      0xeea /home/ch/RIOT/tests/driver_scd30/bin/lora-e5-dev/newlib_syscalls_default/syscalls.o
 .debug_line    0x00000000000090e7      0x844 /home/ch/RIOT/tests/driver_scd30/bin/lora-e5-dev/periph_common/init.o
 .debug_line    0x000000000000992b      0xc0a /home/ch/RIOT/tests/driver_scd30/bin/lora-e5-dev/periph/gpio_all.o
 .debug_line    0x000000000000a535     0x10f2 /home/ch/RIOT/tests/driver_scd30/bin/lora-e5-dev/periph/i2c_1.o
 .debug_line    0x000000000000b627      0x877 /home/ch/RIOT/tests/driver_scd30/bin/lora-e5-dev/periph/pm.o
 .debug_line    0x000000000000be9e      0xb89 /home/ch/RIOT/tests/driver_scd30/bin/lora-e5-dev/periph/timer.o
 .debug_line    0x000000000000ca27      0xc52 /home/ch/RIOT/tests/driver_scd30/bin/lora-e5-dev/periph/uart.o
 .debug_line    0x000000000000d679      0x9ff /home/ch/RIOT/tests/driver_scd30/bin/lora-e5-dev/pm_layered/pm.o
 .debug_line    0x000000000000e078     0x10cf /home/ch/RIOT/tests/driver_scd30/bin/lora-e5-dev/scd30/scd30.o
 .debug_line    0x000000000000f147      0x90e /home/ch/RIOT/tests/driver_scd30/bin/lora-e5-dev/stdio_uart/stdio_uart.o
 .debug_line    0x000000000000fa55      0x99a /home/ch/RIOT/tests/driver_scd30/bin/lora-e5-dev/stm32_clk/stmclk_common.o
 .debug_line    0x00000000000103ef      0x9f4 /home/ch/RIOT/tests/driver_scd30/bin/lora-e5-dev/stm32_clk/stmclk_l4wx.o
 .debug_line    0x0000000000010de3      0x278 /home/ch/RIOT/tests/driver_scd30/bin/lora-e5-dev/stm32_vectors/STM32WLE5xx.o
 .debug_line    0x000000000001105b      0xf20 /home/ch/RIOT/tests/driver_scd30/bin/lora-e5-dev/xtimer/xtimer_core.o
 .debug_line    0x0000000000011f7b     0x1138 /home/ch/RIOT/tests/driver_scd30/bin/lora-e5-dev/xtimer/xtimer.o
 .debug_line    0x00000000000130b3      0x186 /usr/lib/gcc/arm-none-eabi/9.2.1/thumb/v7e-m/nofp/libgcc.a(_arm_addsubdf3.o)
 .debug_line    0x0000000000013239       0xe3 /usr/lib/gcc/arm-none-eabi/9.2.1/../../../arm-none-eabi/lib/thumb/v7e-m/nofp/libc_nano.a(lib_a-impure.o)
 .debug_line    0x000000000001331c      0x10d /usr/lib/gcc/arm-none-eabi/9.2.1/../../../arm-none-eabi/lib/thumb/v7e-m/nofp/libc_nano.a(lib_a-init.o)
 .debug_line    0x0000000000013429      0x15e /usr/lib/gcc/arm-none-eabi/9.2.1/../../../arm-none-eabi/lib/thumb/v7e-m/nofp/libc_nano.a(lib_a-malloc.o)
 .debug_line    0x0000000000013587       0xbe /usr/lib/gcc/arm-none-eabi/9.2.1/../../../arm-none-eabi/lib/thumb/v7e-m/nofp/libc_nano.a(lib_a-memcpy.o)
 .debug_line    0x0000000000013645      0x26b /usr/lib/gcc/arm-none-eabi/9.2.1/../../../arm-none-eabi/lib/thumb/v7e-m/nofp/libc_nano.a(lib_a-memset.o)
 .debug_line    0x00000000000138b0      0x2af /usr/lib/gcc/arm-none-eabi/9.2.1/../../../arm-none-eabi/lib/thumb/v7e-m/nofp/libc_nano.a(lib_a-nano-freer.o)
 .debug_line    0x0000000000013b5f      0x2f2 /usr/lib/gcc/arm-none-eabi/9.2.1/../../../arm-none-eabi/lib/thumb/v7e-m/nofp/libc_nano.a(lib_a-nano-mallocr.o)
 .debug_line    0x0000000000013e51      0x9b2 /usr/lib/gcc/arm-none-eabi/9.2.1/../../../arm-none-eabi/lib/thumb/v7e-m/nofp/libc_nano.a(lib_a-nano-vfprintf_float.o)
 .debug_line    0x0000000000014803      0x790 /usr/lib/gcc/arm-none-eabi/9.2.1/../../../arm-none-eabi/lib/thumb/v7e-m/nofp/libc_nano.a(lib_a-nano-vfprintf_i.o)
 .debug_line    0x0000000000014f93      0x1fc /usr/lib/gcc/arm-none-eabi/9.2.1/../../../arm-none-eabi/lib/thumb/v7e-m/nofp/libc_nano.a(lib_a-printf.o)
 .debug_line    0x000000000001518f      0x316 /usr/lib/gcc/arm-none-eabi/9.2.1/../../../arm-none-eabi/lib/thumb/v7e-m/nofp/libc_nano.a(lib_a-puts.o)
 .debug_line    0x00000000000154a5       0xaf /usr/lib/gcc/arm-none-eabi/9.2.1/../../../arm-none-eabi/lib/thumb/v7e-m/nofp/libc_nano.a(lib_a-strlen.o)
 .debug_line    0x0000000000015554      0x27c /usr/lib/gcc/arm-none-eabi/9.2.1/../../../arm-none-eabi/lib/thumb/v7e-m/nofp/libc_nano.a(lib_a-wbuf.o)
 .debug_line    0x00000000000157d0      0x311 /usr/lib/gcc/arm-none-eabi/9.2.1/../../../arm-none-eabi/lib/thumb/v7e-m/nofp/libc_nano.a(lib_a-wsetup.o)
 .debug_line    0x0000000000015ae1     0x140a /usr/lib/gcc/arm-none-eabi/9.2.1/../../../arm-none-eabi/lib/thumb/v7e-m/nofp/libc_nano.a(lib_a-dtoa.o)
 .debug_line    0x0000000000016eeb      0x418 /usr/lib/gcc/arm-none-eabi/9.2.1/../../../arm-none-eabi/lib/thumb/v7e-m/nofp/libc_nano.a(lib_a-fflush.o)
 .debug_line    0x0000000000017303      0x561 /usr/lib/gcc/arm-none-eabi/9.2.1/../../../arm-none-eabi/lib/thumb/v7e-m/nofp/libc_nano.a(lib_a-findfp.o)
 .debug_line    0x0000000000017864      0x19a /usr/lib/gcc/arm-none-eabi/9.2.1/../../../arm-none-eabi/lib/thumb/v7e-m/nofp/libc_nano.a(lib_a-fprintf.o)
 .debug_line    0x00000000000179fe      0x289 /usr/lib/gcc/arm-none-eabi/9.2.1/../../../arm-none-eabi/lib/thumb/v7e-m/nofp/libc_nano.a(lib_a-fwalk.o)
 .debug_line    0x0000000000017c87      0x1ca /usr/lib/gcc/arm-none-eabi/9.2.1/../../../arm-none-eabi/lib/thumb/v7e-m/nofp/libc_nano.a(lib_a-localeconv.o)
 .debug_line    0x0000000000017e51      0x36f /usr/lib/gcc/arm-none-eabi/9.2.1/../../../arm-none-eabi/lib/thumb/v7e-m/nofp/libc_nano.a(lib_a-makebuf.o)
 .debug_line    0x00000000000181c0       0xa4 /usr/lib/gcc/arm-none-eabi/9.2.1/../../../arm-none-eabi/lib/thumb/v7e-m/nofp/libc_nano.a(lib_a-memchr.o)
 .debug_line    0x0000000000018264      0x13d /usr/lib/gcc/arm-none-eabi/9.2.1/../../../arm-none-eabi/lib/thumb/v7e-m/nofp/libc_nano.a(lib_a-mlock.o)
 .debug_line    0x00000000000183a1     0x1451 /usr/lib/gcc/arm-none-eabi/9.2.1/../../../arm-none-eabi/lib/thumb/v7e-m/nofp/libc_nano.a(lib_a-mprec.o)
 .debug_line    0x00000000000197f2      0x17a /usr/lib/gcc/arm-none-eabi/9.2.1/../../../arm-none-eabi/lib/thumb/v7e-m/nofp/libc_nano.a(lib_a-nano-callocr.o)
 .debug_line    0x000000000001996c      0x1c5 /usr/lib/gcc/arm-none-eabi/9.2.1/../../../arm-none-eabi/lib/thumb/v7e-m/nofp/libc_nano.a(lib_a-nano-reallocr.o)
 .debug_line    0x0000000000019b31      0x726 /usr/lib/gcc/arm-none-eabi/9.2.1/../../../arm-none-eabi/lib/thumb/v7e-m/nofp/libc_nano.a(lib_a-nano-vfprintf.o)
 .debug_line    0x000000000001a257      0x25f /usr/lib/gcc/arm-none-eabi/9.2.1/../../../arm-none-eabi/lib/thumb/v7e-m/nofp/libc_nano.a(lib_a-stdio.o)
 .debug_line    0x000000000001a4b6      0x18d /usr/lib/gcc/arm-none-eabi/9.2.1/../../../arm-none-eabi/lib/thumb/v7e-m/nofp/libc_nano.a(lib_a-assert.o)
 .debug_line    0x000000000001a643      0x5e8 /usr/lib/gcc/arm-none-eabi/9.2.1/../../../arm-none-eabi/lib/thumb/v7e-m/nofp/libc_nano.a(lib_a-fvwrite.o)
 .debug_line    0x000000000001ac2b      0x252 /usr/lib/gcc/arm-none-eabi/9.2.1/../../../arm-none-eabi/lib/thumb/v7e-m/nofp/libc_nano.a(lib_a-locale.o)
 .debug_line    0x000000000001ae7d      0x228 /usr/lib/gcc/arm-none-eabi/9.2.1/../../../arm-none-eabi/lib/thumb/v7e-m/nofp/libc_nano.a(lib_a-mbtowc_r.o)
 .debug_line    0x000000000001b0a5      0x287 /usr/lib/gcc/arm-none-eabi/9.2.1/../../../arm-none-eabi/lib/thumb/v7e-m/nofp/libc_nano.a(lib_a-memmove.o)
 .debug_line    0x000000000001b32c      0x166 /usr/lib/gcc/arm-none-eabi/9.2.1/../../../arm-none-eabi/lib/thumb/v7e-m/nofp/libc_nano.a(lib_a-nano-msizer.o)
 .debug_line    0x000000000001b492      0x212 /usr/lib/gcc/arm-none-eabi/9.2.1/../../../arm-none-eabi/lib/thumb/v7e-m/nofp/libc_nano.a(lib_a-wctomb_r.o)
 .debug_line    0x000000000001b6a4      0x15f /usr/lib/gcc/arm-none-eabi/9.2.1/../../../arm-none-eabi/lib/thumb/v7e-m/nofp/libc_nano.a(lib_a-abort.o)
 .debug_line    0x000000000001b803      0x154 /usr/lib/gcc/arm-none-eabi/9.2.1/../../../arm-none-eabi/lib/thumb/v7e-m/nofp/libc_nano.a(lib_a-ctype_.o)
 .debug_line    0x000000000001b957      0x3cc /usr/lib/gcc/arm-none-eabi/9.2.1/../../../arm-none-eabi/lib/thumb/v7e-m/nofp/libc_nano.a(lib_a-signal.o)
 .debug_line    0x000000000001bd23      0x19b /usr/lib/gcc/arm-none-eabi/9.2.1/thumb/v7e-m/nofp/libgcc.a(_arm_muldivdf3.o)
 .debug_line    0x000000000001bebe       0xbd /usr/lib/gcc/arm-none-eabi/9.2.1/thumb/v7e-m/nofp/libgcc.a(_arm_cmpdf2.o)
 .debug_line    0x000000000001bf7b       0x6e /usr/lib/gcc/arm-none-eabi/9.2.1/thumb/v7e-m/nofp/libgcc.a(_arm_unorddf2.o)
 .debug_line    0x000000000001bfe9       0x79 /usr/lib/gcc/arm-none-eabi/9.2.1/thumb/v7e-m/nofp/libgcc.a(_arm_fixdfsi.o)

.debug_str      0x0000000000000000    0x65011
 .debug_str     0x0000000000000000    0x5d4d9 /home/ch/RIOT/tests/driver_scd30/bin/lora-e5-dev/application_tests_driver_scd30/main.o
                                      0x5da05 (size before relaxing)
 .debug_str     0x000000000005d4d9      0x5c2 /home/ch/RIOT/tests/driver_scd30/bin/lora-e5-dev/auto_init/auto_init.o
                                       0x9769 (size before relaxing)
 .debug_str     0x000000000005da9b      0x130 /home/ch/RIOT/tests/driver_scd30/bin/lora-e5-dev/board/board.o
                                      0x5bd6d (size before relaxing)
 .debug_str     0x000000000005dbcb       0xa0 /home/ch/RIOT/tests/driver_scd30/bin/lora-e5-dev/checksum/crc8.o
                                       0x4138 (size before relaxing)
 .debug_str     0x000000000005dc6b      0x321 /home/ch/RIOT/tests/driver_scd30/bin/lora-e5-dev/core/init.o
                                      0x5bb3b (size before relaxing)
 .debug_str     0x000000000005df8c      0x32c /home/ch/RIOT/tests/driver_scd30/bin/lora-e5-dev/core/mutex.o
                                      0x5aa0d (size before relaxing)
 .debug_str     0x000000000005e2b8       0xc2 /home/ch/RIOT/tests/driver_scd30/bin/lora-e5-dev/core/panic.o
                                      0x5b597 (size before relaxing)
 .debug_str     0x000000000005e37a      0x4bd /home/ch/RIOT/tests/driver_scd30/bin/lora-e5-dev/core/sched.o
                                      0x5a8bb (size before relaxing)
 .debug_str     0x000000000005e837      0x24f /home/ch/RIOT/tests/driver_scd30/bin/lora-e5-dev/core/thread.o
                                      0x5ae2d (size before relaxing)
 .debug_str     0x000000000005ea86      0x595 /home/ch/RIOT/tests/driver_scd30/bin/lora-e5-dev/cortexm_common/cortexm_init.o
                                      0x5a71c (size before relaxing)
 .debug_str     0x000000000005f01b       0x64 /home/ch/RIOT/tests/driver_scd30/bin/lora-e5-dev/cortexm_common/panic.o
                                      0x5a339 (size before relaxing)
 .debug_str     0x000000000005f07f      0x1a8 /home/ch/RIOT/tests/driver_scd30/bin/lora-e5-dev/cortexm_common/thread_arch.o
                                      0x5a5b8 (size before relaxing)
 .debug_str     0x000000000005f227      0x42d /home/ch/RIOT/tests/driver_scd30/bin/lora-e5-dev/cortexm_common/vectors_cortexm.o
                                      0x5ba8a (size before relaxing)
 .debug_str     0x000000000005f654      0x215 /home/ch/RIOT/tests/driver_scd30/bin/lora-e5-dev/cpu/cpu_common.o
                                      0x5bdd9 (size before relaxing)
 .debug_str     0x000000000005f869     0x10fd /home/ch/RIOT/tests/driver_scd30/bin/lora-e5-dev/cpu/cpu_init.o
                                      0x5cd89 (size before relaxing)
 .debug_str     0x0000000000060966      0x130 /home/ch/RIOT/tests/driver_scd30/bin/lora-e5-dev/malloc_thread_safe/malloc_wrappers.o
                                      0x59aad (size before relaxing)
 .debug_str     0x0000000000060a96      0xab3 /home/ch/RIOT/tests/driver_scd30/bin/lora-e5-dev/newlib_syscalls_default/syscalls.o
                                      0x5f0b2 (size before relaxing)
 .debug_str     0x0000000000061549       0x9e /home/ch/RIOT/tests/driver_scd30/bin/lora-e5-dev/periph_common/init.o
                                      0x5baf1 (size before relaxing)
 .debug_str     0x00000000000615e7      0x1f2 /home/ch/RIOT/tests/driver_scd30/bin/lora-e5-dev/periph/gpio_all.o
                                      0x5bf40 (size before relaxing)
 .debug_str     0x00000000000617d9      0x309 /home/ch/RIOT/tests/driver_scd30/bin/lora-e5-dev/periph/i2c_1.o
                                      0x5cb00 (size before relaxing)
 .debug_str     0x0000000000061ae2      0x1b2 /home/ch/RIOT/tests/driver_scd30/bin/lora-e5-dev/periph/pm.o
                                      0x5b692 (size before relaxing)
 .debug_str     0x0000000000061c94      0x103 /home/ch/RIOT/tests/driver_scd30/bin/lora-e5-dev/periph/timer.o
                                      0x5c097 (size before relaxing)
 .debug_str     0x0000000000061d97      0x26a /home/ch/RIOT/tests/driver_scd30/bin/lora-e5-dev/periph/uart.o
                                      0x5c7d0 (size before relaxing)
 .debug_str     0x0000000000062001      0x41a /home/ch/RIOT/tests/driver_scd30/bin/lora-e5-dev/pm_layered/pm.o
                                      0x5b98b (size before relaxing)
 .debug_str     0x000000000006241b      0x28d /home/ch/RIOT/tests/driver_scd30/bin/lora-e5-dev/scd30/scd30.o
                                      0x5dd19 (size before relaxing)
 .debug_str     0x00000000000626a8      0x185 /home/ch/RIOT/tests/driver_scd30/bin/lora-e5-dev/stdio_uart/stdio_uart.o
                                      0x5d4b3 (size before relaxing)
 .debug_str     0x000000000006282d      0x181 /home/ch/RIOT/tests/driver_scd30/bin/lora-e5-dev/stm32_clk/stmclk_common.o
                                      0x5bd08 (size before relaxing)
 .debug_str     0x00000000000629ae      0x7c8 /home/ch/RIOT/tests/driver_scd30/bin/lora-e5-dev/stm32_clk/stmclk_l4wx.o
                                      0x5c3eb (size before relaxing)
 .debug_str     0x0000000000063176       0xbd /home/ch/RIOT/tests/driver_scd30/bin/lora-e5-dev/stm32_vectors/STM32WLE5xx.o
                                      0x54be0 (size before relaxing)
 .debug_str     0x0000000000063233      0x20d /home/ch/RIOT/tests/driver_scd30/bin/lora-e5-dev/xtimer/xtimer_core.o
                                      0x5d451 (size before relaxing)
 .debug_str     0x0000000000063440      0x330 /home/ch/RIOT/tests/driver_scd30/bin/lora-e5-dev/xtimer/xtimer.o
                                      0x5d6e3 (size before relaxing)
 .debug_str     0x0000000000063770       0xa5 /usr/lib/gcc/arm-none-eabi/9.2.1/thumb/v7e-m/nofp/libgcc.a(_arm_addsubdf3.o)
 .debug_str     0x0000000000063815      0x12b /usr/lib/gcc/arm-none-eabi/9.2.1/../../../arm-none-eabi/lib/thumb/v7e-m/nofp/libc_nano.a(lib_a-impure.o)
                                        0x5dc (size before relaxing)
 .debug_str     0x0000000000063940       0xdb /usr/lib/gcc/arm-none-eabi/9.2.1/../../../arm-none-eabi/lib/thumb/v7e-m/nofp/libc_nano.a(lib_a-init.o)
                                        0x223 (size before relaxing)
 .debug_str     0x0000000000063a1b       0xbb /usr/lib/gcc/arm-none-eabi/9.2.1/../../../arm-none-eabi/lib/thumb/v7e-m/nofp/libc_nano.a(lib_a-malloc.o)
                                        0x60d (size before relaxing)
 .debug_str     0x0000000000063ad6       0xa7 /usr/lib/gcc/arm-none-eabi/9.2.1/../../../arm-none-eabi/lib/thumb/v7e-m/nofp/libc_nano.a(lib_a-memcpy.o)
                                         0xb3 (size before relaxing)
 .debug_str     0x0000000000063b7d      0x2ea /usr/lib/gcc/arm-none-eabi/9.2.1/../../../arm-none-eabi/lib/thumb/v7e-m/nofp/libc_nano.a(lib_a-memset.o)
                                        0x909 (size before relaxing)
 .debug_str     0x0000000000063e67       0xe2 /usr/lib/gcc/arm-none-eabi/9.2.1/../../../arm-none-eabi/lib/thumb/v7e-m/nofp/libc_nano.a(lib_a-nano-freer.o)
                                        0x70c (size before relaxing)
 .debug_str     0x0000000000063f49       0x2a /usr/lib/gcc/arm-none-eabi/9.2.1/../../../arm-none-eabi/lib/thumb/v7e-m/nofp/libc_nano.a(lib_a-nano-mallocr.o)
                                        0x723 (size before relaxing)
 .debug_str     0x0000000000063f73      0x2f9 /usr/lib/gcc/arm-none-eabi/9.2.1/../../../arm-none-eabi/lib/thumb/v7e-m/nofp/libc_nano.a(lib_a-nano-vfprintf_float.o)
                                        0xc29 (size before relaxing)
 .debug_str     0x000000000006426c       0x82 /usr/lib/gcc/arm-none-eabi/9.2.1/../../../arm-none-eabi/lib/thumb/v7e-m/nofp/libc_nano.a(lib_a-nano-vfprintf_i.o)
                                        0xba6 (size before relaxing)
 .debug_str     0x00000000000642ee       0x51 /usr/lib/gcc/arm-none-eabi/9.2.1/../../../arm-none-eabi/lib/thumb/v7e-m/nofp/libc_nano.a(lib_a-printf.o)
                                        0x756 (size before relaxing)
 .debug_str     0x000000000006433f       0x69 /usr/lib/gcc/arm-none-eabi/9.2.1/../../../arm-none-eabi/lib/thumb/v7e-m/nofp/libc_nano.a(lib_a-puts.o)
                                        0x75f (size before relaxing)
 .debug_str     0x00000000000643a8       0x42 /usr/lib/gcc/arm-none-eabi/9.2.1/../../../arm-none-eabi/lib/thumb/v7e-m/nofp/libc_nano.a(lib_a-strlen.o)
                                         0xb2 (size before relaxing)
 .debug_str     0x00000000000643ea       0x43 /usr/lib/gcc/arm-none-eabi/9.2.1/../../../arm-none-eabi/lib/thumb/v7e-m/nofp/libc_nano.a(lib_a-wbuf.o)
                                        0x765 (size before relaxing)
 .debug_str     0x000000000006442d       0x40 /usr/lib/gcc/arm-none-eabi/9.2.1/../../../arm-none-eabi/lib/thumb/v7e-m/nofp/libc_nano.a(lib_a-wsetup.o)
                                        0x760 (size before relaxing)
 .debug_str     0x000000000006446d      0x185 /usr/lib/gcc/arm-none-eabi/9.2.1/../../../arm-none-eabi/lib/thumb/v7e-m/nofp/libc_nano.a(lib_a-dtoa.o)
                                        0xae0 (size before relaxing)
 .debug_str     0x00000000000645f2       0x63 /usr/lib/gcc/arm-none-eabi/9.2.1/../../../arm-none-eabi/lib/thumb/v7e-m/nofp/libc_nano.a(lib_a-fflush.o)
                                        0x78e (size before relaxing)
 .debug_str     0x0000000000064655      0x16b /usr/lib/gcc/arm-none-eabi/9.2.1/../../../arm-none-eabi/lib/thumb/v7e-m/nofp/libc_nano.a(lib_a-findfp.o)
                                        0x89e (size before relaxing)
 .debug_str     0x00000000000647c0       0x3f /usr/lib/gcc/arm-none-eabi/9.2.1/../../../arm-none-eabi/lib/thumb/v7e-m/nofp/libc_nano.a(lib_a-fprintf.o)
                                        0x61b (size before relaxing)
 .debug_str     0x00000000000647ff       0x41 /usr/lib/gcc/arm-none-eabi/9.2.1/../../../arm-none-eabi/lib/thumb/v7e-m/nofp/libc_nano.a(lib_a-fwalk.o)
                                        0x752 (size before relaxing)
 .debug_str     0x0000000000064840       0xf9 /usr/lib/gcc/arm-none-eabi/9.2.1/../../../arm-none-eabi/lib/thumb/v7e-m/nofp/libc_nano.a(lib_a-localeconv.o)
                                        0x96e (size before relaxing)
 .debug_str     0x0000000000064939       0x59 /usr/lib/gcc/arm-none-eabi/9.2.1/../../../arm-none-eabi/lib/thumb/v7e-m/nofp/libc_nano.a(lib_a-makebuf.o)
                                        0x8d3 (size before relaxing)
 .debug_str     0x0000000000064992       0x3c /usr/lib/gcc/arm-none-eabi/9.2.1/../../../arm-none-eabi/lib/thumb/v7e-m/nofp/libc_nano.a(lib_a-memchr.o)
                                         0xac (size before relaxing)
 .debug_str     0x00000000000649ce       0x4c /usr/lib/gcc/arm-none-eabi/9.2.1/../../../arm-none-eabi/lib/thumb/v7e-m/nofp/libc_nano.a(lib_a-mlock.o)
                                        0x608 (size before relaxing)
 .debug_str     0x0000000000064a1a       0x8d /usr/lib/gcc/arm-none-eabi/9.2.1/../../../arm-none-eabi/lib/thumb/v7e-m/nofp/libc_nano.a(lib_a-mprec.o)
                                        0xa89 (size before relaxing)
 .debug_str     0x0000000000064aa7        0x5 /usr/lib/gcc/arm-none-eabi/9.2.1/../../../arm-none-eabi/lib/thumb/v7e-m/nofp/libc_nano.a(lib_a-nano-callocr.o)
                                        0x6e2 (size before relaxing)
 .debug_str     0x0000000000064aac       0x2e /usr/lib/gcc/arm-none-eabi/9.2.1/../../../arm-none-eabi/lib/thumb/v7e-m/nofp/libc_nano.a(lib_a-nano-reallocr.o)
                                        0x709 (size before relaxing)
 .debug_str     0x0000000000064ada       0xd3 /usr/lib/gcc/arm-none-eabi/9.2.1/../../../arm-none-eabi/lib/thumb/v7e-m/nofp/libc_nano.a(lib_a-nano-vfprintf.o)
                                        0xc28 (size before relaxing)
 .debug_str     0x0000000000064bad       0x66 /usr/lib/gcc/arm-none-eabi/9.2.1/../../../arm-none-eabi/lib/thumb/v7e-m/nofp/libc_nano.a(lib_a-stdio.o)
                                        0x7a6 (size before relaxing)
 .debug_str     0x0000000000064c13       0x57 /usr/lib/gcc/arm-none-eabi/9.2.1/../../../arm-none-eabi/lib/thumb/v7e-m/nofp/libc_nano.a(lib_a-assert.o)
                                        0x61c (size before relaxing)
 .debug_str     0x0000000000064c6a       0x5a /usr/lib/gcc/arm-none-eabi/9.2.1/../../../arm-none-eabi/lib/thumb/v7e-m/nofp/libc_nano.a(lib_a-fvwrite.o)
                                        0x7df (size before relaxing)
 .debug_str     0x0000000000064cc4       0x83 /usr/lib/gcc/arm-none-eabi/9.2.1/../../../arm-none-eabi/lib/thumb/v7e-m/nofp/libc_nano.a(lib_a-locale.o)
                                        0x9ae (size before relaxing)
 .debug_str     0x0000000000064d47       0x55 /usr/lib/gcc/arm-none-eabi/9.2.1/../../../arm-none-eabi/lib/thumb/v7e-m/nofp/libc_nano.a(lib_a-mbtowc_r.o)
                                        0x97f (size before relaxing)
 .debug_str     0x0000000000064d9c       0x5f /usr/lib/gcc/arm-none-eabi/9.2.1/../../../arm-none-eabi/lib/thumb/v7e-m/nofp/libc_nano.a(lib_a-memmove.o)
                                        0x928 (size before relaxing)
 .debug_str     0x0000000000064dfb        0xf /usr/lib/gcc/arm-none-eabi/9.2.1/../../../arm-none-eabi/lib/thumb/v7e-m/nofp/libc_nano.a(lib_a-nano-msizer.o)
                                        0x6e7 (size before relaxing)
 .debug_str     0x0000000000064e0a       0x56 /usr/lib/gcc/arm-none-eabi/9.2.1/../../../arm-none-eabi/lib/thumb/v7e-m/nofp/libc_nano.a(lib_a-wctomb_r.o)
                                        0x986 (size before relaxing)
 .debug_str     0x0000000000064e60       0x39 /usr/lib/gcc/arm-none-eabi/9.2.1/../../../arm-none-eabi/lib/thumb/v7e-m/nofp/libc_nano.a(lib_a-abort.o)
                                        0x61a (size before relaxing)
 .debug_str     0x0000000000064e99       0x91 /usr/lib/gcc/arm-none-eabi/9.2.1/../../../arm-none-eabi/lib/thumb/v7e-m/nofp/libc_nano.a(lib_a-ctype_.o)
                                        0x8f4 (size before relaxing)
 .debug_str     0x0000000000064f2a       0xe7 /usr/lib/gcc/arm-none-eabi/9.2.1/../../../arm-none-eabi/lib/thumb/v7e-m/nofp/libc_nano.a(lib_a-signal.o)
                                        0x67f (size before relaxing)
 .debug_str     0x0000000000065011       0xa5 /usr/lib/gcc/arm-none-eabi/9.2.1/thumb/v7e-m/nofp/libgcc.a(_arm_muldivdf3.o)
 .debug_str     0x0000000000065011       0xa5 /usr/lib/gcc/arm-none-eabi/9.2.1/thumb/v7e-m/nofp/libgcc.a(_arm_cmpdf2.o)
 .debug_str     0x0000000000065011       0xa5 /usr/lib/gcc/arm-none-eabi/9.2.1/thumb/v7e-m/nofp/libgcc.a(_arm_unorddf2.o)
 .debug_str     0x0000000000065011       0xa5 /usr/lib/gcc/arm-none-eabi/9.2.1/thumb/v7e-m/nofp/libgcc.a(_arm_fixdfsi.o)

.comment        0x0000000000000000       0xa7
 .comment       0x0000000000000000       0x59 /home/ch/RIOT/tests/driver_scd30/bin/lora-e5-dev/application_tests_driver_scd30/main.o
                                         0x5a (size before relaxing)
 .comment       0x0000000000000059       0x5a /home/ch/RIOT/tests/driver_scd30/bin/lora-e5-dev/auto_init/auto_init.o
 .comment       0x0000000000000059       0x5a /home/ch/RIOT/tests/driver_scd30/bin/lora-e5-dev/board/board.o
 .comment       0x0000000000000059       0x5a /home/ch/RIOT/tests/driver_scd30/bin/lora-e5-dev/checksum/crc8.o
 .comment       0x0000000000000059       0x5a /home/ch/RIOT/tests/driver_scd30/bin/lora-e5-dev/core/init.o
 .comment       0x0000000000000059       0x5a /home/ch/RIOT/tests/driver_scd30/bin/lora-e5-dev/core/mutex.o
 .comment       0x0000000000000059       0x5a /home/ch/RIOT/tests/driver_scd30/bin/lora-e5-dev/core/panic.o
 .comment       0x0000000000000059       0x5a /home/ch/RIOT/tests/driver_scd30/bin/lora-e5-dev/core/sched.o
 .comment       0x0000000000000059       0x5a /home/ch/RIOT/tests/driver_scd30/bin/lora-e5-dev/core/thread.o
 .comment       0x0000000000000059       0x5a /home/ch/RIOT/tests/driver_scd30/bin/lora-e5-dev/cortexm_common/cortexm_init.o
 .comment       0x0000000000000059       0x5a /home/ch/RIOT/tests/driver_scd30/bin/lora-e5-dev/cortexm_common/panic.o
 .comment       0x0000000000000059       0x5a /home/ch/RIOT/tests/driver_scd30/bin/lora-e5-dev/cortexm_common/thread_arch.o
 .comment       0x0000000000000059       0x5a /home/ch/RIOT/tests/driver_scd30/bin/lora-e5-dev/cortexm_common/vectors_cortexm.o
 .comment       0x0000000000000059       0x5a /home/ch/RIOT/tests/driver_scd30/bin/lora-e5-dev/cpu/cpu_common.o
 .comment       0x0000000000000059       0x5a /home/ch/RIOT/tests/driver_scd30/bin/lora-e5-dev/cpu/cpu_init.o
 .comment       0x0000000000000059       0x5a /home/ch/RIOT/tests/driver_scd30/bin/lora-e5-dev/malloc_thread_safe/malloc_wrappers.o
 .comment       0x0000000000000059       0x5a /home/ch/RIOT/tests/driver_scd30/bin/lora-e5-dev/newlib_syscalls_default/syscalls.o
 .comment       0x0000000000000059       0x5a /home/ch/RIOT/tests/driver_scd30/bin/lora-e5-dev/periph_common/init.o
 .comment       0x0000000000000059       0x5a /home/ch/RIOT/tests/driver_scd30/bin/lora-e5-dev/periph/gpio_all.o
 .comment       0x0000000000000059       0x5a /home/ch/RIOT/tests/driver_scd30/bin/lora-e5-dev/periph/i2c_1.o
 .comment       0x0000000000000059       0x5a /home/ch/RIOT/tests/driver_scd30/bin/lora-e5-dev/periph/pm.o
 .comment       0x0000000000000059       0x5a /home/ch/RIOT/tests/driver_scd30/bin/lora-e5-dev/periph/timer.o
 .comment       0x0000000000000059       0x5a /home/ch/RIOT/tests/driver_scd30/bin/lora-e5-dev/periph/uart.o
 .comment       0x0000000000000059       0x5a /home/ch/RIOT/tests/driver_scd30/bin/lora-e5-dev/pm_layered/pm.o
 .comment       0x0000000000000059       0x5a /home/ch/RIOT/tests/driver_scd30/bin/lora-e5-dev/scd30/scd30.o
 .comment       0x0000000000000059       0x5a /home/ch/RIOT/tests/driver_scd30/bin/lora-e5-dev/stdio_uart/stdio_uart.o
 .comment       0x0000000000000059       0x5a /home/ch/RIOT/tests/driver_scd30/bin/lora-e5-dev/stm32_clk/stmclk_common.o
 .comment       0x0000000000000059       0x5a /home/ch/RIOT/tests/driver_scd30/bin/lora-e5-dev/stm32_clk/stmclk_l4wx.o
 .comment       0x0000000000000059       0x5a /home/ch/RIOT/tests/driver_scd30/bin/lora-e5-dev/stm32_vectors/STM32WLE5xx.o
 .comment       0x0000000000000059       0x5a /home/ch/RIOT/tests/driver_scd30/bin/lora-e5-dev/xtimer/xtimer_core.o
 .comment       0x0000000000000059       0x5a /home/ch/RIOT/tests/driver_scd30/bin/lora-e5-dev/xtimer/xtimer.o
 .comment       0x0000000000000059       0x4e /usr/lib/gcc/arm-none-eabi/9.2.1/../../../arm-none-eabi/lib/thumb/v7e-m/nofp/libc_nano.a(lib_a-impure.o)
                                         0x4f (size before relaxing)
 .comment       0x00000000000000a7       0x4f /usr/lib/gcc/arm-none-eabi/9.2.1/../../../arm-none-eabi/lib/thumb/v7e-m/nofp/libc_nano.a(lib_a-init.o)
 .comment       0x00000000000000a7       0x4f /usr/lib/gcc/arm-none-eabi/9.2.1/../../../arm-none-eabi/lib/thumb/v7e-m/nofp/libc_nano.a(lib_a-malloc.o)
 .comment       0x00000000000000a7       0x4f /usr/lib/gcc/arm-none-eabi/9.2.1/../../../arm-none-eabi/lib/thumb/v7e-m/nofp/libc_nano.a(lib_a-memset.o)
 .comment       0x00000000000000a7       0x4f /usr/lib/gcc/arm-none-eabi/9.2.1/../../../arm-none-eabi/lib/thumb/v7e-m/nofp/libc_nano.a(lib_a-nano-freer.o)
 .comment       0x00000000000000a7       0x4f /usr/lib/gcc/arm-none-eabi/9.2.1/../../../arm-none-eabi/lib/thumb/v7e-m/nofp/libc_nano.a(lib_a-nano-mallocr.o)
 .comment       0x00000000000000a7       0x4f /usr/lib/gcc/arm-none-eabi/9.2.1/../../../arm-none-eabi/lib/thumb/v7e-m/nofp/libc_nano.a(lib_a-nano-vfprintf_float.o)
 .comment       0x00000000000000a7       0x4f /usr/lib/gcc/arm-none-eabi/9.2.1/../../../arm-none-eabi/lib/thumb/v7e-m/nofp/libc_nano.a(lib_a-nano-vfprintf_i.o)
 .comment       0x00000000000000a7       0x4f /usr/lib/gcc/arm-none-eabi/9.2.1/../../../arm-none-eabi/lib/thumb/v7e-m/nofp/libc_nano.a(lib_a-printf.o)
 .comment       0x00000000000000a7       0x4f /usr/lib/gcc/arm-none-eabi/9.2.1/../../../arm-none-eabi/lib/thumb/v7e-m/nofp/libc_nano.a(lib_a-puts.o)
 .comment       0x00000000000000a7       0x4f /usr/lib/gcc/arm-none-eabi/9.2.1/../../../arm-none-eabi/lib/thumb/v7e-m/nofp/libc_nano.a(lib_a-wbuf.o)
 .comment       0x00000000000000a7       0x4f /usr/lib/gcc/arm-none-eabi/9.2.1/../../../arm-none-eabi/lib/thumb/v7e-m/nofp/libc_nano.a(lib_a-wsetup.o)
 .comment       0x00000000000000a7       0x4f /usr/lib/gcc/arm-none-eabi/9.2.1/../../../arm-none-eabi/lib/thumb/v7e-m/nofp/libc_nano.a(lib_a-dtoa.o)
 .comment       0x00000000000000a7       0x4f /usr/lib/gcc/arm-none-eabi/9.2.1/../../../arm-none-eabi/lib/thumb/v7e-m/nofp/libc_nano.a(lib_a-fflush.o)
 .comment       0x00000000000000a7       0x4f /usr/lib/gcc/arm-none-eabi/9.2.1/../../../arm-none-eabi/lib/thumb/v7e-m/nofp/libc_nano.a(lib_a-findfp.o)
 .comment       0x00000000000000a7       0x4f /usr/lib/gcc/arm-none-eabi/9.2.1/../../../arm-none-eabi/lib/thumb/v7e-m/nofp/libc_nano.a(lib_a-fprintf.o)
 .comment       0x00000000000000a7       0x4f /usr/lib/gcc/arm-none-eabi/9.2.1/../../../arm-none-eabi/lib/thumb/v7e-m/nofp/libc_nano.a(lib_a-fwalk.o)
 .comment       0x00000000000000a7       0x4f /usr/lib/gcc/arm-none-eabi/9.2.1/../../../arm-none-eabi/lib/thumb/v7e-m/nofp/libc_nano.a(lib_a-localeconv.o)
 .comment       0x00000000000000a7       0x4f /usr/lib/gcc/arm-none-eabi/9.2.1/../../../arm-none-eabi/lib/thumb/v7e-m/nofp/libc_nano.a(lib_a-makebuf.o)
 .comment       0x00000000000000a7       0x4f /usr/lib/gcc/arm-none-eabi/9.2.1/../../../arm-none-eabi/lib/thumb/v7e-m/nofp/libc_nano.a(lib_a-mlock.o)
 .comment       0x00000000000000a7       0x4f /usr/lib/gcc/arm-none-eabi/9.2.1/../../../arm-none-eabi/lib/thumb/v7e-m/nofp/libc_nano.a(lib_a-mprec.o)
 .comment       0x00000000000000a7       0x4f /usr/lib/gcc/arm-none-eabi/9.2.1/../../../arm-none-eabi/lib/thumb/v7e-m/nofp/libc_nano.a(lib_a-nano-callocr.o)
 .comment       0x00000000000000a7       0x4f /usr/lib/gcc/arm-none-eabi/9.2.1/../../../arm-none-eabi/lib/thumb/v7e-m/nofp/libc_nano.a(lib_a-nano-reallocr.o)
 .comment       0x00000000000000a7       0x4f /usr/lib/gcc/arm-none-eabi/9.2.1/../../../arm-none-eabi/lib/thumb/v7e-m/nofp/libc_nano.a(lib_a-nano-vfprintf.o)
 .comment       0x00000000000000a7       0x4f /usr/lib/gcc/arm-none-eabi/9.2.1/../../../arm-none-eabi/lib/thumb/v7e-m/nofp/libc_nano.a(lib_a-stdio.o)
 .comment       0x00000000000000a7       0x4f /usr/lib/gcc/arm-none-eabi/9.2.1/../../../arm-none-eabi/lib/thumb/v7e-m/nofp/libc_nano.a(lib_a-assert.o)
 .comment       0x00000000000000a7       0x4f /usr/lib/gcc/arm-none-eabi/9.2.1/../../../arm-none-eabi/lib/thumb/v7e-m/nofp/libc_nano.a(lib_a-fvwrite.o)
 .comment       0x00000000000000a7       0x4f /usr/lib/gcc/arm-none-eabi/9.2.1/../../../arm-none-eabi/lib/thumb/v7e-m/nofp/libc_nano.a(lib_a-locale.o)
 .comment       0x00000000000000a7       0x4f /usr/lib/gcc/arm-none-eabi/9.2.1/../../../arm-none-eabi/lib/thumb/v7e-m/nofp/libc_nano.a(lib_a-mbtowc_r.o)
 .comment       0x00000000000000a7       0x4f /usr/lib/gcc/arm-none-eabi/9.2.1/../../../arm-none-eabi/lib/thumb/v7e-m/nofp/libc_nano.a(lib_a-memmove.o)
 .comment       0x00000000000000a7       0x4f /usr/lib/gcc/arm-none-eabi/9.2.1/../../../arm-none-eabi/lib/thumb/v7e-m/nofp/libc_nano.a(lib_a-nano-msizer.o)
 .comment       0x00000000000000a7       0x4f /usr/lib/gcc/arm-none-eabi/9.2.1/../../../arm-none-eabi/lib/thumb/v7e-m/nofp/libc_nano.a(lib_a-wctomb_r.o)
 .comment       0x00000000000000a7       0x4f /usr/lib/gcc/arm-none-eabi/9.2.1/../../../arm-none-eabi/lib/thumb/v7e-m/nofp/libc_nano.a(lib_a-abort.o)
 .comment       0x00000000000000a7       0x4f /usr/lib/gcc/arm-none-eabi/9.2.1/../../../arm-none-eabi/lib/thumb/v7e-m/nofp/libc_nano.a(lib_a-ctype_.o)
 .comment       0x00000000000000a7       0x4f /usr/lib/gcc/arm-none-eabi/9.2.1/../../../arm-none-eabi/lib/thumb/v7e-m/nofp/libc_nano.a(lib_a-signal.o)

.ARM.attributes
                0x0000000000000000       0x2c
 .ARM.attributes
                0x0000000000000000       0x2e /home/ch/RIOT/tests/driver_scd30/bin/lora-e5-dev/application_tests_driver_scd30/main.o
 .ARM.attributes
                0x000000000000002e       0x2e /home/ch/RIOT/tests/driver_scd30/bin/lora-e5-dev/auto_init/auto_init.o
 .ARM.attributes
                0x000000000000005c       0x2e /home/ch/RIOT/tests/driver_scd30/bin/lora-e5-dev/board/board.o
 .ARM.attributes
                0x000000000000008a       0x2e /home/ch/RIOT/tests/driver_scd30/bin/lora-e5-dev/checksum/crc8.o
 .ARM.attributes
                0x00000000000000b8       0x2e /home/ch/RIOT/tests/driver_scd30/bin/lora-e5-dev/core/init.o
 .ARM.attributes
                0x00000000000000e6       0x2e /home/ch/RIOT/tests/driver_scd30/bin/lora-e5-dev/core/mutex.o
 .ARM.attributes
                0x0000000000000114       0x2e /home/ch/RIOT/tests/driver_scd30/bin/lora-e5-dev/core/panic.o
 .ARM.attributes
                0x0000000000000142       0x2e /home/ch/RIOT/tests/driver_scd30/bin/lora-e5-dev/core/sched.o
 .ARM.attributes
                0x0000000000000170       0x2e /home/ch/RIOT/tests/driver_scd30/bin/lora-e5-dev/core/thread.o
 .ARM.attributes
                0x000000000000019e       0x2e /home/ch/RIOT/tests/driver_scd30/bin/lora-e5-dev/cortexm_common/cortexm_init.o
 .ARM.attributes
                0x00000000000001cc       0x2e /home/ch/RIOT/tests/driver_scd30/bin/lora-e5-dev/cortexm_common/panic.o
 .ARM.attributes
                0x00000000000001fa       0x2e /home/ch/RIOT/tests/driver_scd30/bin/lora-e5-dev/cortexm_common/thread_arch.o
 .ARM.attributes
                0x0000000000000228       0x2e /home/ch/RIOT/tests/driver_scd30/bin/lora-e5-dev/cortexm_common/vectors_cortexm.o
 .ARM.attributes
                0x0000000000000256       0x2e /home/ch/RIOT/tests/driver_scd30/bin/lora-e5-dev/cpu/cpu_common.o
 .ARM.attributes
                0x0000000000000284       0x2e /home/ch/RIOT/tests/driver_scd30/bin/lora-e5-dev/cpu/cpu_init.o
 .ARM.attributes
                0x00000000000002b2       0x2e /home/ch/RIOT/tests/driver_scd30/bin/lora-e5-dev/malloc_thread_safe/malloc_wrappers.o
 .ARM.attributes
                0x00000000000002e0       0x2e /home/ch/RIOT/tests/driver_scd30/bin/lora-e5-dev/newlib_syscalls_default/syscalls.o
 .ARM.attributes
                0x000000000000030e       0x2e /home/ch/RIOT/tests/driver_scd30/bin/lora-e5-dev/periph_common/init.o
 .ARM.attributes
                0x000000000000033c       0x2e /home/ch/RIOT/tests/driver_scd30/bin/lora-e5-dev/periph/gpio_all.o
 .ARM.attributes
                0x000000000000036a       0x2e /home/ch/RIOT/tests/driver_scd30/bin/lora-e5-dev/periph/i2c_1.o
 .ARM.attributes
                0x0000000000000398       0x2e /home/ch/RIOT/tests/driver_scd30/bin/lora-e5-dev/periph/pm.o
 .ARM.attributes
                0x00000000000003c6       0x2e /home/ch/RIOT/tests/driver_scd30/bin/lora-e5-dev/periph/timer.o
 .ARM.attributes
                0x00000000000003f4       0x2e /home/ch/RIOT/tests/driver_scd30/bin/lora-e5-dev/periph/uart.o
 .ARM.attributes
                0x0000000000000422       0x2e /home/ch/RIOT/tests/driver_scd30/bin/lora-e5-dev/pm_layered/pm.o
 .ARM.attributes
                0x0000000000000450       0x2e /home/ch/RIOT/tests/driver_scd30/bin/lora-e5-dev/scd30/scd30.o
 .ARM.attributes
                0x000000000000047e       0x2e /home/ch/RIOT/tests/driver_scd30/bin/lora-e5-dev/stdio_uart/stdio_uart.o
 .ARM.attributes
                0x00000000000004ac       0x2e /home/ch/RIOT/tests/driver_scd30/bin/lora-e5-dev/stm32_clk/stmclk_common.o
 .ARM.attributes
                0x00000000000004da       0x2e /home/ch/RIOT/tests/driver_scd30/bin/lora-e5-dev/stm32_clk/stmclk_l4wx.o
 .ARM.attributes
                0x0000000000000508       0x2e /home/ch/RIOT/tests/driver_scd30/bin/lora-e5-dev/stm32_vectors/STM32WLE5xx.o
 .ARM.attributes
                0x0000000000000536       0x2e /home/ch/RIOT/tests/driver_scd30/bin/lora-e5-dev/xtimer/xtimer_core.o
 .ARM.attributes
                0x0000000000000564       0x2e /home/ch/RIOT/tests/driver_scd30/bin/lora-e5-dev/xtimer/xtimer.o
 .ARM.attributes
                0x0000000000000592       0x1e /usr/lib/gcc/arm-none-eabi/9.2.1/thumb/v7e-m/nofp/libgcc.a(_arm_addsubdf3.o)
 .ARM.attributes
                0x00000000000005b0       0x2e /usr/lib/gcc/arm-none-eabi/9.2.1/../../../arm-none-eabi/lib/thumb/v7e-m/nofp/libc_nano.a(lib_a-impure.o)
 .ARM.attributes
                0x00000000000005de       0x2e /usr/lib/gcc/arm-none-eabi/9.2.1/../../../arm-none-eabi/lib/thumb/v7e-m/nofp/libc_nano.a(lib_a-init.o)
 .ARM.attributes
                0x000000000000060c       0x2e /usr/lib/gcc/arm-none-eabi/9.2.1/../../../arm-none-eabi/lib/thumb/v7e-m/nofp/libc_nano.a(lib_a-malloc.o)
 .ARM.attributes
                0x000000000000063a       0x1c /usr/lib/gcc/arm-none-eabi/9.2.1/../../../arm-none-eabi/lib/thumb/v7e-m/nofp/libc_nano.a(lib_a-memcpy.o)
 .ARM.attributes
                0x0000000000000656       0x2e /usr/lib/gcc/arm-none-eabi/9.2.1/../../../arm-none-eabi/lib/thumb/v7e-m/nofp/libc_nano.a(lib_a-memset.o)
 .ARM.attributes
                0x0000000000000684       0x2e /usr/lib/gcc/arm-none-eabi/9.2.1/../../../arm-none-eabi/lib/thumb/v7e-m/nofp/libc_nano.a(lib_a-nano-freer.o)
 .ARM.attributes
                0x00000000000006b2       0x2e /usr/lib/gcc/arm-none-eabi/9.2.1/../../../arm-none-eabi/lib/thumb/v7e-m/nofp/libc_nano.a(lib_a-nano-mallocr.o)
 .ARM.attributes
                0x00000000000006e0       0x2e /usr/lib/gcc/arm-none-eabi/9.2.1/../../../arm-none-eabi/lib/thumb/v7e-m/nofp/libc_nano.a(lib_a-nano-vfprintf_float.o)
 .ARM.attributes
                0x000000000000070e       0x2e /usr/lib/gcc/arm-none-eabi/9.2.1/../../../arm-none-eabi/lib/thumb/v7e-m/nofp/libc_nano.a(lib_a-nano-vfprintf_i.o)
 .ARM.attributes
                0x000000000000073c       0x2e /usr/lib/gcc/arm-none-eabi/9.2.1/../../../arm-none-eabi/lib/thumb/v7e-m/nofp/libc_nano.a(lib_a-printf.o)
 .ARM.attributes
                0x000000000000076a       0x2e /usr/lib/gcc/arm-none-eabi/9.2.1/../../../arm-none-eabi/lib/thumb/v7e-m/nofp/libc_nano.a(lib_a-puts.o)
 .ARM.attributes
                0x0000000000000798       0x1c /usr/lib/gcc/arm-none-eabi/9.2.1/../../../arm-none-eabi/lib/thumb/v7e-m/nofp/libc_nano.a(lib_a-strlen.o)
 .ARM.attributes
                0x00000000000007b4       0x2e /usr/lib/gcc/arm-none-eabi/9.2.1/../../../arm-none-eabi/lib/thumb/v7e-m/nofp/libc_nano.a(lib_a-wbuf.o)
 .ARM.attributes
                0x00000000000007e2       0x2e /usr/lib/gcc/arm-none-eabi/9.2.1/../../../arm-none-eabi/lib/thumb/v7e-m/nofp/libc_nano.a(lib_a-wsetup.o)
 .ARM.attributes
                0x0000000000000810       0x2e /usr/lib/gcc/arm-none-eabi/9.2.1/../../../arm-none-eabi/lib/thumb/v7e-m/nofp/libc_nano.a(lib_a-dtoa.o)
 .ARM.attributes
                0x000000000000083e       0x2e /usr/lib/gcc/arm-none-eabi/9.2.1/../../../arm-none-eabi/lib/thumb/v7e-m/nofp/libc_nano.a(lib_a-fflush.o)
 .ARM.attributes
                0x000000000000086c       0x2e /usr/lib/gcc/arm-none-eabi/9.2.1/../../../arm-none-eabi/lib/thumb/v7e-m/nofp/libc_nano.a(lib_a-findfp.o)
 .ARM.attributes
                0x000000000000089a       0x2e /usr/lib/gcc/arm-none-eabi/9.2.1/../../../arm-none-eabi/lib/thumb/v7e-m/nofp/libc_nano.a(lib_a-fprintf.o)
 .ARM.attributes
                0x00000000000008c8       0x2e /usr/lib/gcc/arm-none-eabi/9.2.1/../../../arm-none-eabi/lib/thumb/v7e-m/nofp/libc_nano.a(lib_a-fwalk.o)
 .ARM.attributes
                0x00000000000008f6       0x2e /usr/lib/gcc/arm-none-eabi/9.2.1/../../../arm-none-eabi/lib/thumb/v7e-m/nofp/libc_nano.a(lib_a-localeconv.o)
 .ARM.attributes
                0x0000000000000924       0x2e /usr/lib/gcc/arm-none-eabi/9.2.1/../../../arm-none-eabi/lib/thumb/v7e-m/nofp/libc_nano.a(lib_a-makebuf.o)
 .ARM.attributes
                0x0000000000000952       0x1c /usr/lib/gcc/arm-none-eabi/9.2.1/../../../arm-none-eabi/lib/thumb/v7e-m/nofp/libc_nano.a(lib_a-memchr.o)
 .ARM.attributes
                0x000000000000096e       0x2e /usr/lib/gcc/arm-none-eabi/9.2.1/../../../arm-none-eabi/lib/thumb/v7e-m/nofp/libc_nano.a(lib_a-mlock.o)
 .ARM.attributes
                0x000000000000099c       0x2e /usr/lib/gcc/arm-none-eabi/9.2.1/../../../arm-none-eabi/lib/thumb/v7e-m/nofp/libc_nano.a(lib_a-mprec.o)
 .ARM.attributes
                0x00000000000009ca       0x2e /usr/lib/gcc/arm-none-eabi/9.2.1/../../../arm-none-eabi/lib/thumb/v7e-m/nofp/libc_nano.a(lib_a-nano-callocr.o)
 .ARM.attributes
                0x00000000000009f8       0x2e /usr/lib/gcc/arm-none-eabi/9.2.1/../../../arm-none-eabi/lib/thumb/v7e-m/nofp/libc_nano.a(lib_a-nano-reallocr.o)
 .ARM.attributes
                0x0000000000000a26       0x2e /usr/lib/gcc/arm-none-eabi/9.2.1/../../../arm-none-eabi/lib/thumb/v7e-m/nofp/libc_nano.a(lib_a-nano-vfprintf.o)
 .ARM.attributes
                0x0000000000000a54       0x2e /usr/lib/gcc/arm-none-eabi/9.2.1/../../../arm-none-eabi/lib/thumb/v7e-m/nofp/libc_nano.a(lib_a-stdio.o)
 .ARM.attributes
                0x0000000000000a82       0x2e /usr/lib/gcc/arm-none-eabi/9.2.1/../../../arm-none-eabi/lib/thumb/v7e-m/nofp/libc_nano.a(lib_a-assert.o)
 .ARM.attributes
                0x0000000000000ab0       0x2e /usr/lib/gcc/arm-none-eabi/9.2.1/../../../arm-none-eabi/lib/thumb/v7e-m/nofp/libc_nano.a(lib_a-fvwrite.o)
 .ARM.attributes
                0x0000000000000ade       0x2e /usr/lib/gcc/arm-none-eabi/9.2.1/../../../arm-none-eabi/lib/thumb/v7e-m/nofp/libc_nano.a(lib_a-locale.o)
 .ARM.attributes
                0x0000000000000b0c       0x2e /usr/lib/gcc/arm-none-eabi/9.2.1/../../../arm-none-eabi/lib/thumb/v7e-m/nofp/libc_nano.a(lib_a-mbtowc_r.o)
 .ARM.attributes
                0x0000000000000b3a       0x2e /usr/lib/gcc/arm-none-eabi/9.2.1/../../../arm-none-eabi/lib/thumb/v7e-m/nofp/libc_nano.a(lib_a-memmove.o)
 .ARM.attributes
                0x0000000000000b68       0x2e /usr/lib/gcc/arm-none-eabi/9.2.1/../../../arm-none-eabi/lib/thumb/v7e-m/nofp/libc_nano.a(lib_a-nano-msizer.o)
 .ARM.attributes
                0x0000000000000b96       0x2e /usr/lib/gcc/arm-none-eabi/9.2.1/../../../arm-none-eabi/lib/thumb/v7e-m/nofp/libc_nano.a(lib_a-wctomb_r.o)
 .ARM.attributes
                0x0000000000000bc4       0x2e /usr/lib/gcc/arm-none-eabi/9.2.1/../../../arm-none-eabi/lib/thumb/v7e-m/nofp/libc_nano.a(lib_a-abort.o)
 .ARM.attributes
                0x0000000000000bf2       0x2e /usr/lib/gcc/arm-none-eabi/9.2.1/../../../arm-none-eabi/lib/thumb/v7e-m/nofp/libc_nano.a(lib_a-ctype_.o)
 .ARM.attributes
                0x0000000000000c20       0x2e /usr/lib/gcc/arm-none-eabi/9.2.1/../../../arm-none-eabi/lib/thumb/v7e-m/nofp/libc_nano.a(lib_a-signal.o)
 .ARM.attributes
                0x0000000000000c4e       0x1e /usr/lib/gcc/arm-none-eabi/9.2.1/thumb/v7e-m/nofp/libgcc.a(_arm_muldivdf3.o)
 .ARM.attributes
                0x0000000000000c6c       0x1e /usr/lib/gcc/arm-none-eabi/9.2.1/thumb/v7e-m/nofp/libgcc.a(_arm_cmpdf2.o)
 .ARM.attributes
                0x0000000000000c8a       0x1e /usr/lib/gcc/arm-none-eabi/9.2.1/thumb/v7e-m/nofp/libgcc.a(_arm_unorddf2.o)
 .ARM.attributes
                0x0000000000000ca8       0x1e /usr/lib/gcc/arm-none-eabi/9.2.1/thumb/v7e-m/nofp/libgcc.a(_arm_fixdfsi.o)

.debug_frame    0x0000000000000000     0x2520
 .debug_frame   0x0000000000000000       0x4c /home/ch/RIOT/tests/driver_scd30/bin/lora-e5-dev/application_tests_driver_scd30/main.o
 .debug_frame   0x000000000000004c       0x20 /home/ch/RIOT/tests/driver_scd30/bin/lora-e5-dev/auto_init/auto_init.o
 .debug_frame   0x000000000000006c       0x3c /home/ch/RIOT/tests/driver_scd30/bin/lora-e5-dev/board/board.o
 .debug_frame   0x00000000000000a8       0x2c /home/ch/RIOT/tests/driver_scd30/bin/lora-e5-dev/checksum/crc8.o
 .debug_frame   0x00000000000000d4       0x50 /home/ch/RIOT/tests/driver_scd30/bin/lora-e5-dev/core/init.o
 .debug_frame   0x0000000000000124       0xd0 /home/ch/RIOT/tests/driver_scd30/bin/lora-e5-dev/core/mutex.o
 .debug_frame   0x00000000000001f4       0x58 /home/ch/RIOT/tests/driver_scd30/bin/lora-e5-dev/core/panic.o
 .debug_frame   0x000000000000024c       0x90 /home/ch/RIOT/tests/driver_scd30/bin/lora-e5-dev/core/sched.o
 .debug_frame   0x00000000000002dc      0x124 /home/ch/RIOT/tests/driver_scd30/bin/lora-e5-dev/core/thread.o
 .debug_frame   0x0000000000000400       0x48 /home/ch/RIOT/tests/driver_scd30/bin/lora-e5-dev/cortexm_common/cortexm_init.o
 .debug_frame   0x0000000000000448       0x38 /home/ch/RIOT/tests/driver_scd30/bin/lora-e5-dev/cortexm_common/panic.o
 .debug_frame   0x0000000000000480       0xd4 /home/ch/RIOT/tests/driver_scd30/bin/lora-e5-dev/cortexm_common/thread_arch.o
 .debug_frame   0x0000000000000554      0x128 /home/ch/RIOT/tests/driver_scd30/bin/lora-e5-dev/cortexm_common/vectors_cortexm.o
 .debug_frame   0x000000000000067c       0x60 /home/ch/RIOT/tests/driver_scd30/bin/lora-e5-dev/cpu/cpu_common.o
 .debug_frame   0x00000000000006dc       0x6c /home/ch/RIOT/tests/driver_scd30/bin/lora-e5-dev/cpu/cpu_init.o
 .debug_frame   0x0000000000000748       0x8c /home/ch/RIOT/tests/driver_scd30/bin/lora-e5-dev/malloc_thread_safe/malloc_wrappers.o
 .debug_frame   0x00000000000007d4      0x1b0 /home/ch/RIOT/tests/driver_scd30/bin/lora-e5-dev/newlib_syscalls_default/syscalls.o
 .debug_frame   0x0000000000000984       0x30 /home/ch/RIOT/tests/driver_scd30/bin/lora-e5-dev/periph_common/init.o
 .debug_frame   0x00000000000009b4       0xfc /home/ch/RIOT/tests/driver_scd30/bin/lora-e5-dev/periph/gpio_all.o
 .debug_frame   0x0000000000000ab0      0x194 /home/ch/RIOT/tests/driver_scd30/bin/lora-e5-dev/periph/i2c_1.o
 .debug_frame   0x0000000000000c44       0x60 /home/ch/RIOT/tests/driver_scd30/bin/lora-e5-dev/periph/pm.o
 .debug_frame   0x0000000000000ca4       0xb8 /home/ch/RIOT/tests/driver_scd30/bin/lora-e5-dev/periph/timer.o
 .debug_frame   0x0000000000000d5c       0xf8 /home/ch/RIOT/tests/driver_scd30/bin/lora-e5-dev/periph/uart.o
 .debug_frame   0x0000000000000e54       0x90 /home/ch/RIOT/tests/driver_scd30/bin/lora-e5-dev/pm_layered/pm.o
 .debug_frame   0x0000000000000ee4      0x178 /home/ch/RIOT/tests/driver_scd30/bin/lora-e5-dev/scd30/scd30.o
 .debug_frame   0x000000000000105c       0x58 /home/ch/RIOT/tests/driver_scd30/bin/lora-e5-dev/stdio_uart/stdio_uart.o
 .debug_frame   0x00000000000010b4       0xa8 /home/ch/RIOT/tests/driver_scd30/bin/lora-e5-dev/stm32_clk/stmclk_common.o
 .debug_frame   0x000000000000115c       0x3c /home/ch/RIOT/tests/driver_scd30/bin/lora-e5-dev/stm32_clk/stmclk_l4wx.o
 .debug_frame   0x0000000000001198       0x20 /home/ch/RIOT/tests/driver_scd30/bin/lora-e5-dev/stm32_vectors/STM32WLE5xx.o
 .debug_frame   0x00000000000011b8      0x130 /home/ch/RIOT/tests/driver_scd30/bin/lora-e5-dev/xtimer/xtimer_core.o
 .debug_frame   0x00000000000012e8      0x20c /home/ch/RIOT/tests/driver_scd30/bin/lora-e5-dev/xtimer/xtimer.o
 .debug_frame   0x00000000000014f4       0xac /usr/lib/gcc/arm-none-eabi/9.2.1/thumb/v7e-m/nofp/libgcc.a(_arm_addsubdf3.o)
 .debug_frame   0x00000000000015a0       0x2c /usr/lib/gcc/arm-none-eabi/9.2.1/../../../arm-none-eabi/lib/thumb/v7e-m/nofp/libc_nano.a(lib_a-init.o)
 .debug_frame   0x00000000000015cc       0x30 /usr/lib/gcc/arm-none-eabi/9.2.1/../../../arm-none-eabi/lib/thumb/v7e-m/nofp/libc_nano.a(lib_a-malloc.o)
 .debug_frame   0x00000000000015fc       0x38 /usr/lib/gcc/arm-none-eabi/9.2.1/../../../arm-none-eabi/lib/thumb/v7e-m/nofp/libc_nano.a(lib_a-memset.o)
 .debug_frame   0x0000000000001634       0x58 /usr/lib/gcc/arm-none-eabi/9.2.1/../../../arm-none-eabi/lib/thumb/v7e-m/nofp/libc_nano.a(lib_a-nano-freer.o)
 .debug_frame   0x000000000000168c       0x30 /usr/lib/gcc/arm-none-eabi/9.2.1/../../../arm-none-eabi/lib/thumb/v7e-m/nofp/libc_nano.a(lib_a-nano-mallocr.o)
 .debug_frame   0x00000000000016bc       0xb0 /usr/lib/gcc/arm-none-eabi/9.2.1/../../../arm-none-eabi/lib/thumb/v7e-m/nofp/libc_nano.a(lib_a-nano-vfprintf_float.o)
 .debug_frame   0x000000000000176c       0x68 /usr/lib/gcc/arm-none-eabi/9.2.1/../../../arm-none-eabi/lib/thumb/v7e-m/nofp/libc_nano.a(lib_a-nano-vfprintf_i.o)
 .debug_frame   0x00000000000017d4       0x7c /usr/lib/gcc/arm-none-eabi/9.2.1/../../../arm-none-eabi/lib/thumb/v7e-m/nofp/libc_nano.a(lib_a-printf.o)
 .debug_frame   0x0000000000001850       0x40 /usr/lib/gcc/arm-none-eabi/9.2.1/../../../arm-none-eabi/lib/thumb/v7e-m/nofp/libc_nano.a(lib_a-puts.o)
 .debug_frame   0x0000000000001890       0x40 /usr/lib/gcc/arm-none-eabi/9.2.1/../../../arm-none-eabi/lib/thumb/v7e-m/nofp/libc_nano.a(lib_a-wbuf.o)
 .debug_frame   0x00000000000018d0       0x2c /usr/lib/gcc/arm-none-eabi/9.2.1/../../../arm-none-eabi/lib/thumb/v7e-m/nofp/libc_nano.a(lib_a-wsetup.o)
 .debug_frame   0x00000000000018fc       0x8c /usr/lib/gcc/arm-none-eabi/9.2.1/../../../arm-none-eabi/lib/thumb/v7e-m/nofp/libc_nano.a(lib_a-dtoa.o)
 .debug_frame   0x0000000000001988       0x70 /usr/lib/gcc/arm-none-eabi/9.2.1/../../../arm-none-eabi/lib/thumb/v7e-m/nofp/libc_nano.a(lib_a-fflush.o)
 .debug_frame   0x00000000000019f8      0x120 /usr/lib/gcc/arm-none-eabi/9.2.1/../../../arm-none-eabi/lib/thumb/v7e-m/nofp/libc_nano.a(lib_a-findfp.o)
 .debug_frame   0x0000000000001b18       0x70 /usr/lib/gcc/arm-none-eabi/9.2.1/../../../arm-none-eabi/lib/thumb/v7e-m/nofp/libc_nano.a(lib_a-fprintf.o)
 .debug_frame   0x0000000000001b88       0x54 /usr/lib/gcc/arm-none-eabi/9.2.1/../../../arm-none-eabi/lib/thumb/v7e-m/nofp/libc_nano.a(lib_a-fwalk.o)
 .debug_frame   0x0000000000001bdc       0x40 /usr/lib/gcc/arm-none-eabi/9.2.1/../../../arm-none-eabi/lib/thumb/v7e-m/nofp/libc_nano.a(lib_a-localeconv.o)
 .debug_frame   0x0000000000001c1c       0x64 /usr/lib/gcc/arm-none-eabi/9.2.1/../../../arm-none-eabi/lib/thumb/v7e-m/nofp/libc_nano.a(lib_a-makebuf.o)
 .debug_frame   0x0000000000001c80       0x30 /usr/lib/gcc/arm-none-eabi/9.2.1/../../../arm-none-eabi/lib/thumb/v7e-m/nofp/libc_nano.a(lib_a-mlock.o)
 .debug_frame   0x0000000000001cb0      0x284 /usr/lib/gcc/arm-none-eabi/9.2.1/../../../arm-none-eabi/lib/thumb/v7e-m/nofp/libc_nano.a(lib_a-mprec.o)
 .debug_frame   0x0000000000001f34       0x2c /usr/lib/gcc/arm-none-eabi/9.2.1/../../../arm-none-eabi/lib/thumb/v7e-m/nofp/libc_nano.a(lib_a-nano-callocr.o)
 .debug_frame   0x0000000000001f60       0x38 /usr/lib/gcc/arm-none-eabi/9.2.1/../../../arm-none-eabi/lib/thumb/v7e-m/nofp/libc_nano.a(lib_a-nano-reallocr.o)
